:100000000C9470550C94A1550C94A1550C94A155C9
:100010000C94A1550C94A1550C94A1550C94A15588
:100020000C94A1550C94A1550C94A1550C94A15578
:100030000C94A1550C941EE40C94A1550C94A1555C
:100040000C94A1550C94A1550C94A1550C94A15558
:100050000C94A1550C94A1550C94A1550C9403E556
:100060000C94A1550C944CE30C9423E30C94A155EF
:100070000C94A1550C94A1550C94A1550C94A15528
:100080000C94A1550C94A1550C94A1550C94A15518
:100090000C94A1550C94A1550C94A1550D943F2C92
:1000A0000C94A1550C94A1550C94A1550C94A155F8
:1000B0000C94A1550C94A1550C94A1550C94A155E8
:1000C0000C94A1550C94A1550C94A1550C94A155D8
:1000D0000C94A1550C94A1550C94A1550C94A155C8
:1000E0000C94A1556D5A705A755A7D5A885A885A7F
:1000F000965A965A965A8483419351845184E38543
:100100004193E8881D87958841931B8AE98A378C3B
:10011000378C8483E38F419384838D8B0D8DCF84C3
:10012000A78D588EE38F3C8F6F906A9175928A925B
:1001300091878B98A198B798CD98E398F9980F99E3
:1001400059998A99BB99EC991D9A4E9A7F9ADE9A91
:10015000F09BF39CF69DF99EFC9F01A1DCA215A3E8
:1001600047A379A3ABA3DDA30FA441A473A4A5A4C3
:100170000BA53CA56DA59EA5CFA500A631A662A6A0
:1001800093A6C4A60AA718A81BA92AAA2DAB30AC0F
:100190003DAD43AD49AD4FAD81AF97AFADAFC3AF4F
:1001A000D9AFEFAF05B054B085B0B6B0E7B018B175
:1001B00049B17AB1B8B120B34EB47AB5A6B6D2B7C8
:1001C000FDB81ADD30DD46DD5CDD72DD88DD9EDDEB
:1001D000E6DD17DE48DE79DEAADEDBDE0CDF6FDF70
:1001E00095DFBBDFE1DF07E02DE04FE0C0E1C3E1D9
:1001F000B2E1B6E1BCE1FAE1C7E1CBE1D1E1D5E1A1
:10020000D9E1DFE1E3E1E7E1FAE1EDE1F1E1F5E197
:1002100096F583F6B2F5B2F5CCF583F677F55AF696
:10022000F1F583F6FFF5FFF51CF61CF696F55AF688
:1002300083F696F5FFF55AF6B2F52CF65AF65AF60D
:100240005AF65AF65AF646F65AF65AF68C0146010E
:10025000860154013E01440160017C016201740188
:100260006801780184017A016C016E015801400136
:1002700092017E0142015201500182010D948D32A2
:100280000D941F350D9425350D94A6320D944232F0
:100290000D9415190D9487190D94F9280D94E945BD
:1002A0000D9429350D9427350D9474320D94CF1E7D
:1002B0000D941D350D947C460D94391F0D9408291D
:1002C0000D94BF320D9444340D9424290D940720CD
:1002D0000D9476340D94FF180D94DA340D94F334A4
:1002E0000D941C290D9410200D945D340D94F82864
:1002F0000D948F340D94C1340D94D8320D94233560
:100300000D940E1F0D942B350D94A8340D945B3273
:100310000D94DE180D944C480D9421320D94EA454D
:100320000D9453290D9421350D948F1900407A10A6
:10033000F35A00A0724E18090010A5D4E80000E896
:100340007648170000E40B54020000CA9A3B0000F4
:1003500000E1F505000080969800000040420F0083
:100360000000A08601000000102700000000E80344
:10037000000000006400000000000A00000000000F
:100380000100000000002C76D888DC674F0823DFCE
:10039000C1DFAE59E1B1B796E5E3E453C63AE651A1
:1003A000997696E8E6C28426EB898C9B62ED407CC8
:1003B0006FFCEFBC9C9F40F2BAA56FA5F490055A64
:1003C0002AF75C936B6CF9676DC11BFCE0E40D4789
:1003D000FEF520E6B500D0ED902E030094357705AC
:1003E0000080841E080000204E0A000000C80C3364
:1003F0003333330F986E12831141EF8D2114893BF3
:10040000E65516CFFEE6DB18D1844B381BF77C1D72
:10041000901DA4BBE424203284725E228100C9F1C5
:1004200024ECA1E53D27080C20173CE781BD81BDE8
:1004300081BD81BD81FF3CE7818181BD81BD81BDE1
:1004400081FF3CE78181818181BD81BD81FF3CE7E6
:1004500081818181818181BD81FF3CE781818181B1
:100460008181818181FFFFFF003F3F000F0F00036B
:1004700003000000003F3F000F0F000303000000D7
:10048000000000000F0F0003030000000000000048
:10049000000000030300000010101010105438106A
:1004A0000000000010385410101010100000000060
:1004B000000010087C081000000000000000102060
:1004C0007C20100000000000003C0C14244480003C
:1004D0000000000000804424140C3C0000000000D8
:1004E0003C42A581A599423C000000003C7EDBFF18
:1004F000FFDB663C000000003C42A58199A5423C20
:10050000000000003C7EDBFFFFE75A3C00000000DB
:100510003C4281818181423C000000003C7EFFFF23
:10052000FFFF7E3C00000000FF818181818181FF0F
:1005300000000000FFFFFFFFFFFFFFFF0000FFFFC5
:10054000FFFFFFFFFFFFFFFFFFFFFFFFFFFFFFFFBB
:10055000FFFFFFFFFFFFFFFFFFFF59D6108C6D73FA
:100560002C6BAA5AAA5AAA5A8D7BCE8313ADFBE6EE
:10057000FFFFFFFFFFFFFFFFFFFFFFFFFFFFFFFF8B
:10058000FFFFFFFFFFFFFFFFFFFFFFFFFFFFFFFF7B
:10059000FFFFFFFFFFFFFFFFFFFFFFFFFFFFFFFF6B
:1005A000FFFFFFFFFFFFFFFFFFFFFFFFFFFFFFFF5B
:1005B000FFFFFFFFFFFFFFFFFFFFFFFFFFFFEF83D7
:1005C0004852308C8E7BC3206210A2184852AA6217
:1005D000074A518CFFFFDFFFFFFFFFFFFFFFFFFF19
:1005E000FFFFFFFFFFFFFFFFFFFFFFFFFFFFFFFF1B
:1005F000FFFFFFFFFFFFFFFFFFFFFFFFFFFFFFFF0B
:10060000FFFFFFFFFFFFFFFFFFFFFFFFFFFFFFFFFA
:10061000FFFFFFFFFFFFFFFFFFFFFFFFFFFFFFFFEA
:10062000FFFFAE7B29525194108C821000004108CC
:1006300029528A5AC6411084FFFFFFFFFFFFFFFFC8
:10064000FFFFFFFFFFFFFFFFFFFFFFFFFFFFFFFFBA
:10065000FFFFFFFFFFFFFFFFFFFFFFFFFFFFFFFFAA
:10066000FFFFFFFFFFFFFFFFFFFFFFFFFFFFFFFF9A
:10067000FFFFFFFFFFFFFFFFFFFFFFFFFFFFFFFF8A
:10068000FFFFDFFFFFFF8E7B69527194108CA21871
:10069000000082106952CA62C741108CFFFFDFFF61
:1006A000FFFFFFFFFFFFFFFFFFFFFFFFFFFFFFFF5A
:1006B000FFFFFFFFFFFFFFFFFFFFFFFFFFFFFFFF4A
:1006C000FFFFFFFFFFFFFFFFFFFFFFFFFFFFFFFF3A
:1006D000FFFFFFFFFFFFFFFFFFFFFFFFFFFFFFFF2A
:1006E000FFFFFFFFFFFFFFFFDFFF2C6B295251943D
:1006F0000C6321080000611069520B6BC641AE7B90
:10070000DEFFFFFFFFFFFFFFFFFFFFFFFFFFFFFF1A
:10071000FFFFFFFFFFFFFFFFFFFFFFFFFFFFFFFFE9
:10072000FFFFFFFFFFFFFFFFFFFFFFFFFFFFFFFFD9
:10073000FFFFFFFFFFFFFFFFFFFFFFFFFFFFFFFFC9
:10074000FFFFFFFFFFFFFFFFFFFFB6BDEB62284A81
:10075000084A2C6BE7414108210841084529C7395F
:10076000A63949528D73B6BDFFFFFFFFFFFFFFFFA4
:10077000FFFFFFFFFFFFFFFFFFFFFFFFFFFFFFFF89
:10078000FFFFFFFFFFFFFFFFFFFFFFFFFFFFFFFF79
:10079000FFFFFFFFFFFFFFFFFFFFFFFFFFFFFFFF69
:1007A000FFFFFFFFFFFFFFFFFFFFDFFFFFFF308CBB
:1007B0002429E7414852AA5A042121084108210866
:1007C00000004108A639C641084AD39CFFFFDFFF5D
:1007D000FFFFFFFFFFFFFFFFFFFFFFFFFFFFFFFF29
:1007E000FFFFFFFFFFFFFFFFFFFFFFFFFFFFFFFF19
:1007F000FFFFFFFFFFFFFFFFFFFFFFFFFFFFFFFF09
:10080000FFFFFFFFFFFFFFFFFFFFFFFFFFFFDFFF18
:10081000FFFF92948539C7412852AA5A042100004B
:100820002108410821088210A639C6414952F3A483
:10083000FFFFDFFFFFFFFFFFFFFFFFFFFFFFFFFFE8
:10084000FFFFFFFFFFFFFFFFFFFFFFFFFFFFFFFFB8
:10085000FFFFFFFFFFFFFFFFFFFFFFFFFFFFFFFFA8
:10086000FFFFFFFFFFFFFFFFFFFFFFFFFFFFFFFF98
:10087000FFFFDFFFFFFF508C4531E7414852AA5A86
:10088000042121082108210821086210A639E74126
:10089000084AB29CFFFFDFFFFFFFFFFFFFFFFFFFE4
:1008A000FFFFFFFFFFFFFFFFFFFFFFFFFFFFFFFF58
:1008B000FFFFFFFFFFFFFFFFFFFFFFFFFFFFFFFF48
:1008C000FFFFFFFFFFFFFFFFFFFFFFFFFFFFFFFF38
:1008D000FFFFFFFFFFFFFFFFFFFF18C6E74165397E
:1008E000C749E751A328001000100010001020187D
:1008F00025398641CA6238CEFFFFFFFFFFFFFFFFA9
:10090000FFFFFFFFFFFFFFFFFFFFFFFFFFFFFFFFF7
:10091000FFFFFFFFFFFFFFFFFFFFFFFFFFFFFFFFE7
:10092000FFFFFFFFFFFFFFFFFFFFFFFFFFFFFFFFD7
:10093000FFFFFFFFFFFFFFFFFFFFFFFFDFFFFFFFE7
:10094000B2A4654966512559834841388348A34874
:10095000E45004596661C759D7CDFFFFDFFFFFFFA1
:10096000FFFFFFFFFFFFFFFFFFFFFFFFFFFFFFFF97
:10097000FFFFFFFFFFFFFFFFFFFFFFFFFFFFFFFF87
:10098000FFFFFFFFFFFFFFFFFFFFFFFFFFFFFFFF77
:10099000FFFFFFFFFFFFFFFFFFFFFFFFFFFFFFFF67
:1009A000FFFFDFFFBEFF38EE6EABEDAAA8894681E0
:1009B000678966898789E891499276DD9EFFBFFF46
:1009C000FFFFFFFFFFFFFFFFFFFFFFFFFFFFFFFF37
:1009D000FFFFFFFFFFFFFFFFFFFFFFFFFFFFFFFF27
:1009E000FFFFFFFFFFFFFFFFFFFFFFFFFFFFFFFF17
:1009F000FFFFFFFFFFFFFFFFFFFFFFFFFFFFFFFF07
:100A0000FFFFFFFFFFFFDFFFDFFFF8F54EC38FDBC8
:100A100009BA87A988A987A94ABA8BC2ECB2DBFEBA
:100A2000BFFFDFFFFFFFFFFFFFFFFFFFFFFFFFFF36
:100A3000FFFFFFFFFFFFFFFFFFFFFFFFFFFFFFFFC6
:100A4000FFFFFFFFFFFFFFFFFFFFFFFFFFFFFFFFB6
:100A5000FFFFFFFFFFFFFFFFFFFFFFFFFFFFFFFFA6
:100A6000FFFFFFFFFFFFFFFFFFFFDFFF9EFF72D4CF
:100A70004ED3CCD20ACAC9C1C9C1E9C14ACA4AC205
:100A80002AAA51CC79FE3CFF7EFFDFFFDFFFDFFFAC
:100A9000DFFFFFFFFFFFFFFFFFFFFFFFFFFFFFFF86
:100AA000FFFFFFFFFFFFFFFFFFFFFFFFFFFFFFFF56
:100AB000FFFFFFFFFFFFFFFFFFFFFFFFFFFFFFFF46
:100AC000FFFFFFFFFFFFFFFFDFFFDFFF5DFFFCFE1C
:100AD00059FE11DCCCCA4AC22ACA2ACA4ACACCDA8E
:100AE0006BCA09C209BAABBAAFCB72D4D3D492CC19
:100AF000B3CC55DD18E63CF7FFFFFFFFFFFFFFFF1C
:100B0000FFFFFFFFFFFFFFFFFFFFFFFFFFFFFFFFF5
:100B1000FFFFFFFFFFFFFFFFFFFFFFFFFFFFFFFFE5
:100B2000FFFFFFFFFFFFFFFFFFFFFFFFDFFF9AF663
:100B300072BC31C431D48FD3CCC28BC28BC2ABCA8E
:100B4000ECDA6BCA09C209C209C24AC2ACC26ED38E
:100B500051E4B3EC51D431CCF0B396DD9EFFDEFF0F
:100B6000DFFFDFFFFFFFDFFFFFFFFFFFFFFFFFFFF5
:100B7000FFFFFFFFFFFFFFFFFFFFFFFFFFFFFFFF85
:100B8000FFFFFFFFFFFFFFFFFFFFFFFFDFFFFFFF95
:100B9000DFFF35D5AFBBF0D38FCB6ED30DC3D0D332
:100BA000F0DB0CCB09BA2AC22ACA2ACA2ACA2AC22C
:100BB0004AC24ABAABC28FD372ECB3F4D4ECB3DC02
:100BC000B3D455E5F7ED9AFE7DFFDFFFDFFFFFFFB2
:100BD000FFFFFFFFFFFFFFFFFFFFFFFFFFFFFFFF25
:100BE000FFFFFFFFFFFFFFFFFFFFFFFFFFFFFFFF15
:100BF000FFFFDEFF7DFFF4CCF0BB8EBB4DB3ECB24C
:100C0000ABA2F0C3AB9A29A229B2ECD2ACCAABCA50
:100C10008BCA8BCA8BCA8BCAACCACCCA4ED36ED312
:100C20004EC3AFC331CC31C451BC51BCD3C438E680
:100C30009EFFDFFFFFFFFFFFFFFFFFFFFFFFFFFF45
:100C4000FFFFFFFFFFFFFFFFFFFFFFFFFFFFFFFFB4
:100C5000FFFFF3A46D73108C5194B2AC51AC496A90
:100C6000086A29720872087A6A92C8896AA2CBB2A5
:100C7000ECBA0DC32DCB0DD3ECD2ECD2EDD20DD30B
:100C8000ECCA2DCBCFCB6DABCB8A6A7A6972AB82C3
:100C90002D93CFAB34D55DFFFFFFFFFFFFFFFFFFBD
:100CA000FFFFFFFFFFFFFFFFFFFFFFFFFFFFFFFF54
:100CB000FFFFFFFFFFFF8D73C741284A2852695A83
:100CC000CB6A0C6B8A620852C75186516659866995
:100CD000A771E879C779E8814A92ECBA0DCB0DD3B8
:100CE0000DDBCCCA2DCB2DB3E879A661C759E759E6
:100CF000696AC7598659E8710C93D3C45DFFDFFF59
:100D0000FFFFFFFFFFFFFFFFFFFFFFFFFFFFFFFFF3
:100D1000FFFFFFFFFFFFFFFFFFFFCE7B284A695A5F
:100D20004852084A084A084AC741A641E749285A92
:100D3000085249622862CB72CB7A8A722872499231
:100D40008BB28BC28BBA0DC3CBA26659E7594C83C9
:100D50002C7B4C7BD2AC8962AA6A48620862EB8A1F
:100D600055D5BFFFDFFFFFFFFFFFFFFFFFFFFFFFC7
:100D7000FFFFFFFFFFFFFFFFFFFFFFFFFFFFCE7B38
:100D8000E7414952284A2852284A4531C741A2180A
:100D9000084A48528639C741A639A639A641A64114
:100DA00045496A928ECBECC22DCBABA24559864900
:100DB000485A4C7B2C7389620C73074A0B6B0B737C
:100DC000EB72A6614D939AEEDFFFDFFFFFFFFFFF9F
:100DD000FFFFFFFFFFFFFFFFFFFFFFFFFFFFFFFF23
:100DE000FFFFCE83E7414852284A69520321242954
:100DF000653145316952E741453186398639863951
:100E0000A639A7416549098A4DC30DC3ECB2666195
:100E1000A651A64128520B6BEB6A695AEB6AC64190
:100E20004852895AEB7265490862F3BCBEFFDFFF86
:100E3000FFFFFFFFFFFFFFFFFFFFFFFFFFFFFFFFC2
:100E4000FFFFFFFFFFFFCF83C7414852284A4952A7
:100E5000853141084108C318863908424529863141
:100E600086318631A63986392541E8790DBB0DBB1F
:100E7000E8814549C749A639895A8A5A8639084AB4
:100E80002852A639A641895A4852C749A6514D93BE
:100E90001CFFDFFFFFFFFFFFFFFFFFFFFFFFFFFF65
:100EA000FFFFFFFFFFFFDFFFFFFFCF7BC6412852A1
:100EB000084A69526952242900000000E320E741F2
:100EC0004429653165316531863985392541C779D0
:100ED0004DBBCBA24561E7596539AA5A4952E7494A
:100EE000C7410429E7412C73C641695A28528962D7
:100EF0004962297239EEDFFFDFFFFFFFFFFFFFFFCF
:100F0000FFFFFFFFFFFFFFFFFFFFDFFFFFFFCF7BC5
:100F1000A639284A074A6952284A45290000000094
:100F2000C318284A442965316531653165318639F0
:100F3000244186716EB3087A49728D8B695248528A
:100F400028526539A64151946D7BC741AA62C741B9
:100F5000695A695A0C7BE76176D5DFFFFFFFFFFF17
:100F6000FFFFFFFFFFFFFFFFFFFFFFFFFFFFFFFF91
:100F7000FFFFCF83A639284A074A28526952042125
:100F800000000000C318084245296531653165310C
:100F900045316531043986692DAB0872AA72509CBF
:100FA0002C73895A2852653138D6BEFFD6C58D7B41
:100FB000A641C74185392852EB72C761F4C4DFFFEF
:100FC000FFFFFFFFFFFFFFFFFFFFFFFFFFFFFFFF31
:100FD000FFFFDFFFFFFFCF83A639284A084A084AF0
:100FE000E741863100000000E320C741452945293B
:100FF0004529452944294531043966690CA32872DD
:101000004862EE8BCA620B6B8639EB627DF7B6C520
:10101000D2A458D66539C741CB62AA622C7BC7617E
:10102000D3C4DFFFFFFFFFFFFFFFFFFFFFFFFFFF57
:10103000FFFFFFFFFFFFDFFFFFFFCF838639084A77
:10104000084AA639AE7BE741A21800004429C741EF
:10105000452945294529242924292429043966615B
:10106000EC9A076A2C7B13B5895A2C73A641B2A45B
:10107000FBEEB2A438D658D6C641C741CA628962CF
:101080000C7BA76114C5DFFFDFFFFFFFFFFFFFFF42
:10109000FFFFFFFFFFFFFFFFFFFFDFFFFFFFCF832C
:1010A0008639084A074AE741B6BD484A6531A21861
:1010B000E741284A45294529452924292429242965
:1010C000E3306561EB9A286ACE9333B5AA62CA62AF
:1010D0008539F3ACBAE696BDDBEE14AD6539C64191
:1010E0006539485A0C7BE86196D5DFFFFFFFFFFFAB
:1010F000FFFFFFFFFFFFFFFFFFFFFFFFFFFFDFFF20
:10110000FFFFCF838639084AE749084A4852284AF0
:10111000E741074A084A084A4531452945294529F2
:1011200024292429C33065610C9B086ACE93D2AC74
:10113000EA6A695AC741284A55B5BAE618D64952EB
:101140008539C741A641495ACB7249727AEEFFFFF1
:10115000FFFFFFFFFFFFFFFFFFFFFFFFFFFFFFFF9F
:10116000FFFFDFFFFFFFEF838639074AE749084AA1
:10117000E849E741E741C741E741C74145314529D2
:101180004529442924292531E33045612DA3E76908
:10119000EB7A91A42B736952695A2431E7412C6B85
:1011A000E7498639084A49528641495AC7512D8B29
:1011B0005DFFDFFFFFFFFFFFFFFFFFFFFFFFFFFF01
:1011C000FFFFFFFFFFFFFFFFFFFF10848639E749A6
:1011D000E749084AE849E741E741C741A639A63946
:1011E000453145292429242924294431C330456126
:1011F0004DABE871286A4C7B6952695A695A863945
:10120000A64145314852695A6952895AA6418649D0
:10121000A651F4BCDFFFDFFFFFFFFFFFFFFFFFFF73
:10122000FFFFFFFFFFFFFFFFFFFFDFFFFFFF108458
:101230008639E749E741E741084AE741E741C741C5
:10124000C641A639452945292429242904292429C8
:10125000C33045690DB38A922559E7598539084A43
:10126000E7498639A641A641AA62CB62CB628A626F
:10127000A6496549CB7ADBEEDFFFDFFFFFFFFFFF0B
:10128000FFFFFFFFFFFFFFFFFFFFFFFFFFFFFFFF6E
:10129000FFFF308CA639084AE741074A074AE74171
:1012A000C741C641A639863945292529252924293A
:1012B00024292431C33866690CB3ECB286794449D9
:1012C000C74986418639084A085286418A5A8A5A4D
:1012D000074A485A8649C76114C5DFFFDFFFFFFF91
:1012E000FFFFFFFFFFFFFFFFFFFFFFFFFFFFFFFF0E
:1012F000FFFFDFFFFFFF308CC641284A074A084A3C
:10130000074AE741C641A641C641A63945292529D4
:101310002429242904292429E3388671ECB2ACBAA3
:10132000ABAA65618651A649E7490C73EB6AE749A8
:101330002852CB6A285A085AA651F0A35DFFDFFF56
:10134000FFFFFFFFFFFFFFFFFFFFFFFFFFFFFFFFAD
:10135000FFFFFFFFFFFFDFFFFFFF108C6531284A13
:10136000084A284A084AE741C741C641C741A63949
:101370002429452945292429042924290439A77128
:10138000ECAA8BB2CCBA8AA245612549E751CB6A57
:10139000695AC749C649A651454986618E9BFBF6E5
:1013A000DFFFDFFFFFFFFFFFFFFFFFFFFFFFFFFF8D
:1013B000FFFFFFFFFFFFFFFFFFFFFFFFFFFF18C65D
:1013C0000B636952C641C641C641C741C741C641C8
:1013D000A639863945292529452904290431453965
:1013E000E438E871E8814571E8898BA2CB9A0872EC
:1013F00066514549244145494549A6594972F0ABD2
:10140000FBFEDFFFDFFFFFFFFFFFFFFFFFFFFFFF31
:10141000FFFFFFFFFFFFFFFFFFFFFFFFFFFFFFFFDC
:10142000FFFFFFFFFFFF1CE7F7C592944C6B484A94
:10143000E741C741C6418639452945290429043178
:1014400024392441C338CB8279F655D572B4CFAB59
:10145000EC9AAB928A922982087A087A8A826E9BE9
:1014600055CD7EFFDFFFDFFFFFFFFFFFFFFFFFFF29
:10147000FFFFFFFFFFFFFFFFFFFFFFFFFFFFFFFF7C
:10148000FFFFFFFFFFFFFFFFFFFFFFFFFFFFFFFF6C
:10149000FFFFFBE66952A639A63965314531453172
:1014A000C741864986496651C759CB72DBF6DFFFD3
:1014B000DFFFBEFFBBFE55DDF0BBAFABF0B3B3CC7F
:1014C000D7E51CFFDFFFFFFFDFFFFFFFFFFFFFFF91
:1014D000FFFFFFFFFFFFFFFFFFFFFFFFFFFFFFFF1C
:1014E000FFFFFFFFFFFFFFFFFFFFFFFFFFFFFFFF0C
:1014F000DFFFDFFFFFFFB6BDC639A6394529242926
:1015000004292429084AC328A228E438E338E33010
:10151000519CDFFFBEFFDFFFDFFFDFFFDFFFBFFF0D
:10152000BFFFDFFFDFFFDFFFDFFFFFFFFFFFFFFF8B
:10153000FFFFFFFFFFFFFFFFFFFFFFFFFFFFFFFFBB
:10154000FFFFFFFFFFFFFFFFFFFFFFFFFFFFFFFFAB
:10155000FFFFFFFFFFFFDFFFFFFFB29C6531074288
:101560008631242904294531C741001061188220A1
:10157000A228A2204C73FFFFDFFFFFFFFFFFDFFF6A
:10158000FFFFFFFFFFFFFFFFFFFFFFFFFFFFFFFF6B
:10159000FFFFFFFFFFFFFFFFFFFFFFFFFFFFFFFF5B
:1015A000FFFFFFFFFFFFFFFFFFFFFFFFFFFFFFFF4B
:1015B000FFFFFFFFFFFFFFFFFFFFDFFFFFFFD39CEA
:1015C0006531E7418631242924296531084AE32021
:1015D0000329E3280429E3206D73FFFFFFFFFFFFCA
:1015E000FFFFFFFFFFFFFFFFFFFFFFFFFFFFFFFF0B
:1015F000FFFFFFFFFFFFFFFFFFFFFFFFFFFFFFFFFB
:10160000FFFFFFFFFFFFFFFFFFFFFFFFFFFFFFFFEA
:10161000FFFFFFFFFFFFFFFFFFFFFFFFFFFFFFFFDA
:10162000FFFFB29C6531E7418631452924296531A8
:10163000E741C320E320E320E320E3206D73FFFFB5
:10164000FFFFFFFFFFFFFFFFFFFFFFFFFFFFFFFFAA
:10165000FFFFFFFFFFFFFFFFFFFFFFFFFFFFFFFF9A
:10166000FFFFFFFFFFFFFFFFFFFFFFFFFFFFFFFF8A
:10167000FFFFFFFFFFFFFFFFFFFFFFFFFFFFFFFF7A
:10168000FFFFDFFFFFFF13A5C31885316531442934
:1016900065312529E320C320E320E320E320C2189D
:1016A000CE7BFFFFFFFFFFFFFFFFFFFFFFFFFFFFFF
:1016B000FFFFFFFFFFFFFFFFFFFFFFFFFFFFFFFF3A
:1016C000FFFFFFFFFFFFFFFFFFFFFFFFFFFFFFFF2A
:1016D000FFFFFFFFFFFFFFFFFFFFFFFFFFFFFFFF1A
:1016E000FFFFFFFFFFFFFFFFFFFF9EF714A5653120
:1016F000A639452904218218C318C318E3200329F9
:101700004531D29C7DF7DFFFFFFFFFFFFFFFFFFFAB
:10171000FFFFFFFFFFFFFFFFFFFFFFFFFFFFFFFFD9
:10172000FFFFFFFFFFFFFFFFFFFFFFFFFFFFFFFFC9
:10173000FFFFFFFFFFFFFFFFFFFFFFFFFFFFFFFFB9
:10174000FFFFFFFFFFFFFFFFFFFFFFFFFFFFFFFFA9
:101750001BE7695286394529E320E320C320A218FC
:10176000E3200429C641DBDEFFFFDFFFFFFFFFFFB1
:10177000FFFFFFFFFFFFFFFFFFFFFFFFFFFFFFFF79
:10178000FFFFFFFFFFFFFFFFFFFFFFFFFFFFFFFF69
:10179000FFFFFFFFFFFFFFFFFFFFFFFFFFFFFFFF59
:1017A000FFFFFFFFFFFFFFFFFFFFFFFFFFFFFFFF49
:1017B000DFFFFFFF79D6C639453145290421E320F3
:1017C000C320C318C320E320443179D6FFFFDFFFD5
:1017D000FFFFFFFFFFFFFFFFFFFFFFFFFFFFFFFF19
:1017E000FFFFFFFFFFFFFFFFFFFFFFFFFFFFFFFF09
:1017F000FFFFFFFFFFFFFFFFFFFFFFFFFFFFFFFFF9
:10180000FFFFFFFFFFFFFFFFFFFFFFFFFFFFFFFFE8
:10181000FFFFFFFFFFFFFFFFFBDE494A4429A2183D
:10182000A218A2188218821861104110E7413CE703
:10183000FFFFFFFFFFFFFFFFFFFFFFFFFFFFFFFFB8
:10184000FFFFFFFFFFFFFFFFFFFFFFFFFFFFFFFFA8
:10185000FFFFFFFFFFFFFFFFFFFFFFFFFFFFFFFF98
:10186000FFFFFFFFFFFFFFFFFFFFFFFFFFFFFFFF88
:10187000FFFFFFFFFFFFFFFFFFFFFFFFFFFFFFFF78
:101880001CE7B6BDEF832C6BCB624D73D3A479D626
:10189000DFFFFFFFFFFFFFFFFFFFFFFFFFFFFFFF78
:1018A000FFFFFFFFFFFFFFFFFFFFFFFFFFFFFFFF48
:1018B000FFFFFFFFFFFFFFFFFFFFFFFFFFFFFFFF38
:1018C000FFFFFFFFFFFFFFFFFFFFFFFFFFFFFFFF28
:1018D000FFFFFFFFFFFFBFF7FFFFFFFFFFFFFFFF60
:1018E000FFFFFFFFFFFFFFFFBDFF9DF7FFFFDEFFD5
:1018F0009DF7FFFFDADEFBE6BADE7DF7FFFF9DFF17
:10190000DEFFDEFF5CF7FFFFFFFFDFFFDFFF9FF77C
:10191000FFFFBFF7FFFFFFFFFFFFFFFFFFFFFFFF1F
:10192000FFFFFFFFFFFFFFFFFFFFFFFFFFFFFFFFC7
:10193000FFFFFFFFFFFFFFFFFFFFFFFFFFFFDFF7DF
:10194000FFFFFFFFDFFFDFFFFFFFDEFFFFFFFFFF08
:101950001BE717C6B6B5D7BD75AD55ADB6BD54AD11
:10196000D3A475B599DE9DFFFFFFDFFFFFFFDFFF0B
:10197000FFFFFFFFFFFFBFF7DFFFFFFFFFFFFFFFDF
:10198000FFFFFFFFFFFFFFFFFFFFFFFFFFFFFFFF67
:10199000FFFFFFFFFFFFFFFFFFFFFFFFFFFFFFFF57
:1019A000DFF7DFF7FFFFFFFFFFFFFFFFFFFFFFFF97
:1019B0007CEF78CEB6B538C6FBDE3CE7DFFFDFFF55
:1019C000DFFF7DEF7DF7BADEB29CD2A49EFF9DF7CC
:1019D000FFFFFFFFDFFFDFFF9EF7BFFFFFFFFFFF00
:1019E000FFFFFFFFFFFFFFFFFFFFFFFFFFFFFFFF07
:1019F000FFFFFFFFFFFFFFFFFFFFFFFFFFFFFFFFF7
:101A0000FFFFFFFFDFF7FFFFFFFFFFFFFFFFFFFF0E
:101A1000DEFFFEFFF7BD38C63CE7FFFFFFFFFFFF1D
:101A2000FFFFDFF7FFFFFFFFDFFFFFFF1BE775B5DE
:101A3000919CFFFFFFFF9DF73CEFFFFFFFFFFFFFC4
:101A4000BFF7FFFFFFFFFFFFFFFFFFFFFFFFFFFFEE
:101A5000FFFFFFFFFFFFFFFFFFFFFFFFFFFFFFFF96
:101A6000FFFFFFFFFFFFFFFFFFFFFFFFFFFFDFFFA6
:101A7000FFFFFFFFBEFFDADE95B57DEFFFFFFFFF43
:101A8000BFF79EEFFFFFFFFFFFFFDFFFBEF7FFFF88
:101A9000FFFF9EF713A599D6FEFFFEFFFFFFFFFF96
:101AA000FFFFFFFFBFFFFFFFFFFFFFFFFFFFFFFF86
:101AB000FFFFFFFFFFFFFFFFFFFFFFFFFFFFFFFF36
:101AC000FFFFFFFFFFFFFFFFFFFFFFFFFFFFFFFF26
:101AD000DFFFFFFFDFFFDEFFFFFF38CE99D6FFFFFE
:101AE000FFFF5CE7BEF7FFFFFFFFFFFF9EEFFFFF7B
:101AF000FFFF5DEF7DF7BEFFDADE74B57BEF5BEFD6
:101B0000FEFF9DF7BDF7FFFFFFFFFFFFFFFFFFFF9A
:101B1000FFFFFFFFFFFFFFFFFFFFFFFFFFFFFFFFD5
:101B2000FFFFFFFFFFFFFFFFFFFFFFFFFFFFDFFFE5
:101B3000FFFFDFFFDFFFFFFFFBE679D6DEFF95BD8E
:101B40007CF7DEFFDEFFFFFFFFFFFFFF7DEFBEF74D
:101B5000FFFFFFFFDEFFFFFFFFFFDEFF78D694BD34
:101B6000B4BD2E843AE7FEFFFEFFFEFF9DF7FFFFA8
:101B7000FFFFFFFFFFFFFFFFFFFFFFFFFFFFFFFF75
:101B8000FFFFFFFFFFFFFFFFFFFFFFFFFFFFFFFF65
:101B9000FFFFFFFFFFFFBEFFFFFFFFFF95BD308C84
:101BA00017CE909CD9E6F5C516C6DEFFBDFF9DF7A2
:101BB000FFFFFFFFFFFFDEFFFFFF3BEF4F94895A60
:101BC0006C7BED83AF9CCC83FDFFFEFFDEFF5CEF03
:101BD000FFFFFFFFFFFFFFFFFFFFFFFFFFFFFFFF15
:101BE000FFFFFFFFFFFFFFFFFFFFFFFFFFFFFFFF05
:101BF000FFFFFFFFFFFFDFFFFFFFBEF7FFFFFFFF5E
:101C00009DFF0B6B13AD12B54A7B6B7B2A738C7BEC
:101C1000D9E6FEFFFAE678DE57D6DEFF9DFFEE8BB3
:101C2000C541C96A8C83CC83B3BD97DEF1A4B8DE0D
:101C3000FEFFBDFFFFFFFFFFFFFFFFFFFFFFFFFFF7
:101C4000FFFFFFFFFFFFFFFFFFFFFFFFFFFFFFFFA4
:101C5000FFFFFFFFFFFFFFFFFFFFFFFFFFFFBEFFD5
:101C6000DEFF9DFFFAE6AD836C7B93C5D4CD2D944A
:101C70008FA42A730A6B1AEF3BF733B5B4C557D656
:101C80004F9CA441E551EA72C96A6E94D3C5FDFF29
:101C9000CD830A6B78D6BDFFFFFFFFFFFFFFFFFF7D
:101CA000FFFFFFFFFFFFFFFFFFFFFFFFFFFFFFFF44
:101CB000FFFFFFFFFFFFFFFFFFFFFFFFFFFFFFFF34
:101CC0007DEFDEFFFFFF95BDC96248524B7B15D605
:101CD000FCFF52BD6EA4E96A665A77DEF9EE5BFF3F
:101CE0007BFFDDFF73BD26520231E230E5492D94C2
:101CF000FCFF7BFF4B73A95A8D7B9DF7BDF7FFFF60
:101D0000FFFFFFFFFFFFFFFFFFFFFFFFFFFFFFFFE3
:101D1000FFFFFFFFFFFFFFFFFFFFFFFFFFFFFFFFD3
:101D2000FFFFFFFFBEFFDEFF34ADEB6A4752A96243
:101D3000475A2D9C7AFFD8EEAC8B2A736F9C32B534
:101D4000F1AC909CCD8312ADB5C573BDCD8B8441F4
:101D5000E54922318B7BF1ACE96A8C7B4B73F6C58C
:101D6000FFFFFFFFFFFFFFFFFFFFFFFFFFFFFFFF83
:101D7000FFFFFFFFFFFFFFFFFFFFFFFFFFFFFFFF73
:101D8000FFFFFFFFFFFFFFFFFFFFBEFFEA62064A04
:101D90002B730A6BA862A86A76DEFDFF93BD32B58D
:101DA00036CED1A4D1A4D1A40F8C8D7BEA624C7322
:101DB0008C7B685A685AA441000840182331275286
:101DC000895A38CEBEFFFFFFFFFFFFFFFFFFFFFF77
:101DD000FFFFFFFFFFFFFFFFFFFFFFFFFFFFFFFF13
:101DE000FFFFFFFFFFFFFFFFFFFFFFFF9DF73CEF40
:101DF000895AC641A962E649A962C549AC83D0A403
:101E000012AD33AD909C2F8C13A5B19495B5B5B59B
:101E100033ADD29C71942F8CEE830A73A962033187
:101E20000752485248521CEFFFFFDFFFFFFFFFFF42
:101E3000FFFFFFFFFFFFFFFFFFFFFFFFFFFFFFFFB2
:101E4000FFFFFFFFFFFFFFFFFFFFFFFFFFFFDFFFC2
:101E5000FFFF1BEFEA62C541EA6A475A84412A73D1
:101E60002A6B2A6BB19C74B533A5D6BD58CEBAD6B1
:101E700058C655A558C6DBDE38C659CE95BD74BDCB
:101E80002F942C73CA6A14B5FFFF3DF77DF7DFFF6F
:101E9000FFFFFFFFFFFFFFFFFFFFFFFFFFFFFFFF52
:101EA000FFFFFFFFFFFFFFFFFFFFFFFFFFFFFFFF42
:101EB000FFFFDEFFFFFFFEFFF6C5A9626439C96AB6
:101EC0004F940E8CEE83D19C74ADD6BDFADE3CE708
:101ED000FBDEBAD6DBD676AD7ACEBACE18BE3CE7FC
:101EE00038C617CE38D614AD0F8C8A5A96BDFFFF70
:101EF000DFFFFFFFFFFFFFFFFFFFFFFFFFFFFFFF12
:101F0000FFFFFFFFFFFFFFFFFFFFFFFFFFFFFFFFE1
:101F1000DFFFDFFFFFFFDEFFDDFFFDFF93BDA862F8
:101F2000CD83B4C5F2AC4C6BB6B575B579D6FBDED6
:101F300038C63CE71CDFFCDE18BEB7AD5284FCD6C9
:101F40001DDFDCD61DDFD49CF59CDCDE76ADB394C2
:101F50000C63139DFFFFDFFFBEF7FFFFFFFFBEF720
:101F6000FFFFDFF7FFFFFFFFFFFFFFFFFFFFFFFFA9
:101F7000FFFFFFFFFFFFFFFFFFFFFEFFFDFF15CE8F
:101F8000CC834E9497DE16D68D7B7194B6B5DBDE8E
:101F900096B5D7BDFFFFDBDE5DE77EEF117CF59CDC
:101FA000359D19BEBCCE5EE7B8AD9CCE3AC6D8B55D
:101FB0001DDF35A551848E6B38BEFFFFFFFFFFFF8D
:101FC000FFFFDFFFFFFFBFF7FFFFFFFFFFFFFEFF8A
:101FD000FFFFFFFFFFFFFFFFFFFFFFFFFEFFDDFF34
:101FE0007BEFD09C8B73F5C57BF7B4C5CE83B6BDB4
:101FF000DADE3CE7BAD6F8BDDBD618C6DBD6DFF7AB
:10200000159DB494117CB8AD3EDFDDD6906B3AC619
:10201000FDD6DDD67AC69ACE76AD928C4D631BDFA7
:10202000FFFFFFFFFFFFFFFFFFFFBFF7FFFFFFFF08
:10203000FFFFFFFFFFFFFFFFDFFFDFFFDFFFDFFF30
:10204000DEFF7CF794BDED8331ADF9E6F5CD909CD4
:1020500054B538CEBAD69AD6FFFF18BE3184928CCA
:102060009BD63DE75AC6B7ADB38C9BCEFFF71DDFBD
:102070005284F594BFEF3EDFFDDE39C6DBD675AD89
:102080000C5BF39CDEF7FFFFDFF7FFFFDFFFDFFFF7
:10209000FFFFFFFFFFFFFEFFFFFFFFFFDFFFBFF7B9
:1020A000DFFFFFFFFFFFFAE66B736B7397DED9E686
:1020B000909C709458CE3CE79AD65DEFFFFF18C60F
:1020C000D394928CFCDE5EE7DCD61DDF1DDF5EE77D
:1020D000FDDEFDDE19BE3ABE5FE7FDDE1DDFBBD6CD
:1020E000D7B596ADD3940C5B79CEFFFFFFFFFFFF12
:1020F000FFFFFFFFFFFFFFFFFFFFFEFFFFFFFFFFF1
:10210000FFFFDFFFFFFFFFFFFFFFF2A467524E94C8
:1021100019EF52B5AD7B33AD99DEBAD67DEF3DE711
:10212000FCDE39C676AD55A5F073F8BD5EE73AC65C
:1021300097ADDCD6DCD69BCEFDD67FE7DCD6DCD6F1
:10214000359D9BCEF49C39C6F7B50C5BF39CFFFF25
:10215000FFFFDFFFFFFFFFFFDFFFFFFFFFFFFFFFCF
:10216000FFFFFFFFFFFFFFFFFFFFBEFF3CEFC96266
:10217000A85AB4BDB8DE8C738C7317CE58CE1CE74A
:10218000DFF71CDFDBD67EEFFCDE7EEFF0738B4AE1
:102190009BCE369D117C9BCE9FEF1DDF9FEFDCD643
:1021A0007FEF19BEB3945284DBD67ACE59C6928C97
:1021B0004D633CE7FFFFDEF7FFFFFFFFDFFFFFFFA1
:1021C000FFFFFFFFFFFFFFFFDFFFFFFFFFFF5DF7E9
:1021D00078D6274A2A6B15C6F5C5E962EE8358D62C
:1021E00096B579CE317C76AD728459C67EEF1DDF0F
:1021F00059C6872976A5DCD6FCD6DCD6DCD61DDF11
:10220000BCD69BCE7EE7DCD65284728C1DDF1CDFF1
:102210007ACEF8BD494239C6FFFFBEF7FFFFFFFF88
:10222000FFFFFFFFFFFFFFFFDEF7FFFFFFFFFFFFE7
:10223000FFFFFFFF919C84396F94D8DE2E8C474AB4
:10224000D19C99D61CE79ACE1074AF73928CB7AD1F
:10225000FCDE3DDF7EE73284E9395EE73DDFFCD618
:10226000DCD67EE7DCD63EDF1DDF9BCE97AD56A5E4
:1022700039C69ACEBBD618BE8E6B5184FFFFFFFFC6
:10228000DEF7FFFFFFFFFFFFFFFFFFFFDFFFFFFFA7
:10229000FFFFBFFFBFFFBEFFCE83064AD1A497DE7C
:1022A000CD7BA95254AD9AD61CE71CDF7284CF6B4C
:1022B0007284D8B53DDF1DDFDCD6F9BD872976A550
:1022C000BFEFDCD61DDFFCD69BCE3DDFFCDEBBD6F0
:1022D0005AC69BCE7BCEBBD65AC618BEF07BEF7BD0
:1022E000DFF7FFFFDEFFFFFFFFFFFFFFFFFFFFFF47
:1022F000FFFFFFFFFFFFDFFFBFFF5DF70B6B685ABC
:1023000012ADF5C5E962A95A95B59ACEFCDE7EE715
:1023100039BE39BE7BC6FCD67EE73DDF1DDF9FEFB1
:10232000B073EC521DDFBCD63DE75EE77FEFF8BD32
:1023300018BE19BE39BE9BCE76ADBBD6BBD639C64C
:1023400093946D6BBEF7FFFFDFFFFFFFFFFFFFFF03
:10235000FFFFFFFFFFFFFFFFFFFFFFFFDFFF3CF778
:10236000895A675A12AD52B5474A0B6358C6BBD655
:102370001DDFFCD63DDF9FEF7FE71DD7FCD6FCD6E7
:10238000FCD67FE75AC6C410159D9FEF5EE77BCE53
:1023900097AD7AC61CDF7EEF5EE79BCE4E63B394AB
:1023A000F49C5AC635A50C5B9EEFFFFFFFFFFFFFB5
:1023B000FFFFFFFFFFFFFFFFFFFFFFFFDFFFDFFF6D
:1023C000DFFF1CF70752C549D1A432AD474A8D73D0
:1023D000BAD6BBD6BCCE97ADBBCE1DD7FCCEDCCE1D
:1023E0001DD71DDFFCD6FDD6FFF78F6B317CD49453
:1023F0008F6BAF73B394317C5184107C8F6B0D5B0A
:102400002621728CF9BD7ACE56A52D63BEF7FFFF4B
:10241000FFFFFFFFFFFFFFFFFFFFFFFFFFFFFFFFCC
:10242000BFFFBFFFDFFF1BEFC64923316F9C11A524
:1024300006420B63F7BD97AD159D6E5BD8ADFDD61B
:102440001DD73DD73DDF5EE71DD75EDF97ADD49446
:102450003284159D56A5B39456A5B7B5F8B539C6BF
:102460005AC65AC6D4943AC6DCD67ACE15A5CF73CE
:10247000DFF7FFFFFEFFFFFFFFFFFFFFFFFFFFFF95
:10248000FFFFFFFFBFFFBFFFDFFF3CF7E649A120D3
:10249000ED8BD19CA539284255A556A5F594AC4A9B
:1024A000F9B53EDF3EDF1DD7DCCEFCD67AC673849D
:1024B00052845AC65AC65EE7BFF73EE77FEF5DE734
:1024C0003DDF3DDF3DDF3EE7BCD6FDDEFDDE9BCEE2
:1024D000B3949394FFFFFFFFDEFFFFFFFFFFFFFFBB
:1024E000FFFFFFFFFFFFFFFFBFFFDFFFDFFF9DFFDE
:1024F000485A8018AD83B09C84310742D7BDBBD603
:10250000BBCEF4945EDF3EDFBBCEFDD63DDF1DDFEC
:1025100019BE19BEDFF7DCD6D8B51DDF9BCE1DDF97
:10252000DCD61CDF1CDF5DE73DDF1DDF3DDFBCD6F9
:10253000BBD69BCE728C35A5FFFFFFFFDEFFFFFFF2
:10254000FFFFFFFFFFFFFFFFFFFF9EFFFFFFBFFF3C
:10255000FFFFDEFFEE836010A95AB19C8531853103
:10256000B6BD7ACE1DE7FDDEFDDEBCD61DDFBCD6D6
:10257000FDDEDCD61DDFFDDEFCDE1DDF77AD3DDFE1
:10258000FCDEFCD61DDF1DD77EE7FCD6B7AD159D62
:102590003DDFDCD6DBD618BE718C9ACEFFFFFFFF85
:1025A000FFFFFFFFFFFFFFFFFFFFDFFFFFFFBFFF9B
:1025B000FFFFDEFFDEFFFFFF54AD2329C95A13A53D
:1025C00007428110B29CFBE6BBDEFCDE5FEF3EE71C
:1025D0007FEF1DE7FDDEFDDEFDDE1DDF1DDFFCDE26
:1025E000D8B51DDF3DE75EE71DDF1DD75EDF9FE746
:1025F000D06B0C531CDF7AC6FBD696AD149D1CE73E
:10260000FFFFBEF7FFFFFFFFFFFFFFFFFFFFDFFF43
:10261000FFFFBFFFFFFFFFFFDEFFFFFFFAE6A95A44
:102620000B6354AD6D7381108D73FBE67ACEDCDEE7
:10263000F9BD938CB8B51DE7FDDE1DE7BCD6FDDE08
:10264000FDDE7AC6F8B59BCE1CD77EE7FCD65EDFF2
:102650009BC61CD79384AF6B18B6149D38BE149DCF
:1026600018BEDFFFFFFF9DF7FFFFFFFFDEFFFFFF4D
:10267000FFFFDFFFFFFFDFFFFFFFFFFFDEFFFFFFCB
:10268000FEFFD19C8C73D19C13A5484AEA6217CEF9
:1026900079D69FF716A58C52738C3EE71DDF3EE777
:1026A0001DDF1DDFDCD639BE7AC65AC6BBCE5EE75B
:1026B000FCD6BFEF3DDF5DDFBFEF7EE7DBD659C65F
:1026C0007ACE76AD1CDFFFFFDFFFBEF7FFFFFFFF17
:1026D000FFFFFFFFFFFFFFFFFFFFDFFFDFFFFFFF4A
:1026E000DEFFDEFFFEFFB9DE0E84CD7B94B5709475
:1026F000A95A919CBADEB7BDF59C8F6B159DFDDE86
:10270000DCD6DCD63DDF3EDFFDD6DCD63EDF1DD796
:10271000FCD63DDF3DDF9384D7ADBBCEDCD6FCD607
:10272000DBD67ACEB7B59ACEDEF7FFFFDFFFFFFF2D
:10273000FFFFFFFFFFFFFFFFFFFFFFFFFFFFDFFFC9
:10274000DFFFFFFFFEFFBDF7DEFFDDFF12A56B73AE
:10275000D19C32AD4B6BAC7B58CE9294D8BDB8B502
:102760003AC6DCD6DCD6159DD4943DDF1DD79FE755
:10277000FDD63EDF5EE71DD71DD78E63B38C7EE7A7
:10278000BBCE9ACEFBD6F8BD38C69EEFFFFFDEFF6C
:10279000FFFFFFFFDEFFFFFFFFFFFFFFFFFFFFFF6A
:1027A000FFFFFFFFFFFFFFFFFFFFFEFFDEFFFEFF5C
:1027B000B9DEB09C0E8CF1A44F948B7BB19C7ACE89
:1027C0007EEF1DDF5EE7FCDEFCDE6F638F6B3DDFBF
:1027D000FDD67EE7159D3ABE7FE7FDD6FDD6B38CCC
:1027E000928CFCD61CDF1CDF39C6B7B51CDFFFFF9F
:1027F000FFFFBEF7FFFFFFFFBEF7FFFFFFFFFFFF7B
:10280000FFFFFFFFFFF7FFFFFFFFDEF7FFFFFFFF09
:10281000FEFFFEFFFEFF57D6ED836F9452B5CC83CB
:102820000A6359CE7ACE39C63DE7BBD63DE7F07B89
:1028300019BE7EE71DDF3DDF0D5BF5947FE71DDFF1
:102840003DDFF8B575A576AD7ACE1CDFB6ADDBD62B
:102850009EEFFFFFFFFFBEF7FFFFFFFFBEF7FFFF8B
:10286000FFFFFFFFFFFFFFFFFFFFFFFFFFFFFFFF78
:10287000FFFFFFFFFFFFDEFFFEFFFDFFB4BD0E8C7D
:102880004E94B09C2F8C4D6B9ACE5DEF18BE7ACED5
:102890005DE776AD3DDF7EEFDCD639BED073728466
:1028A0005EE75EE71CD7DBD69ACE18BE59C6B6B532
:1028B000FBDEBEF7DFF7FFFFFFFFFFFFFFFFFFFFBE
:1028C000FFFFFFFFFFFFFFFFFFFFFFFFFFFFFFFF18
:1028D000FFFFFFFFFFFFFFFFFFFFFEFFBDF7FEFF54
:1028E000DDFF36CE6F94ED832F8C9194EB5AD7BDDC
:1028F000FBDE9AD6AE7318BE3CE7DBD63DDF9FEF1A
:10290000D8B597AD3DDFBBCE7ACEFCDEBAD6BAD60F
:10291000BAD6FBDEFBDE7DEFFFFFFFFFFFFFFFFF11
:10292000FFFFFFFFFFFFFFFFFFFFFFFFFFFFFFFFB7
:10293000FFFFFFFFFFFFFFFFFFFFFFFFFFFFFFFFA7
:10294000BEFFFFFFFEFFBDFFD9DE53B5ED83CE7B9B
:10295000AE73919454AD1CE7BAD61CE738C67ACE54
:1029600059C65ACE15A555A5DBD6BBD6DBD69AD609
:1029700058CE38C6B6B55DEFBEF7FFFFFFFFFFFFCD
:10298000FFFFFFFFFFFFFFFFFFFFFFFFFFFFFFFF57
:10299000FFFFFFFFFFFFFFFFFFFFFFFFFFFFFFFF47
:1029A000FFFFFFFFFFFFFFFF9DF7DEFFFEFF9CF72E
:1029B00074B570946C736D73CE7BCE7BB6B5DADE76
:1029C0003CE75DEF1CE77DEFDBDEDBDE3DE79BD622
:1029D0007ACED7BD38C638C6F39CB6B59DF7FFFF93
:1029E000BEF7FFFFFFFFFFFFFFFFFFFFFFFFFFFF40
:1029F000FFFFFFFFFFFFFFFFFFFFFFFFFFFFFFFFE7
:102A0000FFFFFFFFFFFFFFFFDFFFFFFFFFFFDEFF17
:102A1000FEFFFEFFFEFFFEFFD9DEEE834C6BEE8372
:102A200068520B63EF83D29C34A5F7BDD7BD55AD7B
:102A300014A5F49C75AD38C61BE79DF758CE0F84DE
:102A400017C6FFFFDEFFFFFFFFFFFFFFFFFFFFFFD8
:102A5000FFFFFFFFFFFFFFFFFFFFFFFFFFFFFFFF86
:102A6000FFFFFFFFFFFFFFFFFFFFFFFFBFF7FFFFBE
:102A7000FFFFFFFFBEF7FEFFFEFF9CF7FEFF274AAA
:102A80007094FEFFB9DE54AD308CCE7B8D736D73C8
:102A90008E73EF83929496B579D69DF7BEF7FFFFBC
:102AA000FFFF54AD38C6BDF7FFFFFFFFFFFFFFFF7D
:102AB000FFFFFFFFFFFFFFFFFFFFFFFFFFFFFFFF26
:102AC000FFFFFFFFFFFFFFFFFFFFFFFFFFFFFFFF16
:102AD000DFFFFFFFFFFFFFFFFFFFFFFF7CEFFEFFBA
:102AE00073B5A962DDFF9CFFDDFFFEFF3BEF7CF7C6
:102AF000FBE679D6DBE69EF7FFFFFFFFFFFFFFFF58
:102B0000FFFFFFFFFFFF9DF79DF7BEFFFFFFFFFFEA
:102B1000FFFFFFFFFFFFFFFFFFFFFFFFFFFFFFFFC5
:102B2000FFFFFFFFFFFFFFFFFFFFFFFFFFFFFFFFB5
:102B3000FFFFFFFFDFFFFFFFFFFFDFFFDFF7FFFF0D
:102B4000FFFF9CF76B73D5C5DDFFFEFFDDFFFEFFCA
:102B5000FFFFFFFFFFFFFFFFFFFFFFFFDFFFFFFFA5
:102B6000DFFFBEFFFFFFFFFF5CEFFFFFFFFFDFFFA9
:102B7000FFFFFFFFFFFFFFFFFFFFFFFFFFFFFFFF65
:102B8000FFFFFFFFFFFFFFFFFFFFFFFFFFFFFFFF55
:102B9000FFFFFFFFFFFFFFFFFFFFFFFFFFFFFFFF45
:102BA000FFFFFFFFFFFFD9DEEE7B7CF7FEFF9DF707
:102BB000FFFFFFFFFFFFFFFFFFFFFFFFFFFFFFFF25
:102BC000FFFFFFFFFFFFFFFFFFFFFFFFFFFFFFFF15
:102BD000FFFFFFFFFFFFFFFFFFFFFFFFFFFFFFFF05
:102BE000FFFFFFFFFFFFFFFFFFFFFFFFFFFFFFFFF5
:102BF000FFFFFFFFFFFFFFFFFFFFFFFFFFFFFFFFE5
:102C0000FFFFFFFFFFFFFFFFFFFFFFFF78CEFFFF8C
:102C1000FEFFDEFFFFFFDFFFFFFFFFFFFFFFFFFF06
:102C2000FFFFFFFFFFFFFFFFFFFFFFFFFFFFFFFFB4
:102C3000FFFFFFFFFFFFFFFFFFFFFFFFFFFFFFFFA4
:102C4000FFFFFFFFFFFFFFFFFFFFFFFFFFFFFFFF94
:102C5000FFFFFFFFFFFFFFFF7DEFFFFF7DEF7DEF3A
:102C6000FFFFDFFF7DEFFFFFFFFFFFFFFFFFFFFF26
:102C7000DFFFFFFFFFFFDFFFDFFFFFFFFFFFFFFFC4
:102C8000DFFFFFFFFFFF7DEF59CEDBDE5DEFBEF71D
:102C9000FFFFFFFF7DEF9EF7FFFFFFFFBEF7BEF7D1
:102CA000DFFFFFFFFFFFFFFFFFFFFFFFFFFFFFFF54
:102CB000FFFFDFFFFFFFFFFFDFFFBEF7FFFF9EF716
:102CC000BEF73CE7FBDEFBDEFBDEDBDEFBDE3CE7EC
:102CD0003CE7DFFFDFFFFFFFFFFFDFFFFFFFFFFF3F
:102CE000DFFFDFFFFFFFDFFF9EF718C69294EF7B49
:102CF0002C63108414A5DBDEFFFFFFFF7DEF5DEF8B
:102D0000FFFFFFFFFFFFFFFFFFFFDFFF7DEFBEF7CE
:102D1000FFFFFFFFFFFFFFFFFFFFBEF7FFFFFFFF0C
:102D2000DFFF55AD18C6FFFF5DEFBEF7FFFF9EF753
:102D30007DEF9EF73CE75DEFDFFFFFFFFFFFDFFF6B
:102D4000FFFFFFFFDFFFFFFFFFFFFFFFBEF7718CFD
:102D5000A631494AAE734D6BAA52CB5A9294DBDE30
:102D6000FFFFFFFF9EF7FFFFFFFFFFFFDFFFFFFFFC
:102D7000FFFFFFFF9EF7FFFFFFFFFFFFFFFFBEF715
:102D8000FFFFFFFFBEF7718CCB5A7DEFFFFFFFFF08
:102D9000FFFFDFFFDFFFBEF73CE71CE75DEF9EF7BD
:102DA000BEF7FFFFFFFFFFFFFFFFFFFFFFFFFFFF7C
:102DB000FFFF38C62C632842E739CB5ACB5A694A01
:102DC00008422C63D7BDDFFFFFFF9EF7FFFFFFFF29
:102DD000FFFFFFFFFFFFFFFFFFFFFFFFFFFF9EF76C
:102DE000FFFFFFFF9EF7FFFFFFFF59CE2842B2947F
:102DF0003CE7FFFF7DEF5DEF9EF79EF79EF73CE718
:102E00001CE7DBDE5DEFFFFFFFFFDFFFFFFFFFFFE4
:102E1000FFFFDFFFFFFFFFFF3CE775ADAA528631E2
:102E2000E739EB5AEB5AE739494AD39C1CE7FFFFD5
:102E3000DFFF9EF7DFFFFFFFDFFFDFFFFFFFFFFF8B
:102E4000FFFFFFFFFFFFFFFFDFFFFFFF9EF7FFFF1B
:102E500096B58A5275AD9EF7DFFFDFFFBEF79EF78E
:102E6000DFFF7DEF3CE779CEDBDEDFFFFFFF9EF784
:102E7000FFFFDFFFFFFFFFFFFFFFDFFFFFFFFFFFA2
:102E80007DEFAE73C7398631694A28428631494A97
:102E90002C63BAD69EF7FFFFBEF7DFFFFFFFFFFFF1
:102EA0007DEFFFFFFFFFFFFFBEF79EF7FFFFFFFF76
:102EB000BEF7FFFFFFFF1084CF7B96B5DFFFFFFF5C
:102EC0009EF79EF73CE75DEF7DEF79CE18C63CE7B5
:102ED000FFFFBEF7FFFFFFFFDFFF9EF7FFFFFFFFD4
:102EE0009EF7DFFF9EF7FBDE8E738631C739C73949
:102EF000C739E739A631494A55ADDFFFFFFF7DEFFE
:102F00009EF7FFFFFFFFFFFFFFFF9EF7FFFFDFFFC3
:102F10001CE75DEFFFFF5DEFDFFFFFFF8E73AE731A
:102F20001CE77DEF7DEFFFFF3CE7FBDEBEF79AD6A7
:102F300096B5BAD6FFFFFFFFFFFFDFFFFFFFFFFFE2
:102F4000FFFFDFFFBEF7FFFFBEF7FFFFAE732421D9
:102F50008631A631652965294529452986318E7333
:102F6000DBDEFFFFDFFF9EF7FFFFFFFFFFFFFFFF3F
:102F70009EF7FFFF75AD38C61CE7FFFFFFFFFFFFA1
:102F80003CE78E7334A5DFFF3CE79EF71CE7FBDED2
:102F90001CE7FBDED7BD18C69EF7FFFFDFFFFFFF74
:102FA000DFFFFFFFFFFFFFFFFFFFFFFFBEF73CE775
:102FB000E31865294529A21045292421C318242195
:102FC000C318A2102842B6B5FFFFFFFFDFFFFFFFC7
:102FD000FFFFDFFFFFFFFFFF14A53CE759CED7BD82
:102FE000FFFFFFFF7DEFF7BD34A51CE79EF75DEF08
:102FF0009EF7FBDE1CE7FBDED7BD38C6DFFFFFFF19
:10300000DFFFFFFFDFFFDFFFDFFFBEF7DFFFFFFFB9
:103010009EF72C634529E318C3182421E3182000E8
:10302000242161084529C31820008210EF7B7DEF21
:10303000FFFFFFFFFFFFDFFFBEF7FFFFF39C79CE2F
:103040001CE718C659CE7DEFFFFFFFFF38C61CE70F
:103050009EF7FBDE3CE7FBDEDBDEBAD6D7BD59CE02
:10306000DFFFFFFFFFFFFFFFDFFFFFFFFFFFDFFFD0
:10307000FFFFFFFFBEF7652982108210C3184108C9
:10308000A21024216108E318E318A2100421E31818
:10309000821075ADDFFFFFFFFFFFFFFFBEF7FFFFF1
:1030A00055AD14A5FFFF5DEFF7BD79CEFFFF7DEFB6
:1030B0001CE75DEF5DEF3CE7DBDEFBDE79CE38C67B
:1030C000D7BD9AD6DFFFFFFFFFFFDFFFDFFFFFFF68
:1030D000FFFFFFFFFFFFFFFF9EF79294EB5A2421B3
:1030E000A2108631E31882100421C3184529E31881
:1030F000610808424108F7BDFFFFFFFFFFFFBEF771
:10310000FFFFFFFF79CE718C3CE73CE77DEFF7BD19
:103110009AD6D7BD5DEF3CE75DEF9AD6FBDE1CE7A4
:1031200038C618C638C6FBDEDFFFBEF7FFFFFFFF5D
:10313000FFFFFFFFFFFFBEF7DFFFDFFF3CE79EF76C
:10314000CF7BAA52242124214108821086310421F8
:103150008631C73986312421C318BAD6FFFFFFFF55
:10316000FFFFFFFFFFFFDFFF5DEF6D6B59CEBEF787
:10317000DBDED7BD75ADD7BD7DEF3CE71CE714A501
:10318000D7BD59CE38C69AD6DBDE3CE7DFFFDFFF7E
:10319000FFFFFFFFFFFFFFFFDFFFBEF7FFFFDFFFC8
:1031A0001CE714A5CB5AEF7BC7390000C739CF7B8A
:1031B000AA52452941084529CB5A8210CB5A3CE7EF
:1031C000BEF7FFFFFFFFFFFFDFFFDFFFFFFFAE7375
:1031D00034A59EF734A575ADB6B59AD63CE7FBDEAF
:1031E000B6B5D39C14A5308496B51CE7FBDE1CE76E
:1031F000FFFFFFFFFFFFFFFFDFFFDFFFDFFFFFFF3F
:10320000FFFF1CE796B528423084518C4D6B2C6330
:10321000F7BDBAD638C6694A821061084108452907
:10322000BAD6FFFFBEF7FFFFFFFF9EF7FFFFBEF717
:10323000FFFF96B54D6B75ADB6B534A5BAD679CE50
:1032400059CE38C6108479CEB6B52842F39C3CE7F7
:10325000BAD69AD6FFFFFFFFDFFFFFFFDFFFFFFFBA
:10326000FFFFFFFF5DEF75AD2C63EF7B10848E7366
:10327000FBDE38C6DFFFFFFFBEF7FBDECB5A65295A
:10328000A210D7BDFFFF7DEFFFFFFFFFFFFFFFFF96
:10329000FFFFFFFF5DEFBEF7EB5AB29434A5D7BD39
:1032A000B6B59AD6F7BD518C59CE34A5CB5A1084F9
:1032B00055AD3CE7DBDEDBDEFFFFDFFFDFFFFFFFBF
:1032C000DFFF9EF718C6F7BDDBDE8E736D6B1084D3
:1032D0006D6B79CEFFFFBEF7FFFFFFFFDFFFFFFF44
:1032E0001CE7B29492947DEFFFFFBEF7FFFFFFFF54
:1032F000FFFFFFFFBEF7FFFFFFFFFFFF96B5308424
:1033000096B5B6B5D7BDD7BD718C18C614A5EF7BE1
:103310004D6B38C6DBDEFBDEBAD65DEFFFFFDFFFAD
:10332000BEF77DEFFFFF55AD652965294D6B8E73A7
:10333000CF7B8A5279CEFFFFDFFFFFFFFFFFFFFF4A
:10334000FFFF9EF7FFFF7DEF5DEFFFFFFFFF7DEFCC
:10335000FFFFFFFFFFFFFFFFFFFFBEF7FFFFFFFFC6
:103360003CE7F39C96B514A5F7BDD39CF39C55ADF3
:10337000AE730C63F39C38C61CE7BAD659CEDBDEBD
:103380007DEFFFFFFFFFFFFF518C24212842042126
:1033900041080C63284234A5FFFFFFFF7DEFFFFFCC
:1033A000DFFFBEF7FFFFBEF7FFFFFFFFFFFFFFFFDF
:1033B000FFFFDFFFFFFFFFFFFFFFFFFFFFFF7DEFCF
:1033C0009EF7FFFFD39CF39C96B596B596B5D39C1C
:1033D000F7BDCF7BEB5AEF7B75AD18C6FBDEFBDE8E
:1033E0001CE7DBDE7DEFFFFF9EF78E730421E739DC
:1033F000A631E739E73900006D6BFFFFDFFF3CE7DF
:10340000FFFFFFFFBEF7FFFFFFFFFFFFBEF77DEFF0
:103410009EF7DFFFFFFFFFFFDFFFFFFFFFFFFFFF65
:10342000FFFFDFFFFFFFFFFFAA522C63B294B6B588
:10343000D39C55AD14A530844D6B75ADF39C18C667
:10344000B6B5D7BD79CE38C61CE75DEFAE73E318CD
:10345000494AC7396529A6312421000034A5FFFF58
:103460001CE7FFFFFFFF9EF7FFFFFFFFDFFFFFFFF0
:10347000DFFFFFFFFFFFFFFFFFFFFFFFDFFFFFFF9C
:10348000FFFFFFFFBEF7FFFFFFFFBEF755ADCB5AB3
:10349000694AEF7B9294F39CF39CF39C14A518C6A5
:1034A00038C655AD718C34A5F7BD75AD59CEB6B5DE
:1034B00086318A526529A631E739E3186108452922
:1034C0003CE7BEF77DEFFFFFFFFFDFFFFFFFBEF72B
:1034D000FFFFFFFFFFFFFFFFFFFFFFFFFFFFFFFFFC
:1034E000FFFFFFFFFFFFFFFFFFFFFFFFBEF79EF79E
:1034F000FFFF96B54D6B0842EB5ACB5A4D6BCB5A3A
:103500008E73EB5A518CD39CB29438C6DBDE79CEE5
:10351000BAD638C69294C318284224210421042123
:103520000000B294FFFFFFFFFFFFBEF7BEF7FFFFF3
:10353000FFFF7DEFFFFFFFFFDFFF9EF79EF7FFFF1F
:10354000FFFFFFFFFFFFFFFFFFFFFFFFFFFF7DEF1D
:10355000FFFFDFFF7DEFFFFF1CE775ADCF7BCF7B6C
:103560000C634D6B8A52E7392842AE733084D7BD65
:1035700059CE9AD69AD6F7BDBAD6B294E318863108
:10358000042182108631DFFF7DEF7DEFFFFFFFFF1B
:10359000FFFFFFFFDFFFFFFFFFFFFFFFFFFFFFFF5B
:1035A000FFFFFFFFFFFFDFFFFFFFFFFFFFFFFFFF4B
:1035B000FFFFFFFFFFFFFFFFFFFFFFFFFFFFFFFF1B
:1035C000BEF71CE7FBDE79CE96B5B2946D6B284250
:1035D000AE73718C38C618C6BAD6FBDE96B59AD6CD
:1035E000718C82100000C31875ADBEF7DFFFDFFFDE
:1035F000FFFFFFFFFFFFFFFFFFFFFFFFFFFFFFFFDB
:10360000FFFFFFFFFFFFFFFFFFFFFFFFFFFFFFFFCA
:10361000FFFFFFFFFFFFFFFFFFFFFFFFFFFFFFFFBA
:10362000FFFF9EF7FFFFBEF7FFFFFFFFDFFFDFFF9C
:103630005DEFF39C494A718C718C59CEFBDE18C644
:1036400059CE55AD59CE3084A210AE7379CEFFFF5E
:103650009EF7FFFFFFFFFFFFFFFFFFFFFFFFFFFFE3
:10366000FFFFFFFFFFFFFFFFFFFFFFFFFFFFFFFF6A
:10367000FFFFFFFFFFFFFFFFFFFFFFFFFFFFFFFF5A
:10368000FFFFFFFFFFFFBEF7FFFFFFFFFFFFFFFF93
:10369000FFFFFFFFDFFF1CE7718CCB5A518C34A575
:1036A000D7BD9AD6BAD659CE55AD9AD6929496B57C
:1036B000FFFFDFFFFFFFFFFFFFFFFFFFFFFFFFFF3A
:1036C000FFFFFFFFFFFFFFFFFFFFFFFFFFFFFFFF0A
:1036D000FFFFFFFFFFFFFFFFFFFFFFFFFFFFFFFFFA
:1036E000FFFFFFFFFFFFFFFFFFFFFFFFFFFFBEF733
:1036F000DFFFFFFFBEF7DFFFDFFFFFFF75AD042138
:1037000010849294718C9AD679CEFBDEF7BDF39C2F
:103710009EF77DEF3CE7FFFFDFFFFFFFFFFFFFFFAF
:10372000FFFFFFFFFFFFFFFFFFFFFFFFFFFFFFFFA9
:10373000FFFFFFFFFFFFFFFFFFFFFFFFFFFFFFFF99
:10374000FFFFFFFFFFFFFFFFFFFFFFFFFFFFFFFF89
:10375000FFFFBEF7FFFFFFFFBEF7FFFFFFFFBEF754
:103760000842A210C7399294B29414A518C638C65C
:10377000FBDE96B5D7BD9EF71CE7FFFFBEF7FFFF48
:10378000FFFFFFFFFFFFFFFFFFFFFFFFFFFFFFFF49
:10379000FFFFFFFFFFFFFFFFFFFFFFFFFFFFFFFF39
:1037A000FFFFFFFFFFFFFFFFFFFFFFFFFFFFFFFF29
:1037B000FFFFFFFFFFFFFFFFFFFF9EF77DEFFFFF14
:1037C0009EF74D6B2000E318A210694A14A5B2942D
:1037D00075AD18C638C63CE755AD34A5FFFFFBDE16
:1037E000FFFFDFFFDFFFFFFFFFFFFFFFFFFFFFFF29
:1037F000FFFFFFFFFFFFFFFFFFFFFFFFFFFFFFFFD9
:10380000FFFFFFFFFFFFFFFFFFFFFFFFFFFFFFFFC8
:10381000FFFFFFFFFFFFBEF7DFFFFFFFFFFFDFFF41
:10382000FFFFBEF7D39C00000421A2100421610811
:103830004D6BF39C14A5D7BD38C618C61CE734A53C
:1038400059CE5DEF5DEFBEF7DFFFDFFFFFFFFFFF4C
:10385000FFFFFFFFFFFFFFFFFFFFFFFFFFFFFFFF78
:10386000FFFFFFFFFFFFFFFFFFFFFFFFFFFFFFFF68
:10387000FFFFFFFFFFFFFFFFFFFFFFFFFFFFFFFF58
:10388000DFFF9EF7FFFF18C68210C3188210821058
:10389000A210C318E3181084F39CB6B5D7BD59CE57
:1038A00038C63CE775AD59CE3CE79EF7BEF7DFFF63
:1038B000FFFFFFFFFFFFFFFFFFFFFFFFFFFFFFFF18
:1038C000FFFFFFFFFFFFFFFFFFFFFFFFFFFFFFFF08
:1038D000FFFFFFFFFFFFFFFFFFFFFFFFFFFFFFFFF8
:1038E000FFFF9EF7FFFFDFFFFBDE2842C318C31870
:1038F00061080421A210410841086529B29414A569
:10390000D7BD18C618C6BAD679CE18C659CE9AD61B
:103910005DEFDFFFDFFFDFFFFFFFFFFFDFFFFFFFE9
:10392000FFFFFFFFFFFFFFFFFFFFFFFFFFFFFFFFA7
:10393000FFFFFFFFFFFFFFFFFFFFFFFFFFFFFFFF97
:10394000FFFFFFFFFFFFFFFF3CE7FFFFCB5AE73919
:10395000A631A210C318200061082000C318AA5283
:103960008A52B294F7BD18C696B538C659CEDBDE7A
:1039700018C618C659CE1CE7FFFFFFFFDFFFDFFFA9
:10398000FFFFFFFFFFFFFFFFFFFFFFFFFFFFFFFF47
:10399000FFFFFFFFFFFFFFFFFFFFFFFFFFFFFFFF37
:1039A000FFFFFFFFFFFFDFFFFFFF7DEFFFFF308423
:1039B000E739A6312842E3186108410820000000D9
:1039C0006D6B18C68A52EB5A14A596B559CE55ADF3
:1039D00079CEFBDE79CEF7BDD7BD38C63CE7FFFF19
:1039E000FFFFDFFFFFFFFFFFFFFFFFFFFFFFFFFF07
:1039F000FFFFFFFFFFFFFFFFFFFFFFFFFFFFFFFFD7
:103A0000FFFFFFFFFFFFFFFFFFFFDFFFDFFFFFFF06
:103A100096B5A63128420842863145298210C3183E
:103A20000000C739FBDEFFFFF7BD08422C6355AD30
:103A300079CED7BDF7BD38C6BAD69AD679CE18C6D4
:103A400018C6FBDEFFFFFFFFBEF7FFFFFFFFFFFF14
:103A5000FFFFFFFFFFFFFFFFFFFFFFFFFFFFFFFF76
:103A6000FFFFFFFFFFFFFFFFFFFFFFFFFFFFFFFF66
:103A7000FFFF9AD6A631284208428631652945299A
:103A8000E3182000E31875ADFFFF7DEFFFFF929470
:103A9000E739718CF39CBAD696B596B538C6DBDE9D
:103AA000DBDE79CEF7BD38C61CE7DFFFFFFFFFFF87
:103AB000FFFFFFFFFFFFFFFFFFFFFFFFFFFFFFFF16
:103AC000FFFFFFFFFFFFFFFFFFFFFFFFFFFFFFFF06
:103AD000FFFFFFFF1CE7CB5A2842C739C7396529CA
:103AE000A631652900004108D39CBEF7BEF7FFFF51
:103AF000BEF79EF76D6B494ACF7B75AD9AD655AD33
:103B000038C659CE79CEBAD6BAD638C6F7BDDBDEBE
:103B1000FFFFDFFFDFFFFFFFFFFFFFFFFFFFFFFFF5
:103B2000FFFFFFFFFFFFFFFFFFFFFFFFFFFFFFFFA5
:103B3000FFFFFFFFFFFF7DEFEF7BC7398A52C739D9
:103B4000042108422421042141084D6BFFFFFFFF9F
:103B50007DEFFFFF7DEFFFFF59CE8A522C638E73FE
:103B600038C6D7BD18C6D7BD18C69AD6FBDE9AD6BA
:103B700018C679CE1CE7BEF7DFFFDFFFFFFFFFFFB0
:103B8000FFFFFFFFFFFFFFFFFFFFFFFFFFFFFFFF45
:103B9000FFFFFFFFFFFFFFFFFFFFF39C494A0842C3
:103BA000C73986318631E318E3180000CB5ADBDED3
:103BB000DFFFDFFFFFFF9EF7FFFF9EF7FFFF75AD03
:103BC00028422C63AE739AD696B5D7BD18C659CE87
:103BD00079CEDBDE1CE79AD6D7BD9EF7BEF7DFFFB6
:103BE000FFFFFFFFFFFFFFFFFFFFFFFFFFFFFFFFE5
:103BF000FFFFFFFFDFFFFFFF7DEFFFFFF7BD494A3C
:103C0000494AA631C7394529242186310000863129
:103C1000F7BDFFFF9EF7FFFFFFFFDFFFFFFFFFFF87
:103C2000DFFFFFFF4D6B8A524D6BAE7359CE96B5D9
:103C300079CED39CEB5AEB5A75ADBEF738C659CE48
:103C40009EF7FFFFBEF7FFFFFFFFFFFFDFFFFFFF56
:103C5000FFFFFFFF9EF7FFFFFFFFBEF7FFFF18C646
:103C60008A522842694AA631863145290842000015
:103C70004108F39C7DEFFFFFDFFFFFFFFFFFBEF773
:103C8000FFFFDFFFDFFF9EF7FFFF8A528A526D6B57
:103C9000108459CED7BD308496B596B59294BAD6D5
:103CA000FBDE18C65DEFFFFFFFFFFFFFFFFFFFFF1B
:103CB000FFFFFFFFFFFFFFFFFFFFFFFFDFFFBEF77D
:103CC0001CE7C7394529E73928426529C739242126
:103CD0006108000030849EF7FFFFFFFFDFFFFFFF5A
:103CE000FFFFDFFFFFFFDFFFBEF7FFFFFFFF9AD6FB
:103CF000E7392C634D6BF7BD96B559CEBEF7DFFFA4
:103D0000BAD659CEBEF738C63CE7FFFFFFFFFFFF2C
:103D1000BEF7BEF7FFFFFFFFFFFFDFFFFFFFFFFF65
:103D2000DFFFFFFFBAD6E31804210842A631E318EB
:103D3000452945290000CB5ADBDEFFFFDFFFDFFF0F
:103D4000FFFFFFFFFFFFFFFFFFFFDFFFFFFFDFFFC3
:103D50005DEFFFFF55AD494A6D6BCF7B38C6D7BDD0
:103D6000FBDE3CE738C65DEF1CE79AD65DEFBEF799
:103D7000DFFFFFFFFFFFDFFFFFFFFFFFFFFFFFFF93
:103D80009EF7FFFFFFFFBEF7FFFFF39C65290421AD
:103D900004216529C3180000452959CEBEF7FFFF4D
:103DA000DFFFFFFFFFFFDFFFFFFFFFFFDFFFFFFF83
:103DB000FFFFDFFFFFFFBEF7FFFFAE73694A10840E
:103DC000F39C59CED7BDD7BD59CE18C67DEFB6B539
:103DD0003CE7FFFFBEF7DFFFFFFFFFFFFFFFFFFF37
:103DE000FFFFFFFFDFFFFFFFDFFFFFFFFFFFBEF76C
:103DF00034A5694A8210821000002000B294BEF7F8
:103E0000FFFFFFFFFFFFFFFFFFFFDFFFFFFFFFFFE2
:103E1000FFFFDFFFFFFFFFFFDFFFFFFFDFFF1CE70D
:103E20006D6BAA52B29475AD79CE59CE14A534A556
:103E30009294F39CFBDEFFFFFFFFDFFFFFFFFFFF1E
:103E4000FFFFFFFFFFFFFFFFFFFFFFFF9EF7FFFFEB
:103E50007DEFBEF7FFFF9AD60C6341082000CF7BB1
:103E6000FFFFFFFFBEF7FFFFFFFFFFFFFFFFFFFFAB
:103E7000FFFFFFFFFFFFBEF7FFFFBEF7FFFFFFFFE4
:103E8000DFFFFFFF9AD6AA528A521084718C3084C9
:103E9000CF7B8A528A52F7BD7DEFFFFFFFFFFFFF06
:103EA000FFFFFFFFFFFFFFFFFFFFFFFFBEF7FFFF6B
:103EB000FFFFBEF7FFFFFFFFBEF7DFFFDFFF718CE5
:103EC000694AFBDEBEF7FFFFDFFFFFFFFFFFDFFFFB
:103ED000FFFFFFFFFFFFBEF7FFFFFFFFFFFF9EF7A4
:103EE000FFFFFFFFBEF7FFFFFFFF38C62C63E73978
:103EF000AA528A5228426D6B34A5FFFFFFFFFFFFD5
:103F0000DFFFFFFFFFFFDFFFFFFFFFFFFFFFFFFF01
:103F1000FFFFFFFFFFFFFFFFFFFFFFFFFFFFFFFFB1
:103F2000DFFF7DEF3CE79EF7FFFFFFFFDFFFFFFFB7
:103F3000FFFFFFFFFFFFFFFFFFFFFFFFFFFFFFFF91
:103F4000FFFFFFFFFFFFFFFFFFFFFFFFDFFFDFFFC1
:103F5000DBDE75AD9294B29496B5DBDEBEF7FFFF63
:103F6000FFFFFFFFFFFFFFFFFFFFFFFFFFFFFFFF61
:103F7000FFFFFFFFFFFFFFFFFFFFFFFFFFFFFFFF51
:103F8000FFFFFFFFFFFFBEF79EF7DFFFFFFFFFFF13
:103F9000DFFFFFFFFFFFFFFFFFFFFFFFFFFFFFFF51
:103FA000FFFFFFFFFFFFFFFFFFFFFFFFFFFFFFFF21
:103FB000DFFFFFFFFFFFBEF79EF7BEF7DFFFFFFF4C
:103FC000FFFFFFFFFFFFFFFFFFFFFFFFFFFFFFFF01
:103FD000FFFFFFFFFFFFFFF7FFF7FFFFFFFFFEFF02
:103FE000FDFFDEFFFEFFFDFFFFFF9FEFDFF73FDF7F
:103FF0009FE7FFF7FFF7BFF7BFFFDFFFFEFFFEFF03
:10400000FDFFFCFFFCFFFCFFFDFFFEFFFFFFDFFFEE
:10401000DFFFDFFFDFFFFFFFFFFFFFFFFFFFFEFF11
:10402000FFFFFFFFFFFFFFFFFFFFFFFFFFFFFFFFA0
:10403000FFFFFFFFFEFFFFFFFFFFFFF7FFFFFFFF99
:10404000FFFFFEFFFEFFDFFFFFFFDDF7FFF77FDF74
:10405000DFCE3C951A8DDDA5FFCE9FEFFFFFFFFF62
:10406000FFFFFFFFFEF7FEFFFEFFFEFFFEFFFEFF6E
:10407000FFFFFFFFDFFFDFFFDFFFDFFFFFFFFFFFD0
:10408000FEFFFEFFFEFFFFFFFFFFFFFFFFFFFFFF43
:10409000FFFFFFFFFFFFFFFFFFFFFFFFFFFFFEFF31
:1040A000FFFFFFFFDFFFDFFFDEFFDFFFFFFFFFF7A9
:1040B0009FDF3C8D9F95FF9D1F9E3D85DB7C3B8D4B
:1040C000DDADDFCE9FE7FFF7FFF7FFF7FFFFBEEFA6
:1040D000DEF7FFFFFFFFFFFFDFFFBFFFBFFFFFFFB9
:1040E000FFFFFFFFFFFFFEFFFEFFFFFFFFFFFFFFE2
:1040F000FFFFFFFFFFFFFFFFFFFFFFFFFFFFFFFFD0
:10410000FFFFFEFFFFFFDFFFDFFFDFFFDFFFDFFF60
:10411000FFF7FFEF9DB61222D411D72A7E5C9F7D58
:10412000BFAEFF9D5E8DDC7CFB7C9C959FBE9FDFC0
:10413000FFEFFFF7FFF7BFEFBFF7FFFFFFFFFFFF47
:10414000FFFFFFFFFFFFFFFFFFFFFFFFFFFFFFFF7F
:10415000DFFFFFFFFFFFFFFFFFFFFFFFFFFFFFFF8F
:10416000FFFFFFFFFFFFFEFFFFFFDFFFDFFFDFFFC0
:10417000DFFFDFFFFFF7FFE71FBFB62A581AF7017F
:104180003702F6017812FD4B1F753F965F9E9F8D9B
:10419000DC74FB7C3B8D7FB67FDFFFF7FFF7DFF73B
:1041A0007EE7BEF7FFFFFFFFDFFFDFFFDFFFFFFF61
:1041B000FFFFFFFFFFFFFFFFFFFFFFFFFFFFFFFF0F
:1041C000FFFFFFFFFFFFFFFFFFFFFEFFFFFFDFFF20
:1041D000BFFFDFFFDFFFDFFFFFF7FFE7BFAEB3018A
:1041E000590A5A0AFC1A9A0A3902390AF701170AB7
:1041F0005B33DF6CFF951F9EBF951D85DA7CF984CC
:104200001CAE9FE7FFF7FFF7DFEFFFFFFFFFFFFFAA
:10421000FFFFFFFFFFFFFFFFFFFFFFFFFFFFFFFFAE
:10422000FFFFFFFFFFFFFFFFFFFFFFFFFFFFFEFF9F
:10423000FFFFDFFFDFFFDFFFDFFFDFFFFFF7FFE74E
:10424000DFB6F4095A123601D8013A023A021902CD
:104250007B12DC1A5A12D70118125C3B7F64BF959F
:104260001F9E1F9E5D8DB974D87CFCA51FCF5FDF9C
:104270009FEFFFFFFFFFFFFFFFFFFEFFFFFFFFFFBF
:10428000FFFFFFFFFFFFFFFFFFFFFFFFFFFFFFFF3E
:10429000FFFFFEFFFFFFDFFFDFFFDFFFDFFFFFFFAF
:1042A000FFF7FFEFDFB6D311591A9200F400550162
:1042B0001401B701B701F8013A125B1A5A1A191220
:1042C000D7091712D92A1D547F853F9E3F9E7E85B0
:1042D000DA7C19951CB65FE7FFFFFFFFFFFFFFFFCA
:1042E000FFFFFFFFFFFFFFFFFFFFFFFFFFFFFFFFDE
:1042F000FFFFFFFFFFFFFEFFFFFFFFFFDFFFFFFFEF
:10430000FEFFFFFFFFF7FFEFFFBE7009F519F20098
:10431000B501540174015401F30014011401560154
:1043200019127B1A5A1A191219123912170AB922BC
:104330009B3B9F7DFF955FB67FC69EC6BFEFBFEFDD
:10434000FFFFBEF7FEFFFFFFFFFFFFFFFFFFFFFFC7
:10435000FFFFFFFFFFFFFFFFFFFFFEFFFFFFFFFF6E
:10436000DFFFFEFFFEFFFFFFFFFFFFF77CB6322AF5
:10437000B319AF0011017209520131015201B51197
:104380007409F300D300F400F600FA113B1A7B1A0B
:104390001A0A390A18027A12571A5B6C5FDFDFCEED
:1043A0007DBEFFF7FFFFFFFFFFFFFFFFFFFFFFFFE8
:1043B000FFFFFFFFFFFFFFFFFFFFFFFFFFFFFFF715
:1043C000FFFFFFFFFFFFFEFFFDFFFEFFFFFFFFFF01
:1043D0003ED7797CD221AE002F097119EF087011F8
:1043E00030090F093109520974099509760115013F
:1043F00057015701B9013B0A7C121A02180A752AA3
:10440000DC847FDFFDAD1FD7FFF7DFEFFFFFFFFF8E
:10441000FFFFFFFFFFFFFFFFFFFFFFFFFFFFFFFFAC
:10442000FFFFFFF7FFFFFFFFFFFFFEFFFDFFFEFFA8
:10443000FEFFFDF7DFEF7CA54F196C000E11CD08D4
:104440000E110D112D11CC080E0950091001320961
:10445000530134015501F500D4001601B901B90129
:104460007A1A151A13227FB6BFDF9A9DDFEFFFF786
:10447000FFFFFFFFFFFFFFFFFFFFFFFFFFFFFFFF4C
:10448000FFFFFFFFFFFFFFF7FFFFFFFFDFFFFEFF65
:10449000FDFFFEFFFEFF9CEFFFF71B95EE10AD004A
:1044A0002F118D00F54A1B953B9DB563B242F02953
:1044B000ED00EE00CF0011015201F61195015501FA
:1044C0003501B300340174019311B5323FCFFFC6FB
:1044D0005CB6FFF7FFFFFFFFFFFFFFFFFFFFFFFFE0
:1044E000FFFFFFFFFFFFFFFFFFFFFFFFFFFFDFFFFC
:1044F000DFFFDFFFFEFFFEFFFFFFFEFFFFF7DB8CAE
:104500002F112F11CE088D00F96BFFEFFFF79FC61B
:10451000DFCEDFEFDFCEFC84B43AF1218D0051090C
:10452000F0007301B40974011301F20094096D00E5
:10453000564BFFE77DBE7BBEFFFFFFFFFFFFFFFF88
:10454000FFFFFFFFFFFFFFFFFFFFFFFFFFFFFFFF7B
:10455000FFFFDFFFDFFFDFFFDEFFDFFFFFFFFFFF0C
:10456000FFEF9E9DEF08CF004D00CF00F2299FE79F
:104570003FDF72638B21B042777CFFCEDFE775535C
:104580006E11F4424F090E01CE00B2119311540185
:1045900075093101CD00BD9D7FD73AB67EE7DFF7C3
:1045A000DEF7FFFFFFFFFFFFFFFFFFFFFFFFFFFF44
:1045B000FFFFFFFFFFFFDFFFDFFFFFFFFEFFDFFF6C
:1045C000DFFFBEF7FFF71FCF3109EE00CD00122A43
:1045D0000900E9087DC6FFF75EBEF04A05002A1112
:1045E000703A8D19B23AFFE7FFC63A6CED080E0932
:1045F000CE00120154093201EF006E115FB6DFEFF9
:10460000579D9FEFBEF7DFFFFFFFFFFFFFFFFFFF9D
:10461000FFFFFFFFFFFFFFFFFFFFFFFFFFFFFFFFAA
:10462000FEFFDFFFBFFFFFFFDFEF7FAE9109490015
:10463000F66B7FE719956C3A2711F36B1FD7FFEFE5
:104640005C9569002D094E118B00D44ABC847763B8
:10465000F5523763F239CF08F1081309D200D5219A
:1046600054321FAE8B19DED6BFF7FFFFDFFFFFFF0F
:10467000FEFFFDFFFDFFFFFFFFFFFFFFFFFFFFFF4F
:10468000FFFFFEFFFEFFDFFFBFFF1DEFFFF73FA6AF
:104690009209AB00167CDFFFBFF7FFFF9DCE968C23
:1046A0007EBEFFEF9FDFFB8CCB08AB008B00490089
:1046B0002900AE29798CDA9CB2522D19EE08B0008F
:1046C000D100941114221D8D6B111FDFDFFFDFFF5E
:1046D000DFFFFFFFFFFFFDF7FDF7FFFFFFFFFFFF1E
:1046E000FFFFFFFFFFFFFEFFFEFFDEFFBEFFFFFF3E
:1046F0005FDFB63232014D000A00503917731CAD2E
:10470000BFFFDFFFBFF7DFF7FFF75FE7C80893637F
:10471000567C7263EF4AB68CBDCE1ED7FED67FDFC5
:10472000797CED006D00D211D5321B85CC215FE77D
:10473000FFFFDFFFBFFFDFFFFFFFFFF7FFFFFFFF11
:10474000FFFFDFFFDFFFDFFFFFFFFFF7FEF7DEFF0B
:10475000DEFFBFFFFFD6510113018E082C100B089E
:104760000B104C10CD2015633DAD7FD65FCE9473FA
:10477000C810DFF7FFFF7FE7BFEFFFF7FFF7BDE7E9
:10478000FFF7FFF71FCFF342AC00900951221A7DCB
:104790008A195FDFBFF7DFFFBFFFDFFFDFFFFFFF2C
:1047A000FFFFFFFFFFFFDFFFDFFFDFFFFFFFFFF781
:1047B000FEF7FFFFDFFFDFFFBFCE300193112B00BD
:1047C0006B200A200B186E100B004D006D086C104A
:1047D0002A082910B67B7FFFDFFFDFFFBFF79FEFBF
:1047E000BFEFFFF7FFF7FFEFFFEF386CCC0090094A
:1047F00031227B852B227EDFDFF7DFFF9FFFDFFF8C
:10480000DFFFDFFFFFFFFFFFFFFFFFFFFFFFDFFF18
:10481000FFFFFFF7FFF7DFFFDFFFFFFF3CB60E01F3
:10482000B2190700A828052826202808CC104A0815
:104830000A008D186D100B008D187352398C9FD69D
:10484000DFFFDFF7DFF7FFF79FEFFFF79FC672325B
:104850006C00F2193222B86CF67CFFEFFFFFFFFF0D
:10486000DFFFDFFFDFFFDFF7FFFFFFFFFFFFFFFFE0
:10487000FFFFFFFFFFFFFFF7FFF7DFFFDFFF9FEF08
:10488000DEC6EF196C09A83132BD6EB4288BC35156
:10489000023100084618AB180B004E0070004F00A4
:1048A0002D006C008F29F35AB573B583D5839152CF
:1048B0006F218E008F007309D632712A1BA6FFEF7D
:1048C000FFFFFEFFFEFFFFFFFFFFDEFFFFFFFFFF1B
:1048D000FFFFFEFFFEFFFFFFFFFFFFF7FFF7DFFF1A
:1048E000BFFFFFFF9DC68C090901274290C5CBBCC5
:1048F0002BD56AD567B4A79B456282202510691025
:1049000009000C00F0186E080B004C084B0808005A
:10491000090809004C08D1100F0055095FA6312283
:10492000756CFFE7FEF7DDFFDCFFFEFFFEFFFDFF1E
:10493000FEFFFFFFFFFFFEFFFEFFFFFFFFFFFFF792
:10494000FFF7DFFFBFFFFFFF7CBE8C094A09474A24
:10495000B4E66DD586BC25DD24DD24D545D506CD50
:1049600005AC84726449031807100B104E104E08F2
:104970002D004D008D086C100B0891103100351181
:104980001E645FAE8B115DD7FEF7FDFFFDFFFDFFDF
:10499000FDFFFDFFFEFFFFFFFFFFFEFFFEFFFFFF2E
:1049A000FFFFFFF7FFF7DFFFBFFFFFFF7CBE8D09B3
:1049B0004B09AB52DBFF78FF55FFABED67E505DD3B
:1049C000E4DC05DD06DDE7DCA9D46CC4C98AE54872
:1049D00004180610280869088A1028102A10B01830
:1049E00051005100F6213E858B113ED7FFF7FDFFA8
:1049F000FDFFFEFFFEFFFEFFFEFFFFFFFFFFFFFFCD
:104A0000FFFFFFFFFFFFFFF7FFF7DFFFBFFFFFFF26
:104A10009EC66F09ED004E429FFF9FFF9EFF9DFFC8
:104A20009CFFD8FEF4FD30F5CCE4A9E4A6E4E5EC67
:104A300025ED46EDC7D4659BA25960300018432090
:104A4000041009008E083319D4215F8D6B113ED7F5
:104A5000FFF7FEFFFFFFFFFFDFFFFFFFFFFFFFFF8F
:104A6000FFFFFFFFFFFFFFFFFFFFFFF7FFF7DFFF86
:104A7000BFFFDFFF5DBE70093001924ABFFF9FFF9D
:104A80007FFF1FFF5FFF7FFF7FFF7DFFF7FE51FE70
:104A9000ECFDE4E4C2DCC1DC03E527EDE9E44AD443
:104AA000CABB256A454105084A089221F4297F9529
:104AB0000A093FD7FFF7FFFFFFFFDFFFDFFFFFFF21
:104AC000DFFFFFFFFFFFFFFFFFFFFFFFFFFFFFF71E
:104AD000FFF7DFFFBFFFDFFF5DBE70093101B34AA3
:104AE0009FF7FFEE7FEE9FFF9FFFBFFFBEFFFCFF24
:104AF000FBFFF9FFD8FFD8FFF5FEAFEDCBE469EC83
:104B000068F446FC46ECCBCCAEACAC62C9180E19CE
:104B100050197E956B113FD7FFF7DFFFDFFFDFFFF7
:104B2000DFFFDFFFDFFFFFFFFFFFFFFFFFFFFFFFF5
:104B3000FFFFFFFFFFFFBFFFBFFFDFFF7EC6700964
:104B40002F01913A7FEFBFDE3CCEBAC51ACEDBDE35
:104B5000BDF7FDFFFDFFFDFFFDFF5BF7BDFFBDFFE7
:104B60007AFF74FEAEFD2AFDE8EC4ADDCFD5509CFD
:104B700009290D19B021BE9DAC193ED7FFF7FFFFE3
:104B8000FFFFFFFFDFFFFFFFDFFFFFFFFFFFFEFF76
:104B9000FEFFFEFFFFFFFFFFFFFFBFFF9FFFDFFFE7
:104BA0005DC66F096E013043FFF7FFFFFDF7DDE7DC
:104BB0007BD7B9C637B617BE9AD65DF7FFFFFEFFA3
:104BC000FDFFDCFFBBFFFBFFFBFFFAFF76F78BCDA2
:104BD000CEDDB0B4C7202D2111325D952A113ED70C
:104BE000FFF7FEFFFEFFFFFFDFFFFFFFFFFFFFFFFF
:104BF000FFFFFCFFFDFFFEFFFFFFFFFFFFFFBFFF0B
:104C0000BFFFDFFF7DBE8F094E01AE3ADFE7BCEF8D
:104C10009AE7FDEFFDEFFEF7FEEF1CDF5ACEF9CD70
:104C2000D8CD9ADE7CF7FEFFFDFFFDEFFEEFFEE73D
:104C3000FDF7F8FFD9FF9AE64A312D19F1293B8D8E
:104C40008A193ED7FFF7FEFFFEFFFFFFFEFFFFFFC3
:104C5000FFFFFFFFFFFFFBF7FCFFFFFFDFFFDFFFB3
:104C6000DFFFDFFFFFFFFFF7DFC64F090F01B34292
:104C7000DFF73DE7D4BD56C6D8CE5BE7DEF7FFFFD2
:104C8000FFFFDFFF9FF79AD658C617BE78C61BD71F
:104C9000DDE7FEEFFEF7FDFFDFFF5FEF6D212D0982
:104CA00010229C8DA9115DD7FFF7FFFFFFFFFFFFCB
:104CB000FFFFFFFFFFFFFFFFFFFFFBF7FCF7FFFF1B
:104CC000DFFFBFFFBFFFFFFFFFF7FFEFDFBE4F09B3
:104CD000300933325FE79FF7FEFF5CF7FBE659CE02
:104CE00018C659CEFBE69EF7FFFFFFFFFFFF9EEFC2
:104CF000FBDE79C638C679CEBAD65EEFDFFF3FDF7E
:104D00008E194F1131229B8D89095DD7FFF7FFFF67
:104D1000FFFFFFFFFFFFFFFFFFFFFFFFFFFFFEF7AC
:104D2000FFF7FFFFBFFFBFFFBFFFFFFFFFF7FFE77B
:104D30009DAE6E09901152329FEF1CE79CF75FF712
:104D40009FFF9FFF5FF7DCDE59CE38CE57CE3BE7A3
:104D50007CEFDEFFFFFFFFFFBFF7FDDE5ACE1DE752
:104D6000BFF73FDF8E194E1131227B8D89115DD740
:104D7000FFF7FFFFFFFFFFFFFFFFFFFFFEFFFFFF4C
:104D8000FFFFFFF7FFFFDFFFBFFFBFFFBFFFFFFF1B
:104D9000FFF7FFEFBEB66D092E09102ABFEFF8B579
:104DA00054A51AC69CD63FEFDFFFFFFFBFF75DEFAC
:104DB0001BE758CE38C618C69AD63DEFBFFFFFFF97
:104DC000DFFF9EF7FFFF3FE76D192E0910227B8D55
:104DD00089115ED7FFFFFFFFFFFFFFFFFFFFFFFF10
:104DE000FEFFFFFFFFFFFFF7FFFFDFFFBFFFBFFF7C
:104DF000DFFFFFFFFEF7FFEFBEB64C090D01F02904
:104E00007FDFFDD63CE799CEF6BD55AD76AD59CEE8
:104E10003DE79FF7BFFFBFFF9FFF3EEF9BDEF8CD53
:104E2000F7C579D6FAE69DFFFFFF5FE78D212E11CA
:104E300010227C8D8A113ED7FFFFFFFFDFFFFFFFAF
:104E4000FFFFFFFFFEFFFFFFFFFFFEFFFFFFFFFF74
:104E5000DFFFDFFFDFFFFEFFFEF7FFEF7DB66D1127
:104E60008F116F197A7C9BAD7FE79DE77CE71BDF95
:104E70009ACE19BED8BDF9BD1AC6FEE65FEFDFFFB8
:104E8000FFFFBEFF1BEF98DE57D65BF7DFFF5FE744
:104E90008D214E1111225C8D49113FDFFFFFDFFF95
:104EA000DFFFFFFFFFFFFFFFFEFFFFFFFFFFFCFF36
:104EB000FDFFFFFFFFFFDFFFFFFFFDFFFEF7FFF737
:104EC0009EBE6E1150118E00CE088F29904AB68C6E
:104ED000D9AD3ED7BFEF5EDFBCCE7AC659C695AD21
:104EE00095B5F6BD99D65BEFDDFFFEFFFDFF3BEF0D
:104EF000BFFF3FE76D214E1111225C956A113FDF24
:104F0000FFFFDFFFDFFFFFFFFFFFFFFFFEFFFFFFF2
:104F1000FFFFFCFFFCFFFEFFFEFFFFFFFEFFFDFFAC
:104F2000FEF7FFF79EBE2C112F1171195119902118
:104F3000AB08CA084B116F3A3574FBAD1ED75EDF64
:104F40003DDF3CDF1BDFB9CE16BEB5B5D5B577CE9C
:104F5000F9DE9CF7FFFF3FDF4C190D09F1217C952D
:104F60008B213FDFFFFFDFFFDFFFDFFFFFFFFFFFE3
:104F7000FEFFFFFFFFFFFCFFFDFFFEFFFEFFFEFF4A
:104F8000FEFFFEFFFEFFFFF71FD799841132AD0829
:104F9000CE084F197021B22171190E09CC000B09EE
:104FA0000E2AF46B99A5BCC63DD75DDF1BD7FAD698
:104FB0001AD777C6B4ADF7BD9FEF1FDF4D196F113C
:104FC000D0199D9D4A111FDFDFFFDFFFBFFFDFFF0D
:104FD000FFFFFFFFFFFFFFFFFFFFFEFFFEFFFFFFE3
:104FE000FFFFFFFFFFFFFEFFFFFFFFFFFFF7FFF7E2
:104FF0001FD7DFAD397C71420D11CE00EF0871195A
:10500000D121B0214D110B090A098B19715B799DD2
:105010009CBEDDCE1DD73DD73DDFDCD6DDD69FC69D
:105020006E19B1191222FB84CC213FDFFFFFDFFF95
:10503000DFFFDFFFFFFFFFFFFFFFFFFFFFFFFFFFC0
:10504000FFFFFFFFFFFFFFFFFFFFFFFFFFFF7DEF02
:10505000DFF7FFFFFFF7FFF7BFEF3FD79FC657749C
:10506000144BCF210C09ED080E114F1170192F119F
:10507000EE10ED086E21D24A997C1EB61FD73FDF95
:10508000FFD69FC6CD00AD00532A1B85CC213EDF45
:10509000FFFFDFFFDFFFDFFFFFFFFFFFFFFFFFFF80
:1050A000FFFFFFFFFFFFDFFFFFFFFFFFFFFFFFFF30
:1050B000FFFFFFFFFFFFFFFFDFF7DFF7FFF7FFF760
:1050C000FFEFFFEF7FD73DAE3A8D5874555B11323D
:1050D0002F110F111011301951191011EF0850191B
:1050E000113298849CA5BFA591111001742A1A85CC
:1050F00028093EDFDFFFDFFFDFFFDFFFFFFFFFFFEE
:10510000FFFFFFFFFFFFDFFFDFFFFFFFFFFFFFFFEF
:10511000FFFFFFFFFFFF9EF7BEFFDEFFFEFFFFFF6B
:10512000FFFFFFF7FFF7FFEFFFEFFFF7FFF7FFF7D7
:10513000BFE79EBE7B9D946331320E09F010732150
:105140009521551933194B000C092F09CF00310156
:10515000B1115C8D0B2A3DD7DEF7DFFFBFFFDFFF0C
:10516000FFFFFFFFFFFFFFFFFFFFFFFFFFFFFFFF4F
:10517000FFFFFFFFFFFFFFFFDFFFFFFFFFFFFEFF60
:10518000FEFFFDFFFEFFFEF7FEF7FFFFFFFFDFF76D
:10519000BEEFFFEFFFF7FFF7FFF7FFF75FD7BDA504
:1051A000D863D1218E00D0007219B021F121CF0037
:1051B00073099309B1091A7D27095DDFFEFFFEFF20
:1051C000BEFFDFFFDFFFFFFFFFFFFFFFFFFFFEFF71
:1051D000FEFFFEFFFFFFFFFFFFFFFFFFDFFF9FFF61
:1051E000BEFFDEFFFEFFFEFFFFFFFFFFFFFF9CEFA6
:1051F000DDFFFEFFFFFFFFFFFFFFFFF7BFE7DFEF72
:10520000FFF7FFEFFFEF5FD7588DCE3A29090C0962
:105210003009D0009409730154225B85C9199EE7B7
:10522000FEFFFEFFBEFFDFFFDFFFFFFFFFFFFFFF11
:10523000FFFFFEFFFEFFFEFFFEFFFFFFFFFFFFFF82
:10524000FFFFDFFFDFFFDEFFFEFFFEFFFFFFFFFFD1
:10525000FFFFFEFFFEFFFEFFFEFFFFFFFFFFFFFF62
:10526000FFF7FFF7FFF7FFEFFFEFFFF7FFEFDDDFE0
:105270003DCFB884B33A9111B2198D00AF11FC9DA6
:105280007795DEEFFEFFFEFFBEFFDFFFFFFFFFFFB4
:10529000FFFFFFFFFFFFFFFFFFFFFFFFFFFFFFFF1E
:1052A000FFFFFFFFFFFFFFFFFFFFFFFFFFFFFFFF0E
:1052B000FFFFFFFFFFFFFFFFFFFFFFFFFFFFFFFFFE
:1052C000FFFFFFFFFFFFFFFFFFFFFFFFFFFFFFFFEE
:1052D000FFF7FFF7FFF7FFFFFFF71FD7D98CF24A61
:1052E000D46BBDC6FFF7FFFFFEFFFFFFFFFFFFFF11
:1052F000FFFFFFFFFFFFFFFFFFFFFFFFFFFFFFFFBE
:10530000FFFFFFFFFFFFFFFFFFFFFFFFFFFFFFFFAD
:10531000FFFFFFFFFFFFFFFFFFFFFFFFFFFFFFFF9D
:10532000FFFFFFFFFFFFFFFFFFFFFFFFFFFFFFFF8D
:10533000FFFFFFFFFFFFFFFFFFFFBEF7DFFFFFFFE6
:10534000DFF7BFEFFFF7FFF7BDEFFEFFFEFFFFFF49
:10535000FFFFFFFFFFFFFFFFFFFFFFFFFFFFFFFF5D
:10536000FFFFFFFFFFFFFFFFFFFFFFFFFFFFFFFF4D
:10537000DFFFFFFFFFFFDFFFDFFFFFFFFFFFFFFF9D
:10538000FFFFBFFF5DF73DEF3DEF3CEF1CE77DF713
:105390005DEF5DEF5DEF5CEF7DF77DF79DF79DF7CE
:1053A000BDF7FEFFFFFFBEF7DFFFFFFFFFFFFFFFC1
:1053B000FFFFFFFFFFFFFFFFFFFFFFFFFFFFFFFFFD
:1053C000FFFFFFFFFFFFFFFFFFFFFFFFFFFFFFFFED
:1053D000FFFFFFFFDFFFFFFFFFFFDFFFDFFFFFFF3D
:1053E000DFFF7EF77EF75DEF1CE71CE71CE71CE79D
:1053F000DBDE1CE71CE71CE71CE71BE71BE7FBE603
:10540000FBDEB9D61ADF9DF7FFFFFFFFFFFFFFFFAF
:10541000DFFFFFFFFFFFFFFFFFFFFFFFFFFFFFFFBC
:10542000FFFFFFFFFFFFFFFFFFFFFFFFFFFFFFFF8C
:10543000FFFFFFFFFFFFFFFFDFFFFFFFFFFFFFFF9C
:10544000FFFFFFFF9EF7FCE61CEF3DEF1CE71CE7AC
:105450003CEF1CE7FCE6FBE61BE71CE71CE71BE751
:10546000DADEB9D699D637C657C6DADEDEF7FFFFE1
:10547000FFFFFFFFDFFFFFFFFFFFFFFFFFFFFFFF5C
:10548000FFFFFFFFFFFFFFFFFFFFFFFFFFFFFFFF2C
:10549000FFFFFFFFFFFFFFFFFFFFFFFFFFFFFFFF1C
:1054A000FFFFFFFFFFFFDFFF5DEFDBDE1CE73DEFF0
:1054B0003CEF3DEF5DEF3DEF1CE7FBE61BE71BE735
:1054C0001BE7FBE6DADE99D678CE37C616BE37C6BE
:1054D0001BE7FFFFFFFFDFFFFFFFFFFFFFFFFFFFF8
:1054E000FFFFFFFFFFFFFFFFFFFFFFFFFFFFFFFFCC
:1054F000FFFFFFFFFFFFFFFFFFFFFFFFFFFFFFFFBC
:10550000FFFFFFFFFFFFFFFFFFFFDFFF3CE79AD634
:10551000DBE61CEF1CEF1CEF1CEF1CE7FBE6DBDE01
:10552000DADEDADEBADE99DE79D658CE58CE58CE3B
:1055300017C6D6BD99D6BEF7DFFFDFFFFFFFFFFF1F
:10554000FFFFFFFFFFFFFFFFFFFFFFFFFFFFFFFF6B
:10555000FFFFFFFFFFFFFFFFFFFFFFFFFFFFFFFF5B
:10556000FFFFFFFFFFFFFFFFFFFFFFFFFFFFDFFF6B
:105570001CE79AD6FBE63CEF1CEF1CE71CE7FBE6BA
:10558000FBE6DADEDADEBADE99D679D658CE38CE48
:1055900037CE37C637C6F6BD99CEDEFFFFFFBEF762
:1055A000FFFFFFFFFFFFFFFFFFFFFFFFFFFFFFFF0B
:1055B000FFFFFFFFFFFFFFFFFFFFFFFFFFFFFFFFFB
:1055C000FFFFFFFFFFFFFFFFFFFFFFFFFFFFDFFF0B
:1055D000FFFFDFFF1CE7BADEFBE63CEF3CEF1CEF12
:1055E0001CEF1BE71BE7DAE6DADEBADE99D678D6DF
:1055F00058CE37CE17C6D6BD57C6F6BD79CEFEFFFC
:10560000FFFFBFF7FFFFFFFFFFFFFFFFFFFFFFFFF2
:10561000FFFFFFFFFFFFFFFFFFFFFFFFFFFFFFFF9A
:10562000FFFFFFFFFFFFFFFFFFFFFFFFFFFFFFFF8A
:10563000FFFFDFFFFFFFDFFF1CE79AD6FBE63CEF33
:105640003CEF1BE71BE71BE71BE7DADEDADEBADE1F
:1056500099D678D637CEF6C5D6BDB5B557C6F6BD00
:1056600058CEDEFFFFFFDFFFFFFFFFFFFFFFFFFF63
:10567000FFFFFFFFFFFFFFFFFFFFFFFFFFFFFFFF3A
:10568000FFFFFFFFFFFFFFFFFFFFFFFFFFFFFFFF2A
:10569000FFFFDFFFFFFFFFFFDFFFFFFF1CE7BADEBB
:1056A000FBE61BEF1BEF1BEF1BEF1BEF1BE7FAE605
:1056B000DAE6B9DE78D637CE16CEF6C5D6BDF6BD5B
:1056C00016C6D6BD58CEFFFFDEFFFFFFFFFFFFFF70
:1056D000FFFFFFFFFFFFFFFFFFFFFFFFFFFFFFFFDA
:1056E000FFFFFFFFFFFFFFFFFFFFFFFFFFFFFFFFCA
:1056F000FFFFFFFFFFFFDFFFFFFFFFFFDFFFFFFFFA
:105700001CE7BADEFBE61BEFFBE6FBE6FBE6FBE68F
:10571000DAE6DAE6DADE99DE78D637CE16C6F6C5F0
:10572000D5BDF6BD37C6F6BD78CEFFFFDEFFFFFF65
:10573000DFFFFFFFFFFFFFFFFFFFFFFFFFFFFFFF99
:10574000FFFFFFFFFFFFFFFFFFFFFFFFFFFFFFFF69
:10575000FFFFFFFFFFFFFFFFFFFFDFFFFFFFFFFF79
:10576000DFFFFFFF1CE79ADEDAE6FBEEFBE6FBE677
:10577000FAE6FAE6DAE6B9DE99DE78DE57D617CE33
:10578000F6C5D5C5B5BDD6BD16C6D6BD58CEFFFF2C
:10579000DEFFFFFFDFFFFFFFFFFFFFFFFFFFFFFF5A
:1057A000FFFFFFFFFFFFFFFFFFFFFFFFFFFFFFFF09
:1057B000FFFFFFFFFFFFFFFFFFFFFFFFFFFFDFFF19
:1057C000FFFFFFFFDFFFFFFF1CE779D6BADEFAE637
:1057D000FAE6FAE6FAE6FAE6DAE699DE98DE78D64E
:1057E00037CE16CED5C5B5BDB5BD94B5D6BDB5B50C
:1057F00058CEFFFFDEFFFFFFDFFFFFFFFFFFFFFFD2
:10580000FFFFFFFFFFFFFFFFFFFFFFFFFFFFFFFFA8
:10581000FFFFFFFFFFFFFFFFFFFFFFFFFFFFFFFF98
:10582000FFFFDFFFFFFFFFFFDFFFFFFF1CE779D672
:10583000B9DEDAE6FAE6DAE6DAE6DAE6B9DE99DEE3
:1058400098DE78D637CEF6C5D5C594BD94BD74AD77
:10585000D5B5B5B558CEFFFFDFFFFFFFDFFFFFFF78
:10586000FFFFFFFFFFFFFFFFFFFFFFFFFFFFFFFF48
:10587000FFFFFFFFFFFFFFFFFFFFFFFFFFFFFFFF38
:10588000FFFFFFFFFFFFDFFFFFFFFFFFDFFFFFFF68
:105890001CE799DEDAE61BEFFBEEFAE6DAE6B9E69C
:1058A00099DE98DE78D657D616CED5C594BD74B598
:1058B00053B574ADD5B5B5B578CEFFFFDFFFFFFFAB
:1058C000DFFFFFFFFFFFFFFFFFFFFFFFFFFFFFFF08
:1058D000FFFFFFFFFFFFFFFFFFFFFFFFFFFFFFFFD8
:1058E000FFFFFFFFFFFFFFFFFFFFDFFFFFFFFFFFE8
:1058F000DFFFFFFF1CE737CE78D6B9DEB9DEB9DEB1
:10590000B9DE98DE78D657D637CEF6C5B5BD73B5B5
:1059100032AD12ADF1A412A574AD95AD58C6FFFF1E
:10592000FFFFFFFFDFFFFFFFFFFFFFFFFFFFFFFFA7
:10593000FFFFFFFFFFFFFFFFFFFFFFFFFFFFFFFF77
:10594000FFFFFFFFFFFFFFFFFFFFFFFFFFFFDFFF87
:10595000FFFFFFFFDFFFFFFF1BE754B594C5F4CD4A
:1059600014D614DE34DE14DEF3DDD3D5D2D591CDDA
:1059700050C50FB5CEAC8DA46EA48F9C11A532ADD1
:1059800016C6FFFFFFFFFFFFFFFFFFFFFFFFFFFF49
:10599000FFFFFFFFFFFFFFFFFFFFFFFFFFFFFFFF17
:1059A000FFFFFFFFFFFFFFFFFFFFFFFFFFFFFFFF07
:1059B000FFFFFFFFFFFFFFFFDFFFBEF77DF74B7B22
:1059C000EC9BE99BAABC47BC67C467CC68D4C9D42C
:1059D000C9D4E8D4E7D4E8CCC8CCC9CCCBCC4FCD23
:1059E00071C54D9477D6FEFF9DF7FFFFFFFFFFFFC8
:1059F000FFFFFFFFFFFFFFFFFFFFFFFFFFFFFFFFB7
:105A0000FFFFFFFFFFFFFFFFFFFFFFFFFFFFFFFFA6
:105A1000FFFFFFFFFFFFFFFFFFFFFFFFDFFFBEF7FF
:105A20009DFF2E9CCA9B28B4E9D4A6D4C6E4A6E464
:105A3000A6ECE6EC06ED25ED45ED45ED67ED68EDF0
:105A40006BE58FDD50C56DA4F8EEFEFFDEF7FFFFBE
:105A5000FFFFFFFFFFFFFFFFFFFFFFFFFFFFFFFF56
:105A6000FFFFFFFFFFFFFFFFFFFFFFFFFFFFFFFF46
:105A7000FFFFFFFFFFFFFFFFFFFFFFFFFFFFFFFF36
:105A8000DFFFDFFFDEFF11B5488B48B4C8CCE6DC92
:105A9000E5E4C5E4C5EC06F525F545ED64EDA5F5B1
:105AA000A7F5A9F5ACEDF0E50FBDAEA49BFFFEFF99
:105AB000FFFFFFFFFFFFFFFFFFFFFFFFFFFFFFFFF6
:105AC000FFFFFFFFFFFFFFFFFFFFFFFFFFFFFFFFE6
:105AD000FFFFFFFFFFFFFFFFFFFFFFFFFFFFFFFFD6
