:100000000C94077A0D940D1B0D94E21A0D94B71AF7
:100010000D948C1A0D94611A0D94361A0D940B1AC6
:100020000D94E0190C94387A0C94387A0C94387A40
:100030000C94387A0D94384A0C94387A0C94387AA7
:100040000C94387A0C94387A0C94387A0C94387A68
:100050000C94387A0C94387A0C94387A0D9496195A
:100060000C94387A0D94264E0D94FD4D0C94387AEC
:100070000C94387A0C94387A0C94387A0C94387A38
:100080000C94387A0C94387A0C94387A0C94387A28
:100090000C94387A0C94387A0C94387A0D94EA14CB
:1000A0000C94387A0C94387A0C94387A0C94387A08
:1000B0000C94387A0C94387A0C94387A0C94387AF8
:1000C0000C94387A0C94387A0C94387A0C94387AE8
:1000D0000C94387A0C94387A0C94387A0C94387AD8
:1000E0000C94387AC07FC37FC87FD07FDB7FDB7FF3
:1000F000E97FE97FE97FFA7F42B058B06EB084B003
:100100009AB0B0B0C6B0DCB073B1A4B1D5B106B28C
:1001100037B268B299B2CAB246B30AB494B41CB545
:10012000A4B52CB6B3B6D8B6CFC3E5C3FBC311C4D0
:1001300027C43DC453C49DC4CEC4FFC430C561C5EB
:1001400092C5C3C51DC67AC6D2C62AC782C7DAC73A
:1001500034C890CBA6CBBCCBD2CBE8CBFECB14CC57
:100160002ACC76CCA7CCD8CC09CD3ACD6BCD9CCDC2
:10017000CDCD26CE57CE88CEB9CEEACE1BCF4BCF33
:100180007BCF0AF843F875F8A7F8D9F80BF93DF9D1
:100190006FF9A1F9D3F939FA6AFA9BFACCFAFDFAA8
:1001A0002EFB5FFB90FBC1FBF2FB38FC85FCD2FC15
:1001B0001FFD6CFDF8FD03FE0AFE11FE18FE2FFF69
:1001C00053FF6EFF89FFA4FFBFFFDAFFF5FF870132
:1001D00079016F011D013B0143011F0199018D014F
:1001E0007F015901A101AB01A301A50175014D01D9
:1001F00063012D018501950151013F012501250173
:1002000083019701A9011301710117014B018101BC
:1002100049016B0165017D016901330131014B0128
:100220005F019F0177010D9448180D9410190D94EA
:1002300052180D9449470D944F190D94B5010D9422
:1002400006020D9477600D94AD120D94AC160D94CA
:100250008D600D94316D0D941F6D0D947E160D946F
:10026000E6470D947D180D9479180D94CE600D9489
:10027000016D0D946C650D94D0010D9456600D9434
:100280009D160D94DF180D94EB010D94ED460D9421
:100290008E600D9461180D9490180D946E160D9447
:1002A00062120D9496160D9427470D947E120D94AC
:1002B000026D0D9454020D94D3610D947F470D94FB
:1002C00083180D9403610D9476160D946B180D949C
:1002D0002F060D9475180D9467180D949A050D94BA
:1002E0009A010D944C180D9418470D9463020D94C7
:1002F0008B180D947F010D94C5470D946F180D94C4
:1003000051020D945D180D94A4160D9486160D944B
:1003100064010D9476120D9452120D944E020D94B8
:10032000D6600D94B6180D943B470D948E160D941F
:1003300056180D9421020D9453120D9442210D94E0
:1003400087180D9457020D945D020D9460020D9470
:1003500075650D9459180D945A0200407A10F35A9D
:1003600000A0724E18090010A5D4E80000E87648F5
:10037000170000E40B54020000CA9A3B000000E1A1
:10038000F505000080969800000040420F00000034
:10039000A08601000000102700000000E803000014
:1003A00000006400000000000A00000000000100DE
:1003B000000000002C76D888DC674F0823DFC1DFFF
:1003C000AE59E1B1B796E5E3E453C63AE651997602
:1003D00096E8E6C28426EB898C9B62ED407C6FFC3C
:1003E000EFBC9C9F40F2BAA56FA5F490055A2AF77E
:1003F0005C936B6CF9676DC11BFCE0E40D47FEF587
:1004000020E6B500D0ED902E0300943577050080EE
:10041000841E080000204E0A000000C80C3333334D
:10042000330F986E12831141EF8D2114893BE655ED
:1004300016CFFEE6DB18D1844B381BF77C1D901DD0
:10044000A4BBE424203284725E228100C9F124EC32
:10045000A1E53D27000000000000000000000000B2
:10046000000000000000000000000000000000008C
:10047000000000000000000000000000000000007C
:10048000000000000000000000000000000000006C
:10049000000000000000000000000000000000005C
:1004A000000000000000000000000000000000004C
:1004B00041088210A210C318E3180419E318C318E6
:1004C000E3186108000000000000000000000000C8
:1004D000000000000000000000000000000000001C
:1004E000000000000000000000000000000000000C
:1004F000A21024216529083AAA522C638E73AE7388
:100500000C632842AA52CF7BCB528210000000001D
:1005100000000000000000000000000000000000DB
:1005200000000000000000000000000000000000CB
:100530002000E739694AAA52718C96ADF7BD18C6FA
:1005400038C638C618BED7B514A5B29496B575ADE1
:10055000E73900000000000000000000000000007B
:10056000000000000000000000000000000000008B
:10057000000041082C63CF73518CF7BD38C679CE8B
:10058000DBDE3CE77DEF5DEF1CE7BAD638C6F7BD92
:1005900096B538C6FBDECB5A000000000000000014
:1005A000000000000000000000000000000000004B
:1005B0000000000000008D6BD39434A538C638C607
:1005C0001CE7FFFFFFFFFFFFFFFFFFFFFFFFFFFF36
:1005D0009EF79AD6F7BDB6B559CE5DEFAA52000088
:1005E000000000000000000000000000000000000B
:1005F0000000000000000000694A34A575AD38C64F
:1006000038C6BEF7FFFFFBDE718C8A4AA631C739B8
:10061000CB52D39C5DEFFFFFDBDEF7BDB6B5BAD69C
:10062000DBDE86310000000000000000000000005A
:1006300000000000000000000000C318F39C55A556
:1006400038C6F7BDBEF7DFFF718CC318000000008D
:100650000000000000000000042155ADFFFF9AD605
:10066000B6B5D7BD7DEF34A5410000000000000005
:1006700000000000000000000000000000004D6BC2
:1006800075ADF7BDD7BD1CE79EF78D6B0000000070
:10069000000000000000000000000000000020003A
:1006A000D39CDFFFD7BDB6B579CE7DEF49420000C0
:1006B000000000000000000000000000000000003A
:1006C0006108F39C75AD18C638C6FFFF5184000061
:1006D000000000000000000000000000000000001A
:1006E00000000000610818C69AD696B5F7BD9EF7BF
:1006F000D39C00000000000000000000000000008B
:1007000000000000A63175ADB6B5F7BD1CE779CE87
:1007100004210000000000000000000000000000B4
:10072000000000000000000000008A529AD634A5A4
:10073000F7BD1CE79AD6C3180000000000000000B7
:100740000000000000000000CB5A96B5F7BD18C6A7
:10075000BEF7108400000000000000000000000050
:1007600000000000000000000000000000008210F7
:1007700018C655ADF7BD9AD67DEFC7390000000009
:100780000000000000000000000000004D6BB6B546
:10079000F7BD58C6BEF72C63000000000000000043
:1007A0000000000000000000000000000000000049
:1007B0000000000034A5B6B5F7BD59CEBEF7694AB2
:1007C0000000000000000000000000000000000029
:1007D0006D6B96B5F7BD59CEBEF7EB5A0000000021
:1007E0000000000000000000000000000000000009
:1007F0000000000000000000D39CF7BDD7BD59CE1B
:10080000BEF78A5200000000000000000000000057
:10081000000000006D6B96B5F7BD59CEBEF7EB5AE0
:1008200000000000000000000000000000000000C8
:10083000000000000000000000000000D39CF7BD95
:10084000D7BD59C6BEF78A52000000000000000064
:1008500000000000000000006D6B96B5F7BD59CE9A
:10086000BEF7EB5A0000000000000000000000008E
:100870002000200000000000000000000000000038
:10088000D39CF7BDD7BD38C69EF78A520000000042
:100890000000000000000000000000006D6B96B535
:1008A000D7BD38C6BEF7EB5A00004108E318A631A1
:1008B000494ACB5A4D6B8E736D6B2C63694A8631F6
:1008C00061080000D39CF7BDB6B538C69EF78A4ACA
:1008D0000000000000000000000000000000000018
:1008E0006D6B96ADD7BD59CE5DEFAA5286318A5257
:1008F0004D6BEF7B518CB29414A575ADB6B518C68F
:1009000038C6F7BD34A56D6B929434A5D7BD38C6F3
:100910009EF7694A0000000000000000000000008F
:10092000000000006D6B96B5F7BDD39C4D6BAA52CD
:100930002C63AE73EF7B1084518CB294F39C55AD55
:10094000B6B518C679CEDBDE3CE73CE759CEF39C62
:1009500014A518C69EF7694A0000000000000000B8
:1009600000000000000000008E7375AD1084EB5A8B
:100970004D6BAE738E738E73AE73EF7B518CB294EE
:1009800034A596B5F7BD59CE9AD6DBDE1CE77DEFD0
:10099000BEF79EF759CE75AD3CE7694A00000000EE
:1009A0000000000000000000000000004C63108404
:1009B0006D6B30843084EF7BAE738E73CF7BEF7BB7
:1009C000EF7BCF7BEF7B3084929475AD59CE3CE7C3
:1009D0009EF79EF7BEF7DFFFFFFF5DEF39C60842C7
:1009E0000000000000000000000000000000000007
:1009F000694A518CF39CB294518C1084EF7B0C6348
:100A00002842C739C739A631C73986312421242164
:100A100086310C6396B5BEF7FFFFDFFFFFFFFFFFD8
:100A2000DFFF518C0000000000000000000000000B
:100A300000008631B29496B555ADF39CD39C3084BA
:100A40002842652928428A52284286316529042194
:100A50008210A210A21061088210CB5AFBDEFFFFA9
:100A6000FFFFFFFFFFFFFFFF4D6B000000000000D6
:100A700000000000A210718C38C6F7BD96B575ADA8
:100A80009294C739E739EB5A8A522842A631242179
:100A9000A63145292000000000000000610841083F
:100AA000863179CEFFFFDFFFBEF7DFFF3CE7A631DF
:100AB00000000000000000002C6359CEBAD659CEC9
:100AC00038C655ADA631C7392C634D6BCB5A284279
:100AD000E739863165290421610800000000200003
:100AE0008210A210200045299AD6FFFF7DEF5DEF0E
:100AF0009EF7B6B52000000000002421B6B53CE703
:100B0000FBDEBAD69AD6694A8631CB5A0C6330845A
:100B10002C638A528A52694A0842A631E31820009F
:100B2000000061082421A210E318821028423CE74B
:100B30005DEFFBDEDBDE3CE7AA52000000002C6329
:100B40005DEF7DEF3CE77DEF718CE318694AAA52B7
:100B5000EB5AEB5A8A52EB5A4D6B4D6B1084D39C77
:100B6000D39CAE73E31800008210042165298631FE
:100B7000C31810843CE79AD679CEBAD675AD00007A
:100B8000410855ADDFFFBEF7BEF73CE7A63165294A
:100B90000842694A694AE739EB5A518C518C34A5AD
:100BA00038C69AD6FBDE7DEFDBDE08420000452921
:100BB000C739E739C739C73918C659CEF7BDD7BDC8
:100BC000BAD645294529BAD6FFFFDFFFFFFF14A596
:100BD00082106529C739E73945290842B6B579CE6B
:100BE0007DEFFFFFFFFFFFFFFFFFBEF7FFFF5DEFA2
:100BF000A631C318494A8A52694AA631108418C6D8
:100C000096B555AD79CE0C63694A9EF7FFFFFFFF9D
:100C1000FFFF0C6382108631AA524529821034A549
:100C2000DFFFFFFFFFFFFFFFDFFF9EF73CE7FBDE7D
:100C30009AD6BEF796B50421AA52CF7B0C63694AB7
:100C4000EB5A75AD14A5D39CD7BD518C6D6BFFFFCE
:100C5000FFFFFFFFBEF7C7396108C318863141089F
:100C60008631BEF7FFFFBEF77DEF1CE7BAD679CE1F
:100C700038C618C618C69AD679CE694A494A6D6BE5
:100C80000C630C63AA52F39C9294718C14A514A566
:100C90001084DFFFFFFFFFFF5DEF042161084108C3
:100CA000410800000C63FFFFFBDE9AD659CE18C640
:100CB00018C618C659CE9AD6DBDE1CE7D7BD0C6322
:100CC000494A0C630C636D6BAA5292943084108471
:100CD000929455AD518CBEF7BEF7DFFF1CE7E318C9
:100CE00082100000000000004D6B3CE738C618C6BB
:100CF00038C679CEBAD61CE75DEFBEF7FFFFDFFF3F
:100D0000F39CCB5A694ACB5ACB5A8E73EB5A308438
:100D1000CF7BCF7B308434A510847DEF5DEF7DEFFA
:100D2000FBDE24216108000000000000AA5238C642
:100D300079CEFBDE3CE79EF7DFFFFFFFFFFFFFFF03
:100D4000FFFF7DEFCF7B8A52494A694A694A4D6B62
:100D5000CB5A10848E738E733084B2946D6B3CE7E3
:100D60001CE71CE7FBDE0842A210410804216108D1
:100D70008631B29418C6FFFFFFFFFFFFFFFFFFFFA2
:100D8000DFFFBEF7DFFFB6B58E73084228420C6363
:100D900028424D6BCB5AEF7B6D6B6D6B718CEF7B8B
:100DA000694ABAD6BAD69AD6DBDE0C63E318C31802
:100DB0000421A21045290C633084DBDEFFFFDFFF36
:100DC0009EF77DEF3CE71CE79AD614A50C634529F6
:100DD000A631494A28420C63EB5ACF7B6D6B4D6BB1
:100DE000F39CCB5A652918C659CE38C659CEB29451
:100DF000452924218210C318863128422C63EF7BB9
:100E000038C61CE7FBDEBAD6BAD6DBDEBAD6929479
:100E10000421C318A210C31808428A526D6BEF7BDD
:100E2000AE738E7355AD65294108F39CF7BDB6B519
:100E300096B5B6B50842C739242124218631284207
:100E4000694AEB5A1084B6B5FBDE9EF7FFFF7DEFD3
:100E5000718C8210200020004108C318494A2842A2
:100E60009294EF7BCF7B3084F39C410800004D6B64
:100E7000B6B555AD34A534A5EF7BA631694A8631A8
:100E8000E739AA52CB5A694A2842EB5AEF7B518C78
:100E90006D6B452900002000821000002000C7393A
:100EA000C739AE73D39C518C108455AD4D6B000087
:100EB0000000652955ADF39CD39C9294B2948A525C
:100EC000494ACB5A28428E734D6BEB5AAA52C73906
:100ED00004218210200041084108E3182421000069
:100EE000E3186529694A75AD14A5B294D39CB6B5CB
:100EF000E318000000000000EF7B34A5718C518CDA
:100F000010841084E7398A526D6BEB5AEB5A0C63EC
:100F10000C63EB5A2C63AA5286312421A21041089B
:100F200082102421E318C739B6B5D7BD75AD14A515
:100F300018C66D6B0000000000000000042155ADD4
:100F4000718CEF7BCF7BAE73AE73084228424D6B42
:100F50002C632C630C63CB5A2C63CB5AA63124210F
:100F6000E318A210C3186108084238C6BAD618C6DA
:100F7000B6B538C634A541080000000000000000E6
:100F800000008A52D7BDCF7B8E738E738E738E73A3
:100F9000694AA631494AEB5AEB5AAA52AA52284248
:100FA00086316529E3188210C318CF7B3CE75DEFDB
:100FB000DBDE79CE79CE79CE652900000000000015
:100FC0000000000000000000AE73D7BDAE734D6B93
:100FD0006D6B8E73CF7B8E73AA520842C739A631D0
:100FE000A63165290421452908421084DBDEFFFF74
:100FF000BEF75DEF1CE71CE7FBDE494A000000007E
:101000000000000000000000000000000000AE73BF
:1010100018C6EF7B4D6B8E73CF7B10849294D39C5C
:10102000F39C14A514A575AD18C6FBDEBEF7FFFF33
:10103000FFFFFFFFBEF79EF7BEF7FBDE494A000049
:1010400000000000000000000000000000000000A0
:10105000000000008A52F7BD14A5CF7BAE73108448
:10106000718CF39C75ADF7BD79CEFBDE5DEF9EF71D
:10107000DFFFFFFFFFFFFFFFFFFFFFFF18C6863107
:101080000000000000000000000000000000000060
:1010900000000000000000000000E3183084D7BD0D
:1010A00055ADB2949294F39C55ADD7BD59CEBAD6F6
:1010B0001CE77DEFBEF7FFFFFFFFFFFF3CE7CF7BA5
:1010C000821000000000000000000000000000008E
:1010D0000000000000000000000000000000000010
:1010E000000004218E7355AD18C638C638C659CED7
:1010F000BAD61CE77DEFDFFFFFFFBEF779CEEF7BAF
:10110000E3180000000000000000000000000000E4
:1011100000000000000000000000000000000000CF
:101120000000000000000000000041086529CB5AC3
:10113000CF7B929414A534A5F39C30842C63863124
:101140004108000000000000000000000000000056
:10115000000000000000000000000000000000008F
:10116000000000000000000000000000000000007F
:10117000000000000000000000000000000000006F
:10118000000000000000000000000000000000005F
:10119000000000000000000000000000FFFFFFFF53
:1011A000FFFFFFFFFFFFFFFFFFFFFFFFBAD69AD64B
:1011B000DFFFFFFFFFFFFFFFFFFFFFFFBAD6FBDEF2
:1011C000FFFF1CE7BEF7FFFFFFFFFFFFFFFFFFFF73
:1011D0003CE7F39CB294718C75AD9AD659CEF7BDAD
:1011E000D7BD59CE9AD659CE59CE7DEFFFFFDFFF3E
:1011F000FFFFFFFFFFFF694A6D6BFFFF59CE0842FB
:10120000FFFFBEF7EF7BF39CB2948A524108DFFFE9
:10121000FFFFDFFFA631BAD6FFFFFFFFFFFFFFFF93
:10122000FFFFFFFFFFFFFFFFFFFFFFFFBAD6DBDE81
:10123000FFFFFFFFFFFFFFFFFFFFFFFFFFFFFFFFBE
:10124000FFFFFFFFFFFFFFFFFFFFFFFFFFFF1CE7A9
:10125000DFFFFFFFFFFFFFFFFFFFFFFFFFFFFFFFBE
:10126000FFFFFFFFFFFFFFFFFFFFDFFFBEF7FFFFF7
:10127000DFFF59CEBAD6B6B5F7BD9AD679CE18C625
:10128000718C14A518C69AD679CEDFFFFFFFDBDE7E
:10129000DBDED7BD55ADA631B294FFFF7DEF8A529C
:1012A000F7BDFFFFCF7BD39CFFFF08426529FFFFFF
:1012B000FBDE5DEF0C63FFFFFFFFFFFFFFFFFFFFA4
:1012C000FFFFFFFFFFFFFFFFFFFFFFFFFFFF3CE709
:1012D000FFFFFFFFFFFFFFFFFFFFFFFF3CE7FFFFF9
:1012E000FFFFFFFFFFFFFFFFFFFFFFFFFFFFFFFF0E
:1012F000FFFFFFFFBAD6DBDE96B55DEFFFFFFFFF16
:10130000FFFF7DEFDFFFFFFFFFFF5DEF3CE7FFFF2C
:10131000FFFFFFFFFFFFFFFF3CE73CE77DEFFFFF25
:10132000DBDE59CE79CE3CE73CE7DFFF7DEF79CEBF
:101330006D6B0000A210718C7DEFFFFFDFFFE739BE
:10134000AE73FFFF86310842FFFF1084494AFFFF5A
:10135000AE730842494AB6B5FFFFFFFFFFFFFFFF2C
:10136000FFFFFFFFFFFFBEF71CE7DFFF1CE7DBDE31
:10137000FFFF5DEFDFFFFFFFFFFFFFFF7DEFFFFFE1
:10138000FFFFFFFFFFFFFFFFFFFFFFFFFFFFFFFF6D
:10139000FFFFFFFF9EF738C6B294518CBAD6FFFF0D
:1013A000FFFF9EF7DFFFFFFFFFFFFFFFFFFFFFFFD6
:1013B000FFFFFFFFFFFFFFFFFFFFFFFFFFFFFFFF3D
:1013C000FFFFFFFFFFFFFFFFFFFFFFFF1CE7E73906
:1013D0008E734D6BAA52D7BD694A8A52694A000082
:1013E0002C63DFFF61082842FFFF6D6BA210FFFF37
:1013F000518C00002C63AA52FFFFFFFFFFFFFFFF8D
:10140000FFFFFFFFFFFF7DEF38C6BAD67DEFBEF7C7
:10141000FFFF9EF7FFFFFFFFFFFFFFFFFFFFFFFF45
:101420005DEFBAD6FBDEFBDEFBDEFBDE79CEBAD6A5
:10143000DFFFDFFF9EF7FBDEDFFF3CE79EF7FFFFEE
:10144000FFFFFFFFFFFFFFFFFFFFFFFFFFFFFFFFAC
:10145000FFFFFFFFFFFFFFFFFFFFFFFFFFFFFFFF9C
:10146000FFFFFFFFFFFFFFFFFFFFFFFFFBDE0000AF
:10147000CF7BFFFF494A00002421C739A631452907
:10148000A210610800002421DBDE65290000DBDEFC
:101490006D6B0000AE73AA52FFFFFFFFFFFFFFFF5F
:1014A000FFFFFFFFFFFFFFFFFBDE38C6BEF7FFFFBA
:1014B000FFFFFFFF7DEFFBDEFFFFFFFFFFFFFFFFF3
:1014C000DBDEFBDE7DEF5DEFDFFFBEF79AD634A5F6
:1014D0009EF75DEF18C659CEFFFFFFFFFFFFFFFF2E
:1014E000FFFFFFFFFFFFFFFFFFFFFFFFFFFFFFFF0C
:1014F000FFFFFFFFFFFFFFFFFFFFFFFFFFFFFFFFFC
:10150000FFFFFFFFFFFFFFFFFFFFFFFF5DEF00009B
:10151000EF7B9AD6BAD6694A75ADFFFFFFFFFFFF92
:1015200034A5494AAA52EB5A718C6D6B24210000F4
:10153000000000000000694AFFFFFFFFFFFFFFFF00
:10154000FFFFFFFFFFFF3CE759CE38C679CEFFFF14
:10155000FFFFFFFFFBDE3CE7FFFF9EF759CE1CE7D6
:1015600059CE59CE59CE38C6DBDEBAD6DBDEFBDE2D
:10157000FFFFFFFF1CE7DBDEFFFFFFFFFFFFFFFFBB
:10158000FFFFFFFFFFFFFFFF18C6AE73AE73CF7BF9
:10159000AE73CF7BB2941CE7FFFFFFFFFFFFFFFF9F
:1015A000FFFFFFFFFFFFFFFFFFFFFFFF518C00006A
:1015B0003084EB5A59CEFFFF3CE75DEFFFFF3CE77D
:1015C000FFFFFFFFFFFFFFFFFFFFFFFFDBDE518C91
:1015D000518C518CA210494AFFFFFFFFFFFF1CE70F
:1015E0009EF7FFFF3CE759CE59CEFBDE5DEFFFFFD4
:1015F000FFFFFFFFFFFFFFFFFFFFBAD6D7BD9AD661
:1016000059CE3CE7BAD659CE38C638C69AD6FFFF6F
:10161000FFFFFFFFFFFFFFFFFFFFDFFFDFFF18C63A
:10162000284208420842E739C318000000000000C1
:1016300000000000000065290842E7398E73BEF7FC
:10164000FFFFFFFFFFFFFFFFFFFFFFFF718C0000A9
:10165000718C4D6BBAD679CE2421A631084245292A
:101660000842284228422C6338C69EF7FFFFFFFF3E
:10167000FFFFFFFF55AD2C63FFFFFFFFFBDE18C62A
:101680003CE73CE738C659CEFBDEFFFFFFFFFFFF1C
:10169000FFFFFFFFFFFFFFFFFFFFDBDEDFFF9EF728
:1016A0003CE7FFFFDFFF7DEF9AD69AD6DBDEFFFF38
:1016B000FFFFFFFF1CE79AD6518CC318E3184108BF
:1016C000000000000000E318D39C1CE7EB5A042143
:1016D0004D6B8631242192944D6BC318C318A21010
:1016E000AE739AD6FBDEFFFFFFFFFFFF9AD6694A73
:1016F000FBDE08421CE775AD042114A5EB5A452911
:10170000A631863182104108200065290421042178
:10171000242124210421AA52FFFFFFFF9EF718C6AF
:1017200018C69AD6DBDEDFFFFFFFFFFFDFFFBAD66A
:10173000FBDEDFFFDFFF3CE7FFFFFFFFFFFFFFFFF9
:10174000FFFFFFFFFFFFFFFFFFFFFFFFFFFFFFFFA9
:1017500075ADAE73E31800000000200000002421E6
:101760004D6BD39C718C75AD5DEFFFFFFFFFBEF736
:10177000FFFF0C639AD6FFFFFFFF55AD694A410892
:1017800000000000821038C6FFFFFFFF59CE0C6337
:1017900038C6A2105DEF34A50C63FFFF5DEF34A5E2
:1017A0003CE779CED7BD34A50421F39C9294C73988
:1017B0008A5208420000694AFFFFFFFFFFFF9AD6E6
:1017C00038C6DFFFFFFFFFFFFFFF9EF7DFFF9EF73B
:1017D000DBDEBEF7FFFFFFFFFFFF7DEFFFFFFFFF39
:1017E000FBDEDFFFFFFFFFFFFFFFFFFF5DEFAE73DD
:1017F0008A52000000000421CB5A494A042155AD09
:10180000FFFFFFFF518C863175ADFFFF7DEFD7BD28
:10181000518CF39CBEF7F7BDAE734529E31875AD47
:10182000E7396108000061084D6B1CE7FBDE8A5256
:10183000FFFF494ADBDE96B58E73FFFFFFFF3CE7F3
:10184000FFFFFFFFFFFFDFFFBAD6DFFFFFFFF7BDA0
:1018500018C6EB5A0000494AFFFFFFFFFFFFFFFFDA
:10186000FFFFFFFF5DEFFFFFFFFF7DEFDFFFFFFFEC
:10187000FFFFFFFFFFFF9EF79EF75DEFFFFFFFFFFC
:1018800096B518C6FBDEFFFFFFFFBEF7518C18C6EA
:1018900075AD8A52E7398A523084CB5A718C14A5BF
:1018A000FBDE1084694AB6B5FBDEDBDEF7BDE73947
:1018B000A6311CE7FFFFF7BDE73914A51CE7FBDEE7
:1018C00055ADB6B582108A522842242165298A5224
:1018D000FFFF8A52DBDE18C6AE737DEFDBDEFFFF53
:1018E000FFFFFFFFFFFFFFFFFFFFFFFFFFFFFFFF08
:1018F000FFFF494A00001084FFFFFFFFFFFFFFFFCB
:10190000FFFFFFFF9EF7FFFF7DEFDBDEBEF7DFFF90
:10191000FFFFFFFFFFFFDFFFBEF7FFFFBEF7FFFF89
:10192000BEF7DBDEBAD6FFFFFFFFFFFF3CE7F39C0D
:10193000A6310C63C31820002421CB5A0C63929467
:101940009EF7EF7B75ADFFFF5DEF18C6CB5A108495
:1019500038C6BEF77DEF79CE96B5DBDEFBDEFFFF46
:101960007DEF694A61087DEFFFFFCB5AE31808421B
:101970007DEF34A53CE718C6AE73718C518C18C648
:10198000FBDE59CE75ADB294BAD67DEFBEF7FFFF40
:10199000FFFF494A2000FBDEFFFFFFFFFFFFFFFFC5
:1019A000FFFFFFFFFFFFFFFFDFFFFBDEBAD6BAD668
:1019B0007DEFFFFFFFFFFFFFFFFFFFFF79CEFFFF80
:1019C000FFFFFFFFFFFFFFFFFFFFFFFF1CE7000020
:1019D0004108410800000000B2947DEFFFFFFFFFC7
:1019E000BEF7718CAA52BAD61CE79294EF7B59CEFF
:1019F00038C614A50C63A631C3182000A21079CEF6
:101A00004D6B410800000C63FBDEFFFFDFFFEB5A6C
:101A10002842FFFF5DEF10849EF7FFFFFFFF3CE7CA
:101A200034A5B6B555AD518C96B518C6B6B575ADDD
:101A300059CE6529A210FFFFFFFFFFFFFFFFFFFF49
:101A4000FFFFFFFFFFFFFFFFFFFFFFFFFFFFFFFFA6
:101A5000FFFFFFFFFFFFFFFFFFFFFFFF5DEFFFFF48
:101A6000FFFFFFFFFFFFFFFFFFFFFFFF3CE700005F
:101A700000000000410875ADFFFFFFFFD39CAA5294
:101A8000AA52C318F39CFBDE8E73CB5ACF7B3084F3
:101A9000AE73AA52A63128428210000020002421F1
:101AA000A2108631000000006529FBDEFFFFB6B5FD
:101AB0000000694A5DEFBAD6FFFF5DEF3CE7FFFF2C
:101AC000FFFFFFFFFFFFFFFFDFFFBEF71CE7F7BDD4
:101AD00038C64529A210FFFFFFFF9AD634A538C6A5
:101AE0009EF7FFFFFFFFFFFFFFFFFFFFFFFFFFFF6F
:101AF000FFFFFFFFFFFF38C66D6BEB5AFFFFDFFFF5
:101B0000BAD6BEF7FFFFFFFFFFFF34A5C7390000BD
:101B100000006D6BB6B5FFFFBEF74D6B0000000017
:101B20002000B294BAD62421000086312842CB5A34
:101B3000EF7BCF7B518C8E73E739AA52610820006E
:101B4000CB5A75AD718C410800000421FBDEBEF755
:101B500079CEF7BDBAD6FFFFFFFFDBDE55AD9AD6D3
:101B6000DBDEDBDE75ADB29438C61CE7FFFFFFFF9E
:101B7000FFFF28428210FFFFFFFF79CE55ADD7BD92
:101B80003CE7FFFFFFFFFFFFFFFFFFFFBEF79EF7F2
:101B9000D39CE739E739C31800000000FFFFFFFFBF
:101BA000DFFFFFFFFFFF7DEF8E73200000000000CE
:101BB00065291CE7FFFFDFFFB2940421E739E7390D
:101BC000FBDEFFFF96B5A631E73934A5B294718CE0
:101BD0005DEF7DEF34A5AA52F7BD3CE759CE5DEF2E
:101BE000BEF7FFFFFFFF79CE8A5200000421B6B591
:101BF000DBDEDBDE6D6BF39CFFFFDFFF96B579CE9E
:101C00005DEF1CE7F7BD14A59AD61CE7FBDE7DEF60
:101C1000F7BD6108C318FFFFFFFFFFFFFFFFFFFFD6
:101C2000FFFFFFFFFFFFFFFF59CE59CE6529A2102E
:101C30000000000000000000000000005DEF5DEF0C
:101C4000BEF7FFFFFFFFF7BD0000000020000C63A0
:101C5000D7BDFFFFFFFFBEF7FBDE1CE718C6B6B51A
:101C6000DFFFFFFFFFFFDFFF1CE73CE71CE77DEF27
:101C7000FFFFF7BD652914A5FFFFFFFFFFFFFFFF73
:101C8000FFFFFFFFFFFFFFFFFFFF308400000000AA
:101C90000000000030841CE7FFFFFFFF3CE77DEF02
:101CA000FFFFFFFFFFFFBEF7FFFF5DEFDFFFFFFF5F
:101CB00018C64108C318FFFFFFFFFFFFFFFFFFFF2C
:101CC0003CE7F39CF39C4D6B00000000000000001B
:101CD0000000AA52CF7B042124210C639AD61CE772
:101CE0001CE7FFFF7DEF494A00000000694AFFFF43
:101CF000BAD638C6DFFF5DEFFFFFFFFFFFFFFFFF34
:101D0000FFFFFFFFFFFFFFFFFFFFFFFFFFFFFFFFE3
:101D10007DEF55AD96B5FFFFFFFFFFFFFFFFFFFF14
:101D2000FFFFFFFFFFFFFFFFFFFF1CE76108000051
:101D3000610861088A529294FFFFFFFFFFFF7DEF69
:101D4000FFFFFFFFDFFFF7BDFBDEFFFFFFFFFFFF32
:101D50005DEF4529A210FFFFFFFFD39C4D6B2C6365
:101D6000A6310000000000000000E318694AD39C7F
:101D700075ADFFFFFFFF79CE9AD6FFFF518CBAD623
:101D80003CE7FFFF1CE700000000410879CEFFFFA1
:101D90003CE71CE7FFFFBEF7FFFFFFFFFFFFFFFF72
:101DA000FFFFFFFFFFFFFFFFFFFFFFFFFFFFFFFF43
:101DB000BEF7FFFFFFFFFFFFFFFFFFFFFFFFFFFF7C
:101DC000FFFF3CE7DFFFFFFFFFFFBEF759CE718C3F
:101DD000410892948A52C73914A5DFFFFFFFFFFF25
:101DE0005DEFBEF77DEF4D6BB6B5FFFFFFFFFFFF69
:101DF000FFFF34A5694A55AD6529000000000000C9
:101E000000006108494A59CE59CEDBDE59CE9EF713
:101E1000FBDEBAD614A5FBDEFFFFFFFF55AD3CE7A6
:101E2000FFFFFFFFD39C0000C318B6B5FFFFFFFF05
:101E3000FFFFFFFFFFFFFFFFFFFFFFFFFFFFFFFFB2
:101E4000FFFFFFFFFFFFFFFFFFFFFFFFFFFFFFFFA2
:101E5000FFFFFFFFFFFFBEF79EF77DEFFFFFFFFFD6
:101E6000FFFFDFFFFFFFFFFFFFFFFFFFFFFFB6B535
:101E7000000038C68A520000A631DBDEFFFF9EF765
:101E8000FBDEBEF7FFFFFFFFFFFFFFFF3CE7B6B53E
:101E900096B5494AA210C318E31886312842108427
:101EA000108414A5BAD6DFFFBAD6F7BD518C3084A2
:101EB00096B5DBDE9AD6BEF7FFFFFFFFFFFFFFFF01
:101EC000FFFFFFFFE31800001084FFFFFFFFFFFF8D
:101ED000FFFF9EF7FFFFFFFFFFFFFFFFFFFFFFFF7B
:101EE000FFFFFFFFFFFFFFFFFFFFFFFFFFFFFFFF02
:101EF000FFFFFFFFDFFF7DEFDBDEEB5A18C6FFFFC2
:101F0000FFFFFFFFFFFFFFFFFFFFFFFFFFFF38C6E1
:101F1000A2106D6B18C68A52E318518CFFFFFFFFA9
:101F20007DEF9EF7FFFF75AD9294518CA631694A03
:101F30006D6BD39C34A5D7BD1CE73CE79EF75DEFE6
:101F4000F7BD1084B294BAD675AD75ADD7BDFFFF9D
:101F5000FFFFFFFFFFFFFFFFFFFF3CE7FFFFFFFF6C
:101F6000FFFFFFFF04210000718CFFFFFFFF1CE754
:101F7000FBDE79CEFBDEFFFFFFFFFFFFDFFF5DEF44
:101F8000FFFF5DEFDFFFFFFFFFFFFFFFDFFF5DEF05
:101F9000FFFFFFFFFFFFFFFF7DEF518C518CD7BD8F
:101FA0003CE7FFFFFFFFFFFFFFFFFFFFFFFFFFFF1C
:101FB0004D6B00007DEFFFFFAA5282103CE7FFFF50
:101FC000FFFFFFFF1084000024212C63F39CFFFF20
:101FD000FFFFFFFF9EF7DBDE38C61CE75DEFDBDEB1
:101FE00014A514A55DEFFFFFFFFFFFFFBEF7FFFF86
:101FF0009EF7FBDEDBDEF7BD96B5D7BDDFFFFFFF4B
:10200000FFFFAE732000C7397DEFFFFF9AD679CE70
:102010007DEFDBDE7DEFFFFFBEF7FFFFFFFF9EF7EB
:10202000DFFFBEF7FFFFBEF7BAD67DEFFBDEBEF7E0
:102030005DEF9AD6DBDEFFFF3CE79AD618C68E73BB
:10204000EF7B3CE75DEFFFFFFFFFFFFFFFFFFFFFC1
:1020500010840000EF7BDFFF38C64108AE73FFFF3E
:10206000FFFFBEF708426D6B1CE7BEF79EF7DFFF70
:1020700038C696B575AD9AD65DEFFFFFFFFFFFFF3F
:102080009EF77DEFDFFFDFFF3CE79AD696B534A5DC
:10209000BAD659CE59CE59CE1CE77DEFFBDEFFFFF5
:1020A000FFFFEB5A0000694AFFFF9EF7AE7334A5AD
:1020B0005DEFBEF7FFFFBEF7BAD6BEF7FFFF9EF794
:1020C0005DEFFFFFFFFFFFFF3CE759CEDBDEFFFFC9
:1020D0005DEF38C655AD96B518C6EF7BB6B579CE6F
:1020E0008210D39CFFFFFFFFFFFFFFFFFFFFFFFFFB
:1020F00034A520000421CF7BFFFFC73900003084C6
:10210000DFFF3CE7D39CEB5AB6B538C6BAD6FFFF23
:10211000DFFFBEF7FFFFFFFFFFFF7DEF3CE73CE780
:10212000718CAE739AD6FBDEBAD6BAD67DEF9EF727
:10213000FFFFFFFFFFFFFFFFFFFFFFFFFFFFFFFFAF
:10214000FFFF494A200075ADFFFF3CE796B5FBDE77
:102150009EF77DEFDFFFFFFFFFFFFFFFFFFFFFFFAA
:10216000FFFFFFFF3CE77DEFFFFF5DEFFFFFFFFF9E
:10217000FFFF7DEF38C634A575ADD39CEB5A694A95
:10218000EB5AB6B53CE75DEFFFFF59CEFBDEFFFF34
:102190001CE7C739C318C739DBDEF39C00004108D0
:1021A000D7BDFFFF55AD8631F7BDFFFFFFFFFFFF36
:1021B000BEF73CE7BAD61CE71CE7FBDE59CEDBDEF8
:1021C00075AD79CEFFFFFFFFFFFFFFFFFFFFFFFFB2
:1021D000BEF73CE75DEF5DEF3CE75DEFFFFFFFFF24
:1021E000FFFF08428210FFFFFFFFFFFFFFFFFFFF1F
:1021F000FFFFFFFFFFFFFFFFFFFFFFFFDFFFDBDE54
:102200007DEFFFFF5DEF7DEFFFFFFFFF5DEFFFFF66
:10221000FFFFFFFFBEF7FFFF1CE7D7BDD39CCF7BBF
:10222000FBDEFFFFBAD68A52D7BD79CE1CE7FFFF8F
:10223000FFFF75AD41082000B294FFFF9294821019
:10224000D7BD7DEF6D6B0C633CE7FBDE1CE7FFFF4A
:10225000BEF73CE7DBDE3CE7BEF7FFFFFFFFFFFF1B
:10226000FFFF9EF7DFFFBEF71CE775ADD39C38C6B6
:102270003CE73CE71CE79AD65DEFF7BDFFFFFFFFA9
:10228000FFFF494A8210FFFFFFFFFFFFFFFFFFFF35
:10229000FFFFFFFFFFFFFFFFDFFFBEF7FFFF3CE792
:1022A00079CE9AD6FFFFFFFFFFFFFFFFBEF7FFFFCC
:1022B000FFFFFFFFFFFFFFFFFFFF5DEFFBDEFBDE2A
:1022C000BAD67DEFFFFFF7BDB6B5DFFFFFFFFFFF1B
:1022D000FFFFFFFFCB5A2000042118C69EF78E7324
:1022E000FFFFFFFF0C638631DBDE1CE77DEFFFFFA6
:1022F000FFFFFFFFFFFFFFFFFFFFFFFFFFFFBEF737
:10230000DBDE96B5BAD6FFFF9EF718C696B53CE75A
:10231000DFFFFFFF9EF734A5FFFFD39CFFFFFFFF0A
:102320005DEF8631A210FFFFFFFFDBDEDFFFFFFF67
:102330005DEF1CE77DEFFFFF7DEFDBDEDFFFFFFFE3
:102340001CE7F39C7DEFFFFFFFFFFFFFFFFFFFFF99
:10235000FFFFFFFFFFFFFFFFFFFFFFFFDFFFDFFFCD
:10236000FFFF3CE79EF7FFFF5DEF9EF7FFFFFFFFDC
:10237000FFFF9EF728424108E31859CEFFFF3CE7D4
:10238000FFFF5DEFEB5ACB5A5DEF7DEFBEF7FFFF2E
:10239000BEF77DEF59CEDBDEFFFFFFFFFFFFFFFF44
:1023A000FFFF1CE7BEF7FFFFFFFFFFFFFFFFFFFF81
:1023B000FFFFFFFF96B51084BEF7518CFFFFFFFFB4
:1023C00010840000E318FFFFFFFF5DEF5DEF5DEF9E
:1023D00055ADD39CFBDEFFFFFFFFFFFFFFFFFFFFBD
:1023E0009EF779CEBEF7FFFF9EF7BEF7FFFFFFFF18
:1023F0009EF7DFFFFFFF3CE71CE7FFFFFFFF75AD28
:10240000B294FFFF1CE71CE7FFFF9EF7DFFFFFFF13
:10241000FFFFF39C28420C6334A59EF7FFFFFFFFEC
:10242000FFFF9AD62421C739D7BDDBDE9AD6FFFF3E
:10243000BEF71CE7FBDE5DEFFFFFFFFFFFFF5DEF79
:10244000FBDEFFFFBEF7FFFFFFFFFFFFBAD679CE2F
:10245000FFFFDFFF8A52F39C3CE7CB5AFFFFFFFFF1
:1024600079CE65292842FFFFFFFFFFFF38C6518C58
:1024700018C65DEFFFFFFFFFFFFFFFFFFFFFFFFF3E
:10248000FFFFFFFFFFFFFFFF9EF7BEF7FFFFFFFF0E
:102490001CE79AD6F7BD6D6BEB5AB29418C679CE8D
:1024A000A6312842CB5A3084FFFFDBDEBEF7FFFFA8
:1024B000FFFFD7BD108414A5084238C6FFFFFFFFF9
:1024C000FFFFFFFFC318000055ADFFFFBEF7FFFF82
:1024D000FBDE5DEFFFFFFFFFFFFFFFFFFFFFF39C52
:1024E000EF7BDFFFF39C3CE7FFFFFFFFEF7BF39CFD
:1024F000FFFFDFFF18C6DFFFFFFF75ADFFFFFFFF28
:10250000FFFFAA52D7BDFFFFFFFFFFFF9EF7FBDED5
:10251000FFFFFFFFFFFFFFFFFFFFFFFFFFFFFFFFCB
:10252000FFFFDFFFFFFFFFFFFFFFFFFFFFFFDFFFFB
:10253000DFFFDBDE3CE7D7BD0C632C63518CFFFF74
:102540005DEFAE73A631494ABAD6FFFFFFFFFFFF2A
:10255000FFFF18C6308459CE610834A5FFFFFFFF86
:10256000FFFF9EF74529084296B5FFFFFFFFFFFFDB
:1025700075ADF7BDFFFF7DEF38C6BEF79EF74D6B1B
:10258000518C9EF7518C59CEFFFFDFFFAA5275ADDB
:10259000FFFF3CE77DEFDBDE5DEFFFFF3CE7FFFF8A
:1025A000FFFF694A79CEFFFFBEF7FFFFFFFFFFFF86
:1025B0001CE7F7BDDFFFFFFFFFFF1CE79EF7FFFFF4
:1025C000FFFFB6B57DEFFFFFDFFFDFFFDFFF3CE77B
:1025D000FFFFFFFFFFFFFFFFFFFFFFFFDFFFFFFF2B
:1025E000FFFFFFFF718C4529518C5DEFFFFFFFFF5F
:1025F000FFFFDBDE694AEF7BB294DBDEFFFFFFFF0C
:10260000FFFF10846108694A18C6FFFFDBDEFFFF89
:1026100014A555ADFFFF59CE8E735DEFFFFFF7BDDB
:1026200038C6DFFF1CE714A5FFFF38C62C6318C6A9
:10263000FFFFFFFF9AD6F7BD59CE7DEF694AFFFF36
:10264000BEF72C63FBDEFFFF1CE71CE7BEF718C6D6
:10265000652900002C633CE7FFFF18C6D39CFFFFF1
:10266000FFFFEF7B9AD6FFFF1CE77DEFFFFFFFFF29
:10267000FFFFFFFFFFFF1CE7D7BDBAD6FFFF7DEFCF
:10268000FFFFFFFFBEF79294D39C18C6DFFFFFFF4A
:10269000FFFF9AD6A2100842FFFFFFFFFFFFFFFFD8
:1026A000FFFF084200008A52FFFFFFFF9EF7DFFF97
:1026B000D39C9AD6FFFFFBDEB6B5FFFFFFFFFBDE24
:1026C000FFFFFFFFBEF7BAD6FFFF718CAA5279CE8B
:1026D000FFFFBEF738C634A51CE7DFFFE318FFFF96
:1026E0007DEF75AD18C6FFFF7DEFB29428428210D2
:1026F000000000000000CB5A718C4529D39CFFFFDD
:10270000FFFFEF7B2842FBDEBEF71CE7F7BD92948C
:102710000C63108414A58E73E31804218E736D6B03
:10272000284238C6FFFFFFFF9EF77DEFFFFFFFFF48
:10273000FFFF10842421D7BDFFFFFFFFFFFFFFFF36
:10274000FFFF34A58210518CFFFFFFFFFFFFDBDE90
:1027500018C69EF7FFFFBAD67DEFFFFF7DEF3084EE
:10276000518C79CE3CE710843CE775AD2000F39C9A
:10277000DFFFB6B534A518C659CE9AD6FBDE7DEF7D
:102780003CE714A5242134A5F7BD284200004108E8
:10279000863128422421494A45290000BAD6FFFF44
:1027A000FFFF7DEFB294494A10844D6B652900000C
:1027B000000000000000E3180000E739B6B5DBDEDA
:1027C000EF7BEB5ADBDEFFFFFFFFFFFFDFFF7DEF5D
:1027D00038C66529494A7DEFDBDECF7B79CEFFFF26
:1027E000FFFF4D6B200045292842C318A210610845
:1027F0008210EF7B4D6B6108C739694AA210000057
:102800000000200082100000610882100000C7391B
:10281000E739200020008210410820007DEF452983
:102820006D6BFBDE04218A52F7BDEF7B6D6B59CED9
:10283000FFFFFFFFFFFFF7BD6529E739BAD6FFFFAE
:10284000FFFFFFFFFFFFD39C2C632C638631694A97
:10285000494A2842E73920000000CF7B9EF7DFFF7E
:10286000FFFF7DEFB294FFFFFFFFFFFFFFFFFFFFC2
:1028700075ADE739E73996B5FBDE6D6B8A52FFFF20
:10288000FFFF0842000086316529A631E739E739A4
:102890000842494A2842084208420842E739284289
:1028A00028420842E7392842E7390842494A284283
:1028B000084208420842E7390842E7397DEFE73924
:1028C000AE73FFFF18C6BAD6FFFFFFFFFFFFFFFF83
:1028D000D7BD3084DBDE5DEF652934A5FFFFFFFF48
:1028E000FFFFFFFFFFFF59CE96B5FBDE38C6BEF7F0
:1028F000FFFFFFFFFFFF34A5EF7B96B51CE7D7BDB9
:1029000038C6DFFF0C63F39CFFFFFFFFFFFFFFFFF5
:1029100059CED39CA63134A5DFFF55ADCB5AAE734B
:10292000F7BD96B530847DEF7DEFFFFFFFFFFFFF22
:10293000FFFFFFFFFFFFFFFFFFFFFFFFFFFFFFFFA7
:10294000FFFFFFFFFFFFFFFFFFFFFFFFFFFFFFFF97
:10295000FFFFFFFFFFFFFFFFFFFFFFFFBEF70C635F
:10296000CF7BFFFF75AD2C63494A694AAA528A5250
:10297000C31800006529494A200096B5FFFFFFFFF4
:10298000FFFFFFFFFFFFDFFFF7BD308475ADFFFFE7
:10299000FFFFFFFFFFFFFFFFFFFFFFFFFFFF7DEFD9
:1029A0001CE7DFFF8E73000014A5FFFFFFFFFFFF92
:1029B000FFFF7DEFE318718C9AD6CF7B0C6300008C
:1029C0008E73FFFFFFFFFFFFFFFFFFFFFFFFFFFF14
:1029D000FFFFFFFFFFFFFFFFFFFFFFFFFFFFFFFF07
:1029E000FFFFFFFFFFFFDFFF75AD34A5DFFFFFFF38
:1029F000FFFFFFFFDFFF5DEF7DEFF7BDC318E73996
:102A00001CE7FFFF75ADC3186108AE7318C6B6B5F5
:102A1000F7BD18C679CE518C000055ADFFFFFFFF02
:102A2000FFFFFFFFFFFF5DEF4D6B042192942C63CE
:102A3000A210C318A210A210A21014A5FBDE9EF7CC
:102A4000FFFFFFFFBAD60000694AFFFFFFFFFFFF4D
:102A5000FFFFDFFFA2104D6B79CEAA52A631821084
:102A6000718CFFFFDFFF3CE7FFFFBEF73CE7FFFF96
:102A7000FFFFFFFFFFFFDFFFDFFFDFFFBEF7FFFF0F
:102A8000FFFFFFFFFFFF1CE7CB5AD39CFFFFDBDEFE
:102A9000CF7BDBDEFFFFDBDE96B5AE73821000007E
:102AA000B294FFFFFFFFBEF7DFFFFFFF79CE2C637D
:102AB0000C63AE7396B5518C821075ADFFFFFFFFAE
:102AC000FFFFFFFFFFFF1CE7CB5AF39C3CE7694A7F
:102AD0000842CB5A494A0842863100000000C739F3
:102AE00018C6BEF75DEF8A529294FFFFFFFFFFFF0B
:102AF000FFFF3CE761088631D7BD45294108EF7BE0
:102B0000B6B5FFFFFFFFFFFFFFFF1CE7AA5255AD61
:102B10007DEFFFFFFFFF9EF77DEF5DEFDBDED7BDB3
:102B2000D7BDB6B5F7BD5DEF7DEFFFFF9EF7F7BDF3
:102B3000494A38C6FFFFFFFFDFFFBEF7EB5A4108E7
:102B4000B294FFFFD39C75ADFFFFFFFF1CE796B566
:102B500075AD38C6EB5A000086313CE7FFFFFFFF3A
:102B6000FFFFFFFFDFFFBAD6EF7B18C6FFFFFFFFB7
:102B7000FFFFFFFFFFFFFFFFDFFF9294AA5200005D
:102B8000200079CEFFFFBEF7BEF7FFFFDFFF5DEF4E
:102B9000FFFFFFFFE318000055AD494A6108FFFF42
:102BA000FFFF718C5DEFFFFFFFFFFFFF18C696B5BB
:102BB0005DEFFFFFFFFFFFFFFFFFFFFFFFFFCF7B8B
:102BC0008A528631694A9AD6BEF7FFFF7DEFFFFF32
:102BD000FFFFFFFFFFFFFFFFFFFFFFFFA210084205
:102BE0007DEFFFFF518C9AD6FFFFFFFFFFFFFFFF36
:102BF000FFFFFFFF34A5242114A5FFFFFFFFFFFF08
:102C0000FFFFFFFFDFFF79CEF7BD59CEF39CB6B5CE
:102C10005DEFDFFFDFFFFFFFFFFFFFFFDFFFAE73B3
:102C20000000452908424529E7394D6B5DEF9EF7C5
:102C3000FFFFFFFFE3180000F39C8A52E318FFFF39
:102C4000FFFF96B5E7390C635DEF9EF73CE7FFFFAA
:102C5000FFFFBEF76D6B18C6DFFFDFFFFFFFDFFF73
:102C60009EF71CE75DEFBEF7FFFFFFFFFFFFFFFFD3
:102C7000D39C494A38C6BEF7FFFFFFFF00008A52C7
:102C8000FFFFFFFFFFFFFFFFFFFFFFFFFFFFBEF79D
:102C90001CE738C659CE79CEDFFFFFFFFFFFDFFF0D
:102CA000FFFFFFFFDBDE96B59AD6DFFF14A58E731C
:102CB000F39CB6B5AA524D6B79CEFFFFFFFF34A54A
:102CC0008631C318A21000004D6BFBDEFFFFFFFF33
:102CD000FFFFFFFF494A0000518C38C634A5DBDEF8
:102CE000FBDE3084E318E31828422842A631452948
:102CF0008210610800000000610861086108694AEB
:102D0000FBDE3CE779CE694A34A5DBDEEB5AC739F6
:102D10002421A210C739EF7BFFFFFFFF0000694AA3
:102D2000FFFFFFFFFFFFFFFFFFFFFFFFDFFFFBDEF8
:102D3000FBDE18C6DBDEFFFFFFFFBEF7DFFF1CE791
:102D4000BEF7FFFF18C614A57DEFFFFF5DEF3CE760
:102D5000FFFFFFFFB2940842A63118C6FFFFFFFF36
:102D6000FFFFFFFFFFFF34A5F39CBAD6BEF7FFFFBE
:102D7000FFFFFFFFD39C000008429294CB5ACF7B09
:102D8000FFFFFFFFFFFFFFFFDFFFFFFFDBDEF39C27
:102D9000AA52494A8A52494A494A494A494AE7395C
:102DA0000000000000000000000000000000000023
:102DB000B6B5FFFFFFFFFFFFBAD675AD0000694A49
:102DC000FFFFFFFFFFFFFFFFFFFFFFFFFFFFFFFF13
:102DD000FFFFFFFFFFFFFFFFFFFFBAD61CE7BEF7B5
:102DE0009EF7FFFF1CE7FBDEFFFFFFFF7DEFDFFF2E
:102DF0001CE73CE7FFFFFFFFF7BD9AD6DFFF7DEF43
:102E000034A555ADFFFFFFFFFFFFF7BD9EF7FFFFA6
:102E1000FFFFFFFFBAD62000E73955AD3CE7BEF70C
:102E200079CE3CE7FFFFFFFFFBDE3084BEF7FFFFFC
:102E3000FFFFFFFFFFFFFFFFFFFFFFFFFFFFFFFFA2
:102E4000D39C1084108430841084108410840C630C
:102E500028428E738E739AD6EF7B0000518C8A5273
:102E6000FFFFFFFFFFFFFFFFFFFFFFFFFFFFFFFF72
:102E70001CE7EB5A718CFFFFFFFFBEF77DEFFFFFF2
:102E8000FFFFFFFFFFFFFFFFFFFFFFFFFFFFDFFF72
:102E90005DEF9AD6DBDEFFFFFFFFFFFFFFFF9EF730
:102EA00018C62842284214A5FBDEDFFFFFFFFFFF04
:102EB000FFFFFFFF3CE7C739F7BDFFFFFFFFFFFF45
:102EC000FBDE0C630C638E736D6B2000EF7B3CE7C5
:102ED0009EF7FFFFDFFF7DEF7DEF4D6B8A52DFFF37
:102EE000FFFFFFFFFFFFFFFFFFFFFFFFFFFFFFFFF2
:102EF000B6B575AD14A51CE7518C00003CE7718C8C
:102F0000FFFFFFFFFFFFFFFFFFFFFFFFFFFFBEF71A
:102F1000EB5A000055ADFFFFFFFFFFFFFFFFFFFF74
:102F2000FFFFFFFFFFFF5DEFB6B555ADDBDEFFFF37
:102F3000FFFFDFFFBEF7FFFFFFFFFFFFFFFFFFFF0A
:102F4000FFFF3CE76D6B30849AD6DBDEDFFF9EF738
:102F5000FFFFFFFFFBDE6108C73918C6FFFFFFFF59
:102F60009EF79EF75DEF7DEF9EF7518C9AD69AD62D
:102F7000CB5A79CE75ADE739B294E7390000EF7BD3
:102F8000DBDEFFFFFFFFFFFFFFFFFFFFFFFFFFFF96
:102F9000FFFF3CE7FFFFFFFF4D6B00007DEFFFFFF2
:102FA000FFFFFFFFFFFFFFFFFFFFFFFF7DEFEB5A7C
:102FB00000006D6BDFFFFFFFFFFFFFFFFFFFFFFF65
:102FC000FFFFFFFFFFFF18C6EB5A6108A2109AD659
:102FD000FFFFFFFFFFFFFFFFFFFFFFFFFFFFFFFF01
:102FE000FFFFFFFFFFFF9EF73CE7DFFFFFFFF7BD9F
:102FF00075ADFFFFFBDE000000000C63BEF7EB5A6F
:10300000A631F39C75AD96B518C6DBDEFFFFFFFF5A
:10301000FFFFDFFFDBDE1CE7FFFFB6B5D39CBAD6B0
:1030200075ADD7BD7DEFFFFFFFFFFFFF5DEF34A55F
:10303000EB5A0000DBDE1084000000005DEFFFFFB4
:103040009EF7BEF77DEFFFFFFFFF9EF7518C00005C
:1030500028427DEFFFFFFFFFFFFFFFFFFFFFFFFFA6
:10306000FFFFFFFFFFFFFFFFFFFF30840000494A23
:10307000FFFFFFFFFFFFFFFFFFFFFFFFFFFFFFFF60
:10308000FFFFFFFFFFFFFFFF18C6BAD6FFFFF7BD28
:10309000CB5ADBDEBEF72C63000055AD9EF78E7376
:1030A0003084AE730000000000002421EB5A6D6BE9
:1030B0008E73518CFFFFFFFFFFFFFFFFFFFFFFFF3E
:1030C000FFFF96B59EF77DEF9AD614A5EF7B718C26
:1030D0008A52C318F7BD00002842518CFFFFFFFF42
:1030E00079CE18C6BAD6FFFFFFFF14A541084108E4
:1030F00014A5FFFF14A5DBDEFFFFFFFFFFFFFFFFAF
:10310000FFFFFFFFFFFFFFFFFFFFBEF78210410839
:1031100018C6FFFFFFFFFFFFFFFFFFFFFFFFFFFFDF
:10312000FFFFFFFFFFFFFFFF9AD638C6FFFFD39CCC
:10313000C7399AD6FFFF75AD0000B6B5FFFFEF7B2C
:1031400014A5FFFF18C6B6B555ADF39CF39C6529D1
:103150000000410828422842A631C739694A308414
:103160009EF7FFFFDFFF7DEF9EF7BAD6FBDEFFFF86
:10317000F39CF39CBEF78E731084FFFFFFFFDFFF0D
:1031800038C65DEFDFFFFFFF1CE7452965291CE717
:10319000BEF775AD0000C7393CE7FFFFDFFF1CE756
:1031A000518CEB5ABAD6FFFFFFFFFFFFC318200078
:1031B00065291CE7FFFFFFFFFFFFFFFF7DEFBAD68A
:1031C000FFFFFFFFDFFF3CE7FFFFF7BD9AD6EB5A9B
:1031D0001084FFFF3CE7C73908421CE7FFFF1CE7EC
:1031E000FBDEDFFF5DEF79CE518CAA527DEF79CE09
:1031F00075ADF7BDDBDE55AD86318631652986318B
:10320000242120002000863118C6FBDEDBDE9AD6A2
:1032100059CEFFFFFFFFCB5AAE73FFFFFFFFDFFF6B
:1032200038C6DBDEFFFFDFFF2C63EB5A9EF7FFFFA4
:10323000FFFFB6B524210000718CB6B5D7BDEF7B7A
:1032400020000000452955AD18C634A5EF7B108439
:10325000000055ADFFFFFFFFFFFF9EF718C6D39C90
:103260009AD6FFFFFFFFFFFFFFFFBAD675AD518C67
:10327000BEF7FFFF718C5DEF5DEF9EF71CE7FFFF70
:103280009EF79EF7FFFFFFFFFFFFDFFF9EF734A5CE
:10329000CF7B14A57DEFB6B59294929418C6FFFF2C
:1032A000B6B52C632C63CB5A6529000000000000E2
:1032B00000006D6BB2940000518CFFFFFFFFFFFF19
:1032C000DBDED7BD96B5EF7B8E73BEF7FFFFFFFF4A
:1032D000FFFFFFFFBAD6929455ADAE73718CAE73FB
:1032E000C7390842000000000421F39CFFFF9EF74D
:1032F00065296529FBDEFFFFFFFF7DEFFBDE96B54D
:10330000D7BD9EF7FFFFFFFFFFFFFFFFD7BD9294E2
:10331000FFFFDBDE8631FFFF9EF7B29475ADFFFF46
:10332000FFFFFFFFFFFFBEF77DEFFFFFFFFFFFFF88
:10333000FFFFFFFF3CE714A5EF7BEF7BB6B5BEF7C1
:10334000D39CCF7B10845DEF1CE79294B29492944F
:10335000929408420000000065292C63FFFFFFFFE4
:103360005DEF59CEEF7B452996B5FFFFFFFFFFFFCD
:10337000FFFFFFFFFFFFFFFFBEF738C692944D6BC4
:1033800034A51CE7B2940C63D7BDFFFFFFFFFFFF1E
:103390009AD6E739518C3CE7FFFFFFFFFFFF79CE5C
:1033A00059CEDBDEBEF7BAD65DEFFFFF3CE779CE44
:1033B000FFFF9EF7308434A5FBDE9AD69EF7BEF75A
:1033C000BAD6BAD6FBDEDFFFBEF73CE7DFFFFFFF72
:1033D000FFFFFFFFFFFFFFFFFFFFFFFFFFFFFFFFFD
:1033E00018C655AD55AD718CEB5A6D6BF39CFFFF54
:1033F000FFFF5DEFD39C0842D7BD55ADFFFFFFFF38
:103400003CE779CEF7BD518C5DEFFFFFDFFFFFFF9B
:10341000FFFFFFFFFFFFFFFFBEF7DBDEB6B5D39C6C
:10342000DBDEFFFFFFFF1CE7FFFFFFFFFFFFFFFFEC
:10343000FFFF518CEB5AFBDEFFFFFFFFFFFF18C6BB
:1034400075AD59CE9EF79AD65DEFFFFFFFFFFFFFE8
:103450009EF7FFFFBEF7D7BD14A53CE7FFFFFFFFB8
:103460005DEF9AD618C638C6DFFFDFFFBEF7FFFF55
:10347000FFFFFFFFFFFFFFFFDFFFDFFFDFFF7DEF4E
:10348000FFFFFFFFFFFF9EF7DBDE18C60842694A19
:103490008A529AD65DEF08427DEFFFFFFFFFFFFFE4
:1034A0003CE759CEBEF77DEFFFFFBEF7718CDBDE48
:1034B000FFFFFFFFFFFFFFFFFBDE38C63CE7FFFF1C
:1034C000FFFFFFFFFFFFFFFFFFFFFFFFFFFFFFFF0C
:1034D000FFFFFFFFD39C18C67DEFDBDEFBDE79CE5E
:1034E000D7BD18C6DFFFFFFFFFFFFFFFFFFF7DEF28
:1034F00079CEDFFFFFFF14A5042179CEFFFFDFFFA8
:103500007DEFFFFFDBDE75ADBEF7FFFF5DEFFFFF79
:10351000FFFF1CE71CE79EF77DEFBEF7BEF79AD6CC
:103520009EF7BEF7FFFFFFFFFFFFFFFFFFFFFFFF5D
:10353000FFFFFFFFDBDE0421B6B5BEF73CE7FFFF70
:103540003CE738C6DFFFFFFFBEF714A54108EB5A82
:10355000FFFFFFFFFFFFFFFF34A5D39C1CE759CE01
:103560009EF7FFFFFFFFFFFFFFFFFFFFFFFFFFFFD4
:10357000FFFFFFFF5DEFB6B5DBDEBAD61CE71CE749
:1035800059CE79CEDFFFFFFFFFFFFFFFFFFFBEF742
:10359000BEF79EF7FFFFFBDEF7BDFFFFFFFF9EF7C5
:1035A00075AD1CE79EF7FFFF9EF7BEF7FFFFFBDE42
:1035B0009EF7FBDE38C67DEFFFFFFFFFFFFFFFFF3B
:1035C0009EF7BEF7FFFFFFFFFFFFFFFFFFFF1CE7B8
:1035D00079CEFFFF34A50421D7BDFFFF9EF7FFFF83
:1035E0003CE73CE7FFFFFFFF5DEFCF7B4529821003
:1035F000718C9EF7BEF7FFFFBEF77DEF9EF73CE7AD
:10360000DFFFFFFFFFFFFFFFFFFFFFFFFFFFFFFFEA
:10361000FFFFFFFFFFFF79CE3CE7FFFFFFFFFFFF4C
:103620001CE759CEFBDEFFFFFFFFFFFFFFFFFFFFA1
:10363000FFFFAE7375AD084234A5FFFFFFFFFFFF2C
:10364000BAD63CE7BEF7FFFF9AD638C6DBDEDBDE34
:1036500079CE3CE7DFFFFFFF1CE75DEFFFFFDFFFF9
:10366000DFFFDFFFF7BDEF7BEF7B518C3084CB5A60
:10367000F39CFFFF59CE694A79CEFFFFFFFFFFFFA2
:10368000DBDE3CE7FFFFFFFF7DEFB6B59EF796B5AB
:103690008210410859CE1CE7BAD67DEFFFFFFFFF2D
:1036A000DFFFFFFFFFFFFFFFFFFFFFFFFFFFFFFF4A
:1036B0009EF7FFFFFFFF7DEF3CE75DEF9AD6FBDE55
:1036C0003CE738C659CEFFFFFFFFFFFFFFFFFFFFBC
:1036D000FFFF494A41080000AE73FFFFFFFFBEF73E
:1036E000FFFFFFFFFFFFFFFFFFFFDFFFDFFFFFFF2A
:1036F00059CEDBDEFFFFDFFF34A575ADFFFF59CEEE
:10370000B6B5BAD62C630C63CF7B96B518C696B502
:103710007DEFFFFFFFFFDFFFFFFFFFFFFFFFFFFF6B
:10372000BAD6F39C3CE7FFFFFFFFFFFFFFFFFFFF61
:1037300096B54529B6B57DEFB294D7BDEF7BB2946F
:10374000B6B58E733084D39C75AD9EF779CEF39C5D
:1037500034A57DEFDFFF9AD61CE7FFFFDFFFDBDE3E
:1037600038C638C655ADFFFFFFFFFFFFBEF7FFFFAE
:10377000FFFF694A00000000CF7BFFFFFFFF3CE72F
:10378000F7BD9AD6DFFF79CEDBDE7DEFDFFFBEF738
:103790009EF79EF77DEFFFFF7DEF1CE7FFFF3CE705
:1037A000DBDEFFFFFFFFFFFFFFFFFFFFFFFFDFFF8E
:1037B0009EF7FFFFFFFFFFFFFFFFFFFFFFFFFFFF82
:1037C000DFFF3084F7BDDFFFFBDEDFFFFFFFFFFF22
:1037D000FFFFFBDE1084EB5A96B5BEF7694AB6B51B
:1037E000FBDEB294518CEB5A0000494AC31800002A
:1037F0004108CF7BAE739294BEF7FFFFFFFFFFFF40
:103800005DEF9AD618C6FFFFFFFFFFFF55ADDFFF44
:10381000FFFF8A52000000009294D7BD7DEFFFFFAA
:10382000F7BDB6B5BEF779CEFBDE9EF79EF779CE33
:103830009EF7FFFF5DEF7DEFFFFF7DEFDFFFFFFFF7
:10384000FFFFFFFF7DEFFFFFFFFF5DEFFFFFDFFFEC
:103850007DEFFFFF1CE7518CDFFF7DEFEB5A9EF7FA
:10386000FFFF59CE30849AD675ADDBDEFFFFFFFF38
:10387000FFFFFFFF7DEF10842421694AE7392C63A5
:10388000AE732C6334A5CB5A04218210042138C6B0
:10389000D7BD4D6B8A5259CEFFFFFFFFDFFFDFFF21
:1038A000FFFF9EF7F7BDDFFFFFFFDBDEEF7BDFFFF4
:1038B000BEF7494A000008427DEF494AC739FFFF79
:1038C000FFFFFFFFBEF71CE73CE77DEF7DEF79CE02
:1038D00092947DEF9EF796B5BEF71CE759CEFFFF99
:1038E000DFFFBAD6BAD69AD69EF7BAD6D7BDBEF7FC
:1038F000DFFF7DEF38C6CB5AEF7B8A5279CEF7BD1A
:10390000FFFFFFFF4D6BD39CD7BDF7BD9EF7FFFFB9
:10391000FFFFFFFFFFFFFFFF5DEF1CE71CE7B29417
:10392000CF7BCF7BF7BDBAD69EF77DEF9EF7FFFF2B
:10393000FFFFDBDE718CDFFFFFFFFFFF1CE79AD686
:103940009AD6BEF71CE7FFFFFFFF929414A5FFFF76
:10395000518C2000410838C6FFFF28422000BEF7E6
:10396000FFFFFFFF5DEF9EF7718C694A79CEFBDEAA
:1039700059CEFFFF7DEFEF7B38C679CE38C6FFFF0B
:10398000FBDE518C34A5718CF7BDBEF7AE7396B5D6
:103990007DEF5DEFFFFFDFFF7DEF79CEFFFFDFFF04
:1039A0009EF7FFFF18C6A63179CEDBDE1CE7FFFFCE
:1039B000FFFFFFFFFFFFFFFFFFFFFFFFFFFFFFFF17
:1039C000FFFFFFFFFFFFFFFFFFFFFFFFFFFFFFFF07
:1039D000FFFFFFFF38C6DFFFFFFFFFFFFFFF9EF780
:1039E0007DEFFFFFFFFFFFFFDBDEAA521CE7FFFFBB
:1039F00030840000C739FFFF3CE76529000059CE3D
:103A0000FFFFBEF7DFFF5DEF1CE759CE38C69AD641
:103A10001CE7FFFF9EF779CEFFFF55ADAA52DBDE14
:103A2000FFFF7DEFFFFF9EF7DBDEFFFF518C2C6376
:103A3000BAD659CEFBDEDBDEFFFFFFFFFFFFFFFF45
:103A4000FBDEBEF79EF7CB5A718C1CE71CE7FFFF2D
:103A50009EF738C61CE77DEF55AD79CE1CE7BAD688
:103A6000FFFF5DEFDFFFFFFFFFFFFFFFFFFFFFFF38
:103A7000FFFF3CE7BAD6FFFFFFFFFFFFFFFFFFFF9F
:103A80009EF79EF7FFFF3CE7694A518CFFFF9AD6ED
:103A900086310000B6B5FFFF34A50000242179CEA1
:103AA000FFFF18C659CEDBDEFFFFFFFFFFFFFFFF62
:103AB000FFFFFFFFDFFF18C6F7BDF7BD8E7338C6E7
:103AC000FFFF7DEFFFFF7DEF38C6BEF79EF714A521
:103AD0009294DBDE3CE79AD634A5EB5A2C63DFFFE9
:103AE000BAD6F39CFFFF59CE452955ADBEF7FFFF6F
:103AF0003CE7D7BD79CEB294494A6D6B4D6B3084AB
:103B00003CE7BEF7FFFF7DEFFBDEFFFFFFFFFFFFA0
:103B1000FFFF18C696B5FFFFFFFFFFFFDFFFFFFFA8
:103B2000BEF7DFFFFFFFD7BD9294FFFF3CE7C73929
:103B3000000024219EF7FFFF9294A21061082C63DD
:103B4000DFFF7DEFDBDE14A5FFFFD7BD084214A524
:103B5000FFFF1084AA5275AD9AD6FBDE1CE738C66B
:103B6000AA528E736D6BFFFF96B5AE731CE79EF77E
:103B7000EF7BB294BEF7FFFFFBDED7BD694AB2947C
:103B8000DFFF55ADFBDEFFFFAA52AA52DFFFFFFFAA
:103B9000FFFF3CE7BEF71CE7B6B508424108AA5252
:103BA00034A579CE18C696B5F7BDBEF7BEF79EF719
:103BB000FBDEBEF7DFFFFFFFFFFFDBDE79CEFFFF9F
:103BC000FFFFFFFF59CE75ADFFFFFBDEE7390000B9
:103BD000E318F7BDFFFF9AD6694A28424529042118
:103BE000FBDEFFFFFFFF9EF7FBDEDBDE96B5CB5A69
:103BF00096B5694AEB5AB2947DEFFFFFFFFFF7BD20
:103C00008631B294518CDFFFBEF78E730421B294DB
:103C10001CE7D7BDF7BDDFFFFFFFFFFF9AD6CF7BC5
:103C2000FFFFFFFFF39CFFFF59CE8210DBDEFFFF9B
:103C3000FFFFFFFFDFFF59CEDBDEE7390000E7398A
:103C4000B6B5B6B5929475AD3CE7FFFF5DEF9AD679
:103C500096B59EF7FFFFFFFFFFFF5DEF1CE7FFFF3D
:103C6000FFFF5DEF14A5FFFF9AD604210000652930
:103C700038C6FFFFFFFFF39CEB5A34A58A52284257
:103C8000BEF7FFFFFFFFFFFF2C63518CFFFF96B5D0
:103C9000F39C9AD67DEFD7BDBEF7FFFFFFFF1CE771
:103CA000DFFFFFFFFFFFFFFFFFFFFFFF55AD96B5F3
:103CB000DFFF5DEFFFFF1CE7BAD6FFFFBAD6308407
:103CC0009EF7FFFFB6B51CE7FFFFF7BD518CDFFF86
:103CD000FFFFFFFFFFFF7DEF9EF738C6518CD7BD7A
:103CE0003CE77DEF59CE5DEFBEF7FFFFDFFF59CE1A
:103CF000FBDEDFFFFFFFFFFFFFFFFFFFFFFFFFFF19
:103D00007DEF59CEDFFF9AD624214108E318DBDE90
:103D1000FFFFFFFFBAD68E732C63AE73652979CE91
:103D2000FFFFFFFF7DEF75ADF7BDBAD6FFFFFFFFC9
:103D3000FFFFFFFFFFFFFFFFFFFFFFFF3CE7FFFF6E
:103D4000FFFFFFFFFFFF18C6D7BD79CEBEF75DEFBF
:103D5000DFFF3CE73CE79EF77DEFFFFFFFFFFBDE69
:103D6000308479CE9EF7B2943CE7FFFFCF7B79CECB
:103D7000FFFFFFFFFFFFFFFFFFFFFFFFFFFFFFFF53
:103D8000FFFFFFFFFFFFFFFFFFFFFFFFFFFFDFFF63
:103D9000FFFFFFFFFFFFFFFFFFFFFFFFFFFF7DEFC5
:103DA0005DEFFFFF9AD6A2106108EF7BBAD6FFFF46
:103DB000FFFFFFFF518C494A6108C318A631B29436
:103DC000FFFFFFFFDFFF9AD69EF7FFFFBEF73CE73E
:103DD00059CE3CE71CE755AD518C34A56D6BEB5AC1
:103DE000EB5A9AD6FFFF75ADEB5A14A5F7BD1CE749
:103DF000BEF7FFFF0C63CF7BBEF77DEFDBDEFFFF7F
:103E0000F7BD0C63FFFF9AD6B6B5FFFF9AD6F7BD94
:103E1000FFFFFFFFFFFFFFFFFFFFFFFFFFFFFFFFB2
:103E2000FFFFFFFFFFFFFFFFFFFFFFFFFFFFFFFFA2
:103E3000FFFFBEF7FFFFFFFFFFFF5DEF18C6FBDED2
:103E40007DEFF7BD24210000E7390C637DEF5DEFC6
:103E5000B6B579CE55AD4529821059CEDBDE242189
:103E6000B2943CE7DFFFFFFF79CE5DEFDBDE518CE4
:103E700018C6FFFFDFFFBEF71CE77DEF7DEFDBDE3F
:103E8000518C59CEDFFF3CE759CE59CEDFFF1CE7FE
:103E9000B29455AD96B5EF7B38C6CF7BA21079CEE4
:103EA000FFFFAE73AE73BAD69EF7FFFF7DEFD7BDAF
:103EB000FFFFFFFFFFFFFFFFFFFFFFFFFFFFFFFF12
:103EC000FFFFFFFFFFFFFFFFFFFFFFFFFFFFFFFF02
:103ED000FFFFFBDE1CE7B6B5B6B514A5CF7BD39CC0
:103EE0004D6B0000718CB29479CEFFFFFFFFDBDEDB
:103EF0000C63B6B5CF7B8210F7BDFBDE2C6382105E
:103F000010843CE7EF7BB6B5BAD67DEFFFFFFFFF2D
:103F1000FFFFFFFFFFFF79CEB2945DEFFFFFFBDEF7
:103F2000F39CF39CBEF7D39C96B5FFFFFFFF59CEE1
:103F3000518C4D6BDFFF9EF714A514A5518CB294E4
:103F4000FFFFBAD6694AFBDEFFFFFFFF9AD6610882
:103F500055ADFFFFFFFFFFFFFFFFFFFFFFFFFFFF6D
:103F6000FFFFFFFFFFFFFFFFFFFFFFFFFFFF1CE75C
:103F7000AE73CF7B3084308430848E7330848E7304
:103F8000410828425DEF59CEDFFFFFFFBEF7B6B50F
:103F90001CE734A5A63118C6FFFFCB5A000018C68F
:103FA000FFFF7DEF0C63A210F7BDFFFF7DEF929442
:103FB0005DEFDFFFFFFF18C64529518CDFFF1CE7CF
:103FC000694A0000B29459CE718CEB5A0C6379CED9
:103FD000DBDEBEF792949AD6B6B57DEF9EF714A5B8
:103FE000B6B5FFFFEF7B59CEFFFFFFFF3084000027
:103FF0002421BAD6FFFFFFFFFFFFFFFFFFFFFFFFF8
:10400000FFFFFFFFFFFFFFFFFFFF3CE79294084227
:10401000E7390C6392946D6B2C63CB5AF7BD7DEF3F
:10402000BAD67DEF18C63CE7FFFF7DEF10846D6BBD
:10403000B6B5B2949AD6FFFFD7BD00002421FFFF8A
:10404000FFFF3CE73CE755AD0C63652996B5EB5A9D
:104050000842AE73BEF7FFFF14A5D7BDFFFFFFFFF9
:104060003CE7EB5A4D6B1CE7BEF755ADC3188631E4
:1040700038C6DFFFBAD69EF796B5084255AD75AD86
:10408000B2949EF7FBDEF39CFFFFFFFF8A52000015
:104090000000A6313CE77DEF75AD79CEBEF7FFFF9E
:1040A000FFFF3CE7D7BDB6B5B2940421C318694AF7
:1040B000EB5AEB5ACF7BB294CF7B8E73BAD6FFFF0D
:1040C000FFFFFFFFFFFFFFFFBEF734A5B29475AD02
:1040D000F39CDFFFFFFF9EF7AA52242138C6FFFFA3
:1040E000FFFFBEF7FFFFFFFFFFFF518CAE739EF790
:1040F000BEF7DBDEBEF7FFFFFFFFFFFF1CE759CE79
:10410000FFFFFFFFAE73E31896B5FFFF3CE7CB5A06
:10411000AE733CE7FFFF1CE71CE779CEFFFFFFFF14
:10412000B29496B5FFFFFFFFFFFFFFFFE31800000B
:1041300024216108BAD61CE7C7396108694AEF7BB8
:10414000AE738631000000006108694A1084D39C78
:10415000929455AD3CE71CE7F39CFBDEFFFFFFFFAD
:104160009EF79EF77DEFF7BD7DEF79CEBEF73CE77A
:10417000BAD6BEF77DEF7DEFAE73B6B5FFFF9EF703
:10418000DFFF8E73EF7BFFFFFBDE7DEFFFFF59CE7E
:10419000BAD6FFFF5DEF0C63D7BDFFFFD7BD8A52D4
:1041A000FFFF34A51CE755ADBAD659CEBEF7FFFFC9
:1041B00038C69AD6FFFFDFFF9EF7FFFFFFFFFFFF26
:1041C000FBDE3CE7FFFFDFFFFFFFD7BDE31800008A
:1041D0006D6B86318E73FFFF5DEFEB5A8631863152
:1041E00065298A526D6B518C34A5F7BDF7BD79CE28
:1041F000BEF7FFFFFFFF9AD675ADFFFFBEF779CE82
:10420000FFFFFFFFFBDEAE7359CE718C75AD7DEF06
:104210007DEFBAD60C63DFFF5DEF9EF7FBDEDBDEE2
:10422000FFFFC739494AFFFF9294B6B5FFFF38C672
:10423000C739EB5A5DEF14A559CED7BDFBDE9AD630
:10424000FFFFB6B5BAD6FFFFFFFFDBDE9EF7BEF776
:10425000FFFFFFFFFFFF59CEEB5A518C9EF73CE763
:104260003CE710842842AE735DEFAE73494AA2105A
:10427000CB5AE318A210FFFFFFFFF7BDD7BD59CE01
:1042800018C679CE9AD6FBDEBAD6BAD6BEF7FFFFED
:10429000FFFF75AD308430848E73FBDEFFFF0C634F
:1042A0001084FFFFDBDE8A5234A5F7BDF7BD3CE783
:1042B0007DEFCB5A86317DEFBEF7FFFF9AD6BEF772
:1042C000DFFF494A75ADFFFFFBDE9AD68A52AA523C
:1042D000A63165299AD6FFFFFFFF3CE7929438C6C6
:1042E0009EF7FFFFBEF77DEF5DEFFBDE518CCB5AF3
:1042F000A63175AD7DEFFFFF96B5C739C739A63139
:10430000CB5A8E731084DBDEBEF71084DBDE929412
:10431000494AC318C318FFFFFFFFB6B514A518C656
:1043200079CED7BD79CE9EF75DEFFFFFFFFFFFFF90
:10433000FFFF9EF7FFFFFFFFFFFFFFFFFFFF108460
:104340009294FFFF718C34A57DEF79CE3CE7DFFFBF
:10435000EF7B00009AD6BEF7FFFF3CE7FBDEFFFFD6
:1043600096B58210DBDEFFFF9AD628420842108401
:10437000F7BD9EF7A63186311CE7FFFFB6B5518C1D
:104380006D6BDBDEFBDE2421EB5ACF7B55AD9EF758
:10439000F39CA210242196B55DEFBEF76529D39C4E
:1043A000FBDEBAD69EF7FFFF5DEFF7BDFFFF59CEEC
:1043B0002842C318E318FFFFFFFFFBDEB294F7BDEE
:1043C0007DEFBAD63CE7FFFFFFFFFFFFFFFF9EF741
:1043D000DFFF55ADD7BD18C63084108455AD75AD1F
:1043E0007DEFB6B53084FBDE1CE779CE9EF7BEF7D5
:1043F000EB5A8E73BEF73CE7FFFFFFFFFFFFFFFFA7
:10440000518C2000BAD6FFFFCF7B00005DEFFFFF8D
:1044100038C6AA520000A2100842FBDEFFFFB29489
:10442000494AD7BDDFFFCF7BAE73518C75ADFFFF1F
:10443000DFFFF7BD4D6B2000B294FFFFEF7B3CE741
:10444000B6B575AD79CEFFFF1CE759CEFFFFF7BDBE
:104450002842C318A2101CE7FFFFFFFFBEF7BEF7FC
:10446000FFFFFFFFFFFFFFFFFFFFFFFF1CE7E73935
:10447000E73900006108A21000000000042159CEB5
:10448000D39CC739B29418C6D7BD96B596B5DFFF91
:104490001CE7DFFF9EF738C67DEF7DEF3CE7FFFFAF
:1044A000CF7B41088E73FFFFEF7B41081CE7FFFFC6
:1044B0003CE714A555AD59CE96B52C6338C6FFFF21
:1044C0007DEF5DEFFFFFFFFFFFFF38C604212C6388
:1044D000084279CEFFFF38C6FBDEDFFFFFFFFFFF9C
:1044E000FFFFFFFFFFFFDFFFFFFFBFFF5DF71CEFD9
:1044F0001CE73CEF3CEF3CEF5BEFFEFFFFFFFFFFF5
:10450000FFFFFFFFFFFFFFFFFFFFFFFFFFFFFFFFBB
:10451000FFFFFFFFDFFF3CE71CE73CEF1CE71BE76B
:104520001BE79AD658CEFADEFFFFFFFFFFFFFFFF23
:10453000FFFFFFFFFFFFFFFFFFFFFFFFFFFFFFFF8B
:10454000DFFFFBE63CEF1CEFFBE6DADEB9D678CE08
:1045500017C658C6DEFFFFFFFFFFFFFFFFFFFFFF8D
:10456000FFFFFFFFFFFFFFFFFFFFFFFFDFFFFBE698
:104570003CEF1BEFFBE6BADE79D617CEF6C558C680
:10458000DFFFFFFFFFFFFFFFFFFFFFFFFFFFFFFF5B
:10459000FFFFFFFFFFFFFFFFFFFFFBE6FBE6FAE683
:1045A000DAE6B9DE57CED6C5D5BD57C6DFFFFFFF69
:1045B000FFFFFFFFFFFFFFFFFFFFFFFFFFFFFFFF0B
:1045C000FFFFFFFFDFFFFAE6FAE6FBEEDAE698DE32
:1045D00037CEB5BD94B537C6DFFFFFFFFFFFFFFF46
:1045E000FFFFFFFFFFFFFFFFFFFFFFFFFFFFFFFFDB
:1045F000FFFFB9E6BAE6B9E698DE37CEB5BD53ADF2
:1046000032AD17C6FEFFFFFFFFFFFFFFFFFFFFFFFB
:10461000FFFFFFFFFFFFFFFFFFFFFFFFDEFF53B5C1
:10462000CBBC0AD50AE52ADD28D509D5EEC4B4C528
:10463000FFFFFFFFFFFFFFFFFFFFFFFFFFFFFFFF8A
:10464000FFFFFFFFFFFFFFFFFFFFF0B425B4E4E42F
:10465000C4F444F5A3F5C6FD2CDD55D6FFFFFFFFDE
:10466000FFFFFFFFFFFFFFFFFFFFFFFFFFFFFFFF5A
:10467000FFFFFFFFFFFF93C504A424E524F5A3F586
:10468000E2EDE5F54CD5F9E6FFFFFFFFFFFFFFFF89
:10469000FFFFFFFFFFFFFFFFFFFFFFFFFFFFFFFF2A
:1046A000FFFF78DE06A465E563F5E3F523F646FE35
:1046B000CEDD9CF7FFFFFFFFFFFFFFFFFFFFFFFFC8
:1046C000FFFFFFFFFFFFFFFFFFFFFFFFFFFF7EF783
:1046D0006AAC46DDE6FD45FE65F649FEF1DDBEF756
:1046E000FFFFFFFFFFFFFEFFFFFFFFFFFFFFFFFFDB
:1046F000FFFFFFFFFFFFFFFFFFFFBFFFECB465D52C
:1047000026FE86FEA7FE6BFE13DEFFF7FFFFFFFF10
:10471000FEFFFEFFFFFFFFFFFFFFFFFFFFFFFFFFAB
:10472000FFFFFFFFFFFFDFFF2DBD65D566FEC6FE65
:10473000C7FE6CFE34DEDFF7FFFFFFFFFEFFFEFF6C
:10474000FFFFFFFFFFFFFFFFFFFFFFFFFFFFFFFF79
:10475000FFFFFFFF4EBD66DD66FEC6FEA9FE6CF6DE
:1047600033DEDFF7FFFFFFFFFFFFFFFFFFFFFFFF6E
:10477000FFFFFFFFFFFFFFFFFFFFFFFFFFFFFFFF49
:104780004FB547D566FEA6FEAAFEACF652DEFFFF89
:10479000FFFFFFFFFFFFFFFFFFFFFFFFFFFFFFFF29
:1047A000FFFFFFFFFFFFFFFFFFFFFFFF2FB547D515
:1047B00065FEA5FE88FE8BFE32DEDFFFFFFFFFFFFA
:1047C000FFFFFFFFFFFFFFFFFFFFFFFFFFFFFFFFF9
:1047D000FFFFFFFFFFFFFFFFEEB447DD65FE85FE35
:1047E00088FE6AFE31E6DFF7FFFFFFFFFFFFFFFFF6
:1047F000FFFFFFFFFFFFFFFFFFFFFFFFFFFFFFFFC9
:10480000FFFF9EF72B9CA7CCA7EDC7EDA9E589E597
:1048100090CDBEF7FFFFFFFFFFFFFFFFFFFFFFFF92
:10482000FFFFFFFFFFFFFFFFFFFFFFFFFFFF1CE793
:10483000CC8BACBC4DD58ED5AFD5CFDD30B5BEF76A
:10484000FFFFFFFFFFFFFFFFFFFFFFFFFFFFFFFF78
:10485000FFFFFFFFFFFFFFFFFFFFFBD63084D1AC60
:10486000D5CDB9DE77CE35CED09C7CEFFFFFFFFFF4
:10487000FFFFFFFFFFFFFFFFFFFFFFFFFFFFFFFF48
:10488000FFFFFFFFFFFF9EE718BE9194929CB6BD0D
:10489000F39C139D75ADDEFFFFFFFFFFFFFFFFFFE2
:1048A000FFFFFFFFFFFFFFFFFFFFFFFFFFFF7DEFAA
:1048B000FFFF7DEF7DEFFFFFDFFF7DEFFFFFFFFFDE
:1048C000FFFFFFFFFFFFDFFFFFFFFFFFDFFFDFFF58
:1048D000FFFFFFFFFFFFDFFFFFFFFFFF7DEF59CE71
:1048E000DBDE5DEFBEF7FFFFFFFF7DEF9EF7FFFF13
:1048F000FFFFBEF7BEF7DFFFFFFFFFFFFFFFFFFF7A
:10490000FFFFFFFFFFFFFFFFDFFFFFFFFFFFDFFFF7
:10491000BEF7FFFF9EF7BEF73CE7FBDEFBDEFBDEEC
:10492000DBDEFBDE3CE73CE7DFFFDFFFFFFFFFFFF7
:10493000DFFFFFFFFFFFDFFFDFFFFFFFDFFF9EF770
:1049400018C69294EF7B2C63108414A5DBDEFFFF66
:10495000FFFF7DEF5DEFFFFFFFFFFFFFFFFFFFFFAB
:10496000DFFF7DEFBEF7FFFFFFFFFFFFFFFFFFFF52
:10497000BEF7FFFFFFFFDFFF55AD18C6FFFF5DEF7E
:10498000BEF7FFFF9EF77DEF9EF73CE75DEFDFFF91
:10499000FFFFFFFFDFFFFFFFFFFFDFFFFFFFFFFF67
:1049A000FFFFBEF7718CA631494AAE734D6BAA5218
:1049B000CB5A9294DBDEFFFFFFFF9EF7FFFFFFFF66
:1049C000FFFFDFFFFFFFFFFFFFFF9EF7FFFFFFFF80
:1049D000FFFFFFFFBEF7FFFFFFFFBEF7718CCB5A53
:1049E0007DEFFFFFFFFFFFFFDFFFDFFFBEF73CE7CD
:1049F0001CE75DEF9EF7BEF7FFFFFFFFFFFFFFFF26
:104A0000FFFFFFFFFFFFFFFF38C62C632842E73997
:104A1000CB5ACB5A694A08422C63D7BDDFFFFFFF50
:104A20009EF7FFFFFFFFFFFFFFFFFFFFFFFFFFFFFF
:104A3000FFFFFFFF9EF7FFFFFFFF9EF7FFFFFFFF58
:104A400059CE2842B2943CE7FFFF7DEF5DEF9EF721
:104A50009EF79EF73CE71CE7DBDE5DEFFFFFFFFF05
:104A6000DFFFFFFFFFFFFFFFDFFFFFFFFFFF3CE771
:104A700075ADAA528631E739EB5AEB5AE739494A04
:104A8000D39C1CE7FFFFDFFF9EF7DFFFFFFFDFFF89
:104A9000DFFFFFFFFFFFFFFFFFFFFFFFFFFFDFFF66
:104AA000FFFF9EF7FFFF96B58A5275AD9EF7DFFFB9
:104AB000DFFFBEF79EF7DFFF7DEF3CE779CEDBDE61
:104AC000DFFFFFFF9EF7FFFFDFFFFFFFFFFFFFFF9F
:104AD000DFFFFFFFFFFF7DEFAE73C7398631694A05
:104AE00028428631494A2C63BAD69EF7FFFFBEF7AB
:104AF000DFFFFFFFFFFF7DEFFFFFFFFFFFFFBEF7C1
:104B00009EF7FFFFFFFFBEF7FFFFFFFF1084CF7B85
:104B100096B5DFFFFFFF9EF79EF73CE75DEF7DEF69
:104B200079CE18C63CE7FFFFBEF7FFFFFFFFDFFFB0
:104B30009EF7FFFFFFFF9EF7DFFF9EF7FBDE8E7302
:104B40008631C739C739C739E739A631494A55AD22
:104B5000DFFFFFFF7DEF9EF7FFFFFFFFFFFFFFFF80
:104B60009EF7FFFFDFFF1CE75DEFFFFF5DEFDFFF5D
:104B7000FFFF8E73AE731CE77DEF7DEFFFFF3CE719
:104B8000FBDEBEF79AD696B5BAD6FFFFFFFFFFFF52
:104B9000DFFFFFFFFFFFFFFFDFFFBEF7FFFFBEF7F7
:104BA000FFFFAE7324218631A63165296529452989
:104BB000452986318E73DBDEFFFFDFFF9EF7FFFFA7
:104BC000FFFFFFFFFFFF9EF7FFFF75AD38C61CE735
:104BD000FFFFFFFFFFFF3CE78E7334A5DFFF3CE7DD
:104BE0009EF71CE7FBDE1CE7FBDED7BD18C69EF771
:104BF000FFFFDFFFFFFFDFFFFFFFFFFFFFFFFFFF05
:104C0000FFFFBEF73CE7E31865294529A2104529B7
:104C10002421C3182421C318A2102842B6B5FFFFCF
:104C2000FFFFDFFFFFFFFFFFDFFFFFFFFFFF14A519
:104C30003CE759CED7BDFFFFFFFF7DEFF7BD34A5A1
:104C40001CE79EF75DEF9EF7FBDE1CE7FBDED7BDA2
:104C500038C6DFFFFFFFDFFFFFFFDFFFDFFFDFFF04
:104C6000BEF7DFFFFFFF9EF72C634529E318C3184B
:104C70002421E3182000242161084529C3182000BD
:104C80008210EF7B7DEFFFFFFFFFFFFFDFFFBEF72F
:104C9000FFFFF39C79CE1CE718C659CE7DEFFFFFCE
:104CA000FFFF38C61CE79EF7FBDE3CE7FBDEDBDEE2
:104CB000BAD6D7BD59CEDFFFFFFFFFFFFFFFDFFFF3
:104CC000FFFFFFFFDFFFFFFFFFFFBEF76529821039
:104CD0008210C3184108A21024216108E318E318C8
:104CE000A2100421E318821075ADDFFFFFFFFFFF64
:104CF000FFFFBEF7FFFF55AD14A5FFFF5DEFF7BD4A
:104D000079CEFFFF7DEF1CE75DEF5DEF3CE7DBDE7B
:104D1000FBDE79CE38C6D7BD9AD6DFFFFFFFFFFF97
:104D2000DFFFDFFFFFFFFFFFFFFFFFFFFFFF9EF73C
:104D30009294EB5A2421A2108631E31882100421A8
:104D4000C3184529E318610808424108F7BDFFFF71
:104D5000FFFFFFFFBEF7FFFFFFFF79CE718C3CE73F
:104D60003CE77DEFF7BD9AD6D7BD5DEF3CE75DEF41
:104D70009AD6FBDE1CE738C618C638C6FBDEDFFF56
:104D8000BEF7FFFFFFFFFFFFFFFFFFFFBEF7DFFFE5
:104D9000DFFF3CE79EF7CF7BAA5224212421410864
:104DA0008210863104218631C73986312421C31807
:104DB000BAD6FFFFFFFFFFFFFFFFFFFFDFFF5DEF43
:104DC0006D6B59CEBEF7DBDED7BD75ADD7BD7DEFC0
:104DD0003CE71CE714A5D7BD59CE38C69AD6DBDE12
:104DE0003CE7DFFFDFFFFFFFFFFFFFFFFFFFDFFF0E
:104DF000BEF7FFFFDFFF1CE714A5CB5AEF7BC739D7
:104E00000000C739CF7BAA52452941084529CB5A12
:104E10008210CB5A3CE7BEF7FFFFFFFFFFFFDFFF2B
:104E2000DFFFFFFFAE7334A59EF734A575ADB6B5B1
:104E30009AD63CE7FBDEB6B5D39C14A5308496B574
:104E40001CE7FBDE1CE7FFFFFFFFFFFFFFFFDFFFAD
:104E5000DFFFDFFFFFFFFFFF1CE796B5284230842E
:104E6000518C4D6B2C63F7BDBAD638C6694A821097
:104E7000610841084529BAD6FFFFBEF7FFFFFFFFD3
:104E80009EF7FFFFBEF7FFFF96B54D6B75ADB6B54C
:104E900034A5BAD679CE59CE38C6108479CEB6B5F7
:104EA0002842F39C3CE7BAD69AD6FFFFFFFFDFFF0C
:104EB000FFFFDFFFFFFFFFFFFFFF5DEF75AD2C631F
:104EC000EF7B10848E73FBDE38C6DFFFFFFFBEF77B
:104ED000FBDECB5A6529A210D7BDFFFF7DEFFFFF98
:104EE000FFFFFFFFFFFFFFFFFFFF5DEFBEF7EB5A86
:104EF000B29434A5D7BDB6B59AD6F7BD518C59CE6C
:104F000034A5CB5A108455AD3CE7DBDEDBDEFFFF7A
:104F1000DFFFDFFFFFFFDFFF9EF718C6F7BDDBDE19
:104F20008E736D6B10846D6B79CEFFFFBEF7FFFF44
:104F3000FFFFDFFFFFFF1CE7B29492947DEFFFFFBE
:104F4000BEF7FFFFFFFFFFFFFFFFBEF7FFFFFFFF03
:104F5000FFFF96B5308496B5B6B5D7BDD7BD718C79
:104F600018C614A5EF7B4D6B38C6DBDEFBDEBAD668
:104F70005DEFFFFFDFFFBEF77DEFFFFF55AD65295A
:104F800065294D6B8E73CF7B8A5279CEFFFFDFFF91
:104F9000FFFFFFFFFFFFFFFF9EF7FFFF7DEF5DEFCE
:104FA000FFFFFFFF7DEFFFFFFFFFFFFFFFFFFFFFA3
:104FB000BEF7FFFFFFFF3CE7F39C96B514A5F7BDD6
:104FC000D39CF39C55ADAE730C63F39C38C61CE7C1
:104FD000BAD659CEDBDE7DEFFFFFFFFFFFFF518C1E
:104FE00024212842042141080C63284234A5FFFFF4
:104FF000FFFF7DEFFFFFDFFFBEF7FFFFBEF7FFFF05
:10500000FFFFFFFFFFFFFFFFDFFFFFFFFFFFFFFFD0
:10501000FFFFFFFF7DEF9EF7FFFFD39CF39C96B54C
:1050200096B596B5D39CF7BDCF7BEB5AEF7B75ADAC
:1050300018C6FBDEFBDE1CE7DBDE7DEFFFFF9EF725
:105040008E730421E739A631E739E73900006D6B2B
:10505000FFFFDFFF3CE7FFFFFFFFBEF7FFFFFFFFA4
:10506000FFFFBEF77DEF9EF7DFFFFFFFFFFFDFFFD4
:10507000FFFFFFFFFFFFFFFFDFFFFFFFFFFFAA5262
:105080002C63B294B6B5D39C55AD14A530844D6B4A
:1050900075ADF39C18C6B6B5D7BD79CE38C61CE73A
:1050A0005DEFAE73E318494AC7396529A63124215B
:1050B000000034A5FFFF1CE7FFFFFFFF9EF7FFFF87
:1050C000FFFFDFFFFFFFDFFFFFFFFFFFFFFFFFFF30
:1050D000FFFFDFFFFFFFFFFFFFFFBEF7FFFFFFFF49
:1050E000BEF755ADCB5A694AEF7B9294F39CF39C83
:1050F000F39C14A518C638C655AD718C34A5F7BD00
:1051000075AD59CEB6B586318A526529A631E739D3
:10511000E318610845293CE7BEF77DEFFFFFFFFF7D
:10512000DFFFFFFFBEF7FFFFFFFFFFFFFFFFFFFFF8
:10513000FFFFFFFFFFFFFFFFFFFFFFFFFFFFFFFF7F
:10514000FFFFBEF79EF7FFFF96B54D6B0842EB5A87
:10515000CB5A4D6BCB5A8E73EB5A518CD39CB29475
:1051600038C6DBDE79CEBAD638C69294C318284248
:105170002421042104210000B294FFFFFFFFFFFF60
:10518000BEF7BEF7FFFFFFFF7DEFFFFFFFFFDFFF73
:105190009EF79EF7FFFFFFFFFFFFFFFFFFFFFFFFF1
:1051A000FFFFFFFF7DEFFFFFDFFF7DEFFFFF1CE74E
:1051B00075ADCF7BCF7B0C634D6B8A52E7392842AC
:1051C000AE733084D7BD59CE9AD69AD6F7BDBAD62B
:1051D000B294E3188631042182108631DFFF7DEF1F
:1051E0007DEFFFFFFFFFFFFFFFFFDFFFFFFFFFFF81
:1051F000FFFFFFFFFFFFFFFFFFFFFFFFDFFFFFFFDF
:10520000FFFFFFFFFFFFFFFFFFFFFFFFFFFFFFFFAE
:10521000FFFFFFFFFFFFBEF71CE7FBDE79CE96B571
:10522000B2946D6B2842AE73718C38C618C6BAD66C
:10523000FBDE96B59AD6718C82100000C31875AD4E
:10524000BEF7DFFFDFFFFFFFFFFFFFFFFFFFFFFFF7
:10525000FFFFFFFFFFFFFFFFFFFFFFFFFFFFFFFF5E
:10526000FFFFFFFFFFFFFFFFFFFFFFFFFFFFFFFF4E
:10527000FFFFFFFFFFFFFFFF9EF7FFFFBEF7FFFFF0
:10528000FFFFDFFFDFFF5DEFF39C494A718C718CFC
:1052900059CEFBDE18C659CE55AD59CE3084A2107A
:1052A000AE7379CEFFFF9EF7FFFFFFFFFFFFFFFF0B
:1052B000FFFFFFFFFFFFFFFFFFFFFFFFFFFFFFFFFE
:1052C000FFFFFFFFFFFFFFFFFFFFFFFFFFFFFFFFEE
:1052D000FFFFFFFFFFFFFFFFFFFFFFFFBEF7FFFF27
:1052E000FFFFFFFFFFFFFFFFFFFFDFFF1CE7718CEA
:1052F000CB5A518C34A5D7BD9AD6BAD659CE55AD16
:105300009AD6929496B5FFFFDFFFFFFFFFFFFFFFE6
:10531000FFFFFFFFFFFFFFFFFFFFFFFFFFFFFFFF9D
:10532000FFFFFFFFFFFFFFFFFFFFFFFFFFFFFFFF8D
:10533000FFFFFFFFFFFFFFFFFFFFFFFFFFFFFFFF7D
:10534000FFFFFFFFBEF7DFFFFFFFBEF7DFFFDFFF5F
:10535000FFFF75AD042110849294718C9AD679CE9A
:10536000FBDEF7BDF39C9EF77DEF3CE7FFFFDFFF21
:10537000FFFFFFFFFFFFFFFFFFFFFFFFFFFFFFFF3D
:10538000FFFFFFFFFFFFFFFFFFFFFFFFFFFFFFFF2D
:10539000FFFFFFFFFFFFFFFFFFFFFFFFFFFFFFFF1D
:1053A000FFFFFFFFFFFFFFFFBEF7FFFFFFFFBEF79F
:1053B000FFFFFFFFBEF70842A210C7399294B294D4
:1053C00014A518C638C6FBDE96B5D7BD9EF71CE7F8
:1053D000FFFFBEF7FFFFFFFFFFFFFFFFFFFFFFFF26
:1053E000FFFFFFFFFFFFFFFFFFFFFFFFFFFFFFFFCD
:1053F000FFFFFFFFFFFFFFFFFFFFFFFFFFFFFFFFBD
:10540000FFFFFFFFFFFFFFFFFFFFFFFFFFFFFFFFAC
:105410009EF77DEFFFFF9EF74D6B2000E318A21073
:10542000694A14A5B29475AD18C638C63CE755ADA7
:1054300034A5FFFFFBDEFFFFDFFFDFFFFFFFFFFF06
:10544000FFFFFFFFFFFFFFFFFFFFFFFFFFFFFFFF6C
:10545000FFFFFFFFFFFFFFFFFFFFFFFFFFFFFFFF5C
:10546000FFFFFFFFFFFFFFFFFFFFFFFFBEF7DFFFB5
:10547000FFFFFFFFDFFFFFFFBEF7D39C000004210B
:10548000A210042161084D6BF39C14A5D7BD38C64A
:1054900018C61CE734A559CE5DEF5DEFBEF7DFFF00
:1054A000DFFFFFFFFFFFFFFFFFFFFFFFFFFFFFFF2C
:1054B000FFFFFFFFFFFFFFFFFFFFFFFFFFFFFFFFFC
:1054C000FFFFFFFFFFFFFFFFFFFFFFFFFFFFFFFFEC
:1054D000FFFFFFFFFFFFDFFF9EF7FFFF18C68210F1
:1054E000C31882108210A210C318E3181084F39C12
:1054F000B6B5D7BD59CE38C63CE775AD59CE3CE7F9
:105500009EF7BEF7DFFFFFFFFFFFFFFFFFFFFFFF7D
:10551000FFFFFFFFFFFFFFFFFFFFFFFFFFFFFFFF9B
:10552000FFFFFFFFFFFFFFFFFFFFFFFFFFFFFFFF8B
:10553000FFFFFFFFFFFFFFFF9EF7FFFFDFFFFBDE29
:105540002842C318C31861080421A2104108410869
:105550006529B29414A5D7BD18C618C6BAD679CE97
:1055600018C659CE9AD65DEFDFFFDFFFDFFFFFFFE2
:10557000FFFFDFFFFFFFFFFFFFFFFFFFFFFFFFFF5B
:10558000FFFFFFFFFFFFFFFFFFFFFFFFFFFFFFFF2B
:10559000FFFFFFFFFFFFFFFFFFFFFFFFFFFF3CE7F6
:1055A000FFFFCB5AE739A631A210C31820006108CB
:1055B0002000C318AA528A52B294F7BD18C696B5F5
:1055C00038C659CEDBDE18C618C659CE1CE7FFFF19
:1055D000FFFFDFFFDFFFFFFFFFFFFFFFFFFFFFFF1B
:1055E000FFFFFFFFFFFFFFFFFFFFFFFFFFFFFFFFCB
:1055F000FFFFFFFFFFFFFFFFFFFFFFFFDFFFFFFFDB
:105600007DEFFFFF3084E739A6312842E3186108B7
:105610004108200000006D6B18C68A52EB5A14A591
:1056200096B559CE55AD79CEFBDE79CEF7BDD7BD57
:1056300038C63CE7FFFFFFFFDFFFFFFFFFFFFFFF75
:10564000FFFFFFFFFFFFFFFFFFFFFFFFFFFFFFFF6A
:10565000FFFFFFFFFFFFFFFFFFFFFFFFFFFFFFFF5A
:10566000DFFFDFFFFFFF96B5A631284208428631F3
:1056700045298210C3180000C739FBDEFFFFF7BDC4
:1056800008422C6355AD79CED7BDF7BD38C6BAD622
:105690009AD679CE18C618C6FBDEFFFFFFFFBEF70D
:1056A000FFFFFFFFFFFFFFFFFFFFFFFFFFFFFFFF0A
:1056B000FFFFFFFFFFFFFFFFFFFFFFFFFFFFFFFFFA
:1056C000FFFFFFFFFFFFFFFF9AD6A63128420842E7
:1056D000863165294529E3182000E31875ADFFFFE1
:1056E0007DEFFFFF9294E739718CF39CBAD696B5A3
:1056F00096B538C6DBDEDBDE79CEF7BD38C61CE7F3
:10570000DFFFFFFFFFFFFFFFFFFFFFFFFFFFFFFFC9
:10571000FFFFFFFFFFFFFFFFFFFFFFFFFFFFFFFF99
:10572000FFFFFFFFFFFFFFFFFFFF1CE7CB5A2842F1
:10573000C739C7396529A631652900004108D39CBE
:10574000BEF7BEF7FFFFBEF79EF76D6B494ACF7BF2
:1057500075AD9AD655AD38C659CE79CEBAD6BAD629
:1057600038C6F7BDDBDEFFFFDFFFDFFFFFFFFFFF18
:10577000FFFFFFFFFFFFFFFFFFFFFFFFFFFFFFFF39
:10578000FFFFFFFFFFFFFFFFFFFFFFFF7DEFEF7B4F
:10579000C7398A52C739042108422421042141080B
:1057A0004D6BFFFFFFFF7DEFFFFF7DEFFFFF59CE4A
:1057B0008A522C638E7338C6D7BD18C6D7BD18C69B
:1057C0009AD6FBDE9AD618C679CE1CE7BEF7DFFF65
:1057D000DFFFFFFFFFFFFFFFFFFFFFFFFFFFFFFFF9
:1057E000FFFFFFFFFFFFFFFFFFFFFFFFFFFFFFFFC9
:1057F000F39C494A0842C73986318631E318E318D9
:105800000000CB5ADBDEDFFFDFFFFFFF9EF7FFFF6D
:105810009EF7FFFF75AD28422C63AE739AD696B5FE
:10582000D7BD18C659CE79CEDBDE1CE79AD6D7BDD8
:105830009EF7BEF7DFFFFFFFFFFFFFFFFFFFFFFF4A
:10584000FFFFFFFFFFFFFFFFFFFFDFFFFFFF7DEF1A
:10585000FFFFF7BD494A494AA631C73945292421E6
:10586000863100008631F7BDFFFF9EF7FFFFFFFF87
:10587000DFFFFFFFFFFFDFFFFFFF4D6B8A524D6B26
:10588000AE7359CE96B579CED39CEB5AEB5A75AD23
:10589000BEF738C659CE9EF7FFFFBEF7FFFFFFFFEA
:1058A000FFFFDFFFFFFFFFFFFFFF9EF7FFFFFFFF91
:1058B000BEF7FFFF18C68A522842694AA6318631D0
:1058C0004529084200004108F39C7DEFFFFFDFFF00
:1058D000FFFFFFFFBEF7FFFFDFFFDFFF9EF7FFFFCA
:1058E0008A528A526D6B108459CED7BD308496B5DA
:1058F00096B59294BAD6FBDE18C65DEFFFFFFFFFA8
:10590000FFFFFFFFFFFFFFFFFFFFFFFFFFFFFFFFA7
:10591000FFFFDFFFBEF71CE7C7394529E7392842FB
:105920006529C73924216108000030849EF7FFFFF4
:10593000FFFFDFFFFFFFFFFFDFFFFFFFDFFFBEF720
:10594000FFFFFFFF9AD6E7392C634D6BF7BD96B585
:1059500059CEBEF7DFFFBAD659CEBEF738C63CE700
:10596000FFFFFFFFFFFFBEF7BEF7FFFFFFFFFFFFD9
:10597000DFFFFFFFFFFFDFFFFFFFBAD6E3180421C1
:105980000842A631E318452945290000CB5ADBDE41
:10599000FFFFDFFFDFFFFFFFFFFFFFFFFFFFFFFF57
:1059A000DFFFFFFFDFFF5DEFFFFF55AD494A6D6B86
:1059B000CF7B38C6D7BDFBDE3CE738C65DEF1CE7C2
:1059C0009AD65DEFBEF7DFFFFFFFFFFFDFFFFFFFB0
:1059D000FFFFFFFFFFFF9EF7FFFFFFFFBEF7FFFF89
:1059E000F39C6529042104216529C3180000452979
:1059F00059CEBEF7FFFFDFFFFFFFFFFFDFFFFFFF17
:105A0000FFFFDFFFFFFFFFFFDFFFFFFFBEF7FFFF2F
:105A1000AE73694A1084F39C59CED7BDD7BD59CE19
:105A200018C67DEFB6B53CE7FFFFBEF7DFFFFFFF0F
:105A3000FFFFFFFFFFFFFFFFFFFFDFFFFFFFDFFFB6
:105A4000FFFFFFFFBEF734A5694A821082100000F5
:105A50002000B294BEF7FFFFFFFFFFFFFFFFFFFF35
:105A6000DFFFFFFFFFFFFFFFDFFFFFFFFFFFDFFFA6
:105A7000FFFFDFFF1CE76D6BAA52B29475AD79CEC4
:105A800059CE14A534A59294F39CFBDEFFFFFFFFD3
:105A9000DFFFFFFFFFFFFFFFFFFFFFFFFFFFFFFF36
:105AA000FFFF9EF7FFFF7DEFBEF7FFFF9AD60C6367
:105AB00041082000CF7BFFFFFFFFBEF7FFFFFFFF86
:105AC000FFFFFFFFFFFFFFFFFFFFFFFFBEF7FFFF2F
:105AD000BEF7FFFFFFFFDFFFFFFF9AD6AA528A52F1
