:100000000C94DD5B0C940E5C0C940E5C0C940E5CFA
:100010000C940E5C0C940E5C0C940E5C0C940E5CB8
:100020000C940E5C0C940E5C0C940E5C0C940E5CA8
:100030000C940E5C0C946AF30C940E5C0C940E5CA5
:100040000C940E5C0C940E5C0C940E5C0C940E5C88
:100050000C940E5C0C940E5C0C940E5C0C94B4F737
:100060000C940E5C0C9498F20C946FF20C940E5C51
:100070000C940E5C0C940E5C0C940E5C0C940E5C58
:100080000C940E5C0C940E5C0C940E5C0C940E5C48
:100090000C940E5C0C940E5C0C940E5C0D94D405C8
:1000A0000C940E5C0C940E5C0C940E5C0C940E5C28
:1000B0000C940E5C0C940E5C0C940E5C0C940E5C18
:1000C0000C940E5C0C940E5C0C940E5C0C940E5C08
:1000D0000C940E5C0C940E5C0C940E5C0C940E5CF8
:1000E0000C940E5C166119611E61266131613161EB
:1000F0003F613F613F619688AC88C288D888EE88AE
:1001000004891A893089CC89FD892E8A5F8A908A70
:10011000C18AF28A238BA08B088D3A8E6A8F9A90BF
:10012000CA91FA921F93CC940595379569959B9542
:10013000CD95FF9531966396959611974297739753
:10014000A497D5970698379868989998CA9810995F
:10015000209A269B379C3D9D439E529F599F609FAE
:10016000679F5EB574B58AB5A0B5B6B5CCB5E2B536
:100170002CB65DB68EB6BFB6F0B621B752B7ACB7E7
:100180004DB8E0B873B906BA99BA2EBB69CF7FCF24
:1001900095CFABCFC1CFD7CFEDCF34D065D096D0F0
:1001A000C7D0F8D029D15AD1BDD1E3D109D22FD2AD
:1001B00055D27BD29DD26AF16DF15CF160F166F1AE
:1001C000A4F171F175F17BF17FF183F189F18DF18A
:1001D00091F1A4F197F19BF19FF1470129012501CC
:1001E0001B015D010D013501130131012D012101BB
:1001F0001D012301590119014101490109014B0167
:100200003D011F012F01270145010D94B1430D94BC
:1002100071010D94C82C0D9444010D94352A0D9450
:10022000B9530D942D070D946B2A0D9441020D9432
:10023000F4000D947D2C0D94FF290D942C2C0D941D
:10024000D12C0D94112C0D94472C0D94E4290D9470
:10025000D72C0D94C9290D943C010D94F62B0D94C7
:10026000D42C0D94DB2B0D94B2430D94502A0D9495
:10027000D0000D94FC000D9487550D94CE2C0D9458
:10028000E0000D94982C0D94E4020D94DA2C0D945A
:10029000A5290D94C52C0D94CB2C0D94AF000D9475
:1002A0008E000D94D1000D94D13D0D94DB020D9480
:1002B000C5000D94622C0D9458160D941A2A004016
:1002C0007A10F35A00A0724E18090010A5D4E80065
:1002D00000E87648170000E40B54020000CA9A3B7D
:1002E000000000E1F5050000809698000000404203
:1002F0000F000000A0860100000010270000000091
:10030000E803000000006400000000000A00000094
:1003100000000100000000002C76D888DC674F0840
:1003200023DFC1DFAE59E1B1B796E5E3E453C63A46
:10033000E651997696E8E6C28426EB898C9B62EDBD
:10034000407C6FFCEFBC9C9F40F2BAA56FA5F49077
:10035000055A2AF75C936B6CF9676DC11BFCE0E4EE
:100360000D47FEF520E6B500D0ED902E0300943544
:1003700077050080841E080000204E0A000000C897
:100380000C333333330F986E12831141EF8D2114E8
:10039000893BE65516CFFEE6DB18D1844B381BF7B8
:1003A0007C1D901DA4BBE424203284725E22810057
:1003B000C9F124ECA1E53D27000000000000000089
:1003C000000000000000000000000000000000002D
:1003D000000000000000000000000000000000001D
:1003E000000000000000000000000000000000000D
:1003F00000000000000000000000000000000000FD
:1004000000000000000000000000000000000000EC
:100410000000000041088210A210C318E31804195C
:10042000E318C318E3186108000000000000000092
:1004300000000000000000000000000000000000BC
:1004400000000000000000000000000000000000AC
:1004500000000000A21024216529083AAA522C634A
:100460008E73AE730C632842AA52CF7BCB5282109C
:10047000000000000000000000000000000000007C
:10048000000000000000000000000000000000006C
:10049000000000002000E739694AAA52718C96AD2D
:1004A000F7BD18C638C638C618BED7B514A5B2945D
:1004B00096B575ADE73900000000000000000000AF
:1004C000000000000000000000000000000000002C
:1004D00000000000000041082C63CF73518CF7BD71
:1004E00038C679CEDBDE3CE77DEF5DEF1CE7BAD6A0
:1004F00038C6F7BD96B538C6FBDECB5A0000000003
:1005000000000000000000000000000000000000EB
:10051000000000000000000000008D6BD39434A5A3
:1005200038C638C61CE7FFFFFFFFFFFFFFFFFFFFD6
:10053000FFFFFFFF9EF79AD6F7BDB6B559CE5DEF28
:10054000AA520000000000000000000000000000AF
:10055000000000000000000000000000694A34A50F
:1005600075AD38C638C6BEF7FFFFFBDE718C8A4A10
:10057000A631C739CB52D39C5DEFFFFFDBDEF7BD61
:10058000B6B5BAD6DBDE8631000000000000000000
:100590000000000000000000000000000000C31880
:1005A000F39C55A538C6F7BDBEF7DFFF718CC318A5
:1005B000000000000000000000000000042155AD14
:1005C000FFFF9AD6B6B5D7BD7DEF34A54100000038
:1005D000000000000000000000000000000000001B
:1005E00000004D6B75ADF7BDD7BD1CE79EF78D6B59
:1005F00000000000000000000000000000000000FB
:1006000000002000D39CDFFFD7BDB6B579CE7DEFCB
:10061000494200000000000000000000000000004F
:10062000000000006108F39C75AD18C638C6FFFFD6
:1006300051840000000000000000000000000000E5
:100640000000000000000000610818C69AD696B5A8
:10065000F7BD9EF7D39C00000000000000000000E2
:100660000000000000000000A63175ADB6B5F7BD72
:100670001CE779CE0421000000000000000000000B
:1006800000000000000000000000000000008A528E
:100690009AD634A5F7BD1CE79AD6C318000000000F
:1006A000000000000000000000000000CB5A96B5DA
:1006B000F7BD18C6BEF7108400000000000000005F
:1006C000000000000000000000000000000000002A
:1006D0000000821018C655ADF7BD9AD67DEFC73918
:1006E000000000000000000000000000000000000A
:1006F0004D6BB6B5F7BD58C6BEF72C6300000000C1
:1007000000000000000000000000000000000000E9
:10071000000000000000000034A5B6B5F7BD59CEBA
:10072000BEF7694A00000000000000000000000061
:10073000000000006D6B96B5F7BD59CEBEF7EB5AC1
:1007400000000000000000000000000000000000A9
:10075000000000000000000000000000D39CF7BD76
:10076000D7BD59CEBEF78A5200000000000000003D
:1007700000000000000000006D6B96B5F7BD59CE7B
:10078000BEF7EB5A0000000000000000000000006F
:100790000000000000000000000000000000000059
:1007A000D39CF7BDD7BD59C6BEF78A5200000000E2
:1007B0000000000000000000000000006D6B96B516
:1007C000F7BD59CEBEF7EB5A000000000000000054
:1007D00000000000200020000000000000000000D9
:1007E00000000000D39CF7BDD7BD38C69EF78A52E3
:1007F00000000000000000000000000000000000F9
:100800006D6B96B5D7BD38C6BEF7EB5A00004108F0
:10081000E318A631494ACB5A4D6B8E736D6B2C632E
:10082000694A863161080000D39CF7BDB6B538C669
:100830009EF78A4A0000000000000000000000004F
:10084000000000006D6B96ADD7BD59CE5DEFAA528A
:1008500086318A524D6BEF7B518CB29414A575ADE5
:10086000B6B518C638C6F7BD34A56D6B929434A5DD
:10087000D7BD38C69EF7694A00000000000000009E
:1008800000000000000000006D6B96B5F7BDD39C22
:100890004D6BAA522C63AE73EF7B1084518CB294D3
:1008A000F39C55ADB6B518C679CEDBDE3CE73CE728
:1008B00059CEF39C14A518C69EF7694A00000000A3
:1008C0000000000000000000000000008E7375AD05
:1008D0001084EB5A4D6BAE738E738E73AE73EF7BD9
:1008E000518CB29434A596B5F7BD59CE9AD6DBDEBD
:1008F0001CE77DEFBEF79EF759CE75AD3CE7694A20
:1009000000000000000000000000000000000000E7
:100910004C6310846D6B30843084EF7BAE738E73C8
:10092000CF7BEF7BEF7BCF7BEF7B3084929475ADF9
:1009300059CE3CE79EF79EF7BEF7DFFFFFFF5DEF66
:1009400039C608420000000000000000000000005E
:1009500000000000694A518CF39CB294518C1084C1
:10096000EF7B0C632842C739C739A631C7398631B6
:100970002421242186310C6396B5BEF7FFFFDFFFEB
:10098000FFFFFFFFDFFF518C0000000000000000B0
:100990000000000000008631B29496B555ADF39C7E
:1009A000D39C30842842652928428A5228428631C5
:1009B000652904218210A210A21061088210CB5A6E
:1009C000FBDEFFFFFFFFFFFFFFFFFFFF4D6B0000A0
:1009D0000000000000000000A210718C38C6F7BDB6
:1009E00096B575AD9294C739E739EB5A8A522842C9
:1009F000A6312421A6314529200000000000000076
:100A000061084108863179CEFFFFDFFFBEF7DFFFC7
:100A10003CE7A63100000000000000002C6359CE26
:100A2000BAD659CE38C655ADA631C7392C634D6BF1
:100A3000CB5A2842E7398631652904216108000034
:100A4000000020008210A210200045299AD6FFFF46
:100A50007DEF5DEF9EF7B6B5200000000000242179
:100A6000B6B53CE7FBDEBAD69AD6694A8631CB5A90
:100A70000C6330842C638A528A52694A0842A63138
:100A8000E3182000000061082421A210E31882105E
:100A900028423CE75DEFFBDEDBDE3CE7AA520000CC
:100AA00000002C635DEF7DEF3CE77DEF718CE31878
:100AB000694AAA52EB5AEB5A8A52EB5A4D6B4D6B6C
:100AC0001084D39CD39CAE73E318000082100421E1
:100AD00065298631C31810843CE79AD679CEBAD6F8
:100AE00075AD0000410855ADDFFFBEF7BEF73CE72E
:100AF000A63165290842694A694AE739EB5A518C9F
:100B0000518C34A538C69AD6FBDE7DEFDBDE084279
:100B100000004529C739E739C739C73918C659CE42
:100B2000F7BDD7BDBAD645294529BAD6FFFFDFFFA5
:100B3000FFFF14A582106529C739E7394529084206
:100B4000B6B579CE7DEFFFFFFFFFFFFFFFFFBEF7DA
:100B5000FFFF5DEFA631C318494A8A52694AA631A0
:100B6000108418C696B555AD79CE0C63694A9EF7C8
:100B7000FFFFFFFFFFFF0C6382108631AA52452959
:100B8000821034A5DFFFFFFFFFFFFFFFDFFF9EF7AF
:100B90003CE7FBDE9AD6BEF796B50421AA52CF7B7E
:100BA0000C63694AEB5A75AD14A5D39CD7BD518C23
:100BB0006D6BFFFFFFFFFFFFBEF7C7396108C3186A
:100BC000863141088631BEF7FFFFBEF77DEF1CE797
:100BD000BAD679CE38C618C618C69AD679CE694A1A
:100BE000494A6D6B0C630C63AA52F39C9294718C0E
:100BF00014A514A51084DFFFFFFFFFFF5DEF0421A4
:100C000061084108410800000C63FFFFFBDE9AD633
:100C100059CE18C618C618C659CE9AD6DBDE1CE7C0
:100C2000D7BD0C63494A0C630C636D6BAA52929456
:100C300030841084929455AD518CBEF7BEF7DFFF1F
:100C40001CE7E31882100000000000004D6B3CE739
:100C500038C618C638C679CEBAD61CE75DEFBEF7DF
:100C6000FFFFDFFFF39CCB5A694ACB5ACB5A8E73F6
:100C7000EB5A3084CF7BCF7B308434A510847DEF5A
:100C80005DEF7DEFFBDE2421610800000000000025
:100C9000AA5238C679CEFBDE3CE79EF7DFFFFFFFA6
:100CA000FFFFFFFFFFFF7DEFCF7B8A52494A694A72
:100CB000694A4D6BCB5A10848E738E733084B29414
:100CC0006D6B3CE71CE71CE7FBDE0842A210410805
:100CD000042161088631B29418C6FFFFFFFFFFFFB1
:100CE000FFFFFFFFDFFFBEF7DFFFB6B58E730842E1
:100CF00028420C6328424D6BCB5AEF7B6D6B6D6BBA
:100D0000718CEF7B694ABAD6BAD69AD6DBDE0C6311
:100D1000E318C3180421A21045290C633084DBDEDC
:100D2000FFFFDFFF9EF77DEF3CE71CE79AD614A597
:100D30000C634529A631494A28420C63EB5ACF7B04
:100D40006D6B4D6BF39CCB5A652918C659CE38C6CE
:100D500059CEB294452924218210C31886312842E5
:100D60002C63EF7B38C61CE7FBDEBAD6BAD6DBDED7
:100D7000BAD692940421C318A210C31808428A520A
:100D80006D6BEF7BAE738E7355AD65294108F39C97
:100D9000F7BDB6B596B5B6B50842C73924212421AA
:100DA00086312842694AEB5A1084B6B5FBDE9EF7BD
:100DB000FFFF7DEF718C8210200020004108C318D6
:100DC000494A28429294EF7BCF7B3084F39C4108C0
:100DD00000004D6BB6B555AD34A534A5EF7BA631FB
:100DE000694A8631E739AA52CB5A694A2842EB5AF6
:100DF000EF7B518C6D6B45290000200082100000B4
:100E00002000C739C739AE73D39C518C108455ADBF
:100E10004D6B00000000652955ADF39CD39C929466
:100E2000B2948A52494ACB5A28428E734D6BEB5A80
:100E3000AA52C73904218210200041084108E31852
:100E400024210000E3186529694A75AD14A5B29400
:100E5000D39CB6B5E318000000000000EF7B34A57A
:100E6000718C518C10841084E7398A526D6BEB5A67
:100E7000EB5A0C630C63EB5A2C63AA528631242183
:100E8000A210410882102421E318C739B6B5D7BD96
:100E900075AD14A518C66D6B0000000000000000C1
:100EA000042155AD718CEF7BCF7BAE73AE730842DE
:100EB00028424D6B2C632C630C63CB5A2C63CB5AAA
:100EC000A6312421E318A210C3186108084238C6CD
:100ED000BAD618C6B6B538C634A541080000000019
:100EE0000000000000008A52D7BDCF7B8E738E7346
:100EF0008E738E73694AA631494AEB5AEB5AAA524D
:100F0000AA52284286316529E3188210C318CF7B84
:100F10003CE75DEFDBDE79CE79CE79CE6529000046
:100F2000000000000000000000000000AE73D7BD0C
:100F3000AE734D6B6D6B8E73CF7B8E73AA5208426E
:100F4000C739A631A63165290421452908421084F4
:100F5000DBDEFFFFBEF75DEF1CE71CE7FBDE494A67
:100F60000000000000000000000000000000000081
:100F70000000AE7318C6EF7B4D6B8E73CF7B108471
:100F80009294D39CF39C14A514A575AD18C6FBDEF2
:100F9000BEF7FFFFFFFFFFFFBEF79EF7BEF7FBDECA
:100FA000494A0000000000000000000000000000AE
:100FB00000000000000000008A52F7BD14A5CF7B9E
:100FC000AE731084718CF39C75ADF7BD79CEFBDEEA
:100FD0005DEF9EF7DFFFFFFFFFFFFFFFFFFFFFFF5C
:100FE00018C686310000000000000000000000006C
:100FF0000000000000000000000000000000E318F6
:101000003084D7BD55ADB2949294F39C55ADD7BD05
:1010100059CEBAD61CE77DEFBEF7FFFFFFFFFFFFFB
:101020003CE7CF7B821000000000000000000000C1
:1010300000000000000000000000000000000000B0
:1010400000000000000004218E7355AD18C638C69C
:1010500038C659CEBAD61CE77DEFDFFFFFFFBEF7DB
:1010600079CEEF7BE31800000000000000000000D4
:101070000000000000000000000000000000000070
:101080000000000000000000000000000000410817
:101090006529CB5ACF7B929414A534A5F39C308458
:1010A0002C638631410800000000000000000000B1
:1010B0000000000000000000000000000000000030
:1010C0000000000000000000000000000000000020
:1010D0000000000000000000000000000000000010
:1010E0000000000000000000000000000000000000
:1010F00000000000000000000000000000000000F0
:10110000080C20173CE781BD81BD81BD81BD81FFF9
:101110003CE7818181BD81BD81BD81FF3CE781814B
:10112000818181BD81BD81FF3CE781818181818198
:1011300081BD81FF3CE7818181818181818181FF46
:10114000FFFF003F3F000F0F000303000000003FC0
:101150003F000F0F000303000000000000000F0F0E
:101160000003030000000000000000000003030073
:10117000000010101010105438100000000010383B
:1011800054101010101000000000000010087C081F
:10119000100000000000000010207C201000000063
:1011A0000000003C0C14244480000000000000807B
:1011B0004424140C3C00000000003C42A581A59989
:1011C000423C000000003C7EDBFFFFDB663C000091
:1011D00000003C42A58199A5423C000000003C7EF5
:1011E000DBFFFFE75A3C000000003C428181818127
:1011F000423C000000003C7EFFFFFFFF7E3C000001
:101200000000FF818181818181FF00000000FFFFDC
:10121000FFFFFFFFFFFF0000FFFFFFFFFFFFFFFFDC
:10122000FFFF7DEFFFFF7DEF7DEFFFFFDFFF7DEF36
:10123000FFFFFFFFFFFFFFFFFFFFDFFFFFFFFFFFDE
:10124000DFFFDFFFFFFFFFFFFFFFDFFFFFFFFFFF0E
:101250007DEF59CEDBDE5DEFBEF7FFFFFFFF7DEFD9
:101260009EF7FFFFFFFFBEF7BEF7DFFFFFFFFFFFA9
:10127000FFFFFFFFFFFFFFFFFFFFFFFFDFFFFFFF9E
:10128000FFFFDFFFBEF7FFFF9EF7BEF73CE7FBDE89
:10129000FBDEFBDEDBDEFBDE3CE73CE7DFFFDFFF08
:1012A000FFFFFFFFDFFFFFFFFFFFDFFFDFFFFFFFAE
:1012B000DFFF9EF718C69294EF7B2C63108414A571
:1012C000DBDEFFFFFFFF7DEF5DEFFFFFFFFFFFFFB7
:1012D000FFFFFFFFDFFF7DEFBEF7FFFFFFFFFFFF19
:1012E000FFFFFFFFBEF7FFFFFFFFDFFF55AD18C693
:1012F000FFFF5DEFBEF7FFFF9EF77DEF9EF73CE738
:101300005DEFDFFFFFFFFFFFDFFFFFFFFFFFDFFFFF
:10131000FFFFFFFFFFFFBEF7718CA631494AAE7396
:101320004D6BAA52CB5A9294DBDEFFFFFFFF9EF774
:10133000FFFFFFFFFFFFDFFFFFFFFFFFFFFF9EF746
:10134000FFFFFFFFFFFFFFFFBEF7FFFFFFFFBEF73F
:10135000718CCB5A7DEFFFFFFFFFFFFFDFFFDFFF49
:10136000BEF73CE71CE75DEF9EF7BEF7FFFFFFFF10
:10137000FFFFFFFFFFFFFFFFFFFFFFFF38C62C63EC
:101380002842E739CB5ACB5A694A08422C63D7BD69
:10139000DFFFFFFF9EF7FFFFFFFFFFFFFFFFFFFFE6
:1013A000FFFFFFFFFFFFFFFF9EF7FFFFFFFF9EF71F
:1013B000FFFFFFFF59CE2842B2943CE7FFFF7DEFCD
:1013C0005DEF9EF79EF79EF73CE71CE7DBDE5DEFE7
:1013D000FFFFFFFFDFFFFFFFFFFFFFFFDFFFFFFF5D
:1013E000FFFF3CE775ADAA528631E739EB5AEB5A5D
:1013F000E739494AD39C1CE7FFFFDFFF9EF7DFFF79
:10140000FFFFDFFFDFFFFFFFFFFFFFFFFFFFFFFF2C
:10141000FFFFDFFFFFFF9EF7FFFF96B58A5275AD16
:101420009EF7DFFFDFFFBEF79EF7DFFF7DEF3CE7B4
:1014300079CEDBDEDFFFFFFF9EF7FFFFDFFFFFFF61
:10144000FFFFFFFFDFFFFFFFFFFF7DEFAE73C73939
:101450008631694A28428631494A2C63BAD69EF7BA
:10146000FFFFBEF7DFFFFFFFFFFF7DEFFFFFFFFF87
:10147000FFFFBEF79EF7FFFFFFFFBEF7FFFFFFFF77
:101480001084CF7B96B5DFFFFFFF9EF79EF73CE70A
:101490005DEF7DEF79CE18C63CE7FFFFBEF7FFFF9B
:1014A000FFFFDFFF9EF7FFFFFFFF9EF7DFFF9EF7C7
:1014B000FBDE8E738631C739C739C739E739A631A4
:1014C000494A55ADDFFFFFFF7DEF9EF7FFFFFFFFAE
:1014D000FFFFFFFF9EF7FFFFDFFF1CE75DEFFFFF52
:1014E0005DEFDFFFFFFF8E73AE731CE77DEF7DEFD7
:1014F000FFFF3CE7FBDEBEF79AD696B5BAD6FFFFF4
:10150000FFFFFFFFDFFFFFFFFFFFFFFFDFFFBEF774
:10151000FFFFBEF7FFFFAE7324218631A631652998
:1015200065294529452986318E73DBDEFFFFDFFF04
:101530009EF7FFFFFFFFFFFFFFFF9EF7FFFF75AD69
:1015400038C61CE7FFFFFFFFFFFF3CE78E7334A5A3
:10155000DFFF3CE79EF71CE7FBDE1CE7FBDED7BDA9
:1015600018C69EF7FFFFDFFFFFFFDFFFFFFFFFFF54
:10157000FFFFFFFFFFFFBEF73CE7E31865294529A2
:10158000A21045292421C3182421C318A2102842DF
:10159000B6B5FFFFFFFFDFFFFFFFFFFFDFFFFFFF2E
:1015A000FFFF14A53CE759CED7BDFFFFFFFF7DEF3E
:1015B000F7BD34A51CE79EF75DEF9EF7FBDE1CE749
:1015C000FBDED7BD38C6DFFFFFFFDFFFFFFFDFFF1A
:1015D000DFFFDFFFBEF7DFFFFFFF9EF72C6345292C
:1015E000E318C3182421E3182000242161084529A9
:1015F000C31820008210EF7B7DEFFFFFFFFFFFFF8E
:10160000DFFFBEF7FFFFF39C79CE1CE718C659CE6B
:101610007DEFFFFFFFFF38C61CE79EF7FBDE3CE7D0
:10162000FBDEDBDEBAD6D7BD59CEDFFFFFFFFFFF03
:10163000FFFFDFFFFFFFFFFFDFFFFFFFFFFFBEF743
:10164000652982108210C3184108A2102421610864
:10165000E318E318A2100421E318821075ADDFFF30
:10166000FFFFFFFFFFFFBEF7FFFF55AD14A5FFFF14
:101670005DEFF7BD79CEFFFF7DEF1CE75DEF5DEF1E
:101680003CE7DBDEFBDE79CE38C6D7BD9AD6DFFF7E
:10169000FFFFFFFFDFFFDFFFFFFFFFFFFFFFFFFF9A
:1016A000FFFF9EF79294EB5A2421A2108631E31893
:1016B00082100421C3184529E31861080842410833
:1016C000F7BDFFFFFFFFFFFFBEF7FFFFFFFF79CE74
:1016D000718C3CE73CE77DEFF7BD9AD6D7BD5DEF57
:1016E0003CE75DEF9AD6FBDE1CE738C618C638C665
:1016F000FBDEDFFFBEF7FFFFFFFFFFFFFFFFFFFF88
:10170000BEF7DFFFDFFF3CE79EF7CF7BAA52242125
:10171000242141088210863104218631C73986315F
:101720002421C318BAD6FFFFFFFFFFFFFFFFFFFF13
:10173000DFFF5DEF6D6B59CEBEF7DBDED7BD75AD5C
:10174000D7BD7DEF3CE71CE714A5D7BD59CE38C601
:101750009AD6DBDE3CE7DFFFDFFFFFFFFFFFFFFF87
:10176000FFFFDFFFBEF7FFFFDFFF1CE714A5CB5A2B
:10177000EF7BC7390000C739CF7BAA524529410802
:101780004529CB5A8210CB5A3CE7BEF7FFFFFFFF3B
:10179000FFFFDFFFDFFFFFFFAE7334A59EF734A529
:1017A00075ADB6B59AD63CE7FBDEB6B5D39C14A5AD
:1017B000308496B51CE7FBDE1CE7FFFFFFFFFFFF51
:1017C000FFFFDFFFDFFFDFFFFFFFFFFF1CE796B537
:1017D00028423084518C4D6B2C63F7BDBAD638C685
:1017E000694A8210610841084529BAD6FFFFBEF751
:1017F000FFFFFFFF9EF7FFFFBEF7FFFF96B54D6BA4
:1018000075ADB6B534A5BAD679CE59CE38C61084E2
:1018100079CEB6B52842F39C3CE7BAD69AD6FFFFFC
:10182000FFFFDFFFFFFFDFFFFFFFFFFFFFFF5DEFBA
:1018300075AD2C63EF7B10848E73FBDE38C6DFFF43
:10184000FFFFBEF7FBDECB5A6529A210D7BDFFFF15
:101850007DEFFFFFFFFFFFFFFFFFFFFFFFFF5DEFDC
:10186000BEF7EB5AB29434A5D7BDB6B59AD6F7BD3C
:10187000518C59CE34A5CB5A108455AD3CE7DBDEF4
:10188000DBDEFFFFDFFFDFFFFFFFDFFF9EF718C696
:10189000F7BDDBDE8E736D6B10846D6B79CEFFFF51
:1018A000BEF7FFFFFFFFDFFFFFFF1CE7B29492943C
:1018B0007DEFFFFFBEF7FFFFFFFFFFFFFFFFBEF75C
:1018C000FFFFFFFFFFFF96B5308496B5B6B5D7BDD5
:1018D000D7BD718C18C614A5EF7B4D6B38C6DBDE07
:1018E000FBDEBAD65DEFFFFFDFFFBEF77DEFFFFF48
:1018F00055AD652965294D6B8E73CF7B8A5279CEA4
:10190000FFFFDFFFFFFFFFFFFFFFFFFF9EF7FFFF70
:101910007DEF5DEFFFFFFFFF7DEFFFFFFFFFFFFFAD
:10192000FFFFFFFFBEF7FFFFFFFF3CE7F39C96B50D
:1019300014A5F7BDD39CF39C55ADAE730C63F39C1B
:1019400038C61CE7BAD659CEDBDE7DEFFFFFFFFFBE
:10195000FFFF518C24212842042141080C632842B6
:1019600034A5FFFFFFFF7DEFFFFFDFFFBEF7FFFFA7
:10197000BEF7FFFFFFFFFFFFFFFFFFFFDFFFFFFFE0
:10198000FFFFFFFFFFFFFFFF7DEF9EF7FFFFD39CF1
:10199000F39C96B596B596B5D39CF7BDCF7BEB5A25
:1019A000EF7B75AD18C6FBDEFBDE1CE7DBDE7DEFF3
:1019B000FFFF9EF78E730421E739A631E739E73937
:1019C00000006D6BFFFFDFFF3CE7FFFFFFFFBEF78F
:1019D000FFFFFFFFFFFFBEF77DEF9EF7DFFFFFFF7B
:1019E000FFFFDFFFFFFFFFFFFFFFFFFFDFFFFFFF47
:1019F000FFFFAA522C63B294B6B5D39C55AD14A583
:101A000030844D6B75ADF39C18C6B6B5D7BD79CE95
:101A100038C61CE75DEFAE73E318494AC73965293C
:101A2000A6312421000034A5FFFF1CE7FFFFFFFFC4
:101A30009EF7FFFFFFFFDFFFFFFFDFFFFFFFFFFF5F
:101A4000FFFFFFFFFFFFDFFFFFFFFFFFFFFFBEF70F
:101A5000FFFFFFFFBEF755ADCB5A694AEF7B92946B
:101A6000F39CF39CF39C14A518C638C655AD718C35
:101A700034A5F7BD75AD59CEB6B586318A52652904
:101A8000A631E739E318610845293CE7BEF77DEF49
:101A9000FFFFFFFFDFFFFFFFBEF7FFFFFFFFFFFFBF
:101AA000FFFFFFFFFFFFFFFFFFFFFFFFFFFFFFFF46
:101AB000FFFFFFFFFFFFBEF79EF7FFFF96B54D6BE1
:101AC0000842EB5ACB5A4D6BCB5A8E73EB5A518C62
:101AD000D39CB29438C6DBDE79CEBAD638C692949F
:101AE000C31828422421042104210000B294FFFFDE
:101AF000FFFFFFFFBEF7BEF7FFFFFFFF7DEFFFFF1A
:101B0000FFFFDFFF9EF79EF7FFFFFFFFFFFFFFFFD7
:101B1000FFFFFFFFFFFFFFFF7DEFFFFFDFFF7DEF19
:101B2000FFFF1CE775ADCF7BCF7B0C634D6B8A52FB
:101B3000E7392842AE733084D7BD59CE9AD69AD6AB
:101B4000F7BDBAD6B294E3188631042182108631EB
:101B5000DFFF7DEF7DEFFFFFFFFFFFFFFFFFDFFFF9
:101B6000FFFFFFFFFFFFFFFFFFFFFFFFFFFFFFFF85
:101B7000DFFFFFFFFFFFFFFFFFFFFFFFFFFFFFFF95
:101B8000FFFFFFFFFFFFFFFFFFFFBEF71CE7FBDECE
:101B900079CE96B5B2946D6B2842AE73718C38C60F
:101BA00018C6BAD6FBDE96B59AD6718C82100000A4
:101BB000C31875ADBEF7DFFFDFFFFFFFFFFFFFFFBD
:101BC000FFFFFFFFFFFFFFFFFFFFFFFFFFFFFFFF25
:101BD000FFFFFFFFFFFFFFFFFFFFFFFFFFFFFFFF15
:101BE000FFFFFFFFFFFFFFFFFFFFFFFF9EF7FFFF6E
:101BF000BEF7FFFFFFFFDFFFDFFF5DEFF39C494A0A
:101C0000718C718C59CEFBDE18C659CE55AD59CEAC
:101C10003084A210AE7379CEFFFF9EF7FFFFFFFF67
:101C2000FFFFFFFFFFFFFFFFFFFFFFFFFFFFFFFFC4
:101C3000FFFFFFFFFFFFFFFFFFFFFFFFFFFFFFFFB4
:101C4000FFFFFFFFFFFFFFFFFFFFFFFFFFFFFFFFA4
:101C5000BEF7FFFFFFFFFFFFFFFFFFFFFFFFDFFFFD
:101C60001CE7718CCB5A518C34A5D7BD9AD6BAD605
:101C700059CE55AD9AD6929496B5FFFFDFFFFFFF80
:101C8000FFFFFFFFFFFFFFFFFFFFFFFFFFFFFFFF64
:101C9000FFFFFFFFFFFFFFFFFFFFFFFFFFFFFFFF54
:101CA000FFFFFFFFFFFFFFFFFFFFFFFFFFFFFFFF44
:101CB000FFFFFFFFFFFFFFFFBEF7DFFFFFFFBEF7E6
:101CC000DFFFDFFFFFFF75AD042110849294718C5C
:101CD0009AD679CEFBDEF7BDF39C9EF77DEF3CE70D
:101CE000FFFFDFFFFFFFFFFFFFFFFFFFFFFFFFFF24
:101CF000FFFFFFFFFFFFFFFFFFFFFFFFFFFFFFFFF4
:101D0000FFFFFFFFFFFFFFFFFFFFFFFFFFFFFFFFE3
:101D1000FFFFFFFFFFFFFFFFFFFFFFFFBEF7FFFF1C
:101D2000FFFFBEF7FFFFFFFFBEF70842A210C73953
:101D30009294B29414A518C638C6FBDE96B5D7BDEA
:101D40009EF71CE7FFFFBEF7FFFFFFFFFFFFFFFF50
:101D5000FFFFFFFFFFFFFFFFFFFFFFFFFFFFFFFF93
:101D6000FFFFFFFFFFFFFFFFFFFFFFFFFFFFFFFF83
:101D7000FFFFFFFFFFFFFFFFFFFFFFFFFFFFFFFF73
:101D8000FFFFFFFF9EF77DEFFFFF9EF74D6B2000EB
:101D9000E318A210694A14A5B29475AD18C638C6E6
:101DA0003CE755AD34A5FFFFFBDEFFFFDFFFDFFFA4
:101DB000FFFFFFFFFFFFFFFFFFFFFFFFFFFFFFFF33
:101DC000FFFFFFFFFFFFFFFFFFFFFFFFFFFFFFFF23
:101DD000FFFFFFFFFFFFFFFFFFFFFFFFFFFFFFFF13
:101DE000BEF7DFFFFFFFFFFFDFFFFFFFBEF7D39C64
:101DF00000000421A210042161084D6BF39C14A57E
:101E0000D7BD38C618C61CE734A559CE5DEF5DEFC7
:101E1000BEF7DFFFDFFFFFFFFFFFFFFFFFFFFFFF5B
:101E2000FFFFFFFFFFFFFFFFFFFFFFFFFFFFFFFFC2
:101E3000FFFFFFFFFFFFFFFFFFFFFFFFFFFFFFFFB2
:101E4000FFFFFFFFFFFFFFFFFFFFDFFF9EF7FFFF2B
:101E500018C68210C31882108210A210C318E3188B
:101E60001084F39CB6B5D7BD59CE38C63CE775ADE6
:101E700059CE3CE79EF7BEF7DFFFFFFFFFFFFFFFF6
:101E8000FFFFFFFFFFFFFFFFFFFFFFFFFFFFFFFF62
:101E9000FFFFFFFFFFFFFFFFFFFFFFFFFFFFFFFF52
:101EA000FFFFFFFFFFFFFFFFFFFFFFFF9EF7FFFFAB
:101EB000DFFFFBDE2842C318C31861080421A2100B
:101EC000410841086529B29414A5D7BD18C618C6A3
:101ED000BAD679CE18C659CE9AD65DEFDFFFDFFFAE
:101EE000DFFFFFFFFFFFDFFFFFFFFFFFFFFFFFFF42
:101EF000FFFFFFFFFFFFFFFFFFFFFFFFFFFFFFFFF2
:101F0000FFFFFFFFFFFFFFFFFFFFFFFFFFFFFFFFE1
:101F1000FFFF3CE7FFFFCB5AE739A631A210C318F9
:101F2000200061082000C318AA528A52B294F7BD5B
:101F300018C696B538C659CEDBDE18C618C659CEB7
:101F40001CE7FFFFFFFFDFFFDFFFFFFFFFFFFFFFDC
:101F5000FFFFFFFFFFFFFFFFFFFFFFFFFFFFFFFF91
:101F6000FFFFFFFFFFFFFFFFFFFFFFFFFFFFFFFF81
:101F7000DFFFFFFF7DEFFFFF3084E739A631284206
:101F8000E31861084108200000006D6B18C68A52F2
:101F9000EB5A14A596B559CE55AD79CEFBDE79CE68
:101FA000F7BDD7BD38C63CE7FFFFFFFFDFFFFFFFF0
:101FB000FFFFFFFFFFFFFFFFFFFFFFFFFFFFFFFF31
:101FC000FFFFFFFFFFFFFFFFFFFFFFFFFFFFFFFF21
:101FD000FFFFFFFFDFFFDFFFFFFF96B5A6312842BF
:101FE0000842863145298210C3180000C739FBDE3C
:101FF000FFFFF7BD08422C6355AD79CED7BDF7BDC5
:1020000038C6BAD69AD679CE18C618C6FBDEFFFFF8
:10201000FFFFBEF7FFFFFFFFFFFFFFFFFFFFFFFF19
:10202000FFFFFFFFFFFFFFFFFFFFFFFFFFFFFFFFC0
:10203000FFFFFFFFFFFFFFFFFFFFFFFF9AD6A63165
:1020400028420842863165294529E3182000E31813
:1020500075ADFFFF7DEFFFFF9294E739718CF39C24
:10206000BAD696B596B538C6DBDEDBDE79CEF7BDDF
:1020700038C61CE7DFFFFFFFFFFFFFFFFFFFFFFF8B
:10208000FFFFFFFFFFFFFFFFFFFFFFFFFFFFFFFF60
:10209000FFFFFFFFFFFFFFFFFFFFFFFFFFFF1CE74B
:1020A000CB5A2842C739C7396529A63165290000AE
:1020B0004108D39CBEF7BEF7FFFFBEF79EF76D6BDE
:1020C000494ACF7B75AD9AD655AD38C659CE79CE33
:1020D000BAD6BAD638C6F7BDDBDEFFFFDFFFDFFFBB
:1020E000FFFFFFFFFFFFFFFFFFFFFFFFFFFFFFFF00
:1020F000FFFFFFFFFFFFFFFFFFFFFFFFFFFFFFFFF0
:102100007DEFEF7BC7398A52C73904210842242169
:10211000042141084D6BFFFFFFFF7DEFFFFF7DEFC7
:10212000FFFF59CE8A522C638E7338C6D7BD18C6AE
:10213000D7BD18C69AD6FBDE9AD618C679CE1CE74C
:10214000BEF7DFFFDFFFFFFFFFFFFFFFFFFFFFFF28
:10215000FFFFFFFFFFFFFFFFFFFFFFFFFFFFFFFF8F
:10216000FFFFFFFFF39C494A0842C7398631863199
:10217000E318E3180000CB5ADBDEDFFFDFFFFFFFD1
:102180009EF7FFFF9EF7FFFF75AD28422C63AE73ED
:102190009AD696B5D7BD18C659CE79CEDBDE1CE7E8
:1021A0009AD6D7BD9EF7BEF7DFFFFFFFFFFFFFFF09
:1021B000FFFFFFFFFFFFFFFFFFFFFFFFFFFFDFFF4F
:1021C000FFFF7DEFFFFFF7BD494A494AA631C739F6
:1021D00045292421863100008631F7BDFFFF9EF797
:1021E000FFFFFFFFDFFFFFFFFFFFDFFFFFFF4D6B85
:1021F0008A524D6BAE7359CE96B579CED39CEB5ABD
:10220000EB5A75ADBEF738C659CE9EF7FFFFBEF745
:10221000FFFFFFFFFFFFDFFFFFFFFFFFFFFF9EF757
:10222000FFFFFFFFBEF7FFFF18C68A522842694A28
:10223000A63186314529084200004108F39C7DEF14
:10224000FFFFDFFFFFFFFFFFBEF7FFFFDFFFDFFF47
:102250009EF7FFFF8A528A526D6B108459CED7BD0C
:10226000308496B596B59294BAD6FBDE18C65DEF6B
:10227000FFFFFFFFFFFFFFFFFFFFFFFFFFFFFFFF6E
:10228000FFFFFFFFFFFFDFFFBEF71CE7C739452950
:10229000E73928426529C7392421610800003084C4
:1022A0009EF7FFFFFFFFDFFFFFFFFFFFDFFFFFFFE7
:1022B000DFFFBEF7FFFFFFFF9AD6E7392C634D6BB8
:1022C000F7BD96B559CEBEF7DFFFBAD659CEBEF7E9
:1022D00038C63CE7FFFFFFFFFFFFBEF7BEF7FFFF7B
:1022E000FFFFFFFFDFFFFFFFFFFFDFFFFFFFBAD6AC
:1022F000E31804210842A631E318452945290000C6
:10230000CB5ADBDEFFFFDFFFDFFFFFFFFFFFFFFF3B
:10231000FFFFFFFFDFFFFFFFDFFF5DEFFFFF55ADBB
:10232000494A6D6BCF7B38C6D7BDFBDE3CE738C66C
:102330005DEF1CE79AD65DEFBEF7DFFFFFFFFFFF03
:10234000DFFFFFFFFFFFFFFFFFFF9EF7FFFFFFFF26
:10235000BEF7FFFFF39C6529042104216529C318FA
:102360000000452959CEBEF7FFFFDFFFFFFFFFFF4B
:10237000DFFFFFFFFFFFDFFFFFFFFFFFDFFFFFFFCD
:10238000BEF7FFFFAE73694A1084F39C59CED7BDE8
:10239000D7BD59CE18C67DEFB6B53CE7FFFFBEF7F7
:1023A000DFFFFFFFFFFFFFFFFFFFFFFFFFFFDFFF7D
:1023B000FFFFDFFFFFFFFFFFBEF734A5694A821072
:1023C000821000002000B294BEF7FFFFFFFFFFFF66
:1023D000FFFFFFFFDFFFFFFFFFFFFFFFDFFFFFFF4D
:1023E000FFFFDFFFFFFFDFFF1CE76D6BAA52B29418
:1023F00075AD79CE59CE14A534A59294F39CFBDE2D
:10240000FFFFFFFFDFFFFFFFFFFFFFFFFFFFFFFFFC
:10241000FFFFFFFFFFFF9EF7FFFF7DEFBEF7FFFF10
:102420009AD60C6341082000CF7BFFFFFFFFBEF769
:10243000FFFFFFFFFFFFFFFFFFFFFFFFFFFFFFFFAC
:10244000BEF7FFFFBEF7FFFFFFFFDFFFFFFF9AD6DC
:10245000AA528A521084718C3084CF7B8A528A525D
:10246000F7BD7DEFFFFFFFFFFFFFFFFFFFFFFFFF58
:10247000FFFFFFFFFFFFBEF7FFFFFFFFBEF7FFFFFE
:10248000FFFFBEF7DFFFDFFF718C694AFBDEBEF79F
:10249000FFFFDFFFFFFFFFFFDFFFFFFFFFFFFFFF8C
:1024A000BEF7FFFFFFFFFFFF9EF7FFFFFFFFBEF737
:1024B000FFFFFFFF38C62C63E739AA528A52284231
:1024C0006D6B34A5FFFFFFFFFFFFDFFFFFFFFFFF87
:1024D000DFFFFFFFFFFFFFFFFFFFFFFFFFFFFFFF2C
:1024E000FFFFFFFFFFFFFFFFFFFFDFFF7DEF3CE789
:1024F0009EF7FFFFFFFFDFFFFFFFFFFFFFFFFFFF75
:10250000FFFFFFFFFFFFFFFFFFFFFFFFFFFFFFFFDB
:10251000FFFFFFFFFFFFDFFFDFFFDBDE75AD929404
:10252000B29496B5DBDEBEF7FFFFFFFFFFFFFFFFB4
:10253000FFFFFFFFFFFFFFFFFFFFFFFFFFFFFFFFAB
:10254000FFFFFFFFFFFFFFFFFFFFFFFFFFFFFFFF9B
:10255000BEF79EF7DFFFFFFFFFFFDFFFFFFFFFFF7D
:10256000FFFFFFFFFFFFFFFFFFFFFFFFFFFFFFFF7B
:10257000FFFFFFFFFFFFFFFFFFFFDFFFFFFFFFFF8B
:10258000BEF79EF7BEF7DFFFFFFFFFFFFFFFFFFF76
:10259000FFFFFFFFFFFFFFFFFFFFFFFFFFFFFFFF4B
:1025A000FFF7FFF7FFFFFFFFFEFFFDFFDEFFFEFF70
:1025B000FDFFFFFF9FEFDFF73FDF9FE7FFF7FFF72D
:1025C000BFF7BFFFDFFFFEFFFEFFFDFFFCFFFCFFCD
:1025D000FCFFFDFFFEFFFFFFDFFFDFFFDFFFDFFF91
:1025E000FFFFFFFFFFFFFFFFFEFFFFFFFFFFFFFFFC
:1025F000FFFFFFFFFFFFFFFFFFFFFFFFFFFFFEFFEC
:10260000FFFFFFFFFFF7FFFFFFFFFFFFFEFFFEFFE4
:10261000DFFFFFFFDDF7FFF77FDFDFCE3C951A8D91
:10262000DDA5FFCE9FEFFFFFFFFFFFFFFFFFFEF7E0
:10263000FEFFFEFFFEFFFEFFFEFFFFFFFFFFDFFFCF
:10264000DFFFDFFFDFFFFFFFFFFFFEFFFEFFFEFFFD
:10265000FFFFFFFFFFFFFFFFFFFFFFFFFFFFFFFF8A
:10266000FFFFFFFFFFFFFFFFFEFFFFFFFFFFDFFF9B
:10267000DFFFDEFFDFFFFFFFFFF79FDF3C8D9F9552
:10268000FF9D1F9E3D85DB7C3B8DDDADDFCE9FE753
:10269000FFF7FFF7FFF7FFFFBEEFDEF7FFFFFFFFDC
:1026A000FFFFDFFFBFFFBFFFFFFFFFFFFFFFFFFFDA
:1026B000FEFFFEFFFFFFFFFFFFFFFFFFFFFFFFFF2C
:1026C000FFFFFFFFFFFFFFFFFFFFFFFFFEFFFFFF1B
:1026D000DFFFDFFFDFFFDFFFDFFFFFF7FFEF9DB66D
:1026E0001222D411D72A7E5C9F7DBFAEFF9D5E8DE6
:1026F000DC7CFB7C9C959FBE9FDFFFEFFFF7FFF725
:10270000BFEFBFF7FFFFFFFFFFFFFFFFFFFFFFFF71
:10271000FFFFFFFFFFFFFFFFFFFFDFFFFFFFFFFFE9
:10272000FFFFFFFFFFFFFFFFFFFFFFFFFFFFFFFFB9
:10273000FEFFFFFFDFFFDFFFDFFFDFFFDFFFFFF752
:10274000FFE71FBFB62A581AF7013702F6017812C1
:10275000FD4B1F753F965F9E9F8DDC74FB7C3B8D10
:102760007FB67FDFFFF7FFF7DFF77EE7BEF7FFFFFC
:10277000FFFFDFFFDFFFDFFFFFFFFFFFFFFFFFFFC9
:10278000FFFFFFFFFFFFFFFFFFFFFFFFFFFFFFFF59
:10279000FFFFFFFFFEFFFFFFDFFFBFFFDFFFDFFFEA
:1027A000DFFFFFF7FFE7BFAEB301590A5A0AFC1A71
:1027B0009A0A3902390AF701170A5B33DF6CFF9571
:1027C0001F9EBF951D85DA7CF9841CAE9FE7FFF73D
:1027D000FFF7DFEFFFFFFFFFFFFFFFFFFFFFFFFF41
:1027E000FFFFFFFFFFFFFFFFFFFFFFFFFFFFFFFFF9
:1027F000FFFFFFFFFFFFFFFFFEFFFFFFDFFFDFFF2A
:10280000DFFFDFFFDFFFFFF7FFE7DFB6F4095A1254
:102810003601D8013A023A0219027B12DC1A5A1226
:10282000D70118125C3B7F64BF951F9E1F9E5D8D74
:10283000B974D87CFCA51FCF5FDF9FEFFFFFFFFFC0
:10284000FFFFFFFFFEFFFFFFFFFFFFFFFFFFFFFF99
:10285000FFFFFFFFFFFFFFFFFFFFFFFFFEFFFFFF89
:10286000DFFFDFFFDFFFDFFFFFFFFFF7FFEFDFB679
:10287000D311591A9200F40055011401B701B701A0
:10288000F8013A125B1A5A1A1912D7091712D92AE3
:102890001D547F853F9E3F9E7E85DA7C19951CB630
:1028A0005FE7FFFFFFFFFFFFFFFFFFFFFFFFFFFFF0
:1028B000FFFFFFFFFFFFFFFFFFFFFFFFFFFFFFFF28
:1028C000FEFFFFFFFFFFDFFFFFFFFEFFFFFFFFF742
:1028D000FFEFFFBE7009F519F200B5015401740154
:1028E0005401F30014011401560119127B1A5A1AEB
:1028F000191219123912170AB9229B3B9F7DFF95B5
:102900005FB67FC69EC6BFEFBFEFFFFFBEF7FEFFFD
:10291000FFFFFFFFFFFFFFFFFFFFFFFFFFFFFFFFC7
:10292000FFFFFFFFFEFFFFFFFFFFDFFFFEFFFEFFDA
:10293000FFFFFFFFFFF77CB6322AB319AF0011018A
:102940007209520131015201B5117409F300D3002B
:10295000F400F600FA113B1A7B1A1A0A390A180217
:102960007A12571A5B6C5FDFDFCE7DBEFFF7FFFF89
:10297000FFFFFFFFFFFFFFFFFFFFFFFFFFFFFFFF67
:10298000FFFFFFFFFFFFFFFFFFF7FFFFFFFFFFFF5F
:10299000FEFFFDFFFEFFFFFFFFFF3ED7797CD22148
:1029A000AE002F097119EF08701130090F093109B4
:1029B0005209740995097601150157015701B901AA
:1029C0003B0A7C121A02180A752ADC847FDFFDADEF
:1029D0001FD7FFF7DFEFFFFFFFFFFFFFFFFFFFFF47
:1029E000FFFFFFFFFFFFFFFFFFFFFFFFFFF7FFFFFF
:1029F000FFFFFFFFFEFFFDFFFEFFFEFFFDF7DFEF26
:102A00007CA54F196C000E11CD080E110D112D1162
:102A1000CC080E0950091001320953013401550147
:102A2000F500D4001601B901B9017A1A151A13225A
:102A30007FB6BFDF9A9DDFEFFFF7FFFFFFFFFFFFCE
:102A4000FFFFFFFFFFFFFFFFFFFFFFFFFFFFFFFF96
:102A5000FFF7FFFFFFFFDFFFFEFFFDFFFEFFFEFFB3
:102A60009CEFFFF71B95EE10AD002F118D00F54A7E
:102A70001B953B9DB563B242F029ED00EE00CF00FF
:102A800011015201F611950155013501B3003401D0
:102A900074019311B5323FCFFFC65CB6FFF7FFFF5D
:102AA000FFFFFFFFFFFFFFFFFFFFFFFFFFFFFFFF36
:102AB000FFFFFFFFFFFFFFFFDFFFDFFFDFFFFEFF87
:102AC000FEFFFFFFFEFFFFF7DB8C2F112F11CE085B
:102AD0008D00F96BFFEFFFF79FC6DFCEDFEFDFCE94
:102AE000FC84B43AF1218D005109F0007301B4095E
:102AF00074011301F20094096D00564BFFE77DBE8F
:102B00007BBEFFFFFFFFFFFFFFFFFFFFFFFFFFFF9A
:102B1000FFFFFFFFFFFFFFFFFFFFFFFFDFFFDFFF05
:102B2000DFFFDEFFDFFFFFFFFFFFFFEF9E9DEF08F0
:102B3000CF004D00CF00F2299FE73FDF72638B216A
:102B4000B042777CFFCEDFE775536E11F4424F0938
:102B50000E01CE00B2119311540175093101CD005F
:102B6000BD9D7FD73AB67EE7DFF7DEF7FFFFFFFFB9
:102B7000FFFFFFFFFFFFFFFFFFFFFFFFFFFFFFFF65
:102B8000DFFFDFFFFFFFFEFFDFFFDFFFBEF7FFF727
:102B90001FCF3109EE00CD00122A0900E9087DC6D9
:102BA000FFF75EBEF04A05002A11703A8D19B23A5D
:102BB000FFE7FFC63A6CED080E09CE00120154097A
:102BC0003201EF006E115FB6DFEF579D9FEFBEF74A
:102BD000DFFFFFFFFFFFFFFFFFFFFFFFFFFFFFFF25
:102BE000FFFFFFFFFFFFFFFFFFFFFEFFDFFFBFFF56
:102BF000FFFFDFEF7FAE91094900F66B7FE7199584
:102C00006C3A2711F36B1FD7FFEF5C9569002D0914
:102C10004E118B00D44ABC847763F5523763F23986
:102C2000CF08F1081309D200D52154321FAE8B19F9
:102C3000DED6BFF7FFFFDFFFFFFFFEFFFDFFFDFF5B
:102C4000FFFFFFFFFFFFFFFFFFFFFFFFFEFFFEFF96
:102C5000DFFFBFFF1DEFFFF73FA69209AB00167C19
:102C6000DFFFBFF7FFFF9DCE968C7EBEFFEF9FDF9D
:102C7000FB8CCB08AB008B0049002900AE29798C76
:102C8000DA9CB2522D19EE08B000D1009411142232
:102C90001D8D6B111FDFDFFFDFFFDFFFFFFFFFFF7A
:102CA000FDF7FDF7FFFFFFFFFFFFFFFFFFFFFFFF48
:102CB000FEFFFEFFDEFFBEFFFFFF5FDFB632320129
:102CC0004D000A00503917731CADBFFFDFFFBFF77F
:102CD000DFF7FFF75FE7C8089363567C7263EF4A3C
:102CE000B68CBDCE1ED7FED67FDF797CED006D00A1
:102CF000D211D5321B85CC215FE7FFFFDFFFBFFF7D
:102D0000DFFFFFFFFFF7FFFFFFFFFFFFDFFFDFFF3B
:102D1000DFFFFFFFFFF7FEF7DEFFDEFFBFFFFFD69F
:102D2000510113018E082C100B080B104C10CD20F4
:102D300015633DAD7FD65FCE9473C810DFF7FFFFFC
:102D40007FE7BFEFFFF7FFF7BDE7FFF7FFF71FCF05
:102D5000F342AC00900951221A7D8A195FDFBFF758
:102D6000DFFFBFFFDFFFDFFFFFFFFFFFFFFFFFFF13
:102D7000DFFFDFFFDFFFFFFFFFF7FEF7FFFFDFFFF4
:102D8000DFFFBFCE300193112B006B200A200B1800
:102D90006E100B004D006D086C102A082910B67BD0
:102DA0007FFFDFFFDFFFBFF79FEFBFEFFFF7FFF70B
:102DB000FFEFFFEF386CCC00900931227B852B228E
:102DC0007EDFDFF7DFFF9FFFDFFFDFFFDFFFFFFFBC
:102DD000FFFFFFFFFFFFFFFFDFFFFFFFFFF7FFF733
:102DE000DFFFDFFFFFFF3CB60E01B2190700A82886
:102DF000052826202808CC104A080A008D186D10D6
:102E00000B008D187352398C9FD6DFFFDFF7DFF789
:102E1000FFF79FEFFFF79FC672326C00F219322264
:102E2000B86CF67CFFEFFFFFFFFFDFFFDFFFDFFF88
:102E3000DFF7FFFFFFFFFFFFFFFFFFFFFFFFFFFFCA
:102E4000FFF7FFF7DFFFDFFF9FEFDEC6EF196C092B
:102E5000A83132BD6EB4288BC35102310008461828
:102E6000AB180B004E0070004F002D006C008F2936
:102E7000F35AB573B583D58391526F218E008F00BD
:102E80007309D632712A1BA6FFEFFFFFFEFFFEFF7C
:102E9000FFFFFFFFDEFFFFFFFFFFFFFFFEFFFEFF65
:102EA000FFFFFFFFFFF7FFF7DFFFBFFFFFFF9DC63D
:102EB0008C090901274290C5CBBC2BD56AD567B4D4
:102EC000A79B456282202510691009000C00F018AC
:102ED0006E080B004C084B080800090809004C0854
:102EE000D1100F0055095FA63122756CFFE7FEF780
:102EF000DDFFDCFFFEFFFEFFFDFFFEFFFFFFFFFF2C
:102F0000FEFFFEFFFFFFFFFFFFF7FFF7DFFFBFFF43
:102F1000FFFF7CBE8C094A09474AB4E66DD586BCE2
:102F200025DD24DD24D545D506CD05AC8472644964
:102F3000031807100B104E104E082D004D008D0881
:102F40006C100B089110310035111E645FAE8B11AF
:102F50005DD7FEF7FDFFFDFFFDFFFDFFFDFFFEFF5F
:102F6000FFFFFFFFFEFFFEFFFFFFFFFFFFF7FFF783
:102F7000DFFFBFFFFFFF7CBE8D094B09AB52DBFFBC
:102F800078FF55FFABED67E505DDE4DC05DD06DD2B
:102F9000E7DCA9D46CC4C98AE548041806102808DF
:102FA00069088A1028102A10B01851005100F62123
:102FB0003E858B113ED7FFF7FDFFFDFFFEFFFEFFB5
:102FC000FEFFFEFFFFFFFFFFFFFFFFFFFFFFFFFF13
:102FD000FFF7FFF7DFFFBFFFFFFF9EC66F09ED00A2
:102FE0004E429FFF9FFF9EFF9DFF9CFFD8FEF4FD7A
:102FF00030F5CCE4A9E4A6E4E5EC25ED46EDC7D434
:10300000659BA259603000184320041009008E0807
:103010003319D4215F8D6B113ED7FFF7FEFFFFFF01
:10302000FFFFDFFFFFFFFFFFFFFFFFFFFFFFFFFFD0
:10303000FFFFFFFFFFF7FFF7DFFFBFFFDFFF5DBE13
:1030400070093001924ABFFF9FFF7FFF1FFF5FFFA4
:103050007FFF7FFF7DFFF7FE51FEECFDE4E4C2DC65
:10306000C1DC03E527EDE9E44AD4CABB256A454142
:1030700005084A089221F4297F950A093FD7FFF7EE
:10308000FFFFFFFFDFFFDFFFFFFFDFFFFFFFFFFFB0
:10309000FFFFFFFFFFFFFFFFFFF7FFF7DFFFBFFFB0
:1030A000DFFF5DBE70093101B34A9FF7FFEE7FEE8F
:1030B0009FFF9FFFBFFFBEFFFCFFFBFFF9FFD8FF95
:1030C000D8FFF5FEAFEDCBE469EC68F446FC46ECC6
:1030D000CBCCAEACAC62C9180E1950197E956B11F1
:1030E0003FD7FFF7DFFFDFFFDFFFDFFFDFFFDFFFA0
:1030F000FFFFFFFFFFFFFFFFFFFFFFFFFFFFFFFFE0
:10310000BFFFBFFFDFFF7EC670092F01913A7FEF3F
:10311000BFDE3CCEBAC51ACEDBDEBDF7FDFFFDFF3C
:10312000FDFFFDFF5BF7BDFFBDFF7AFF74FEAEFD47
:103130002AFDE8EC4ADDCFD5509C09290D19B021B4
:10314000BE9DAC193ED7FFF7FFFFFFFFFFFFDFFF7C
:10315000FFFFDFFFFFFFFFFFFEFFFEFFFEFFFFFFA2
:10316000FFFFFFFFBFFF9FFFDFFF5DC66F096E011F
:103170003043FFF7FFFFFDF7DDE77BD7B9C637B672
:1031800017BE9AD65DF7FFFFFEFFFDFFDCFFBBFF1A
:10319000FBFFFBFFFAFF76F78BCDCEDDB0B4C72087
:1031A0002D2111325D952A113ED7FFF7FEFFFEFF5C
:1031B000FFFFDFFFFFFFFFFFFFFFFFFFFCFFFDFF44
:1031C000FEFFFFFFFFFFFFFFBFFFBFFFDFFF7DBE73
:1031D0008F094E01AE3ADFE7BCEF9AE7FDEFFDEF56
:1031E000FEF7FEEF1CDF5ACEF9CDD8CD9ADE7CF784
:1031F000FEFFFDFFFDEFFEEFFEE7FDF7F8FFD9FF55
:103200009AE64A312D19F1293B8D8A193ED7FFF7ED
:10321000FEFFFEFFFFFFFEFFFFFFFFFFFFFFFFFFC1
:10322000FBF7FCFFFFFFDFFFDFFFDFFFDFFFFFFF3D
:10323000FFF7DFC64F090F01B342DFF73DE7D4BD0B
:1032400056C6D8CE5BE7DEF7FFFFFFFFDFFF9FF735
:103250009AD658C617BE78C61BD7DDE7FEEFFEF735
:10326000FDFFDFFF5FEF6D212D0910229C8DA9115D
:103270005DD7FFF7FFFFFFFFFFFFFFFFFFFFFFFF30
:10328000FFFFFFFFFBF7FCF7FFFFDFFFBFFFBFFF05
:10329000FFFFFFF7FFEFDFBE4F09300933325FE773
:1032A0009FF7FEFF5CF7FBE659CE18C659CEFBE64A
:1032B0009EF7FFFFFFFFFFFF9EEFFBDE79C638C6DC
:1032C00079CEBAD65EEFDFFF3FDF8E194F11312284
:1032D0009B8D89095DD7FFF7FFFFFFFFFFFFFFFF12
:1032E000FFFFFFFFFFFFFFFFFEF7FFF7FFFFBFFF3F
:1032F000BFFFBFFFFFFFFFF7FFE79DAE6E09901115
:1033000052329FEF1CE79CF75FF79FFF9FFF5FF72D
:10331000DCDE59CE38CE57CE3BE77CEFDEFFFFFF39
:10332000FFFFBFF7FDDE5ACE1DE7BFF73FDF8E1967
:103330004E1131227B8D89115DD7FFF7FFFFFFFF13
:10334000FFFFFFFFFFFFFEFFFFFFFFFFFFF7FFFF96
:10335000DFFFBFFFBFFFBFFFFFFFFFF7FFEFBEB6FF
:103360006D092E09102ABFEFF8B554A51AC69CD6D0
:103370003FEFDFFFFFFFBFF75DEF1BE758CE38C61B
:1033800018C69AD63DEFBFFFFFFFDFFF9EF7FFFF96
:103390003FE76D192E0910227B8D89115ED7FFFF43
:1033A000FFFFFFFFFFFFFFFFFFFFFEFFFFFFFFFF2E
:1033B000FFF7FFFFDFFFBFFFBFFFDFFFFFFFFEF7EE
:1033C000FFEFBEB64C090D01F0297FDFFDD63CE7CB
:1033D00099CEF6BD55AD76AD59CE3DE79FF7BFFF0F
:1033E000BFFF9FFF3EEF9BDEF8CDF7C579D6FAE62B
:1033F0009DFFFFFF5FE78D212E1110227C8D8A112A
:103400003ED7FFFFFFFFDFFFFFFFFFFFFFFFFEFFD6
:10341000FFFFFFFFFEFFFFFFFFFFDFFFDFFFDFFF1D
:10342000FEFFFEF7FFEF7DB66D118F116F197A7CED
:103430009BAD7FE79DE77CE71BDF9ACE19BED8BD29
:10344000F9BD1AC6FEE65FEFDFFFFFFFBEFF1BEF11
:1034500098DE57D65BF7DFFF5FE78D214E11112213
:103460005C8D49113FDFFFFFDFFFDFFFFFFFFFFF45
:10347000FFFFFEFFFFFFFFFFFCFFFDFFFFFFFFFF62
:10348000DFFFFFFFFDFFFEF7FFF79EBE6E1150113D
:103490008E00CE088F29904AB68CD9AD3ED7BFEFAB
:1034A0005EDFBCCE7AC659C695AD95B5F6BD99D648
:1034B0005BEFDDFFFEFFFDFF3BEFBFFF3FE76D2151
:1034C0004E1111225C956A113FDFFFFFDFFFDFFF26
:1034D000FFFFFFFFFFFFFEFFFFFFFFFFFCFFFCFF03
:1034E000FEFFFEFFFFFFFEFFFDFFFEF7FFF79EBEA4
:1034F0002C112F11711951199021AB08CA084B11C9
:103500006F3A3574FBAD1ED75EDF3DDF3CDF1BDF5E
:10351000B9CE16BEB5B5D5B577CEF9DE9CF7FFFFAF
:103520003FDF4C190D09F1217C958B213FDFFFFF17
:10353000DFFFDFFFDFFFFFFFFFFFFEFFFFFFFFFFFC
:10354000FCFFFDFFFEFFFEFFFEFFFEFFFEFFFEFF96
:10355000FFF71FD799841132AD08CE084F1970219B
:10356000B22171190E09CC000B090E2AF46B99A532
:10357000BCC63DD75DDF1BD7FAD61AD777C6B4AD28
:10358000F7BD9FEF1FDF4D196F11D0199D9D4A1197
:103590001FDFDFFFDFFFBFFFDFFFFFFFFFFFFFFFDB
:1035A000FFFFFFFFFEFFFEFFFFFFFFFFFFFFFFFF2D
:1035B000FEFFFFFFFFFFFFF7FFF71FD7DFAD397CEF
:1035C00071420D11CE00EF087119D121B0214D11BA
:1035D0000B090A098B19715B799D9CBEDDCE1DD745
:1035E0003DD73DDFDCD6DDD69FC66E19B11912225C
:1035F000FB84CC213FDFFFFFDFFFDFFFDFFFFFFFAB
:10360000FFFFFFFFFFFFFFFFFFFFFFFFFFFFFFFFCA
:10361000FFFFFFFFFFFFFFFF7DEFDFF7FFFFFFF77C
:10362000FFF7BFEF3FD79FC65774144BCF210C094C
:10363000ED080E114F1170192F11EE10ED086E21CB
:10364000D24A997C1EB61FD73FDFFFD69FC6CD005A
:10365000AD00532A1B85CC213EDFFFFFDFFFDFFFDC
:10366000DFFFFFFFFFFFFFFFFFFFFFFFFFFFFFFF8A
:10367000DFFFFFFFFFFFFFFFFFFFFFFFFFFFFFFF7A
:10368000FFFFDFF7DFF7FFF7FFF7FFEFFFEF7FD772
:103690003DAE3A8D5874555B11322F110F11101138
:1036A000301951191011EF085019113298849CA546
:1036B000BFA591111001742A1A8528093EDFDFFF8A
:1036C000DFFFDFFFDFFFFFFFFFFFFFFFFFFFFFFF6A
:1036D000DFFFDFFFFFFFFFFFFFFFFFFFFFFFFFFF3A
:1036E0009EF7BEFFDEFFFEFFFFFFFFFFFFF7FFF7C6
:1036F000FFEFFFEFFFF7FFF7FFF7BFE79EBE7B9DF2
:10370000946331320E09F010732195215519331944
:103710004B000C092F09CF003101B1115C8D0B2A30
:103720003DD7DEF7DFFFBFFFDFFFFFFFFFFFFFFF3C
:10373000FFFFFFFFFFFFFFFFFFFFFFFFFFFFFFFF99
:10374000FFFFDFFFFFFFFFFFFEFFFEFFFDFFFEFFAE
:10375000FEF7FEF7FFFFFFFFDFF7BEEFFFEFFFF71C
:10376000FFF7FFF7FFF75FD7BDA5D863D1218E0024
:10377000D0007219B021F121CF0073099309B1096A
:103780001A7D27095DDFFEFFFEFFBEFFDFFFDFFFC3
:10379000FFFFFFFFFFFFFFFFFEFFFEFFFEFFFFFF3C
:1037A000FFFFFFFFFFFFDFFF9FFFBEFFDEFFFEFF0C
:1037B000FEFFFFFFFFFFFFFF9CEFDDFFFEFFFFFFB0
:1037C000FFFFFFFFFFF7BFE7DFEFFFF7FFEFFFEFC1
:1037D0005FD7588DCE3A29090C093009D0009409D9
:1037E000730154225B85C9199EE7FEFFFEFFBEFFF1
:1037F000DFFFDFFFFFFFFFFFFFFFFFFFFEFFFEFF1B
:10380000FEFFFEFFFFFFFFFFFFFFFFFFDFFFDFFF0A
:10381000DEFFFEFFFEFFFFFFFFFFFFFFFEFFFEFFDD
:10382000FEFFFEFFFFFFFFFFFFFFFFF7FFF7FFF7C2
:10383000FFEFFFEFFFF7FFEFDDDF3DCFB884B33AD7
:103840009111B2198D00AF11FC9D7795DEEFFEFF4F
:10385000FEFFBEFFDFFFFFFFFFFFFFFFFFFFFFFFDA
:10386000FFFFFFFFFFFFFFFFFFFFFFFFFFFFFFFF68
:10387000FFFFFFFFFFFFFFFFFFFFFFFFFFFFFFFF58
:10388000FFFFFFFFFFFFFFFFFFFFFFFFFFFFFFFF48
:10389000FFFFFFFFFFFFFFFFFFFFFFF7FFF7FFF750
:1038A000FFFFFFF71FD7D98CF24AD46BBDC6FFF7D5
:1038B000FFFFFEFFFFFFFFFFFFFFFFFFFFFFFFFF19
:1038C000FFFFFFFFFFFFFFFFFFFFFFFFFFFFFFFF08
:1038D000FFFFFFFFFFFFFFFFFFFFFFFFFFFFFFFFF8
:1038E000FFFFFFFFFFFFFFFFFFFFFFFFFFFFFFFFE8
:1038F000FFFFFFFFFFFFFFFFFFFFFFFFFFFFFFFFD8
:10390000FFFFFFFFBEF7DFFFFFFFDFF7BFEFFFF7B0
:10391000FFF7BDEFFEFFFEFFFFFFFFFFFFFFFFFF13
:10392000FFFFFFFFFFFFFFFFFFFFFFFFFFFFFFFFA7
:10393000FFFFFFFFFFFFFFFFFFFFDFFFFFFFFFFFB7
:10394000DFFFDFFFFFFFFFFFFFFFFFFFBFFF5DF7B1
:103950003DEF3DEF3CEF1CE77DF75DEF5DEF5DEF89
:103960005CEF7DF77DF79DF79DF7BDF7FEFFFFFF4D
:10397000BEF7DFFFFFFFFFFFFFFFFFFFFFFFFFFFC0
:10398000FFFFFFFFFFFFFFFFFFFFFFFFFFFFFFFF47
:10399000FFFFFFFFFFFFFFFFFFFFFFFFFFFFDFFF57
:1039A000FFFFFFFFDFFFDFFFFFFFDFFF7EF77EF799
:1039B0005DEF1CE71CE71CE71CE7DBDE1CE71CE7F0
:1039C0001CE71CE71BE71BE7FBE6FBDEB9D61ADFAB
:1039D0009DF7FFFFFFFFFFFFFFFFDFFFFFFFFFFF81
:1039E000FFFFFFFFFFFFFFFFFFFFFFFFFFFFFFFFE7
:1039F000FFFFFFFFFFFFFFFFFFFFFFFFFFFFFFFFD7
:103A0000FFFFDFFFFFFFFFFFFFFFFFFFFFFF9EF74F
:103A1000FCE61CEF3DEF1CE71CE73CEF1CE7FCE677
:103A2000FBE61BE71CE71CE71BE7DADEB9D699D6F5
:103A300037C657C6DADEDEF7FFFFFFFFFFFFDFFF07
:103A4000FFFFFFFFFFFFFFFFFFFFFFFFFFFFFFFF86
:103A5000FFFFFFFFFFFFFFFFFFFFFFFFFFFFFFFF76
:103A6000FFFFFFFFFFFFFFFFFFFFFFFFFFFFFFFF66
:103A7000DFFF5DEFDBDE1CE73DEF3CEF3DEF5DEF91
:103A80003DEF1CE7FBE61BE71BE71BE7FBE6DADE87
:103A900099D678CE37C616BE37C61BE7FFFFFFFFA5
:103AA000DFFFFFFFFFFFFFFFFFFFFFFFFFFFFFFF46
:103AB000FFFFFFFFFFFFFFFFFFFFFFFFFFFFFFFF16
:103AC000FFFFFFFFFFFFFFFFFFFFFFFFFFFFFFFF06
:103AD000FFFFFFFFDFFF3CE79AD6DBE61CEF1CEFA2
:103AE0001CEF1CEF1CE7FBE6DBDEDADEDADEBADE1B
:103AF00099DE79D658CE58CE58CE17C6D6BD99D6AF
:103B0000BEF7DFFFDFFFFFFFFFFFFFFFFFFFFFFF4E
:103B1000FFFFFFFFFFFFFFFFFFFFFFFFFFFFFFFFB5
:103B2000FFFFFFFFFFFFFFFFFFFFFFFFFFFFFFFFA5
:103B3000FFFFFFFFFFFFFFFFDFFF1CE79AD6FBE65B
:103B40003CEF1CEF1CE71CE7FBE6FBE6DADEDADE07
:103B5000BADE99D679D658CE38CE37CE37C637C6E4
:103B6000F6BD99CEDEFFFFFFBEF7FFFFFFFFFFFFB1
:103B7000FFFFFFFFFFFFFFFFFFFFFFFFFFFFFFFF55
:103B8000FFFFFFFFFFFFFFFFFFFFFFFFFFFFFFFF45
:103B9000FFFFFFFFFFFFFFFFDFFFFFFFDFFF1CE770
:103BA000BADEFBE63CEF3CEF1CEF1CEF1BE71BE72C
:103BB000DAE6DADEBADE99D678D658CE37CE17C630
:103BC000D6BD57C6F6BD79CEFEFFFFFFBFF7FFFF9C
:103BD000FFFFFFFFFFFFFFFFFFFFFFFFFFFFFFFFF5
:103BE000FFFFFFFFFFFFFFFFFFFFFFFFFFFFFFFFE5
:103BF000FFFFFFFFFFFFFFFFFFFFFFFFDFFFFFFFF5
:103C0000DFFF1CE79AD6FBE63CEF3CEF1BE71BE728
:103C10001BE71BE7DADEDADEBADE99D678D637CED6
:103C2000F6C5D6BDB5B557C6F6BD58CEDEFFFFFF0B
:103C3000DFFFFFFFFFFFFFFFFFFFFFFFFFFFFFFFB4
:103C4000FFFFFFFFFFFFFFFFFFFFFFFFFFFFFFFF84
:103C5000FFFFFFFFFFFFFFFFFFFFFFFFDFFFFFFF94
:103C6000FFFFDFFFFFFF1CE7BADEFBE61BEF1BEFEA
:103C70001BEF1BEF1BEF1BE7FAE6DAE6B9DE78D69F
:103C800037CE16CEF6C5D6BDF6BD16C6D6BD58CEB5
:103C9000FFFFDEFFFFFFFFFFFFFFFFFFFFFFFFFF55
:103CA000FFFFFFFFFFFFFFFFFFFFFFFFFFFFFFFF24
:103CB000FFFFFFFFFFFFFFFFFFFFFFFFFFFFFFFF14
:103CC000DFFFFFFFFFFFDFFFFFFF1CE7BADEFBE6C2
:103CD0001BEFFBE6FBE6FBE6FBE6DAE6DAE6DADE1E
:103CE00099DE78D637CE16C6F6C5D5BDF6BD37C631
:103CF000F6BD78CEFFFFDEFFFFFFDFFFFFFFFFFF18
:103D0000FFFFFFFFFFFFFFFFFFFFFFFFFFFFFFFFC3
:103D1000FFFFFFFFFFFFFFFFFFFFFFFFFFFFFFFFB3
:103D2000FFFFFFFFDFFFFFFFFFFFDFFFFFFF1CE7DE
:103D30009ADEDAE6FBEEFBE6FBE6FAE6FAE6DAE620
:103D4000B9DE99DE78DE57D617CEF6C5D5C5B5BD36
:103D5000D6BD16C6D6BD58CEFFFFDEFFFFFFDFFF84
:103D6000FFFFFFFFFFFFFFFFFFFFFFFFFFFFFFFF63
:103D7000FFFFFFFFFFFFFFFFFFFFFFFFFFFFFFFF53
:103D8000FFFFFFFFFFFFFFFFDFFFFFFFFFFFDFFF83
:103D9000FFFF1CE779D6BADEFAE6FAE6FAE6FAE6BB
:103DA000FAE6DAE699DE98DE78D637CE16CED5C5B5
:103DB000B5BDB5BD94B5D6BDB5B558CEFFFFDEFFD8
:103DC000FFFFDFFFFFFFFFFFFFFFFFFFFFFFFFFF23
:103DD000FFFFFFFFFFFFFFFFFFFFFFFFFFFFFFFFF3
:103DE000FFFFFFFFFFFFFFFFFFFFFFFFDFFFFFFF03
:103DF000FFFFDFFFFFFF1CE779D6B9DEDAE6FAE660
:103E0000DAE6DAE6DAE6B9DE99DE98DE78D637CE9B
:103E1000F6C5D5C594BD94BD74ADD5B5B5B558CE70
:103E2000FFFFDFFFFFFFDFFFFFFFFFFFFFFFFFFFE2
:103E3000FFFFFFFFFFFFFFFFFFFFFFFFFFFFFFFF92
:103E4000FFFFFFFFFFFFFFFFFFFFFFFFFFFFFFFF82
:103E5000DFFFFFFFFFFFDFFFFFFF1CE799DEDAE672
:103E60001BEFFBEEFAE6DAE6B9E699DE98DE78D6E5
:103E700057D616CED5C594BD74B553B574ADD5B56A
:103E8000B5B578CEFFFFDFFFFFFFDFFFFFFFFFFFCE
:103E9000FFFFFFFFFFFFFFFFFFFFFFFFFFFFFFFF32
:103EA000FFFFFFFFFFFFFFFFFFFFFFFFFFFFFFFF22
:103EB000FFFFFFFFDFFFFFFFFFFFDFFFFFFF1CE74D
:103EC00037CE78D6B9DEB9DEB9DEB9DE98DE78D67F
:103ED00057D637CEF6C5B5BD73B532AD12ADF1A428
:103EE00012A574AD95AD58C6FFFFFFFFFFFFDFFFC2
:103EF000FFFFFFFFFFFFFFFFFFFFFFFFFFFFFFFFD2
:103F0000FFFFFFFFFFFFFFFFFFFFFFFFFFFFFFFFC1
:103F1000FFFFFFFFFFFFFFFFDFFFFFFFFFFFDFFFF1
:103F2000FFFF1BE754B594C5F4CD14D614DE34DE80
:103F300014DEF3DDD3D5D2D591CD50C50FB5CEACBF
:103F40008DA46EA48F9C11A532AD16C6FFFFFFFF96
:103F5000FFFFFFFFFFFFFFFFFFFFFFFFFFFFFFFF71
:103F6000FFFFFFFFFFFFFFFFFFFFFFFFFFFFFFFF61
:103F7000FFFFFFFFFFFFFFFFFFFFFFFFFFFFFFFF51
:103F8000FFFFDFFFBEF77DF74B7BEC9BE99BAABCF5
:103F900047BC67C467CC68D4C9D4C9D4E8D4E7D4D3
:103FA000E8CCC8CCC9CCCBCC4FCD71C54D9477D61D
:103FB000FEFF9DF7FFFFFFFFFFFFFFFFFFFFFFFF7C
:103FC000FFFFFFFFFFFFFFFFFFFFFFFFFFFFFFFF01
:103FD000FFFFFFFFFFFFFFFFFFFFFFFFFFFFFFFFF1
:103FE000FFFFFFFFFFFFDFFFBEF79DFF2E9CCA9B79
:103FF00028B4E9D4A6D4C6E4A6E4A6ECE6EC06ED23
:1040000025ED45ED45ED67ED68ED6BE58FDD50C5C0
:104010006DA4F8EEFEFFDEF7FFFFFFFFFFFFFFFFDF
:10402000FFFFFFFFFFFFFFFFFFFFFFFFFFFFFFFFA0
:10403000FFFFFFFFFFFFFFFFFFFFFFFFFFFFFFFF90
:10404000FFFFFFFFFFFFFFFFFFFFDFFFDFFFDEFFE1
:1040500011B5488B48B4C8CCE6DCE5E4C5E4C5EC52
:1040600006F525F545ED64EDA5F5A7F5A9F5ACED4B
:10407000F0E50FBDAEA49BFFFEFFFFFFFFFFFFFFBC
:10408000FFFFFFFFFFFFFFFFFFFFFFFFFFFFFFFF40
:10409000FFFFFFFFFFFFFFFFFFFFFFFFFFFFFFFF30
:1040A000FFFFFFFFFFFFFFFFFFFFFFFFDFFFDFFF60
:1040B000FFFFFEFFD4CDE67A28ACA6C405DD04E5FB
:1040C000C4E4E4EC45F565F584F5A4F5A4EDA6EDAE
:1040D000A7F5AAEDD0DDADAC10B5FDFFDDFFFFFF0C
:1040E000FFFFFFFFFFFFFFFFFFFFFFFFFFFFFFFFE0
:1040F000FFFFFFFFFFFFFFFFFFFFFFFFFFFFFFFFD0
:10410000FFFFFFFFFFFFFFFFFFFFFFFFFFFFFFFFBF
:10411000FFFFDFFFFFFFFEFFD8EE478327A4A6C403
:1041200026DD24E504ED24F585FDA4F5A3F5C3F50E
:10413000E4F5E5F5C7F5AAEDAFD54D9CB2C5FDFF99
:10414000DDFFFFFFFFFFFFFFFFFFFFFFFFFFFFFFA1
:10415000FFFFFFFFFFFFFFFFFFFFFFFFFFFFFFFF6F
:10416000FFFFFFFFFFFFFFFFFFFFFFFFFFFFFFFF5F
:10417000FFFFFFFFFFFFFFFFFFFFFEFF7BFF0B9C2B
:10418000C69BA6BC46DD44E503E544F584F5A3F5EE
:10419000C3F5E3F503F605F6E7F5EBED8FD56D9C7A
:1041A00096DEFDFFFEFFFFFFFFFFFFFFFFFFFFFFAC
:1041B000FFFFFFFFFFFFFFFFFFFFFFFFFFFFFFFF0F
:1041C000FFFFFFFFFFFFFFFFFFFFFFFFFFFFFFFFFF
:1041D000FFFFFFFFFFFFFFFFFFFFFFFFFFFFDEFF10
:1041E000DDFFEFB4858BA6BC26DD44E523E584F531
:1041F00083F5A3F5C2F502F604F625F607FE2BF6C5
:104200008FCD8EA47AFFFDFFFFFFFFFFFFF7FFFFBB
:10421000FFFFFFFFFFFFFFFFFFFFFFFFFFFFFFFFAE
:10422000FFFFFFFFFFFFFFFFFFFFFFFFFFFFFFFF9E
:10423000FFFFFFFFFFFFFFFFFFFFFFFFFFFFFFFF8E
:10424000DFFFBEFFFEFFB3CD658BA7BC46DD65E596
:1042500043EDA4FDC4FDE4FD03F623F645F646FE5A
:1042600049FE4CF66FC5AFA4FDFFBDFFFFFFDFF7B2
:10427000BEF7FFFFFFFFFFFFFFFFFFFFFFFFFFFF97
:10428000FFFFFFFFFFFFFFFFFFFFFFFFFFFFFFFF3E
:10429000FFFFFFFFFFFFFFFFFFFFFFFFFFFFFFFF2E
:1042A000FFFFFFFFFFFFFFFFBEFFF9F6678B26ACA6
:1042B00088DDA6ED65EDC5FD05FE04FE23F624F6BA
:1042C00045F627F629FE6EF68CACF4CDFDFFBDF762
:1042D000FFFFFFFFFFFFDFF7FFFFFFFFFFFFFFFF16
:1042E000FFFFFFFFFFFFFFFFFFFFFFFFFFFFFFFFDE
:1042F000FFFFFFFFFFFFFFFFFFFFFFFFFFFFFFFFCE
:10430000FFFFFFFFFFFFFFFFFFFFFFFFDFFF3BFFA1
:10431000E99326A468DDA6ED85EDC5FD05FE25FE25
:1043200024F645F646F648F64AF64EF68DAC36CEFD
:10433000FEFFBDF7FFFFFFF7FFFFDFF7FFFFFFFF08
:10434000FFFFFFFFFFFFFFFFFFFFFFFFFFFFFFFF7D
:10435000FFFFFFFFFFFFFFFFFFFFFFFFFFFFFFFF6D
:10436000FFFFFFFFFFFFFFFFFFFFFFFFFFFFFFFF5D
:10437000DFFF9DFF8DAC27A448D5A7EDC6F5E6F578
:1043800026FE45FE65FE66F667F669F64CF62FEEEC
:10439000ADAC98DEFEFFDEFFFFFFDFF7FFFFFFFFA4
:1043A000FFFFFFFFFFFFFFFFFFFFFFFFFFFFFFFF1D
:1043B000FFFFFFFFFFFFFFFFFFFFFFFFFFFFFFFF0D
:1043C000FFFFFFFFFFFFFFFFFFFFFFFFFFFFFFFFFD
:1043D000FFFFFFFFBFFFDFFF2FBD07A427CDC7ED06
:1043E000E7F506FE26FE66FE86FE87FE88FE8AFE4E
:1043F0004DF60FE6AEAC1AE7FEFFFFFFFFFFDFF75B
:10440000FFFFFFFFFFFFFFFFFEFFFEFFFFFFFFFFBE
:10441000FFFFFFFFFFFFFFFFFFFFFFFFFFFFFFFFAC
:10442000FFFFFFFFFFFFFFFFFFFFFFFFFFFFFFFF9C
:10443000FFFFFFFFFFFFFFFF9FFFDFFFB1C5E69B11
:1044400027CDE7ED07F646FE46FE86FEA6FEA7FE52
:10445000A9FEABFE4DF6EFE5CEAC7CF7FFFFFFFF0C
:10446000FFFFDFF7FFFFFFFFFFFFFFFFFEFFFEFF86
:10447000FFFFFFFFFFFFFFFFFFFFFFFFFFFFFFFF4C
:10448000FFFFFFFFFFFFFFFFFFFFFFFFFFFFFFFF3C
:10449000FFFFFFFFFFFFFFFFFFFFFFFF9FFFBEFFCD
:1044A000F2D5069C47CD07EE27F666FE66FEA6FE11
:1044B000C7FEA7FEA9FEACFE4DF6EFDDCFACDDFFDB
:1044C000FEFFFFFFFFFFFFF7FFFFFFFFFFFFFFFF05
:1044D000FEFFFEFFFFFFFFFFFFFFFFFFFFFFFFFFEE
:1044E000FFFFFFFFFFFFFFFFFFFFFFFFFFFFFFFFDC
:1044F000FFFFFFFFFFFFFFFFFFFFFFFFFFFFFFFFCC
:10450000BFFFBEFF33D6069C67D507EE26F666FED4
:1045100086FEC6FEC6FEA7FEA9FEACFE4EF6CFDDA9
:10452000CFA4FEFFBEF7FFFFFFFFFFFFFFFFFFFF70
:10453000FFFFFFFFFEFFFEFFFFFFFFFFFFFFFFFF8D
:10454000FFFFFFFFFFFFFFFFFFFFFFFFFFFFFFFF7B
:10455000FFFFFFFFFFFFFFFFFFFFFFFFFFFFFFFF6B
:10456000FFFFFFFFFFFFDDFF73DE279C88D507EE0F
:1045700006F666FE86FEC7FEC7FEA7F6A9F6CCFEC7
:104580006DF6CFDDCFACFEFF9DF7FFFFFFFFFFFF16
:10459000FFFFFFFFFFFFFFFFFFFFFFFFFFFFFFFF2B
:1045A000FFFFFFFFFFFFFFFFFFFFFFFFFFFFFFFF1B
:1045B000FFFFFFFFFFFFFFFFFFFFFFFFFFFFFFFF0B
:1045C000FFFFFFFFFFFFFFFFDFFFFDFF53D6E69377
:1045D00028CD08EE47FE46FE66FEA7FE67F6A9FE5A
:1045E000ABF68CF6AEF6AED510ADDEFFFFFFFFFFEB
:1045F000BEF7FFFFFFFFFFFFFFFFFFFFFFFFFFFF14
:10460000FFFFFFFFFFFFFFFFFFFFFFFFFFFFFFFFBA
:10461000FFFFFFFFFFFFFFFFFFFFFFFFFFFFFFFFAA
:10462000FFFFFFFFFFFFFFFFFFFFFFFFDEFFFDFFBD
:1046300054D6E79328CDE9ED47FE46FE86FEA7FE59
:1046400067FEAAFE8BF68CF6AEF6CDD510ADDEFF7A
:10465000FFFFFFFFDEFFFFFFDFFFFFFFFFFFFFFFAB
:10466000FFFFFFFFFFFFFFFFFFFFFFFFFFFFFFFF5A
:10467000FFFFFFFFFFFFFFFFFFFFFFFFFFFFFFFF4A
:10468000FFFFFFFFFFFFFFFFFFFFFFFFFFFFFFFF3A
:10469000DEF7FEFF75D6089429CDE8ED47FE66FEED
:1046A00086FEA7FE87FEA9FEABF68CF6CEFEEED503
:1046B00010ADDDFFFFFFFFFFDEFFFFFFDFFFFFFFAE
:1046C000FFFFFFFFFFFFFFFFFFFFFFFFFFFFFFFFFA
:1046D000FFFFFFFFFFFFFFFFFFFFFFFFFFFFFFFFEA
:1046E000FFFFFFFFFFFFFFFFFFFFFFFFFFFFFFFFDA
:1046F000FFFFFFFFDFF7FEFF55D6089429CDE8E561
:1047000047FE86FE85FEA6FE87FEC9FE8AF68CF66B
:10471000CEFEEEDDEFACBDFFFFFFFFFFDEFFFFFFD4
:10472000DFFFFFFFFFFFFFFFFFFFFFFFFFFFFFFFB9
:10473000FFFFFFFFFFFFFFFFFFFFFFFFFFFFFFFF89
:10474000FFFFFFFFFFFFFFFFFFFFFFFFFFFFFFFF79
:10475000FFFFFFFFFFFFFFFFDFF7FFFF34D60894E7
:1047600049CDE8E546FE86FE85FEA6FE86FEA9FE4C
:104770008AF68BF6CDFEEEDDCFA49DF7FEFFFFFFA0
:10478000DEFFFFFFDFFFFFFFFFFFFFFFFFFFFFFF7A
:10479000FFFFFFFFFFFFFFFFFFFFFFFFFFFFFFFF29
:1047A000FFFFFFFFFFFFFFFFFFFFFFFFFFFFFFFF19
:1047B000FFFFFFFFFFFFFFFFFFFFFFFFDFFFFEFF2A
:1047C00014CEE89349CDE8E526F685FE64FEA5FE05
:1047D00086FEA8FE69F66AF6ADFEEDE5AEA49CF78E
:1047E000FEFFFFFFDEFFFFFFDFFFFFFFFFFFFFFF1B
:1047F000FFFFFFFFFFFFFFFFFFFFFFFFFFFFFFFFC9
:10480000FFFFFFFFFFFFFFFFFFFFFFFFFFFFFFFFB8
:10481000FFFFFFFFFFFFFFFFFFFFFFFFFFFFFFFFA8
:10482000DFFFBDFFD3CDC79349CDE8ED26F665FE8A
:1048300044FE85FE66FE87FE48F64AFE8CFEEDE5E8
:104840008D9C7CF7DEFFFFFFDEFFFFFFDFFFFFFF3A
:10485000FFFFFFFFFFFFFFFFFFFFFFFFFFFFFFFF68
:10486000FFFFFFFFFFFFFFFFFFFFFFFFFFFFFFFF58
:10487000FFFFFFFFFFFFFFFFFFFFFFFFFFFFFFFF48
:10488000FFFFFFFFDFFFBDFFB2CDA79349CDE8EDEE
:1048900006F645FE44FE86FE66FE88FE48FE4AFE9B
:1048A0008CFEEDE56D9C5CEFDEFFFFFFDEFFFFFFA2
:1048B000DFFFFFFFFFFFFFFFFFFFFFFFFFFFFFFF28
:1048C000FFFFFFFFFFFFFFFFFFFFFFFFFFFFFFFFF8
:1048D000FFFFFFFFFFFFFFFFFFFFFFFFFFFFFFFFE8
:1048E000FFFFFFFFFFFFFFFFDFFFFEFFEFB4A79318
:1048F00009CDA8ED48FE26FE46FE46FE47FE48FED0
:1049000049FE4BFE4BFE2FF68D9CFAE6FEFFFFFFA5
:10491000FFFFFFFFFFFFFFFFFFFFFFFFFFFFFFFFA7
:10492000FFFFFFFFFFFFFFFFFFFFFFFFFFFFFFFF97
:10493000FFFFFFFFFFFFFFFFFFFFFFFFFFFFFFFF87
:10494000FFFFFFFFFFFFFFFFFFFFFFFFDFFFDDFFB9
:10495000EFB409A40ACDAAED09FEE7FD07FE48FE63
:1049600049FE4AFE4BFE4CFE0CFE0FEE4D9499D6CE
:10497000DEFFFEFFFFFFFFFFFFFFFFFFFFFFFFFF69
:10498000FFFFFFFFFFFFFFFFFFFFFFFFFFFFFFFF37
:10499000FFFFFFFFFFFFFFFFFFFFFFFFFFFFFFFF27
:1049A000FFFFFFFFFFFFFFFFFFFFFFFFFFFFFFFF17
:1049B000BEFF3BF7AB8B678B07ACE9CC28DD68E526
:1049C00067DD88E5A9E569DD49D52AD50AD5EBC4B7
:1049D0002D9437CEDEFFDEFFFFFFFFFFFFFFFFFF5F
:1049E000FFFFFFFFFFFFFFFFFFFFFFFFFFFFFFFFD7
:1049F000FFFFFFFFFFFFFFFFFFFFFFFFFFFFFFFFC7
:104A0000FFFFFFFFFFFFFFFFFFFFFFFFFFFFFFFFB6
:104A1000FFFFFFFFFFFF7CF78B83AA8BA89B89BC5E
:104A200048BC88C409CD2ACD0ACDEAC4EAC42BC546
:104A30000BC5CCB40D8CD6BDFEFFDEFFFFFFFFFF24
:104A4000FFFFFFFFFFFFFFFFFFFFFFFFFFFFFFFF76
:104A5000FFFFFFFFFFFFFFFFFFFFFFFFFFFFFFFF66
:104A6000FFFFFFFFFFFFFFFFFFFFFFFFFFFFFFFF56
:104A7000FFFFFFFFFFFFFFFFBEF779CE2B6B4E9CC2
:104A8000AEB46FCD4ECD8FD56FD5AFD5B0D5D0CD1F
:104A900012DE53E611DE70C5AC7B33ADFEFFDEFFE8
:104AA000FFFFFFFFFFFFFFFFFFFFFFFFFFFFFFFF16
:104AB000FFFFFFFFFFFFFFFFFFFFFFFFFFFFFFFF06
:104AC000FFFFFFFFFFFFFFFFFFFFFFFFFFFFFFFFF6
:104AD000FFFFFFFFFFFFFFFFFFFFFFFFFFF799C68D
:104AE000CE7B32ADD4CD76E618FFDBFF59FFBBFF9E
:104AF000DBFFBBFFDBFFFBFF58F796DE4B6B7094D1
:104B0000DEFFBDF7FFFFDFFFFFFFFFFFFFFFFFFF40
:104B1000FFFFFFFFFFFFFFFFFFFFFFFFFFFFFFFFA5
:104B2000FFFFFFFFFFFFFFFFFFFFFFFFFFFFFFFF95
:104B3000FFFFFFFFFFFFFFFFFFFFFFFFFFFFFFFF85
:104B4000FFF77ABEEF73718C50948D8370A474C597
:104B5000F6D558D658D6D6BD94B5B4B552ADB094A6
:104B60004B6B4F8CFEFFBEF7FFFFDFFFFFFFFFFF2A
:104B7000FFFFFFFFFFFFFFFFFFFFFFFFFFFFFFFF45
:104B8000FFFFFFFFFFFFFFFFFFFFFFFFFFFFFFFF35
:104B9000FFFFFFFFFFFFFFFFFFFFFFFFFFFFFFFF25
:104BA000FFFFFFFFFFF79AC6D39434A59194695A8B
:104BB000CB6A6D7B3094729C518C8E734C63AD7359
:104BC000EE7BCD738D73708CFFFFFFFFFFFFDFFF68
:104BD000FFFFFFFFFFFFFFFFFFFFFFFFFFFFFFFFE5
:104BE000FFFFFFFFFFFFFFFFFFFFFFFFFFFFFFFFD5
:104BF000FFFFFFFFFFFFFFFFFFFFFFFFFFFFFFFFC5
:104C0000FFFFFFFFFFFFFFFFFFFFBEEFDBD696B505
:104C100091940F842F8C7094B5BD58D678D695B5E5
:104C200013A554AD74AD34A5B6BDFBDEFFFFFFFF89
:104C3000FFFFFFFFFFFFBEF7FFFFFFFFFFFFFFFFCD
:104C4000FFFFFFFFFFFFFFFFFFFFFFFFFFFFFFFF74
:104C5000FFFFFFFFFFFFFFFFFFFFFFFFFFFFFFFF64
:104C6000FFFFFFFFFFFFFFFFFFFFFFFFBEF7DFF7C5
:104C7000DFFFBEF77DEF7CEF9DF7DDFFFAE67CF707
:104C80009CF73BEF5CEFBDFFFEFFBEFF7DEFFFFF3C
:104C9000FFFFFFFFDFFFFFFFFFFFDFFFFFFFFFFF64
:104CA000FFFFFFFFFFFFFFFFFFFFFFFFFFFFFFFF14
:104CB000FFFFFFFFFFFFFFFFFFFFFFFFFFFFFFFF04
:104CC000FFFFFFFFFFFFFFFFFFFFFFFFFFFFFFFFF4
:104CD000FFFFFFFFFFFFFFFFFFFFFFFFFFFFFFFFE4
:104CE000FFFFFFFFFFFFFFFFFFFFFFFFFFFFFFFFD4
:104CF000FFFFFFFFFFFFFFFFFFFFFFFFFFFFFFFFC4
:104D0000FFFFFFFFFFFFFFFFFFFFFFFFFFFFFFFFB3
:104D1000FFFFFFFFFFFFFFFFFFFFFFFFFFFFFFFFA3
:104D2000FFFFFFFFFFFFFFFFFFFFFFFFFFFFDEF7BC
:104D3000FFFFFFFFFFFFFFFFFFFFFFFFFFFFFFFF83
:104D4000FFFFFFFFFFFFFFFFFFFFFFFFFFFFFFFF73
:104D5000FFFFFFFFFFFFDFFFFFFFFFFFFFFFFFFF83
:104D6000FFFFFFFFFFFFFFFFFFFFFFFFFFFFFFFF53
:104D7000FFFFFFFFFFFFFFFFFFFFFFFFFFFFFFFF43
:104D8000FFFFFFFFFFFFFFFFFFFFFFFFFFFFFFFF33
:104D9000FFFFFFFFFFFFFFFFFFFFFFFFFFFFFFFF23
:104DA000FFFFFFFFFFFFFFFFFFFFFFFFFFFFFFFF13
:104DB000FFFFFFFFFFFFFFFFFFFFFFFFDFFFFFFF23
:104DC000FFFFFFFFFFFFFFFFFFFFFFFFFFFFFFFFF3
:104DD000FFFFFFFFFFFFFFFFFFFFFFFFFFFFFFFFE3
:104DE000FFFFFFFFFFFFFFFFFFFFFFFFFFFFFFFFD3
:104DF000FFFFFFFFFFFFFFFFFFFFFFFFFFFFFFFFC3
:104E0000FFFFFFFFFFFFFFFFFFFFFFFFFFFFFFFFB2
:104E1000FFFFFFFFFFFFFFFFFFFFFFFFFFFFFFFFA2
:104E2000FFFFFFFFFFFFFFFFFFFFFFFFFFFFFFFF92
:104E3000FFFFFFFFFFFFFFFFFFFFFFFFDEF7FFFFAB
:104E4000FFFFFFFFFFFFFFFFFFFFFFFFFFFFFFFF72
:104E5000FFFFFFFFFFFFFFFFFFFFFFFFFFFFFFFF62
:104E6000FFFFFFFFFFFFFFFFFFFFFFFFFFFFFFFF52
:104E7000FFFFFFFFFFFFFFFFFFFFFFFFFFFFFFFF42
:104E8000FFFFFFFF9EEF1CDF5DE7FFFFFFFFFFFF60
:104E9000FFFFFFFFFFFFFFFFFFFFFFFFFFFFFFFF22
:104EA000FFFFFFFFFFFFFFFFFFFFFFFFFFFFFFFF12
:104EB000FFFFFFFFFFFFFFFFFFFFFFFFFFFFFFFF02
:104EC000FFFFFFFFFFFFFFFFFFFFFFFFFFFFFFFFF2
:104ED000FFFFFFFFFFFFFFFFFFFFFFFFFFFFFFFFE2
:104EE000FFFFFFFFFFFFFCDE51846E6B4D63D39429
:104EF000BFF7FFFFFFFFFFFFFFFFFFFFFFFFFFFF0A
:104F0000FFFFFFFFFFFFFFFFFFFFFFFFFFFFFFFFB1
:104F1000FFFFFFFFFFFFFFFFFFFFFFFFFFFFFFFFA1
:104F2000FFFFFFFFFFFFFFFFFFFFFFFFFFFFFFFF91
:104F3000FFFFFFFFFFFFFFFFFFFFFFFFFFFFFFFF81
:104F4000FFFFFFFFFFFFFFFFFFF772846E6B928C86
:104F50002D638A4AF7BDFFFFFFFFFFFFFFFFFFFF43
:104F6000FFFFFFFFFFFFFFFFFFFFFFFFFFFFFFFF51
:104F7000FFFFFFFFFFFFFFFFFFFFFFFFFFFFFFFF41
:104F8000FFFFFFFFFFFFFFFFFFFFFFFFFFFFFFFF31
:104F9000FFFFFFFFFFFFFFFFFFFFFFFFFFFFFFFF21
:104FA000FFFFFFFFFFFFFFFFFFFFFFFF18BE8E6B3E
:104FB000CF739EEF55A52C6335A5FFFFFFFFFFFFC5
:104FC000FFFFFFFFFFFFFFFFFFFFFFFFFFFFFFFFF1
:104FD000FFFFFFFFFFFFFFFFFFFFFFFFFFFFFFFFE1
:104FE000FFFFFFFFFFFFFFFFFFFFFFFFFFFFFFFFD1
:104FF000FFFFFFFFFFFFFFFFFFFFFFFFFFFFFFFFC1
:10500000FFFFFFFFFFFFFFFFFFFFDFFFFFFF9EEF41
:1050100031846D63D7B5FFFF728C318418BEFFFFFA
:10502000FFFFFFFFFFFFFFFFFFFFFFFFFFFFFFFF90
:10503000FFFFFFFFFFFFFFFFFFFFFFFFFFFFFFFF80
:10504000FFFFFFFFFFFFFFFFFFFFFFFFFFFFFFFF70
:10505000FFFFFFFFFFFFFFFFFFFFFFFFFFFFFFFF60
:10506000FFFFFFFFFFFFFFFFFFFFFFFFDFFFFFFF70
:10507000FFFF96AD6E6B5184DFF7F8B50C5BCF7315
:105080005DEFFFFFFFFFFFFFFFFFFFFFFFFFFFFFE2
:10509000FFFFFFFFFFFFFFFFFFFFFFFFFFFFFFFF20
:1050A000FFFFFFFFFFFFFFFFFFFFFFFFFFFFFFFF10
:1050B000FFFFFFFFFFFFFFFFFFFFFFFFFFFFFFFF00
:1050C000FFFFFFFFFFFFFFFFFFFFFFFFFFFFDFFF10
:1050D000FFFFFFFF3CE7CF736E6B59C69EEFAF73C8
:1050E0006E6B18BEFFFFDFFFFFFFFFFFFFFFFFFF3D
:1050F000FFFFFFFFFFFFFFFFFFFFFFFFFFFFFFFFC0
:10510000FFFFFFFFFFFFFFFFFFFFFFFFFFFFFFFFAF
:10511000FFFFFFFFFFFFFFFFFFFFFFFFFFFFFFFF9F
:10512000FFFFFFFFFFFFFFFFFFFFFFFFFFFFFFFF8F
:10513000DFFFFFFFFFFFFFFF34A56E6B928CFFFFC9
:1051400055A56E6B928CBFF7FFFFFFFFFFFFFFFFC0
:10515000FFFFFFFFFFFFFFFFFFFFFFFFFFFFFFFF5F
:10516000FFFFFFFFFFFFFFFFFFFFFFFFFFFFFFFF4F
:10517000FFFFFFFFFFFFFFFFFFFFFFFFFFFFFFFF3F
:10518000FFFFFFFFFFFFFFFFFFFFFFFFFFFFFFFF2F
:10519000FFFFFFFFFFFFDFFFFFFFDBD6AF73AF7344
:1051A0001CDF1CDFAF73EF7B7ACEFFFFFFFFFFFF3B
:1051B000FFFFFFFFFFFFFFFFFFFFFFFFFFFFFFFFFF
:1051C000FFFFFFFFFFFFFFFFFFFFFFFFFFFFFFFFEF
:1051D000FFFFFFFFFFFFFFFFFFFFFFFFFFFFFFFFDF
:1051E000FFFFFFFFFFFFFFFFFFFFFFFFFFFFFFFFCF
:1051F000FFFFFFFFFFFFFFFFFFFFDFFFFFFFD39476
:105200006E6B55A5FFFFF49CF07B34A5FFFFFFFFFD
:10521000FFFFFFFFFFFFFFFFFFFFFFFFFFFFFFFF9E
:10522000FFFFFFFFFFFFFFFFFFFFFFFFFFFFFFFF8E
:10523000FFFFFFFFFFFFFFFFFFFFFFFFFFFFFFFF7E
:10524000FFFFFFFFFFFFFFFFFFFFFFFFFFFFFFFF6E
:10525000FFFFFFFFFFFFFFFFFFFFFFFFDFFFFFFF7E
:1052600059C68E6B51847EEF9ACE51849294FCDEA7
:10527000DFFFFFFFFFFFFFFFFFFFFFFFFFFFFFFF5E
:10528000FFFFFFFFFFFFFFFFFFFFFFFFFFFFFFFF2E
:10529000FFFFFFFFFFFFFFFFFFFFFFFFFFFFFFFF1E
:1052A000FFFFFFFFFFFFFFFFFFFFFFFFFFFFFFFF0E
:1052B000FFFFFFFFFFFFFFFFFFFFFFFFFFFFFFFFFE
:1052C000FFFF9EF7928C107CF8BDDFF7149DF39CD6
:1052D000B7B5FFFFFFFFFFFFDFFFFFFFFFFFFFFF90
:1052E000FFFFFFFFFFFFFFFFFFFFFFFFFFFFFFFFCE
:1052F000FFFFFFFFFFFFFFFFFFFFFFFFFFFFFFFFBE
:10530000FFFFFFFFFFFFFFFFFFFFFFFFFFFFFFFFAD
:10531000FFFFFFFFFFFFFFFFFFFFFFFFFFFFFFFF9D
:10532000FFFFFFFFFFFFF7BD3084D394DFF759C6BF
:1053300076AD55AD3CE7FFFFFFFFFFFFFFFFFFFF2F
:10534000FFFFFFFFFFFFFFFFFFFFFFFFFFFFFFFF6D
:10535000FFFFFFFFFFFFFFFFFFFFFFFFFFFFFFFF5D
:10536000FFFFFFFFFFFFFFFFFFFFFFFFFFFFFFFF4D
:10537000FFFFFFFFFFFFFFFFFFFFFFFFFFFFFFFF3D
:10538000FFFFFFFFFFFFFFFF5CE7D294B39479CEEE
:105390007EEFF7BDF7BD18C6FFFFFFFFFFFFFFFF62
:1053A000FFFFFFFFFFFFFFFFFFFFFFFFFFFFFFFF0D
:1053B000FFFFFFFFFFFFFFFFFFFFFFFFFFFFFFFFFD
:1053C000FFFFFFFFFFFFFFFFFFFFFFFFFFFFFFFFED
:1053D000FFFFFFFFFFFFFFFFFFFFFFFFFFFFFFFFDD
:1053E000FFFFFFFFFFFFFFFFFFFFDFFFF7BD55AD33
:1053F00075ADBEF79ACE9ACE96B55DEFFFFFFFFF73
:10540000FFFFFFFFFFFFFFFFFFFFFFFFFFFFFFFFAC
:10541000FFFFFFFFFFFFFFFFFFFFFFFFFFFFFFFF9C
:10542000FFFFFFFFFFFFFFFFFFFFFFFFFFFFFFFF8C
:10543000FFFFFFFFFFFFFFFFFFFFFFFFFFFFFFFF7C
:10544000FFFFFFFFFFFFFFFFFFFFFFFFFFFFFBDE91
:10545000F7BD96ADBAD67DEF9ACE18BE38C6FFFF1F
:10546000DFFFFFFFFFFFFFFFFFFFFFFFFFFFFFFF6C
:10547000FFFFFFFFFFFFFFFFFFFFFFFFFFFFFFFF3C
:10548000FFFFFFFFFFFFFFFFFFFFFFFFFFFFFFFF2C
:10549000FFFFFFFFFFFFFFFFFFFFFFFFFFFFFFFF1C
:1054A000FFFFFFFFFFFFFFFFFFFFFFFFFFFFFFFF0C
:1054B000DEF759CE59CE95ADDEF7BAD6BAD675AD70
:1054C000BEF7FFFFFFFFFFFFFFFFFFFFFFFFFFFF35
:1054D000FFFFFFFFFFFFFFFFFFFFFFFFFFFFFFFFDC
:1054E000FFFFFFFFFFFFFFFFFFFFFFFFFFFFFFFFCC
:1054F000FFFFFFFFFFFFFFFFFFFFFFFFFFFFFFFFBC
:10550000FFFFFFFFFFFFFFFFFFFFFFFFFFFFFFFFAB
:10551000FFFFFFFFFBDEBAD695ADFBDE5CE7DBD617
:10552000B6B59ACEFFFFDFFFFFFFDFFFFFFFFFFFF4
:10553000FFFFFFFFFFFFFFFFFFFFFFFFFFFFFFFF7B
:10554000FFFFFFFFFFFFFFFFFFFFFFFFFFFFFFFF6B
:10555000FFFFFFFFFFFFFFFFFFFFFFFFFFFFFFFF5B
:10556000FFFFFFFFFFFFFFFFFFFFFFFFFFFFFFFF4B
:10557000FFFFFFFFFFFF9EEFDBD659C695ADFFFF94
:105580009ACE38C675ADFFFFDFFFFFFFFFFFFFFFBD
:10559000FFFFFFFFDFFFFFFFFFFFFFFFFFFFFFFF3B
:1055A000FFFFFFFFFFFFFFFFFFFFFFFFFFFFFFFF0B
:1055B000FFFFFFFFFFFFFFFFFFFFFFFFFFFFFFFFFB
:1055C000FFFFFFFFFFFFFFFFFFFFFFFFFFFFFFFFEB
:1055D000FFFFFFFFFFFFFFFFFFFFDBDEBAD6149DDB
:1055E0005DE7FBDE38C6F39CFBDEFFFFFFFFFFFF3E
:1055F000FFFFFFFFFFFFFFFFFFFFFFFFFFFFFFFFBB
:10560000FFFFFFFFFFFFFFFFFFFFFFFFFFFFFFFFAA
:10561000FFFFFFFFFFFFFFFFFFFFFFFFFFFFFFFF9A
:10562000FFFFFFFFFFFFFFFFFFFFFFFFFFFFFFFF8A
:10563000FFFFFFFFFFFFFFFFFFFFFFFF7DEF79CEC3
:1056400096ADD7B5DFF796AD34A595ADFFFFDFFF7B
:10565000FFFFFFFFFFFFFFFFFFFFFFFFFFFFFFFF5A
:10566000FFFFFFFFFFFFFFFFFFFFFFFFFFFFFFFF4A
:10567000FFFFFFFFFFFFFFFFFFFFFFFFFFFFFFFF3A
:10568000FFFFFFFFFFFFFFFFFFFFFFFFFFFFFFFF2A
:10569000FFFFFFFFDFFFFFFFFFFFFFFFFFFFFFFF3A
:1056A00059C696ADB294BFF718BED394928C7DEFD5
:1056B000FFFFFFFFFFFFFFFFFFFFFFFFFFFFFFFFFA
:1056C000FFFFFFFFFFFFFFFFFFFFFFFFFFFFFFFFEA
:1056D000FFFFFFFFFFFFFFFFFFFFFFFFFFFFFFFFDA
:1056E000FFFFFFFFFFFFFFFFFFFFFFFFFFFFFFFFCA
:1056F000FFFFFFFFFFFFFFFFFFFFFFFFFFFFDFFFDA
:10570000FFFF3DE7149D518459C69EEF928C308473
:1057100017BEFFFFFFFFFFFFFFFFFFFFFFFFFFFFC2
:10572000FFFFFFFFFFFFFFFFFFFFFFFFFFFFFFFF89
:10573000FFFFFFFFFFFFFFFFFFFFFFFFFFFFFFFF79
:10574000FFFFFFFFFFFFFFFFFFFFFFFFFFFFFFFF69
:10575000FFFFFFFFFFFFFFFFFFFFFFFFFFFFFFFF59
:10576000FFFFDFFFFFFF55A53184D394FFFF55A551
:10577000EF7B928CDEF7FFFFFFFFFFFFFFFFFFFFD6
:10578000FFFFFFFFFFFFFFFFFFFFFFFFFFFFFFFF29
:10579000FFFFFFFFFFFFFFFFFFFFFFFFFFFFFFFF19
:1057A000FFFFFFFFFFFFFFFFFFFFFFFFFFFFFFFF09
:1057B000FFFFFFFFFFFFFFFFFFFFFFFFFFFFFFFFF9
:1057C000FFFFFFFFDFFFFFFFBBD6107CAF731CDFC7
:1057D000DBD6EF73AF739ACEFFFFFFFFFFFFFFFF34
:1057E000FFFFFFFFFFFFFFFFFFFFFFFFFFFFFFFFC9
:1057F000FFFFFFFFFFFFFFFFFFFFFFFFFFFFFFFFB9
:10580000FFFFFFFFFFFFFFFFFFFFFFFFFFFFFFFFA8
:10581000FFFFFFFFFFFFFFFFFFFFFFFFFFFFFFFF98
:10582000FFFFFFFFFFFFDFF7FFFFDFF7B3948E6B94
:1058300055A5FFFF928C6E6B149DFFFFFFFFDFFFEE
:10584000FFFFFFFFFFFFFFFFFFFFFFFFFFFFFFFF68
:10585000FFFFFFFFFFFFFFFFFFFFFFFFFFFFFFFF58
:10586000FFFFFFFFFFFFFFFFFFFFFFFFFFFFFFFF48
:10587000FFFFFFFFFFFFFFFFFFFFFFFFFFFFFFFF38
:10588000FFFFFFFFFFFFFFFFFFFFDFFFFFFF38C648
:10589000AF73CF739EEF39C66D63CF733DE7FFFFE4
:1058A000DFFFFFFFDFFFFFFFFFFFFFFFFFFFFFFF48
:1058B000FFFFFFFFFFFFFFFFFFFFFFFFFFFFFFFFF8
:1058C000FFFFFFFFFFFFFFFFFFFFFFFFFFFFFFFFE8
:1058D000FFFFFFFFFFFFFFFFFFFFFFFFFFFFFFFFD8
:1058E000FFFFFFFFFFFFFFFFFFFFFFFFFFFFDFF7F0
:1058F000BEF731846E6BB7B5DFF7107C4D6396ADA4
:10590000FFFFFFFFFFFFFFFFFFFFDFFFFFFFFFFFC7
:10591000FFFFFFFFFFFFFFFFFFFFFFFFFFFFFFFF97
:10592000FFFFFFFFFFFFFFFFFFFFFFFFFFFFFFFF87
:10593000FFFFFFFFFFFFFFFFFFFFFFFFFFFFFFFF77
:10594000FFFFFFFFDFFFFFFFDFFFFFFF38C6B6B53A
:10595000DFFFFFFF55A58E6B928CFFFFB7AD2D6368
:10596000107C7EEFFFFFFFFFFFFFFFFFFFFFFFFF4A
:10597000FFFFFFFFFFFFFFFFFFFFFFFFFFFFFFFF37
:10598000FFFFFFFFFFFFFFFFFFFFFFFFFFFFFFFF27
:10599000FFFFFFFFFFFFFFFFFFFFFFFFFFFFFFFF17
:1059A000FFFFFFFFFFFFDEFFFFFFDFFFFFFF7DEFDA
:1059B000A6314000C73131846E6B2D5B928C5DE760
:1059C0008E6B4D6318BEFFFFFFFFDFFFFFFFFFFF82
:1059D000FFFFFFFFFFFFFFFFFFFFFFFFFFFFFFFFD7
:1059E000FFFFFFFFFFFFFFFFFFFFFFFFFFFFFFFFC7
:1059F000FFFFFFFFFFFFFFFFFFFFFFFFFFFFFFFFB7
:105A0000FFFFFFFFFFFFDEFFFEFFFFFFFFFFDFFFE8
:105A1000FFFFFFFFCA5A65296208E318CF7331847C
:105A200049426A4A4D63928CBFF7FFFFDFFFFFFFD9
:105A3000FFFFFFFFFFFFFFFFFFFFFFFFFFFFFFFF76
:105A4000FFFFFFFFFFFFFFFFFFFFFFFFFFFFFFFF66
:105A5000FFFFFFFFFFFFFFFFFFFFFFFFFFFFFFFF56
:105A6000FFFFFFFFFFFFFFFFDEFF3BE7B9D63BE78E
:105A70007CEFFFFFFFFF38C64529E7392842083A87
:105A8000C731928CF49C8E6BCB52F49CFFFFFFFFCE
:105A9000FFFFDFFFFFFFFFFFFFFFFFFFFFFFFFFF36
:105AA000FFFFFFFFFFFFFFFFFFFFFFFFFFFFFFFF06
:105AB000FFFFFFFFFFFFFFFFFFFFFFFFFFFFFFFFF6
:105AC000FFFFFFFFFFFFFFFFDFFFFFFF7CEFFADEBF
:105AD000FADE7CEFAA526D6B9ACE8A522421073AE5
