:100000000C94F2540C9423550C9423550C942355C2
:100010000C9423550C9423550C9423550C94235580
:100020000C9423550C9423550C9423550C94235570
:100030000C9423550C94E3DF0C9423550C94235516
:100040000C9423550C9423550C9423550C94235550
:100050000C9423550C9423550C9423550C94C8E010
:100060000C9423550C9411DF0C94E8DE0C9423556A
:100070000C9423550C9423550C9423550C94235520
:100080000C9423550C9423550C9423550C94235510
:100090000C9423550C9423550C9423550D94071060
:1000A0000C9423550C9423550C9423550C942355F0
:1000B0000C9423550C9423550C9423550C942355E0
:1000C0000C9423550C9423550C9423550C942355D0
:1000D0000C9423550C9423550C9423550C942355C0
:1000E0000C942355DE59E159E659EE59F959F9595D
:1000F000075A075A075A6E8184819A81B081C68156
:10010000DC81F2813D826E829F82D08201833283C4
:100110006383C283D684DC85E286E887EE88F6892D
:10012000D28B0B8C3D8C6F8CA18CD38C058D378D35
:10013000698D9B8D018E328E638E948EC58EF68E68
:10014000278F588F898FBA8F00901091169227931E
:100150002D94339542964996509657968A98A09832
:10016000B698CC98E298F8980E995D998E99BF99B7
:10017000F099219A529A839AC19A299C579D839EFD
:10018000AF9FDBA006A2BBB3DFB3FAB315B430B4A4
:100190004BB466B481B4F1B50CB627B642B65DB6C1
:1001A00078B693B6AEB6DBB6DEB6E1B6E4B6E7B681
:1001B000EAB6EDB6F0B62BBC41BC57BC6DBC83BCF7
:1001C00099BCAFBCF7BC28BD59BD8ABDBBBDECBD59
:1001D0001DBE80BEA6BECCBEF2BE18BF3EBF60BF75
:1001E00085DD88DD77DD7BDD81DDBFDD8CDD90DDCC
:1001F00096DD9ADD9EDDA4DDA8DDACDDBFDDB2DDE0
:10020000B6DDBADD0D94840C0D94750C0D94410C83
:100210000D94CF0C0D94F2420D945B340D94740C3C
:100220000D94A00C0D945A340D94C4440D94980C64
:1002300000407A10F35A00A0724E18090010A5D49D
:10024000E80000E87648170000E40B54020000CAFA
:100250009A3B000000E1F505000080969800000040
:1002600040420F000000A08601000000102700009F
:100270000000E803000000006400000000000A0025
:10028000000000000100000000002C76D888DC6728
:100290004F0823DFC1DFAE59E1B1B796E5E3E45380
:1002A000C63AE651997696E8E6C28426EB898C9B9D
:1002B00062ED407C6FFCEFBC9C9F40F2BAA56FA53D
:1002C000F490055A2AF75C936B6CF9676DC11BFCBF
:1002D000E0E40D47FEF520E6B500D0ED902E0300DA
:1002E000943577050080841E080000204E0A000027
:1002F00000C80C333333330F986E12831141EF8DE6
:100300002114893BE65516CFFEE6DB18D1844B3825
:100310001BF77C1D901DA4BBE424203284725E2256
:100320008100C9F124ECA1E53D27FFFFFFFFFFFF9E
:10033000FFFFFFFF7DEFFFFF7DEF7DEFFFFFDFFFA3
:100340007DEFFFFFFFFFFFFFFFFFFFFFDFFFFFFF6F
:10035000FFFFDFFFDFFFFFFFFFFFFFFFDFFFFFFF0D
:10036000FFFF7DEF59CEDBDE5DEFBEF7FFFFFFFF46
:100370007DEF9EF7FFFFFFFFBEF7BEF7DFFFFFFF3A
:10038000FFFFFFFFFFFFFFFFFFFFFFFFFFFFDFFF9D
:10039000FFFFFFFFDFFFBEF7FFFF9EF7BEF73CE763
:1003A000FBDEFBDEFBDEDBDEFBDE3CE73CE7DFFF0C
:1003B000DFFFFFFFFFFFDFFFFFFFFFFFDFFFDFFFCD
:1003C000FFFFDFFF9EF718C69294EF7B2C6310842B
:1003D00014A5DBDEFFFFFFFF7DEF5DEFFFFFFFFFFB
:1003E000FFFFFFFFFFFFDFFF7DEFBEF7FFFFFFFF18
:1003F000FFFFFFFFFFFFBEF7FFFFFFFFDFFF55AD72
:1004000018C6FFFF5DEFBEF7FFFF9EF77DEF9EF77B
:100410003CE75DEFDFFFFFFFFFFFDFFFFFFFFFFFB9
:10042000DFFFFFFFFFFFFFFFBEF7718CA631494AD8
:10043000AE734D6BAA52CB5A9294DBDEFFFFFFFFE7
:100440009EF7FFFFFFFFFFFFDFFFFFFFFFFFFFFF45
:100450009EF7FFFFFFFFFFFFFFFFBEF7FFFFFFFF5E
:10046000BEF7718CCB5A7DEFFFFFFFFFFFFFDFFF71
:10047000DFFFBEF73CE71CE75DEF9EF7BEF7FFFF2F
:10048000FFFFFFFFFFFFFFFFFFFFFFFFFFFF38C67C
:100490002C632842E739CB5ACB5A694A08422C636D
:1004A000D7BDDFFFFFFF9EF7FFFFFFFFFFFFFFFF4F
:1004B000FFFFFFFFFFFFFFFFFFFF9EF7FFFFFFFFB5
:1004C0009EF7FFFFFFFF59CE2842B2943CE7FFFFA3
:1004D0007DEF5DEF9EF79EF79EF73CE71CE7DBDEC6
:1004E0005DEFFFFFFFFFDFFFFFFFFFFFFFFFDFFF0E
:1004F000FFFFFFFF3CE775ADAA528631E739EB5AA3
:10050000EB5AE739494AD39C1CE7FFFFDFFF9EF710
:10051000DFFFFFFFDFFFDFFFFFFFFFFFFFFFFFFF4B
:10052000FFFFFFFFDFFFFFFF9EF7FFFF96B58A5239
:1005300075AD9EF7DFFFDFFFBEF79EF7DFFF7DEFB4
:100540003CE779CEDBDEDFFFFFFF9EF7FFFFDFFF3B
:10055000FFFFFFFFFFFFDFFFFFFFFFFF7DEFAE733A
:10056000C7398631694A28428631494A2C63BAD64E
:100570009EF7FFFFBEF7DFFFFFFFFFFF7DEFFFFFEF
:10058000FFFFFFFFBEF79EF7FFFFFFFFBEF7FFFF76
:10059000FFFF1084CF7B96B5DFFFFFFF9EF79EF72E
:1005A0003CE75DEF7DEF79CE18C63CE7FFFFBEF775
:1005B000FFFFFFFFDFFF9EF7FFFFFFFF9EF7DFFF5D
:1005C0009EF7FBDE8E738631C739C739C739E739E5
:1005D000A631494A55ADDFFFFFFF7DEF9EF7FFFFD4
:1005E000FFFFFFFFFFFF9EF7FFFFDFFF1CE75DEF51
:1005F000FFFF5DEFDFFFFFFF8E73AE731CE77DEF44
:100600007DEFFFFF3CE7FBDEBEF79AD696B5BAD684
:10061000FFFFFFFFFFFFDFFFFFFFFFFFFFFFDFFF2A
:10062000BEF7FFFFBEF7FFFFAE7324218631A63170
:10063000652965294529452986318E73DBDEFFFF53
:10064000DFFF9EF7FFFFFFFFFFFFFFFF9EF7FFFFAC
:1006500075AD38C61CE7FFFFFFFFFFFF3CE78E7359
:1006600034A5DFFF3CE79EF71CE7FBDE1CE7FBDE63
:10067000D7BD18C69EF7FFFFDFFFFFFFDFFFFFFFBD
:10068000FFFFFFFFFFFFFFFFBEF73CE7E318652911
:100690004529A21045292421C3182421C318A210DA
:1006A0002842B6B5FFFFFFFFDFFFFFFFFFFFDFFFC1
:1006B000FFFFFFFF14A53CE759CED7BDFFFFFFFFAB
:1006C0007DEFF7BD34A51CE79EF75DEF9EF7FBDEDF
:1006D0001CE7FBDED7BD38C6DFFFFFFFDFFFFFFFF4
:1006E000DFFFDFFFDFFFBEF7DFFFFFFF9EF72C63BB
:1006F0004529E318C3182421E318200024216108A8
:100700004529C31820008210EF7B7DEFFFFFFFFF1C
:10071000FFFFDFFFBEF7FFFFF39C79CE1CE718C693
:1007200059CE7DEFFFFFFFFF38C61CE79EF7FBDECB
:100730003CE7FBDEDBDEBAD6D7BD59CEDFFFFFFFDD
:10074000FFFFFFFFDFFFFFFFFFFFDFFFFFFFFFFFF9
:10075000BEF7652982108210C3184108A210242117
:100760006108E318E318A2100421E318821075ADA4
:10077000DFFFFFFFFFFFFFFFBEF7FFFF55AD14A533
:10078000FFFF5DEFF7BD79CEFFFF7DEF1CE75DEF6B
:100790005DEF3CE7DBDEFBDE79CE38C6D7BD9AD60F
:1007A000DFFFFFFFFFFFDFFFDFFFFFFFFFFFFFFFB9
:1007B000FFFFFFFF9EF79294EB5A2421A21086318F
:1007C000E31882100421C3184529E3186108084280
:1007D0004108F7BDFFFFFFFFFFFFBEF7FFFFFFFF71
:1007E00079CE718C3CE73CE77DEFF7BD9AD6D7BD5B
:1007F0005DEF3CE75DEF9AD6FBDE1CE738C618C616
:1008000038C6FBDEDFFFBEF7FFFFFFFFFFFFFFFF86
:10081000FFFFBEF7DFFFDFFF3CE79EF7CF7BAA526B
:100820002421242141088210863104218631C739D0
:1008300086312421C318BAD6FFFFFFFFFFFFFFFF59
:10084000FFFFDFFF5DEF6D6B59CEBEF7DBDED7BD7F
:1008500075ADD7BD7DEF3CE71CE714A5D7BD59CEDC
:1008600038C69AD6DBDE3CE7DFFFDFFFFFFFFFFF86
:10087000FFFFFFFFDFFFBEF7FFFFDFFF1CE714A551
:10088000CB5AEF7BC7390000C739CF7BAA52452925
:1008900041084529CB5A8210CB5A3CE7BEF7FFFFEF
:1008A000FFFFFFFFDFFFDFFFFFFFAE7334A59EF703
:1008B00034A575ADB6B59AD63CE7FBDEB6B5D39C8C
:1008C00014A5308496B51CE7FBDE1CE7FFFFFFFF95
:1008D000FFFFFFFFDFFFDFFFDFFFFFFFFFFF1CE783
:1008E00096B528423084518C4D6B2C63F7BDBAD637
:1008F00038C6694A8210610841084529BAD6FFFF07
:10090000BEF7FFFFFFFF9EF7FFFFBEF7FFFF96B5A5
:100910004D6B75ADB6B534A5BAD679CE59CE38C6BD
:10092000108479CEB6B52842F39C3CE7BAD69AD665
:10093000FFFFFFFFDFFFFFFFDFFFFFFFFFFFFFFF07
:100940005DEF75AD2C63EF7B10848E73FBDE38C6D4
:10095000DFFFFFFFBEF7FBDECB5A6529A210D7BD34
:10096000FFFF7DEFFFFFFFFFFFFFFFFFFFFFFFFF29
:100970005DEFBEF7EB5AB29434A5D7BDB6B59AD6A3
:10098000F7BD518C59CE34A5CB5A108455AD3CE7F8
:10099000DBDEDBDEFFFFDFFFDFFFFFFFDFFF9EF7BA
:1009A00018C6F7BDDBDE8E736D6B10846D6B79CE70
:1009B000FFFFBEF7FFFFFFFFDFFFFFFF1CE7B29463
:1009C00092947DEFFFFFBEF7FFFFFFFFFFFFFFFFEA
:1009D000BEF7FFFFFFFFFFFF96B5308496B5B6B5B3
:1009E000D7BDD7BD718C18C614A5EF7B4D6B38C62B
:1009F000DBDEFBDEBAD65DEFFFFFDFFFBEF77DEF8C
:100A0000FFFF55AD652965294D6B8E73CF7B8A52EB
:100A100079CEFFFFDFFFFFFFFFFFFFFFFFFF9EF726
:100A2000FFFF7DEF5DEFFFFFFFFF7DEFFFFFFFFFAC
:100A3000FFFFFFFFFFFFBEF7FFFFFFFF3CE7F39C59
:100A400096B514A5F7BDD39CF39C55ADAE730C635E
:100A5000F39C38C61CE7BAD659CEDBDE7DEFFFFF2C
:100A6000FFFFFFFF518C24212842042141080C6321
:100A7000284234A5FFFFFFFF7DEFFFFFDFFFBEF73A
:100A8000FFFFBEF7FFFFFFFFFFFFFFFFFFFFDFFFDF
:100A9000FFFFFFFFFFFFFFFFFFFF7DEF9EF7FFFF61
:100AA000D39CF39C96B596B596B5D39CF7BDCF7BFA
:100AB000EB5AEF7B75AD18C6FBDEFBDE1CE7DBDE19
:100AC0007DEFFFFF9EF78E730421E739A631E739EA
:100AD000E73900006D6BFFFFDFFF3CE7FFFFFFFF23
:100AE000BEF7FFFFFFFFFFFFBEF77DEF9EF7DFFFC3
:100AF000FFFFFFFFDFFFFFFFFFFFFFFFFFFFDFFF46
:100B0000FFFFFFFFAA522C63B294B6B5D39C55AD3C
:100B100014A530844D6B75ADF39C18C6B6B5D7BD22
:100B200079CE38C61CE75DEFAE73E318494AC73982
:100B30006529A6312421000034A5FFFF1CE7FFFF33
:100B4000FFFF9EF7FFFFFFFFDFFFFFFFDFFFFFFF5E
:100B5000FFFFFFFFFFFFFFFFDFFFFFFFFFFFFFFFC5
:100B6000BEF7FFFFFFFFBEF755ADCB5A694AEF7BDB
:100B70009294F39CF39CF39C14A518C638C655AD0B
:100B8000718C34A5F7BD75AD59CEB6B586318A5294
:100B90006529A631E739E318610845293CE7BEF726
:100BA0007DEFFFFFFFFFDFFFFFFFBEF7FFFFFFFF50
:100BB000FFFFFFFFFFFFFFFFFFFFFFFFFFFFFFFF45
:100BC000FFFFFFFFFFFFFFFFBEF79EF7FFFF96B59A
:100BD0004D6B0842EB5ACB5A4D6BCB5A8E73EB5A86
:100BE000518CD39CB29438C6DBDE79CEBAD638C6E7
:100BF0009294C31828422421042104210000B294B5
:100C0000FFFFFFFFFFFFBEF7BEF7FFFFFFFF7DEF18
:100C1000FFFFFFFFDFFF9EF79EF7FFFFFFFFFFFFD6
:100C2000FFFFFFFFFFFFFFFFFFFF7DEFFFFFDFFF86
:100C30007DEFFFFF1CE775ADCF7BCF7B0C634D6B6A
:100C40008A52E7392842AE733084D7BD59CE9AD63E
:100C50009AD6F7BDBAD6B294E31886310421821031
:100C60008631DFFF7DEF7DEFFFFFFFFFFFFFFFFF1F
:100C7000DFFFFFFFFFFFFFFFFFFFFFFFFFFFFFFFA4
:100C8000FFFFDFFFFFFFFFFFFFFFFFFFFFFFFFFF94
:100C9000FFFFFFFFFFFFFFFFFFFFFFFFBEF71CE7A8
:100CA000FBDE79CE96B5B2946D6B2842AE73718C33
:100CB00038C618C6BAD6FBDE96B59AD6718C8210A5
:100CC0000000C31875ADBEF7DFFFDFFFFFFFFFFFBA
:100CD000FFFFFFFFFFFFFFFFFFFFFFFFFFFFFFFF24
:100CE000FFFFFFFFFFFFFFFFFFFFFFFFFFFFFFFF14
:100CF000FFFFFFFFFFFFFFFFFFFFFFFFFFFF9EF76D
:100D0000FFFFBEF7FFFFFFFFDFFFDFFF5DEFF39C9D
:100D1000494A718C718C59CEFBDE18C659CE55AD3F
:100D200059CE3084A210AE7379CEFFFF9EF7FFFF3D
:100D3000FFFFFFFFFFFFFFFFFFFFFFFFFFFFFFFFC3
:100D4000FFFFFFFFFFFFFFFFFFFFFFFFFFFFFFFFB3
:100D5000FFFFFFFFFFFFFFFFFFFFFFFFFFFFFFFFA3
:100D6000FFFFBEF7FFFFFFFFFFFFFFFFFFFFFFFFDC
:100D7000DFFF1CE7718CCB5A518C34A5D7BD9AD6B6
:100D8000BAD659CE55AD9AD6929496B5FFFFDFFFED
:100D9000FFFFFFFFFFFFFFFFFFFFFFFFFFFFFFFF63
:100DA000FFFFFFFFFFFFFFFFFFFFFFFFFFFFFFFF53
:100DB000FFFFFFFFFFFFFFFFFFFFFFFFFFFFFFFF43
:100DC000FFFFFFFFFFFFFFFFFFFFBEF7DFFFFFFF9C
:100DD000BEF7DFFFDFFFFFFF75AD042110849294A3
:100DE000718C9AD679CEFBDEF7BDF39C9EF77DEF32
:100DF0003CE7FFFFDFFFFFFFFFFFFFFFFFFFFFFFFE
:100E0000FFFFFFFFFFFFFFFFFFFFFFFFFFFFFFFFF2
:100E1000FFFFFFFFFFFFFFFFFFFFFFFFFFFFFFFFE2
:100E2000FFFFFFFFFFFFFFFFFFFFFFFFFFFFBEF71B
:100E3000FFFFFFFFBEF7FFFFFFFFBEF70842A21054
:100E4000C7399294B29414A518C638C6FBDE96B57D
:100E5000D7BD9EF71CE7FFFFBEF7FFFFFFFFFFFFB9
:100E6000FFFFFFFFFFFFFFFFFFFFFFFFFFFFFFFF92
:100E7000FFFFFFFFFFFFFFFFFFFFFFFFFFFFFFFF82
:100E8000FFFFFFFFFFFFFFFFFFFFFFFFFFFFFFFF72
:100E9000FFFFFFFFFFFF9EF77DEFFFFF9EF74D6B0C
:100EA0002000E318A210694A14A5B29475AD18C6C3
:100EB00038C63CE755AD34A5FFFFFBDEFFFFDFFF83
:100EC000DFFFFFFFFFFFFFFFFFFFFFFFFFFFFFFF52
:100ED000FFFFFFFFFFFFFFFFFFFFFFFFFFFFFFFF22
:100EE000FFFFFFFFFFFFFFFFFFFFFFFFFFFFFFFF12
:100EF000FFFFBEF7DFFFFFFFFFFFDFFFFFFFBEF7D4
:100F0000D39C00000421A210042161084D6BF39CC6
:100F100014A5D7BD38C618C61CE734A559CE5DEF59
:100F20005DEFBEF7DFFFDFFFFFFFFFFFFFFFFFFF0C
:100F3000FFFFFFFFFFFFFFFFFFFFFFFFFFFFFFFFC1
:100F4000FFFFFFFFFFFFFFFFFFFFFFFFFFFFFFFFB1
:100F5000FFFFFFFFFFFFFFFFFFFFFFFFDFFF9EF72A
:100F6000FFFF18C68210C31882108210A210C31887
:100F7000E3181084F39CB6B5D7BD59CE38C63CE70C
:100F800075AD59CE3CE79EF7BEF7DFFFFFFFFFFFD1
:100F9000FFFFFFFFFFFFFFFFFFFFFFFFFFFFFFFF61
:100FA000FFFFFFFFFFFFFFFFFFFFFFFFFFFFFFFF51
:100FB000FFFFFFFFFFFFFFFFFFFFFFFFFFFF9EF7AA
:100FC000FFFFDFFFFBDE2842C318C31861080421BE
:100FD000A210410841086529B29414A5D7BD18C6CE
:100FE00018C6BAD679CE18C659CE9AD65DEFDFFFAD
:100FF000DFFFDFFFFFFFFFFFDFFFFFFFFFFFFFFF61
:10100000FFFFFFFFFFFFFFFFFFFFFFFFFFFFFFFFF0
:10101000FFFFFFFFFFFFFFFFFFFFFFFFFFFFFFFFE0
:10102000FFFFFFFF3CE7FFFFCB5AE739A631A210D5
:10103000C318200061082000C318AA528A52B29433
:10104000F7BD18C696B538C659CEDBDE18C618C629
:1010500059CE1CE7FFFFFFFFDFFFDFFFFFFFFFFFB2
:10106000FFFFFFFFFFFFFFFFFFFFFFFFFFFFFFFF90
:10107000FFFFFFFFFFFFFFFFFFFFFFFFFFFFFFFF80
:10108000FFFFDFFFFFFF7DEFFFFF3084E739A63171
:101090002842E31861084108200000006D6B18C663
:1010A0008A52EB5A14A596B559CE55AD79CEFBDED2
:1010B00079CEF7BDD7BD38C63CE7FFFFFFFFDFFFA6
:1010C000FFFFFFFFFFFFFFFFFFFFFFFFFFFFFFFF30
:1010D000FFFFFFFFFFFFFFFFFFFFFFFFFFFFFFFF20
:1010E000FFFFFFFFFFFFDFFFDFFFFFFF96B5A6312A
:1010F00028420842863145298210C3180000C739AA
:10110000FBDEFFFFF7BD08422C6355AD79CED7BD9E
:10111000F7BD38C6BAD69AD679CE18C618C6FBDE41
:10112000FFFFFFFFBEF7FFFFFFFFFFFFFFFFFFFF18
:10113000FFFFFFFFFFFFFFFFFFFFFFFFFFFFFFFFBF
:10114000FFFFFFFFFFFFFFFFFFFFFFFFFFFF9AD63D
:10115000A63128420842863165294529E318200036
:10116000E31875ADFFFF7DEFFFFF9294E739718CB7
:10117000F39CBAD696B596B538C6DBDEDBDE79CE03
:10118000F7BD38C61CE7DFFFFFFFFFFFFFFFFFFFD4
:10119000FFFFFFFFFFFFFFFFFFFFFFFFFFFFFFFF5F
:1011A000FFFFFFFFFFFFFFFFFFFFFFFFFFFFFFFF4F
:1011B0001CE7CB5A2842C739C7396529A6316529AA
:1011C00000004108D39CBEF7BEF7FFFFBEF79EF7B5
:1011D0006D6B494ACF7B75AD9AD655AD38C659CEA1
:1011E00079CEBAD6BAD638C6F7BDDBDEFFFFDFFF51
:1011F000DFFFFFFFFFFFFFFFFFFFFFFFFFFFFFFF1F
:10120000FFFFFFFFFFFFFFFFFFFFFFFFFFFFFFFFEE
:10121000FFFF7DEFEF7BC7398A52C73904210842AF
:101220002421042141084D6BFFFFFFFF7DEFFFFFED
:101230007DEFFFFF59CE8A522C638E7338C6D7BD1F
:1012400018C6D7BD18C69AD6FBDE9AD618C679CE70
:101250001CE7BEF7DFFFDFFFFFFFFFFFFFFFFFFF22
:10126000FFFFFFFFFFFFFFFFFFFFFFFFFFFFFFFF8E
:10127000FFFFFFFFFFFFF39C494A0842C739863151
:101280008631E318E3180000CB5ADBDEDFFFDFFF17
:10129000FFFF9EF7FFFF9EF7FFFF75AD28422C630F
:1012A000AE739AD696B5D7BD18C659CE79CEDBDEC9
:1012B0001CE79AD6D7BD9EF7BEF7DFFFFFFFFFFF03
:1012C000FFFFFFFFFFFFFFFFFFFFFFFFFFFFFFFF2E
:1012D000DFFFFFFF7DEFFFFFF7BD494A494AA63117
:1012E000C73945292421863100008631F7BDFFFF2B
:1012F0009EF7FFFFFFFFDFFFFFFFFFFFDFFFFFFFA7
:101300004D6B8A524D6BAE7359CE96B579CED39C48
:10131000EB5AEB5A75ADBEF738C659CE9EF7FFFFB4
:10132000BEF7FFFFFFFFFFFFDFFFFFFFFFFFFFFF36
:101330009EF7FFFFFFFFBEF7FFFF18C68A52284245
:10134000694AA63186314529084200004108F39CCC
:101350007DEFFFFFDFFFFFFFFFFFBEF7FFFFDFFFB8
:10136000DFFF9EF7FFFF8A528A526D6B108459CEC1
:10137000D7BD308496B596B59294BAD6FBDE18C622
:101380005DEFFFFFFFFFFFFFFFFFFFFFFFFFFFFF1F
:10139000FFFFFFFFFFFFFFFFDFFFBEF71CE7C739BF
:1013A0004529E73928426529C73924216108000009
:1013B00030849EF7FFFFFFFFDFFFFFFFFFFFDFFF30
:1013C000FFFFDFFFBEF7FFFFFFFF9AD6E7392C6371
:1013D0004D6BF7BD96B559CEBEF7DFFFBAD659CEE5
:1013E000BEF738C63CE7FFFFFFFFFFFFBEF7BEF7C3
:1013F000FFFFFFFFFFFFDFFFFFFFFFFFDFFFFFFF3D
:10140000BAD6E31804210842A631E3184529452934
:101410000000CB5ADBDEFFFFDFFFDFFFFFFFFFFF38
:10142000FFFFFFFFFFFFDFFFFFFFDFFF5DEFFFFFBE
:1014300055AD494A6D6BCF7B38C6D7BDFBDE3CE767
:1014400038C65DEF1CE79AD65DEFBEF7DFFFFFFF02
:10145000FFFFDFFFFFFFFFFFFFFFFFFF9EF7FFFF25
:10146000FFFFBEF7FFFFF39C6529042104216529D6
:10147000C3180000452959CEBEF7FFFFDFFFFFFF6D
:10148000FFFFDFFFFFFFFFFFDFFFFFFFFFFFDFFFCC
:10149000FFFFBEF7FFFFAE73694A1084F39C59CE7D
:1014A000D7BDD7BD59CE18C67DEFB6B53CE7FFFF17
:1014B000BEF7DFFFFFFFFFFFFFFFFFFFFFFFFFFFA5
:1014C000DFFFFFFFDFFFFFFFFFFFBEF734A5694A25
:1014D0008210821000002000B294BEF7FFFFFFFFD1
:1014E000FFFFFFFFFFFFDFFFFFFFFFFFFFFFDFFF4C
:1014F000FFFFFFFFDFFFFFFFDFFF1CE76D6BAA525F
:10150000B29475AD79CE59CE14A534A59294F39CBE
:10151000FBDEFFFFFFFFDFFFFFFFFFFFFFFFFFFF20
:10152000FFFFFFFFFFFFFFFF9EF7FFFF7DEFBEF70F
:10153000FFFF9AD60C6341082000CF7BFFFFFFFF1F
:10154000BEF7FFFFFFFFFFFFFFFFFFFFFFFFFFFFF4
:10155000FFFFBEF7FFFFBEF7FFFFFFFFDFFFFFFF4D
:101560009AD6AA528A521084718C3084CF7B8A52C8
:101570008A52F7BD7DEFFFFFFFFFFFFFFFFFFFFF79
:10158000FFFFFFFFFFFFFFFFBEF7FFFFFFFFBEF7FD
:10159000FFFFFFFFBEF7DFFFDFFF718C694AFBDE55
:1015A000BEF7FFFFDFFFFFFFFFFFDFFFFFFFFFFFD4
:1015B000FFFFBEF7FFFFFFFFFFFF9EF7FFFFFFFFED
:1015C000BEF7FFFFFFFF38C62C63E739AA528A52E5
:1015D00028426D6B34A5FFFFFFFFFFFFDFFFFFFF1A
:1015E000FFFFDFFFFFFFFFFFFFFFFFFFFFFFFFFF2B
:1015F000FFFFFFFFFFFFFFFFFFFFFFFFDFFF7DEFAD
:101600003CE79EF7FFFFFFFFDFFFFFFFFFFFFFFF4E
:10161000FFFFFFFFFFFFFFFFFFFFFFFFFFFFFFFFDA
:10162000FFFFFFFFFFFFFFFFDFFFDFFFDBDE75AD2B
:101630009294B29496B5DBDEBEF7FFFFFFFFFFFF8B
:10164000FFFFFFFFFFFFFFFFFFFFFFFFFFFFFFFFAA
:10165000FFFFFFFFFFFFFFFFFFFFFFFFFFFFFFFF9A
:10166000FFFFBEF79EF7DFFFFFFFFFFFDFFFFFFF7C
:10167000FFFFFFFFFFFFFFFFFFFFFFFFFFFFFFFF7A
:10168000FFFFFFFFFFFFFFFFFFFFFFFFDFFFFFFF8A
:10169000FFFFBEF79EF7BEF7DFFFFFFFFFFFFFFF75
:1016A000FFFFFFFFFFFFFFFFFFFFFFFFFFFFFFFF4A
:1016B000FFFFFFF7FFF7FFFFFFFFFEFFFDFFDEFF6E
:1016C000FEFFFDFFFFFF9FEFDFF73FDF9FE7FFF725
:1016D000FFF7BFF7BFFFDFFFFEFFFEFFFDFFFCFFD1
:1016E000FCFFFCFFFDFFFEFFFFFFDFFFDFFFDFFF73
:1016F000DFFFFFFFFFFFFFFFFFFFFEFFFFFFFFFF1B
:10170000FFFFFFFFFFFFFFFFFFFFFFFFFFFFFFFFE9
:10171000FEFFFFFFFFFFFFF7FFFFFFFFFFFFFEFFE3
:10172000FEFFDFFFFFFFDDF7FFF77FDFDFCE3C953A
:101730001A8DDDA5FFCE9FEFFFFFFFFFFFFFFFFF2D
:10174000FEF7FEFFFEFFFEFFFEFFFEFFFFFFFFFFB7
:10175000DFFFDFFFDFFFDFFFFFFFFFFFFEFFFEFF1B
:10176000FEFFFFFFFFFFFFFFFFFFFFFFFFFFFFFF8A
:10177000FFFFFFFFFFFFFFFFFFFFFEFFFFFFFFFF7A
:10178000DFFFDFFFDEFFDFFFFFFFFFF79FDF3C8DA7
:101790009F95FF9D1F9E3D85DB7C3B8DDDADDFCEA4
:1017A0009FE7FFF7FFF7FFF7FFFFBEEFDEF7FFFF53
:1017B000FFFFFFFFDFFFBFFFBFFFFFFFFFFFFFFFD9
:1017C000FFFFFEFFFEFFFFFFFFFFFFFFFFFFFFFF2B
:1017D000FFFFFFFFFFFFFFFFFFFFFFFFFFFFFEFF1A
:1017E000FFFFDFFFDFFFDFFFDFFFDFFFFFF7FFEFC1
:1017F0009DB61222D411D72A7E5C9F7DBFAEFF9D7D
:101800005E8DDC7CFB7C9C959FBE9FDFFFEFFFF72E
:10181000FFF7BFEFBFF7FFFFFFFFFFFFFFFFFFFF78
:10182000FFFFFFFFFFFFFFFFFFFFFFFFDFFFFFFFE8
:10183000FFFFFFFFFFFFFFFFFFFFFFFFFFFFFFFFB8
:10184000FFFFFEFFFFFFDFFFDFFFDFFFDFFFDFFF49
:10185000FFF7FFE71FBFB62A581AF7013702F60154
:101860007812FD4B1F753F965F9E9F8DDC74FB7C4D
:101870003B8D7FB67FDFFFF7FFF7DFF77EE7BEF731
:10188000FFFFFFFFDFFFDFFFDFFFFFFFFFFFFFFFC8
:10189000FFFFFFFFFFFFFFFFFFFFFFFFFFFFFFFF58
:1018A000FFFFFFFFFFFFFEFFFFFFDFFFBFFFDFFFC9
:1018B000DFFFDFFFFFF7FFE7BFAEB301590A5A0AA8
:1018C000FC1A9A0A3902390AF701170A5B33DF6CEE
:1018D000FF951F9EBF951D85DA7CF9841CAE9FE79E
:1018E000FFF7FFF7DFEFFFFFFFFFFFFFFFFFFFFF48
:1018F000FFFFFFFFFFFFFFFFFFFFFFFFFFFFFFFFF8
:10190000FFFFFFFFFFFFFFFFFFFFFEFFFFFFDFFF08
:10191000DFFFDFFFDFFFDFFFFFF7FFE7DFB6F409E1
:101920005A123601D8013A023A0219027B12DC1A25
:101930005A12D70118125C3B7F64BF951F9E1F9EF1
:101940005D8DB974D87CFCA51FCF5FDF9FEFFFFFD3
:10195000FFFFFFFFFFFFFEFFFFFFFFFFFFFFFFFF98
:10196000FFFFFFFFFFFFFFFFFFFFFFFFFFFFFEFF88
:10197000FFFFDFFFDFFFDFFFDFFFFFFFFFF7FFEF0F
:10198000DFB6D311591A9200F40055011401B701C2
:10199000B701F8013A125B1A5A1A1912D70917122D
:1019A000D92A1D547F853F9E3F9E7E85DA7C1995FE
:1019B0001CB65FE7FFFFFFFFFFFFFFFFFFFFFFFF1B
:1019C000FFFFFFFFFFFFFFFFFFFFFFFFFFFFFFFF27
:1019D000FFFFFEFFFFFFFFFFDFFFFFFFFEFFFFFF39
:1019E000FFF7FFEFFFBE7009F519F200B5015401D2
:1019F00074015401F30014011401560119127B1AE9
:101A00005A1A191219123912170AB9229B3B9F7DD3
:101A1000FF955FB67FC69EC6BFEFBFEFFFFFBEF765
:101A2000FEFFFFFFFFFFFFFFFFFFFFFFFFFFFFFFC7
:101A3000FFFFFFFFFFFFFEFFFFFFFFFFDFFFFEFFD8
:101A4000FEFFFFFFFFFFFFF77CB6322AB319AF009E
:101A500011017209520131015201B5117409F300EB
:101A6000D300F400F600FA113B1A7B1A1A0A390A5D
:101A700018027A12571A5B6C5FDFDFCE7DBEFFF76C
:101A8000FFFFFFFFFFFFFFFFFFFFFFFFFFFFFFFF66
:101A9000FFFFFFFFFFFFFFFFFFFFFFF7FFFFFFFF5E
:101AA000FFFFFEFFFDFFFEFFFFFFFFFF3ED7797C3C
:101AB000D221AE002F097119EF08701130090F09FA
:101AC0003109520974099509760115015701570129
:101AD000B9013B0A7C121A02180A752ADC847FDFDE
:101AE000FDAD1FD7FFF7DFEFFFFFFFFFFFFFFFFF9A
:101AF000FFFFFFFFFFFFFFFFFFFFFFFFFFFFFFF7FE
:101B0000FFFFFFFFFFFFFEFFFDFFFEFFFEFFFDF7F4
:101B1000DFEF7CA54F196C000E11CD080E110D11D1
:101B20002D11CC080E09500910013209530134015E
:101B30005501F500D4001601B901B9017A1A151A38
:101B400013227FB6BFDF9A9DDFEFFFF7FFFFFFFF96
:101B5000FFFFFFFFFFFFFFFFFFFFFFFFFFFFFFFF95
:101B6000FFFFFFF7FFFFFFFFDFFFFEFFFDFFFEFFB1
:101B7000FEFF9CEFFFF71B95EE10AD002F118D00BF
:101B8000F54A1B953B9DB563B242F029ED00EE008E
:101B9000CF0011015201F611950155013501B30035
:101BA000340174019311B5323FCFFFC65CB6FFF725
:101BB000FFFFFFFFFFFFFFFFFFFFFFFFFFFFFFFF35
:101BC000FFFFFFFFFFFFFFFFFFFFDFFFDFFFDFFF85
:101BD000FEFFFEFFFFFFFEFFFFF7DB8C2F112F1133
:101BE000CE088D00F96BFFEFFFF79FC6DFCEDFEF6A
:101BF000DFCEFC84B43AF1218D005109F00073016D
:101C0000B40974011301F20094096D00564BFFE70B
:101C10007DBE7BBEFFFFFFFFFFFFFFFFFFFFFFFF5C
:101C2000FFFFFFFFFFFFFFFFFFFFFFFFFFFFDFFFE4
:101C3000DFFFDFFFDEFFDFFFFFFFFFFFFFEF9E9D08
:101C4000EF08CF004D00CF00F2299FE73FDF72631E
:101C50008B21B042777CFFCEDFE775536E11F442E3
:101C60004F090E01CE00B2119311540175093101D3
:101C7000CD00BD9D7FD73AB67EE7DFF7DEF7FFFFE9
:101C8000FFFFFFFFFFFFFFFFFFFFFFFFFFFFFFFF64
:101C9000FFFFDFFFDFFFFFFFFEFFDFFFDFFFBEF71E
:101CA000FFF71FCF3109EE00CD00122A0900E90825
:101CB0007DC6FFF75EBEF04A05002A11703A8D1905
:101CC000B23AFFE7FFC63A6CED080E09CE001201EA
:101CD00054093201EF006E115FB6DFEF579D9FEFA1
:101CE000BEF7DFFFFFFFFFFFFFFFFFFFFFFFFFFF6D
:101CF000FFFFFFFFFFFFFFFFFFFFFFFFFEFFDFFF15
:101D0000BFFFFFFFDFEF7FAE91094900F66B7FE772
:101D100019956C3A2711F36B1FD7FFEF5C9569009B
:101D20002D094E118B00D44ABC847763F55237637A
:101D3000F239CF08F1081309D200D52154321FAE71
:101D40008B19DED6BFF7FFFFDFFFFFFFFEFFFDFFB2
:101D5000FDFFFFFFFFFFFFFFFFFFFFFFFFFFFEFF96
:101D6000FEFFDFFFBFFF1DEFFFF73FA69209AB00AD
:101D7000167CDFFFBFF7FFFF9DCE968C7EBEFFEF88
:101D80009FDFFB8CCB08AB008B0049002900AE29FC
:101D9000798CDA9CB2522D19EE08B000D100941162
:101DA00014221D8D6B111FDFDFFFDFFFDFFFFFFF41
:101DB000FFFFFDF7FDF7FFFFFFFFFFFFFFFFFFFF47
:101DC000FFFFFEFFFEFFDEFFBEFFFFFF5FDFB6325D
:101DD00032014D000A00503917731CADBFFFDFFF01
:101DE000BFF7DFF7FFF75FE7C8089363567C7263BE
:101DF000EF4AB68CBDCE1ED7FED67FDF797CED00D4
:101E00006D00D211D5321B85CC215FE7FFFFDFFFCC
:101E1000BFFFDFFFFFFFFFF7FFFFFFFFFFFFDFFF5A
:101E2000DFFFDFFFFFFFFFF7FEF7DEFFDEFFBFFF95
:101E3000FFD6510113018E082C100B080B104C100B
:101E4000CD2015633DAD7FD65FCE9473C810DFF70C
:101E5000FFFF7FE7BFEFFFF7FFF7BDE7FFF7FFF7F4
:101E60001FCFF342AC00900951221A7D8A195FDF1F
:101E7000BFF7DFFFBFFFDFFFDFFFFFFFFFFFFFFF5A
:101E8000FFFFDFFFDFFFDFFFFFFFFFF7FEF7FFFFD3
:101E9000DFFFDFFFBFCE300193112B006B200A2044
:101EA0000B186E100B004D006D086C102A082910DD
:101EB000B67B7FFFDFFFDFFFBFF79FEFBFEFFFF7CF
:101EC000FFF7FFEFFFEF386CCC00900931227B85E4
:101ED0002B227EDFDFF7DFFF9FFFDFFFDFFFDFFF6C
:101EE000FFFFFFFFFFFFFFFFFFFFDFFFFFFFFFF72A
:101EF000FFF7DFFFDFFFFFFF3CB60E01B21907005F
:101F0000A828052826202808CC104A080A008D1881
:101F10006D100B008D187352398C9FD6DFFFDFF7E1
:101F2000DFF7FFF79FEFFFF79FC672326C00F219E1
:101F30003222B86CF67CFFEFFFFFFFFFDFFFDFFF11
:101F4000DFFFDFF7FFFFFFFFFFFFFFFFFFFFFFFFE9
:101F5000FFFFFFF7FFF7DFFFDFFF9FEFDEC6EF19A1
:101F60006C09A83132BD6EB4288BC3510231000810
:101F70004618AB180B004E0070004F002D006C008F
:101F80008F29F35AB573B583D58391526F218E0093
:101F90008F007309D632712A1BA6FFEFFFFFFEFFE9
:101FA000FEFFFFFFFFFFDEFFFFFFFFFFFFFFFEFF64
:101FB000FEFFFFFFFFFFFFF7FFF7DFFFBFFFFFFFA2
:101FC0009DC68C090901274290C5CBBC2BD56AD58B
:101FD00067B4A79B456282202510691009000C0098
:101FE000F0186E080B004C084B080800090809009F
:101FF0004C08D1100F0055095FA63122756CFFE720
:10200000FEF7DDFFDCFFFEFFFEFFFDFFFEFFFFFF33
:10201000FFFFFEFFFEFFFFFFFFFFFFF7FFF7DFFF02
:10202000BFFFFFFF7CBE8C094A09474AB4E66DD565
:1020300086BC25DD24DD24D545D506CD05AC8472CE
:102040006449031807100B104E104E082D004D0068
:102050008D086C100B089110310035111E645FAEB5
:102060008B115DD7FEF7FDFFFDFFFDFFFDFFFDFFBF
:10207000FEFFFFFFFFFFFEFFFEFFFFFFFFFFFFF77B
:10208000FFF7DFFFBFFFFFFF7CBE8D094B09AB529F
:10209000DBFF78FF55FFABED67E505DDE4DC05DD33
:1020A00006DDE7DCA9D46CC4C98AE548041806102B
:1020B000280869088A1028102A10B0185100510009
:1020C000F6213E858B113ED7FFF7FDFFFDFFFEFF9A
:1020D000FEFFFEFFFEFFFFFFFFFFFFFFFFFFFFFF13
:1020E000FFFFFFF7FFF7DFFFBFFFFFFF9EC66F0990
:1020F000ED004E429FFF9FFF9EFF9DFF9CFFD8FE7D
:10210000F4FD30F5CCE4A9E4A6E4E5EC25ED46EDDC
:10211000C7D4659BA2596030001843200410090001
:102120008E083319D4215F8D6B113ED7FFF7FEFF68
:10213000FFFFFFFFDFFFFFFFFFFFFFFFFFFFFFFFCF
:10214000FFFFFFFFFFFFFFF7FFF7DFFFBFFFDFFF2F
:102150005DBE70093001924ABFFF9FFF7FFF1FFFE6
:102160005FFF7FFF7FFF7DFFF7FE51FEECFDE4E4A4
:10217000C2DCC1DC03E527EDE9E44AD4CABB256A29
:10218000454105084A089221F4297F950A093FD75D
:10219000FFF7FFFFFFFFDFFFDFFFFFFFDFFFFFFFB7
:1021A000FFFFFFFFFFFFFFFFFFFFFFF7FFF7DFFF6F
:1021B000BFFFDFFF5DBE70093101B34A9FF7FFEE3D
:1021C0007FEE9FFF9FFFBFFFBEFFFCFFFBFFF9FFFE
:1021D000D8FFD8FFF5FEAFEDCBE469EC68F446FC20
:1021E00046ECCBCCAEACAC62C9180E1950197E953A
:1021F0006B113FD7FFF7DFFFDFFFDFFFDFFFDFFF01
:10220000DFFFFFFFFFFFFFFFFFFFFFFFFFFFFFFFFE
:10221000FFFFBFFFBFFFDFFF7EC670092F01913AAE
:102220007FEFBFDE3CCEBAC51ACEDBDEBDF7FDFFC9
:10223000FDFFFDFFFDFF5BF7BDFFBDFF7AFF74FEF5
:10224000AEFD2AFDE8EC4ADDCFD5509C09290D19D9
:10225000B021BE9DAC193ED7FFF7FFFFFFFFFFFF88
:10226000DFFFFFFFDFFFFFFFFFFFFEFFFEFFFEFFC1
:10227000FFFFFFFFFFFFBFFF9FFFDFFF5DC66F098F
:102280006E013043FFF7FFFFFDF7DDE77BD7B9C6EF
:1022900037B617BE9AD65DF7FFFFFEFFFDFFDCFFE6
:1022A000BBFFFBFFFBFFFAFF76F78BCDCEDDB0B4B3
:1022B000C7202D2111325D952A113ED7FFF7FEFF71
:1022C000FEFFFFFFDFFFFFFFFFFFFFFFFFFFFCFF42
:1022D000FDFFFEFFFFFFFFFFFFFFBFFFBFFFDFFFB1
:1022E0007DBE8F094E01AE3ADFE7BCEF9AE7FDEF06
:1022F000FDEFFEF7FEEF1CDF5ACEF9CDD8CD9ADE0A
:102300007CF7FEFFFDFFFDEFFEEFFEE7FDF7F8FFB8
:10231000D9FF9AE64A312D19F1293B8D8A193ED70A
:10232000FFF7FEFFFEFFFFFFFEFFFFFFFFFFFFFFC8
:10233000FFFFFBF7FCFFFFFFDFFFDFFFDFFFDFFF3C
:10234000FFFFFFF7DFC64F090F01B342DFF73DE79D
:10235000D4BD56C6D8CE5BE7DEF7FFFFFFFFDFFF39
:102360009FF79AD658C617BE78C61BD7DDE7FEEF93
:10237000FEF7FDFFDFFF5FEF6D212D0910229C8D21
:10238000A9115DD7FFF7FFFFFFFFFFFFFFFFFFFF73
:10239000FFFFFFFFFFFFFBF7FCF7FFFFDFFFBFFFC4
:1023A000BFFFFFFFFFF7FFEFDFBE4F0930093332FA
:1023B0005FE79FF7FEFF5CF7FBE659CE18C659CEE4
:1023C000FBE69EF7FFFFFFFFFFFF9EEFFBDE79C6F8
:1023D00038C679CEBAD65EEFDFFF3FDF8E194F11D8
:1023E00031229B8D89095DD7FFF7FFFFFFFFFFFFBC
:1023F000FFFFFFFFFFFFFFFFFFFFFEF7FFF7FFFFFE
:10240000BFFFBFFFBFFFFFFFFFF7FFE79DAE6E09F6
:10241000901152329FEF1CE79CF75FF79FFF9FFFE1
:102420005FF7DCDE59CE38CE57CE3BE77CEFDEFFE0
:10243000FFFFFFFFBFF7FDDE5ACE1DE7BFF73FDF0F
:102440008E194E1131227B8D89115DD7FFF7FFFF69
:10245000FFFFFFFFFFFFFFFFFEFFFFFFFFFFFFF795
:10246000FFFFDFFFBFFFBFFFBFFFFFFFFFF7FFEF74
:10247000BEB66D092E09102ABFEFF8B554A51AC6CD
:102480009CD63FEFDFFFFFFFBFF75DEF1BE758CEA6
:1024900038C618C69AD63DEFBFFFFFFFDFFF9EF795
:1024A000FFFF3FE76D192E0910227B8D89115ED742
:1024B000FFFFFFFFFFFFFFFFFFFFFFFFFEFFFFFF2D
:1024C000FFFFFFF7FFFFDFFFBFFFBFFFDFFFFFFFE4
:1024D000FEF7FFEFBEB64C090D01F0297FDFFDD6F8
:1024E0003CE799CEF6BD55AD76AD59CE3DE79FF7A9
:1024F000BFFFBFFF9FFF3EEF9BDEF8CDF7C579D64C
:10250000FAE69DFFFFFF5FE78D212E1110227C8DE3
:102510008A113ED7FFFFFFFFDFFFFFFFFFFFFFFF37
:10252000FEFFFFFFFFFFFEFFFFFFFFFFDFFFDFFFFD
:10253000DFFFFEFFFEF7FFEF7DB66D118F116F1904
:102540007A7C9BAD7FE79DE77CE71BDF9ACE19BEC7
:10255000D8BDF9BD1AC6FEE65FEFDFFFFFFFBEFF85
:102560001BEF98DE57D65BF7DFFF5FE78D214E113B
:1025700011225C8D49113FDFFFFFDFFFDFFFFFFF0F
:10258000FFFFFFFFFEFFFFFFFFFFFCFFFDFFFFFF61
:10259000FFFFDFFFFFFFFDFFFEF7FFF79EBE6E119F
:1025A00050118E00CE088F29904AB68CD9AD3ED7F7
:1025B000BFEF5EDFBCCE7AC659C695AD95B5F6BD08
:1025C00099D65BEFDDFFFEFFFDFF3BEFBFFF3FE76F
:1025D0006D214E1111225C956A113FDFFFFFDFFF75
:1025E000DFFFFFFFFFFFFFFFFEFFFFFFFFFFFCFF1F
:1025F000FCFFFEFFFEFFFFFFFEFFFDFFFEF7FFF704
:102600009EBE2C112F11711951199021AB08CA08C7
:102610004B116F3A3574FBAD1ED75EDF3DDF3CDFFB
:102620001BDFB9CE16BEB5B5D5B577CEF9DE9CF7B2
:10263000FFFF3FDF4C190D09F1217C958B213FDF16
:10264000FFFFDFFFDFFFDFFFFFFFFFFFFEFFFFFFFB
:10265000FFFFFCFFFDFFFEFFFEFFFEFFFEFFFEFF94
:10266000FEFFFFF71FD799841132AD08CE084F192E
:102670007021B22171190E09CC000B090E2AF46BDE
:1026800099A5BCC63DD75DDF1BD7FAD61AD777C64A
:10269000B4ADF7BD9FEF1FDF4D196F11D0199D9D90
:1026A0004A111FDFDFFFDFFFBFFFDFFFFFFFFFFF7D
:1026B000FFFFFFFFFFFFFEFFFEFFFFFFFFFFFFFF2C
:1026C000FFFFFEFFFFFFFFFFFFF7FFF71FD7DFADA5
:1026D000397C71420D11CE00EF087119D121B02162
:1026E0004D110B090A098B19715B799D9CBEDDCEDA
:1026F0001DD73DD73DDFDCD6DDD69FC66E19B1199B
:102700001222FB84CC213FDFFFFFDFFFDFFFDFFF73
:10271000FFFFFFFFFFFFFFFFFFFFFFFFFFFFFFFFC9
:10272000FFFFFFFFFFFFFFFFFFFF7DEFDFF7FFFF73
:10273000FFF7FFF7BFEF3FD79FC65774144BCF216A
:102740000C09ED080E114F1170192F11EE10ED0844
:102750006E21D24A997C1EB61FD73FDFFFD69FC697
:10276000CD00AD00532A1B85CC213EDFFFFFDFFFEC
:10277000DFFFDFFFFFFFFFFFFFFFFFFFFFFFFFFFA9
:10278000FFFFDFFFFFFFFFFFFFFFFFFFFFFFFFFF79
:10279000FFFFFFFFDFF7DFF7FFF7FFF7FFEFFFEFC9
:1027A0007FD73DAE3A8D5874555B11322F110F1102
:1027B0001011301951191011EF0850191132988465
:1027C0009CA5BFA591111001742A1A8528093EDF26
:1027D000DFFFDFFFDFFFDFFFFFFFFFFFFFFFFFFF89
:1027E000FFFFDFFFDFFFFFFFFFFFFFFFFFFFFFFF39
:1027F000FFFF9EF7BEFFDEFFFEFFFFFFFFFFFFF7BD
:10280000FFF7FFEFFFEFFFF7FFF7FFF7BFE79EBE12
:102810007B9D946331320E09F01073219521551977
:1028200033194B000C092F09CF003101B1115C8D18
:102830000B2A3DD7DEF7DFFFBFFFDFFFFFFFFFFF04
:10284000FFFFFFFFFFFFFFFFFFFFFFFFFFFFFFFF98
:10285000FFFFFFFFDFFFFFFFFFFFFEFFFEFFFDFFAC
:10286000FEFFFEF7FEF7FFFFFFFFDFF7BEEFFFEF14
:10287000FFF7FFF7FFF7FFF75FD7BDA5D863D121BB
:102880008E00D0007219B021F121CF007309930995
:10289000B1091A7D27095DDFFEFFFEFFBEFFDFFFE6
:1028A000DFFFFFFFFFFFFFFFFFFFFEFFFEFFFEFF5B
:1028B000FFFFFFFFFFFFFFFFDFFF9FFFBEFFDEFF0A
:1028C000FEFFFEFFFFFFFFFFFFFF9CEFDDFFFEFFB0
:1028D000FFFFFFFFFFFFFFF7BFE7DFEFFFF7FFEFB0
:1028E000FFEF5FD7588DCE3A29090C093009D00087
:1028F0009409730154225B85C9199EE7FEFFFEFF10
:10290000BEFFDFFFDFFFFFFFFFFFFFFFFFFFFEFF59
:10291000FEFFFEFFFEFFFFFFFFFFFFFFFFFFDFFFEA
:10292000DFFFDEFFFEFFFEFFFFFFFFFFFFFFFEFFFB
:10293000FEFFFEFFFEFFFFFFFFFFFFFFFFF7FFF7BA
:10294000FFF7FFEFFFEFFFF7FFEFDDDF3DCFB884CD
:10295000B33A9111B2198D00AF11FC9D7795DEEF5E
:10296000FEFFFEFFBEFFDFFFFFFFFFFFFFFFFFFFDA
:10297000FFFFFFFFFFFFFFFFFFFFFFFFFFFFFFFF67
:10298000FFFFFFFFFFFFFFFFFFFFFFFFFFFFFFFF57
:10299000FFFFFFFFFFFFFFFFFFFFFFFFFFFFFFFF47
:1029A000FFFFFFFFFFFFFFFFFFFFFFFFFFF7FFF747
:1029B000FFF7FFFFFFF71FD7D98CF24AD46BBDC6D4
:1029C000FFF7FFFFFEFFFFFFFFFFFFFFFFFFFFFF20
:1029D000FFFFFFFFFFFFFFFFFFFFFFFFFFFFFFFF07
:1029E000FFFFFFFFFFFFFFFFFFFFFFFFFFFFFFFFF7
:1029F000FFFFFFFFFFFFFFFFFFFFFFFFFFFFFFFFE7
:102A0000FFFFFFFFFFFFFFFFFFFFFFFFFFFFFFFFD6
:102A1000FFFFFFFFFFFFBEF7DFFFFFFFDFF7BFEFA7
:102A2000FFF7FFF7BDEFFEFFFEFFFFFFFFFFFFFF1A
:102A3000FFFFFFFFFFFFFFFFFFFFFFFFFFFFFFFFA6
:102A4000FFFFFFFFFFFFFFFFFFFFFFFFDFFFFFFFB6
:102A5000FFFFDFFFDFFFFFFFFFFFFFFFFFFFBFFF06
:102A60005DF73DEF3DEF3CEF1CE77DF75DEF5DEF80
:102A70005DEF5CEF7DF77DF79DF79DF7BDF7FEFFFE
:102A8000FFFFBEF7DFFFFFFFFFFFFFFFFFFFFFFFBF
:102A9000FFFFFFFFFFFFFFFFFFFFFFFFFFFFFFFF46
:102AA000FFFFFFFFFFFFFFFFFFFFFFFFFFFFFFFF36
:102AB000DFFFFFFFFFFFDFFFDFFFFFFFDFFF7EF72F
:102AC0007EF75DEF1CE71CE71CE71CE7DBDE1CE77D
:102AD0001CE71CE71CE71BE71BE7FBE6FBDEB9D6A0
:102AE0001ADF9DF7FFFFFFFFFFFFFFFFDFFFFFFF85
:102AF000FFFFFFFFFFFFFFFFFFFFFFFFFFFFFFFFE6
:102B0000FFFFFFFFFFFFFFFFFFFFFFFFFFFFFFFFD5
:102B1000FFFFFFFFDFFFFFFFFFFFFFFFFFFFFFFFE5
:102B20009EF7FCE61CEF3DEF1CE71CE73CEF1CE7C3
:102B3000FCE6FBE61BE71CE71CE71BE7DADEB9D681
:102B400099D637C657C6DADEDEF7FFFFFFFFFFFF75
:102B5000DFFFFFFFFFFFFFFFFFFFFFFFFFFFFFFFA5
:102B6000FFFFFFFFFFFFFFFFFFFFFFFFFFFFFFFF75
:102B7000FFFFFFFFFFFFFFFFFFFFFFFFFFFFFFFF65
:102B8000FFFFDFFF5DEFDBDE1CE73DEF3CEF3DEFDE
:102B90005DEF3DEF1CE7FBE61BE71BE71BE7FBE6F2
:102BA000DADE99D678CE37C616BE37C61BE7FFFFEA
:102BB000FFFFDFFFFFFFFFFFFFFFFFFFFFFFFFFF45
:102BC000FFFFFFFFFFFFFFFFFFFFFFFFFFFFFFFF15
:102BD000FFFFFFFFFFFFFFFFFFFFFFFFFFFFFFFF05
:102BE000FFFFFFFFFFFFDFFF3CE79AD6DBE61CEFAE
:102BF0001CEF1CEF1CEF1CE7FBE6DBDEDADEDADEA7
:102C0000BADE99DE79D658CE58CE58CE17C6D6BD84
:102C100099D6BEF7DFFFDFFFFFFFFFFFFFFFFFFFDC
:102C2000FFFFFFFFFFFFFFFFFFFFFFFFFFFFFFFFB4
:102C3000FFFFFFFFFFFFFFFFFFFFFFFFFFFFFFFFA4
:102C4000FFFFFFFFFFFFFFFFFFFFDFFF1CE79AD63D
:102C5000FBE63CEF1CEF1CE71CE7FBE6FBE6DADEDD
:102C6000DADEBADE99D679D658CE38CE37CE37C628
:102C700037C6F6BD99CEDEFFFFFFBEF7FFFFFFFFB1
:102C8000FFFFFFFFFFFFFFFFFFFFFFFFFFFFFFFF54
:102C9000FFFFFFFFFFFFFFFFFFFFFFFFFFFFFFFF44
:102CA000FFFFFFFFFFFFFFFFFFFFDFFFFFFFDFFF74
:102CB0001CE7BADEFBE63CEF3CEF1CEF1CEF1BE72A
:102CC0001BE7DAE6DADEBADE99D678D658CE37CE0A
:102CD00017C6D6BD57C6F6BD79CEFEFFFFFFBFF7BC
:102CE000FFFFFFFFFFFFFFFFFFFFFFFFFFFFFFFFF4
:102CF000FFFFFFFFFFFFFFFFFFFFFFFFFFFFFFFFE4
:102D0000FFFFFFFFFFFFFFFFFFFFFFFFFFFFDFFFF3
:102D1000FFFFDFFF1CE79AD6FBE63CEF3CEF1BE72B
:102D20001BE71BE71BE7DADEDADEBADE99D678D6D8
:102D300037CEF6C5D6BDB5B557C6F6BD58CEDEFF03
:102D4000FFFFDFFFFFFFFFFFFFFFFFFFFFFFFFFFB3
:102D5000FFFFFFFFFFFFFFFFFFFFFFFFFFFFFFFF83
:102D6000FFFFFFFFFFFFFFFFFFFFFFFFFFFFDFFF93
:102D7000FFFFFFFFDFFFFFFF1CE7BADEFBE61BEFF5
:102D80001BEF1BEF1BEF1BEF1BE7FAE6DAE6B9DEE2
:102D900078D637CE16CEF6C5D6BDF6BD16C6D6BD8C
:102DA00058CEFFFFDEFFFFFFFFFFFFFFFFFFFFFF2C
:102DB000FFFFFFFFFFFFFFFFFFFFFFFFFFFFFFFF23
:102DC000FFFFFFFFFFFFFFFFFFFFFFFFFFFFFFFF13
:102DD000FFFFDFFFFFFFFFFFDFFFFFFF1CE7BADEA4
:102DE000FBE61BEFFBE6FBE6FBE6FBE6DAE6DAE6F4
:102DF000DADE99DE78D637CE16C6F6C5D5BDF6BD75
:102E000037C6F6BD78CEFFFFDEFFFFFFDFFFFFFF17
:102E1000FFFFFFFFFFFFFFFFFFFFFFFFFFFFFFFFC2
:102E2000FFFFFFFFFFFFFFFFFFFFFFFFFFFFFFFFB2
:102E3000FFFFFFFFFFFFDFFFFFFFFFFFDFFFFFFFE2
:102E40001CE79ADEDAE6FBEEFBE6FBE6FAE6FAE6DC
:102E5000DAE6B9DE99DE78DE57D617CEF6C5D5C5E7
:102E6000B5BDD6BD16C6D6BD58CEFFFFDEFFFFFFEF
:102E7000DFFFFFFFFFFFFFFFFFFFFFFFFFFFFFFF82
:102E8000FFFFFFFFFFFFFFFFFFFFFFFFFFFFFFFF52
:102E9000FFFFFFFFFFFFFFFFFFFFDFFFFFFFFFFF62
:102EA000DFFFFFFF1CE779D6BADEFAE6FAE6FAE6BC
:102EB000FAE6FAE6DAE699DE98DE78D637CE16CE6E
:102EC000D5C5B5BDB5BD94B5D6BDB5B558CEFFFF1A
:102ED000DEFFFFFFDFFFFFFFFFFFFFFFFFFFFFFF43
:102EE000FFFFFFFFFFFFFFFFFFFFFFFFFFFFFFFFF2
:102EF000FFFFFFFFFFFFFFFFFFFFFFFFFFFFDFFF02
:102F0000FFFFFFFFDFFFFFFF1CE779D6B9DEDAE640
:102F1000FAE6DAE6DAE6DAE6B9DE99DE98DE78D6BF
:102F200037CEF6C5D5C594BD94BD74ADD5B5B5B590
:102F300058CEFFFFDFFFFFFFDFFFFFFFFFFFFFFFB9
:102F4000FFFFFFFFFFFFFFFFFFFFFFFFFFFFFFFF91
:102F5000FFFFFFFFFFFFFFFFFFFFFFFFFFFFFFFF81
:102F6000FFFFDFFFFFFFFFFFDFFFFFFF1CE799DE33
:102F7000DAE61BEFFBEEFAE6DAE6B9E699DE98DE72
:102F800078D657D616CED5C594BD74B553B574ADA5
:102F9000D5B5B5B578CEFFFFDFFFFFFFDFFFFFFF41
:102FA000FFFFFFFFFFFFFFFFFFFFFFFFFFFFFFFF31
:102FB000FFFFFFFFFFFFFFFFFFFFFFFFFFFFFFFF21
:102FC000FFFFFFFFFFFFDFFFFFFFFFFFDFFFFFFF51
:102FD0001CE737CE78D6B9DEB9DEB9DEB9DE98DEC9
:102FE00078D657D637CEF6C5B5BD73B532AD12AD6E
:102FF000F1A412A574AD95AD58C6FFFFFFFFFFFF0A
:10300000DFFFFFFFFFFFFFFFFFFFFFFFFFFFFFFFF0
:10301000FFFFFFFFFFFFFFFFFFFFFFFFFFFFFFFFC0
:10302000FFFFFFFFFFFFFFFFFFFFDFFFFFFFFFFFD0
:10303000DFFFFFFF1BE754B594C5F4CD14D614DEB3
:1030400034DE14DEF3DDD3D5D2D591CD50C50FB526
:10305000CEAC8DA46EA48F9C11A532AD16C6FFFF19
:10306000FFFFFFFFFFFFFFFFFFFFFFFFFFFFFFFF70
:10307000FFFFFFFFFFFFFFFFFFFFFFFFFFFFFFFF60
:10308000FFFFFFFFFFFFFFFFFFFFFFFFFFFFFFFF50
:10309000FFFFFFFFDFFFBEF77DF74B7BEC9BE99B5C
:1030A000AABC47BC67C467CC68D4C9D4C9D4E8D427
:1030B000E7D4E8CCC8CCC9CCCBCC4FCD71C54D94AE
:1030C00077D6FEFF9DF7FFFFFFFFFFFFFFFFFFFF2C
:1030D000FFFFFFFFFFFFFFFFFFFFFFFFFFFFFFFF00
:1030E000FFFFFFFFFFFFFFFFFFFFFFFFFFFFFFFFF0
:1030F000FFFFFFFFFFFFFFFFDFFFBEF79DFF2E9CDF
:10310000CA9B28B4E9D4A6D4C6E4A6E4A6ECE6ECAF
:1031100006ED25ED45ED45ED67ED68ED6BE58FDDE1
:1031200050C56DA4F8EEFEFFDEF7FFFFFFFFFFFFC7
:10313000FFFFFFFFFFFFFFFFFFFFFFFFFFFFFFFF9F
:10314000FFFFFFFFFFFFFFFFFFFFFFFFFFFFFFFF8F
:10315000FFFFFFFFFFFFFFFFFFFFFFFFDFFFDFFFBF
:10316000DEFF11B5488B48B4C8CCE6DCE5E4C5E425
:10317000C5EC06F525F545ED64EDA5F5A7F5A9F532
:10318000ACEDF0E50FBDAEA49BFFFEFFFFFFFFFF20
:10319000FFFFFFFFFFFFFFFFFFFFFFFFFFFFFFFF3F
:1031A000FFFFFFFFFFFFFFFFFFFFFFFFFFFFFFFF2F
:1031B000FFFFFFFFFFFFFFFFFFFFFFFFFFFFDFFF3F
:1031C000DFFFFFFFFEFFD4CDE67A28ACA6C405DD05
:1031D00004E5C4E4E4EC45F565F584F5A4F5A4ED57
:1031E000A6EDA7F5AAEDD0DDADAC10B5FDFFDDFF76
:1031F000FFFFFFFFFFFFFFFFFFFFFFFFFFFFFFFFDF
:10320000FFFFFFFFFFFFFFFFFFFFFFFFFFFFFFFFCE
:10321000FFFFFFFFFFFFFFFFFFFFFFFFFFFFFFFFBE
:10322000FFFFFFFFDFFFFFFFFEFFD8EE478327A46E
:10323000A6C426DD24E504ED24F585FDA4F5A3F55B
:10324000C3F5E4F5E5F5C7F5AAEDAFD54D9CB2C5DC
:10325000FDFFDDFFFFFFFFFFFFFFFFFFFFFFFFFFA2
:10326000FFFFFFFFFFFFFFFFFFFFFFFFFFFFFFFF6E
:10327000FFFFFFFFFFFFFFFFFFFFFFFFFFFFFFFF5E
:10328000FFFFFFFFFFFFFFFFFFFFFFFFFEFF7BFFD3
:103290000B9CC69BA6BC46DD44E503E544F584F5DE
:1032A000A3F5C3F5E3F503F605F6E7F5EBED8FD5EA
:1032B0006D9C96DEFDFFFEFFFFFFFFFFFFFFFFFFA0
:1032C000FFFFFFFFFFFFFFFFFFFFFFFFFFFFFFFF0E
:1032D000FFFFFFFFFFFFFFFFFFFFFFFFFFFFFFFFFE
:1032E000FFFFFFFFFFFFFFFFFFFFFFFFFFFFFFFFEE
:1032F000DEFFDDFFEFB4858BA6BC26DD44E523E5CC
:1033000084F583F5A3F5C2F502F604F625F607FE6B
:103310002BF68FCD8EA47AFFFDFFFFFFFFFFFFF797
:10332000FFFFFFFFFFFFFFFFFFFFFFFFFFFFFFFFAD
:10333000FFFFFFFFFFFFFFFFFFFFFFFFFFFFFFFF9D
:10334000FFFFFFFFFFFFFFFFFFFFFFFFFFFFFFFF8D
:10335000FFFFDFFFBEFFFEFFB3CD658BA7BC46DDE1
:1033600065E543EDA4FDC4FDE4FD03F623F645F653
:1033700046FE49FE4CF66FC5AFA4FDFFBDFFFFFF43
:10338000DFF7BEF7FFFFFFFFFFFFFFFFFFFFFFFFBE
:10339000FFFFFFFFFFFFFFFFFFFFFFFFFFFFFFFF3D
:1033A000FFFFFFFFFFFFFFFFFFFFFFFFFFFFFFFF2D
:1033B000FFFFFFFFFFFFFFFFFFFFBEFFF9F6678B79
:1033C00026AC88DDA6ED65EDC5FD05FE04FE23F601
:1033D00024F645F627F629FE6EF68CACF4CDFDFFFB
:1033E000BDF7FFFFFFFFFFFFDFF7FFFFFFFFFFFF5F
:1033F000FFFFFFFFFFFFFFFFFFFFFFFFFFFFFFFFDD
:10340000FFFFFFFFFFFFFFFFFFFFFFFFFFFFFFFFCC
:10341000FFFFFFFFFFFFFFFFFFFFFFFFFFFFDFFFDC
:103420003BFFE99326A468DDA6ED85EDC5FD05FE0D
:1034300025FE24F645F646F648F64AF64EF68DACDD
:1034400036CEFEFFBDF7FFFFFFF7FFFFDFF7FFFF01
:10345000FFFFFFFFFFFFFFFFFFFFFFFFFFFFFFFF7C
:10346000FFFFFFFFFFFFFFFFFFFFFFFFFFFFFFFF6C
:10347000FFFFFFFFFFFFFFFFFFFFFFFFFFFFFFFF5C
:10348000FFFFDFFF9DFF8DAC27A448D5A7EDC6F554
:10349000E6F526FE45FE65FE66F667F669F64CF62D
:1034A0002FEEADAC98DEFEFFDEFFFFFFDFF7FFFF84
:1034B000FFFFFFFFFFFFFFFFFFFFFFFFFFFFFFFF1C
:1034C000FFFFFFFFFFFFFFFFFFFFFFFFFFFFFFFF0C
:1034D000FFFFFFFFFFFFFFFFFFFFFFFFFFFFFFFFFC
:1034E000FFFFFFFFFFFFBFFFDFFF2FBD07A427CDBB
:1034F000C7EDE7F506FE26FE66FE86FE87FE88FE21
:103500008AFE4DF60FE6AEAC1AE7FEFFFFFFFFFFA7
:10351000DFF7FFFFFFFFFFFFFFFFFEFFFEFFFFFFE5
:10352000FFFFFFFFFFFFFFFFFFFFFFFFFFFFFFFFAB
:10353000FFFFFFFFFFFFFFFFFFFFFFFFFFFFFFFF9B
:10354000FFFFFFFFFFFFFFFFFFFF9FFFDFFFB1C593
:10355000E69B27CDE7ED07F646FE46FE86FEA6FE75
:10356000A7FEA9FEABFE4DF6EFE5CEAC7CF7FFFF64
:10357000FFFFFFFFDFF7FFFFFFFFFFFFFFFFFEFF84
:10358000FEFFFFFFFFFFFFFFFFFFFFFFFFFFFFFF4C
:10359000FFFFFFFFFFFFFFFFFFFFFFFFFFFFFFFF3B
:1035A000FFFFFFFFFFFFFFFFFFFFFFFFFFFF9FFF8B
:1035B000BEFFF2D5069C47CD07EE27F666FE66FEF7
:1035C000A6FEC7FEA7FEA9FEACFE4DF6EFDDCFAC12
:1035D000DDFFFEFFFFFFFFFFFFF7FFFFFFFFFFFF26
:1035E000FFFFFEFFFEFFFFFFFFFFFFFFFFFFFFFFED
:1035F000FFFFFFFFFFFFFFFFFFFFFFFFFFFFFFFFDB
:10360000FFFFFFFFFFFFFFFFFFFFFFFFFFFFFFFFCA
:10361000FFFFBFFFBEFF33D6069C67D507EE26F639
:1036200066FE86FEC6FEC6FEA7FEA9FEACFE4EF6F0
:10363000CFDDCFA4FEFFBEF7FFFFFFFFFFFFFFFFC1
:10364000FFFFFFFFFFFFFEFFFEFFFFFFFFFFFFFF8C
:10365000FFFFFFFFFFFFFFFFFFFFFFFFFFFFFFFF7A
:10366000FFFFFFFFFFFFFFFFFFFFFFFFFFFFFFFF6A
:10367000FFFFFFFFFFFFFFFFDDFF73DE279C88D505
:1036800007EE06F666FE86FEC7FEC7FEA7F6A9F69B
:10369000CCFE6DF6CFDDCFACFEFF9DF7FFFFFFFF49
:1036A000FFFFFFFFFFFFFFFFFFFFFFFFFFFFFFFF2A
:1036B000FFFFFFFFFFFFFFFFFFFFFFFFFFFFFFFF1A
:1036C000FFFFFFFFFFFFFFFFFFFFFFFFFFFFFFFF0A
:1036D000FFFFFFFFFFFFFFFFFFFFDFFFFDFF53D6F1
:1036E000E69328CD08EE47FE46FE66FEA7FE67F687
:1036F000A9FEABF68CF6AEF6AED510ADDEFFFFFF41
:10370000FFFFBEF7FFFFFFFFFFFFFFFFFFFFFFFF12
:10371000FFFFFFFFFFFFFFFFFFFFFFFFFFFFFFFFB9
:10372000FFFFFFFFFFFFFFFFFFFFFFFFFFFFFFFFA9
:10373000FFFFFFFFFFFFFFFFFFFFFFFFFFFFDEFFBA
:10374000FDFF54D6E79328CDE9ED47FE46FE86FE01
:10375000A7FE67FEAAFE8BF68CF6AEF6CDD510ADB1
:10376000DEFFFFFFFFFFDEFFFFFFDFFFFFFFFFFFCB
:10377000FFFFFFFFFFFFFFFFFFFFFFFFFFFFFFFF59
:10378000FFFFFFFFFFFFFFFFFFFFFFFFFFFFFFFF49
:10379000FFFFFFFFFFFFFFFFFFFFFFFFFFFFFFFF39
:1037A000FFFFDEF7FEFF75D6089429CDE8ED47FE52
:1037B00066FE86FEA7FE87FEA9FEABF68CF6CEFE61
:1037C000EED510ADDDFFFFFFFFFFDEFFFFFFDFFFE8
:1037D000FFFFFFFFFFFFFFFFFFFFFFFFFFFFFFFFF9
:1037E000FFFFFFFFFFFFFFFFFFFFFFFFFFFFFFFFE9
:1037F000FFFFFFFFFFFFFFFFFFFFFFFFFFFFFFFFD9
:10380000FFFFFFFFFFFFDFF7FEFF55D6089429CD2E
:10381000E8E547FE86FE85FEA6FE87FEC9FE8AF61F
:103820008CF6CEFEEEDDEFACBDFFFFFFFFFFDEFF4F
:10383000FFFFDFFFFFFFFFFFFFFFFFFFFFFFFFFFB8
:10384000FFFFFFFFFFFFFFFFFFFFFFFFFFFFFFFF88
:10385000FFFFFFFFFFFFFFFFFFFFFFFFFFFFFFFF78
:10386000FFFFFFFFFFFFFFFFFFFFDFF7FFFF34D684
:10387000089449CDE8E546FE86FE85FEA6FE86FE56
:10388000A9FE8AF68BF6CDFEEEDDCFA49DF7FEFFF6
:10389000FFFFDEFFFFFFDFFFFFFFFFFFFFFFFFFF79
:1038A000FFFFFFFFFFFFFFFFFFFFFFFFFFFFFFFF28
:1038B000FFFFFFFFFFFFFFFFFFFFFFFFFFFFFFFF18
:1038C000FFFFFFFFFFFFFFFFFFFFFFFFFFFFDFFF28
:1038D000FEFF14CEE89349CDE8E526F685FE64FEAA
:1038E000A5FE86FEA8FE69F66AF6ADFEEDE5AEA47D
:1038F0009CF7FEFFFFFFDEFFFFFFDFFFFFFFFFFF85
:10390000FFFFFFFFFFFFFFFFFFFFFFFFFFFFFFFFC7
:10391000FFFFFFFFFFFFFFFFFFFFFFFFFFFFFFFFB7
:10392000FFFFFFFFFFFFFFFFFFFFFFFFFFFFFFFFA7
:10393000FFFFDFFFBDFFD3CDC79349CDE8ED26F6EE
:1039400065FE44FE85FE66FE87FE48F64AFE8CFE56
:10395000EDE58D9C7CF7DEFFFFFFDEFFFFFFDFFF65
:10396000FFFFFFFFFFFFFFFFFFFFFFFFFFFFFFFF67
:10397000FFFFFFFFFFFFFFFFFFFFFFFFFFFFFFFF57
:10398000FFFFFFFFFFFFFFFFFFFFFFFFFFFFFFFF47
:10399000FFFFFFFFFFFFDFFFBDFFB2CDA79349CDC4
:1039A000E8ED06F645FE44FE86FE66FE88FE48FE0D
:1039B0004AFE8CFEEDE56D9C5CEFDEFFFFFFDEFF57
:1039C000FFFFDFFFFFFFFFFFFFFFFFFFFFFFFFFF27
:1039D000FFFFFFFFFFFFFFFFFFFFFFFFFFFFFFFFF7
:1039E000FFFFFFFFFFFFFFFFFFFFFFFFFFFFFFFFE7
:1039F000FFFFFFFFFFFFFFFFFFFFDFFFFEFFEFB453
:103A0000A79309CDA8ED48FE26FE46FE46FE47FEDA
:103A100048FE49FE4BFE4BFE2FF68D9CFAE6FEFF5C
:103A2000FFFFFFFFFFFFFFFFFFFFFFFFFFFFFFFFA6
:103A3000FFFFFFFFFFFFFFFFFFFFFFFFFFFFFFFF96
:103A4000FFFFFFFFFFFFFFFFFFFFFFFFFFFFFFFF86
:103A5000FFFFFFFFFFFFFFFFFFFFFFFFFFFFDFFF96
:103A6000DDFFEFB409A40ACDAAED09FEE7FD07FECC
:103A700048FE49FE4AFE4BFE4CFE0CFE0FEE4D94F6
:103A800099D6DEFFFEFFFFFFFFFFFFFFFFFFFFFFF7
:103A9000FFFFFFFFFFFFFFFFFFFFFFFFFFFFFFFF36
:103AA000FFFFFFFFFFFFFFFFFFFFFFFFFFFFFFFF26
:103AB000FFFFFFFFFFFFFFFFFFFFFFFFFFFFFFFF16
:103AC000FFFFBEFF3BF7AB8B678B07ACE9CC28DD74
:103AD00068E567DD88E5A9E569DD49D52AD50AD518
:103AE000EBC42D9437CEDEFFDEFFFFFFFFFFFFFFAD
:103AF000FFFFFFFFFFFFFFFFFFFFFFFFFFFFFFFFD6
:103B0000FFFFFFFFFFFFFFFFFFFFFFFFFFFFFFFFC5
:103B1000FFFFFFFFFFFFFFFFFFFFFFFFFFFFFFFFB5
:103B2000FFFFFFFFFFFFFFFF7CF78B83AA8BA89BA4
:103B300089BC48BC88C409CD2ACD0ACDEAC4EAC4F0
:103B40002BC50BC5CCB40D8CD6BDFEFFDEFFFFFF31
:103B5000FFFFFFFFFFFFFFFFFFFFFFFFFFFFFFFF75
:103B6000FFFFFFFFFFFFFFFFFFFFFFFFFFFFFFFF65
:103B7000FFFFFFFFFFFFFFFFFFFFFFFFFFFFFFFF55
:103B8000FFFFFFFFFFFFFFFFFFFFBEF779CE2B6BAD
:103B90004E9CAEB46FCD4ECD8FD56FD5AFD5B0D5D1
:103BA000D0CD12DE53E611DE70C5AC7B33ADFEFF27
:103BB000DEFFFFFFFFFFFFFFFFFFFFFFFFFFFFFF36
:103BC000FFFFFFFFFFFFFFFFFFFFFFFFFFFFFFFF05
:103BD000FFFFFFFFFFFFFFFFFFFFFFFFFFFFFFFFF5
:103BE000FFFFFFFFFFFFFFFFFFFFFFFFFFFFFFF7ED
:103BF00099C6CE7B32ADD4CD76E618FFDBFF59FFF8
:103C0000BBFFDBFFBBFFDBFFFBFF58F796DE4B6B19
:103C10007094DEFFBDF7FFFFDFFFFFFFFFFFFFFF39
:103C2000FFFFFFFFFFFFFFFFFFFFFFFFFFFFFFFFA4
:103C3000FFFFFFFFFFFFFFFFFFFFFFFFFFFFFFFF94
:103C4000FFFFFFFFFFFFFFFFFFFFFFFFFFFFFFFF84
:103C5000FFFFFFF77ABEEF73718C50948D8370A4D1
:103C600074C5F6D558D658D6D6BD94B5B4B552ADB0
:103C7000B0944B6B4F8CFEFFBEF7FFFFDFFFFFFFE3
:103C8000FFFFFFFFFFFFFFFFFFFFFFFFFFFFFFFF44
:103C9000FFFFFFFFFFFFFFFFFFFFFFFFFFFFFFFF34
:103CA000FFFFFFFFFFFFFFFFFFFFFFFFFFFFFFFF24
:103CB000FFFFFFFFFFFFFFF79AC6D39434A591944F
:103CC000695ACB6A6D7B3094729C518C8E734C63B5
:103CD000AD73EE7BCD738D73708CFFFFFFFFFFFF25
:103CE000DFFFFFFFFFFFFFFFFFFFFFFFFFFFFFFF04
:103CF000FFFFFFFFFFFFFFFFFFFFFFFFFFFFFFFFD4
:103D0000FFFFFFFFFFFFFFFFFFFFFFFFFFFFFFFFC3
:103D1000FFFFFFFFFFFFFFFFFFFFFFFFBEEFDBD651
:103D200096B591940F842F8C7094B5BD58D678D6E3
:103D300095B513A554AD74AD34A5B6BDFBDEFFFF3C
:103D4000FFFFFFFFFFFFFFFFBEF7FFFFFFFFFFFFCC
:103D5000FFFFFFFFFFFFFFFFFFFFFFFFFFFFFFFF73
:103D6000FFFFFFFFFFFFFFFFFFFFFFFFFFFFFFFF63
:103D7000FFFFFFFFFFFFFFFFFFFFFFFFFFFFBEF79C
:103D8000DFF7DFFFBEF77DEF7CEF9DF7DDFFFAE6A3
:103D90007CF79CF73BEF5CEFBDFFFEFFBEFF7DEFC6
:103DA000FFFFFFFFFFFFDFFFFFFFFFFFDFFFFFFF63
:103DB000FFFFFFFFFFFFFFFFFFFFFFFFFFFFFFFF13
:103DC000FFFF080C20173CE781BD81BD81BD81BD8F
:103DD00081FF3CE7818181BD81BD81BD81FF3CE7E1
:103DE0008181818181BD81BD81FF3CE781818181AC
:103DF000818181BD81FF3CE78181818181818181D8
:103E000081FFFFFF003F3F000F0F00030300000092
:103E1000003F3F000F0F0003030000000000000000
:103E20000F0F00030300000000000000000000036B
:103E30000300000010101010105438100000000093
:103E4000103854101010101000000000000010086E
:103E50007C08100000000000000010207C201000F2
:103E600000000000003C0C1424448000000000000E
:103E700000804424140C3C00000000003C42A5815A
:103E8000A599423C000000003C7EDBFFFFDB663C66
:103E9000000000003C42A58199A5423C00000000C2
:103EA0003C7EDBFFFFE75A3C000000003C42818182
:103EB0008181423C000000003C7EFFFFFFFF7E3C12
:103EC00000000000FF818181818181FF00000000EE
:103ED000FFFFFFFFFFFFFFFF00001010208F00001B
:103EE00000000000000000000000000000000000D2
:103EF00000000000000000000000000000000000C2
:103F0000000007000F800F800F800F800F800700D8
:103F10000700000000000700070007000000000085
:103F20000E380E380E380E38063000000000000043
:103F30000000000000000000000000000000000081
:103F40000C300C300C307FFE7FFE0C300C300C300F
:103F50000C307FFE7FFE0C300C300C300000000077
:103F6000024002400FF81FF81A401A401FF00FF8E5
:103F7000025802581FF81FF00240024000000000E3
:103F8000000000000E100E300E7000E001C0038033
:103F900007000E700C7008700000000000000000A8
:103FA00000000F001980198019800F000F080F986A
:103FB00019F818F018E019F00F9800000000000040
:103FC00000000700070007000E00000000000000CE
:103FD00000000000000000000000000000000000E1
:103FE000000000F001C0038007000E000E000E006C
:103FF0000E000700038001C000F000000000000078
:1040000000000F00038001C000E00070007000702D
:10401000007000E001C003800F00000000000000FD
:10402000000001801188099007E007E03FFC3FFC99
:1040300007E007E0099011880180000000000000FF
:104040000000000000000180018001800FF00FF0EF
:1040500001800180018000000000000000000000DD
:104060000000000000000000000000000000000050
:10407000000000000700070007000E00000000001D
:104080000000000000000000000000001FF81FF802
:104090000000000000000000000000000000000020
:1040A0000000000000000000000000000000000010
:1040B00000000000070007000700000000000000EB
:1040C000000000020006000E001C0038007000E036
:1040D00001C0038007000E001C000000000000006B
:1040E00000000FF01C381C781CF81CF81DB81DB817
:1040F0001F381F381E381C380FF000000000000069
:1041000000000180018003801F801F8003800380E6
:1041100003800380038003801FF000000000000084
:1041200000000FE01C701C380038007000E001C077
:10413000038007000E381C381FF800000000000044
:1041400000000FE01C701C380038007003C003C072
:10415000007000381C381C700FE0000000000000E8
:10416000000000E001E003E006E00CE018E01FF8CA
:104170001FF800E000E000E003F80000000000008D
:1041800000001FF81C001C001C001C001FE01FF09A
:10419000007800381C381C700FE0000000000000A0
:1041A000000003E007000E001C001C001FF01FF8B9
:1041B0001C381C381C381C380FF0000000000000B0
:1041C00000001FFC1C1C1C1C1C1C001C0038007068
:1041D00000E001C0038003800380000000000000B5
:1041E00000000FF01C381C381C381F3807E007E0AF
:1041F0001CF81C381C381C380FF0000000000000B0
:1042000000000FF01C381C381C381C381FF80FF841
:1042100000380038007000E007C000000000000017
:104220000000000000000380038003800000000005
:1042300003800380038000000000000000000000F5
:1042400000000000000003800380038000000000E5
:1042500003800380038007000000000000000000CE
:10426000007000E001C0038007000E001C001C006D
:104270000E000700038001C000E000700000000095
:1042800000000000000000003FFC3FFC00000000B8
:104290003FFC3FFC000000000000000000000000A8
:1042A0001C000E000700038001C000E000700070D9
:1042B00000E001C0038007000E001C0000000000A9
:1042C00003C00FF01E7818380038007000E001C0FD
:1042D00001C00000000001C001C001C000000000DA
:1042E0000FF81C1C1C1C1C1C1C1C1CFC1CFC1CFC9F
:1042F0001CFC1C001C001C001FF007F80000000044
:10430000000003C007E00E701C381C381C381C3835
:104310001FF81C381C381C381C3800000000000036
:1043200000001FF00E380E380E380E380FF00FF068
:104330000E380E380E380E381FF000000000000056
:10434000000007F00E381C381C001C001C001C006C
:104350001C001C001C380E3807F000000000000094
:1043600000001FE00E700E380E380E380E380E3872
:104370000E380E380E380E701FE0000000000000EE
:1043800000001FF80E180E080E000E300FF00FF090
:104390000E300E000E080E181FF80000000000007E
:1043A00000001FF80E180E080E000E300FF00FF070
:1043B0000E300E000E000E001F0000000000000076
:1043C000000007F00E381C381C381C001C001C00B4
:1043D0001CF81C381C380E3807F8000000000000DC
:1043E00000001C701C701C701C701C701FF01FF0F3
:1043F0001C701C701C701C701C7000000000000001
:1044000000000FE0038003800380038003800380AB
:1044100003800380038003800FE0000000000000A1
:10442000000001FC007000700070007000700070EF
:1044300038703870387038700FE0000000000000ED
:1044400000001E380E380E700EE00FC00F800F8077
:104450000FC00EE00E700E381E3800000000000085
:1044600000001F000E000E000E000E000E000E00D9
:104470000E000E080E180E381FF800000000000095
:1044800000001C1C1E3C1F7C1FFC1FFC1DDC1C9C18
:104490001C1C1C1C1C1C1C1C1C1C00000000000004
:1044A00000001C1C1C1C1E1C1F1C1F9C1DDC1CFC5B
:1044B0001C7C1C3C1C1C1C1C1C1C00000000000064
:1044C000000003E007F00E381C1C1C1C1C1C1C1CEC
:1044D0001C1C1C1C0E3807F003E00000000000004C
:1044E00000001FF00E380E380E380E380FF00FF0A7
:1044F0000E000E000E000E001F0000000000000065
:10450000000003E00F780E381C1C1C1C1C1C1C1C1B
:104510001C7C1CFC0FF80FF8003800FC00000000A9
:1045200000001FF00E380E380E380E380FF00FF066
:104530000E700E380E380E381E38000000000000D5
:1045400000000FF01C381C381C381C000FE007F06E
:1045500000381C381C381C380FF000000000000028
:1045600000001FFC19CC11C401C001C001C001C072
:1045700001C001C001C001C007F000000000000040
:1045800000001C701C701C701C701C701C701C7057
:104590001C701C701C701C700FE0000000000000FC
:1045A00000001C701C701C701C701C701C701C7037
:1045B0001C701C700EE007C00380000000000000AB
:1045C00000001C1C1C1C1C1C1C1C1C1C1C9C1C9C63
:1045D0001C9C0FF80FF80770077000000000000027
:1045E00000001C701C701C700EE007C0038003806C
:1045F00007C00EE01C701C701C7000000000000062
:1046000000001C701C701C701C701C700EE007C039
:1046100003800380038003800FE00000000000009F
:1046200000001FF81C381838107000E001C003802B
:1046300007000E081C181C381FF8000000000000BE
:10464000000007F007000700070007000700070049
:10465000070007000700070007F000000000000047
:104660000000100018001C000E000700038001C0AD
:1046700000E000700038001C00070000000000008F
:10468000000007F000700070007000700070007093
:10469000007000700070007007F000000000000063
:1046A000018003C007E00E701C380000000000000D
:1046B00000000000000000000000000000000000FA
:1046C00000000000000000000000000000000000EA
:1046D000000000000000000000007FFF7FFF0000DE
:1046E00000001C001C000700070000000000000084
:1046F00000000000000000000000000000000000BA
:10470000000000000000000000000FE000700070DA
:104710000FF01C701C701C700FD80000000000000F
:1047200000001E000E000E000E000FF00E380E38B6
:104730000E380E380E380E381BF000000000000056
:10474000000000000000000000000FE01C701C7062
:104750001C001C001C701C700FE00000000000001A
:10476000000000F80070007000700FF01C701C70EA
:104770001C701C701C701C700FD800000000000022
:10478000000000000000000000000FE01C701C7022
:104790001FF01C001C701C700FE0000000000000E7
:1047A000000003E007700770070007001FE01FE02C
:1047B00007000700070007001FC0000000000000FE
:1047C000000000000000000000000FD81C701C70EA
:1047D0001C701C700FF007F000701C700FE00000E0
:1047E00000001E000E000E000E000EF00F380F38F5
:1047F0000E380E380E380E381E380000000000004B
:10480000000001C001C001C000000FC001C001C014
:1048100001C001C001C001C00FF80000000000008D
:104820000000007000700070000003F00070007065
:1048300000700070007000701C700CF007E0000049
:1048400000001E000E000E000E000E380E700EE06E
:104850000FC00EE00E700E381E3800000000000081
:1048600000000FC001C001C001C001C001C001C0F3
:1048700001C001C001C001C00FF80000000000002D
:10488000000000000000000000001FF81C9C1C9CA1
:104890001C9C1C9C1C9C1C9C1C9C00000000000080
:1048A000000000000000000000001FE01C701C70F1
:1048B0001C701C701C701C701C700000000000003C
:1048C000000000000000000000000FE01C701C70E1
:1048D0001C701C701C701C700FE0000000000000B9
:1048E000000000000000000000001BF00E380E3831
:1048F0000E380E380E380FF00E000E001F000000AC
:10490000000000000000000000001FB038E038E0A8
:1049100038E038E038E01FE000E000E001F000009F
:10492000000000000000000000001EF00FF80F382B
:104930000E000E000E000E001F0000000000000020
:10494000000000000000000000000FE01C301C30E0
:104950000F8003E0187018700FE0000000000000E6
:10496000000000000100030007001FF0070007001F
:10497000070007000770077003E000000000000058
:10498000000000000000000000001C701C701C7083
:104990001C701C701C701C700FD800000000000000
:1049A000000000000000000000001C701C701C7063
:1049B0001C701C700EE007C00380000000000000A7
:1049C000000000000000000000001C1C1C1C1C1C3F
:1049D0001C9C1C9C0FF80770077000000000000072
:1049E000000000000000000000001CE01CE00FC000
:1049F000078007800FC01CE01CE0000000000000E2
:104A0000000000000000000000000E380E380E38D4
:104A10000E380E3807F003E000E001C01F800000F0
:104A2000000000000000000000001FE018E011C0BE
:104A3000038007000E201C601FE000000000000043
:104A4000000001F803800380038007001C001C00A5
:104A5000070003800380038001F8000000000000CD
:104A600001C001C001C001C001C001C001C001C03E
:104A700001C001C001C001C001C001C000000000B0
:104A800000001F8001C001C001C000E000380038F4
:104A900000E001C001C001C01F8000000000000054
:104AA00000001F1C3B9C39DC38F8000000000000AF
:104AB00000000000000000000000000000000000F6
:104AC000000000F001F80198019801F800F00000E2
:104AD00000000000000000000000000000000000D6
:104AE00000001FF80E180E080E000E000FF00E3812
:104AF0000E380E380E380E381FF00000000000008F
:104B000000001FF80E180E080E000E000E000E001A
:104B10000E000E000E000E001F000000000000003E
:104B2000000007F00C701C701C701C701C701C7056
:104B30001C701C701C701C703FF830182008066038
:104B400000001FF80E180E080E000E300FF00FF0C8
:104B50000E300E000E080E181FF8000000000000B6
:104B6000000033CC1998199819980DB00FF00FF078
:104B70001DB819981998199833CC0000000000004E
:104B8000000017E01E701C381038007003C003C00E
:104B9000007000381C381C700FE00000000000009E
:104BA00000001C701C701C701C701C701C701CF0B1
:104BB0001DF01F701E701C701C7000000000038030
:104BC00000001C701C701C701C701C701C701CF091
:104BD0001DF01F701E701C701C7000000000000093
:104BE000000003F006700E700E700E700E700E70E6
:104BF0000E700E700E700E701C7000000000000031
:104C000000001FF01C701C701C701C701C701C704D
:104C10001C701C701C701C701C70000000000000D8
:104C200000001C701C701C701C701C701C700FF03D
:104C300007F0007000701CE00FC0000000000000D2
:104C400000001FF033983398339833983398339893
:104C500033981FF00380038007C0000000000000AD
:104C600000001C701C701C701C701C701C701C7070
:104C70001C701C701C701C701FF8001800080000CD
:104C800000001C701C701C701C701C701C701FF0CD
:104C90000FF0007000700070007000000000000055
:104CA0000000399C399C399C399C399C399C399C31
:104CB000399C399C399C399C3FFC00000000000065
:104CC0000000399C399C399C399C399C399C399C11
:104CD000399C399C399C399C3FFE0006000200003B
:104CE00000003F002E002E000E000E000FF00E38C8
:104CF0000E380E380E380E381FF00000000000008D
:104D00000000381C381C381C381C381C3F9C39DC0F
:104D100039DC39DC39DC39DC3F9C00000000000064
:104D200000001F000E000E000E000E000FF00E38E7
:104D30000E380E380E380E381FF00000000000004C
:104D400000000FE01C701C380038003803F803F82E
:104D5000003800381C381C700FE000000000000014
:104D600000003CF81D9C1D9C1D9C1D9C1F9C1F9CB5
:104D70001D9C1D9C1D9C1D9C3CF80000000000001B
:104D800000000FF81C701C701C701C701C701FF051
:104D90000FF01C701C701C703878000000000000C0
:104DA0000000001807F80F000E000E000FF00E387C
:104DB0000E380E380E380E3807F0000000000000E4
:104DC000000000000000000000001FF00E380E3848
:104DD0000FF00E380E380E381FF0000000000000F3
:104DE000000000000000000000001FF81C381C003C
:104DF0001C001C001C001C001C0000000000000027
:104E00000000000000000000000007F00E700E70AF
:104E10000E700E700E700E701FF81008000000006B
:104E200000000000000006C000000FE01C701C70B5
:104E30001FF01C001C701C700FE000000000000040
:104E40000000000000000000000019CC19CC19CCB3
:104E50000DD807F00DD819CC19CC000000000000C7
:104E6000000000000000000000000FE01C70007057
:104E700003E0007000701C700FE0000000000000F4
:104E8000000000000000000000001C701C701C707E
:104E90001CF01D701E701C701C70000000000000D3
:104EA00000000000000001C000000E380E380E386F
:104EB0000E780EB80F380E380E38000000000000D3
:104EC000000000000000000000000E380E380E70D8
:104ED0000FE00E700E380E380E3800000000000093
:104EE0000000000000000000000003F80738073849
:104EF00007380738073807380E3800000000000070
:104F00000000000000000000000038383838383851
:104F10003C783AB83938383838380000000000009A
:104F2000000000000000000000001C701C701C70DD
:104F30001C701FF01C701C701C7000000000000032
:104F4000000000000000000000001FF01C701C703A
:104F50001C701C701C701C701C7000000000000095
:104F6000000000000000000000001FF0139003800C
:104F700003800380038003800380000000000000A2
:104F8000000000000000000003801FF03BB83BB8A9
:104F90003BB83BB80FF003800380038000000000A3
:104FA000000000000000000000001C701C701C705D
:104FB0001C701C701C701C701FF800180000000092
:104FC000000000000000000000001C701C701C703D
:104FD0001C700FF0007000700070000000000000F6
:104FE00000000000000000000000399C399C399C42
:104FF000399C399C399C399C3FFC00000000000022
:1050000000000000000000000000399C399C399C21
:10501000399C399C399C399C3FFE000600000000F9
:10502000000000000000000000003E002E000E0006
:105030000FF00E380E380E380FF0000000000000A0
:1050400000000000000000000000381C381C381C64
:105050003F9C39DC39DC39DC3F9C0000000000005B
:10506000000000000000000000000E000E000E0016
:105070000FF00E380E380E380FF000000000000060
:10508000000000000000000000000FE01C70007035
:1050900003F0007000701C700FE0000000000000C2
:1050A0000000000000000000000038F8399C399C26
:1050B000399C3F9C399C399C38F800000000000066
:1050C0000000000000000000000007F80E380E3855
:1050D0000E3807F80E380E381C3800000000080C97
:1050E00020A60000000000000000000000000000FA
:1050F0002020202020200020000000285050000008
:1051000000000000000000002828FC2850FC50503F
:105110000000002078A8A0603028A8F0200000003F
:1051200048A8B0502834544800000000205050785F
:10513000A8A8906C00000040408000000000000023
:1051400000000004081010101010100804000040A7
:105150002010101010101020400000000020A87037
:1051600070A8200000000000202020F8202020004F
:10517000000000000000000000000040408000002F
:10518000000000F800000000000000000000000027
:105190000000004000000008101010202040404097
:1051A000800000007088888888888870000000006F
:1051B00020602020202020700000000070888810CF
:1051C000204080F8000000007088083008088870CF
:1051D00000000000103050509078101800000000BF
:1051E000F88080F00808887000000000709080F05F
:1051F0008888887000000000F8901020202020206F
:1052000000000000708888708888887000000000A6
:10521000708888887808487000000000000020002E
:10522000000000200000000000000020000000201E
:105230002000000408102040201008040000000096
:105240000000F80000F800000000004020100804F2
:1052500008102040000000007088881020200020E6
:1052600000000000708898A8A8B8807800000000AE
:1052700020203050507848CC00000000F0484870A2
:10528000484848F00000000078888080808088705E
:1052900000000000F0484848484848F0000000007E
:1052A000F8485070504048F800000000F84850702E
:1052B000504040E000000000384880809C88483022
:1052C00000000000CC484878484848CC0000000066
:1052D000F8202020202020F8000000007C10101072
:1052E00010101090E0000000EC485060505048EC66
:1052F00000000000E0404040404044FC000000004E
:10530000D8D8D8D8A8A8A8A800000000DC486868A9
:10531000585848E80000000070888888888888709D
:1053200000000000F0484870404040E000000000ED
:105330007088888888E8987018000000F0484870E5
:10534000504848EC0000000078888060100888F021
:1053500000000000F8A8202020202070000000009D
:10536000CC4848484848483000000000CC484850E5
:105370005030202000000000A8A8A87050505050C5
:1053800000000000D8505020205050D800000000ED
:10539000D85050202020207000000000F8901020ED
:1053A000204048F800000038202020202020202025
:1053B000380000404040202010101008000000700D
:1053C000101010101010101070000020500000007D
:1053D00000000000000000000000000000000000CD
:1053E00000FC0020000000000000000000000000A1
:1053F000000000304838483C00000000C0404070C9
:10540000484848700000000000000038484040381C
:1054100000000000180808384848483C0000000018
:105420000000003048784038000000001C20207840
:1054300020202078000000000000003C4830407828
:1054400044380000C0404070484848EC000000006C
:1054500020000060202020700000000010000030BC
:105460001010101010E00000C040405C507048EC7C
:1054700000000000E0202020202020F80000000094
:10548000000000F0A8A8A8A800000000000000F09C
:10549000484848EC00000000000000304848483010
:1054A00000000000000000F04848487040E00000A4
:1054B0000000003848484838081C0000000000D8A8
:1054C000604040E0000000000000007840300878B4
:1054D00000000000002020702020201800000000A4
:1054E000000000D84848483C00000000000000ECE4
:1054F0004850302000000000000000A8A870505064
:1055000000000000000000D8502050D8000000002B
:10551000000000EC4850302020C00000000000785F
:10552000102020780000001810101020101010100B
:105530001800101010101010101010101010006033
:105540002020201020202020600040A4180000000F
:10555000000000000000000030484830000000005B
:1055600000000000F8484070484848F00000000083
:10557000F8484040404040E00000000038484848BB
:10558000484848FC84005000F8485070504048F8A3
:1055900000000000A8A8A870F8A8A8A800000000B3
:1055A000F0880830080808F000000000EC4858585F
:1055B000686848DC00003000EC485858686848DCEF
:1055C000000000003C484848484848CC0000000023
:1055D000FC484848484848CC00000000D8505020BB
:1055E000204040800000000070A8A8A8A87020708B
:1055F00000000000CC484848484848FC040000002F
:10560000CC4848483808081C00000000D6545454C0
:10561000545454FE00000000D6545454545454FEC4
:1056200002000000E0C04070484848F00000000060
:10563000EE444464545454EE00000000E0404070D6
:10564000484848F000000000E090083808089060E2
:1056500000000000EC525252725252EC0000000066
:105660003C4848483848489C0000000008304070DA
:1056700048484830000000000000007028302870C2
:1056800000000000000000782820207000000000CA
:10569000000000182828287C440000000028003062
:1056A0004878403000000000000000545438545442
:1056B00000000000000000700830087000000000CA
:1056C000000000CC485868CC00000000003000CC3E
:1056D000485868CC00000000000000485060504866
:1056E000000000000000001C2828284C00000000DA
:1056F000000000446C54444400000000000000CC52
:10570000487848CC00000000000000FC484848CC25
:10571000000000000000007C541010380000000061
:10572000000000385454543810380000000000CCF9
:10573000484848FC04000000000000CC4838080C31
:1057400000000000000000545454547C000000008D
:10575000000000545454547E02000000000000E099
:10576000A030287000000000000000C6446454E629
:1057700000000000000000602030287000000000E1
:10578000000000304818483000000000000000C849
:10579000547454C8000000000000003C4848384CD5
:1057A00000003CE781BD81BD81BD81BD81FF3CE73B
:1057B000818181BD81BD81BD81FF3CE78181818186
:1057C00081BD81BD81FF3CE781818181818181BD76
:1057D00081FF3CE7818181818181818181FFFFFFA0
:1057E000003F3F000F0F000303000000003F3F0099
:1057F0000F0F000303000000000000000F0F000364
:10580000030000000000000000000003030000008F
:1058100010101010105438100000000010385410F0
:105820001010101000000000000010087C0810008C
:1058300000000000000010207C201000000000008C
:10584000003C0C142444800000000000008044242C
:10585000140C3C00000000003C42A581A599423C8C
:10586000000000003C7EDBFFFFDB663C0000000028
:105870003C42A58199A5423C000000003C7EDBFF34
:10588000FFE75A3C000000003C4281818181423C9C
:10589000000000003C7EFFFFFFFF7E3C0000000098
:1058A000FF818181818181FF00000000FFFFFFFFF8
:1058B000FFFFFFFF00007C3C3E5E2B3D3F2F5B5D0A
:1058C0003B2C2A225C0000000A0B02090C0D0E087A
:1058D00007030401000000000000000000000000B9
:1058E00000000000000000000000000000000000B8
:1058F0000000121110000000000000000000000075
:105900000000000000000000000000000000210076
:10591000240027002A002D00300033000101000080
:10592000040107010A01022032201A0000000000D1
:105930000000000000000000000000000000000067
:105940000000000000000000000000000000000057
:105950000000000000000000000000000000000047
:105960000000000000000000000000000000000037
:105970000000000000000000000000000000000027
:105980000000000000000000000000000000000017
:105990000000000000000000000000000000000007
:1059A00000000000000000000000000000000000F7
:1059B00000000000000000000000000000000000E7
:1059C00000000000000000000000000000000000D7
:1059D00000000000000000000000000000000000C7
:1059E00000000000000000000000000000000000B7
:1059F00000000000000000000000000000000000A7
:105A00000000000C0000001E0000003F0000003FEE
:105A10000000003F0000003F0000003F0000003F8A
:105A20000000003F0000003F0000003F0000003F7A
:105A30000000003F0000003F0000003F0000003C6D
:105A400000000038000000200000000000000020DE
:105A5000000000300000003C0000003F0000003F5C
:105A60000000003F0000003F0000003F0000003F3A
:105A70000000003F0000003F0000003F0000003F2A
:105A80000000003F0000003F0000003F0000003F1A
:105A90000000001E0000000C0000000000000000DC
:105AA00000000000000000000000000000000000F6
:105AB00000000000000000000000000000000000E6
:105AC000000000007FFF0000FFFF8001FFFF80005B
:105AD000FFFF00007FFE000000000000000000004B
