:100000000C94F7540D9436020D940B020D94E001FC
:100010000D94B5010D948A010D945F010D94340186
:100020000D9409010C9428550C9428550C942855CE
:100030000C9428550C94DAFF0C9428550C942855F0
:100040000C9428550C9428550C9428550C9428553C
:100050000C9428550C9428550C9428550D94BF00E9
:100060000C9428550C9408FF0C94DFFE0C94285532
:100070000C9428550C9428550C9428550C9428550C
:100080000C9428550C9428550C9428550C942855FC
:100090000C9428550C9428550C9428550C9452EA2D
:1000A0000C9428550C9428550C9428550C942855DC
:1000B0000C9428550C9428550C9428550C942855CC
:1000C0000C9428550C9428550C9428550C942855BC
:1000D0000C9428550C9428550C9428550C942855AC
:1000E0000C942855265A295A2E5A365A415A415AA2
:1000F0004F5A4F5A4F5A44815A81708186819C8150
:10010000B281C881DE817A82AB82DC820D833E833C
:100110006F83A083D1834E84B685E886188848898A
:10012000788AA88BCD8BA68EBC8ED28EE88EFE8E62
:10013000148F2A8F758FA68FD78F089039906A9069
:100140009B90FA900E9214931A94209526962E97CF
:100150000A9943997599A799D9990B9A3D9A6F9ADB
:10016000A19AD39A399B6A9B9B9BCC9BFD9B2E9C0F
:100170005F9C909CC19CF29C389D489E4E9F5FA0C6
:1001800065A16BA27AA381A388A38FA391BCA7BC0E
:10019000BDBCD3BCE9BCFFBC15BD5DBD8EBDBFBD44
:1001A000F0BD21BE52BE83BEE6BE0DBF34BF5BBFF5
:1001B00082BFA9BFCCBF5DC381C39CC3B7C3D2C339
:1001C000EDC308C423C492C5ADC5C8C5E3C5FEC50B
:1001D00019C634C64FC67CC67FC682C685C688C6C9
:1001E0008BC68EC691C66AFD6DFD5CFD60FD66FD29
:1001F000A4FD71FD75FD7BFD7FFD83FD89FD8DFDFA
:1002000091FDA4FD97FD9BFD9FFD0D9439000D947C
:100210008D320D9478000D9485320D9462320D94D8
:10022000CD370D9471320D94BC320D94CC370D94B2
:100230007E470D9441490D94613200407A10F35A83
:1002400000A0724E18090010A5D4E80000E8764816
:10025000170000E40B54020000CA9A3B000000E1C2
:10026000F505000080969800000040420F00000055
:10027000A08601000000102700000000E803000035
:1002800000006400000000000A00000000000100FF
:10029000000000002C76D888DC674F0823DFC1DF20
:1002A000AE59E1B1B796E5E3E453C63AE651997623
:1002B00096E8E6C28426EB898C9B62ED407C6FFC5D
:1002C000EFBC9C9F40F2BAA56FA5F490055A2AF79F
:1002D0005C936B6CF9676DC11BFCE0E40D47FEF5A8
:1002E00020E6B500D0ED902E030094357705008010
:1002F000841E080000204E0A000000C80C3333336F
:10030000330F986E12831141EF8D2114893BE6550E
:1003100016CFFEE6DB18D1844B381BF77C1D901DF1
:10032000A4BBE424203284725E228100C9F124EC53
:10033000A1E53D27080C20173CE781BD81BD81BDAB
:1003400081BD81FF3CE7818181BD81BD81BD81FF90
:100350003CE78181818181BD81BD81FF3CE7818155
:100360008181818181BD81FF3CE7818181818181A2
:10037000818181FFFFFF003F3F000F0F000303005B
:100380000000003F3F000F0F0003030000000000CB
:1003900000000F0F00030300000000000000000039
:1003A000000303000000101010101054381000005B
:1003B0000000103854101010101000000000000051
:1003C00010087C08100000000000000010207C20B5
:1003D000100000000000003C0C14244480000000C9
:1003E000000000804424140C3C00000000003C424B
:1003F000A581A599423C000000003C7EDBFFFFDBAD
:10040000663C000000003C42A58199A5423C0000EA
:1004100000003C7EDBFFFFE75A3C000000003C424E
:1004200081818181423C000000003C7EFFFFFFFF94
:100430007E3C00000000FF818181818181FF0000FE
:100440000000FFFFFFFFFFFFFFFF0000FFF7FFF7C8
:10045000FFFFFFFFFEFFFDFFDEFFFEFFFDFFFFFFD3
:100460009FEFDFF73FDF9FE7FFF7FFF7BFF7BFFF24
:10047000DFFFFEFFFEFFFDFFFCFFFCFFFCFFFDFFBB
:10048000FEFFFFFFDFFFDFFFDFFFDFFFFFFFFFFFFD
:10049000FFFFFFFFFEFFFFFFFFFFFFFFFFFFFFFF6D
:1004A000FFFFFFFFFFFFFFFFFFFFFEFFFFFFFFFF5D
:1004B000FFF7FFFFFFFFFFFFFEFFFEFFDFFFFFFF76
:1004C000DDF7FFF77FDFDFCE3C951A8DDDA5FFCE90
:1004D0009FEFFFFFFFFFFFFFFFFFFEF7FEFFFEFFA7
:1004E000FEFFFEFFFEFFFFFFFFFFDFFFDFFFDFFF7F
:1004F000DFFFFFFFFFFFFEFFFEFFFEFFFFFFFFFF2F
:10050000FFFFFFFFFFFFFFFFFFFFFFFFFFFFFFFFFB
:10051000FFFFFFFFFEFFFFFFFFFFDFFFDFFFDEFF4D
:10052000DFFFFFFFFFF79FDF3C8D9F95FF9D1F9E25
:100530003D85DB7C3B8DDDADDFCE9FE7FFF7FFF731
:10054000FFF7FFFFBEEFDEF7FFFFFFFFFFFFDFFF5D
:10055000BFFFBFFFFFFFFFFFFFFFFFFFFEFFFEFF2D
:10056000FFFFFFFFFFFFFFFFFFFFFFFFFFFFFFFF9B
:10057000FFFFFFFFFFFFFFFFFEFFFFFFDFFFDFFFCC
:10058000DFFFDFFFDFFFFFF7FFEF9DB61222D41181
:10059000D72A7E5C9F7DBFAEFF9D5E8DDC7CFB7CA1
:1005A0009C959FBE9FDFFFEFFFF7FFF7BFEFBFF701
:1005B000FFFFFFFFFFFFFFFFFFFFFFFFFFFFFFFF4B
:1005C000FFFFFFFFFFFFDFFFFFFFFFFFFFFFFFFF5B
:1005D000FFFFFFFFFFFFFFFFFFFFFFFFFEFFFFFF2C
:1005E000DFFFDFFFDFFFDFFFDFFFFFF7FFE71FBFFB
:1005F000B62A581AF7013702F6017812FD4B1F751B
:100600003F965F9E9F8DDC74FB7C3B8D7FB67FDFCA
:10061000FFF7FFF7DFF77EE7BEF7FFFFFFFFDFFF24
:10062000DFFFDFFFFFFFFFFFFFFFFFFFFFFFFFFF1A
:10063000FFFFFFFFFFFFFFFFFFFFFFFFFFFFFFFFCA
:10064000FEFFFFFFDFFFBFFFDFFFDFFFDFFFFFF783
:10065000FFE7BFAEB301590A5A0AFC1A9A0A3902D7
:10066000390AF701170A5B33DF6CFF951F9EBF95B0
:100670001D85DA7CF9841CAE9FE7FFF7FFF7DFEFFB
:10068000FFFFFFFFFFFFFFFFFFFFFFFFFFFFFFFF7A
:10069000FFFFFFFFFFFFFFFFFFFFFFFFFFFFFFFF6A
:1006A000FFFFFFFFFEFFFFFFDFFFDFFFDFFFDFFFDB
:1006B000DFFFFFF7FFE7DFB6F4095A123601D80172
:1006C0003A023A0219027B12DC1A5A12D7011812A6
:1006D0005C3B7F64BF951F9E1F9E5D8DB974D87C67
:1006E000FCA51FCF5FDF9FEFFFFFFFFFFFFFFFFFB7
:1006F000FEFFFFFFFFFFFFFFFFFFFFFFFFFFFFFF0B
:10070000FFFFFFFFFFFFFFFFFEFFFFFFDFFFDFFF3A
:10071000DFFFDFFFFFFFFFF7FFEFDFB6D311591A4F
:100720009200F40055011401B701B701F8013A1223
:100730005B1A5A1A1912D7091712D92A1D547F8524
:100740003F9E3F9E7E85DA7C19951CB65FE7FFFFD2
:10075000FFFFFFFFFFFFFFFFFFFFFFFFFFFFFFFFA9
:10076000FFFFFFFFFFFFFFFFFFFFFFFFFEFFFFFF9A
:10077000FFFFDFFFFFFFFEFFFFFFFFF7FFEFFFBE03
:100780007009F519F200B501540174015401F30028
:1007900014011401560119127B1A5A1A191219124E
:1007A0003912170AB9229B3B9F7DFF955FB67FC622
:1007B0009EC6BFEFBFEFFFFFBEF7FEFFFFFFFFFFCD
:1007C000FFFFFFFFFFFFFFFFFFFFFFFFFFFFFFFF39
:1007D000FEFFFFFFFFFFDFFFFEFFFEFFFFFFFFFF4C
:1007E000FFF77CB6322AB319AF001101720952012A
:1007F00031015201B5117409F300D300F400F60081
:10080000FA113B1A7B1A1A0A390A18027A12571A75
:100810005B6C5FDFDFCE7DBEFFF7FFFFFFFFFFFFFB
:10082000FFFFFFFFFFFFFFFFFFFFFFFFFFFFFFFFD8
:10083000FFFFFFFFFFF7FFFFFFFFFFFFFEFFFDFFD3
:10084000FEFFFFFFFFFF3ED7797CD221AE002F09CC
:100850007119EF08701130090F0931095209740933
:1008600095097601150157015701B9013B0A7C1220
:100870001A02180A752ADC847FDFFDAD1FD7FFF747
:10088000DFEFFFFFFFFFFFFFFFFFFFFFFFFFFFFFA8
:10089000FFFFFFFFFFFFFFFFFFF7FFFFFFFFFFFF70
:1008A000FEFFFDFFFEFFFEFFFDF7DFEF7CA54F190A
:1008B0006C000E11CD080E110D112D11CC080E0972
:1008C000500910013209530134015501F500D400DB
:1008D0001601B901B9017A1A151A13227FB6BFDFC2
:1008E0009A9DDFEFFFF7FFFFFFFFFFFFFFFFFFFF17
:1008F000FFFFFFFFFFFFFFFFFFFFFFFFFFF7FFFF10
:10090000FFFFDFFFFEFFFDFFFEFFFEFF9CEFFFF797
:100910001B95EE10AD002F118D00F54A1B953B9DE8
:10092000B563B242F029ED00EE00CF001101520193
:10093000F611950155013501B3003401740193118D
:10094000B5323FCFFFC65CB6FFF7FFFFFFFFFFFFEB
:10095000FFFFFFFFFFFFFFFFFFFFFFFFFFFFFFFFA7
:10096000FFFFFFFFDFFFDFFFDFFFFEFFFEFFFFFFF9
:10097000FEFFFFF7DB8C2F112F11CE088D00F96BD6
:10098000FFEFFFF79FC6DFCEDFEFDFCEFC84B43A88
:10099000F1218D005109F0007301B40974011301B4
:1009A000F20094096D00564BFFE77DBE7BBEFFFF52
:1009B000FFFFFFFFFFFFFFFFFFFFFFFFFFFFFFFF47
:1009C000FFFFFFFFFFFFFFFFDFFFDFFFDFFFDEFFB8
:1009D000DFFFFFFFFFFFFFEF9E9DEF08CF004D0001
:1009E000CF00F2299FE73FDF72638B21B042777C13
:1009F000FFCEDFE775536E11F4424F090E01CE00B2
:100A0000B2119311540175093101CD00BD9D7FD7FD
:100A10003AB67EE7DFF7DEF7FFFFFFFFFFFFFFFFDE
:100A2000FFFFFFFFFFFFFFFFFFFFFFFFDFFFDFFF16
:100A3000FFFFFEFFDFFFDFFFBEF7FFF71FCF31092C
:100A4000EE00CD00122A0900E9087DC6FFF75EBE60
:100A5000F04A05002A11703A8D19B23AFFE7FFC635
:100A60003A6CED080E09CE00120154093201EF0074
:100A70006E115FB6DFEF579D9FEFBEF7DFFFFFFF01
:100A8000FFFFFFFFFFFFFFFFFFFFFFFFFFFFFFFF76
:100A9000FFFFFFFFFFFFFEFFDFFFBFFFFFFFDFEFF7
:100AA0007FAE91094900F66B7FE719956C3A2711E3
:100AB000F36B1FD7FFEF5C9569002D094E118B007A
:100AC000D44ABC847763F5523763F239CF08F10812
:100AD0001309D200D52154321FAE8B19DED6BFF7D1
:100AE000FFFFDFFFFFFFFEFFFDFFFDFFFFFFFFFF3B
:100AF000FFFFFFFFFFFFFFFFFEFFFEFFDFFFBFFF68
:100B00001DEFFFF73FA69209AB00167CDFFFBFF792
:100B1000FFFF9DCE968C7EBEFFEF9FDFFB8CCB0848
:100B2000AB008B0049002900AE29798CDA9CB252C7
:100B30002D19EE08B000D100941114221D8D6B11F7
:100B40001FDFDFFFDFFFDFFFFFFFFFFFFDF7FDF729
:100B5000FFFFFFFFFFFFFFFFFFFFFFFFFEFFFEFFA7
:100B6000DEFFBEFFFFFF5FDFB63232014D000A003D
:100B7000503917731CADBFFFDFFFBFF7DFF7FFF77B
:100B80005FE7C8089363567C7263EF4AB68CBDCEAC
:100B90001ED7FED67FDF797CED006D00D211D532F5
:100BA0001B85CC215FE7FFFFDFFFBFFFDFFFFFFFFC
:100BB000FFF7FFFFFFFFFFFFDFFFDFFFDFFFFFFFAD
:100BC000FFF7FEF7DEFFDEFFBFFFFFD65101130187
:100BD0008E082C100B080B104C10CD2015633DAD6A
:100BE0007FD65FCE9473C810DFF7FFFF7FE7BFEFBC
:100BF000FFF7FFF7BDE7FFF7FFF71FCFF342AC00AA
:100C0000900951221A7D8A195FDFBFF7DFFFBFFF0E
:100C1000DFFFDFFFFFFFFFFFFFFFFFFFDFFFDFFF64
:100C2000DFFFFFFFFFF7FEF7FFFFDFFFDFFFBFCEB6
:100C3000300193112B006B200A200B186E100B0053
:100C40004D006D086C102A082910B67B7FFFDFFF6E
:100C5000DFFFBFF79FEFBFEFFFF7FFF7FFEFFFEFFC
:100C6000386CCC00900931227B852B227EDFDFF7A8
:100C7000DFFF9FFFDFFFDFFFDFFFFFFFFFFFFFFF64
:100C8000FFFFFFFFDFFFFFFFFFF7FFF7DFFFDFFFE4
:100C9000FFFF3CB60E01B2190700A8280528262040
:100CA0002808CC104A080A008D186D100B008D180A
:100CB0007352398C9FD6DFFFDFF7DFF7FFF79FEF27
:100CC000FFF79FC672326C00F2193222B86CF67CC4
:100CD000FFEFFFFFFFFFDFFFDFFFDFFFDFF7FFFFBC
:100CE000FFFFFFFFFFFFFFFFFFFFFFFFFFF7FFF724
:100CF000DFFFDFFF9FEFDEC6EF196C09A83132BDC1
:100D00006EB4288BC351023100084618AB180B0093
:100D10004E0070004F002D006C008F29F35AB57300
:100D2000B583D58391526F218E008F007309D6321F
:100D3000712A1BA6FFEFFFFFFEFFFEFFFFFFFFFF75
:100D4000DEFFFFFFFFFFFFFFFEFFFEFFFFFFFFFFD6
:100D5000FFF7FFF7DFFFBFFFFFFF9DC68C0909010B
:100D6000274290C5CBBC2BD56AD567B4A79B4562FB
:100D700082202510691009000C00F0186E080B0085
:100D80004C084B080800090809004C08D1100F0056
:100D900055095FA63122756CFFE7FEF7DDFFDCFF2A
:100DA000FEFFFEFFFDFFFEFFFFFFFFFFFEFFFEFF5A
:100DB000FFFFFFFFFFF7FFF7DFFFBFFFFFFF7CBE77
:100DC0008C094A09474AB4E66DD586BC25DD24DD89
:100DD00024D545D506CD05AC8472644903180710A7
:100DE0000B104E104E082D004D008D086C100B0896
:100DF0009110310035111E645FAE8B115DD7FEF787
:100E0000FDFFFDFFFDFFFDFFFDFFFEFFFFFFFFFFFD
:100E1000FEFFFEFFFFFFFFFFFFF7FFF7DFFFBFFF54
:100E2000FFFF7CBE8D094B09AB52DBFF78FF55FFFE
:100E3000ABED67E505DDE4DC05DD06DDE7DCA9D427
:100E40006CC4C98AE54804180610280869088A1085
:100E500028102A10B01851005100F6213E858B1140
:100E60003ED7FFF7FDFFFDFFFEFFFEFFFEFFFEFF8B
:100E7000FFFFFFFFFFFFFFFFFFFFFFFFFFF7FFF792
:100E8000DFFFBFFFFFFF9EC66F09ED004E429FFFD1
:100E90009FFF9EFF9DFF9CFFD8FEF4FD30F5CCE444
:100EA000A9E4A6E4E5EC25ED46EDC7D4659BA2597F
:100EB000603000184320041009008E083319D42133
:100EC0005F8D6B113ED7FFF7FEFFFFFFFFFFDFFFD8
:100ED000FFFFFFFFFFFFFFFFFFFFFFFFFFFFFFFF22
:100EE000FFF7FFF7DFFFBFFFDFFF5DBE70093001D7
:100EF000924ABFFF9FFF7FFF1FFF5FFF7FFF7FFFC4
:100F00007DFFF7FE51FEECFDE4E4C2DCC1DC03E54D
:100F100027EDE9E44AD4CABB256A454105084A08D9
:100F20009221F4297F950A093FD7FFF7FFFFFFFFC2
:100F3000DFFFDFFFFFFFDFFFFFFFFFFFFFFFFFFF21
:100F4000FFFFFFFFFFF7FFF7DFFFBFFFDFFF5DBE24
:100F500070093101B34A9FF7FFEE7FEE9FFF9FFFBD
:100F6000BFFFBEFFFCFFFBFFF9FFD8FFD8FFF5FE78
:100F7000AFEDCBE469EC68F446FC46ECCBCCAEAC10
:100F8000AC62C9180E1950197E956B113FD7FFF747
:100F9000DFFFDFFFDFFFDFFFDFFFDFFFFFFFFFFF21
:100FA000FFFFFFFFFFFFFFFFFFFFFFFFBFFFBFFFD1
:100FB000DFFF7EC670092F01913A7FEFBFDE3CCE86
:100FC000BAC51ACEDBDEBDF7FDFFFDFFFDFFFDFF5D
:100FD0005BF7BDFFBDFF7AFF74FEAEFD2AFDE8ECB6
:100FE0004ADDCFD5509C09290D19B021BE9DAC1901
:100FF0003ED7FFF7FFFFFFFFFFFFDFFFFFFFDFFF32
:10100000FFFFFFFFFEFFFEFFFEFFFFFFFFFFFFFFF3
:10101000BFFF9FFFDFFF5DC66F096E013043FFF723
:10102000FFFFFDF7DDE77BD7B9C637B617BE9AD607
:101030005DF7FFFFFEFFFDFFDCFFBBFFFBFFFBFFDC
:10104000FAFF76F78BCDCEDDB0B4C7202D2111325B
:101050005D952A113ED7FFF7FEFFFEFFFFFFDFFF82
:10106000FFFFFFFFFFFFFFFFFCFFFDFFFEFFFFFF96
:10107000FFFFFFFFBFFFBFFFDFFF7DBE8F094E01F8
:10108000AE3ADFE7BCEF9AE7FDEFFDEFFEF7FEEFCC
:101090001CDF5ACEF9CDD8CD9ADE7CF7FEFFFDFFDE
:1010A000FDEFFEEFFEE7FDF7F8FFD9FF9AE64A31C4
:1010B0002D19F1293B8D8A193ED7FFF7FEFFFEFF60
:1010C000FFFFFEFFFFFFFFFFFFFFFFFFFBF7FCFF40
:1010D000FFFFDFFFDFFFDFFFDFFFFFFFFFF7DFC601
:1010E0004F090F01B342DFF73DE7D4BD56C6D8CE56
:1010F0005BE7DEF7FFFFFFFFDFFF9FF79AD658C6DB
:1011000017BE78C61BD7DDE7FEEFFEF7FDFFDFFF5A
:101110005FEF6D212D0910229C8DA9115DD7FFF77E
:10112000FFFFFFFFFFFFFFFFFFFFFFFFFFFFFFFFCF
:10113000FBF7FCF7FFFFDFFFBFFFBFFFFFFFFFF77E
:10114000FFEFDFBE4F09300933325FE79FF7FEFF45
:101150005CF7FBE659CE18C659CEFBE69EF7FFFFBB
:10116000FFFFFFFF9EEFFBDE79C638C679CEBAD609
:101170005EEFDFFF3FDF8E194F1131229B8D890912
:101180005DD7FFF7FFFFFFFFFFFFFFFFFFFFFFFF41
:10119000FFFFFFFFFEF7FFF7FFFFBFFFBFFFBFFF30
:1011A000FFFFFFF7FFE79DAE6E09901152329FEFF0
:1011B0001CE79CF75FF79FFF9FFF5FF7DCDE59CED0
:1011C00038CE57CE3BE77CEFDEFFFFFFFFFFBFF7D8
:1011D000FDDE5ACE1DE7BFF73FDF8E194E113122DB
:1011E0007B8D89115DD7FFF7FFFFFFFFFFFFFFFF3B
:1011F000FFFFFEFFFFFFFFFFFFF7FFFFDFFFBFFF68
:10120000BFFFBFFFFFFFFFF7FFEFBEB66D092E095F
:10121000102ABFEFF8B554A51AC69CD63FEFDFFFE2
:10122000FFFFBFF75DEF1BE758CE38C618C69AD64A
:101230003DEFBFFFFFFFDFFF9EF7FFFF3FE76D19A9
:101240002E0910227B8D89115ED7FFFFFFFFFFFF64
:10125000FFFFFFFFFFFFFEFFFFFFFFFFFFF7FFFFA7
:10126000DFFFBFFFBFFFDFFFFFFFFEF7FFEFBEB6F1
:101270004C090D01F0297FDFFDD63CE799CEF6BD84
:1012800055AD76AD59CE3DE79FF7BFFFBFFF9FFF3E
:101290003EEF9BDEF8CDF7C579D6FAE69DFFFFFF5E
:1012A0005FE78D212E1110227C8D8A113ED7FFFF22
:1012B000FFFFDFFFFFFFFFFFFFFFFEFFFFFFFFFF5F
:1012C000FEFFFFFFFFFFDFFFDFFFDFFFFEFFFEF799
:1012D000FFEF7DB66D118F116F197A7C9BAD7FE7A3
:1012E0009DE77CE71BDF9ACE19BED8BDF9BD1AC6B3
:1012F000FEE65FEFDFFFFFFFBEFF1BEF98DE57D676
:101300005BF7DFFF5FE78D214E1111225C8D4911E4
:101310003FDFFFFFDFFFDFFFFFFFFFFFFFFFFEFFFE
:10132000FFFFFFFFFCFFFDFFFFFFFFFFDFFFFFFFF2
:10133000FDFFFEF7FFF79EBE6E1150118E00CE0826
:101340008F29904AB68CD9AD3ED7BFEF5EDFBCCEB9
:101350007AC659C695AD95B5F6BD99D65BEFDDFF5A
:10136000FEFFFDFF3BEFBFFF3FE76D214E11112256
:101370005C956A113FDFFFFFDFFFDFFFFFFFFFFF2D
:10138000FFFFFEFFFFFFFFFFFCFFFCFFFEFFFEFF76
:10139000FFFFFEFFFDFFFEF7FFF79EBE2C112F1192
:1013A000711951199021AB08CA084B116F3A357465
:1013B000FBAD1ED75EDF3DDF3CDF1BDFB9CE16BEC7
:1013C000B5B5D5B577CEF9DE9CF7FFFF3FDF4C19F9
:1013D0000D09F1217C958B213FDFFFFFDFFFDFFF50
:1013E000DFFFFFFFFFFFFEFFFFFFFFFFFCFFFDFF33
:1013F000FEFFFEFFFEFFFEFFFEFFFEFFFFF71FD713
:1014000099841132AD08CE084F197021B22171199B
:101410000E09CC000B090E2AF46B99A5BCC63DD76A
:101420005DDF1BD7FAD61AD777C6B4ADF7BD9FEFED
:101430001FDF4D196F11D0199D9D4A111FDFDFFF6E
:10144000DFFFBFFFDFFFFFFFFFFFFFFFFFFFFFFF2C
:10145000FEFFFEFFFFFFFFFFFFFFFFFFFEFFFFFF9F
:10146000FFFFFFF7FFF71FD7DFAD397C71420D118A
:10147000CE00EF087119D121B0214D110B090A09D5
:101480008B19715B799D9CBEDDCE1DD73DD73DDFAD
:10149000DCD6DDD69FC66E19B1191222FB84CC2191
:1014A0003FDFFFFFDFFFDFFFDFFFFFFFFFFFFFFF8C
:1014B000FFFFFFFFFFFFFFFFFFFFFFFFFFFFFFFF3C
:1014C000FFFFFFFF7DEFDFF7FFFFFFF7FFF7BFEF46
:1014D0003FD79FC65774144BCF210C09ED080E114E
:1014E0004F1170192F11EE10ED086E21D24A997C20
:1014F0001EB61FD73FDFFFD69FC6CD00AD00532AD3
:101500001B85CC213EDFFFFFDFFFDFFFDFFFFFFF9B
:10151000FFFFFFFFFFFFFFFFFFFFFFFFDFFFFFFFFB
:10152000FFFFFFFFFFFFFFFFFFFFFFFFFFFFDFF7F3
:10153000DFF7FFF7FFF7FFEFFFEF7FD73DAE3A8D05
:101540005874555B11322F110F11101130195119A8
:101550001011EF085019113298849CA5BFA5911164
:101560001001742A1A8528093EDFDFFFDFFFDFFF45
:10157000DFFFFFFFFFFFFFFFFFFFFFFFDFFFDFFFDB
:10158000FFFFFFFFFFFFFFFFFFFFFFFF9EF7BEFF15
:10159000DEFFFEFFFFFFFFFFFFF7FFF7FFEFFFEFAD
:1015A000FFF7FFF7FFF7BFE79EBE7B9D94633132E5
:1015B0000E09F01073219521551933194B000C09B0
:1015C0002F09CF003101B1115C8D0B2A3DD7DEF719
:1015D000DFFFBFFFDFFFFFFFFFFFFFFFFFFFFFFF9B
:1015E000FFFFFFFFFFFFFFFFFFFFFFFFFFFFDFFF2B
:1015F000FFFFFFFFFEFFFEFFFDFFFEFFFEF7FEF712
:10160000FFFFFFFFDFF7BEEFFFEFFFF7FFF7FFF78B
:10161000FFF75FD7BDA5D863D1218E00D000721926
:10162000B021F121CF0073099309B1091A7D27096F
:101630005DDFFEFFFEFFBEFFDFFFDFFFFFFFFFFFFF
:10164000FFFFFFFFFEFFFEFFFEFFFFFFFFFFFFFFAD
:10165000FFFFDFFF9FFFBEFFDEFFFEFFFEFFFFFF7E
:10166000FFFFFFFF9CEFDDFFFEFFFFFFFFFFFFFF20
:10167000FFF7BFE7DFEFFFF7FFEFFFEF5FD7588D13
:10168000CE3A29090C093009D0009409730154227B
:101690005B85C9199EE7FEFFFEFFBEFFDFFFDFFF90
:1016A000FFFFFFFFFFFFFFFFFEFFFEFFFEFFFEFF4E
:1016B000FFFFFFFFFFFFFFFFDFFFDFFFDEFFFEFF9C
:1016C000FEFFFFFFFFFFFFFFFEFFFEFFFEFFFEFF2F
:1016D000FFFFFFFFFFFFFFF7FFF7FFF7FFEFFFEF52
:1016E000FFF7FFEFDDDF3DCFB884B33A9111B219B8
:1016F0008D00AF11FC9D7795DEEFFEFFFEFFBEFF74
:10170000DFFFFFFFFFFFFFFFFFFFFFFFFFFFFFFF09
:10171000FFFFFFFFFFFFFFFFFFFFFFFFFFFFFFFFD9
:10172000FFFFFFFFFFFFFFFFFFFFFFFFFFFFFFFFC9
:10173000FFFFFFFFFFFFFFFFFFFFFFFFFFFFFFFFB9
:10174000FFFFFFFFFFFFFFF7FFF7FFF7FFFFFFF7C9
:101750001FD7D98CF24AD46BBDC6FFF7FFFFFEFF3F
:10176000FFFFFFFFFFFFFFFFFFFFFFFFFFFFFFFF89
:10177000FFFFFFFFFFFFFFFFFFFFFFFFFFFFFFFF79
:10178000FFFFFFFFFFFFFFFFFFFFFFFFFFFFFFFF69
:10179000FFFFFFFFFFFFFFFFFFFFFFFFFFFFFFFF59
:1017A000FFFFFFFFFFFFFFFFFFFFFFFFFFFFFFFF49
:1017B000BEF7DFFFFFFFDFF7BFEFFFF7FFF7BDEF7C
:1017C000FEFFFEFFFFFFFFFFFFFFFFFFFFFFFFFF2B
:1017D000FFFFFFFFFFFFFFFFFFFFFFFFFFFFFFFF19
:1017E000FFFFFFFFFFFFDFFFFFFFFFFFDFFFDFFF69
:1017F000FFFFFFFFFFFFFFFFBFFF5DF73DEF3DEF87
:101800003CEF1CE77DF75DEF5DEF5DEF5CEF7DF793
:101810007DF79DF79DF7BDF7FEFFFFFFBEF7DFFFEA
:10182000FFFFFFFFFFFFFFFFFFFFFFFFFFFFFFFFC8
:10183000FFFFFFFFFFFFFFFFFFFFFFFFFFFFFFFFB8
:10184000FFFFFFFFFFFFFFFFFFFFDFFFFFFFFFFFC8
:10185000DFFFDFFFFFFFDFFF7EF77EF75DEF1CE7B7
:101860001CE71CE71CE7DBDE1CE71CE71CE71CE7AA
:101870001BE71BE7FBE6FBDEB9D61ADF9DF7FFFF90
:10188000FFFFFFFFFFFFDFFFFFFFFFFFFFFFFFFF88
:10189000FFFFFFFFFFFFFFFFFFFFFFFFFFFFFFFF58
:1018A000FFFFFFFFFFFFFFFFFFFFFFFFFFFFDFFF68
:1018B000FFFFFFFFFFFFFFFFFFFF9EF7FCE61CEFB0
:1018C0003DEF1CE71CE73CEF1CE7FCE6FBE61BE7F3
:1018D0001CE71CE71BE7DADEB9D699D637C657C630
:1018E000DADEDEF7FFFFFFFFFFFFDFFFFFFFFFFF97
:1018F000FFFFFFFFFFFFFFFFFFFFFFFFFFFFFFFFF8
:10190000FFFFFFFFFFFFFFFFFFFFFFFFFFFFFFFFE7
:10191000FFFFFFFFFFFFFFFFFFFFFFFFDFFF5DEFA9
:10192000DBDE1CE73DEF3CEF3DEF5DEF3DEF1CE7FD
:10193000FBE61BE71BE71BE7FBE6DADE99D678CE72
:1019400037C616BE37C61BE7FFFFFFFFDFFFFFFFEF
:10195000FFFFFFFFFFFFFFFFFFFFFFFFFFFFFFFF97
:10196000FFFFFFFFFFFFFFFFFFFFFFFFFFFFFFFF87
:10197000FFFFFFFFFFFFFFFFFFFFFFFFFFFFFFFF77
:10198000DFFF3CE79AD6DBE61CEF1CEF1CEF1CEFF9
:101990001CE7FBE6DBDEDADEDADEBADE99DE79D6DC
:1019A00058CE58CE58CE17C6D6BD99D6BEF7DFFF53
:1019B000DFFFFFFFFFFFFFFFFFFFFFFFFFFFFFFF57
:1019C000FFFFFFFFFFFFFFFFFFFFFFFFFFFFFFFF27
:1019D000FFFFFFFFFFFFFFFFFFFFFFFFFFFFFFFF17
:1019E000FFFFFFFFDFFF1CE79AD6FBE63CEF1CEF93
:1019F0001CE71CE7FBE6FBE6DADEDADEBADE99D6A8
:101A000079D658CE38CE37CE37C637C6F6BD99CE42
:101A1000DEFFFFFFBEF7FFFFFFFFFFFFFFFFFFFF40
:101A2000FFFFFFFFFFFFFFFFFFFFFFFFFFFFFFFFC6
:101A3000FFFFFFFFFFFFFFFFFFFFFFFFFFFFFFFFB6
:101A4000FFFFFFFFDFFFFFFFDFFF1CE7BADEFBE664
:101A50003CEF3CEF1CEF1CEF1BE71BE7DAE6DADE9E
:101A6000BADE99D678D658CE37CE17C6D6BD57C669
:101A7000F6BD79CEFEFFFFFFBFF7FFFFFFFFFFFFC1
:101A8000FFFFFFFFFFFFFFFFFFFFFFFFFFFFFFFF66
:101A9000FFFFFFFFFFFFFFFFFFFFFFFFFFFFFFFF56
:101AA000FFFFFFFFFFFFFFFFDFFFFFFFDFFF1CE781
:101AB0009AD6FBE63CEF3CEF1BE71BE71BE71BE777
:101AC000DADEDADEBADE99D678D637CEF6C5D6BDFE
:101AD000B5B557C6F6BD58CEDEFFFFFFDFFFFFFFEF
:101AE000FFFFFFFFFFFFFFFFFFFFFFFFFFFFFFFF06
:101AF000FFFFFFFFFFFFFFFFFFFFFFFFFFFFFFFFF6
:101B0000FFFFFFFFFFFFFFFFDFFFFFFFFFFFDFFF25
:101B1000FFFF1CE7BADEFBE61BEF1BEF1BEF1BEF23
:101B20001BEF1BE7FAE6DAE6B9DE78D637CE16CE3B
:101B3000F6C5D6BDF6BD16C6D6BD58CEFFFFDEFF34
:101B4000FFFFFFFFFFFFFFFFFFFFFFFFFFFFFFFFA5
:101B5000FFFFFFFFFFFFFFFFFFFFFFFFFFFFFFFF95
:101B6000FFFFFFFFFFFFFFFFFFFFFFFFDFFFFFFFA5
:101B7000FFFFDFFFFFFF1CE7BADEFBE61BEFFBE624
:101B8000FBE6FBE6FBE6DAE6DAE6DADE99DE78D6B5
:101B900037CE16C6F6C5D5BDF6BD37C6F6BD78CE6E
:101BA000FFFFDEFFFFFFDFFFFFFFFFFFFFFFFFFF86
:101BB000FFFFFFFFFFFFFFFFFFFFFFFFFFFFFFFF35
:101BC000FFFFFFFFFFFFFFFFFFFFFFFFFFFFFFFF25
:101BD000DFFFFFFFFFFFDFFFFFFF1CE79ADEDAE614
:101BE000FBEEFBE6FBE6FAE6FAE6DAE6B9DE99DEBC
:101BF00078DE57D617CEF6C5D5C5B5BDD6BD16C647
:101C0000D6BD58CEFFFFDEFFFFFFDFFFFFFFFFFF68
:101C1000FFFFFFFFFFFFFFFFFFFFFFFFFFFFFFFFD4
:101C2000FFFFFFFFFFFFFFFFFFFFFFFFFFFFFFFFC4
:101C3000FFFFFFFFDFFFFFFFFFFFDFFFFFFF1CE7EF
:101C400079D6BADEFAE6FAE6FAE6FAE6FAE6DAE68D
:101C500099DE98DE78D637CE16CED5C5B5BDB5BDE2
:101C600094B5D6BDB5B558CEFFFFDEFFFFFFDFFF51
:101C7000FFFFFFFFFFFFFFFFFFFFFFFFFFFFFFFF74
:101C8000FFFFFFFFFFFFFFFFFFFFFFFFFFFFFFFF64
:101C9000FFFFFFFFFFFFFFFFDFFFFFFFFFFFDFFF94
:101CA000FFFF1CE779D6B9DEDAE6FAE6DAE6DAE62D
:101CB000DAE6B9DE99DE98DE78D637CEF6C5D5C538
:101CC00094BD94BD74ADD5B5B5B558CEFFFFDFFF5B
:101CD000FFFFDFFFFFFFFFFFFFFFFFFFFFFFFFFF34
:101CE000FFFFFFFFFFFFFFFFFFFFFFFFFFFFFFFF04
:101CF000FFFFFFFFFFFFFFFFFFFFFFFFDFFFFFFF14
:101D0000FFFFDFFFFFFF1CE799DEDAE61BEFFBEECC
:101D1000FAE6DAE6B9E699DE98DE78D657D616CE38
:101D2000D5C594BD74B553B574ADD5B5B5B578CE3C
:101D3000FFFFDFFFFFFFDFFFFFFFFFFFFFFFFFFFF3
:101D4000FFFFFFFFFFFFFFFFFFFFFFFFFFFFFFFFA3
:101D5000FFFFFFFFFFFFFFFFFFFFFFFFFFFFFFFF93
:101D6000DFFFFFFFFFFFDFFFFFFF1CE737CE78D667
:101D7000B9DEB9DEB9DEB9DE98DE78D657D637CE11
:101D8000F6C5B5BD73B532AD12ADF1A412A574ADF3
:101D900095AD58C6FFFFFFFFFFFFDFFFFFFFFFFF0F
:101DA000FFFFFFFFFFFFFFFFFFFFFFFFFFFFFFFF43
:101DB000FFFFFFFFFFFFFFFFFFFFFFFFFFFFFFFF33
:101DC000FFFFFFFFDFFFFFFFFFFFDFFFFFFF1BE75F
:101DD00054B594C5F4CD14D614DE34DE14DEF3DD30
:101DE000D3D5D2D591CD50C50FB5CEAC8DA46EA4B0
:101DF0008F9C11A532AD16C6FFFFFFFFFFFFFFFF4F
:101E0000FFFFFFFFFFFFFFFFFFFFFFFFFFFFFFFFE2
:101E1000FFFFFFFFFFFFFFFFFFFFFFFFFFFFFFFFD2
:101E2000FFFFFFFFFFFFFFFFFFFFFFFFFFFFDFFFE2
:101E3000BEF77DF74B7BEC9BE99BAABC47BC67C414
:101E400067CC68D4C9D4C9D4E8D4E7D4E8CCC8CC2A
:101E5000C9CCCBCC4FCD71C54D9477D6FEFF9DF745
:101E6000FFFFFFFFFFFFFFFFFFFFFFFFFFFFFFFF82
:101E7000FFFFFFFFFFFFFFFFFFFFFFFFFFFFFFFF72
:101E8000FFFFFFFFFFFFFFFFFFFFFFFFFFFFFFFF62
:101E9000FFFFDFFFBEF79DFF2E9CCA9B28B4E9D44D
:101EA000A6D4C6E4A6E4A6ECE6EC06ED25ED45EDE9
:101EB00045ED67ED68ED6BE58FDD50C56DA4F8EE7F
:101EC000FEFFDEF7FFFFFFFFFFFFFFFFFFFFFFFF4C
:101ED000FFFFFFFFFFFFFFFFFFFFFFFFFFFFFFFF12
:101EE000FFFFFFFFFFFFFFFFFFFFFFFFFFFFFFFF02
:101EF000FFFFFFFFFFFFDFFFDFFFDEFF11B5488BB6
:101F000048B4C8CCE6DCE5E4C5E4C5EC06F525F547
:101F100045ED64EDA5F5A7F5A9F5ACEDF0E50FBD30
:101F2000AEA49BFFFEFFFFFFFFFFFFFFFFFFFFFFD2
:101F3000FFFFFFFFFFFFFFFFFFFFFFFFFFFFFFFFB1
:101F4000FFFFFFFFFFFFFFFFFFFFFFFFFFFFFFFFA1
:101F5000FFFFFFFFFFFFFFFFDFFFDFFFFFFFFEFFD2
:101F6000D4CDE67A28ACA6C405DD04E5C4E4E4ECEF
:101F700045F565F584F5A4F5A4EDA6EDA7F5AAED64
:101F8000D0DDADAC10B5FDFFDDFFFFFFFFFFFFFFB4
:101F9000FFFFFFFFFFFFFFFFFFFFFFFFFFFFFFFF51
:101FA000FFFFFFFFFFFFFFFFFFFFFFFFFFFFFFFF41
:101FB000FFFFFFFFFFFFFFFFFFFFFFFFFFFFDFFF51
:101FC000FFFFFEFFD8EE478327A4A6C426DD24E545
:101FD00004ED24F585FDA4F5A3F5C3F5E4F5E5F5D9
:101FE000C7F5AAEDAFD54D9CB2C5FDFFDDFFFFFFE4
:101FF000FFFFFFFFFFFFFFFFFFFFFFFFFFFFFFFFF1
:10200000FFFFFFFFFFFFFFFFFFFFFFFFFFFFFFFFE0
:10201000FFFFFFFFFFFFFFFFFFFFFFFFFFFFFFFFD0
:10202000FFFFFFFFFFFFFEFF7BFF0B9CC69BA6BCD5
:1020300046DD44E503E544F584F5A3F5C3F5E3F592
:1020400003F605F6E7F5EBED8FD56D9C96DEFDFF0B
:10205000FEFFFFFFFFFFFFFFFFFFFFFFFFFFFFFF91
:10206000FFFFFFFFFFFFFFFFFFFFFFFFFFFFFFFF80
:10207000FFFFFFFFFFFFFFFFFFFFFFFFFFFFFFFF70
:10208000FFFFFFFFFFFFFFFFFFFFDEFFDDFFEFB4FE
:10209000858BA6BC26DD44E523E584F583F5A3F511
:1020A000C2F502F604F625F607FE2BF68FCD8EA4B8
:1020B0007AFFFDFFFFFFFFFFFFF7FFFFFFFFFFFFBF
:1020C000FFFFFFFFFFFFFFFFFFFFFFFFFFFFFFFF20
:1020D000FFFFFFFFFFFFFFFFFFFFFFFFFFFFFFFF10
:1020E000FFFFFFFFFFFFFFFFFFFFFFFFDFFFBEFF61
:1020F000FEFFB3CD658BA7BC46DD65E543EDA4FDD2
:10210000C4FDE4FD03F623F645F646FE49FE4CF613
:102110006FC5AFA4FDFFBDFFFFFFDFF7BEF7FFFFF9
:10212000FFFFFFFFFFFFFFFFFFFFFFFFFFFFFFFFBF
:10213000FFFFFFFFFFFFFFFFFFFFFFFFFFFFFFFFAF
:10214000FFFFFFFFFFFFFFFFFFFFFFFFFFFFFFFF9F
:10215000FFFFFFFFBEFFF9F6678B26AC88DDA6ED1B
:1021600065EDC5FD05FE04FE23F624F645F627F6CB
:1021700029FE6EF68CACF4CDFDFFBDF7FFFFFFFF2F
:10218000FFFFDFF7FFFFFFFFFFFFFFFFFFFFFFFF87
:10219000FFFFFFFFFFFFFFFFFFFFFFFFFFFFFFFF4F
:1021A000FFFFFFFFFFFFFFFFFFFFFFFFFFFFFFFF3F
:1021B000FFFFFFFFFFFFFFFFDFFF3BFFE99326A4C9
:1021C00068DDA6ED85EDC5FD05FE25FE24F645F688
:1021D00046F648F64AF64EF68DAC36CEFEFFBDF713
:1021E000FFFFFFF7FFFFDFF7FFFFFFFFFFFFFFFF2F
:1021F000FFFFFFFFFFFFFFFFFFFFFFFFFFFFFFFFEF
:10220000FFFFFFFFFFFFFFFFFFFFFFFFFFFFFFFFDE
:10221000FFFFFFFFFFFFFFFFFFFFFFFFDFFF9DFF50
:102220008DAC27A448D5A7EDC6F5E6F526FE45FEFC
:1022300065FE66F667F669F64CF62FEEADAC98DEF5
:10224000FEFFDEFFFFFFDFF7FFFFFFFFFFFFFFFFE8
:10225000FFFFFFFFFFFFFFFFFFFFFFFFFFFFFFFF8E
:10226000FFFFFFFFFFFFFFFFFFFFFFFFFFFFFFFF7E
:10227000FFFFFFFFFFFFFFFFFFFFFFFFFFFFFFFF6E
:10228000BFFFDFFF2FBD07A427CDC7EDE7F506FE93
:1022900026FE66FE86FE87FE88FE8AFE4DF60FE667
:1022A000AEAC1AE7FEFFFFFFFFFFDFF7FFFFFFFF08
:1022B000FFFFFFFFFEFFFEFFFFFFFFFFFFFFFFFF30
:1022C000FFFFFFFFFFFFFFFFFFFFFFFFFFFFFFFF1E
:1022D000FFFFFFFFFFFFFFFFFFFFFFFFFFFFFFFF0E
:1022E000FFFFFFFF9FFFDFFFB1C5E69B27CDE7EDB7
:1022F00007F646FE46FE86FEA6FEA7FEA9FEABFE3C
:102300004DF6EFE5CEAC7CF7FFFFFFFFFFFFDFF7F9
:10231000FFFFFFFFFFFFFFFFFEFFFEFFFFFFFFFFCF
:10232000FFFFFFFFFFFFFFFFFFFFFFFFFFFFFFFFBD
:10233000FFFFFFFFFFFFFFFFFFFFFFFFFFFFFFFFAD
:10234000FFFFFFFFFFFFFFFF9FFFBEFFF2D5069CD1
:1023500047CD07EE27F666FE66FEA6FEC7FEA7FE81
:10236000A9FEACFE4DF6EFDDCFACDDFFFEFFFFFFBB
:10237000FFFFFFF7FFFFFFFFFFFFFFFFFEFFFEFF77
:10238000FFFFFFFFFFFFFFFFFFFFFFFFFFFFFFFF5D
:10239000FFFFFFFFFFFFFFFFFFFFFFFFFFFFFFFF4D
:1023A000FFFFFFFFFFFFFFFFFFFFFFFFBFFFBEFFBE
:1023B00033D6069C67D507EE26F666FE86FEC6FE79
:1023C000C6FEA7FEA9FEACFE4EF6CFDDCFA4FEFFF3
:1023D000BEF7FFFFFFFFFFFFFFFFFFFFFFFFFFFF56
:1023E000FEFFFEFFFFFFFFFFFFFFFFFFFFFFFFFFFF
:1023F000FFFFFFFFFFFFFFFFFFFFFFFFFFFFFFFFED
:10240000FFFFFFFFFFFFFFFFFFFFFFFFFFFFFFFFDC
:10241000FFFFDDFF73DE279C88D507EE06F666FE1C
:1024200086FEC7FEC7FEA7F6A9F6CCFE6DF6CFDD89
:10243000CFACFEFF9DF7FFFFFFFFFFFFFFFFFFFF9A
:10244000FFFFFFFFFFFFFFFFFFFFFFFFFFFFFFFF9C
:10245000FFFFFFFFFFFFFFFFFFFFFFFFFFFFFFFF8C
:10246000FFFFFFFFFFFFFFFFFFFFFFFFFFFFFFFF7C
:10247000FFFFFFFFDFFFFDFF53D6E69328CD08EEF9
:1024800047FE46FE66FEA7FE67F6A9FEABF68CF693
:10249000AEF6AED510ADDEFFFFFFFFFFBEF7FFFFCC
:1024A000FFFFFFFFFFFFFFFFFFFFFFFFFFFFFFFF3C
:1024B000FFFFFFFFFFFFFFFFFFFFFFFFFFFFFFFF2C
:1024C000FFFFFFFFFFFFFFFFFFFFFFFFFFFFFFFF1C
:1024D000FFFFFFFFFFFFFFFFDEFFFDFF54D6E79387
:1024E00028CDE9ED47FE46FE86FEA7FE67FEAAFE62
:1024F0008BF68CF6AEF6CDD510ADDEFFFFFFFFFFFD
:10250000DEFFFFFFDFFFFFFFFFFFFFFFFFFFFFFF1C
:10251000FFFFFFFFFFFFFFFFFFFFFFFFFFFFFFFFCB
:10252000FFFFFFFFFFFFFFFFFFFFFFFFFFFFFFFFBB
:10253000FFFFFFFFFFFFFFFFFFFFFFFFDEF7FEFFD5
:1025400075D6089429CDE8ED47FE66FE86FEA7FE07
:1025500087FEA9FEABF68CF6CEFEEED510ADDDFF04
:10256000FFFFFFFFDEFFFFFFDFFFFFFFFFFFFFFFBC
:10257000FFFFFFFFFFFFFFFFFFFFFFFFFFFFFFFF6B
:10258000FFFFFFFFFFFFFFFFFFFFFFFFFFFFFFFF5B
:10259000FFFFFFFFFFFFFFFFFFFFFFFFFFFFFFFF4B
:1025A000DFF7FEFF55D6089429CDE8E547FE86FE05
:1025B00085FEA6FE87FEC9FE8AF68CF6CEFEEEDD0F
:1025C000EFACBDFFFFFFFFFFDEFFFFFFDFFFFFFF01
:1025D000FFFFFFFFFFFFFFFFFFFFFFFFFFFFFFFF0B
:1025E000FFFFFFFFFFFFFFFFFFFFFFFFFFFFFFFFFB
:1025F000FFFFFFFFFFFFFFFFFFFFFFFFFFFFFFFFEB
:10260000FFFFFFFFDFF7FFFF34D6089449CDE8E571
:1026100046FE86FE85FEA6FE86FEA9FE8AF68BF69F
:10262000CDFEEEDDCFA49DF7FEFFFFFFDEFFFFFF37
:10263000DFFFFFFFFFFFFFFFFFFFFFFFFFFFFFFFCA
:10264000FFFFFFFFFFFFFFFFFFFFFFFFFFFFFFFF9A
:10265000FFFFFFFFFFFFFFFFFFFFFFFFFFFFFFFF8A
:10266000FFFFFFFFFFFFFFFFDFFFFEFF14CEE8933A
:1026700049CDE8E526F685FE64FEA5FE86FEA8FEA9
:1026800069F66AF6ADFEEDE5AEA49CF7FEFFFFFF2E
:10269000DEFFFFFFDFFFFFFFFFFFFFFFFFFFFFFF8B
:1026A000FFFFFFFFFFFFFFFFFFFFFFFFFFFFFFFF3A
:1026B000FFFFFFFFFFFFFFFFFFFFFFFFFFFFFFFF2A
:1026C000FFFFFFFFFFFFFFFFFFFFFFFFDFFFBDFF7C
:1026D000D3CDC79349CDE8ED26F665FE44FE85FED1
:1026E00066FE87FE48F64AFE8CFEEDE58D9C7CF783
:1026F000DEFFFFFFDEFFFFFFDFFFFFFFFFFFFFFF4C
:10270000FFFFFFFFFFFFFFFFFFFFFFFFFFFFFFFFD9
:10271000FFFFFFFFFFFFFFFFFFFFFFFFFFFFFFFFC9
:10272000FFFFFFFFFFFFFFFFFFFFFFFFFFFFFFFFB9
:10273000DFFFBDFFB2CDA79349CDE8ED06F645FE1C
:1027400044FE86FE66FE88FE48FE4AFE8CFEEDE5EF
:102750006D9C5CEFDEFFFFFFDEFFFFFFDFFFFFFF93
:10276000FFFFFFFFFFFFFFFFFFFFFFFFFFFFFFFF79
:10277000FFFFFFFFFFFFFFFFFFFFFFFFFFFFFFFF69
:10278000FFFFFFFFFFFFFFFFFFFFFFFFFFFFFFFF59
:10279000FFFFFFFFDFFFFEFFEFB4A79309CDA8ED1A
:1027A00048FE26FE46FE46FE47FE48FE49FE4BFE1C
:1027B0004BFE2FF68D9CFAE6FEFFFFFFFFFFFFFFAB
:1027C000FFFFFFFFFFFFFFFFFFFFFFFFFFFFFFFF19
:1027D000FFFFFFFFFFFFFFFFFFFFFFFFFFFFFFFF09
:1027E000FFFFFFFFFFFFFFFFFFFFFFFFFFFFFFFFF9
:1027F000FFFFFFFFFFFFFFFFDFFFDDFFEFB409A4D7
:102800000ACDAAED09FEE7FD07FE48FE49FE4AFE95
:102810004BFE4CFE0CFE0FEE4D9499D6DEFFFEFFF4
:10282000FFFFFFFFFFFFFFFFFFFFFFFFFFFFFFFFB8
:10283000FFFFFFFFFFFFFFFFFFFFFFFFFFFFFFFFA8
:10284000FFFFFFFFFFFFFFFFFFFFFFFFFFFFFFFF98
:10285000FFFFFFFFFFFFFFFFFFFFFFFFBEFF3BF795
:10286000AB8B678B07ACE9CC28DD68E567DD88E5D5
:10287000A9E569DD49D52AD50AD5EBC42D9437CE13
:10288000DEFFDEFFFFFFFFFFFFFFFFFFFFFFFFFF9A
:10289000FFFFFFFFFFFFFFFFFFFFFFFFFFFFFFFF48
:1028A000FFFFFFFFFFFFFFFFFFFFFFFFFFFFFFFF38
:1028B000FFFFFFFFFFFFFFFFFFFFFFFFFFFFFFFF28
:1028C000FFFF7CF78B83AA8BA89B89BC48BC88C47C
:1028D00009CD2ACD0ACDEAC4EAC42BC50BC5CCB4B8
:1028E0000D8CD6BDFEFFDEFFFFFFFFFFFFFFFFFFEA
:1028F000FFFFFFFFFFFFFFFFFFFFFFFFFFFFFFFFE8
:10290000FFFFFFFFFFFFFFFFFFFFFFFFFFFFFFFFD7
:10291000FFFFFFFFFFFFFFFFFFFFFFFFFFFFFFFFC7
:10292000FFFFFFFFBEF779CE2B6B4E9CAEB46FCD91
:102930004ECD8FD56FD5AFD5B0D5D0CD12DE53E605
:1029400011DE70C5AC7B33ADFEFFDEFFFFFFFFFF86
:10295000FFFFFFFFFFFFFFFFFFFFFFFFFFFFFFFF87
:10296000FFFFFFFFFFFFFFFFFFFFFFFFFFFFFFFF77
:10297000FFFFFFFFFFFFFFFFFFFFFFFFFFFFFFFF67
:10298000FFFFFFFFFFFFFFFFFFF799C6CE7B32ADD2
:10299000D4CD76E618FFDBFF59FFBBFFDBFFBBFFA3
:1029A000DBFFFBFF58F796DE4B6B7094DEFFBDF745
:1029B000FFFFDFFFFFFFFFFFFFFFFFFFFFFFFFFF47
:1029C000FFFFFFFFFFFFFFFFFFFFFFFFFFFFFFFF17
:1029D000FFFFFFFFFFFFFFFFFFFFFFFFFFFFFFFF07
:1029E000FFFFFFFFFFFFFFFFFFFFFFFFFFF77ABEC5
:1029F000EF73718C50948D8370A474C5F6D558D63E
:102A000058D6D6BD94B5B4B552ADB0944B6B4F8C7F
:102A1000FEFFBEF7FFFFDFFFFFFFFFFFFFFFFFFF30
:102A2000FFFFFFFFFFFFFFFFFFFFFFFFFFFFFFFFB6
:102A3000FFFFFFFFFFFFFFFFFFFFFFFFFFFFFFFFA6
:102A4000FFFFFFFFFFFFFFFFFFFFFFFFFFFFFFFF96
:102A5000FFF79AC6D39434A59194695ACB6A6D7BDB
:102A60003094729C518C8E734C63AD73EE7BCD733E
:102A70008D73708CFFFFFFFFFFFFDFFFFFFFFFFF86
:102A8000FFFFFFFFFFFFFFFFFFFFFFFFFFFFFFFF56
:102A9000FFFFFFFFFFFFFFFFFFFFFFFFFFFFFFFF46
:102AA000FFFFFFFFFFFFFFFFFFFFFFFFFFFFFFFF36
:102AB000FFFFFFFFFFFFBEEFDBD696B591940F84BB
:102AC0002F8C7094B5BD58D678D695B513A554AD56
:102AD00074AD34A5B6BDFBDEFFFFFFFFFFFFFFFFB8
:102AE000FFFFBEF7FFFFFFFFFFFFFFFFFFFFFFFF3F
:102AF000FFFFFFFFFFFFFFFFFFFFFFFFFFFFFFFFE6
:102B0000FFFFFFFFFFFFFFFFFFFFFFFFFFFFFFFFD5
:102B1000FFFFFFFFFFFFFFFFBEF7DFF7DFFFBEF79F
:102B20007DEF7CEF9DF7DDFFFAE67CF79CF73BEF4E
:102B30005CEFBDFFFEFFBEFF7DEFFFFFFFFFFFFF6E
:102B4000DFFFFFFFFFFFDFFFFFFFFFFFFFFFFFFFD5
:102B5000FFFFFFFFFFFFFFFFFFFFFFFFFFFFFFFF85
:102B6000FFFFFFFFFFFFFFFFFFFFFFFFFFFFFFFF75
:102B7000FFFFFFFFFFFFFFFFFFFFFFFFFFFFFFFF65
:102B8000FFFFFFFFFFFFFFFFFFFFFFFFFFFFFFFF55
:102B9000FFFFFFFFFFFFFFFFFFFFFFFFFFFFFFFF45
:102BA000FFFFFFFFFFFFFFFFFFFFFFFFFFFFFFFF35
:102BB000FFFFFFFFFFFFFFFFFFFFFFFFFFFFFFFF25
:102BC000FFFFFFFFFFFFFFFFFFFFFFFFFFFFFFFF15
:102BD000FFFFFFFFFFFFFFFFFFFFDEF7FFFFFFFF2E
:102BE000FFFFFFFFFFFFFFFFFFFFFFFFFFFFFFFFF5
:102BF000FFFFFFFFFFFFFFFFFFFFFFFFFFFFFFFFE5
:102C0000FFFFDFFFFFFFFFFFFFFFFFFFFFFFFFFFF4
:102C1000FFFFFFFFFFFFFFFFFFFFFFFFFFFFFFFFC4
:102C2000FFFFFFFFFFFFFFFFFFFFFFFFFFFFFFFFB4
:102C3000FFFFFFFFFFFFFFFFFFFFFFFFFFFFFFFFA4
:102C4000FFFFFFFFFFFFFFFFFFFFFFFFFFFFFFFF94
:102C5000FFFFFFFFFFFFFFFFFFFFFFFFFFFFFFFF84
:102C6000FFFFFFFFFFFFFFFFDFFFFFFFFFFFFFFF94
:102C7000FFFFFFFFFFFFFFFFFFFFFFFFFFFFFFFF64
:102C8000FFFFFFFFFFFFFFFFFFFFFFFFFFFFFFFF54
:102C9000FFFFFFFFFFFFFFFFFFFFFFFFFFFFFFFF44
:102CA000FFFFFFFFFFFFFFFFFFFFFFFFFFFFFFFF34
:102CB000FFFFFFFFFFFFFFFFFFFFFFFFFFFFFFFF24
:102CC000FFFFFFFFFFFFFFFFFFFFFFFFFFFFFFFF14
:102CD000FFFFFFFFFFFFFFFFFFFFFFFFFFFFFFFF04
:102CE000FFFFFFFFFFFFFFFFDEF7FFFFFFFFFFFF1D
:102CF000FFFFFFFFFFFFFFFFFFFFFFFFFFFFFFFFE4
:102D0000FFFFFFFFFFFFFFFFFFFFFFFFFFFFFFFFD3
:102D1000FFFFFFFFFFFFFFFFFFFFFFFFFFFFFFFFC3
:102D2000FFFFFFFFFFFFFFFFFFFFFFFFFFFFFFFFB3
:102D30009EEF1CDF5DE7FFFFFFFFFFFFFFFFFFFFD1
:102D4000FFFFFFFFFFFFFFFFFFFFFFFFFFFFFFFF93
:102D5000FFFFFFFFFFFFFFFFFFFFFFFFFFFFFFFF83
:102D6000FFFFFFFFFFFFFFFFFFFFFFFFFFFFFFFF73
:102D7000FFFFFFFFFFFFFFFFFFFFFFFFFFFFFFFF63
:102D8000FFFFFFFFFFFFFFFFFFFFFFFFFFFFFFFF53
:102D9000FFFFFCDE51846E6B4D63D394BFF7FFFFE2
:102DA000FFFFFFFFFFFFFFFFFFFFFFFFFFFFFFFF33
:102DB000FFFFFFFFFFFFFFFFFFFFFFFFFFFFFFFF23
:102DC000FFFFFFFFFFFFFFFFFFFFFFFFFFFFFFFF13
:102DD000FFFFFFFFFFFFFFFFFFFFFFFFFFFFFFFF03
:102DE000FFFFFFFFFFFFFFFFFFFFFFFFFFFFFFFFF3
:102DF000FFFFFFFFFFF772846E6B928C2D638A4A90
:102E0000F7BDFFFFFFFFFFFFFFFFFFFFFFFFFFFF1C
:102E1000FFFFFFFFFFFFFFFFFFFFFFFFFFFFFFFFC2
:102E2000FFFFFFFFFFFFFFFFFFFFFFFFFFFFFFFFB2
:102E3000FFFFFFFFFFFFFFFFFFFFFFFFFFFFFFFFA2
:102E4000FFFFFFFFFFFFFFFFFFFFFFFFFFFFFFFF92
:102E5000FFFFFFFFFFFFFFFF18BE8E6BCF739EEFDC
:102E600055A52C6335A5FFFFFFFFFFFFFFFFFFFF09
:102E7000FFFFFFFFFFFFFFFFFFFFFFFFFFFFFFFF62
:102E8000FFFFFFFFFFFFFFFFFFFFFFFFFFFFFFFF52
:102E9000FFFFFFFFFFFFFFFFFFFFFFFFFFFFFFFF42
:102EA000FFFFFFFFFFFFFFFFFFFFFFFFFFFFFFFF32
:102EB000FFFFFFFFFFFFDFFFFFFF9EEF31846D632A
:102EC000D7B5FFFF728C318418BEFFFFFFFFFFFFF5
:102ED000FFFFFFFFFFFFFFFFFFFFFFFFFFFFFFFF02
:102EE000FFFFFFFFFFFFFFFFFFFFFFFFFFFFFFFFF2
:102EF000FFFFFFFFFFFFFFFFFFFFFFFFFFFFFFFFE2
:102F0000FFFFFFFFFFFFFFFFFFFFFFFFFFFFFFFFD1
:102F1000FFFFFFFFFFFFFFFFDFFFFFFFFFFF96AD9C
:102F20006E6B5184DFF7F8B50C5BCF735DEFFFFF7D
:102F3000FFFFFFFFFFFFFFFFFFFFFFFFFFFFFFFFA1
:102F4000FFFFFFFFFFFFFFFFFFFFFFFFFFFFFFFF91
:102F5000FFFFFFFFFFFFFFFFFFFFFFFFFFFFFFFF81
:102F6000FFFFFFFFFFFFFFFFFFFFFFFFFFFFFFFF71
:102F7000FFFFFFFFFFFFFFFFFFFFDFFFFFFFFFFF81
:102F80003CE7CF736E6B59C69EEFAF736E6B18BE86
:102F9000FFFFDFFFFFFFFFFFFFFFFFFFFFFFFFFF61
:102FA000FFFFFFFFFFFFFFFFFFFFFFFFFFFFFFFF31
:102FB000FFFFFFFFFFFFFFFFFFFFFFFFFFFFFFFF21
:102FC000FFFFFFFFFFFFFFFFFFFFFFFFFFFFFFFF11
:102FD000FFFFFFFFFFFFFFFFFFFFFFFFDFFFFFFF21
:102FE000FFFFFFFF34A56E6B928CFFFF55A56E6B44
:102FF000928CBFF7FFFFFFFFFFFFFFFFFFFFFFFF09
:10300000FFFFFFFFFFFFFFFFFFFFFFFFFFFFFFFFD0
:10301000FFFFFFFFFFFFFFFFFFFFFFFFFFFFFFFFC0
:10302000FFFFFFFFFFFFFFFFFFFFFFFFFFFFFFFFB0
:10303000FFFFFFFFFFFFFFFFFFFFFFFFFFFFFFFFA0
:10304000FFFFDFFFFFFFDBD6AF73AF731CDF1CDFBB
:10305000AF73EF7B7ACEFFFFFFFFFFFFFFFFFFFFA6
:10306000FFFFFFFFFFFFFFFFFFFFFFFFFFFFFFFF70
:10307000FFFFFFFFFFFFFFFFFFFFFFFFFFFFFFFF60
:10308000FFFFFFFFFFFFFFFFFFFFFFFFFFFFFFFF50
:10309000FFFFFFFFFFFFFFFFFFFFFFFFFFFFFFFF40
:1030A000FFFFFFFFFFFFDFFFFFFFD3946E6B55A510
:1030B000FFFFF49CF07B34A5FFFFFFFFFFFFFFFF46
:1030C000FFFFFFFFFFFFFFFFFFFFFFFFFFFFFFFF10
:1030D000FFFFFFFFFFFFFFFFFFFFFFFFFFFFFFFF00
:1030E000FFFFFFFFFFFFFFFFFFFFFFFFFFFFFFFFF0
:1030F000FFFFFFFFFFFFFFFFFFFFFFFFFFFFFFFFE0
:10310000FFFFFFFFFFFFFFFFDFFFFFFF59C68E6BD3
:1031100051847EEF9ACE51849294FCDEDFFFFFFF54
:10312000FFFFFFFFFFFFFFFFFFFFFFFFFFFFFFFFAF
:10313000FFFFFFFFFFFFFFFFFFFFFFFFFFFFFFFF9F
:10314000FFFFFFFFFFFFFFFFFFFFFFFFFFFFFFFF8F
:10315000FFFFFFFFFFFFFFFFFFFFFFFFFFFFFFFF7F
:10316000FFFFFFFFFFFFFFFFFFFFFFFFFFFF9EF7D8
:10317000928C107CF8BDDFF7149DF39CB7B5FFFF70
:10318000FFFFFFFFDFFFFFFFFFFFFFFFFFFFFFFF6F
:10319000FFFFFFFFFFFFFFFFFFFFFFFFFFFFFFFF3F
:1031A000FFFFFFFFFFFFFFFFFFFFFFFFFFFFFFFF2F
:1031B000FFFFFFFFFFFFFFFFFFFFFFFFFFFFFFFF1F
:1031C000FFFFFFFFFFFFFFFFFFFFFFFFFFFFFFFF0F
:1031D000FFFFF7BD3084D394DFF759C676AD55AD08
:1031E0003CE7FFFFFFFFFFFFFFFFFFFFFFFFFFFFCA
:1031F000FFFFFFFFFFFFFFFFFFFFFFFFFFFFFFFFDF
:10320000FFFFFFFFFFFFFFFFFFFFFFFFFFFFFFFFCE
:10321000FFFFFFFFFFFFFFFFFFFFFFFFFFFFFFFFBE
:10322000FFFFFFFFFFFFFFFFFFFFFFFFFFFFFFFFAE
:10323000FFFFFFFF5CE7D294B39479CE7EEFF7BD3A
:10324000F7BD18C6FFFFFFFFFFFFFFFFFFFFFFFFF8
:10325000FFFFFFFFFFFFFFFFFFFFFFFFFFFFFFFF7E
:10326000FFFFFFFFFFFFFFFFFFFFFFFFFFFFFFFF6E
:10327000FFFFFFFFFFFFFFFFFFFFFFFFFFFFFFFF5E
:10328000FFFFFFFFFFFFFFFFFFFFFFFFFFFFFFFF4E
:10329000FFFFFFFFFFFFDFFFF7BD55AD75ADBEF7C9
:1032A0009ACE9ACE96B55DEFFFFFFFFFFFFFFFFFBF
:1032B000FFFFFFFFFFFFFFFFFFFFFFFFFFFFFFFF1E
:1032C000FFFFFFFFFFFFFFFFFFFFFFFFFFFFFFFF0E
:1032D000FFFFFFFFFFFFFFFFFFFFFFFFFFFFFFFFFE
:1032E000FFFFFFFFFFFFFFFFFFFFFFFFFFFFFFFFEE
:1032F000FFFFFFFFFFFFFFFFFFFFFBDEF7BD96AD08
:10330000BAD67DEF9ACE18BE38C6FFFFDFFFFFFFAB
:10331000FFFFFFFFFFFFFFFFFFFFFFFFFFFFFFFFBD
:10332000FFFFFFFFFFFFFFFFFFFFFFFFFFFFFFFFAD
:10333000FFFFFFFFFFFFFFFFFFFFFFFFFFFFFFFF9D
:10334000FFFFFFFFFFFFFFFFFFFFFFFFFFFFFFFF8D
:10335000FFFFFFFFFFFFFFFFFFFFFFFFDEF759CE7D
:1033600059CE95ADDEF7BAD6BAD675ADBEF7FFFF2A
:10337000FFFFFFFFFFFFFFFFFFFFFFFFFFFFFFFF5D
:10338000FFFFFFFFFFFFFFFFFFFFFFFFFFFFFFFF4D
:10339000FFFFFFFFFFFFFFFFFFFFFFFFFFFFFFFF3D
:1033A000FFFFFFFFFFFFFFFFFFFFFFFFFFFFFFFF2D
:1033B000FFFFFFFFFFFFFFFFFFFFFFFFFFFFFFFF1D
:1033C000FBDEBAD695ADFBDE5CE7DBD6B6B59ACEB2
:1033D000FFFFDFFFFFFFDFFFFFFFFFFFFFFFFFFF3D
:1033E000FFFFFFFFFFFFFFFFFFFFFFFFFFFFFFFFED
:1033F000FFFFFFFFFFFFFFFFFFFFFFFFFFFFFFFFDD
:10340000FFFFFFFFFFFFFFFFFFFFFFFFFFFFFFFFCC
:10341000FFFFFFFFFFFFFFFFFFFFFFFFFFFFFFFFBC
:10342000FFFF9EEFDBD659C695ADFFFF9ACE38C69B
:1034300075ADFFFFDFFFFFFFFFFFFFFFFFFFFFFF98
:10344000DFFFFFFFFFFFFFFFFFFFFFFFFFFFFFFFAC
:10345000FFFFFFFFFFFFFFFFFFFFFFFFFFFFFFFF7C
:10346000FFFFFFFFFFFFFFFFFFFFFFFFFFFFFFFF6C
:10347000FFFFFFFFFFFFFFFFFFFFFFFFFFFFFFFF5C
:10348000FFFFFFFFFFFFDBDEBAD6149D5DE7FBDE2B
:1034900038C6F39CFBDEFFFFFFFFFFFFFFFFFFFFD0
:1034A000FFFFFFFFFFFFFFFFFFFFFFFFFFFFFFFF2C
:1034B000FFFFFFFFFFFFFFFFFFFFFFFFFFFFFFFF1C
:1034C000FFFFFFFFFFFFFFFFFFFFFFFFFFFFFFFF0C
:1034D000FFFFFFFFFFFFFFFFFFFFFFFFFFFFFFFFFC
:1034E000FFFFFFFFFFFFFFFF7DEF79CE96ADD7B562
:1034F000DFF796AD34A595ADFFFFDFFFFFFFFFFFC0
:10350000FFFFFFFFFFFFFFFFFFFFFFFFFFFFFFFFCB
:10351000FFFFFFFFFFFFFFFFFFFFFFFFFFFFFFFFBB
:10352000FFFFFFFFFFFFFFFFFFFFFFFFFFFFFFFFAB
:10353000FFFFFFFFFFFFFFFFFFFFFFFFFFFFFFFF9B
:10354000DFFFFFFFFFFFFFFFFFFFFFFF59C696AD45
:10355000B294BFF718BED394928C7DEFFFFFFFFFAC
:10356000FFFFFFFFFFFFFFFFFFFFFFFFFFFFFFFF6B
:10357000FFFFFFFFFFFFFFFFFFFFFFFFFFFFFFFF5B
:10358000FFFFFFFFFFFFFFFFFFFFFFFFFFFFFFFF4B
:10359000FFFFFFFFFFFFFFFFFFFFFFFFFFFFFFFF3B
:1035A000FFFFFFFFFFFFFFFFFFFFDFFFFFFF3DE725
:1035B000149D518459C69EEF928C308417BEFFFF34
:1035C000FFFFFFFFFFFFFFFFFFFFFFFFFFFFFFFF0B
:1035D000FFFFFFFFFFFFFFFFFFFFFFFFFFFFFFFFFB
:1035E000FFFFFFFFFFFFFFFFFFFFFFFFFFFFFFFFEB
:1035F000FFFFFFFFFFFFFFFFFFFFFFFFFFFFFFFFDB
:10360000FFFFFFFFFFFFFFFFFFFFFFFFFFFFDFFFEA
:10361000FFFF55A53184D394FFFF55A5EF7B928C16
:10362000DEF7FFFFFFFFFFFFFFFFFFFFFFFFFFFFD3
:10363000FFFFFFFFFFFFFFFFFFFFFFFFFFFFFFFF9A
:10364000FFFFFFFFFFFFFFFFFFFFFFFFFFFFFFFF8A
:10365000FFFFFFFFFFFFFFFFFFFFFFFFFFFFFFFF7A
:10366000FFFFFFFFFFFFFFFFFFFFFFFFFFFFFFFF6A
:10367000DFFFFFFFBBD6107CAF731CDFDBD6EF7321
:10368000AF739ACEFFFFFFFFFFFFFFFFFFFFFFFFBC
:10369000FFFFFFFFFFFFFFFFFFFFFFFFFFFFFFFF3A
:1036A000FFFFFFFFFFFFFFFFFFFFFFFFFFFFFFFF2A
:1036B000FFFFFFFFFFFFFFFFFFFFFFFFFFFFFFFF1A
:1036C000FFFFFFFFFFFFFFFFFFFFFFFFFFFFFFFF0A
:1036D000FFFFDFF7FFFFDFF7B3948E6B55A5FFFF0A
:1036E000928C6E6B149DFFFFFFFFDFFFFFFFFFFF5C
:1036F000FFFFFFFFFFFFFFFFFFFFFFFFFFFFFFFFDA
:10370000FFFFFFFFFFFFFFFFFFFFFFFFFFFFFFFFC9
:10371000FFFFFFFFFFFFFFFFFFFFFFFFFFFFFFFFB9
:10372000FFFFFFFFFFFFFFFFFFFFFFFFFFFFFFFFA9
:10373000FFFFFFFFFFFFDFFFFFFF38C6AF73CF7351
:103740009EEF39C66D63CF733DE7FFFFDFFFFFFFDD
:10375000DFFFFFFFFFFFFFFFFFFFFFFFFFFFFFFF99
:10376000FFFFFFFFFFFFFFFFFFFFFFFFFFFFFFFF69
:10377000FFFFFFFFFFFFFFFFFFFFFFFFFFFFFFFF59
:10378000FFFFFFFFFFFFFFFFFFFFFFFFFFFFFFFF49
:10379000FFFFFFFFFFFFFFFFFFFFDFF7BEF73184F3
:1037A0006E6BB7B5DFF7107C4D6396ADFFFFFFFF83
:1037B000FFFFFFFFFFFFDFFFFFFFFFFFFFFFFFFF39
:1037C000FFFFFFFFFFFFFFFFFFFFFFFFFFFFFFFF09
:1037D000FFFFFFFFFFFFFFFFFFFFFFFFFFFFFFFFF9
:1037E000FFFFFFFFFFFFFFFFFFFFFFFFFFFFFFFFE9
:1037F000DFFFFFFFDFFFFFFF38C6B6B5DFFFFFFFCC
:1038000055A58E6B928CFFFFB7AD2D63107C7EEFBC
:10381000FFFFFFFFFFFFFFFFFFFFFFFFFFFFFFFFB8
:10382000FFFFFFFFFFFFFFFFFFFFFFFFFFFFFFFFA8
:10383000FFFFFFFFFFFFFFFFFFFFFFFFFFFFFFFF98
:10384000FFFFFFFFFFFFFFFFFFFFFFFFFFFFFFFF88
:10385000FFFFDEFFFFFFDFFFFFFF7DEFA631400030
:10386000C73131846E6B2D5B928C5DE78E6B4D633F
:1038700018BEFFFFFFFFDFFFFFFFFFFFFFFFFFFFA0
:10388000FFFFFFFFFFFFFFFFFFFFFFFFFFFFFFFF48
:10389000FFFFFFFFFFFFFFFFFFFFFFFFFFFFFFFF38
:1038A000FFFFFFFFFFFFFFFFFFFFFFFFFFFFFFFF28
:1038B000FFFFDEFFFEFFFFFFFFFFDFFFFFFFFFFF5A
:1038C000CA5A65296208E318CF73318449426A4AAB
:1038D0004D63928CBFF7FFFFDFFFFFFFFFFFFFFF8E
:1038E000FFFFFFFFFFFFFFFFFFFFFFFFFFFFFFFFE8
:1038F000FFFFFFFFFFFFFFFFFFFFFFFFFFFFFFFFD8
:10390000FFFFFFFFFFFFFFFFFFFFFFFFFFFFFFFFC7
:10391000FFFFFFFFDEFF3BE7B9D63BE77CEFFFFF92
:10392000FFFF38C64529E7392842083AC731928C4B
:10393000F49C8E6BCB52F49CFFFFFFFFFFFFDFFF79
:10394000FFFFFFFFFFFFFFFFFFFFFFFFFFFFFFFF87
:10395000FFFFFFFFFFFFFFFFFFFFFFFFFFFFFFFF77
:10396000FFFFFFFFFFFFFFFFFFFFFFFFFFFFFFFF67
:10397000FFFFFFFFDFFFFFFF7CEFFADEFADE7CEFE9
:10398000AA526D6B9ACE8A522421073A073A4842CE
:10399000694A2842E8394D636942928CFFFFDFFF94
:1039A000FFFFFFFFFFFFFFFFFFFFFFFFFFFFFFFF27
:1039B000FFFFFFFFFFFFFFFFFFFFFFFFFFFFFFFF17
:1039C000FFFFFFFFFFFFFFFFFFFFFFFFFFFFFFFF07
:1039D000FFFFFFFFFFFFFFFFFFFFDEFF1AE73AE7F2
:1039E000FDFFD9DE6429C318C3184529E739073A12
:1039F0002842494A694A694A083AA629C31045211A
:103A000038C6FFFFDFFFFFFFFFFFFFFFFFFFFFFFE6
:103A1000FFFFFFFFFFFFFFFFFFFFFFFFFFFFFFFFB6
:103A2000FFFFFFFFFFFFFFFFFFFFFFFFFFFFFFFFA6
:103A3000FFFFFFFFFFFFFFFFFFFFFFFFFFFFFEFF97
:103A40003BE73BE7FEFFCD736529C739A631C73198
:103A5000073A083A2842894A4942083A083AE7317F
:103A600045216208610855ADFFFFDFFFFFFFFFFF43
:103A7000DFFFFFFFFFFFFFFFFFFFFFFFFFFFFFFF76
:103A8000FFFFFFFFFFFFFFFFFFFFFFFFFFFFFFFF46
:103A9000FFFFFFFFFFFFFFFFFFFFFFFFFFFFFFFF36
:103AA000FFFFFFFFDEFFDDF753A5E2188529A631F2
:103AB000C731E739083A4942694A694A694A28429E
:103AC000C731A629A63186292000AA52FFFFDFFFB1
:103AD000FFFFFFFFFFFFFFFFFFFFFFFFFFFFFFFFF6
:103AE000FFFFFFFFFFFFFFFFFFFFFFFFFFFFFFFFE6
:103AF000FFFFFFFFFFFFFFFFFFFFFFFFFFFFFFFFD6
:103B0000FFFFFFFFFFFFFFFFFFFFFFFF1BDFF39C38
:103B1000073A6529073A083A28424942894A694AD8
:103B20002842C731C731A6314521E31834A57DEFBE
:103B3000FFFFDFFFFFFFFFFFFFFFFFFFFFFFFFFFB5
:103B4000FFFFFFFFFFFFFFFFFFFFFFFFFFFFFFFF85
:103B5000FFFFFFFFFFFFFFFFFFFFFFFFFFFFFFFF75
:103B6000FFFFFFFFFFFFFFFFFFFFFFFFFFFFFFFF65
:103B7000FFFFFFFF7DEF894AA63128422842694AAC
:103B8000694A48422842E7398629A63182086E6B85
:103B9000FFFFFFFFFFFFFFFFFFFFDFFFFFFFFFFF55
:103BA000FFFFFFFFFFFFFFFFFFFFFFFFFFFFFFFF25
:103BB000FFFFFFFFFFFFFFFFFFFFFFFFFFFFFFFF15
:103BC000FFFFFFFFFFFFFFFFFFFFFFFFFFFFFFFF05
:103BD000FFFFFFFFDFFFDFFFFFFF6D6B24212842A8
:103BE00028424942694A0842C739A6318629242118
:103BF00024211CE7DFFFDFFFFFFFFFFFFFFFFFFFC9
:103C0000FFFFFFFFFFFFFFFFFFFFFFFFFFFFFFFFC4
:103C1000FFFFFFFFFFFFFFFFFFFFFFFFFFFFFFFFB4
:103C2000FFFFFFFFFFFFFFFFFFFFFFFFFFFFFFFFA4
:103C3000FFFFFFFFFFFFFFFFFFFFDFFFFFFF54A5B9
:103C4000E3180842083A2842073A073AA631A63153
:103C500086298208F39CFFFFFFFFFFFFFFFFDFFFC6
:103C6000FFFFFFFFFFFFFFFFFFFFFFFFFFFFFFFF64
:103C7000FFFFFFFFFFFFFFFFFFFFFFFFFFFFFFFF54
:103C8000FFFFFFFFFFFFFFFFFFFFFFFFFFFFFFFF44
:103C9000FFFFFFFFFFFFFFFFFFFFFFFFFFFFFFFF34
:103CA000DFFFBFF76A4A44212842E739E739A631E6
:103CB000C731A6318210EB5ADFFFFFFFFFFFFFFF86
:103CC000FFFFFFFFFFFFFFFFFFFFFFFFFFFFFFFF04
:103CD000FFFFFFFFFFFFFFFFFFFFFFFFFFFFFFFFF4
:103CE000FFFFFFFFFFFFFFFFFFFFFFFFFFFFFFFFE4
:103CF000FFFFFFFFFFFFFFFFFFFFFFFFFFFFFFFFD4
:103D0000FFFFFFFFFFFFFFFFDBDEC7392421C631C6
:103D1000E739A6314529A210494A7DEFFFFFFFFF91
:103D2000FFFFFFFFFFFFFFFFFFFFFFFFFFFFFFFFA3
:103D3000FFFFFFFFFFFFFFFFFFFFFFFFFFFFFFFF93
:103D4000FFFFFFFFFFFFFFFFFFFFFFFFFFFFFFFF83
:103D5000FFFFFFFFFFFFFFFFFFFFFFFFFFFFFFFF73
:103D6000FFFFFFFFFFFFDFFFFFFFDFFFFFFF1CE79E
:103D70004D6B863124212421C73150849EF7FFFFEB
:103D8000FFFFFFFFFFFFFFFFDFFFFFFFFFFFFFFF63
:103D9000FFFFFFFFFFFFFFFFFFFFFFFFFFFFFFFF33
:103DA000FFFFFFFFFFFFFFFFFFFFFFFFFFFFFFFF23
:103DB000FFFFFFFFFFFFFFFFFFFFFFFFFFFFFFFF13
:103DC000FFFFFFFFFFFFFFFFFFFFFFFFFFFFFFFF03
:103DD000DFFFFFFFFFFF1CE779CEBAD69EEFFFFFA4
:103DE000FFFFFFFFFFFFFFFFFFFFFFFFFFFFFFFFE3
:103DF000FFFFFFFFFFFFFFFFFFFFFFFFFFFFFFFFD3
:103E0000FFFFFFFFFFFFFFFFFFFFFFFFFFFFFFFFC2
:103E1000FFFFFFFFFFFFFFFFFFFFFFFFFFFFFFFFB2
:103E2000FFFFFFFFFFFFFFFFFFFFFFFFFFFFFFFFA2
:103E3000FFFFFFFFFFFFFFFFFFFFFFFFFFFFFFFF92
:103E4000FFFFFFFFFFFFFFFFFFFFFFFFFFFFFFFF82
:103E5000FFFFFFFFFFFFFFFFFFFFFFFFDEF7FFFF9B
:103E6000FFFFFFFFFFFFFFFFFFFFFFFFFFFFFFFF62
:103E7000FFFFFFFFFFFFFFFFFFFFFFFFFFFFFFFF52
:103E8000FFFFFFFFFFFFFFFFFFFFFFFFFFFFFFFF42
:103E9000FFFFFFFFFFFFFFFFFFFFFFFFFFFFFFFF32
:103EA000DFFFFFFFFFFFFFFFFFFFFFFFFFFFFFFF42
:103EB000FFFFFFFFFFFFFFFFFFFFFFFFFFFFFFFF12
:103EC000FFFFFFFFFFFFFFFFFFFFFFFFFFFFFFFF02
:103ED000FFFFFFFFFFFFFFFFFFFFFFFFFFFFFFFFF2
:103EE000FFFFFFFFFFFFFFFFFFFFFFFFFFFFFFFFE2
:103EF000FFFFFFFFFFFFFFFFFFFFFFFFFFFFFFFFD2
:103F000059D6108C6D732C6BAA5AAA5AAA5A8D7B5B
:103F1000CE8313ADFBE6FFFFFFFFFFFFFFFFFFFFB9
:103F2000FFFFFFFFFFFFFFFFFFFFFFFFFFFFFFFFA1
:103F3000FFFFFFFFFFFFFFFFFFFFFFFFFFFFFFFF91
:103F4000FFFFFFFFFFFFFFFFFFFFFFFFFFFFFFFF81
:103F5000FFFFFFFFFFFFFFFFFFFFFFFFFFFFFFFF71
:103F6000FFFFFFFFEF834852308C8E7BC32062102F
:103F7000A2184852AA62074A518CFFFFDFFFFFFFD9
:103F8000FFFFFFFFFFFFFFFFFFFFFFFFFFFFFFFF41
:103F9000FFFFFFFFFFFFFFFFFFFFFFFFFFFFFFFF31
:103FA000FFFFFFFFFFFFFFFFFFFFFFFFFFFFFFFF21
:103FB000FFFFFFFFFFFFFFFFFFFFFFFFFFFFFFFF11
:103FC000FFFFFFFFFFFFFFFFAE7B29525194108CD4
:103FD00082100000410829528A5AC6411084FFFF0E
:103FE000FFFFFFFFFFFFFFFFFFFFFFFFFFFFFFFFE1
:103FF000FFFFFFFFFFFFFFFFFFFFFFFFFFFFFFFFD1
:10400000FFFFFFFFFFFFFFFFFFFFFFFFFFFFFFFFC0
:10401000FFFFFFFFFFFFFFFFFFFFFFFFFFFFFFFFB0
:10402000FFFFFFFFFFFFFFFFDFFFFFFF8E7B6952F8
:104030007194108CA218000082106952CA62C741A4
:10404000108CFFFFDFFFFFFFFFFFFFFFFFFFFFFF02
:10405000FFFFFFFFFFFFFFFFFFFFFFFFFFFFFFFF70
:10406000FFFFFFFFFFFFFFFFFFFFFFFFFFFFFFFF60
:10407000FFFFFFFFFFFFFFFFFFFFFFFFFFFFFFFF50
:10408000FFFFFFFFFFFFFFFFFFFFFFFFFFFFDFFF60
:104090002C6B295251940C63210800006110695265
:1040A0000B6BC641AE7BDEFFFFFFFFFFFFFFFFFF95
:1040B000FFFFFFFFFFFFFFFFFFFFFFFFFFFFFFFF10
:1040C000FFFFFFFFFFFFFFFFFFFFFFFFFFFFFFFF00
:1040D000FFFFFFFFFFFFFFFFFFFFFFFFFFFFFFFFF0
:1040E000FFFFFFFFFFFFFFFFFFFFFFFFFFFFFFFFE0
:1040F000B6BDEB62284A084A2C6BE741410821080B
:1041000041084529C739A63949528D73B6BDFFFF0D
:10411000FFFFFFFFFFFFFFFFFFFFFFFFFFFFFFFFAF
:10412000FFFFFFFFFFFFFFFFFFFFFFFFFFFFFFFF9F
:10413000FFFFFFFFFFFFFFFFFFFFFFFFFFFFFFFF8F
:10414000FFFFFFFFFFFFFFFFFFFFFFFFFFFFFFFF7F
:10415000DFFFFFFF308C2429E7414852AA5A04218F
:1041600021084108210800004108A639C641084A33
:10417000D39CFFFFDFFFFFFFFFFFFFFFFFFFFFFFFE
:10418000FFFFFFFFFFFFFFFFFFFFFFFFFFFFFFFF3F
:10419000FFFFFFFFFFFFFFFFFFFFFFFFFFFFFFFF2F
:1041A000FFFFFFFFFFFFFFFFFFFFFFFFFFFFFFFF1F
:1041B000FFFFFFFFDFFFFFFF92948539C7412852C1
:1041C000AA5A042100002108410821088210A639BA
:1041D000C6414952F3A4FFFFDFFFFFFFFFFFFFFFD0
:1041E000FFFFFFFFFFFFFFFFFFFFFFFFFFFFFFFFDF
:1041F000FFFFFFFFFFFFFFFFFFFFFFFFFFFFFFFFCF
:10420000FFFFFFFFFFFFFFFFFFFFFFFFFFFFFFFFBE
:10421000FFFFFFFFFFFFFFFFDFFFFFFF508C453178
:10422000E7414852AA5A04212108210821082108FF
:104230006210A639E741084AB29CFFFFDFFFFFFF8B
:10424000FFFFFFFFFFFFFFFFFFFFFFFFFFFFFFFF7E
:10425000FFFFFFFFFFFFFFFFFFFFFFFFFFFFFFFF6E
:10426000FFFFFFFFFFFFFFFFFFFFFFFFFFFFFFFF5E
:10427000FFFFFFFFFFFFFFFFFFFFFFFFFFFFFFFF4E
:1042800018C6E7416539C749E751A3280010001057
:1042900000100010201825398641CA6238CEFFFF71
:1042A000FFFFFFFFFFFFFFFFFFFFFFFFFFFFFFFF1E
:1042B000FFFFFFFFFFFFFFFFFFFFFFFFFFFFFFFF0E
:1042C000FFFFFFFFFFFFFFFFFFFFFFFFFFFFFFFFFE
:1042D000FFFFFFFFFFFFFFFFFFFFFFFFFFFFFFFFEE
:1042E000FFFFDFFFFFFFB2A46549665125598348F0
:1042F00041388348A348E45004596661C759D7CD73
:10430000FFFFDFFFFFFFFFFFFFFFFFFFFFFFFFFFDD
:10431000FFFFFFFFFFFFFFFFFFFFFFFFFFFFFFFFAD
:10432000FFFFFFFFFFFFFFFFFFFFFFFFFFFFFFFF9D
:10433000FFFFFFFFFFFFFFFFFFFFFFFFFFFFFFFF8D
:10434000FFFFFFFFFFFFFFFFDFFFBEFF38EE6EAB9B
:10435000EDAAA8894681678966898789E89149928B
:1043600076DD9EFFBFFFFFFFFFFFFFFFFFFFFFFFA9
:10437000FFFFFFFFFFFFFFFFFFFFFFFFFFFFFFFF4D
:10438000FFFFFFFFFFFFFFFFFFFFFFFFFFFFFFFF3D
:10439000FFFFFFFFFFFFFFFFFFFFFFFFFFFFFFFF2D
:1043A000FFFFFFFFFFFFFFFFFFFFFFFFDFFFDFFF5D
:1043B000F8F54EC38FDB09BA87A988A987A94ABA3D
:1043C0008BC2ECB2DBFEBFFFDFFFFFFFFFFFFFFF93
:1043D000FFFFFFFFFFFFFFFFFFFFFFFFFFFFFFFFED
:1043E000FFFFFFFFFFFFFFFFFFFFFFFFFFFFFFFFDD
:1043F000FFFFFFFFFFFFFFFFFFFFFFFFFFFFFFFFCD
:10440000FFFFFFFFFFFFFFFFFFFFFFFFFFFFFFFFBC
:10441000DFFF9EFF72D44ED3CCD20ACAC9C1C9C134
:10442000E9C14ACA4AC22AAA51CC79FE3CFF7EFFA2
:10443000DFFFDFFFDFFFDFFFFFFFFFFFFFFFFFFF0C
:10444000FFFFFFFFFFFFFFFFFFFFFFFFFFFFFFFF7C
:10445000FFFFFFFFFFFFFFFFFFFFFFFFFFFFFFFF6C
:10446000FFFFFFFFFFFFFFFFFFFFFFFFFFFFDFFF7C
:10447000DFFF5DFFFCFE59FE11DCCCCA4AC22ACA2E
:104480002ACA4ACACCDA6BCA09C209BAABBAAFCBDC
:1044900072D4D3D492CCB3CC55DD18E63CF7FFFFF1
:1044A000FFFFFFFFFFFFFFFFFFFFFFFFFFFFFFFF1C
:1044B000FFFFFFFFFFFFFFFFFFFFFFFFFFFFFFFF0C
:1044C000FFFFFFFFFFFFFFFFFFFFFFFFFFFFFFFFFC
:1044D000FFFFDFFF9AF672BC31C431D48FD3CCC258
:1044E0008BC28BC2ABCAECDA6BCA09C209C209C261
:1044F0004AC2ACC26ED351E4B3EC51D431CCF0B368
:1045000096DD9EFFDEFFDFFFDFFFFFFFDFFFFFFF28
:10451000FFFFFFFFFFFFFFFFFFFFFFFFFFFFFFFFAB
:10452000FFFFFFFFFFFFFFFFFFFFFFFFFFFFFFFF9B
:10453000FFFFDFFFFFFFDFFF35D5AFBBF0D38FCB32
:104540006ED30DC3D0D3F0DB0CCB09BA2AC22ACA72
:104550002ACA2ACA2AC24AC24ABAABC28FD372EC4A
:10456000B3F4D4ECB3DCB3D455E5F7ED9AFE7DFF9C
:10457000DFFFDFFFFFFFFFFFFFFFFFFFFFFFFFFF8B
:10458000FFFFFFFFFFFFFFFFFFFFFFFFFFFFFFFF3B
:10459000FFFFFFFFFFFFFFFFDEFF7DFFF4CCF0BB5F
:1045A0008EBB4DB3ECB2ABA2F0C3AB9A29A229B239
:1045B000ECD2ACCAABCA8BCA8BCA8BCA8BCAACCA88
:1045C000CCCA4ED36ED34EC3AFC331CC31C451BC71
:1045D00051BCD3C438E69EFFDFFFFFFFFFFFFFFFA4
:1045E000FFFFFFFFFFFFFFFFFFFFFFFFFFFFFFFFDB
:1045F000FFFFFFFFFFFFFFFFF3A46D73108C5194CB
:10460000B2AC51AC496A086A29720872087A6A9297
:10461000C8896AA2CBB2ECBA0DC32DCB0DD3ECD2B4
:10462000ECD2EDD20DD3ECCA2DCBCFCB6DABCB8A78
:104630006A7A6972AB822D93CFAB34D55DFFFFFFF1
:10464000FFFFFFFFFFFFFFFFFFFFFFFFFFFFFFFF7A
:10465000FFFFFFFFFFFFFFFFFFFFFFFF8D73C7415E
:10466000284A2852695ACB6A0C6B8A620852C75191
:10467000865166598669A771E879C779E8814A92B7
:10468000ECBA0DCB0DD30DDBCCCA2DCB2DB3E87915
:10469000A661C759E759696AC7598659E8710C93E9
:1046A000D3C45DFFDFFFFFFFFFFFFFFFFFFFFFFF43
:1046B000FFFFFFFFFFFFFFFFFFFFFFFFFFFFFFFF0A
:1046C000CE7B284A695A4852084A084A084AC741D4
:1046D000A641E749285A085249622862CB72CB7A30
:1046E0008A72287249928BB28BC28BBA0DC3CBA24D
:1046F0006659E7594C832C7B4C7BD2AC8962AA6A01
:1047000048620862EB8A55D5BFFFDFFFFFFFFFFF5E
:10471000FFFFFFFFFFFFFFFFFFFFFFFFFFFFFFFFA9
:10472000FFFFFFFFCE7BE7414952284A2852284A23
:104730004531C741A218084A48528639C741A639AF
:10474000A639A641A64145496A928ECBECC22DCB33
:10475000ABA245598649485A4C7B2C7389620C732D
:10476000074A0B6B0B73EB72A6614D939AEEDFFF5A
:10477000DFFFFFFFFFFFFFFFFFFFFFFFFFFFFFFF69
:10478000FFFFFFFFFFFFFFFFCE83E7414852284AAC
:10479000695203212429653145316952E741453188
:1047A000863986398639A639A7416549098A4DC3B4
:1047B0000DC3ECB26661A651A64128520B6BEB6AA1
:1047C000695AEB6AC6414852895AEB7265490862D8
:1047D000F3BCBEFFDFFFFFFFFFFFFFFFFFFFFFFF99
:1047E000FFFFFFFFFFFFFFFFFFFFFFFFCF83C7417B
:1047F0004852284A4952853141084108C318863930
:1048000008424529863186318631A63986392541C7
:10481000E8790DBB0DBBE8814549C749A639895ADE
:104820008A5A8639084A2852A639A641895A4852D6
:10483000C749A6514D931CFFDFFFFFFFFFFFFFFF9E
:10484000FFFFFFFFFFFFFFFFFFFFFFFFDFFFFFFF98
:10485000CF7BC6412852084A695269522429000078
:104860000000E320E741442965316531653186392F
:1048700085392541C7794DBBCBA24561E7596539DB
:10488000AA5A4952E749C7410429E7412C73C64156
:10489000695A285289624962297239EEDFFFDFFFC7
:1048A000FFFFFFFFFFFFFFFFFFFFFFFFFFFFFFFF18
:1048B000DFFFFFFFCF7BA639284A074A6952284A03
:1048C000452900000000C318284A44296531653194
:1048D000653165318639244186716EB3087A497233
:1048E0008D8B6952485228526539A64151946D7B8F
:1048F000C741AA62C741695A695A0C7BE76176D5FC
:10490000DFFFFFFFFFFFFFFFFFFFFFFFFFFFFFFFD7
:10491000FFFFFFFFFFFFFFFFCF83A639284A074AAB
:1049200028526952042100000000C318084245299A
:1049300065316531653145316531043986692DABA5
:104940000872AA72509C2C73895A2852653138D645
:10495000BEFFD6C58D7BA641C74185392852EB7273
:10496000C761F4C4DFFFFFFFFFFFFFFFFFFFFFFF93
:10497000FFFFFFFFFFFFFFFFDFFFFFFFCF83A63932
:10498000284A084A084AE741863100000000E3202F
:10499000C741452945294529452944294531043937
:1049A00066690CA328724862EE8BCA620B6B86396B
:1049B000EB627DF7B6C5D2A458D66539C741CB6244
:1049C000AA622C7BC761D3C4DFFFFFFFFFFFFFFF9D
:1049D000FFFFFFFFFFFFFFFFFFFFFFFFDFFFFFFF07
:1049E000CF838639084A084AA639AE7BE741A21828
:1049F00000004429C741452945294529242924295E
:104A0000242904396661EC9A076A2C7B13B5895A0C
:104A10002C73A641B2A4FBEEB2A438D658D6C64138
:104A2000C741CA6289620C7BA76114C5DFFFDFFF43
:104A3000FFFFFFFFFFFFFFFFFFFFFFFFFFFFFFFF86
:104A4000DFFFFFFFCF838639084A074AE741B6BD3B
:104A5000484A6531A218E741284A45294529452990
:104A6000242924292429E3306561EB9A286ACE930E
:104A700033B5AA62CA628539F3ACBAE696BDDBEEFD
:104A800014AD6539C6416539485A0C7BE86196D545
:104A9000DFFFFFFFFFFFFFFFFFFFFFFFFFFFFFFF46
:104AA000FFFFFFFFDFFFFFFFCF838639084AE7499B
:104AB000084A4852284AE741074A084A084A453105
:104AC00045294529452924292429C33065610C9BA2
:104AD000086ACE93D2ACEA6A695AC741284A55B5EA
:104AE000BAE618D649528539C741A641495ACB7210
:104AF00049727AEEFFFFFFFFFFFFFFFFFFFFFFFF9F
:104B0000FFFFFFFFFFFFFFFFDFFFFFFFEF838639A0
:104B1000074AE749084AE849E741E741C741E74111
:104B2000C741453145294529442924292531E33008
:104B300045612DA3E769EB7A91A42B736952695AF9
:104B40002431E7412C6BE7498639084A49528641AE
:104B5000495AC7512D8B5DFFDFFFFFFFFFFFFFFFAE
:104B6000FFFFFFFFFFFFFFFFFFFFFFFFFFFFFFFF55
:104B700010848639E749E749084AE849E741E741AF
:104B8000C741A639A6394531452924292429242994
:104B90004431C33045614DABE871286A4C7B6952A2
:104BA000695A695A8639A64145314852695A69524B
:104BB000895AA6418649A651F4BCDFFFDFFFFFFFFB
:104BC000FFFFFFFFFFFFFFFFFFFFFFFFFFFFFFFFF5
:104BD000DFFFFFFF10848639E749E741E741084AD4
:104BE000E741E741C741C641A6394529452924295E
:104BF000242904292429C33045690DB38A922559F3
:104C0000E7598539084AE7498639A641A641AA628B
:104C1000CB62CB628A62A6496549CB7ADBEEDFFFC5
:104C2000DFFFFFFFFFFFFFFFFFFFFFFFFFFFFFFFB4
:104C3000FFFFFFFFFFFFFFFF308CA639084AE74167
:104C4000074A074AE741C741C641A639863945297F
:104C500025292529242924292431C33866690CB340
:104C6000ECB286794449C74986418639084A0852D8
:104C700086418A5A8A5A074A485A8649C76114C5E2
:104C8000DFFFDFFFFFFFFFFFFFFFFFFFFFFFFFFF74
:104C9000FFFFFFFFFFFFFFFFDFFFFFFF308CC6417D
:104CA000284A074A084A074AE741C641A641C64181
:104CB000A639452925292429242904292429E3382A
:104CC0008671ECB2ACBAABAA65618651A649E749D8
:104CD0000C73EB6AE7492852CB6A285A085AA65146
:104CE000F0A35DFFDFFFFFFFFFFFFFFFFFFFFFFF01
:104CF000FFFFFFFFFFFFFFFFFFFFFFFFDFFFFFFFE4
:104D0000108C6531284A084A284A084AE741C741B9
:104D1000C641C741A6392429452945292429042902
:104D200024290439A771ECAA8BB2CCBA8AA24561B6
:104D30002549E751CB6A695AC749C649A651454931
:104D400086618E9BFBF6DFFFDFFFFFFFFFFFFFFFAC
:104D5000FFFFFFFFFFFFFFFFFFFFFFFFFFFFFFFF63
:104D6000FFFFFFFF18C60B636952C641C641C6412B
:104D7000C741C741C641A639863945292529452954
:104D8000042904314539E438E871E8814571E8893E
:104D90008BA2CB9A08726651454924414549454941
:104DA000A6594972F0ABFBFEDFFFDFFFFFFFFFFFFD
:104DB000FFFFFFFFFFFFFFFFFFFFFFFFFFFFFFFF03
:104DC000FFFFFFFFFFFFFFFFFFFFFFFF1CE7F7C530
:104DD00092944C6B484AE741C741C6418639452900
:104DE00045290429043124392441C338CB8279F67A
:104DF00055D572B4CFABEC9AAB928A922982087ADD
:104E0000087A8A826E9B55CD7EFFDFFFDFFFFFFFB2
:104E1000FFFFFFFFFFFFFFFFFFFFFFFFFFFFFFFFA2
:104E2000FFFFFFFFFFFFFFFFFFFFFFFFFFFFFFFF92
:104E3000FFFFFFFFFFFFFFFFFBE66952A639A63920
:104E4000653145314531C741864986496651C75963
:104E5000CB72DBF6DFFFDFFFBEFFBBFE55DDF0BB35
:104E6000AFABF0B3B3CCD7E51CFFDFFFFFFFDFFF35
:104E7000FFFFFFFFFFFFFFFFFFFFFFFFFFFFFFFF42
:104E8000FFFFFFFFFFFFFFFFFFFFFFFFFFFFFFFF32
:104E9000FFFFFFFFFFFFDFFFDFFFFFFFB6BDC639EC
:104EA000A6394529242904292429084AC328A228E7
:104EB000E438E338E330519CDFFFBEFFDFFFDFFF64
:104EC000DFFFDFFFBFFFBFFFDFFFDFFFDFFFDFFF32
:104ED000FFFFFFFFFFFFFFFFFFFFFFFFFFFFFFFFE2
:104EE000FFFFFFFFFFFFFFFFFFFFFFFFFFFFFFFFD2
:104EF000FFFFFFFFFFFFFFFFFFFFFFFFDFFFFFFFE2
:104F0000B29C653107428631242904294531C741C5
:104F1000001061188220A228A2204C73FFFFDFFF3F
:104F2000FFFFFFFFDFFFFFFFFFFFFFFFFFFFFFFFB1
:104F3000FFFFFFFFFFFFFFFFFFFFFFFFFFFFFFFF81
:104F4000FFFFFFFFFFFFFFFFFFFFFFFFFFFFFFFF71
:104F5000FFFFFFFFFFFFFFFFFFFFFFFFFFFFFFFF61
:104F6000DFFFFFFFD39C6531E741863124292429E7
:104F70006531084AE3200329E3280429E3206D73FF
:104F8000FFFFFFFFFFFFFFFFFFFFFFFFFFFFFFFF31
:104F9000FFFFFFFFFFFFFFFFFFFFFFFFFFFFFFFF21
:104FA000FFFFFFFFFFFFFFFFFFFFFFFFFFFFFFFF11
:104FB000FFFFFFFFFFFFFFFFFFFFFFFFFFFFFFFF01
:104FC000FFFFFFFFFFFFFFFFB29C6531E741863126
:104FD000452924296531E741C320E320E320E3206C
:104FE000E3206D73FFFFFFFFFFFFFFFFFFFFFFFFEA
:104FF000FFFFFFFFFFFFFFFFFFFFFFFFFFFFFFFFC1
:10500000FFFFFFFFFFFFFFFFFFFFFFFFFFFFFFFFB0
:10501000FFFFFFFFFFFFFFFFFFFFFFFFFFFFFFFFA0
:10502000FFFFFFFFFFFFFFFFDFFFFFFF13A5C31819
:1050300085316531442965312529E320C320E320EA
:10504000E320E320C218CE7BFFFFFFFFFFFFFFFF3F
:10505000FFFFFFFFFFFFFFFFFFFFFFFFFFFFFFFF60
:10506000FFFFFFFFFFFFFFFFFFFFFFFFFFFFFFFF50
:10507000FFFFFFFFFFFFFFFFFFFFFFFFFFFFFFFF40
:10508000FFFFFFFFFFFFFFFFFFFFFFFFFFFFFFFF30
:105090009EF714A56531A639452904218218C31845
:1050A000C318E32003294531D29C7DF7DFFFFFFFC2
:1050B000FFFFFFFFFFFFFFFFFFFFFFFFFFFFFFFF00
:1050C000FFFFFFFFFFFFFFFFFFFFFFFFFFFFFFFFF0
:1050D000FFFFFFFFFFFFFFFFFFFFFFFFFFFFFFFFE0
:1050E000FFFFFFFFFFFFFFFFFFFFFFFFFFFFFFFFD0
:1050F000FFFFFFFFFFFF1BE7695286394529E320C9
:10510000E320C320A218E3200429C641DBDEFFFF11
:10511000DFFFFFFFFFFFFFFFFFFFFFFFFFFFFFFFBF
:10512000FFFFFFFFFFFFFFFFFFFFFFFFFFFFFFFF8F
:10513000FFFFFFFFFFFFFFFFFFFFFFFFFFFFFFFF7F
:10514000FFFFFFFFFFFFFFFFFFFFFFFFFFFFFFFF6F
:10515000FFFFFFFFFFFFDFFFFFFF79D6C6394531B5
:1051600045290421E320C320C318C320E320443190
:1051700079D6FFFFDFFFFFFFFFFFFFFFFFFFFFFF0E
:10518000FFFFFFFFFFFFFFFFFFFFFFFFFFFFFFFF2F
:10519000FFFFFFFFFFFFFFFFFFFFFFFFFFFFFFFF1F
:1051A000FFFFFFFFFFFFFFFFFFFFFFFFFFFFFFFF0F
:1051B000FFFFFFFFFFFFFFFFFFFFFFFFFFFFFBDE24
:1051C000494A4429A218A218A2188218821861100C
:1051D0004110E7413CE7FFFFFFFFFFFFFFFFFFFF3D
:1051E000FFFFFFFFFFFFFFFFFFFFFFFFFFFFFFFFCF
:1051F000FFFFFFFFFFFFFFFFFFFFFFFFFFFFFFFFBF
:10520000FFFFFFFFFFFFFFFFFFFFFFFFFFFFFFFFAE
:10521000FFFFFFFFFFFFFFFFFFFFFFFFFFFFFFFF9E
:10522000FFFFFFFFFFFF1CE7B6BDEF832C6BCB62D8
:105230004D73D3A479D6DFFFFFFFFFFFFFFFFFFF12
:10524000FFFFFFFFFFFFFFFFFFFFFFFFFFFFFFFF6E
:10525000FFFFFFFFFFFFFFFFFFFFFFFFFFFFFFFF5E
:10526000FFFFFFFFFFFFFFFFFFFFFFFFFFFFFFFF4E
:10527000FFFFFFFFFFFFFFFFFFFFFFFFBFF7FFFF86
:10528000FFFFFFFFFFFFFFFFFFFFFFFFFFFFBDFF70
:105290009DF7FFFFDEFF9DF7FFFFDADEFBE6BADEDC
:1052A0007DF7FFFF9DFFDEFFDEFF5CF7FFFFFFFFE7
:1052B000DFFFDFFF9FF7FFFFBFF7FFFFFFFFFFFFEE
:1052C000FFFFFFFFFFFFFFFFFFFFFFFFFFFFFFFFEE
:1052D000FFFFFFFFFFFFFFFFFFFFFFFFFFFFFFFFDE
:1052E000FFFFFFFFDFF7FFFFFFFFDFFFDFFFFFFF36
:1052F000DEFFFFFFFFFF1BE717C6B6B5D7BD75ADD5
:1053000055ADB6BD54ADD3A475B599DE9DFFFFFF75
:10531000DFFFFFFFDFFFFFFFFFFFFFFFBFF7DFFF45
:10532000FFFFFFFFFFFFFFFFFFFFFFFFFFFFFFFF8D
:10533000FFFFFFFFFFFFFFFFFFFFFFFFFFFFFFFF7D
:10534000FFFFFFFFFFFFDFF7DFF7FFFFFFFFFFFFBD
:10535000FFFFFFFFFFFF7CEF78CEB6B538C6FBDE60
:105360003CE7DFFFDFFFDFFF7DEF7DF7BADEB29CBA
:10537000D2A49EFF9DF7FFFFFFFFDFFFDFFF9EF739
:10538000BFFFFFFFFFFFFFFFFFFFFFFFFFFFFFFF6D
:10539000FFFFFFFFFFFFFFFFFFFFFFFFFFFFFFFF1D
:1053A000FFFFFFFFFFFFFFFFFFFFDFF7FFFFFFFF35
:1053B000FFFFFFFFFFFFDEFFFEFFF7BD38C63CE744
:1053C000FFFFFFFFFFFFFFFFDFF7FFFFFFFFDFFF35
:1053D000FFFF1BE775B5919CFFFFFFFF9DF73CEFBB
:1053E000FFFFFFFFFFFFBFF7FFFFFFFFFFFFFFFF15
:1053F000FFFFFFFFFFFFFFFFFFFFFFFFFFFFFFFFBD
:10540000FFFFFFFFFFFFFFFFFFFFFFFFFFFFFFFFAC
:10541000FFFFFFFFDFFFFFFFFFFFBEFFDADE95B5F7
:105420007DEFFFFFFFFFBFF79EEFFFFFFFFFFFFFD7
:10543000DFFFBEF7FFFFFFFF9EF713A599D6FEFF24
:10544000FEFFFFFFFFFFFFFFFFFFBFFFFFFFFFFFAD
:10545000FFFFFFFFFFFFFFFFFFFFFFFFFFFFFFFF5C
:10546000FFFFFFFFFFFFFFFFFFFFFFFFFFFFFFFF4C
:10547000FFFFFFFFFFFFDFFFFFFFDFFFDEFFFFFF9D
:1054800038CE99D6FFFFFFFF5CE7BEF7FFFFFFFFB7
:10549000FFFF9EEFFFFFFFFF5DEF7DF7BEFFDADE50
:1054A00074B57BEF5BEFFEFF9DF7BDF7FFFFFFFFDE
:1054B000FFFFFFFFFFFFFFFFFFFFFFFFFFFFFFFFFC
:1054C000FFFFFFFFFFFFFFFFFFFFFFFFFFFFFFFFEC
:1054D000FFFFFFFFDFFFFFFFDFFFDFFFFFFFFBE659
:1054E00079D6DEFF95BD7CF7DEFFDEFFFFFFFFFF15
:1054F000FFFF7DEFBEF7FFFFFFFFDEFFFFFFFFFFB8
:10550000DEFF78D694BDB4BD2E843AE7FEFFFEFFE1
:10551000FEFF9DF7FFFFFFFFFFFFFFFFFFFFFFFF06
:10552000FFFFFFFFFFFFFFFFFFFFFFFFFFFFFFFF8B
:10553000FFFFFFFFFFFFFFFFFFFFFFFFBEFFFFFFBC
:10554000FFFF95BD308C17CE909CD9E6F5C516C6E9
:10555000DEFFBDFF9DF7FFFFFFFFFFFFDEFFFFFF49
:105560003BEF4F94895A6C7BED83AF9CCC83FDFF5E
:10557000FEFFDEFF5CEFFFFFFFFFFFFFFFFFFFFF10
:10558000FFFFFFFFFFFFFFFFFFFFFFFFFFFFFFFF2B
:10559000FFFFFFFFFFFFFFFFFFFFFFFFDFFFFFFF3B
:1055A000BEF7FFFFFFFF9DFF0B6B13AD12B54A7BEC
:1055B0006B7B2A738C7BD9E6FEFFFAE678DE57D642
:1055C000DEFF9DFFEE8BC541C96A8C83CC83B3BDE2
:1055D00097DEF1A4B8DEFEFFBDFFFFFFFFFFFFFF78
:1055E000FFFFFFFFFFFFFFFFFFFFFFFFFFFFFFFFCB
:1055F000FFFFFFFFFFFFFFFFFFFFFFFFFFFFFFFFBB
:10560000FFFFFFFFBEFFDEFF9DFFFAE6AD836C7B71
:1056100093C5D4CD2D948FA42A730A6B1AEF3BF750
:1056200033B5B4C557D64F9CA441E551EA72C96A57
:105630006E94D3C5FDFFCD830A6B78D6BDFFFFFF07
:10564000FFFFFFFFFFFFFFFFFFFFFFFFFFFFFFFF6A
:10565000FFFFFFFFFFFFFFFFFFFFFFFFFFFFFFFF5A
:10566000FFFFFFFFFFFF7DEFDEFFFFFF95BDC9627C
:1056700048524B7B15D6FCFF52BD6EA4E96A665AB0
:1056800077DEF9EE5BFF7BFFDDFF73BD2652023153
:10569000E230E5492D94FCFF7BFF4B73A95A8D7BCB
:1056A0009DF7BDF7FFFFFFFFFFFFFFFFFFFFFFFFBE
:1056B000FFFFFFFFFFFFFFFFFFFFFFFFFFFFFFFFFA
:1056C000FFFFFFFFFFFFFFFFFFFFBEFFDEFF34AD69
:1056D000EB6A4752A962475A2D9C7AFFD8EEAC8BF1
:1056E0002A736F9C32B5F1AC909CCD8312ADB5C5D9
:1056F00073BDCD8B8441E54922318B7BF1ACE96AE6
:105700008C7B4B73F6C5FFFFFFFFFFFFFFFFFFFF23
:10571000FFFFFFFFFFFFFFFFFFFFFFFFFFFFFFFF99
:10572000FFFFFFFFFFFFFFFFFFFFFFFFFFFFFFFF89
:10573000BEFFEA62064A2B730A6BA862A86A76DE8D
:10574000FDFF93BD32B536CED1A4D1A4D1A40F8C28
:105750008D7BEA624C738C7B685A685AA4410008BE
:10576000401823312752895A38CEBEFFFFFFFFFF72
:10577000FFFFFFFFFFFFFFFFFFFFFFFFFFFFFFFF39
:10578000FFFFFFFFFFFFFFFFFFFFFFFFFFFFFFFF29
:10579000FFFF9DF73CEF895AC641A962E649A9621D
:1057A000C549AC83D0A412AD33AD909C2F8C13A50A
:1057B000B19495B5B5B533ADD29C71942F8CEE8371
:1057C0000A73A96203310752485248521CEFFFFF87
:1057D000DFFFFFFFFFFFFFFFFFFFFFFFFFFFFFFFF9
:1057E000FFFFFFFFFFFFFFFFFFFFFFFFFFFFFFFFC9
:1057F000FFFFFFFFDFFFFFFF1BEFEA62C541EA6A21
:10580000475A84412A732A6B2A6BB19C74B533A51D
:10581000D6BD58CEBAD658C655A558C6DBDE38C652
:1058200059CE95BD74BD2F942C73CA6A14B5FFFF71
:105830003DF77DF7DFFFFFFFFFFFFFFFFFFFFFFFEC
:10584000FFFFFFFFFFFFFFFFFFFFFFFFFFFFFFFF68
:10585000FFFFFFFFFFFFFFFFDEFFFFFFFEFFF6C5BD
:10586000A9626439C96A4F940E8CEE83D19C74ADE1
:10587000D6BDFADE3CE7FBDEBAD6DBD676AD7ACE15
:10588000BACE18BE3CE738C617CE38D614AD0F8C4A
:105890008A5A96BDFFFFDFFFFFFFFFFFFFFFFFFFFD
:1058A000FFFFFFFFFFFFFFFFFFFFFFFFFFFFFFFF08
:1058B000FFFFFFFFFFFFDFFFDFFFFFFFDEFFDDFF7B
:1058C000FDFF93BDA862CD83B4C5F2AC4C6BB6B5F9
:1058D00075B579D6FBDE38C63CE71CDFFCDE18BEAA
:1058E000B7AD5284FCD61DDFDCD61DDFD49CF59C01
:1058F000DCDE76ADB3940C63139DFFFFDFFFBEF7D4
:10590000FFFFFFFFBEF7FFFFDFF7FFFFFFFFFFFF18
:10591000FFFFFFFFFFFFFFFFFFFFFFFFFFFFFFFF97
:10592000FEFFFDFF15CECC834E9497DE16D68D7B01
:105930007194B6B5DBDE96B5D7BDFFFFDBDE5DE764
:105940007EEF117CF59C359D19BEBCCE5EE7B8ADEF
:105950009CCE3AC6D8B51DDF35A551848E6B38BEB6
:10596000FFFFFFFFFFFFFFFFDFFFFFFFBFF7FFFFAF
:10597000FFFFFFFFFEFFFFFFFFFFFFFFFFFFFFFF38
:10598000FFFFFEFFDDFF7BEFD09C8B73F5C57BF740
:10599000B4C5CE83B6BDDADE3CE7BAD6F8BDDBD6F9
:1059A00018C6DBD6DFF7159DB494117CB8AD3EDF89
:1059B000DDD6906B3AC6FDD6DDD67AC69ACE76ADE8
:1059C000928C4D631BDFFFFFFFFFFFFFFFFFFFFF19
:1059D000BFF7FFFFFFFFFFFFFFFFFFFFFFFFDFFF3F
:1059E000DFFFDFFFDFFFDEFF7CF794BDED8331AD2E
:1059F000F9E6F5CD909C54B538CEBAD69AD6FFFFCD
:105A000018BE3184928C9BD63DE75AC6B7ADB38C95
:105A10009BCEFFF71DDF5284F594BFEF3EDFFDDE26
:105A200039C6DBD675AD0C5BF39CDEF7FFFFDFF705
:105A3000FFFFDFFFDFFFFFFFFFFFFFFFFEFFFFFFB7
:105A4000FFFFDFFFBFF7DFFFFFFFFFFFFAE66B732C
:105A50006B7397DED9E6909C709458CE3CE79AD64B
:105A60005DEFFFFF18C6D394928CFCDE5EE7DCD6B8
:105A70001DDF1DDF5EE7FDDEFDDE19BE3ABE5FE71E
:105A8000FDDE1DDFBBD6D7B596ADD3940C5B79CECA
:105A9000FFFFFFFFFFFFFFFFFFFFFFFFFFFFFFFF16
:105AA000FEFFFFFFFFFFFFFFDFFFFFFFFFFFFFFF27
:105AB000F2A467524E9419EF52B5AD7B33AD99DE27
:105AC000BAD67DEF3DE7FCDE39C676AD55A5F0735D
:105AD000F8BD5EE73AC697ADDCD6DCD69BCEFDD6E8
