:100000000C94E7540C94A3EB0C9478EB0C944DEB0C
:100010000C9422EB0C94F7EA0C94CCEA0C94A1EA31
:100020000C9476EA0C9418550C9418550C941855A9
:100030000C9418550C94E2E50C9418550C94185532
:100040000C9418550C9418550C9418550C9418557C
:100050000C9418550C9418550C9418550C942CEAC3
:100060000C9418550C9410E50C94E7E40C94185576
:100070000C9418550C9418550C9418550C9418554C
:100080000C9418550C9418550C9418550C9418553C
:100090000C9418550C9418550C9418550C944AFD52
:1000A0000C9418550C9418550C9418550C9418551C
:1000B0000C9418550C9418550C9418550C9418550C
:1000C0000C9418550C9418550C9418550C941855FC
:1000D0000C9418550C9418550C9418550C941855EC
:1000E0000C9418551B5A1E5A235A2B5A365A365AF4
:1000F000445A445A445A3B81518167817D8193819E
:10010000A981BF81D5817182A282D3820483358384
:1001100066839783C8834584AD85DF860F883F89D2
:100120006F8A9F8BC48B718DAA8DDC8D0E8E408E55
:10013000728EA48ED68E088F3A8FB68FE78F189066
:1001400049907A90AB90DC900D913E916F91B59172
:10015000C592CB93DC94E095E496F197F797FD97E1
:10016000039890C0A6C0BCC0D2C0E8C0FEC014C1F5
:100170005EC18FC1C0C1F1C122C253C284C2DFC2FD
:1001800080C313C4A6C439C5CCC561C69BC7BFC74D
:10019000DAC7F5C710C82BC846C861C8D2C9EDC9AF
:1001A00008CA23CA3ECA59CA74CA8FCABCCABFCABF
:1001B000C2CAC5CAC8CACBCACECAD1CAE0CFF6CF56
:1001C0000CD022D038D04ED064D0ABD0DCD00DD102
:1001D0003ED16FD1A0D1D1D134D25AD280D2A6D2C1
:1001E000CCD2F2D214D3E1E3E4E3D3E3D7E3DDE30B
:1001F0001BE4E8E3ECE3F2E3F6E3FAE300E404E40F
:1002000008E41BE40EE412E416E40D94394E0D9458
:100210005A3C0D945B3C0D946B4C00407A10F35AA1
:1002200000A0724E18090010A5D4E80000E8764836
:10023000170000E40B54020000CA9A3B000000E1E2
:10024000F505000080969800000040420F00000075
:10025000A08601000000102700000000E803000055
:1002600000006400000000000A000000000001001F
:10027000000000002C76D888DC674F0823DFC1DF40
:10028000AE59E1B1B796E5E3E453C63AE651997643
:1002900096E8E6C28426EB898C9B62ED407C6FFC7D
:1002A000EFBC9C9F40F2BAA56FA5F490055A2AF7BF
:1002B0005C936B6CF9676DC11BFCE0E40D47FEF5C8
:1002C00020E6B500D0ED902E030094357705008030
:1002D000841E080000204E0A000000C80C3333338F
:1002E000330F986E12831141EF8D2114893BE6552F
:1002F00016CFFEE6DB18D1844B381BF77C1D901D12
:10030000A4BBE424203284725E228100C9F124EC73
:10031000A1E53D27080C20173CE781BD81BD81BDCB
:1003200081BD81FF3CE7818181BD81BD81BD81FFB0
:100330003CE78181818181BD81BD81FF3CE7818175
:100340008181818181BD81FF3CE7818181818181C2
:10035000818181FFFFFF003F3F000F0F000303007B
:100360000000003F3F000F0F0003030000000000EB
:1003700000000F0F00030300000000000000000059
:10038000000303000000101010101054381000007B
:100390000000103854101010101000000000000071
:1003A00010087C08100000000000000010207C20D5
:1003B000100000000000003C0C14244480000000E9
:1003C000000000804424140C3C00000000003C426B
:1003D000A581A599423C000000003C7EDBFFFFDBCD
:1003E000663C000000003C42A58199A5423C00000B
:1003F00000003C7EDBFFFFE75A3C000000003C426F
:1004000081818181423C000000003C7EFFFFFFFFB4
:100410007E3C00000000FF818181818181FF00001E
:100420000000FFFFFFFFFFFFFFFF0000FFFFFFFFD8
:10043000FFFFFFFFFFFF7DEFFFFF7DEF7DEFFFFF82
:10044000DFFF7DEFFFFFFFFFFFFFFFFFFFFFDFFF8E
:10045000FFFFFFFFDFFFDFFFFFFFFFFFFFFFDFFF0C
:10046000FFFFFFFF7DEF59CEDBDE5DEFBEF7FFFF45
:10047000FFFF7DEF9EF7FFFFFFFFBEF7BEF7DFFF39
:10048000FFFFFFFFFFFFFFFFFFFFFFFFFFFFFFFF7C
:10049000DFFFFFFFFFFFDFFFBEF7FFFF9EF7BEF7A7
:1004A0003CE7FBDEFBDEFBDEDBDEFBDE3CE73CE7C6
:1004B000DFFFDFFFFFFFFFFFDFFFFFFFFFFFDFFFCC
:1004C000DFFFFFFFDFFF9EF718C69294EF7B2C63E0
:1004D000108414A5DBDEFFFFFFFF7DEF5DEFFFFF64
:1004E000FFFFFFFFFFFFFFFFDFFF7DEFBEF7FFFF17
:1004F000FFFFFFFFFFFFFFFFBEF7FFFFFFFFDFFF75
:1005000055AD18C6FFFF5DEFBEF7FFFF9EF77DEF0D
:100510009EF73CE75DEFDFFFFFFFFFFFDFFFFFFF21
:10052000FFFFDFFFFFFFFFFFFFFFBEF7718CA6316C
:10053000494AAE734D6BAA52CB5A9294DBDEFFFF51
:10054000FFFF9EF7FFFFFFFFFFFFDFFFFFFFFFFF44
:10055000FFFF9EF7FFFFFFFFFFFFFFFFBEF7FFFF5D
:10056000FFFFBEF7718CCB5A7DEFFFFFFFFFFFFF50
:10057000DFFFDFFFBEF73CE71CE75DEF9EF7BEF74E
:10058000FFFFFFFFFFFFFFFFFFFFFFFFFFFFFFFF7B
:1005900038C62C632842E739CB5ACB5A694A0842FD
:1005A0002C63D7BDDFFFFFFF9EF7FFFFFFFFFFFFBD
:1005B000FFFFFFFFFFFFFFFFFFFFFFFF9EF7FFFFB4
:1005C000FFFF9EF7FFFFFFFF59CE2842B2943CE7A2
:1005D000FFFF7DEF5DEF9EF79EF79EF73CE71CE780
:1005E000DBDE5DEFFFFFFFFFDFFFFFFFFFFFFFFF32
:1005F000DFFFFFFFFFFF3CE775ADAA528631E73909
:10060000EB5AEB5AE739494AD39C1CE7FFFFDFFF5F
:100610009EF7DFFFFFFFDFFFDFFFFFFFFFFFFFFFB3
:10062000FFFFFFFFFFFFDFFFFFFF9EF7FFFF96B516
:100630008A5275AD9EF7DFFFDFFFBEF79EF7DFFF43
:100640007DEF3CE779CEDBDEDFFFFFFF9EF7FFFFAC
:10065000DFFFFFFFFFFFFFFFDFFFFFFFFFFF7DEF7C
:10066000AE73C7398631694A28428631494A2C63BC
:10067000BAD69EF7FFFFBEF7DFFFFFFFFFFF7DEF5C
:10068000FFFFFFFFFFFFBEF79EF7FFFFFFFFBEF775
:10069000FFFFFFFF1084CF7B96B5DFFFFFFF9EF7C4
:1006A0009EF73CE75DEF7DEF79CE18C63CE7FFFF94
:1006B000BEF7FFFFFFFFDFFF9EF7FFFFFFFF9EF785
:1006C000DFFF9EF7FBDE8E738631C739C739C73926
:1006D000E739A631494A55ADDFFFFFFF7DEF9EF7B1
:1006E000FFFFFFFFFFFFFFFF9EF7FFFFDFFF1CE79E
:1006F0005DEFFFFF5DEFDFFFFFFF8E73AE731CE763
:100700007DEF7DEFFFFF3CE7FBDEBEF79AD696B5A7
:10071000BAD6FFFFFFFFFFFFDFFFFFFFFFFFFFFF77
:10072000DFFFBEF7FFFFBEF7FFFFAE732421863168
:10073000A631652965294529452986318E73DBDE79
:10074000FFFFDFFF9EF7FFFFFFFFFFFFFFFF9EF7AB
:10075000FFFF75AD38C61CE7FFFFFFFFFFFF3CE75B
:100760008E7334A5DFFF3CE79EF71CE7FBDE1CE73A
:10077000FBDED7BD18C69EF7FFFFDFFFFFFFDFFFE1
:10078000FFFFFFFFFFFFFFFFFFFFBEF73CE7E318A0
:1007900065294529A21045292421C3182421C318FD
:1007A000A2102842B6B5FFFFFFFFDFFFFFFFFFFFEC
:1007B000DFFFFFFFFFFF14A53CE759CED7BDFFFFCA
:1007C000FFFF7DEFF7BD34A51CE79EF75DEF9EF7B9
:1007D000FBDE1CE7FBDED7BD38C6DFFFFFFFDFFF18
:1007E000FFFFDFFFDFFFDFFFBEF7DFFFFFFF9EF74B
:1007F0002C634529E318C3182421E3182000242181
:1008000061084529C31820008210EF7B7DEFFFFFB0
:10081000FFFFFFFFDFFFBEF7FFFFF39C79CE1CE772
:1008200018C659CE7DEFFFFFFFFF38C61CE79EF7C5
:10083000FBDE3CE7FBDEDBDEBAD6D7BD59CEDFFF01
:10084000FFFFFFFFFFFFDFFFFFFFFFFFDFFFFFFFF8
:10085000FFFFBEF7652982108210C3184108A2105D
:1008600024216108E318E318A2100421E318821080
:1008700075ADDFFFFFFFFFFFFFFFBEF7FFFF55ADC9
:1008800014A5FFFF5DEFF7BD79CEFFFF7DEF1CE7FD
:100890005DEF5DEF3CE7DBDEFBDE79CE38C6D7BD32
:1008A0009AD6DFFFFFFFFFFFDFFFDFFFFFFFFFFF46
:1008B000FFFFFFFFFFFF9EF79294EB5A2421A21047
:1008C0008631E31882100421C3184529E318610812
:1008D00008424108F7BDFFFFFFFFFFFFBEF7FFFF24
:1008E000FFFF79CE718C3CE73CE77DEFF7BD9AD6F0
:1008F000D7BD5DEF3CE75DEF9AD6FBDE1CE738C65F
:1009000018C638C6FBDEDFFFBEF7FFFFFFFFFFFFA5
:10091000FFFFFFFFBEF7DFFFDFFF3CE79EF7CF7B68
:10092000AA522421242141088210863104218631D3
:10093000C73986312421C318BAD6FFFFFFFFFFFF56
:10094000FFFFFFFFDFFF5DEF6D6B59CEBEF7DBDE14
:10095000D7BD75ADD7BD7DEF3CE71CE714A5D7BD6E
:1009600059CE38C69AD6DBDE3CE7DFFFDFFFFFFF5C
:10097000FFFFFFFFFFFFDFFFBEF7FFFFDFFF1CE70B
:1009800014A5CB5AEF7BC7390000C739CF7BAA52D9
:10099000452941084529CB5A8210CB5A3CE7BEF77E
:1009A000FFFFFFFFFFFFDFFFDFFFFFFFAE7334A599
:1009B0009EF734A575ADB6B59AD63CE7FBDEB6B565
:1009C000D39C14A5308496B51CE7FBDE1CE7FFFF23
:1009D000FFFFFFFFFFFFDFFFDFFFDFFFFFFFFFFF87
:1009E0001CE796B528423084518C4D6B2C63F7BDC3
:1009F000BAD638C6694A8210610841084529BAD674
:100A0000FFFFBEF7FFFFFFFF9EF7FFFFBEF7FFFFF1
:100A100096B54D6B75ADB6B534A5BAD679CE59CE6F
:100A200038C6108479CEB6B52842F39C3CE7BAD6D6
:100A30009AD6FFFFFFFFDFFFFFFFDFFFFFFFFFFF94
:100A4000FFFF5DEF75AD2C63EF7B10848E73FBDED3
:100A500038C6DFFFFFFFBEF7FBDECB5A6529A210C9
:100A6000D7BDFFFF7DEFFFFFFFFFFFFFFFFFFFFF92
:100A7000FFFF5DEFBEF7EB5AB29434A5D7BDB6B514
:100A80009AD6F7BD518C59CE34A5CB5A108455ADAA
:100A90003CE7DBDEDBDEFFFFDFFFDFFFFFFFDFFF2B
:100AA0009EF718C6F7BDDBDE8E736D6B10846D6B21
:100AB00079CEFFFFBEF7FFFFFFFFDFFFFFFF1CE761
:100AC000B29492947DEFFFFFBEF7FFFFFFFFFFFFA1
:100AD000FFFFBEF7FFFFFFFFFFFF96B5308496B51F
:100AE000B6B5D7BDD7BD718C18C614A5EF7B4D6BBD
:100AF00038C6DBDEFBDEBAD65DEFFFFFDFFFBEF7F9
:100B00007DEFFFFF55AD652965294D6B8E73CF7B5A
:100B10008A5279CEFFFFDFFFFFFFFFFFFFFFFFFFDE
:100B20009EF7FFFF7DEF5DEFFFFFFFFF7DEFFFFF14
:100B3000FFFFFFFFFFFFFFFFBEF7FFFFFFFF3CE7E9
:100B4000F39C96B514A5F7BDD39CF39C55ADAE733D
:100B50000C63F39C38C61CE7BAD659CEDBDE7DEFBA
:100B6000FFFFFFFFFFFF518C242128420421410891
:100B70000C63284234A5FFFFFFFF7DEFFFFFDFFF7F
:100B8000BEF7FFFFBEF7FFFFFFFFFFFFFFFFFFFF07
:100B9000DFFFFFFFFFFFFFFFFFFFFFFF7DEF9EF780
:100BA000FFFFD39CF39C96B596B596B5D39CF7BD45
:100BB000CF7BEB5AEF7B75AD18C6FBDEFBDE1CE787
:100BC000DBDE7DEFFFFF9EF78E730421E739A63150
:100BD000E739E73900006D6BFFFFDFFF3CE7FFFF00
:100BE000FFFFBEF7FFFFFFFFFFFFBEF77DEF9EF7A2
:100BF000DFFFFFFFFFFFDFFFFFFFFFFFFFFFFFFF45
:100C0000DFFFFFFFFFFFAA522C63B294B6B5D39C5F
:100C100055AD14A530844D6B75ADF39C18C6B6B5B3
:100C2000D7BD79CE38C61CE75DEFAE73E318494AED
:100C3000C7396529A6312421000034A5FFFF1CE730
:100C4000FFFFFFFF9EF7FFFFFFFFDFFFFFFFDFFF5D
:100C5000FFFFFFFFFFFFFFFFFFFFDFFFFFFFFFFFC4
:100C6000FFFFBEF7FFFFFFFFBEF755ADCB5A694A46
:100C7000EF7B9294F39CF39CF39C14A518C638C6A2
:100C800055AD718C34A5F7BD75AD59CEB6B586316D
:100C90008A526529A631E739E318610845293CE7FE
:100CA000BEF77DEFFFFFFFFFDFFFFFFFBEF7FFFF98
:100CB000FFFFFFFFFFFFFFFFFFFFFFFFFFFFFFFF44
:100CC000FFFFFFFFFFFFFFFFFFFFBEF79EF7FFFFE6
:100CD00096B54D6B0842EB5ACB5A4D6BCB5A8E737F
:100CE000EB5A518CD39CB29438C6DBDE79CEBAD69F
:100CF00038C69294C31828422421042104210000FC
:100D0000B294FFFFFFFFFFFFBEF7BEF7FFFFFFFF3D
:100D10007DEFFFFFFFFFDFFF9EF79EF7FFFFFFFF67
:100D2000FFFFFFFFFFFFFFFFFFFFFFFF7DEFFFFF65
:100D3000DFFF7DEFFFFF1CE775ADCF7BCF7B0C6343
:100D40004D6B8A52E7392842AE733084D7BD59CEF5
:100D50009AD69AD6F7BDBAD6B294E3188631042152
:100D600082108631DFFF7DEF7DEFFFFFFFFFFFFF8A
:100D7000FFFFDFFFFFFFFFFFFFFFFFFFFFFFFFFFA3
:100D8000FFFFFFFFDFFFFFFFFFFFFFFFFFFFFFFF93
:100D9000FFFFFFFFFFFFFFFFFFFFFFFFFFFFBEF7AC
:100DA0001CE7FBDE79CE96B5B2946D6B2842AE732C
:100DB000718C38C618C6BAD6FBDE96B59AD6718C39
:100DC00082100000C31875ADBEF7DFFFDFFFFFFF25
:100DD000FFFFFFFFFFFFFFFFFFFFFFFFFFFFFFFF23
:100DE000FFFFFFFFFFFFFFFFFFFFFFFFFFFFFFFF13
:100DF000FFFFFFFFFFFFFFFFFFFFFFFFFFFFFFFF03
:100E00009EF7FFFFBEF7FFFFFFFFDFFFDFFF5DEF96
:100E1000F39C494A718C718C59CEFBDE18C659CEB1
:100E200055AD59CE3084A210AE7379CEFFFF9EF738
:100E3000FFFFFFFFFFFFFFFFFFFFFFFFFFFFFFFFC2
:100E4000FFFFFFFFFFFFFFFFFFFFFFFFFFFFFFFFB2
:100E5000FFFFFFFFFFFFFFFFFFFFFFFFFFFFFFFFA2
:100E6000FFFFFFFFBEF7FFFFFFFFFFFFFFFFFFFFDB
:100E7000FFFFDFFF1CE7718CCB5A518C34A5D7BD27
:100E80009AD6BAD659CE55AD9AD6929496B5FFFF5A
:100E9000DFFFFFFFFFFFFFFFFFFFFFFFFFFFFFFF82
:100EA000FFFFFFFFFFFFFFFFFFFFFFFFFFFFFFFF52
:100EB000FFFFFFFFFFFFFFFFFFFFFFFFFFFFFFFF42
:100EC000FFFFFFFFFFFFFFFFFFFFFFFFBEF7DFFF9B
:100ED000FFFFBEF7DFFFDFFFFFFF75AD04211084CA
:100EE0009294718C9AD679CEFBDEF7BDF39C9EF777
:100EF0007DEF3CE7FFFFDFFFFFFFFFFFFFFFFFFF8F
:100F0000FFFFFFFFFFFFFFFFFFFFFFFFFFFFFFFFF1
:100F1000FFFFFFFFFFFFFFFFFFFFFFFFFFFFFFFFE1
:100F2000FFFFFFFFFFFFFFFFFFFFFFFFFFFFFFFFD1
:100F3000BEF7FFFFFFFFBEF7FFFFFFFFBEF7084250
:100F4000A210C7399294B29414A518C638C6FBDE15
:100F500096B5D7BD9EF71CE7FFFFBEF7FFFFFFFF6B
:100F6000FFFFFFFFFFFFFFFFFFFFFFFFFFFFFFFF91
:100F7000FFFFFFFFFFFFFFFFFFFFFFFFFFFFFFFF81
:100F8000FFFFFFFFFFFFFFFFFFFFFFFFFFFFFFFF71
:100F9000FFFFFFFFFFFFFFFF9EF77DEFFFFF9EF7C5
:100FA0004D6B2000E318A210694A14A5B29475ADE8
:100FB00018C638C63CE755AD34A5FFFFFBDEFFFF82
:100FC000DFFFDFFFFFFFFFFFFFFFFFFFFFFFFFFF71
:100FD000FFFFFFFFFFFFFFFFFFFFFFFFFFFFFFFF21
:100FE000FFFFFFFFFFFFFFFFFFFFFFFFFFFFFFFF11
:100FF000FFFFFFFFBEF7DFFFFFFFFFFFDFFFFFFF8A
:10100000BEF7D39C00000421A210042161084D6B9F
:10101000F39C14A5D7BD38C618C61CE734A559CE15
:101020005DEF5DEFBEF7DFFFDFFFFFFFFFFFFFFFBD
:10103000FFFFFFFFFFFFFFFFFFFFFFFFFFFFFFFFC0
:10104000FFFFFFFFFFFFFFFFFFFFFFFFFFFFFFFFB0
:10105000FFFFFFFFFFFFFFFFFFFFFFFFFFFFDFFFC0
:101060009EF7FFFF18C68210C31882108210A210CC
:10107000C318E3181084F39CB6B5D7BD59CE38C653
:101080003CE775AD59CE3CE79EF7BEF7DFFFFFFFAB
:10109000FFFFFFFFFFFFFFFFFFFFFFFFFFFFFFFF60
:1010A000FFFFFFFFFFFFFFFFFFFFFFFFFFFFFFFF50
:1010B000FFFFFFFFFFFFFFFFFFFFFFFFFFFFFFFF40
:1010C0009EF7FFFFDFFFFBDE2842C318C31861084D
:1010D0000421A210410841086529B29414A5D7BD86
:1010E00018C618C6BAD679CE18C659CE9AD65DEFAC
:1010F000DFFFDFFFDFFFFFFFFFFFDFFFFFFFFFFF80
:10110000FFFFFFFFFFFFFFFFFFFFFFFFFFFFFFFFEF
:10111000FFFFFFFFFFFFFFFFFFFFFFFFFFFFFFFFDF
:10112000FFFFFFFFFFFF3CE7FFFFCB5AE739A63188
:10113000A210C318200061082000C318AA528A52C6
:10114000B294F7BD18C696B538C659CEDBDE18C6C0
:1011500018C659CE1CE7FFFFFFFFDFFFDFFFFFFFD1
:10116000FFFFFFFFFFFFFFFFFFFFFFFFFFFFFFFF8F
:10117000FFFFFFFFFFFFFFFFFFFFFFFFFFFFFFFF7F
:10118000FFFFFFFFDFFFFFFF7DEFFFFF3084E73949
:10119000A6312842E31861084108200000006D6B69
:1011A00018C68A52EB5A14A596B559CE55AD79CECC
:1011B000FBDE79CEF7BDD7BD38C63CE7FFFFFFFFAA
:1011C000DFFFFFFFFFFFFFFFFFFFFFFFFFFFFFFF4F
:1011D000FFFFFFFFFFFFFFFFFFFFFFFFFFFFFFFF1F
:1011E000FFFFFFFFFFFFFFFFDFFFDFFFFFFF96B502
:1011F000A63128420842863145298210C3180000D2
:10120000C739FBDEFFFFF7BD08422C6355AD79CE31
:10121000D7BDF7BD38C6BAD69AD679CE18C618C685
:10122000FBDEFFFFFFFFBEF7FFFFFFFFFFFFFFFF3C
:10123000FFFFFFFFFFFFFFFFFFFFFFFFFFFFFFFFBE
:10124000FFFFFFFFFFFFFFFFFFFFFFFFFFFFFFFFAE
:101250009AD6A63128420842863165294529E318E5
:101260002000E31875ADFFFF7DEFFFFF9294E73993
:10127000718CF39CBAD696B596B538C6DBDEDBDE4C
:1012800079CEF7BD38C61CE7DFFFFFFFFFFFFFFF8A
:10129000FFFFFFFFFFFFFFFFFFFFFFFFFFFFFFFF5E
:1012A000FFFFFFFFFFFFFFFFFFFFFFFFFFFFFFFF4E
:1012B000FFFF1CE7CB5A2842C739C7396529A63139
:1012C000652900004108D39CBEF7BEF7FFFFBEF7BB
:1012D0009EF76D6B494ACF7B75AD9AD655AD38C632
:1012E00059CE79CEBAD6BAD638C6F7BDDBDEFFFF07
:1012F000DFFFDFFFFFFFFFFFFFFFFFFFFFFFFFFF3E
:10130000FFFFFFFFFFFFFFFFFFFFFFFFFFFFFFFFED
:10131000FFFFFFFF7DEFEF7BC7398A52C7390421FA
:1013200008422421042141084D6BFFFFFFFF7DEFA0
:10133000FFFF7DEFFFFF59CE8A522C638E7338C6B4
:10134000D7BD18C6D7BD18C69AD6FBDE9AD618C622
:1013500079CE1CE7BEF7DFFFDFFFFFFFFFFFFFFFD8
:10136000FFFFFFFFFFFFFFFFFFFFFFFFFFFFFFFF8D
:10137000FFFFFFFFFFFFFFFFF39C494A0842C73909
:1013800086318631E318E3180000CB5ADBDEDFFF3D
:10139000DFFFFFFF9EF7FFFF9EF7FFFF75AD2842BF
:1013A0002C63AE739AD696B5D7BD18C659CE79CEF2
:1013B000DBDE1CE79AD6D7BD9EF7BEF7DFFFFFFF47
:1013C000FFFFFFFFFFFFFFFFFFFFFFFFFFFFFFFF2D
:1013D000FFFFDFFFFFFF7DEFFFFFF7BD494A494AEF
:1013E000A631C73945292421863100008631F7BD51
:1013F000FFFF9EF7FFFFFFFFDFFFFFFFFFFFDFFFA6
:10140000FFFF4D6B8A524D6BAE7359CE96B579CEB8
:10141000D39CEB5AEB5A75ADBEF738C659CE9EF742
:10142000FFFFBEF7FFFFFFFFFFFFDFFFFFFFFFFF35
:10143000FFFF9EF7FFFFFFFFBEF7FFFF18C68A52B0
:101440002842694AA63186314529084200004108F0
:10145000F39C7DEFFFFFDFFFFFFFFFFFBEF7FFFF06
:10146000DFFFDFFF9EF7FFFF8A528A526D6B108409
:1014700059CED7BD308496B596B59294BAD6FBDED8
:1014800018C65DEFFFFFFFFFFFFFFFFFFFFFFFFF3E
:10149000FFFFFFFFFFFFFFFFFFFFDFFFBEF71CE7C0
:1014A000C7394529E73928426529C7392421610808
:1014B000000030849EF7FFFFFFFFDFFFFFFFFFFF0D
:1014C000DFFFFFFFDFFFBEF7FFFFFFFF9AD6E73921
:1014D0002C634D6BF7BD96B559CEBEF7DFFFBAD67C
:1014E00059CEBEF738C63CE7FFFFFFFFFFFFBEF750
:1014F000BEF7FFFFFFFFFFFFDFFFFFFFFFFFDFFF85
:10150000FFFFBAD6E31804210842A631E3184529A3
:1015100045290000CB5ADBDEFFFFDFFFDFFFFFFFC7
:10152000FFFFFFFFFFFFFFFFDFFFFFFFDFFF5DEFBD
:10153000FFFF55AD494A6D6BCF7B38C6D7BDFBDE8B
:101540003CE738C65DEF1CE79AD65DEFBEF7DFFFDC
:10155000FFFFFFFFDFFFFFFFFFFFFFFFFFFF9EF724
:10156000FFFFFFFFBEF7FFFFF39C65290421042165
:101570006529C3180000452959CEBEF7FFFFDFFFDC
:10158000FFFFFFFFDFFFFFFFFFFFDFFFFFFFFFFFAB
:10159000DFFFFFFFBEF7FFFFAE73694A1084F39CC5
:1015A00059CED7BDD7BD59CE18C67DEFB6B53CE7ED
:1015B000FFFFBEF7DFFFFFFFFFFFFFFFFFFFFFFFA4
:1015C000FFFFDFFFFFFFDFFFFFFFFFFFBEF734A5D9
:1015D000694A8210821000002000B294BEF7FFFF1B
:1015E000FFFFFFFFFFFFFFFFDFFFFFFFFFFFFFFF2B
:1015F000DFFFFFFFFFFFDFFFFFFFDFFF1CE76D6B7C
:10160000AA52B29475AD79CE59CE14A534A5929450
:10161000F39CFBDEFFFFFFFFDFFFFFFFFFFFFFFF8E
:10162000FFFFFFFFFFFFFFFFFFFF9EF7FFFF7DEFC5
:10163000BEF7FFFF9AD60C6341082000CF7BFFFF67
:10164000FFFFBEF7FFFFFFFFFFFFFFFFFFFFFFFFF3
:10165000FFFFFFFFBEF7FFFFBEF7FFFFFFFFDFFF4C
:10166000FFFF9AD6AA528A521084718C3084CF7BA5
:101670008A528A52F7BD7DEFFFFFFFFFFFFFFFFF9A
:10168000FFFFFFFFFFFFFFFFFFFFBEF7FFFFFFFFB3
:10169000BEF7FFFFFFFFBEF7DFFFDFFF718C694A78
:1016A000FBDEBEF7FFFFDFFFFFFFFFFFDFFFFFFFF8
:1016B000FFFFFFFFBEF7FFFFFFFFFFFF9EF7FFFFEC
:1016C000FFFFBEF7FFFFFFFF38C62C63E739AA52C2
:1016D0008A5228426D6B34A5FFFFFFFFFFFFDFFF3B
:1016E000FFFFFFFFDFFFFFFFFFFFFFFFFFFFFFFF2A
:1016F000FFFFFFFFFFFFFFFFFFFFFFFFFFFFDFFF1A
:101700007DEF3CE79EF7FFFFFFFFDFFFFFFFFFFFDF
:10171000FFFFFFFFFFFFFFFFFFFFFFFFFFFFFFFFD9
:10172000FFFFFFFFFFFFFFFFFFFFDFFFDFFFDBDE4E
:1017300075AD9294B29496B5DBDEBEF7FFFFFFFF66
:10174000FFFFFFFFFFFFFFFFFFFFFFFFFFFFFFFFA9
:10175000FFFFFFFFFFFFFFFFFFFFFFFFFFFFFFFF99
:10176000FFFFFFFFBEF79EF7DFFFFFFFFFFFDFFF7B
:10177000FFFFFFFFFFFFFFFFFFFFFFFFFFFFFFFF79
:10178000FFFFFFFFFFFFFFFFFFFFFFFFFFFFDFFF89
:10179000FFFFFFFFBEF79EF7BEF7DFFFFFFFFFFF74
:1017A000FFFFFFFFFFFFFFFFFFFFFFFFFFFFFFFF49
:1017B000FFFFFFFF1010208F00000000000000005E
:1017C0000000000000000000000000000000000019
:1017D00000000000000000000000000007000F8073
:1017E0000F800F800F800F800700070000000000AF
:1017F000070007000700000000000E380E380E3802
:101800000E3806300000000000000000000000005C
:10181000000000000000000000000C300C300C3014
:101820007FFE7FFE0C300C300C300C307FFE7FFED4
:101830000C300C300C3000000000024002400FF869
:101840001FF81A401A401FF00FF8025802581FF8EC
:101850001FF00240024000000000000000000E10D7
:101860000E300E7000E001C0038007000E700C7097
:101870000870000000000000000000000F00198048
:10188000198019800F000F080F9819F818F018E048
:1018900019F00F980000000000000000070007008A
:1018A00007000E0000000000000000000000000023
:1018B00000000000000000000000000000F001C077
:1018C000038007000E000E000E000E0007000380CC
:1018D00001C000F000000000000000000F000380C5
:1018E00001C000E0007000700070007000E001C0F6
:1018F00003800F000000000000000000018011883C
:10190000099007E007E03FFC3FFC07E007E0099093
:1019100011880180000000000000000000000000AD
:101920000180018001800FF00FF0018001800180B3
:1019300000000000000000000000000000000000A7
:101940000000000000000000000000000000070090
:10195000070007000E00000000000000000000006B
:101960000000000000001FF81FF800000000000049
:101970000000000000000000000000000000000067
:101980000000000000000000000000000000070050
:101990000700070000000000000000000002000631
:1019A000000E001C0038007000E001C0038007003A
:1019B0000E001C0000000000000000000FF01C38AA
:1019C0001C781CF81CF81DB81DB81F381F381E38AD
:1019D0001C380FF0000000000000000001800180B2
:1019E00003801F801F8003800380038003800380A7
:1019F00003801FF000000000000000000FE01C70DA
:101A00001C380038007000E001C0038007000E3869
:101A10001C381FF800000000000000000FE01C70E0
:101A20001C380038007003C003C0007000381C3838
:101A30001C700FE0000000000000000000E001E06A
:101A400003E006E00CE018E01FF81FF800E000E0FB
:101A500000E003F800000000000000001FF81C0078
:101A60001C001C001C001FE01FF0007800381C3810
:101A70001C700FE0000000000000000003E0070001
:101A80000E001C001C001FF01FF81C381C381C38EE
:101A90001C380FF000000000000000001FFC1C1CA0
:101AA0001C1C1C1C001C0038007000E001C00380DE
:101AB0000380038000000000000000000FF01C38CD
:101AC0001C381C381F3807E007E01CF81C381C388D
:101AD0001C380FF000000000000000000FF01C3860
:101AE0001C381C381C381FF80FF8003800380070FC
:101AF00000E007C00000000000000000000000003F
:101B000003800380038000000000038003800380C3
:101B100000000000000000000000000000000000C5
:101B200003800380038000000000038003800380A3
:101B300007000000000000000000007000E001C08D
:101B4000038007000E001C001C000E00070003802D
:101B500001C000E000700000000000000000000074
:101B600000003FFC3FFC000000003FFC3FFC000089
:101B7000000000000000000000001C000E00070034
:101B8000038001C000E00070007000E001C003802D
:101B900007000E001C000000000003C00FF01E78BC
:101BA00018380038007000E001C001C000000000DB
:101BB00001C001C001C0000000000FF81C1C1C1C6B
:101BC0001C1C1C1C1CFC1CFC1CFC1CFC1C001C000D
:101BD0001C001FF007F800000000000003C007E031
:101BE0000E701C381C381C381C381FF81C381C3868
:101BF0001C381C3800000000000000001FF00E38E8
:101C00000E380E380E380FF00FF00E380E380E3832
:101C10000E381FF0000000000000000007F00E3832
:101C20001C381C001C001C001C001C001C001C3864
:101C30000E3807F000000000000000001FE00E70EA
:101C40000E380E380E380E380E380E380E380E3864
:101C50000E701FE000000000000000001FF80E18CA
:101C60000E080E000E300FF00FF00E300E000E08B2
:101C70000E181FF800000000000000001FF80E18EA
:101C80000E080E000E300FF00FF00E300E000E009A
:101C90000E001F00000000000000000007F00E38DA
:101CA0001C381C381C001C001C001CF81C381C387C
:101CB0000E3807F800000000000000001C701C70C7
:101CC0001C701C701C701FF01FF01C701C701C70AE
:101CD0001C701C7000000000000000000FE003807A
:101CE00003800380038003800380038003800380DC
:101CF00003800FE0000000000000000001FC007005
:101D000000700070007000700070387038703870AB
:101D100038700FE000000000000000001E380E3890
:101D20000E700EE00FC00F800F800FC00EE00E701F
:101D30000E381E3800000000000000001F000E00DA
:101D40000E000E000E000E000E000E000E080E1803
:101D50000E381FF800000000000000001C1C1E3C94
:101D60001F7C1FFC1FFC1DDC1C9C1C1C1C1C1C1C49
:101D70001C1C1C1C00000000000000001C1C1C1C83
:101D80001E1C1F1C1F9C1DDC1CFC1C7C1C3C1C1CEA
:101D90001C1C1C1C000000000000000003E007F0F9
:101DA0000E381C1C1C1C1C1C1C1C1C1C1C1C0E3857
:101DB00007F003E000000000000000001FF00E38F4
:101DC0000E380E380E380FF00FF00E000E000E0019
:101DD0000E001F00000000000000000003E00F786C
:101DE0000E381C1C1C1C1C1C1C1C1C7C1CFC0FF816
:101DF0000FF8003800FC0000000000001FF00E3853
:101E00000E380E380E380FF00FF00E700E380E38F8
:101E10000E381E3800000000000000000FF01C38D3
:101E20001C381C381C000FE007F000381C381C3828
:101E30001C380FF000000000000000001FFC19CC4F
:101E400011C401C001C001C001C001C001C001C076
:101E500001C007F000000000000000001C701C70B2
:101E60001C701C701C701C701C701C701C701C7012
:101E70001C700FE000000000000000001C701C70CF
:101E80001C701C701C701C701C701C701C700EE090
:101E900007C0038000000000000000001C1C1C1C88
:101EA0001C1C1C1C1C1C1C9C1C9C1C9C0FF80FF854
:101EB0000770077000000000000000001C701C701C
:101EC0001C700EE007C00380038007C00EE01C708A
:101ED0001C701C7000000000000000001C701C70D2
:101EE0001C701C701C700EE007C003800380038010
:101EF00003800FE000000000000000001FF81C3805
:101F00001838107000E001C0038007000E081C188C
:101F10001C381FF8000000000000000007F0070058
:101F20000700070007000700070007000700070079
:101F3000070007F00000000000000000100018007B
:101F40001C000E000700038001C000E00070003894
:101F5000001C0007000000000000000007F00070F7
:101F600000700070007000700070007000700070F1
:101F7000007007F0000000000000018003C007E0CF
:101F80000E701C380000000000000000000000007F
:101F90000000000000000000000000000000000041
:101FA0000000000000000000000000000000000031
:101FB000000000007FFF7FFF000000001C001C00ED
:101FC0000700070000000000000000000000000003
:101FD0000000000000000000000000000000000001
:101FE000000000000FE0007000700FF01C701C700B
:101FF0001C700FD800000000000000001E000E0042
:102000000E000E000FF00E380E380E380E380E3857
:102010000E381BF00000000000000000000000006F
:10202000000000000FE01C701C701C001C001C70E5
:102030001C700FE0000000000000000000F80070BD
:10204000007000700FF01C701C701C701C701C70F5
:102050001C700FD80000000000000000000000000D
:10206000000000000FE01C701C701FF01C001C70B2
:102070001C700FE0000000000000000003E007708B
:102080000770070007001FE01FE0070007000700B8
:1020900007001FC00000000000000000000000005A
:1020A000000000000FD81C701C701C701C700FF01A
:1020B00007F000701C700FE0000000001E000E0012
:1020C0000E000E000EF00F380F380E380E380E3896
:1020D0000E381E38000000000000000001C001C0E2
:1020E00001C000000FC001C001C001C001C001C09B
:1020F00001C00FF800000000000000000070007038
:102100000070000003F0007000700070007000703C
:1021100000701C700CF007E0000000001E000E00B4
:102120000E000E000E380E700EE00FC00EE00E70A6
:102130000E381E3800000000000000000FC001C073
:1021400001C001C001C001C001C001C001C001C087
:1021500001C00FF8000000000000000000000000B7
:10216000000000001FF81C9C1C9C1C9C1C9C1C9CC0
:102170001C9C1C9C000000000000000000000000EF
:10218000000000001FE01C701C701C701C701C7094
:102190001C701C7000000000000000000000000027
:1021A000000000000FE01C701C701C701C701C7084
:1021B0001C700FE0000000000000000000000000A4
:1021C000000000001BF00E380E380E380E380E38A6
:1021D0000FF00E000E001F000000000000000000C5
:1021E000000000001FB038E038E038E038E038E0A8
:1021F0001FE000E000E001F000000000000000002F
:10220000000000001EF00FF80F380E000E000E0048
:102210000E001F0000000000000000000000000091
:10222000000000000FE01C301C300F8003E018702D
:1022300018700FE000000000000000000000010026
:10224000030007001FF007000700070007000770E2
:10225000077003E000000000000000000000000024
:10226000000000001C701C701C701C701C701C7026
:102270001C700FD8000000000000000000000000EB
:10228000000000001C701C701C701C701C700EE0A4
:1022900007C00380000000000000000000000000F4
:1022A000000000001C1C1C1C1C1C1C9C1C9C0FF80F
:1022B0000770077000000000000000000000000030
:1022C000000000001CE01CE00FC0078007800FC06A
:1022D0001CE01CE000000000000000000000000006
:1022E000000000000E380E380E380E380E3807F099
:1022F00003E000E001C01F800000000000000000BB
:10230000000000001FE018E011C0038007000E204D
:102310001C601FE0000000000000000001F80380C6
:102320000380038007001C001C000700038003805B
:10233000038001F800000000000001C001C001C0DE
:1023400001C001C001C001C001C001C001C001C085
:1023500001C001C001C00000000000001F8001C0DA
:1023600001C001C000E00038003800E001C001C039
:1023700001C01F8000000000000000001F1C3B9CEB
:1023800039DC38F800000000000000000000000008
:1023900000000000000000000000000000F001F854
:1023A0000198019801F800F0000000000000000012
:1023B0000000000000000000000000001FF80E18E0
:1023C0000E080E000E000FF00E380E380E380E38C4
:1023D0000E381FF000000000000000001FF80E186B
:1023E0000E080E000E000E000E000E000E000E0075
:1023F0000E001F00000000000000000007F00C703D
:102400001C701C701C701C701C701C701C701C706C
:102410001C703FF830182008066000001FF80E18E6
:102420000E080E000E300FF00FF00E300E000E08EA
:102430000E181FF8000000000000000033CC1998AF
:10244000199819980DB00FF00FF01DB81998199838
:10245000199833CC000000000000000017E01E7047
:102460001C381038007003C003C0007000381C38DE
:102470001C700FE000000000000000001C701C70C9
:102480001C701C701C701C701CF01DF01F701E70E6
:102490001C701C7000000000038000001C701C7089
:1024A0001C701C701C701C701CF01DF01F701E70C6
:1024B0001C701C70000000000000000003F006709B
:1024C0000E700E700E700E700E700E700E700E701C
:1024D0000E701C7000000000000000001FF01C7057
:1024E0001C701C701C701C701C701C701C701C708C
:1024F0001C701C7000000000000000001C701C70AC
:102500001C701C701C701C700FF007F000700070C5
:102510001CE00FC000000000000000001FF0339816
:102520003398339833983398339833981FF0038057
:10253000038007C000000000000000001C701C7039
:102540001C701C701C701C701C701C701C701C702B
:102550001C701FF800180008000000001C701C70A0
:102560001C701C701C701C701FF00FF0007000704D
:10257000007000700000000000000000399C399CD1
:10258000399C399C399C399C399C399C399C399CA3
:10259000399C3FFC0000000000000000399C399C81
:1025A000399C399C399C399C399C399C399C399C83
:1025B000399C3FFE00060002000000003F002E0094
:1025C0002E000E000E000FF00E380E380E380E38AA
:1025D0000E381FF00000000000000000381C381CFE
:1025E000381C381C381C3F9C39DC39DC39DC39DCC0
:1025F00039DC3F9C00000000000000001F000E00BE
:102600000E000E000E000FF00E380E380E380E3889
:102610000E381FF000000000000000000FE01C70EA
:102620001C380038003803F803F8003800381C382C
:102630001C700FE000000000000000003CF81D9C32
:102640001D9C1D9C1D9C1F9C1F9C1D9C1D9C1D9CBE
:102650001D9C3CF800000000000000000FF81C70FA
:102660001C701C701C701C701FF00FF01C701C7014
:102670001C7038780000000000000000001807F807
:102680000F000E000E000FF00E380E380E380E3808
:102690000E3807F0000000000000000000000000FD
:1026A000000000001FF00E380E380FF00E380E3804
:1026B0000E381FF0000000000000000000000000C5
:1026C000000000001FF81C381C001C001C001C002F
:1026D0001C001C00000000000000000000000000C2
:1026E0000000000007F00E700E700E700E700E707D
:1026F0000E701FF81008000000000000000000002D
:1027000006C000000FE01C701C701FF01C001C7045
:102710001C700FE00000000000000000000000003E
:102720000000000019CC19CC19CC0DD807F00DD839
:1027300019CC19CC000000000000000000000000CF
:10274000000000000FE01C70007003E000700070DB
:102750001C700FE0000000000000000000000000FE
:10276000000000001C701C701C701CF01D701E709E
:102770001C701C7000000000000000000000000041
:1027800001C000000E380E380E380E780EB80F3823
:102790000E380E38000000000000000000000000AD
:1027A000000000000E380E380E700FE00E700E386C
:1027B0000E380E380000000000000000000000008D
:1027C0000000000003F807380738073807380738D3
:1027D00007380E3800000000000000000000000074
:1027E000000000003838383838383C783AB8393882
:1027F00038383838000000000000000000000000F9
:10280000000000001C701C701C701C701FF01C70FD
:102810001C701C70000000000000000000000000A0
:10282000000000001FF01C701C701C701C701C70DD
:102830001C701C7000000000000000000000000080
:10284000000000001FF013900380038003800380CA
:102850000380038000000000000000000000000072
:10286000000003801FF03BB83BB83BB83BB80FF00B
:1028700003800380038000000000000000000000CF
:10288000000000001C701C701C701C701C701C7000
:102890001C701FF80018000000000000000000007D
:1028A000000000001C701C701C701C700FF0007089
:1028B0000070007000000000000000000000000038
:1028C00000000000399C399C399C399C399C399C0A
:1028D000399C3FFC000000000000000000000000E8
:1028E00000000000399C399C399C399C399C399CEA
:1028F000399C3FFE000600000000000000000000C0
:10290000000000003E002E000E000FF00E380E38C2
:102910000E380FF000000000000000000000000072
:1029200000000000381C381C381C3F9C39DC39DCA6
:1029300039DC3F9C000000000000000000000000A7
:10294000000000000E000E000E000FF00E380E38D2
:102950000E380FF000000000000000000000000032
:10296000000000000FE01C70007003F000700070A9
:102970001C700FE0000000000000000000000000DC
:102980000000000038F8399C399C399C3F9C399CE8
:10299000399C38F800000000000000000000000032
:1029A0000000000007F80E380E380E3807F80E3811
:1029B0000E381C3800000000080C20A600000000A3
:1029C0000000000000000000000020202020202047
:1029D000002000000028505000000000000000000F
:1029E00000002828FC2850FC50500000002078A847
:1029F000A0603028A8F02000000048A8B05028347B
:102A000054480000000020505078A8A8906C0000A6
:102A1000004040800000000000000000000408109A
:102A2000101010101008040000402010101010109A
:102A30001020400000000020A87070A820000000B6
:102A40000000202020F820202000000000000000CE
:102A500000000000004040800000000000F800007E
:102A60000000000000000000000000000040000026
:102A700000081010102020404040800000007088A6
:102A8000888888888870000000002060202020202E
:102A900020700000000070888810204080F800003E
:102AA00000007088083008088870000000001030AE
:102AB00050509078101800000000F88080F008084E
:102AC000887000000000709080F088888870000096
:102AD0000000F890102020202020000000007088C6
:102AE000887088888870000000007088888878085E
:102AF00048700000000000002000000000200000DE
:102B00000000000000200000002020000004081049
:102B1000204020100804000000000000F80000F829
:102B200000000000004020100804081020400000B1
:102B300000007088881020200020000000007088AD
:102B400098A8A8B880780000000020203050507865
:102B500048CC00000000F0484870484848F00000A9
:102B60000000788880808080887000000000F04835
:102B70004848484848F000000000F848507050406D
:102B800048F800000000F8485070504040E0000055
:102B90000000384880809C88483000000000CC4805
:102BA0004878484848CC00000000F8202020202029
:102BB00020F8000000007C10101010101090E000B1
:102BC0000000EC485060505048EC00000000E0402D
:102BD0004040404044FC00000000D8D8D8D8A8A805
:102BE000A8A800000000DC486868585848E80000C1
:102BF0000000708888888888887000000000F0488D
:102C00004870404040E0000000007088888888E8F4
:102C1000987018000000F0484870504848EC0000D8
:102C2000000078888060100888F000000000F8A894
:102C300020202020207000000000CC484848484850
:102C4000483000000000CC484850503020200000A0
:102C50000000A8A8A8705050505000000000D850A4
:102C60005020205050D800000000D8505020202084
:102C7000207000000000F8901020204048F800006C
:102C80000038202020202020202038000040404014
:102C900020201010100800000070101010101010EC
:102CA0001010700000205000000000000000000024
:102CB0000000000000000000000000FC00200000F8
:102CC0000000000000000000000000000030483854
:102CD000483C00000000C040407048484870000078
:102CE000000000000038484040380000000018088C
:102CF00008384848483C0000000000000030487890
:102D00004038000000001C2020782020207800009F
:102D100000000000003C4830407844380000C040CB
:102D20004070484848EC000000002000006020206F
:102D3000207000000000100000301010101010E093
:102D40000000C040405C507048EC00000000E020F3
:102D50002020202020F800000000000000F0A8A89B
:102D6000A8A800000000000000F0484848EC00005F
:102D7000000000000030484848300000000000001B
:102D800000F04848487040E0000000000038484823
:102D90004838081C0000000000D8604040E00000F7
:102DA000000000000078403008780000000000209B
:102DB00020702020201800000000000000D84848A3
:102DC000483C00000000000000EC485030200000AB
:102DD0000000000000A8A870505000000000000093
:102DE00000D8502050D800000000000000EC4850EF
:102DF000302020C000000000007810202078000063
:102E000000181010102010101010180010101010C2
:102E10001010101010101010006020202010202022
:102E20002020600040A41800000000000000000006
:102E30000000304848300000000000000000F84862
:102E40004070484848F000000000F84840404040CA
:102E500040E00000000038484848484848FC8400EA
:102E60005000F8485070504048F800000000A8A8F2
:102E7000A870F8A8A8A800000000F088083008088A
:102E800008F000000000EC485858686848DC000072
:102E90003000EC485858686848DC000000003C48A6
:102EA0004848484848CC00000000FC48484848488A
:102EB00048CC00000000D850502020404080000046
:102EC000000070A8A8A8A870207000000000CC48DE
:102ED0004848484848FC04000000CC4848483808A6
:102EE000081C00000000D6545454545454FE0000F2
:102EF0000000D6545454545454FE02000000E0C064
:102F00004070484848F000000000EE4444645454C7
:102F100054EE00000000E0404070484848F00000D7
:102F20000000E09008380808906000000000EC52B3
:102F30005252725252EC000000003C484848384857
:102F4000489C0000000008304070484848300000AD
:102F50000000000000702830287000000000000011
:102F600000782820207000000000000000182828A9
:102F7000287C4400000000280030487840300000E1
:102F800000000000005454385454000000000000B9
:102F900000700830087000000000000000CC4858A5
:102FA00068CC00000000003000CC485868CC00001D
:102FB0000000000000485060504800000000000081
:102FC000001C2828284C00000000000000446C541D
:102FD000444400000000000000CC487848CC0000C9
:102FE0000000000000FC484848CC00000000000041
:102FF000007C5410103800000000000000385454C9
:10300000543810380000000000CC484848FC040048
:103010000000000000CC4838080C00000000000050
:1030200000545454547C00000000000000545454D8
:10303000547E02000000000000E0A0302870000074
:103040000000000000C6446454E6000000000000D8
:103050000060203028700000000000000030481898
:10306000483000000000000000C8547454C800003C
:1030700000000000003C4848384C00003CE781BD9F
:1030800081BD81BD81BD81FF3CE7818181BD81BD65
:1030900081BD81FF3CE78181818181BD81BD81FF4F
:1030A0003CE781818181818181BD81FF3CE7818114
:1030B00081818181818181FFFFFF003F3F000F0FF0
:1030C000000303000000003F3F000F0F0003030058
:1030D0000000000000000F0F0003030000000000CC
:1030E0000000000000030300000010101010105436
:1030F000381000000000103854101010101000009C
:103100000000000010087C08100000000000000013
:1031100010207C20100000000000003C0C1424440F
:1031200080000000000000804424140C3C000000DB
:1031300000003C42A581A599423C000000003C7E75
:10314000DBFFFFDB663C000000003C42A58199A547
:10315000423C000000003C7EDBFFFFE75A3C0000E1
:1031600000003C4281818181423C000000003C7EA5
:10317000FFFFFFFF7E3C00000000FF818181818115
:1031800081FF00000000FFFFFFFFFFFFFFFF0000C7
:1031900000002100240027002A002D003000330009
:1031A00001010000040107010A0100000A0B0209E5
:1031B0000C0D0E08070304010000000000000000D1
:1031C00000000000000000000000000000000000FF
:1031D00000000000000012111000000000000000BC
:1031E00000000000000000000000000000000000DF
:1031F000027C3C3E5E2B3D3F2F5B5D3B2C2A225CDC
:10320000001F1C1F1E1F1E1F1F1E1F1E1F005EBC37
:10321000E2613FDD83C29C7E20A3FD1F419DC3214F
:103220007FFCA2401E5F01E3BD3E6082DC237D9FE8
:10323000C1421CFEA0E1BF5D0380DE3C62BEE00235
:103240005CDF81633D7C22C09E1D43A1FF4618FACE
:10325000A427799BC584DA3866E5BB5907DB856707
:1032600039BAE406581947A5FB7826C49A653BD9B4
:1032700087045AB8E6A7F91B45C6987A24F8A644ED
:103280001A99C7257B3A6486D85B05E7B98CD2309A
:103290006EEDB3510F4E10F2AC2F7193CD114FADB7
:1032A000F3702ECC92D38D6F31B2EC0E50AFF11380
:1032B0004DCE90722C6D33D18F0C52B0EE326C8E9D
:1032C000D0530DEFB1F0AE4C1291CF2D73CA94765E
:1032D00028ABF517490856B4EA6937D58B5709EB7F
:1032E000B536688AD495CB2977F4AA4816E9B7553C
:1032F0000B88D6346A2B7597C94A14F6A8742AC865
:1033000096154BA9F7B6E80A54D7896B3500002209
:1033100000250028002B002E00310034000201009F
:1033200000050108010B01000020002300260029F0
:10333000002C002F003200000100000301060109EB
:103340000105050505070508080808020202020A2A
:103350000A08080404040401010101010101010338
:1033600003030303030303040707070C0C0C0C0CF3
:103370000C0C0C0202020206060606060606060BE6
:103380000B0B0B0B0B0B0B0102102020080810205D
:1033900040102040800201020108040201010204E1
:1033A00008102040808040201008040201800402A0
:1033B00001804020100804020108040201010204F7
:1033C00008102040800102040810204080FFF7FF11
:1033D000F7FFFFFFFFFEFFFDFFDEFFFEFFFDFFFF2C
:1033E000FF9FEFDFF73FDF9FE7FFF7FFF7BFF7BF75
:1033F000FFDFFFFEFFFEFFFDFFFCFFFCFFFCFFFD0C
:10340000FFFEFFFFFFDFFFDFFFDFFFDFFFFFFFFF4D
:10341000FFFFFFFFFFFEFFFFFFFFFFFFFFFFFFFFBD
:10342000FFFFFFFFFFFFFFFFFFFFFFFEFFFFFFFFAD
:10343000FFFFF7FFFFFFFFFFFFFEFFFEFFDFFFFFC6
:10344000FFDDF7FFF77FDFDFCE3C951A8DDDA5FFAF
:10345000CE9FEFFFFFFFFFFFFFFFFFFEF7FEFFFE28
:10346000FFFEFFFEFFFEFFFFFFFFFFDFFFDFFFDFCF
:10347000FFDFFFFFFFFFFFFEFFFEFFFEFFFFFFFF7F
:10348000FFFFFFFFFFFFFFFFFFFFFFFFFFFFFFFF4C
:10349000FFFFFFFFFFFEFFFFFFFFFFDFFFDFFFDE9E
:1034A000FFDFFFFFFFFFF79FDF3C8D9F95FF9D1F15
:1034B0009E3D85DB7C3B8DDDADDFCE9FE7FFF7FFDB
:1034C000F7FFF7FFFFBEEFDEF7FFFFFFFFFFFFDFB6
:1034D000FFBFFFBFFFFFFFFFFFFFFFFFFFFEFFFE7E
:1034E000FFFFFFFFFFFFFFFFFFFFFFFFFFFFFFFFEC
:1034F000FFFFFFFFFFFFFFFFFFFEFFFFFFDFFFDF1D
:10350000FFDFFFDFFFDFFFFFF7FFEF9DB61222D4E3
:1035100011D72A7E5C9F7DBFAEFF9D5E8DDC7CFB5C
:103520007C9C959FBE9FDFFFEFFFF7FFF7BFEFBFCC
:10353000F7FFFFFFFFFFFFFFFFFFFFFFFFFFFFFFA3
:10354000FFFFFFFFFFFFFFDFFFFFFFFFFFFFFFFFAB
:10355000FFFFFFFFFFFFFFFFFFFFFFFFFFFEFFFF7C
:10356000FFDFFFDFFFDFFFDFFFDFFFFFF7FFE71F0B
:10357000BFB62A581AF7013702F6017812FD4B1F21
:10358000753F965F9E9F8DDC74FB7C3B8D7FB67F85
:10359000DFFFF7FFF7DFF77EE7BEF7FFFFFFFFDF95
:1035A000FFDFFFDFFFFFFFFFFFFFFFFFFFFFFFFF6B
:1035B000FFFFFFFFFFFFFFFFFFFFFFFFFFFFFFFF1B
:1035C000FFFEFFFFFFDFFFBFFFDFFFDFFFDFFFFFCC
:1035D000F7FFE7BFAEB301590A5A0AFC1A9A0A3933
:1035E00002390AF701170A5B33DF6CFF951F9EBF94
:1035F000951D85DA7CF9841CAE9FE7FFF7FFF7DFA6
:10360000EFFFFFFFFFFFFFFFFFFFFFFFFFFFFFFFDA
:10361000FFFFFFFFFFFFFFFFFFFFFFFFFFFFFFFFBA
:10362000FFFFFFFFFFFEFFFFFFDFFFDFFFDFFFDF2B
:10363000FFDFFFFFF7FFE7DFB6F4095A123601D8C4
:10364000013A023A0219027B12DC1A5A12D7011807
:10365000125C3B7F64BF951F9E1F9E5D8DB974D821
:103660007CFCA51FCF5FDF9FEFFFFFFFFFFFFFFF8A
:10367000FFFEFFFFFFFFFFFFFFFFFFFFFFFFFFFF5B
:10368000FFFFFFFFFFFFFFFFFFFEFFFFFFDFFFDF8B
:10369000FFDFFFDFFFFFFFFFF7FFEFDFB6D31159BB
:1036A0001A9200F40055011401B701B701F8013A6C
:1036B000125B1A5A1A1912D7091712D92A1D547FE8
:1036C000853F9E3F9E7E85DA7C19951CB65FE7FF9D
:1036D000FFFFFFFFFFFFFFFFFFFFFFFFFFFFFFFFFA
:1036E000FFFFFFFFFFFFFFFFFFFFFFFFFFFEFFFFEB
:1036F000FFFFFFDFFFFFFFFEFFFFFFFFF7FFEFFF13
:10370000BE7009F519F200B501540174015401F3BA
:103710000014011401560119127B1A5A1A191219B0
:10372000123912170AB9229B3B9F7DFF955FB67F26
:10373000C69EC6BFEFBFEFFFFFBEF7FEFFFFFFFF56
:10374000FFFFFFFFFFFFFFFFFFFFFFFFFFFFFFFF89
:10375000FFFEFFFFFFFFFFDFFFFEFFFEFFFFFFFF9C
:10376000FFFFF77CB6322AB319AF0011017209527C
:103770000131015201B5117409F300D300F400F6D0
:1037800000FA113B1A7B1A1A0A390A18027A1257E0
:103790001A5B6C5FDFDFCE7DBEFFF7FFFFFFFFFF31
:1037A000FFFFFFFFFFFFFFFFFFFFFFFFFFFFFFFF29
:1037B000FFFFFFFFFFFFF7FFFFFFFFFFFFFEFFFD24
:1037C000FFFEFFFFFFFFFF3ED7797CD221AE002F27
:1037D000097119EF08701130090F09310952097484
:1037E0000995097601150157015701B9013B0A7C7A
:1037F000121A02180A752ADC847FDFFDAD1FD7FF7D
:10380000F7DFEFFFFFFFFFFFFFFFFFFFFFFFFFFF00
:10381000FFFFFFFFFFFFFFFFFFFFF7FFFFFFFFFFC0
:10382000FFFEFFFDFFFEFFFEFFFDF7DFEF7CA54F74
:10383000196C000E11CD080E110D112D11CC080EB2
:1038400009500910013209530134015501F500D422
:10385000001601B901B9017A1A151A13227FB6BFF1
:10386000DF9A9DDFEFFFF7FFFFFFFFFFFFFFFFFF87
:10387000FFFFFFFFFFFFFFFFFFFFFFFFFFFFF7FF60
:10388000FFFFFFDFFFFEFFFDFFFEFFFEFF9CEFFFE0
:10389000F71B95EE10AD002F118D00F54A1B953BDF
:1038A0009DB563B242F029ED00EE00CF0011015248
:1038B00001F611950155013501B3003401740193EE
:1038C00011B5323FCFFFC65CB6FFF7FFFFFFFFFF2A
:1038D000FFFFFFFFFFFFFFFFFFFFFFFFFFFFFFFFF8
:1038E000FFFFFFFFFFDFFFDFFFDFFFFEFFFEFFFF4A
:1038F000FFFEFFFFF7DB8C2F112F11CE088D00F993
:103900006BFFEFFFF79FC6DFCEDFEFDFCEFC84B4A7
:103910003AF1218D005109F0007301B409740113CB
:1039200001F20094096D00564BFFE77DBE7BBEFFA0
:10393000FFFFFFFFFFFFFFFFFFFFFFFFFFFFFFFF97
:10394000FFFFFFFFFFFFFFFFFFDFFFDFFFDFFFDE08
:10395000FFDFFFFFFFFFFFFFEF9E9DEF08CF004D52
:1039600000CF00F2299FE73FDF72638B21B04277DF
:103970007CFFCEDFE775536E11F4424F090E01CE86
:1039800000B2119311540175093101CD00BD9D7F25
:10399000D73AB67EE7DFF7DEF7FFFFFFFFFFFFFF57
:1039A000FFFFFFFFFFFFFFFFFFFFFFFFFFDFFFDF67
:1039B000FFFFFFFEFFDFFFDFFFBEF7FFF71FCF3187
:1039C00009EE00CD00122A0900E9087DC6FFF75E66
:1039D000BEF04A05002A11703A8D19B23AFFE7FF8E
:1039E000C63A6CED080E09CE00120154093201EFFF
:1039F000006E115FB6DFEF579D9FEFBEF7DFFFFF51
:103A0000FFFFFFFFFFFFFFFFFFFFFFFFFFFFFFFFC6
:103A1000FFFFFFFFFFFFFFFEFFDFFFBFFFFFFFDF37
:103A2000EF7FAE91094900F66B7FE719956C3A2755
:103A300011F36B1FD7FFEF5C9569002D094E118BB9
:103A400000D44ABC847763F5523763F239CF08F16A
:103A5000081309D200D52154321FAE8B19DED6BF10
:103A6000F7FFFFDFFFFFFFFEFFFDFFFDFFFFFFFF93
:103A7000FFFFFFFFFFFFFFFFFFFEFFFEFFDFFFBFB8
:103A8000FF1DEFFFF73FA69209AB00167CDFFFBFDB
:103A9000F7FFFF9DCE968C7EBEFFEF9FDFFB8CCBAA
:103AA00008AB008B0049002900AE29798CDA9CB262
:103AB000522D19EE08B000D100941114221D8D6B07
:103AC000111FDFDFFFDFFFDFFFFFFFFFFFFDF7FD60
:103AD000F7FFFFFFFFFFFFFFFFFFFFFFFFFEFFFE00
:103AE000FFDEFFBEFFFFFF5FDFB63232014D000A8F
:103AF00000503917731CADBFFFDFFFBFF7DFF7FFC3
:103B0000F75FE7C8089363567C7263EF4AB68CBDD3
:103B1000CE1ED7FED67FDF797CED006D00D211D5A9
:103B2000321B85CC215FE7FFFFDFFFBFFFDFFFFF19
:103B3000FFFFF7FFFFFFFFFFFFDFFFDFFFDFFFFFFD
:103B4000FFFFF7FEF7DEFFDEFFBFFFFFD6510113D9
:103B5000018E082C100B080B104C10CD2015633D66
:103B6000AD7FD65FCE9473C810DFF7FFFF7FE7BF4E
:103B7000EFFFF7FFF7BDE7FFF7FFF71FCFF342AC0B
:103B800000900951221A7D8A195FDFBFF7DFFFBF5E
:103B9000FFDFFFDFFFFFFFFFFFFFFFFFFFDFFFDFB5
:103BA000FFDFFFFFFFFFF7FEF7FFFFDFFFDFFFBFD6
:103BB000CE300193112B006B200A200B186E100BD6
:103BC000004D006D086C102A082910B67B7FFFDFBE
:103BD000FFDFFFBFF79FEFBFEFFFF7FFF7FFEFFF3D
:103BE000EF386CCC00900931227B852B227EDFDF01
:103BF000F7DFFF9FFFDFFFDFFFDFFFFFFFFFFFFFBD
:103C0000FFFFFFFFFFDFFFFFFFFFF7FFF7DFFFDF34
:103C1000FFFFFF3CB60E01B2190700A828052826B1
:103C2000202808CC104A080A008D186D100B008D52
:103C3000187352398C9FD6DFFFDFF7DFF7FFF79F4E
:103C4000EFFFF79FC672326C00F2193222B86CF6A1
:103C50007CFFEFFFFFFFFFDFFFDFFFDFFFDFF7FF8F
:103C6000FFFFFFFFFFFFFFFFFFFFFFFFFFFFF7FF6C
:103C7000F7DFFFDFFF9FEFDEC6EF196C09A83132D7
:103C8000BD6EB4288BC351023100084618AB180B27
:103C9000004E0070004F002D006C008F29F35AB5C4
:103CA00073B583D58391526F218E008F007309D62F
:103CB00032712A1BA6FFEFFFFFFEFFFEFFFFFFFF93
:103CC000FFDEFFFFFFFFFFFFFFFEFFFEFFFFFFFF27
:103CD000FFFFF7FFF7DFFFBFFFFFFF9DC68C09095E
:103CE00001274290C5CBBC2BD56AD567B4A79B45AD
:103CF0006282202510691009000C00F0186E080B74
:103D0000004C084B080800090809004C08D1100FA6
:103D10000055095FA63122756CFFE7FEF7DDFFDC79
:103D2000FFFEFFFEFFFDFFFEFFFFFFFFFFFEFFFEAA
:103D3000FFFFFFFFFFFFF7FFF7DFFFBFFFFFFF7C86
:103D4000BE8C094A09474AB4E66DD586BC25DD24F8
:103D5000DD24D545D506CD05AC847264490318072A
:103D6000100B104E104E082D004D008D086C100BDE
:103D7000089110310035111E645FAE8B115DD7FEC6
:103D8000F7FDFFFDFFFDFFFDFFFDFFFEFFFFFFFF56
:103D9000FFFEFFFEFFFFFFFFFFFFF7FFF7DFFFBFA5
:103DA000FFFFFF7CBE8D094B09AB52DBFF78FF554F
:103DB000FFABED67E505DDE4DC05DD06DDE7DCA94D
:103DC000D46CC4C98AE54804180610280869088A12
:103DD0001028102A10B01851005100F6213E858B92
:103DE000113ED7FFF7FDFFFDFFFEFFFEFFFEFFFECA
:103DF000FFFFFFFFFFFFFFFFFFFFFFFFFFFFF7FFDB
:103E0000F7DFFFBFFFFFFF9EC66F09ED004E429F29
:103E1000FF9FFF9EFF9DFF9CFFD8FEF4FD30F5CC79
:103E2000E4A9E4A6E4E5EC25ED46EDC7D4659BA244
:103E300059603000184320041009008E083319D44B
:103E4000215F8D6B113ED7FFF7FEFFFFFFFFFFDF06
:103E5000FFFFFFFFFFFFFFFFFFFFFFFFFFFFFFFF72
:103E6000FFFFF7FFF7DFFFBFFFDFFF5DBE70093029
:103E700001924ABFFF9FFF7FFF1FFF5FFF7FFF7F12
:103E8000FF7DFFF7FE51FEECFDE4E4C2DCC1DC0384
:103E9000E527EDE9E44AD4CABB256A454105084A4D
:103EA000089221F4297F950A093FD7FFF7FFFFFF0A
:103EB000FFDFFFDFFFFFFFDFFFFFFFFFFFFFFFFF72
:103EC000FFFFFFFFFFFFF7FFF7DFFFBFFFDFFF5D34
:103ED000BE70093101B34A9FF7FFEE7FEE9FFF9F4F
:103EE000FFBFFFBEFFFCFFFBFFF9FFD8FFD8FFF5C8
:103EF000FEAFEDCBE469EC68F446FC46ECCBCCAE0F
:103F0000ACAC62C9180E1950197E956B113FD7FFE2
:103F1000F7DFFFDFFFDFFFDFFFDFFFDFFFFFFFFF79
:103F2000FFFFFFFFFFFFFFFFFFFFFFFFFFBFFFBF21
:103F3000FFDFFF7EC670092F01913A7FEFBFDE3CA5
:103F4000CEBAC51ACEDBDEBDF7FDFFFDFFFDFFFDDE
:103F5000FF5BF7BDFFBDFF7AFF74FEAEFD2AFDE8F3
:103F6000EC4ADDCFD5509C09290D19B021BE9DAC7E
:103F7000193ED7FFF7FFFFFFFFFFFFDFFFFFFFDF68
:103F8000FFFFFFFFFFFEFFFEFFFEFFFFFFFFFFFF44
:103F9000FFBFFF9FFFDFFF5DC66F096E013043FF6C
:103FA000F7FFFFFDF7DDE77BD7B9C637B617BE9A37
:103FB000D65DF7FFFFFEFFFDFFDCFFBBFFFBFFFB56
:103FC000FFFAFF76F78BCDCEDDB0B4C7202D2111DF
:103FD000325D952A113ED7FFF7FEFFFEFFFFFFDFA0
:103FE000FFFFFFFFFFFFFFFFFFFCFFFDFFFEFFFFE7
:103FF000FFFFFFFFFFBFFFBFFFDFFF7DBE8F094E4B
:1040000001AE3ADFE7BCEF9AE7FDEFFDEFFEF7FE0A
:10401000EF1CDF5ACEF9CDD8CD9ADE7CF7FEFFFD3E
:10402000FFFDEFFEEFFEE7FDF7F8FFD9FF9AE64A46
:10403000312D19F1293B8D8A193ED7FFF7FEFFFE7E
:10404000FFFFFFFEFFFFFFFFFFFFFFFFFFFBF7FC90
:10405000FFFFFFDFFFDFFFDFFFDFFFFFFFFFF7DF18
:10406000C64F090F01B342DFF73DE7D4BD56C6D8AE
:10407000CE5BE7DEF7FFFFFFFFDFFF9FF79AD65823
:10408000C617BE78C61BD7DDE7FEEFFEF7FDFFDFE4
:10409000FF5FEF6D212D0910229C8DA9115DD7FFC7
:1040A000F7FFFFFFFFFFFFFFFFFFFFFFFFFFFFFF28
:1040B000FFFBF7FCF7FFFFDFFFBFFFBFFFFFFFFFC7
:1040C000F7FFEFDFBE4F09300933325FE79FF7FE9E
:1040D000FF5CF7FBE659CE18C659CEFBE69EF7FF0C
:1040E000FFFFFFFFFF9EEFFBDE79C638C679CEBA31
:1040F000D65EEFDFFF3FDF8E194F1131229B8D8996
:10410000095DD7FFF7FFFFFFFFFFFFFFFFFFFFFF87
:10411000FFFFFFFFFFFEF7FFF7FFFFBFFFBFFFBF80
:10412000FFFFFFFFF7FFE79DAE6E09901152329F30
:10413000EF1CE79CF75FF79FFF9FFF5FF7DCDE59FF
:10414000CE38CE57CE3BE77CEFDEFFFFFFFFFFBF51
:10415000F7FDDE5ACE1DE7BFF73FDF8E194E113156
:10416000227B8D89115DD7FFF7FFFFFFFFFFFFFF68
:10417000FFFFFFFEFFFFFFFFFFFFF7FFFFDFFFBFB8
:10418000FFBFFFBFFFFFFFFFF7FFEFBEB66D092EBA
:1041900009102ABFEFF8B554A51AC69CD63FEFDF29
:1041A000FFFFFFBFF75DEF1BE758CE38C618C69A72
:1041B000D63DEFBFFFFFFFDFFF9EF7FFFF3FE76D3D
:1041C000192E0910227B8D89115ED7FFFFFFFFFF9B
:1041D000FFFFFFFFFFFFFFFEFFFFFFFFFFFFF7FFF8
:1041E000FFDFFFBFFFBFFFDFFFFFFFFEF7FFEFBEF9
:1041F000B64C090D01F0297FDFFDD63CE799CEF6DC
:10420000BD55AD76AD59CE3DE79FF7BFFFBFFF9FD0
:10421000FF3EEF9BDEF8CDF7C579D6FAE69DFFFFAE
:10422000FF5FE78D212E1110227C8D8A113ED7FF72
:10423000FFFFFFDFFFFFFFFFFFFFFFFEFFFFFFFFAF
:10424000FFFEFFFFFFFFFFDFFFDFFFDFFFFEFFFEE1
:10425000F7FFEF7DB66D118F116F197A7C9BAD7FE3
:10426000E79DE77CE71BDF9ACE19BED8BDF9BD1AE2
:10427000C6FEE65FEFDFFFFFFFBEFF1BEF98DE57D6
:10428000D65BF7DFFF5FE78D214E1111225C8D4970
:10429000113FDFFFFFDFFFDFFFFFFFFFFFFFFFFE3D
:1042A000FFFFFFFFFFFCFFFDFFFFFFFFFFDFFFFF43
:1042B000FFFDFFFEF7FFF79EBE6E1150118E00CE80
:1042C000088F29904AB68CD9AD3ED7BFEF5EDFBCD0
:1042D000CE7AC659C695AD95B5F6BD99D65BEFDDDC
:1042E000FFFEFFFDFF3BEFBFFF3FE76D214E1111CA
:1042F000225C956A113FDFFFFFDFFFDFFFFFFFFF5B
:10430000FFFFFFFEFFFFFFFFFFFCFFFCFFFEFFFEC6
:10431000FFFFFFFEFFFDFFFEF7FFF79EBE2C112FF4
:1043200011711951199021AB08CA084B116F3A3518
:1043300074FBAD1ED75EDF3DDF3CDF1BDFB9CE1661
:10434000BEB5B5D5B577CEF9DE9CF7FFFF3FDF4CA4
:10435000190D09F1217C958B213FDFFFFFDFFFDF86
:10436000FFDFFFFFFFFFFFFEFFFFFFFFFFFCFFFD83
:10437000FFFEFFFEFFFEFFFEFFFEFFFEFFFFF71F3B
:10438000D799841132AD08CE084F197021B221712E
:10439000190E09CC000B090E2AF46B99A5BCC63D79
:1043A000D75DDF1BD7FAD61AD777C6B4ADF7BD9F56
:1043B000EF1FDF4D196F11D0199D9D4A111FDFDFCF
:1043C000FFDFFFBFFFDFFFFFFFFFFFFFFFFFFFFF7D
:1043D000FFFEFFFEFFFFFFFFFFFFFFFFFFFEFFFFF0
:1043E000FFFFFFFFF7FFF71FD7DFAD397C71420DED
:1043F00011CE00EF087119D121B0214D110B090A1E
:10440000098B19715B799D9CBEDDCE1DD73DD73DD3
:10441000DFDCD6DDD69FC66E19B1191222FB84CC23
:10442000213FDFFFFFDFFFDFFFDFFFFFFFFFFFFFBA
:10443000FFFFFFFFFFFFFFFFFFFFFFFFFFFFFFFF8C
:10444000FFFFFFFFFF7DEFDFF7FFFFFFF7FFF7BF86
:10445000EF3FD79FC65774144BCF210C09ED080EC0
:10446000114F1170192F11EE10ED086E21D24A99DB
:104470007C1EB61FD73FDFFFD69FC6CD00AD0053D1
:104480002A1B85CC213EDFFFFFDFFFDFFFDFFFFFC1
:10449000FFFFFFFFFFFFFFFFFFFFFFFFFFDFFFFF4C
:1044A000FFFFFFFFFFFFFFFFFFFFFFFFFFFFFFDF3C
:1044B000F7DFF7FFF7FFF7FFEFFFEF7FD73DAE3AEC
:1044C0008D5874555B11322F110F11101130195185
:1044D000191011EF085019113298849CA5BFA591AD
:1044E000111001742A1A8528093EDFDFFFDFFFDF84
:1044F000FFDFFFFFFFFFFFFFFFFFFFFFFFDFFFDF2C
:10450000FFFFFFFFFFFFFFFFFFFFFFFFFF9EF7BE65
:10451000FFDEFFFEFFFFFFFFFFFFF7FFF7FFEFFFED
:10452000EFFFF7FFF7FFF7BFE79EBE7B9D94633178
:10453000320E09F01073219521551933194B000CD7
:10454000092F09CF003101B1115C8D0B2A3DD7DE57
:10455000F7DFFFBFFFDFFFFFFFFFFFFFFFFFFFFFF3
:10456000FFFFFFFFFFFFFFFFFFFFFFFFFFFFFFDF7B
:10457000FFFFFFFFFFFEFFFEFFFDFFFEFFFEF7FE5A
:10458000F7FFFFFFFFDFF7BEEFFFEFFFF7FFF7FFDC
:10459000F7FFF75FD7BDA5D863D1218E00D0007299
:1045A00019B021F121CF0073099309B1091A7D27B0
:1045B000095DDFFEFFFEFFBEFFDFFFDFFFFFFFFF46
:1045C000FFFFFFFFFFFEFFFEFFFEFFFFFFFFFFFFFE
:1045D000FFFFFFDFFF9FFFBEFFDEFFFEFFFEFFFFCF
:1045E000FFFFFFFFFF9CEFDDFFFEFFFFFFFFFFFF71
:1045F000FFFFF7BFE7DFEFFFF7FFEFFFEF5FD758F2
:104600008DCE3A29090C093009D000940973015460
:10461000225B85C9199EE7FEFFFEFFBEFFDFFFDFBD
:10462000FFFFFFFFFFFFFFFFFFFEFFFEFFFEFFFE9E
:10463000FFFFFFFFFFFFFFFFFFDFFFDFFFDEFFFEEC
:10464000FFFEFFFFFFFFFFFFFFFEFFFEFFFEFFFE7F
:10465000FFFFFFFFFFFFFFFFF7FFF7FFF7FFEFFF92
:10466000EFFFF7FFEFDDDF3DCFB884B33A9111B232
:10467000198D00AF11FC9D7795DEEFFEFFFEFFBEAA
:10468000FFDFFFFFFFFFFFFFFFFFFFFFFFFFFFFF5A
:10469000FFFFFFFFFFFFFFFFFFFFFFFFFFFFFFFF2A
:1046A000FFFFFFFFFFFFFFFFFFFFFFFFFFFFFFFF1A
:1046B000FFFFFFFFFFFFFFFFFFFFFFFFFFFFFFFF0A
:1046C000FFFFFFFFFFFFFFFFF7FFF7FFF7FFFFFF12
:1046D000F71FD7D98CF24AD46BBDC6FFF7FFFFFE98
:1046E000FFFFFFFFFFFFFFFFFFFFFFFFFFFFFFFFDA
:1046F000FFFFFFFFFFFFFFFFFFFFFFFFFFFFFFFFCA
:10470000FFFFFFFFFFFFFFFFFFFFFFFFFFFFFFFFB9
:10471000FFFFFFFFFFFFFFFFFFFFFFFFFFFFFFFFA9
:10472000FFFFFFFFFFFFFFFFFFFFFFFFFFFFFFFF99
:10473000FFBEF7DFFFFFFFDFF7BFEFFFF7FFF7BDBC
:10474000EFFEFFFEFFFFFFFFFFFFFFFFFFFFFFFF8B
:10475000FFFFFFFFFFFFFFFFFFFFFFFFFFFFFFFF69
:10476000FFFFFFFFFFFFFFDFFFFFFFFFFFDFFFDFB9
:10477000FFFFFFFFFFFFFFFFFFBFFF5DF73DEF3DC7
:10478000EF3CEF1CE77DF75DEF5DEF5DEF5CEF7DEC
:10479000F77DF79DF79DF7BDF7FEFFFFFFBEF7DF43
:1047A000FFFFFFFFFFFFFFFFFFFFFFFFFFFFFFFF19
:1047B000FFFFFFFFFFFFFFFFFFFFFFFFFFFFFFFF09
:1047C000FFFFFFFFFFFFFFFFFFFFFFDFFFFFFFFF19
:1047D000FFDFFFDFFFFFFFDFFF7EF77EF75DEF1CF0
:1047E000E71CE71CE71CE7DBDE1CE71CE71CE71CFB
:1047F000E71BE71BE7FBE6FBDEB9D61ADF9DF7FFF9
:10480000FFFFFFFFFFFFFFDFFFFFFFFFFFFFFFFFD8
:10481000FFFFFFFFFFFFFFFFFFFFFFFFFFFFFFFFA8
:10482000FFFFFFFFFFFFFFFFFFFFFFFFFFFFFFDFB8
:10483000FFFFFFFFFFFFFFFFFFFFFF9EF7FCE61CF0
:10484000EF3DEF1CE71CE73CEF1CE7FCE6FBE61B3B
:10485000E71CE71CE71BE7DADEB9D699D637C6575F
:10486000C6DADEDEF7FFFFFFFFFFFFDFFFFFFFFF20
:10487000FFFFFFFFFFFFFFFFFFFFFFFFFFFFFFFF48
:10488000FFFFFFFFFFFFFFFFFFFFFFFFFFFFFFFF38
:10489000FFFFFFFFFFFFFFFFFFFFFFFFFFDFFF5DEA
:1048A000EFDBDE1CE73DEF3CEF3DEF5DEF3DEF1C46
:1048B000E7FBE61BE71BE71BE7FBE6DADE99D678AA
:1048C000CE37C616BE37C61BE7FFFFFFFFDFFFFF71
:1048D000FFFFFFFFFFFFFFFFFFFFFFFFFFFFFFFFE8
:1048E000FFFFFFFFFFFFFFFFFFFFFFFFFFFFFFFFD8
:1048F000FFFFFFFFFFFFFFFFFFFFFFFFFFFFFFFFC8
:10490000FFDFFF3CE79AD6DBE61CEF1CEF1CEF1C39
:10491000EF1CE7FBE6DBDEDADEDADEBADE99DE7913
:10492000D658CE58CE58CE17C6D6BD99D6BEF7DFCC
:10493000FFDFFFFFFFFFFFFFFFFFFFFFFFFFFFFFA7
:10494000FFFFFFFFFFFFFFFFFFFFFFFFFFFFFFFF77
:10495000FFFFFFFFFFFFFFFFFFFFFFFFFFFFFFFF67
:10496000FFFFFFFFFFDFFF1CE79AD6FBE63CEF1CD3
:10497000EF1CE71CE7FBE6FBE6DADEDADEBADE99DF
:10498000D679D658CE38CE37CE37C637C6F6BD998B
:10499000CEDEFFFFFFBEF7FFFFFFFFFFFFFFFFFFC2
:1049A000FFFFFFFFFFFFFFFFFFFFFFFFFFFFFFFF17
:1049B000FFFFFFFFFFFFFFFFFFFFFFFFFFFFFFFF07
:1049C000FFFFFFFFFFDFFFFFFFDFFF1CE7BADEFB9C
:1049D000E63CEF3CEF1CEF1CEF1BE71BE7DAE6DAE7
:1049E000DEBADE99D678D658CE37CE17C6D6BD57A2
:1049F000C6F6BD79CEFEFFFFFFBFF7FFFFFFFFFF4B
:104A0000FFFFFFFFFFFFFFFFFFFFFFFFFFFFFFFFB6
:104A1000FFFFFFFFFFFFFFFFFFFFFFFFFFFFFFFFA6
:104A2000FFFFFFFFFFFFFFFFFFDFFFFFFFDFFF1CB9
:104A3000E79AD6FBE63CEF3CEF1BE71BE71BE71BC7
:104A4000E7DADEDADEBADE99D678D637CEF6C5D624
:104A5000BDB5B557C6F6BD58CEDEFFFFFFDFFFFF81
:104A6000FFFFFFFFFFFFFFFFFFFFFFFFFFFFFFFF56
:104A7000FFFFFFFFFFFFFFFFFFFFFFFFFFFFFFFF46
:104A8000FFFFFFFFFFFFFFFFFFDFFFFFFFFFFFDF76
:104A9000FFFFFF1CE7BADEFBE61BEF1BEF1BEF1B64
:104AA000EF1BEF1BE7FAE6DAE6B9DE78D637CE166B
:104AB000CEF6C5D6BDF6BD16C6D6BD58CEFFFFDEB6
:104AC000FFFFFFFFFFFFFFFFFFFFFFFFFFFFFFFFF6
:104AD000FFFFFFFFFFFFFFFFFFFFFFFFFFFFFFFFE6
:104AE000FFFFFFFFFFFFFFFFFFFFFFFFFFDFFFFFF6
:104AF000FFFFFFDFFFFFFF1CE7BADEFBE61BEFFB5C
:104B0000E6FBE6FBE6FBE6DAE6DAE6DADE99DE78F5
:104B1000D637CE16C6F6C5D5BDF6BD37C6F6BD78B6
:104B2000CEFFFFDEFFFFFFDFFFFFFFFFFFFFFFFF07
:104B3000FFFFFFFFFFFFFFFFFFFFFFFFFFFFFFFF85
:104B4000FFFFFFFFFFFFFFFFFFFFFFFFFFFFFFFF75
:104B5000FFDFFFFFFFFFFFDFFFFFFF1CE79ADEDA4B
:104B6000E6FBEEFBE6FBE6FAE6FAE6DAE6B9DE9904
:104B7000DE78DE57D617CEF6C5D5C5B5BDD6BD167F
:104B8000C6D6BD58CEFFFFDEFFFFFFDFFFFFFFFFF2
:104B9000FFFFFFFFFFFFFFFFFFFFFFFFFFFFFFFF25
:104BA000FFFFFFFFFFFFFFFFFFFFFFFFFFFFFFFF15
:104BB000FFFFFFFFFFDFFFFFFFFFFFDFFFFFFF1C28
:104BC000E779D6BADEFAE6FAE6FAE6FAE6FAE6DADD
:104BD000E699DE98DE78D637CE16CED5C5B5BDB50A
:104BE000BD94B5D6BDB5B558CEFFFFDEFFFFFFDFE4
:104BF000FFFFFFFFFFFFFFFFFFFFFFFFFFFFFFFFC5
:104C0000FFFFFFFFFFFFFFFFFFFFFFFFFFFFFFFFB4
:104C1000FFFFFFFFFFFFFFFFFFDFFFFFFFFFFFDFE4
:104C2000FFFFFF1CE779D6B9DEDAE6FAE6DAE6DA64
:104C3000E6DAE6B9DE99DE98DE78D637CEF6C5D567
:104C4000C594BD94BD74ADD5B5B5B558CEFFFFDFE5
:104C5000FFFFFFDFFFFFFFFFFFFFFFFFFFFFFFFF84
:104C6000FFFFFFFFFFFFFFFFFFFFFFFFFFFFFFFF54
:104C7000FFFFFFFFFFFFFFFFFFFFFFFFFFDFFFFF64
:104C8000FFFFFFDFFFFFFF1CE799DEDAE61BEFFB0C
:104C9000EEFAE6DAE6B9E699DE98DE78D657D61669
:104CA000CED5C594BD74B553B574ADD5B5B5B5788D
:104CB000CEFFFFDFFFFFFFDFFFFFFFFFFFFFFFFF75
:104CC000FFFFFFFFFFFFFFFFFFFFFFFFFFFFFFFFF4
:104CD000FFFFFFFFFFFFFFFFFFFFFFFFFFFFFFFFE4
:104CE000FFDFFFFFFFFFFFDFFFFFFF1CE737CE788F
:104CF000D6B9DEB9DEB9DEB9DE98DE78D657D6375A
:104D0000CEF6C5B5BD73B532AD12ADF1A412A57422
:104D1000AD95AD58C6FFFFFFFFFFFFDFFFFFFFFFB1
:104D2000FFFFFFFFFFFFFFFFFFFFFFFFFFFFFFFF93
:104D3000FFFFFFFFFFFFFFFFFFFFFFFFFFFFFFFF83
:104D4000FFFFFFFFFFDFFFFFFFFFFFDFFFFFFF1B97
:104D5000E754B594C5F4CD14D614DE34DE14DEF376
:104D6000DDD3D5D2D591CD50C50FB5CEAC8DA46EC7
:104D7000A48F9C11A532AD16C6FFFFFFFFFFFFFFFA
:104D8000FFFFFFFFFFFFFFFFFFFFFFFFFFFFFFFF33
:104D9000FFFFFFFFFFFFFFFFFFFFFFFFFFFFFFFF23
:104DA000FFFFFFFFFFFFFFFFFFFFFFFFFFFFFFDF33
:104DB000FFBEF77DF74B7BEC9BE99BAABC47BC672A
:104DC000C467CC68D4C9D4C9D4E8D4E7D4E8CCC883
:104DD000CCC9CCCBCC4FCD71C54D9477D6FEFF9DC1
:104DE000F7FFFFFFFFFFFFFFFFFFFFFFFFFFFFFFDB
:104DF000FFFFFFFFFFFFFFFFFFFFFFFFFFFFFFFFC3
:104E0000FFFFFFFFFFFFFFFFFFFFFFFFFFFFFFFFB2
:104E1000FFFFFFDFFFBEF79DFF2E9CCA9B28B4E972
:104E2000D4A6D4C6E4A6E4A6ECE6EC06ED25ED4552
:104E3000ED45ED67ED68ED6BE58FDD50C56DA4F8D0
:104E4000EEFEFFDEF7FFFFFFFFFFFFFFFFFFFFFFAD
:104E5000FFFFFFFFFFFFFFFFFFFFFFFFFFFFFFFF62
:104E6000FFFFFFFFFFFFFFFFFFFFFFFFFFFFFFFF52
:104E7000FFFFFFFFFFFFFFDFFFDFFFDEFF11B54892
:104E80008B48B4C8CCE6DCE5E4C5E4C5EC06F52502
:104E9000F545ED64EDA5F5A7F5A9F5ACEDF0E50F49
:104EA000BDAEA49BFFFEFFFFFFFFFFFFFFFFFFFF65
:104EB000FFFFFFFFFFFFFFFFFFFFFFFFFFFFFFFF02
:104EC000FFFFFFFFFFFFFFFFFFFFFFFFFFFFFFFFF2
:104ED000FFFFFFFFFFFFFFFFFFDFFFDFFFFFFFFE23
:104EE000FFD4CDE67A28ACA6C405DD04E5C4E4E42D
:104EF000EC45F565F584F5A4F5A4EDA6EDA7F5AAB6
:104F0000EDD0DDADAC10B5FDFFDDFFFFFFFFFFFF16
:104F1000FFFFFFFFFFFFFFFFFFFFFFFFFFFFFFFFA1
:104F2000FFFFFFFFFFFFFFFFFFFFFFFFFFFFFFFF91
:104F3000FFFFFFFFFFFFFFFFFFFFFFFFFFFFFFDFA1
:104F4000FFFFFFFEFFD8EE478327A4A6C426DD247B
:104F5000E504ED24F585FDA4F5A3F5C3F5E4F5E539
:104F6000F5C7F5AAEDAFD54D9CB2C5FDFFDDFFFF3E
:104F7000FFFFFFFFFFFFFFFFFFFFFFFFFFFFFFFF41
:104F8000FFFFFFFFFFFFFFFFFFFFFFFFFFFFFFFF31
:104F9000FFFFFFFFFFFFFFFFFFFFFFFFFFFFFFFF21
:104FA000FFFFFFFFFFFFFFFEFF7BFF0B9CC69BA6E3
:104FB000BC46DD44E503E544F584F5A3F5C3F5E31C
:104FC000F503F605F6E7F5EBED8FD56D9C96DEFD66
:104FD000FFFEFFFFFFFFFFFFFFFFFFFFFFFFFFFFE2
:104FE000FFFFFFFFFFFFFFFFFFFFFFFFFFFFFFFFD1
:104FF000FFFFFFFFFFFFFFFFFFFFFFFFFFFFFFFFC1
:10500000FFFFFFFFFFFFFFFFFFFFFFDEFFDDFFEF03
:10501000B4858BA6BC26DD44E523E584F583F5A3A2
:10502000F5C2F502F604F625F607FE2BF68FCD8EB7
:10503000A47AFFFDFFFFFFFFFFFFF7FFFFFFFFFF6A
:10504000FFFFFFFFFFFFFFFFFFFFFFFFFFFFFFFF70
:10505000FFFFFFFFFFFFFFFFFFFFFFFFFFFFFFFF60
:10506000FFFFFFFFFFFFFFFFFFFFFFFFFFDFFFBEB1
:10507000FFFEFFB3CD658BA7BC46DD65E543EDA420
:10508000FDC4FDE4FD03F623F645F646FE49FE4C5D
:10509000F66FC5AFA4FDFFBDFFFFFFDFF7BEF7FF53
:1050A000FFFFFFFFFFFFFFFFFFFFFFFFFFFFFFFF10
:1050B000FFFFFFFFFFFFFFFFFFFFFFFFFFFFFFFF00
:1050C000FFFFFFFFFFFFFFFFFFFFFFFFFFFFFFFFF0
:1050D000FFFFFFFFFFBEFFF9F6678B26AC88DDA65A
:1050E000ED65EDC5FD05FE04FE23F624F645F62725
:1050F000F629FE6EF68CACF4CDFDFFBDF7FFFFFF89
:10510000FFFFFFDFF7FFFFFFFFFFFFFFFFFFFFFFD7
:10511000FFFFFFFFFFFFFFFFFFFFFFFFFFFFFFFF9F
:10512000FFFFFFFFFFFFFFFFFFFFFFFFFFFFFFFF8F
:10513000FFFFFFFFFFFFFFFFFFDFFF3BFFE99326BE
:10514000A468DDA6ED85EDC5FD05FE25FE24F6452A
:10515000F646F648F64AF64EF68DAC36CEFEFFBD64
:10516000F7FFFFFFF7FFFFDFF7FFFFFFFFFFFFFF87
:10517000FFFFFFFFFFFFFFFFFFFFFFFFFFFFFFFF3F
:10518000FFFFFFFFFFFFFFFFFFFFFFFFFFFFFFFF2F
:10519000FFFFFFFFFFFFFFFFFFFFFFFFFFDFFF9DA1
:1051A000FF8DAC27A448D5A7EDC6F5E6F526FE454C
:1051B000FE65FE66F667F669F64CF62FEEADAC9826
:1051C000DEFEFFDEFFFFFFDFF7FFFFFFFFFFFFFF5A
:1051D000FFFFFFFFFFFFFFFFFFFFFFFFFFFFFFFFDF
:1051E000FFFFFFFFFFFFFFFFFFFFFFFFFFFFFFFFCF
:1051F000FFFFFFFFFFFFFFFFFFFFFFFFFFFFFFFFBF
:10520000FFBFFFDFFF2FBD07A427CDC7EDE7F506E2
:10521000FE26FE66FE86FE87FE88FE8AFE4DF60F9F
:10522000E6AEAC1AE7FEFFFFFFFFFFDFF7FFFFFF71
:10523000FFFFFFFFFFFEFFFEFFFFFFFFFFFFFFFF80
:10524000FFFFFFFFFFFFFFFFFFFFFFFFFFFFFFFF6E
:10525000FFFFFFFFFFFFFFFFFFFFFFFFFFFFFFFF5E
:10526000FFFFFFFFFF9FFFDFFFB1C5E69B27CDE7F5
:10527000ED07F646FE46FE86FEA6FEA7FEA9FEAB9D
:10528000FE4DF6EFE5CEAC7CF7FFFFFFFFFFFFDF43
:10529000F7FFFFFFFFFFFFFFFFFEFFFEFFFFFFFF28
:1052A000FFFFFFFFFFFFFFFFFFFFFFFFFFFFFFFF0E
:1052B000FFFFFFFFFFFFFFFFFFFFFFFFFFFFFFFFFE
:1052C000FFFFFFFFFFFFFFFFFF9FFFBEFFF2D506BF
:1052D0009C47CD07EE27F666FE66FEA6FEC7FEA734
:1052E000FEA9FEACFE4DF6EFDDCFACDDFFFEFFFF0D
:1052F000FFFFFFFFF7FFFFFFFFFFFFFFFFFEFFFEC8
:10530000FFFFFFFFFFFFFFFFFFFFFFFFFFFFFFFFAD
:10531000FFFFFFFFFFFFFFFFFFFFFFFFFFFFFFFF9D
:10532000FFFFFFFFFFFFFFFFFFFFFFFFFFBFFFBE0E
:10533000FF33D6069C67D507EE26F666FE86FEC6C8
:10534000FEC6FEA7FEA9FEACFE4EF6CFDDCFA4FE44
:10535000FFBEF7FFFFFFFFFFFFFFFFFFFFFFFFFFA6
:10536000FFFEFFFEFFFFFFFFFFFFFFFFFFFFFFFF4F
:10537000FFFFFFFFFFFFFFFFFFFFFFFFFFFFFFFF3D
:10538000FFFFFFFFFFFFFFFFFFFFFFFFFFFFFFFF2D
:10539000FFFFFFDDFF73DE279C88D507EE06F6666C
:1053A000FE86FEC7FEC7FEA7F6A9F6CCFE6DF6CFB9
:1053B000DDCFACFEFF9DF7FFFFFFFFFFFFFFFFFF0D
:1053C000FFFFFFFFFFFFFFFFFFFFFFFFFFFFFFFFED
:1053D000FFFFFFFFFFFFFFFFFFFFFFFFFFFFFFFFDD
:1053E000FFFFFFFFFFFFFFFFFFFFFFFFFFFFFFFFCD
:1053F000FFFFFFFFFFDFFFFDFF53D6E69328CD0839
:10540000EE47FE46FE66FEA7FE67F6A9FEABF68CEB
:10541000F6AEF6AED510ADDEFFFFFFFFFFBEF7FF25
:10542000FFFFFFFFFFFFFFFFFFFFFFFFFFFFFFFF8C
:10543000FFFFFFFFFFFFFFFFFFFFFFFFFFFFFFFF7C
:10544000FFFFFFFFFFFFFFFFFFFFFFFFFFFFFFFF6C
:10545000FFFFFFFFFFFFFFFFFFDEFFFDFF54D6E76B
:105460009328CDE9ED47FE46FE86FEA7FE67FEAA1D
:10547000FE8BF68CF6AEF6CDD510ADDEFFFFFFFF4E
:10548000FFDEFFFFFFDFFFFFFFFFFFFFFFFFFFFF6D
:10549000FFFFFFFFFFFFFFFFFFFFFFFFFFFFFFFF1C
:1054A000FFFFFFFFFFFFFFFFFFFFFFFFFFFFFFFF0C
:1054B000FFFFFFFFFFFFFFFFFFFFFFFFFFDEF7FE26
:1054C000FF75D6089429CDE8ED47FE66FE86FEA757
:1054D000FE87FEA9FEABF68CF6CEFEEED510ADDD56
:1054E000FFFFFFFFFFDEFFFFFFDFFFFFFFFFFFFF0D
:1054F000FFFFFFFFFFFFFFFFFFFFFFFFFFFFFFFFBC
:10550000FFFFFFFFFFFFFFFFFFFFFFFFFFFFFFFFAB
:10551000FFFFFFFFFFFFFFFFFFFFFFFFFFFFFFFF9B
:10552000FFDFF7FEFF55D6089429CDE8E547FE8654
:10553000FE85FEA6FE87FEC9FE8AF68CF6CEFEEE3E
:10554000DDEFACBDFFFFFFFFFFDEFFFFFFDFFFFF73
:10555000FFFFFFFFFFFFFFFFFFFFFFFFFFFFFFFF5B
:10556000FFFFFFFFFFFFFFFFFFFFFFFFFFFFFFFF4B
:10557000FFFFFFFFFFFFFFFFFFFFFFFFFFFFFFFF3B
:10558000FFFFFFFFFFDFF7FFFF34D6089449CDE8A8
:10559000E546FE86FE85FEA6FE86FEA9FE8AF68B01
:1055A000F6CDFEEEDDCFA49DF7FEFFFFFFDEFFFF91
:1055B000FFDFFFFFFFFFFFFFFFFFFFFFFFFFFFFF1B
:1055C000FFFFFFFFFFFFFFFFFFFFFFFFFFFFFFFFEB
:1055D000FFFFFFFFFFFFFFFFFFFFFFFFFFFFFFFFDB
:1055E000FFFFFFFFFFFFFFFFFFDFFFFEFF14CEE81F
:1055F0009349CDE8E526F685FE64FEA5FE86FEA865
:10560000FE69F66AF6ADFEEDE5AEA49CF7FEFFFF7F
:10561000FFDEFFFFFFDFFFFFFFFFFFFFFFFFFFFFDB
:10562000FFFFFFFFFFFFFFFFFFFFFFFFFFFFFFFF8A
:10563000FFFFFFFFFFFFFFFFFFFFFFFFFFFFFFFF7A
:10564000FFFFFFFFFFFFFFFFFFFFFFFFFFDFFFBDCC
:10565000FFD3CDC79349CDE8ED26F665FE44FE8520
:10566000FE66FE87FE48F64AFE8CFEEDE58D9C7CCC
:10567000F7DEFFFFFFDEFFFFFFDFFFFFFFFFFFFFA4
:10568000FFFFFFFFFFFFFFFFFFFFFFFFFFFFFFFF2A
:10569000FFFFFFFFFFFFFFFFFFFFFFFFFFFFFFFF1A
:1056A000FFFFFFFFFFFFFFFFFFFFFFFFFFFFFFFF0A
:1056B000FFDFFFBDFFB2CDA79349CDE8ED06F6456C
:1056C000FE44FE86FE66FE88FE48FE4AFE8CFEED27
:1056D000E56D9C5CEFDEFFFFFFDEFFFFFFDFFFFFFE
:1056E000FFFFFFFFFFFFFFFFFFFFFFFFFFFFFFFFCA
:1056F000FFFFFFFFFFFFFFFFFFFFFFFFFFFFFFFFBA
:10570000FFFFFFFFFFFFFFFFFFFFFFFFFFFFFFFFA9
:10571000FFFFFFFFFFDFFFFEFFEFB4A79309CDA858
:10572000ED48FE26FE46FE46FE47FE48FE49FE4B7D
:10573000FE4BFE2FF68D9CFAE6FEFFFFFFFFFFFFFC
:10574000FFFFFFFFFFFFFFFFFFFFFFFFFFFFFFFF69
:10575000FFFFFFFFFFFFFFFFFFFFFFFFFFFFFFFF59
:10576000FFFFFFFFFFFFFFFFFFFFFFFFFFFFFFFF49
:10577000FFFFFFFFFFFFFFFFFFDFFFDDFFEFB409CC
:10578000A40ACDAAED09FEE7FD07FE48FE49FE4A40
:10579000FE4BFE4CFE0CFE0FEE4D9499D6DEFFFE46
:1057A000FFFFFFFFFFFFFFFFFFFFFFFFFFFFFFFF09
:1057B000FFFFFFFFFFFFFFFFFFFFFFFFFFFFFFFFF9
:1057C000FFFFFFFFFFFFFFFFFFFFFFFFFFFFFFFFE9
:1057D000FFFFFFFFFFFFFFFFFFFFFFFFFFBEFF3BDE
:1057E000F7AB8B678B07ACE9CC28DD68E567DD8814
:1057F000E5A9E569DD49D52AD50AD5EBC42D94374D
:10580000CEDEFFDEFFFFFFFFFFFFFFFFFFFFFFFF1B
:10581000FFFFFFFFFFFFFFFFFFFFFFFFFFFFFFFF98
:10582000FFFFFFFFFFFFFFFFFFFFFFFFFFFFFFFF88
:10583000FFFFFFFFFFFFFFFFFFFFFFFFFFFFFFFF78
:10584000FFFFFF7CF78B83AA8BA89B89BC48BC8891
:10585000C409CD2ACD0ACDEAC4EAC42BC50BC5CCF8
:10586000B40D8CD6BDFEFFDEFFFFFFFFFFFFFFFF85
:10587000FFFFFFFFFFFFFFFFFFFFFFFFFFFFFFFF38
:10588000FFFFFFFFFFFFFFFFFFFFFFFFFFFFFFFF28
:10589000FFFFFFFFFFFFFFFFFFFFFFFFFFFFFFFF18
:1058A000FFFFFFFFFFBEF779CE2B6B4E9CAEB46FB0
:1058B000CD4ECD8FD56FD5AFD5B0D5D0CD12DE536F
:1058C000E611DE70C5AC7B33ADFEFFDEFFFFFFFFF0
:1058D000FFFFFFFFFFFFFFFFFFFFFFFFFFFFFFFFD8
:1058E000FFFFFFFFFFFFFFFFFFFFFFFFFFFFFFFFC8
:1058F000FFFFFFFFFFFFFFFFFFFFFFFFFFFFFFFFB8
:10590000FFFFFFFFFFFFFFFFFFFFF799C6CE7B32D0
:10591000ADD4CD76E618FFDBFF59FFBBFFDBFFBB45
:10592000FFDBFFFBFF58F796DE4B6B7094DEFFBD8D
:10593000F7FFFFDFFFFFFFFFFFFFFFFFFFFFFFFF9F
:10594000FFFFFFFFFFFFFFFFFFFFFFFFFFFFFFFF67
:10595000FFFFFFFFFFFFFFFFFFFFFFFFFFFFFFFF57
:10596000FFFFFFFFFFFFFFFFFFFFFFFFFFFFF77AD4
:10597000BEEF73718C50948D8370A474C5F6D558A6
:10598000D658D6D6BD94B5B4B552ADB0944B6B4F86
:105990008CFEFFBEF7FFFFDFFFFFFFFFFFFFFFFFF4
:1059A000FFFFFFFFFFFFFFFFFFFFFFFFFFFFFFFF07
:1059B000FFFFFFFFFFFFFFFFFFFFFFFFFFFFFFFFF7
:1059C000FFFFFFFFFFFFFFFFFFFFFFFFFFFFFFFFE7
:1059D000FFFFF79AC6D39434A59194695ACB6A6DA8
:1059E0007B3094729C518C8E734C63AD73EE7BCD87
:1059F000738D73708CFFFFFFFFFFFFDFFFFFFFFF63
:105A0000FFFFFFFFFFFFFFFFFFFFFFFFFFFFFFFFA6
:105A1000FFFFFFFFFFFFFFFFFFFFFFFFFFFFFFFF96
:105A2000FFFFFFFFFFFFFFFFFFFFFFFFFFFFFFFF86
:105A3000FFFFFFFFFFFFFFBEEFDBD696B591940F90
:105A4000842F8C7094B5BD58D678D695B513A554CF
:105A5000AD74AD34A5B6BDFBDEFFFFFFFFFFFFFF5A
:105A6000FFFFFFBEF7FFFFFFFFFFFFFFFFFFFFFF8F
:105A7000FFFFFFFFFFFFFFFFFFFFFFFFFFFFFFFF36
:105A8000FFFFFFFFFFFFFFFFFFFFFFFFFFFFFFFF26
:105A9000FFFFFFFFFFFFFFFFFFBEF7DFF7DFFFBEE8
:105AA000F77DEF7CEF9DF7DDFFFAE67CF79CF73B97
:105AB000EF5CEFBDFFFEFFBEFF7DEFFFFFFFFFFFCF
:105AC000FFDFFFFFFFFFFFDFFFFFFFFFFFFFFFFF26
:105AD000FFFFFFFFFFFFFFFFFFFFFFFFFFFFFFFFD6
