:100000000C945D7A0D946D000D9442000D941700D0
:100010000C94ECFF0C94C1FF0C9496FF0C946BFFB6
:100020000C9440FF0C948E7A0C948E7A0C948E7AF9
:100030000C948E7A0D94CD110C948E7A0C948E7A49
:100040000C948E7A0C948E7A0C948E7A0C948E7A10
:100050000C948E7A0C948E7A0C948E7A0C94F6FE14
:100060000C948E7A0D94FD100D94D4100C948E7A0D
:100070000C948E7A0C948E7A0C948E7A0C948E7AE0
:100080000C948E7A0C948E7A0C948E7A0C948E7AD0
:100090000C948E7A0C948E7A0C948E7A0D9418515E
:1000A0000C948E7A0C948E7A0C948E7A0C948E7AB0
:1000B0000C948E7A0C948E7A0C948E7A0C948E7AA0
:1000C0000C948E7A0C948E7A0C948E7A0C948E7A90
:1000D0000C948E7A0C948E7A0C948E7A0C948E7A80
:1000E0000C948E7A168019801E8026803180318093
:1000F0003F803F803F8050806AA027B037A137A162
:10010000C9A227B0CEA503A47BA527B001A7CFA77E
:100110001DA91DA96AA0C9AC27B06AA073A8F3A93C
:10012000B5A18DAA3EABC9AC22AC55AD50AE5BAF0C
:1001300070AF77A425C43BC451C467C47DC493C4C5
:10014000A9C4BFC456C587C5B8C5E9C51AC64BC63C
:100150007CC6ADC629C7EDC777C8FFC887C90FCA17
:1001600096CABBCA99CDAFCDC5CDDBCDF1CD07CEFB
:100170001DCE67CE98CEC9CEFACE2BCF5CCF8DCF19
:10018000E7CF44D09CD0F4D04CD1A4D1FED15AD5E5
:1001900070D586D59CD5B2D5C8D5DED5F4D540D698
:1001A00071D6A2D6D3D604D735D766D797D7EFD78F
:1001B00020D851D882D8B3D8E4D814D944D994EAF5
:1001C000CDEAFFEA31EB63EB95EBC7EBF9EB2BECF8
:1001D0005DECC2ECF3EC24ED55ED86EDB7EDE8ED0A
:1001E00019EE4AEE7BEEC1EE0EEF5BEFA8EFF5EFF6
:1001F00081F08CF093F09AF0A1F06D01AF01A901AC
:1002000097017701A301B301B901D3019F019901BE
:1002100053015B01F101A301A7019D01BB01010293
:100220008F01CB01CB01FF018F01D901AB015F0130
:100230008F0179017901710171010102AB018F0117
:1002400001027901AB01CB019501AB01AB01AB011F
:10025000AB01AB01BD01AB01AB01C1018301690180
:10026000EB01C501E701E301550155017D01850160
:10027000870151017301F301DB01DD01A5016B0170
:10028000F901F501C301FB01670159017F019B01E0
:10029000D5015701A101CD019101B501C7010D940F
:1002A000A40C0D94B5680D947D0D0D94DA520D9447
:1002B0009D6B0D944F6B0D94810D0D94724B0D94AD
:1002C0007A160D94934B0D94C5740D94084C0D94AF
:1002D000346B0D94AC520D94AD6A0D945E0D0D947B
:1002E000600C0D94A5160D94D0680D9420740D9497
:1002F0005A0D0D9488160D94020C0D94D2520D9443
:100300006A6B0D944C0C0D94A4520D9476680D9468
:100310009A680D94654C0D949F4E0D94AD4C0D94C0
:100320000C170D94A66B0D94DC4B0D94B5160D9423
:10033000540D0D94770D0D94976B0D948F0D0D94B6
:10034000730D0D94A06B0D94980D0D943C690D9454
:100350008B0D0D94500D0D94E3160D94120C0D940D
:10036000610D0D94A84E0D94650D0D94A96B0D941F
:10037000A54C0D94690D0D94930D0D94CF160D940D
:100380006E0C0D949C520D94FE6A0D94BC520D940B
:10039000AC6B0D94B3740D943B160D94A36B0D943C
:1003A000A94B0D94374C0D946F0D0D949A6B0D94D1
:1003B0003D0C0D9400160D9406690D9421690D9461
:1003C000EA0C0D94DD4B0D94CB520D94004C0D9422
:1003D000C4520D94990D0D94B4520D9421740D9442
:1003E000AA4D0D94850D0D94EB680D94E36A0D9460
:1003F000EC4B0D94C86A0D94196B0D94DA4C0D9466
:1004000055160D941F1600407A10F35A00A0724E34
:1004100018090010A5D4E80000E87648170000E4A9
:100420000B54020000CA9A3B000000E1F5050000F1
:1004300080969800000040420F000000A086010056
:100440000000102700000000E80300000000640026
:10045000000000000A000000000001000000000091
:100460002C76D888DC674F0823DFC1DFAE59E1B1B5
:10047000B796E5E3E453C63AE651997696E8E6C2C4
:100480008426EB898C9B62ED407C6FFCEFBC9C9FCB
:1004900040F2BAA56FA5F490055A2AF75C936B6CED
:1004A000F9676DC11BFCE0E40D47FEF520E6B500E1
:1004B000D0ED902E0300943577050080841E08004F
:1004C00000204E0A000000C80C333333330F986EFF
:1004D00012831141EF8D2114893BE65516CFFEE6BC
:1004E000DB18D1844B381BF77C1D901DA4BBE42482
:1004F000203284725E228100C9F124ECA1E53D27FF
:1005000000000000000000000000000000000000EB
:1005100000000000000000000000000000000000DB
:1005200000000000000000000000000000000000CB
:1005300000000000000000000000000000000000BB
:1005400000000000000000000000000000000000AB
:1005500000000000000000000000000041088210C0
:10056000A210C318E3180419E318C318E3186108AC
:10057000000000000000000000000000000000007B
:10058000000000000000000000000000000000006B
:10059000000000000000000000000000A210242164
:1005A0006529083AAA522C638E73AE730C632842F5
:1005B000AA52CF7BCB528210000000000000000046
:1005C000000000000000000000000000000000002B
:1005D0000000000000000000000000002000E739DB
:1005E000694AAA52718C96ADF7BD18C638C638C68E
:1005F00018BED7B514A5B29496B575ADE73900000D
:1006000000000000000000000000000000000000EA
:100610000000000000000000000000000000410891
:100620002C63CF73518CF7BD38C679CEDBDE3CE747
:100630007DEF5DEF1CE7BAD638C6F7BD96B538C674
:10064000FBDECB5A000000000000000000000000AC
:10065000000000000000000000000000000000009A
:1006600000008D6BD39434A538C638C61CE7FFFF55
:10067000FFFFFFFFFFFFFFFFFFFFFFFF9EF79AD681
:10068000F7BDB6B559CE5DEFAA52000000000000DC
:10069000000000000000000000000000000000005A
:1006A00000000000694A34A575AD38C638C6BEF7EB
:1006B000FFFFFBDE718C8A4AA631C739CB52D39C2F
:1006C0005DEFFFFFDBDEF7BDB6B5BAD6DBDE863108
:1006D000000000000000000000000000000000001A
:1006E000000000000000C318F39C55A538C6F7BDF4
:1006F000BEF7DFFF718CC31800000000000000008F
:1007000000000000042155ADFFFF9AD6B6B5D7BD55
:100710007DEF34A541000000000000000000000053
:10072000000000000000000000004D6B75ADF7BD3B
:10073000D7BD1CE79EF78D6B000000000000000095
:10074000000000000000000000002000D39CDFFF3C
:10075000D7BDB6B579CE7DEF49420000000000005C
:100760000000000000000000000000006108F39C91
:1007700075AD18C638C6FFFF5184000000000000A8
:100780000000000000000000000000000000000069
:10079000610818C69AD696B5F7BD9EF7D39C00009F
:1007A0000000000000000000000000000000000049
:1007B000A63175ADB6B5F7BD1CE779CE04210000B2
:1007C0000000000000000000000000000000000029
:1007D0000000000000008A529AD634A5F7BD1CE73D
:1007E0009AD6C318000000000000000000000000BE
:1007F00000000000CB5A96B5F7BD18C6BEF71084AE
:1008000000000000000000000000000000000000E8
:1008100000000000000000000000821018C655AD66
:10082000F7BD9AD67DEFC739000000000000000038
:1008300000000000000000004D6BB6B5F7BD58C6C3
:10084000BEF72C6300000000000000000000000064
:100850000000000000000000000000000000000098
:1008600034A5B6B5F7BD59CEBEF7694A0000000001
:100870000000000000000000000000006D6B96B555
:10088000F7BD59CEBEF7EB5A000000000000000093
:100890000000000000000000000000000000000058
:1008A00000000000D39CF7BDD7BD59CEBEF78A52D9
:1008B0000000000000000000000000000000000038
:1008C0006D6B96B5F7BD59CEBEF7EB5A0000000030
:1008D0000000000000000000000000000000000018
:1008E0000000000000000000D39CF7BDD7BD59C632
:1008F000BEF78A5200000000000000000000000067
:10090000000000006D6B96B5F7BD59CEBEF7EB5AEF
:100910000000000000000000000000002000200097
:10092000000000000000000000000000D39CF7BDA4
:10093000D7BD38C69EF78A520000000000000000B4
:1009400000000000000000006D6B96B5D7BD38C6F2
:10095000BEF7EB5A00004108E318A631494ACB5ACA
:100960004D6B8E736D6B2C63694A86316108000094
:10097000D39CF7BDB6B538C69EF78A4A0000000082
:100980000000000000000000000000006D6B96AD4C
:10099000D7BD59CE5DEFAA5286318A524D6BEF7B9F
:1009A000518CB29414A575ADB6B518C638C6F7BD4E
:1009B00034A56D6B929434A5D7BD38C69EF7694AAD
:1009C0000000000000000000000000000000000027
:1009D0006D6B96B5F7BDD39C4D6BAA522C63AE736D
:1009E000EF7B1084518CB294F39C55ADB6B518C60C
:1009F00079CEDBDE3CE73CE759CEF39C14A518C664
:100A00009EF7694A0000000000000000000000009E
:100A1000000000008E7375AD1084EB5A4D6BAE7301
:100A20008E738E73AE73EF7B518CB29434A596B5F2
:100A3000F7BD59CE9AD6DBDE1CE77DEFBEF79EF7F9
:100A400059CE75AD3CE7694A000000000000000087
:100A500000000000000000004C6310846D6B3084C7
:100A60003084EF7BAE738E73CF7BEF7BEF7BCF7BDE
:100A7000EF7B3084929475AD59CE3CE79EF79EF79C
:100A8000BEF7DFFFFFFF5DEF39C608420000000040
:100A9000000000000000000000000000694A518CC6
:100AA000F39CB294518C1084EF7B0C632842C739BD
:100AB000C739A631C73986312421242186310C63F8
:100AC00096B5BEF7FFFFDFFFFFFFFFFFDFFF518C93
:100AD000000000000000000000000000000086315F
:100AE000B29496B555ADF39CD39C308428426529C9
:100AF00028428A5228428631652904218210A21098
:100B0000A21061088210CB5AFBDEFFFFFFFFFFFF40
:100B1000FFFFFFFF4D6B0000000000000000000021
:100B2000A210718C38C6F7BD96B575AD9294C739D1
:100B3000E739EB5A8A522842A6312421A6314529A9
:100B4000200000000000000061084108863179CED5
:100B5000FFFFDFFFBEF7DFFF3CE7A631000000002C
:100B6000000000002C6359CEBAD659CE38C655AD18
:100B7000A631C7392C634D6BCB5A2842E7398631F1
:100B80006529042161080000000020008210A210E5
:100B9000200045299AD6FFFF7DEF5DEF9EF7B6B5A1
:100BA0002000000000002421B6B53CE7FBDEBAD6E9
:100BB0009AD6694A8631CB5A0C6330842C638A52A8
:100BC0008A52694A0842A631E318200000006108F1
:100BD0002421A210E318821028423CE75DEFFBDEDF
:100BE000DBDE3CE7AA52000000002C635DEF7DEFE6
:100BF0003CE77DEF718CE318694AAA52EB5AEB5A35
:100C00008A52EB5A4D6B4D6B1084D39CD39CAE73C0
:100C1000E31800008210042165298631C31810846E
:100C20003CE79AD679CEBAD675AD0000410855ADED
:100C3000DFFFBEF7BEF73CE7A63165290842694AE7
:100C4000694AE739EB5A518C518C34A538C69AD68B
:100C5000FBDE7DEFDBDE084200004529C739E739BE
:100C6000C739C73918C659CEF7BDD7BDBAD6452939
:100C70004529BAD6FFFFDFFFFFFF14A582106529C3
:100C8000C739E73945290842B6B579CE7DEFFFFF70
:100C9000FFFFFFFFFFFFBEF7FFFF5DEFA631C318A9
:100CA000494A8A52694AA631108418C696B555AD8C
:100CB00079CE0C63694A9EF7FFFFFFFFFFFF0C63CD
:100CC00082108631AA524529821034A5DFFFFFFF2A
:100CD000FFFFFFFFDFFF9EF73CE7FBDE9AD6BEF784
:100CE00096B50421AA52CF7B0C63694AEB5A75ADC5
:100CF00014A5D39CD7BD518C6D6BFFFFFFFFFFFF89
:100D0000BEF7C7396108C318863141088631BEF77E
:100D1000FFFFBEF77DEF1CE7BAD679CE38C618C6FE
:100D200018C69AD679CE694A494A6D6B0C630C6332
:100D3000AA52F39C9294718C14A514A51084DFFF21
:100D4000FFFFFFFF5DEF042161084108410800003B
:100D50000C63FFFFFBDE9AD659CE18C618C618C61C
:100D600059CE9AD6DBDE1CE7D7BD0C63494A0C632B
:100D70000C636D6BAA52929430841084929455AD9A
:100D8000518CBEF7BEF7DFFF1CE7E31882100000AE
:100D9000000000004D6B3CE738C618C638C679CE57
:100DA000BAD61CE75DEFBEF7FFFFDFFFF39CCB5A1F
:100DB000694ACB5ACB5A8E73EB5A3084CF7BCF7BA8
:100DC000308434A510847DEF5DEF7DEFFBDE2421C0
:100DD0006108000000000000AA5238C679CEFBDE90
:100DE0003CE79EF7DFFFFFFFFFFFFFFFFFFF7DEF09
:100DF000CF7B8A52494A694A694A4D6BCB5A108463
:100E00008E738E733084B2946D6B3CE71CE71CE7E5
:100E1000FBDE0842A2104108042161088631B29429
:100E200018C6FFFFFFFFFFFFFFFFFFFFDFFFBEF75B
:100E3000DFFFB6B58E73084228420C6328424D6B23
:100E4000CB5AEF7B6D6B6D6B718CEF7B694ABAD6B9
:100E5000BAD69AD6DBDE0C63E318C3180421A210BD
:100E600045290C633084DBDEFFFFDFFF9EF77DEF5B
:100E70003CE71CE79AD614A50C634529A631494ADC
:100E800028420C63EB5ACF7B6D6B4D6BF39CCB5AB6
:100E9000652918C659CE38C659CEB29445292421A1
:100EA0008210C318863128422C63EF7B38C61CE7BA
:100EB000FBDEBAD6BAD6DBDEBAD692940421C318CA
:100EC000A210C31808428A526D6BEF7BAE738E730B
:100ED00055AD65294108F39CF7BDB6B596B5B6B5D5
:100EE0000842C7392421242186312842694AEB5A15
:100EF0001084B6B5FBDE9EF7FFFF7DEF718C82108C
:100F0000200020004108C318494A28429294EF7BF0
:100F1000CF7B3084F39C410800004D6BB6B555ADD6
:100F200034A534A5EF7BA631694A8631E739AA5248
:100F3000CB5A694A2842EB5AEF7B518C6D6B45299D
:100F400000002000821000002000C739C739AE73AE
:100F5000D39C518C108455AD4D6B00000000652969
:100F600055ADF39CD39C9294B2948A52494ACB5A81
:100F700028428E734D6BEB5AAA52C7390421821056
:100F8000200041084108E31824210000E3186529E6
:100F9000694A75AD14A5B294D39CB6B5E3180000A8
:100FA00000000000EF7B34A5718C518C10841084FC
:100FB000E7398A526D6BEB5AEB5A0C630C63EB5AB0
:100FC0002C63AA5286312421A210410882102421C8
:100FD000E318C739B6B5D7BD75AD14A518C66D6B86
:100FE0000000000000000000042155AD718CEF7B73
:100FF000CF7BAE73AE73084228424D6B2C632C63DB
:101000000C63CB5A2C63CB5AA6312421E318A210CF
:10101000C3186108084238C6BAD618C6B6B538C66D
:1010200034A54108000000000000000000008A52C2
:10103000D7BDCF7B8E738E738E738E73694AA63144
:10104000494AEB5AEB5AAA52AA52284286316529DC
:10105000E3188210C318CF7B3CE75DEFDBDE79CE6F
:1010600079CE79CE65290000000000000000000064
:1010700000000000AE73D7BDAE734D6B6D6B8E7309
:10108000CF7B8E73AA520842C739A631A631652993
:101090000421452908421084DBDEFFFFBEF75DEF27
:1010A0001CE71CE7FBDE494A0000000000000000CE
:1010B00000000000000000000000AE7318C6EF7BC7
:1010C0004D6B8E73CF7B10849294D39CF39C14A5AC
:1010D00014A575AD18C6FBDEBEF7FFFFFFFFFFFFCF
:1010E000BEF79EF7BEF7FBDE494A00000000000095
:1010F00000000000000000000000000000000000F0
:101100008A52F7BD14A5CF7BAE731084718CF39C0B
:1011100075ADF7BD79CEFBDE5DEF9EF7DFFFFFFF1C
:10112000FFFFFFFFFFFFFFFF18C686310000000032
:1011300000000000000000000000000000000000AF
:10114000000000000000E3183084D7BD55ADB29414
:101150009294F39C55ADD7BD59CEBAD61CE77DEF1E
:10116000BEF7FFFFFFFFFFFF3CE7CF7B82100000D1
:10117000000000000000000000000000000000006F
:10118000000000000000000000000000000004213A
:101190008E7355AD18C638C638C659CEBAD61CE7B8
:1011A0007DEFDFFFFFFFBEF779CEEF7BE318000096
:1011B000000000000000000000000000000000002F
:1011C000000000000000000000000000000000001F
:1011D00000000000000041086529CB5ACF7B9294A3
:1011E00014A534A5F39C30842C638631410800009B
:1011F00000000000000000000000000000000000EF
:1012000000000000000000000000000000000000DE
:1012100000000000000000000000000000000000CE
:1012200000000000000000000000000000000000BE
:1012300000000000000000000000000000000000AE
:101240000000000000000000FFFFFFFFFFFFFFFFA6
:10125000FFFFFFFFFFFFFFFFBAD69AD6DFFFFFFFBA
:10126000FFFFFFFFFFFFFFFFBAD6FBDEFFFF1CE71C
:10127000BEF7FFFFFFFFFFFFFFFFFFFF3CE7F39C11
:10128000B294718C75AD9AD659CEF7BDD7BD59CEF3
:101290009AD659CE59CE7DEFFFFFDFFFFFFFFFFF4C
:1012A000FFFF694A6D6BFFFF59CE0842FFFFBEF793
:1012B000EF7BF39CB2948A524108DFFFFFFFDFFF10
:1012C000A631BAD6FFFFFFFFFFFFFFFFFFFFFFFFC3
:1012D000FFFFFFFFFFFFFFFFBAD6DBDEFFFFFFFFD1
:1012E000FFFFFFFFFFFFFFFFFFFFFFFFFFFFFFFF0E
:1012F000FFFFFFFFFFFFFFFFFFFF1CE7DFFFFFFF19
:10130000FFFFFFFFFFFFFFFFFFFFFFFFFFFFFFFFED
:10131000FFFFFFFFFFFFDFFFBEF7FFFFDFFF59CE3D
:10132000BAD6B6B5F7BD9AD679CE18C6718C14A5C3
:1013300018C69AD679CEDFFFFFFFDBDEDBDED7BD36
:1013400055ADA631B294FFFF7DEF8A52F7BDFFFF86
:10135000CF7BD39CFFFF08426529FFFFFBDE5DEFDB
:101360000C63FFFFFFFFFFFFFFFFFFFFFFFFFFFF1C
:10137000FFFFFFFFFFFFFFFFFFFF3CE7FFFFFFFF58
:10138000FFFFFFFFFFFFFFFF3CE7FFFFFFFFFFFF48
:10139000FFFFFFFFFFFFFFFFFFFFFFFFFFFFFFFF5D
:1013A000BAD6DBDE96B55DEFFFFFFFFFFFFF7DEFF7
:1013B000DFFFFFFFFFFF5DEF3CE7FFFFFFFFFFFFEA
:1013C000FFFFFFFF3CE73CE77DEFFFFFDBDE59CE91
:1013D00079CE3CE73CE7DFFF7DEF79CE6D6B000017
:1013E000A210718C7DEFFFFFDFFFE739AE73FFFFC7
:1013F00086310842FFFF1084494AFFFFAE7308425E
:10140000494AB6B5FFFFFFFFFFFFFFFFFFFFFFFFEA
:10141000FFFFBEF71CE7DFFF1CE7DBDEFFFF5DEF32
:10142000DFFFFFFFFFFFFFFF7DEFFFFFFFFFFFFF7E
:10143000FFFFFFFFFFFFFFFFFFFFFFFFFFFFFFFFBC
:101440009EF738C6B294518CBAD6FFFFFFFF9EF7C5
:10145000DFFFFFFFFFFFFFFFFFFFFFFFFFFFFFFFBC
:10146000FFFFFFFFFFFFFFFFFFFFFFFFFFFFFFFF8C
:10147000FFFFFFFFFFFFFFFF1CE7E7398E734D6B98
:10148000AA52D7BD694A8A52694A00002C63DFFF1D
:1014900061082842FFFF6D6BA210FFFF518C000016
:1014A0002C63AA52FFFFFFFFFFFFFFFFFFFFFFFFBD
:1014B000FFFF7DEF38C6BAD67DEFBEF7FFFF9EF780
:1014C000FFFFFFFFFFFFFFFFFFFFFFFF5DEFBAD64C
:1014D000FBDEFBDEFBDEFBDE79CEBAD6DFFFDFFF15
:1014E0009EF7FBDEDFFF3CE79EF7FFFFFFFFFFFFFE
:1014F000FFFFFFFFFFFFFFFFFFFFFFFFFFFFFFFFFC
:10150000FFFFFFFFFFFFFFFFFFFFFFFFFFFFFFFFEB
:10151000FFFFFFFFFFFFFFFFFBDE0000CF7BFFFFB2
:10152000494A00002421C739A6314529A210610883
:1015300000002421DBDE65290000DBDE6D6B00008E
:10154000AE73AA52FFFFFFFFFFFFFFFFFFFFFFFF8A
:10155000FFFFFFFFFBDE38C6BEF7FFFFFFFFFFFF09
:101560007DEFFBDEFFFFFFFFFFFFFFFFDBDEFBDEAC
:101570007DEF5DEFDFFFBEF79AD634A59EF75DEFF6
:1015800018C659CEFFFFFFFFFFFFFFFFFFFFFFFF62
:10159000FFFFFFFFFFFFFFFFFFFFFFFFFFFFFFFF5B
:1015A000FFFFFFFFFFFFFFFFFFFFFFFFFFFFFFFF4B
:1015B000FFFFFFFFFFFFFFFF5DEF0000EF7B9AD60D
:1015C000BAD6694A75ADFFFFFFFFFFFF34A5494A50
:1015D000AA52EB5A718C6D6B2421000000000000B0
:1015E0000000694AFFFFFFFFFFFFFFFFFFFFFFFF54
:1015F000FFFF3CE759CE38C679CEFFFFFFFFFFFF64
:10160000FBDE3CE7FFFF9EF759CE1CE759CE59CED3
:1016100059CE38C6DBDEBAD6DBDEFBDEFFFFFFFFCE
:101620001CE7DBDEFFFFFFFFFFFFFFFFFFFFFFFF0A
:10163000FFFFFFFF18C6AE73AE73CF7BAE73CF7BD9
:10164000B2941CE7FFFFFFFFFFFFFFFFFFFFFFFF5D
:10165000FFFFFFFFFFFFFFFF518C00003084EB5ABC
:1016600059CEFFFF3CE75DEFFFFF3CE7FFFFFFFFC9
:10167000FFFFFFFFFFFFFFFFDBDE518C518C518C22
:10168000A210494AFFFFFFFFFFFF1CE79EF7FFFF85
:101690003CE759CE59CEFBDE5DEFFFFFFFFFFFFFBA
:1016A000FFFFFFFFFFFFBAD6D7BD9AD659CE3CE762
:1016B000BAD659CE38C638C69AD6FFFFFFFFFFFF0D
:1016C000FFFFFFFFFFFFDFFFDFFF18C628420842D2
:1016D0000842E739C31800000000000000000000C5
:1016E000000065290842E7398E73BEF7FFFFFFFF50
:1016F000FFFFFFFFFFFFFFFF718C0000718C4D6B40
:10170000BAD679CE2421A63108424529084228427A
:1017100028422C6338C69EF7FFFFFFFFFFFFFFFF45
:1017200055AD2C63FFFFFFFFFBDE18C63CE73CE72F
:1017300038C659CEFBDEFFFFFFFFFFFFFFFFFFFFB5
:10174000FFFFFFFFFFFFDBDEDFFF9EF73CE7FFFF52
:10175000DFFF7DEF9AD69AD6DBDEFFFFFFFFFFFFAC
:101760001CE79AD6518CC318E3184108000000000A
:101770000000E318D39C1CE7EB5A04214D6B863123
:10178000242192944D6BC318C318A210AE739AD63D
:10179000FBDEFFFFFFFFFFFF9AD6694AFBDE084230
:1017A0001CE775AD042114A5EB5A4529A6318631F5
:1017B00082104108200065290421042124212421CC
:1017C0000421AA52FFFFFFFF9EF718C618C69AD63B
:1017D000DBDEDFFFFFFFFFFFDFFFBAD6FBDEDFFF51
:1017E000DFFF3CE7FFFFFFFFFFFFFFFFFFFFFFFF04
:1017F000FFFFFFFFFFFFFFFFFFFFFFFF75ADAE73B2
:10180000E318000000002000000024214D6BD39C51
:10181000718C75AD5DEFFFFFFFFFBEF7FFFF0C633F
:101820009AD6FFFFFFFF55AD694A4108000000004E
:10183000821038C6FFFFFFFF59CE0C6338C6A210D6
:101840005DEF34A50C63FFFF5DEF34A53CE779CE77
:10185000D7BD34A50421F39C9294C7398A5208421B
:101860000000694AFFFFFFFFFFFF9AD638C6DFFF7F
:10187000FFFFFFFFFFFF9EF7DFFF9EF7DBDEBEF7F8
:10188000FFFFFFFFFFFF7DEFFFFFFFFFFBDEDFFF3F
:10189000FFFFFFFFFFFFFFFF5DEFAE738A52000007
:1018A00000000421CB5A494A042155ADFFFFFFFF38
:1018B000518C863175ADFFFF7DEFD7BD518CF39C08
:1018C000BEF7F7BDAE734529E31875ADE73961087A
:1018D000000061084D6B1CE7FBDE8A52FFFF494A9E
:1018E000DBDE96B58E73FFFFFFFF3CE7FFFFFFFFD8
:1018F000FFFFDFFFBAD6DFFFFFFFF7BD18C6EB5AC9
:101900000000494AFFFFFFFFFFFFFFFFFFFFFFFF50
:101910005DEFFFFFFFFF7DEFDFFFFFFFFFFFFFFF3B
:10192000FFFF9EF79EF75DEFFFFFFFFF96B518C61E
:10193000FBDEFFFFFFFFBEF7518C18C675AD8A5264
:10194000E7398A523084CB5A718C14A5FBDE10849F
:10195000694AB6B5FBDEDBDEF7BDE739A6311CE729
:10196000FFFFF7BDE73914A51CE7FBDE55ADB6B5A3
:1019700082108A522842242165298A52FFFF8A5206
:10198000DBDE18C6AE737DEFDBDEFFFFFFFFFFFF80
:10199000FFFFFFFFFFFFFFFFFFFFFFFFFFFF494AC2
:1019A00000001084FFFFFFFFFFFFFFFFFFFFFFFFAF
:1019B0009EF7FFFF7DEFDBDEBEF7DFFFFFFFFFFFE0
:1019C000FFFFDFFFBEF7FFFFBEF7FFFFBEF7DBDE67
:1019D000BAD6FFFFFFFFFFFF3CE7F39CA6310C6385
:1019E000C31820002421CB5A0C6392949EF7EF7BFE
:1019F00075ADFFFF5DEF18C6CB5A108438C6BEF731
:101A00007DEF79CE96B5DBDEFBDEFFFF7DEF694A29
:101A100061087DEFFFFFCB5AE31808427DEF34A544
:101A20003CE718C6AE73718C518C18C6FBDE59CEDC
:101A300075ADB294BAD67DEFBEF7FFFFFFFF494AFE
:101A40002000FBDEFFFFFFFFFFFFFFFFFFFFFFFFA9
:101A5000FFFFFFFFDFFFFBDEBAD6BAD67DEFFFFF49
:101A6000FFFFFFFFFFFFFFFF79CEFFFFFFFFFFFF3D
:101A7000FFFFFFFFFFFFFFFF1CE7000041084108D9
:101A800000000000B2947DEFFFFFFFFFBEF7718CF6
:101A9000AA52BAD61CE79294EF7B59CE38C614A549
:101AA0000C63A631C3182000A21079CE4D6B4108FB
:101AB00000000C63FBDEFFFFDFFFEB5A2842FFFF55
:101AC0005DEF10849EF7FFFFFFFF3CE734A5B6B53E
:101AD00055AD518C96B518C6B6B575AD59CE6529BC
:101AE000A210FFFFFFFFFFFFFFFFFFFFFFFFFFFF52
:101AF000FFFFFFFFFFFFFFFFFFFFFFFFFFFFFFFFF6
:101B0000FFFFFFFFFFFFFFFF5DEFFFFFFFFFFFFF97
:101B1000FFFFFFFFFFFFFFFF3CE7000000000000AA
:101B2000410875ADFFFFFFFFD39CAA52AA52C3180C
:101B3000F39CFBDE8E73CB5ACF7B3084AE73AA52FC
:101B4000A63128428210000020002421A2108631F4
:101B5000000000006529FBDEFFFFB6B50000694A02
:101B60005DEFBAD6FFFF5DEF3CE7FFFFFFFFFFFF32
:101B7000FFFFFFFFDFFFBEF71CE7F7BD38C64529B3
:101B8000A210FFFFFFFF9AD634A538C69EF7FFFFCD
:101B9000FFFFFFFFFFFFFFFFFFFFFFFFFFFFFFFF55
:101BA000FFFF38C66D6BEB5AFFFFDFFFBAD6BEF7FB
:101BB000FFFFFFFFFFFF34A5C739000000006D6B7A
:101BC000B6B5FFFFBEF74D6B000000002000B294D9
:101BD000BAD62421000086312842CB5AEF7BCF7B36
:101BE000518C8E73E739AA5261082000CB5A75AD2B
:101BF000718C410800000421FBDEBEF779CEF7BDF1
:101C0000BAD6FFFFFFFFDBDE55AD9AD6DBDEDBDEAB
:101C100075ADB29438C61CE7FFFFFFFFFFFF2842F7
:101C20008210FFFFFFFF79CE55ADD7BD3CE7FFFF28
:101C3000FFFFFFFFFFFFFFFFBEF79EF7D39CE739D3
:101C4000E739C31800000000FFFFFFFFDFFFFFFFC1
:101C5000FFFF7DEF8E7320000000000065291CE768
:101C6000FFFFDFFFB2940421E739E739FBDEFFFF16
:101C700096B5A631E73934A5B294718C5DEF7DEF4E
:101C800034A5AA52F7BD3CE759CE5DEFBEF7FFFF82
:101C9000FFFF79CE8A5200000421B6B5DBDEDBDE21
:101CA0006D6BF39CFFFFDFFF96B579CE5DEF1CE710
:101CB000F7BD14A59AD61CE7FBDE7DEFF7BD6108E2
:101CC000C318FFFFFFFFFFFFFFFFFFFFFFFFFFFF47
:101CD000FFFFFFFF59CE59CE6529A210000000007A
:101CE00000000000000000005DEF5DEFBEF7FFFFA9
:101CF000FFFFF7BD0000000020000C63D7BDFFFF11
:101D0000FFFFBEF7FBDE1CE718C6B6B5DFFFFFFF1F
:101D1000FFFFDFFF1CE73CE71CE77DEFFFFFF7BDA0
:101D2000652914A5FFFFFFFFFFFFFFFFFFFFFFFF78
:101D3000FFFFFFFFFFFF30840000000000000000F5
:101D400030841CE7FFFFFFFF3CE77DEFFFFFFFFF55
:101D5000FFFFBEF7FFFF5DEFDFFFFFFF18C6410883
:101D6000C318FFFFFFFFFFFFFFFFFFFF3CE7F39CF0
:101D7000F39C4D6B00000000000000000000AA5220
:101D8000CF7B042124210C639AD61CE71CE7FFFFBC
:101D90007DEF494A00000000694AFFFFBAD638C605
:101DA000DFFF5DEFFFFFFFFFFFFFFFFFFFFFFFFF15
:101DB000FFFFFFFFFFFFFFFFFFFFFFFF7DEF55ADC1
:101DC00096B5FFFFFFFFFFFFFFFFFFFFFFFFFFFFD6
:101DD000FFFFFFFFFFFF1CE76108000061086108CB
:101DE0008A529294FFFFFFFFFFFF7DEFFFFFFFFF8F
:101DF000DFFFF7BDFBDEFFFFFFFFFFFF5DEF4529C4
:101E0000A210FFFFFFFFD39C4D6B2C63A631000097
:101E1000000000000000E318694AD39C75ADFFFF85
:101E2000FFFF79CE9AD6FFFF518CBAD63CE7FFFF71
:101E30001CE700000000410879CEFFFF3CE71CE7EB
:101E4000FFFFBEF7FFFFFFFFFFFFFFFFFFFFFFFFEB
:101E5000FFFFFFFFFFFFFFFFFFFFFFFFBEF7FFFFDB
:101E6000FFFFFFFFFFFFFFFFFFFFFFFFFFFF3CE75D
:101E7000DFFFFFFFFFFFBEF759CE718C4108929440
:101E80008A52C73914A5DFFFFFFFFFFF5DEFBEF7E2
:101E90007DEF4D6BB6B5FFFFFFFFFFFFFFFF34A5E2
:101EA000694A55AD65290000000000000000610886
:101EB000494A59CE59CEDBDE59CE9EF7FBDEBAD663
:101EC00014A5FBDEFFFFFFFF55AD3CE7FFFFFFFF63
:101ED000D39C0000C318B6B5FFFFFFFFFFFFFFFF55
:101EE000FFFFFFFFFFFFFFFFFFFFFFFFFFFFFFFF02
:101EF000FFFFFFFFFFFFFFFFFFFFFFFFFFFFFFFFF2
:101F0000FFFFBEF79EF77DEFFFFFFFFFFFFFDFFF45
:101F1000FFFFFFFFFFFFFFFFFFFFB6B5000038C662
:101F20008A520000A631DBDEFFFF9EF7FBDEBEF724
:101F3000FFFFFFFFFFFFFFFF3CE7B6B596B5494A3D
:101F4000A210C318E318863128421084108414A507
:101F5000BAD6DFFFBAD6F7BD518C308496B5DBDE3A
:101F60009AD6BEF7FFFFFFFFFFFFFFFFFFFFFFFF58
:101F7000E31800001084FFFFFFFFFFFFFFFF9EF745
:101F8000FFFFFFFFFFFFFFFFFFFFFFFFFFFFFFFF61
:101F9000FFFFFFFFFFFFFFFFFFFFFFFFFFFFFFFF51
:101FA000DFFF7DEFDBDEEB5A18C6FFFFFFFFFFFF11
:101FB000FFFFFFFFFFFFFFFFFFFF38C6A2106D6BA3
:101FC00018C68A52E318518CFFFFFFFF7DEF9EF782
:101FD000FFFF75AD9294518CA631694A6D6BD39C0D
:101FE00034A5D7BD1CE73CE79EF75DEFF7BD108435
:101FF000B294BAD675AD75ADD7BDFFFFFFFFFFFF39
:10200000FFFFFFFFFFFF3CE7FFFFFFFFFFFFFFFFBB
:1020100004210000718CFFFFFFFF1CE7FBDE79CE7F
:10202000FBDEFFFFFFFFFFFFDFFF5DEFFFFF5DEF69
:10203000DFFFFFFFFFFFFFFFDFFF5DEFFFFFFFFFA2
:10204000FFFFFFFF7DEF518C518CD7BD3CE7FFFFB9
:10205000FFFFFFFFFFFFFFFFFFFFFFFF4D6B0000D4
:102060007DEFFFFFAA5282103CE7FFFFFFFFFFFF5B
:102070001084000024212C63F39CFFFFFFFFFFFF6F
:102080009EF7DBDE38C61CE75DEFDBDE14A514A58A
:102090005DEFFFFFFFFFFFFFBEF7FFFF9EF7FBDED9
:1020A000DBDEF7BD96B5D7BDDFFFFFFFFFFFAE73E9
:1020B0002000C7397DEFFFFF9AD679CE7DEFDBDEBA
:1020C0007DEFFFFFBEF7FFFFFFFF9EF7DFFFBEF7CD
:1020D000FFFFBEF7BAD67DEFFBDEBEF75DEF9AD607
:1020E000DBDEFFFF3CE79AD618C68E73EF7B3CE73A
:1020F0005DEFFFFFFFFFFFFFFFFFFFFF108400000A
:10210000EF7BDFFF38C64108AE73FFFFFFFFBEF76E
:1021100008426D6B1CE7BEF79EF7DFFF38C696B529
:1021200075AD9AD65DEFFFFFFFFFFFFF9EF77DEFD6
:10213000DFFFDFFF3CE79AD696B534A5BAD659CE75
:1021400059CE59CE1CE77DEFFBDEFFFFFFFFEB5AB8
:102150000000694AFFFF9EF7AE7334A55DEFBEF73E
:10216000FFFFBEF7BAD6BEF7FFFF9EF75DEFFFFF9A
:10217000FFFFFFFF3CE759CEDBDEFFFF5DEF38C618
:1021800055AD96B518C6EF7BB6B579CE8210D39C07
:10219000FFFFFFFFFFFFFFFFFFFFFFFF34A5200052
:1021A0000421CF7BFFFFC73900003084DFFF3CE70D
:1021B000D39CEB5AB6B538C6BAD6FFFFDFFFBEF7E1
:1021C000FFFFFFFFFFFF7DEF3CE73CE7718CAE7345
:1021D0009AD6FBDEBAD6BAD67DEF9EF7FFFFFFFF99
:1021E000FFFFFFFFFFFFFFFFFFFFFFFFFFFF494A6A
:1021F000200075ADFFFF3CE796B5FBDE9EF77DEF57
:10220000DFFFFFFFFFFFFFFFFFFFFFFFFFFFFFFFFE
:102210003CE77DEFFFFF5DEFFFFFFFFFFFFF7DEF7F
:1022200038C634A575ADD39CEB5A694AEB5AB6B59E
:102230003CE75DEFFFFF59CEFBDEFFFF1CE7C73930
:10224000C318C739DBDEF39C00004108D7BDFFFF90
:1022500055AD8631F7BDFFFFFFFFFFFFBEF73CE73F
:10226000BAD61CE71CE7FBDE59CEDBDE75AD79CEB6
:10227000FFFFFFFFFFFFFFFFFFFFFFFFBEF73CE792
:102280005DEF5DEF3CE75DEFFFFFFFFFFFFF084203
:102290008210FFFFFFFFFFFFFFFFFFFFFFFFFFFFBA
:1022A000FFFFFFFFFFFFFFFFDFFFDBDE7DEFFFFF35
:1022B0005DEF7DEFFFFFFFFF5DEFFFFFFFFFFFFF24
:1022C000BEF7FFFF1CE7D7BDD39CCF7BFBDEFFFF34
:1022D000BAD68A52D7BD79CE1CE7FFFFFFFF75AD96
:1022E00041082000B294FFFF92948210D7BD7DEF89
:1022F0006D6B0C633CE7FBDE1CE7FFFFBEF73CE7C2
:10230000DBDE3CE7BEF7FFFFFFFFFFFFFFFF9EF7AF
:10231000DFFFBEF71CE775ADD39C38C63CE73CE752
:102320001CE79AD65DEFF7BDFFFFFFFFFFFF494AAD
:102330008210FFFFFFFFFFFFFFFFFFFFFFFFFFFF19
:10234000FFFFFFFFDFFFBEF7FFFF3CE779CE9AD626
:10235000FFFFFFFFFFFFFFFFBEF7FFFFFFFFFFFFD6
:10236000FFFFFFFFFFFF5DEFFBDEFBDEBAD67DEF79
:10237000FFFFF7BDB6B5DFFFFFFFFFFFFFFFFFFF6A
:10238000CB5A2000042118C69EF78E73FFFFFFFF73
:102390000C638631DBDE1CE77DEFFFFFFFFFFFFFF5
:1023A000FFFFFFFFFFFFFFFFFFFFBEF7DBDE96B57E
:1023B000BAD6FFFF9EF718C696B53CE7DFFFFFFFD2
:1023C0009EF734A5FFFFD39CFFFFFFFF5DEF863133
:1023D000A210FFFFFFFFDBDEDFFFFFFF5DEF1CE76B
:1023E0007DEFFFFF7DEFDBDEDFFFFFFF1CE7F39CF0
:1023F0007DEFFFFFFFFFFFFFFFFFFFFFFFFFFFFF7F
:10240000FFFFFFFFFFFFFFFFDFFFDFFFFFFF3CE7F7
:102410009EF7FFFF5DEF9EF7FFFFFFFFFFFF9EF7B9
:1024200028424108E31859CEFFFF3CE7FFFF5DEF6C
:10243000EB5ACB5A5DEF7DEFBEF7FFFFBEF77DEFA6
:1024400059CEDBDEFFFFFFFFFFFFFFFFFFFF1CE7B3
:10245000BEF7FFFFFFFFFFFFFFFFFFFFFFFFFFFFD5
:1024600096B51084BEF7518CFFFFFFFF108400006B
:10247000E318FFFFFFFF5DEF5DEF5DEF55ADD39C10
:10248000FBDEFFFFFFFFFFFFFFFFFFFF9EF779CEA1
:10249000BEF7FFFF9EF7BEF7FFFFFFFF9EF7DFFFD0
:1024A000FFFF3CE71CE7FFFFFFFF75ADB294FFFFA6
:1024B0001CE71CE7FFFF9EF7DFFFFFFFFFFFF39C1A
:1024C00028420C6334A59EF7FFFFFFFFFFFF9AD65B
:1024D0002421C739D7BDDBDE9AD6FFFFBEF71CE744
:1024E000FBDE5DEFFFFFFFFFFFFF5DEFFBDEFFFFAA
:1024F000BEF7FFFFFFFFFFFFBAD679CEFFFFDFFF7A
:102500008A52F39C3CE7CB5AFFFFFFFF79CE652947
:102510002842FFFFFFFFFFFF38C6518C18C65DEF52
:10252000FFFFFFFFFFFFFFFFFFFFFFFFFFFFFFFFBB
:10253000FFFFFFFF9EF7BEF7FFFFFFFF1CE79AD6E6
:10254000F7BD6D6BEB5AB29418C679CEA63128420E
:10255000CB5A3084FFFFDBDEBEF7FFFFFFFFD7BDA6
:10256000108414A5084238C6FFFFFFFFFFFFFFFFDE
:10257000C318000055ADFFFFBEF7FFFFFBDE5DEFA8
:10258000FFFFFFFFFFFFFFFFFFFFF39CEF7BDFFF7E
:10259000F39C3CE7FFFFFFFFEF7BF39CFFFFDFFFB8
:1025A00018C6DFFFFFFF75ADFFFFFFFFFFFFAA5259
:1025B000D7BDFFFFFFFFFFFF9EF7FBDEFFFFFFFF23
:1025C000FFFFFFFFFFFFFFFFFFFFFFFFFFFFDFFF3B
:1025D000FFFFFFFFFFFFFFFFFFFFDFFFDFFFDBDE90
:1025E0003CE7D7BD0C632C63518CFFFF5DEFAE73EE
:1025F000A631494ABAD6FFFFFFFFFFFFFFFF18C60B
:10260000308459CE610834A5FFFFFFFFFFFF9EF71E
:102610004529084296B5FFFFFFFFFFFF75ADF7BDE7
:10262000FFFF7DEF38C6BEF79EF74D6B518C9EF7CE
:10263000518C59CEFFFFDFFFAA5275ADFFFF3CE77B
:102640007DEFDBDE5DEFFFFF3CE7FFFFFFFF694A49
:1026500079CEFFFFBEF7FFFFFFFFFFFF1CE7F7BDCF
:10266000DFFFFFFFFFFF1CE79EF7FFFFFFFFB6B591
:102670007DEFFFFFDFFFDFFFDFFF3CE7FFFFFFFF37
:10268000FFFFFFFFFFFFFFFFDFFFFFFFFFFFFFFF7A
:10269000718C4529518C5DEFFFFFFFFFFFFFDBDEF3
:1026A000694AEF7BB294DBDEFFFFFFFFFFFF108480
:1026B0006108694A18C6FFFFDBDEFFFF14A555ADB0
:1026C000FFFF59CE8E735DEFFFFFF7BD38C6DFFF0A
:1026D0001CE714A5FFFF38C62C6318C6FFFFFFFFD9
:1026E0009AD6F7BD59CE7DEF694AFFFFBEF72C633E
:1026F000FBDEFFFF1CE71CE7BEF718C665290000DC
:102700002C633CE7FFFF18C6D39CFFFFFFFFEF7B66
:102710009AD6FFFF1CE77DEFFFFFFFFFFFFFFFFFE4
:10272000FFFF1CE7D7BDBAD6FFFF7DEFFFFFFFFF1E
:10273000BEF79294D39C18C6DFFFFFFFFFFF9AD627
:10274000A2100842FFFFFFFFFFFFFFFFFFFF08424D
:1027500000008A52FFFFFFFF9EF7DFFFD39C9AD64F
:10276000FFFFFBDEB6B5FFFFFFFFFBDEFFFFFFFF56
:10277000BEF7BAD6FFFF718CAA5279CEFFFFBEF723
:1027800038C634A51CE7DFFFE318FFFF7DEF75AD0A
:1027900018C6FFFF7DEFB2942842821000000000AF
:1027A0000000CB5A718C4529D39CFFFFFFFFEF7BC4
:1027B0002842FBDEBEF71CE7F7BD92940C63108441
:1027C00014A58E73E31804218E736D6B284238C6EE
:1027D000FFFFFFFF9EF77DEFFFFFFFFFFFFF10846E
:1027E0002421D7BDFFFFFFFFFFFFFFFFFFFF34A541
:1027F0008210518CFFFFFFFFFFFFDBDE18C69EF744
:10280000FFFFBAD67DEFFFFF7DEF3084518C79CE8C
:102810003CE710843CE775AD2000F39CDFFFB6B5C4
:1028200034A518C659CE9AD6FBDE7DEF3CE714A539
:10283000242134A5F7BD28420000410886312842F2
:102840002421494A45290000BAD6FFFFFFFF7DEF4A
:10285000B294494A10844D6B6529000000000000C5
:102860000000E3180000E739B6B5DBDEEF7BEB5A7A
:10287000DBDEFFFFFFFFFFFFDFFF7DEF38C66529CF
:10288000494A7DEFDBDECF7B79CEFFFFFFFF4D6B4B
:10289000200045292842C318A21061088210EF7B4E
:1028A0004D6B6108C739694AA21000000000200082
:1028B00082100000610882100000C739E73920004B
:1028C00020008210410820007DEF45296D6BFBDE62
:1028D00004218A52F7BDEF7B6D6B59CEFFFFFFFFDE
:1028E000FFFFF7BD6529E739BAD6FFFFFFFFFFFFFE
:1028F000FFFFD39C2C632C638631694A494A2842E6
:10290000E73920000000CF7B9EF7DFFFFFFF7DEF60
:10291000B294FFFFFFFFFFFFFFFFFFFF75ADE73939
:10292000E73996B5FBDE6D6B8A52FFFFFFFF084269
:10293000000086316529A631E739E7390842494A5E
:102940002842084208420842E73928422842084201
:10295000E7392842E7390842494A284208420842F2
:102960000842E7390842E7397DEFE739AE73FFFFE8
:1029700018C6BAD6FFFFFFFFFFFFFFFFD7BD3084A9
:10298000DBDE5DEF652934A5FFFFFFFFFFFFFFFFE3
:10299000FFFF59CE96B5FBDE38C6BEF7FFFFFFFF3F
:1029A000FFFF34A5EF7B96B51CE7D7BD38C6DFFF28
:1029B0000C63F39CFFFFFFFFFFFFFFFF59CED39C8B
:1029C000A63134A5DFFF55ADCB5AAE73F7BD96B532
:1029D00030847DEF7DEFFFFFFFFFFFFFFFFFFFFF75
:1029E000FFFFFFFFFFFFFFFFFFFFFFFFFFFFFFFFF7
:1029F000FFFFFFFFFFFFFFFFFFFFFFFFFFFFFFFFE7
:102A0000FFFFFFFFFFFFFFFFBEF70C63CF7BFFFF62
:102A100075AD2C63494A694AAA528A52C31800000C
:102A20006529494A200096B5FFFFFFFFFFFFFFFF22
:102A3000FFFFDFFFF7BD308475ADFFFFFFFFFFFF36
:102A4000FFFFFFFFFFFFFFFFFFFF7DEF1CE7DFFF43
:102A50008E73000014A5FFFFFFFFFFFFFFFF7DEF58
:102A6000E318718C9AD6CF7B0C6300008E73FFFF46
:102A7000FFFFFFFFFFFFFFFFFFFFFFFFFFFFFFFF66
:102A8000FFFFFFFFFFFFFFFFFFFFFFFFFFFFFFFF56
:102A9000FFFFDFFF75AD34A5DFFFFFFFFFFFFFFF87
:102AA000DFFF5DEF7DEFF7BDC318E7391CE7FFFFE0
:102AB00075ADC3186108AE7318C6B6B5F7BD18C6B4
:102AC00079CE518C000055ADFFFFFFFFFFFFFFFFE8
:102AD000FFFF5DEF4D6B042192942C63A210C3188D
:102AE000A210A210A21014A5FBDE9EF7FFFFFFFFAD
:102AF000BAD60000694AFFFFFFFFFFFFFFFFDFFFBD
:102B0000A2104D6B79CEAA52A6318210718CFFFFB4
:102B1000DFFF3CE7FFFFBEF73CE7FFFFFFFFFFFFE4
:102B2000FFFFDFFFDFFFDFFFBEF7FFFFFFFFFFFF5E
:102B3000FFFF1CE7CB5AD39CFFFFDBDECF7BDBDE46
:102B4000FFFFDBDE96B5AE7382100000B294FFFF8C
:102B5000FFFFBEF7DFFFFFFF79CE2C630C63AE7380
:102B600096B5518C821075ADFFFFFFFFFFFFFFFF91
:102B7000FFFF1CE7CB5AF39C3CE7694A0842CB5A5B
:102B8000494A0842863100000000C73918C6BEF71E
:102B90005DEF8A529294FFFFFFFFFFFFFFFF3CE7CC
:102BA00061088631D7BD45294108EF7BB6B5FFFFE7
:102BB000FFFFFFFFFFFF1CE7AA5255AD7DEFFFFFB0
:102BC000FFFF9EF77DEF5DEFDBDED7BDD7BDB6B56E
:102BD000F7BD5DEF7DEFFFFF9EF7F7BD494A38C6B1
:102BE000FFFFFFFFDFFFBEF7EB5A4108B294FFFF84
:102BF000D39C75ADFFFFFFFF1CE796B575AD38C6DA
:102C0000EB5A000086313CE7FFFFFFFFFFFFFFFFAD
:102C1000DFFFBAD6EF7B18C6FFFFFFFFFFFFFFFF06
:102C2000FFFFFFFFDFFF9294AA520000200079CE41
:102C3000FFFFBEF7BEF7FFFFDFFF5DEFFFFFFFFF08
:102C4000E318000055AD494A6108FFFFFFFF718C92
:102C50005DEFFFFFFFFFFFFF18C696B55DEFFFFFBB
:102C6000FFFFFFFFFFFFFFFFFFFFCF7B8A52863191
:102C7000694A9AD6BEF7FFFF7DEFFFFFFFFFFFFF18
:102C8000FFFFFFFFFFFFFFFFA21008427DEFFFFFE6
:102C9000518C9AD6FFFFFFFFFFFFFFFFFFFFFFFFF3
:102CA00034A5242114A5FFFFFFFFFFFFFFFFFFFF57
:102CB000DFFF79CEF7BD59CEF39CB6B55DEFDFFFF0
:102CC000DFFFFFFFFFFFFFFFDFFFAE7300004529BF
:102CD00008424529E7394D6B5DEF9EF7FFFFFFFF87
:102CE000E3180000F39C8A52E318FFFFFFFF96B53C
:102CF000E7390C635DEF9EF73CE7FFFFFFFFBEF790
:102D00006D6B18C6DFFFDFFFFFFFDFFF9EF71CE7DD
:102D10005DEFBEF7FFFFFFFFFFFFFFFFD39C494AB8
:102D200038C6BEF7FFFFFFFF00008A52FFFFFFFF1C
:102D3000FFFFFFFFFFFFFFFFFFFFBEF71CE738C6E7
:102D400059CE79CEDFFFFFFFFFFFDFFFFFFFFFFF61
:102D5000DBDE96B59AD6DFFF14A58E73F39CB6B56D
:102D6000AA524D6B79CEFFFFFFFF34A58631C31801
:102D7000A21000004D6BFBDEFFFFFFFFFFFFFFFF18
:102D8000494A0000518C38C634A5DBDEFBDE3084B6
:102D9000E318E31828422842A63145298210610829
:102DA00000000000610861086108694AFBDE3CE739
:102DB00079CE694A34A5DBDEEB5AC7392421A2104B
:102DC000C739EF7BFFFFFFFF0000694AFFFFFFFFEE
:102DD000FFFFFFFFFFFFFFFFDFFFFBDEFBDE18C68D
:102DE000DBDEFFFFFFFFBEF7DFFF1CE7BEF7FFFFE5
:102DF00018C614A57DEFFFFF5DEF3CE7FFFFFFFF67
:102E0000B2940842A63118C6FFFFFFFFFFFFFFFF85
:102E1000FFFF34A5F39CBAD6BEF7FFFFFFFFFFFF0D
:102E2000D39C000008429294CB5ACF7BFFFFFFFF58
:102E3000FFFFFFFFDFFFFFFFDBDEF39CAA52494AE3
:102E40008A52494A494A494A494AE739000000003A
:102E5000000000000000000000000000B6B5FFFF09
:102E6000FFFFFFFFBAD675AD0000694AFFFFFFFF05
:102E7000FFFFFFFFFFFFFFFFFFFFFFFFFFFFFFFF62
:102E8000FFFFFFFFFFFFBAD61CE7BEF79EF7FFFF6D
:102E90001CE7FBDEFFFFFFFF7DEFDFFF1CE73CE7EA
:102EA000FFFFFFFFF7BD9AD6DFFF7DEF34A555ADDD
:102EB000FFFFFFFFFFFFF7BD9EF7FFFFFFFFFFFFD5
:102EC000BAD62000E73955AD3CE7BEF779CE3CE7EE
:102ED000FFFFFFFFFBDE3084BEF7FFFFFFFFFFFFBA
:102EE000FFFFFFFFFFFFFFFFFFFFFFFFD39C1084EB
:102EF000108430841084108410840C6328428E73F4
:102F00008E739AD6EF7B0000518C8A52FFFFFFFF31
:102F1000FFFFFFFFFFFFFFFFFFFFFFFF1CE7EB5A75
:102F2000718CFFFFFFFFBEF77DEFFFFFFFFFFFFF8D
:102F3000FFFFFFFFFFFFFFFFFFFFDFFF5DEF9AD601
:102F4000DBDEFFFFFFFFFFFFFFFF9EF718C62842F3
:102F5000284214A5FBDEDFFFFFFFFFFFFFFFFFFF9F
:102F60003CE7C739F7BDFFFFFFFFFFFFFBDE0C6348
:102F70000C638E736D6B2000EF7B3CE79EF7FFFFC9
:102F8000DFFF7DEF7DEF4D6B8A52DFFFFFFFFFFF1D
:102F9000FFFFFFFFFFFFFFFFFFFFFFFFB6B575ADB0
:102FA00014A51CE7518C00003CE7718CFFFFFFFF6C
:102FB000FFFFFFFFFFFFFFFFFFFFBEF7EB5A000021
:102FC00055ADFFFFFFFFFFFFFFFFFFFFFFFFFFFF0D
:102FD000FFFF5DEFB6B555ADDBDEFFFFFFFFDFFFA7
:102FE000BEF7FFFFFFFFFFFFFFFFFFFFFFFF3CE715
:102FF0006D6B30849AD6DBDEDFFF9EF7FFFFFFFFAD
:10300000FBDE6108C73918C6FFFFFFFF9EF79EF77A
:103010005DEF7DEF9EF7518C9AD69AD6CB5A79CE3A
:1030200075ADE739B294E7390000EF7BDBDEFFFFD7
:10303000FFFFFFFFFFFFFFFFFFFFFFFFFFFF3CE77B
:10304000FFFFFFFF4D6B00007DEFFFFFFFFFFFFF66
:10305000FFFFFFFFFFFFFFFF7DEFEB5A00006D6BEF
:10306000DFFFFFFFFFFFFFFFFFFFFFFFFFFFFFFF90
:10307000FFFF18C6EB5A6108A2109AD6FFFFFFFFA8
:10308000FFFFFFFFFFFFFFFFFFFFFFFFFFFFFFFF50
:10309000FFFF9EF73CE7DFFFFFFFF7BD75ADFFFFCA
:1030A000FBDE000000000C63BEF7EB5AA631F39C78
:1030B00075AD96B518C6DBDEFFFFFFFFFFFFDFFF34
:1030C000DBDE1CE7FFFFB6B5D39CBAD675ADD7BD26
:1030D0007DEFFFFFFFFFFFFF5DEF34A5EB5A000020
:1030E000DBDE1084000000005DEFFFFF9EF7BEF7FF
:1030F0007DEFFFFFFFFF9EF7518C000028427DEF20
:10310000FFFFFFFFFFFFFFFFFFFFFFFFFFFFFFFFCF
:10311000FFFFFFFFFFFF30840000494AFFFFFFFF72
:10312000FFFFFFFFFFFFFFFFFFFFFFFFFFFFFFFFAF
:10313000FFFFFFFF18C6BAD6FFFFF7BDCB5ADBDE95
:10314000BEF72C63000055AD9EF78E733084AE73CE
:103150000000000000002421EB5A6D6B8E73518C2F
:10316000FFFFFFFFFFFFFFFFFFFFFFFFFFFF96B522
:103170009EF77DEF9AD614A5EF7B718C8A52C31807
:10318000F7BD00002842518CFFFFFFFF79CE18C623
:10319000BAD6FFFFFFFF14A54108410814A5FFFFA1
:1031A00014A5DBDEFFFFFFFFFFFFFFFFFFFFFFFFB9
:1031B000FFFFFFFFFFFFBEF78210410818C6FFFFA9
:1031C000FFFFFFFFFFFFFFFFFFFFFFFFFFFFFFFF0F
:1031D000FFFFFFFF9AD638C6FFFFD39CC7399AD6A8
:1031E000FFFF75AD0000B6B5FFFFEF7B14A5FFFF35
:1031F00018C6B6B555ADF39CF39C6529000041088F
:1032000028422842A631C739694A30849EF7FFFF19
:10321000DFFF7DEF9EF7BAD6FBDEFFFFF39CF39C4A
:10322000BEF78E731084FFFFFFFFDFFF38C65DEF30
:10323000DFFFFFFF1CE7452965291CE7BEF775ADD9
:103240000000C7393CE7FFFFDFFF1CE7518CEB5A5A
:10325000BAD6FFFFFFFFFFFFC318200065291CE758
:10326000FFFFFFFFFFFFFFFF7DEFBAD6FFFFFFFF6E
:10327000DFFF3CE7FFFFF7BD9AD6EB5A1084FFFF54
:103280003CE7C73908421CE7FFFF1CE7FBDEDFFF16
:103290005DEF79CE518CAA527DEF79CE75ADF7BD39
:1032A000DBDE55AD8631863165298631242120004B
:1032B0002000863118C6FBDEDBDE9AD659CEFFFF32
:1032C000FFFFCB5AAE73FFFFFFFFDFFF38C6DBDE29
:1032D000FFFFDFFF2C63EB5A9EF7FFFFFFFFB6B542
:1032E00024210000718CB6B5D7BDEF7B2000000013
:1032F000452955AD18C634A5EF7B1084000055ADA7
:10330000FFFFFFFFFFFF9EF718C6D39C9AD6FFFF73
:10331000FFFFFFFFFFFFBAD675AD518CBEF7FFFF71
:10332000718C5DEF5DEF9EF71CE7FFFF9EF79EF748
:10333000FFFFFFFFFFFFDFFF9EF734A5CF7B14A544
:103340007DEFB6B59294929418C6FFFFB6B52C6384
:103350002C63CB5A652900000000000000006D6B53
:10336000B2940000518CFFFFFFFFFFFFDBDED7BDF3
:1033700096B5EF7B8E73BEF7FFFFFFFFFFFFFFFFEA
:10338000BAD6929455ADAE73718CAE73C7390842FC
:10339000000000000421F39CFFFF9EF765296529CA
:1033A000FBDEFFFFFFFF7DEFFBDE96B5D7BD9EF78F
:1033B000FFFFFFFFFFFFFFFFD7BD9294FFFFDBDEA4
:1033C0008631FFFF9EF7B29475ADFFFFFFFFFFFF51
:1033D000FFFFBEF77DEFFFFFFFFFFFFFFFFFFFFFD8
:1033E0003CE714A5EF7BEF7BB6B5BEF7D39CCF7B54
:1033F00010845DEF1CE79294B294929492940842E8
:103400000000000065292C63FFFFFFFF5DEF59CE30
:10341000EF7B452996B5FFFFFFFFFFFFFFFFFFFF93
:10342000FFFFFFFFBEF738C692944D6B34A51CE733
:10343000B2940C63D7BDFFFFFFFFFFFF9AD6E739B9
:10344000518C3CE7FFFFFFFFFFFF79CE59CEDBDE5B
:10345000BEF7BAD65DEFFFFF3CE779CEFFFF9EF7E0
:10346000308434A5FBDE9AD69EF7BEF7BAD6BAD61C
:10347000FBDEDFFFBEF73CE7DFFFFFFFFFFFFFFFE5
:10348000FFFFFFFFFFFFFFFFFFFFFFFF18C655AD68
:1034900055AD718CEB5A6D6BF39CFFFFFFFF5DEF39
:1034A000D39C0842D7BD55ADFFFFFFFF3CE779CE67
:1034B000F7BD518C5DEFFFFFDFFFFFFFFFFFFFFF59
:1034C000FFFFFFFFBEF7DBDEB6B5D39CDBDEFFFF01
:1034D000FFFF1CE7FFFFFFFFFFFFFFFFFFFF518C18
:1034E000EB5AFBDEFFFFFFFFFFFF18C675AD59CE9D
:1034F0009EF79AD65DEFFFFFFFFFFFFF9EF7FFFFEE
:10350000BEF7D7BD14A53CE7FFFFFFFF5DEF9AD6DE
:1035100018C638C6DFFFDFFFBEF7FFFFFFFFFFFF64
:10352000FFFFFFFFDFFFDFFFDFFF7DEFFFFFFFFF9D
:10353000FFFF9EF7DBDE18C60842694A8A529AD618
:103540005DEF08427DEFFFFFFFFFFFFF3CE759CE35
:10355000BEF77DEFFFFFBEF7718CDBDEFFFFFFFFE5
:10356000FFFFFFFFFBDE38C63CE7FFFFFFFFFFFF6B
:10357000FFFFFFFFFFFFFFFFFFFFFFFFFFFFFFFF5B
:10358000D39C18C67DEFDBDEFBDE79CED7BD18C637
:10359000DFFFFFFFFFFFFFFFFFFF7DEF79CEDFFFC4
:1035A000FFFF14A5042179CEFFFFDFFF7DEFFFFFB2
:1035B000DBDE75ADBEF7FFFF5DEFFFFFFFFF1CE732
:1035C0001CE79EF77DEFBEF7BEF79AD69EF7BEF7D3
:1035D000FFFFFFFFFFFFFFFFFFFFFFFFFFFFFFFFFB
:1035E000DBDE0421B6B5BEF73CE7FFFF3CE738C69B
:1035F000DFFFFFFFBEF714A54108EB5AFFFFFFFFF7
:10360000FFFFFFFF34A5D39C1CE759CE9EF7FFFFB9
:10361000FFFFFFFFFFFFFFFFFFFFFFFFFFFFFFFFBA
:103620005DEFB6B5DBDEBAD61CE71CE759CE79CE26
:10363000DFFFFFFFFFFFFFFFFFFFBEF7BEF79EF7B5
:10364000FFFFFBDEF7BDFFFFFFFF9EF775AD1CE739
:103650009EF7FFFF9EF7BEF7FFFFFBDE9EF7FBDE48
:1036600038C67DEFFFFFFFFFFFFFFFFF9EF7BEF7AE
:10367000FFFFFFFFFFFFFFFFFFFF1CE779CEFFFF0C
:1036800034A50421D7BDFFFF9EF7FFFF3CE73CE7D1
:10369000FFFFFFFF5DEFCF7B45298210718C9EF706
:1036A000BEF7FFFFBEF77DEF9EF73CE7DFFFFFFFB2
:1036B000FFFFFFFFFFFFFFFFFFFFFFFFFFFFFFFF1A
:1036C000FFFF79CE3CE7FFFFFFFFFFFF1CE759CE6E
:1036D000FBDEFFFFFFFFFFFFFFFFFFFFFFFFAE73FC
:1036E00075AD084234A5FFFFFFFFFFFFBAD63CE7E8
:1036F000BEF7FFFF9AD638C6DBDEDBDE79CE3CE7CD
:10370000DFFFFFFF1CE75DEFFFFFDFFFDFFFDFFFF6
:10371000F7BDEF7BEF7B518C3084CB5AF39CFFFFDE
:1037200059CE694A79CEFFFFFFFFFFFFDBDE3CE7A2
:10373000FFFFFFFF7DEFB6B59EF796B582104108FB
:1037400059CE1CE7BAD67DEFFFFFFFFFDFFFFFFF7B
:10375000FFFFFFFFFFFFFFFFFFFFFFFF9EF7FFFFE2
:10376000FFFF7DEF3CE75DEF9AD6FBDE3CE738C616
:1037700059CEFFFFFFFFFFFFFFFFFFFFFFFF494A9B
:1037800041080000AE73FFFFFFFFBEF7FFFFFFFF22
:10379000FFFFFFFFFFFFDFFFDFFFFFFF59CEDBDE95
:1037A000FFFFDFFF34A575ADFFFF59CEB6B5BAD622
:1037B0002C630C63CF7B96B518C696B57DEFFFFFE3
:1037C000FFFFDFFFFFFFFFFFFFFFFFFFBAD6F39C06
:1037D0003CE7FFFFFFFFFFFFFFFFFFFF96B5452917
:1037E000B6B57DEFB294D7BDEF7BB294B6B58E730C
:1037F0003084D39C75AD9EF779CEF39C34A57DEFD4
:10380000DFFF9AD61CE7FFFFDFFFDBDE38C638C6D6
:1038100055ADFFFFFFFFFFFFBEF7FFFFFFFF694A48
:1038200000000000CF7BFFFFFFFF3CE7F7BD9AD60B
:10383000DFFF79CEDBDE7DEFDFFFBEF79EF79EF781
:103840007DEFFFFF7DEF1CE7FFFF3CE7DBDEFFFFC7
:10385000FFFFFFFFFFFFFFFFFFFFDFFF9EF7FFFF01
:10386000FFFFFFFFFFFFFFFFFFFFFFFFDFFF3084D2
:10387000F7BDDFFFFBDEDFFFFFFFFFFFFFFFFBDE2C
:103880001084EB5A96B5BEF7694AB6B5FBDEB29422
:10389000518CEB5A0000494AC31800004108CF7B05
:1038A000AE739294BEF7FFFFFFFFFFFF5DEF9AD666
:1038B00018C6FFFFFFFFFFFF55ADDFFFFFFF8A5276
:1038C000000000009294D7BD7DEFFFFFF7BDB6B5B5
:1038D000BEF779CEFBDE9EF79EF779CE9EF7FFFF0F
:1038E0005DEF7DEFFFFF7DEFDFFFFFFFFFFFFFFFDE
:1038F0007DEFFFFFFFFF5DEFFFFFDFFF7DEFFFFFCE
:103900001CE7518CDFFF7DEFEB5A9EF7FFFF59CE8E
:1039100030849AD675ADDBDEFFFFFFFFFFFFFFFFB0
:103920007DEF10842421694AE7392C63AE732C6340
:1039300034A5CB5A04218210042138C6D7BD4D6B63
:103940008A5259CEFFFFFFFFDFFFDFFFFFFF9EF729
:10395000F7BDDFFFFFFFDBDEEF7BDFFFBEF7494A8E
:10396000000008427DEF494AC739FFFFFFFFFFFF14
:10397000BEF71CE73CE77DEF7DEF79CE92947DEFBB
:103980009EF796B5BEF71CE759CEFFFFDFFFBAD60C
:10399000BAD69AD69EF7BAD6D7BDBEF7DFFF7DEF6F
:1039A00038C6CB5AEF7B8A5279CEF7BDFFFFFFFFB7
:1039B0004D6BD39CD7BDF7BD9EF7FFFFFFFFFFFF09
:1039C000FFFFFFFF5DEF1CE71CE7B294CF7BCF7BCF
:1039D000F7BDBAD69EF77DEF9EF7FFFFFFFFDBDE58
:1039E000718CDFFFFFFFFFFF1CE79AD69AD6BEF768
:1039F0001CE7FFFFFFFF929414A5FFFF518C2000EE
:103A0000410838C6FFFF28422000BEF7FFFFFFFF36
:103A10005DEF9EF7718C694A79CEFBDE59CEFFFFD0
:103A20007DEFEF7B38C679CE38C6FFFFFBDE518CC9
:103A300034A5718CF7BDBEF7AE7396B57DEF5DEF23
:103A4000FFFFDFFF7DEF79CEFFFFDFFF9EF7FFFF78
:103A500018C6A63179CEDBDE1CE7FFFFFFFFFFFFB4
:103A6000FFFFFFFFFFFFFFFFFFFFFFFFFFFFFFFF66
:103A7000FFFFFFFFFFFFFFFFFFFFFFFFFFFFFFFF56
:103A800038C6DFFFFFFFFFFFFFFF9EF77DEFFFFF61
:103A9000FFFFFFFFDBDEAA521CE7FFFF30840000C0
:103AA000C739FFFF3CE76529000059CEFFFFBEF78D
:103AB000DFFF5DEF1CE759CE38C69AD61CE7FFFF43
:103AC0009EF779CEFFFF55ADAA52DBDEFFFF7DEFFB
:103AD000FFFF9EF7DBDEFFFF518C2C63BAD659CE79
:103AE000FBDEDBDEFFFFFFFFFFFFFFFFFBDEBEF7BE
:103AF0009EF7CB5A718C1CE71CE7FFFF9EF738C678
:103B00001CE77DEF55AD79CE1CE7BAD6FFFF5DEF20
:103B1000DFFFFFFFFFFFFFFFFFFFFFFFFFFF3CE7B0
:103B2000BAD6FFFFFFFFFFFFFFFFFFFF9EF79EF7E5
:103B3000FFFF3CE7694A518CFFFF9AD686310000AF
:103B4000B6B5FFFF34A50000242179CEFFFF18C6CB
:103B500059CEDBDEFFFFFFFFFFFFFFFFFFFFFFFF91
:103B6000DFFF18C6F7BDF7BD8E7338C6FFFF7DEFC8
:103B7000FFFF7DEF38C6BEF79EF714A59294DBDEFB
:103B80003CE79AD634A5EB5A2C63DFFFBAD6F39CF8
:103B9000FFFF59CE452955ADBEF7FFFF3CE7D7BD26
:103BA00079CEB294494A6D6B4D6B30843CE7BEF7D9
:103BB000FFFF7DEFFBDEFFFFFFFFFFFFFFFF18C6EC
:103BC00096B5FFFFFFFFFFFFDFFFFFFFBEF7DFFF41
:103BD000FFFFD7BD9294FFFF3CE7C73900002421C7
:103BE0009EF7FFFF9294A21061082C63DFFF7DEF28
:103BF000DBDE14A5FFFFD7BD084214A5FFFF10842C
:103C0000AA5275AD9AD6FBDE1CE738C6AA528E734F
:103C10006D6BFFFF96B5AE731CE79EF7EF7BB2941A
:103C2000BEF7FFFFFBDED7BD694AB294DFFF55AD9B
:103C3000FBDEFFFFAA52AA52DFFFFFFFFFFF3CE7B8
:103C4000BEF71CE7B6B508424108AA5234A579CEA2
:103C500018C696B5F7BDBEF7BEF79EF7FBDEBEF7FA
:103C6000DFFFFFFFFFFFDBDE79CEFFFFFFFFFFFF80
:103C700059CE75ADFFFFFBDEE7390000E318F7BD55
:103C8000FFFF9AD6694A284245290421FBDEFFFF3F
:103C9000FFFF9EF7FBDEDBDE96B5CB5A96B5694A91
:103CA000EB5AB2947DEFFFFFFFFFF7BD8631B29470
:103CB000518CDFFFBEF78E730421B2941CE7D7BD91
:103CC000F7BDDFFFFFFFFFFF9AD6CF7BFFFFFFFFB0
:103CD000F39CFFFF59CE8210DBDEFFFFFFFFFFFFEB
:103CE000DFFF59CEDBDEE7390000E739B6B5B6B500
:103CF000929475AD3CE7FFFF5DEF9AD696B59EF7BF
:103D0000FFFFFFFFFFFF5DEF1CE7FFFFFFFF5DEF22
:103D100014A5FFFF9AD604210000652938C6FFFFCD
:103D2000FFFFF39CEB5A34A58A522842BEF7FFFFEF
:103D3000FFFFFFFF2C63518CFFFF96B5F39C9AD6D3
:103D40007DEFD7BDBEF7FFFFFFFF1CE7DFFFFFFFE3
:103D5000FFFFFFFFFFFFFFFF55AD96B5DFFF5DEFF4
:103D6000FFFF1CE7BAD6FFFFBAD630849EF7FFFFED
:103D7000B6B51CE7FFFFF7BD518CDFFFFFFFFFFF6C
:103D8000FFFF7DEF9EF738C6518CD7BD3CE77DEF36
:103D900059CE5DEFBEF7FFFFDFFF59CEFBDEDFFF41
:103DA000FFFFFFFFFFFFFFFFFFFFFFFF7DEF59CE8C
:103DB000DFFF9AD624214108E318DBDEFFFFFFFF77
:103DC000BAD68E732C63AE73652979CEFFFFFFFFE1
:103DD0007DEF75ADF7BDBAD6FFFFFFFFFFFFFFFF19
:103DE000FFFFFFFFFFFFFFFF3CE7FFFFFFFFFFFFBE
:103DF000FFFF18C6D7BD79CEBEF75DEFDFFF3CE70A
:103E00003CE79EF77DEFFFFFFFFFFBDE308479CEBE
:103E10009EF7B2943CE7FFFFCF7B79CEFFFFFFFF19
:103E2000FFFFFFFFFFFFFFFFFFFFFFFFFFFFFFFFA2
:103E3000FFFFFFFFFFFFFFFFFFFFDFFFFFFFFFFFB2
:103E4000FFFFFFFFFFFFFFFFFFFF7DEF5DEFFFFFC6
:103E50009AD6A2106108EF7BBAD6FFFFFFFFFFFFE3
:103E6000518C494A6108C318A631B294FFFFFFFF85
:103E7000DFFF9AD69EF7FFFFBEF73CE759CE3CE73F
:103E80001CE755AD518C34A56D6BEB5AEB5A9AD6A5
:103E9000FFFF75ADEB5A14A5F7BD1CE7BEF7FFFF9A
:103EA0000C63CF7BBEF77DEFDBDEFFFFF7BD0C635E
:103EB000FFFF9AD6B6B5FFFF9AD6F7BDFFFFFFFF0B
:103EC000FFFFFFFFFFFFFFFFFFFFFFFFFFFFFFFF02
:103ED000FFFFFFFFFFFFFFFFFFFFFFFFFFFFBEF73B
:103EE000FFFFFFFFFFFF5DEF18C6FBDE7DEFF7BDB5
:103EF00024210000E7390C637DEF5DEFB6B579CE84
:103F000055AD4529821059CEDBDE2421B2943CE721
:103F1000DFFFFFFF79CE5DEFDBDE518C18C6FFFFC0
:103F2000DFFFBEF71CE77DEF7DEFDBDE518C59CE66
:103F3000DFFF3CE759CE59CEDFFF1CE7B29455AD09
:103F400096B5EF7B38C6CF7BA21079CEFFFFAE735C
:103F5000AE73BAD69EF7FFFF7DEFD7BDFFFFFFFF21
:103F6000FFFFFFFFFFFFFFFFFFFFFFFFFFFFFFFF61
:103F7000FFFFFFFFFFFFFFFFFFFFFFFFFFFFFBDE76
:103F80001CE7B6B5B6B514A5CF7BD39C4D6B00002E
:103F9000718CB29479CEFFFFFFFFDBDE0C63B6B508
:103FA000CF7B8210F7BDFBDE2C63821010843CE7D0
:103FB000EF7BB6B5BAD67DEFFFFFFFFFFFFFFFFF38
:103FC000FFFF79CEB2945DEFFFFFFBDEF39CF39C25
:103FD000BEF7D39C96B5FFFFFFFF59CE518C4D6BBA
:103FE000DFFF9EF714A514A5518CB294FFFFBAD63B
:103FF000694AFBDEFFFFFFFF9AD6610855ADFFFF60
:10400000FFFFFFFFFFFFFFFFFFFFFFFFFFFFFFFFC0
:10401000FFFFFFFFFFFFFFFFFFFF1CE7AE73CF7B3C
:104020003084308430848E7330848E73410828420B
:104030005DEF59CEDFFFFFFFBEF7B6B51CE734A535
:10404000A63118C6FFFFCB5A000018C6FFFF7DEF50
:104050000C63A210F7BDFFFF7DEF92945DEFDFFFD1
:10406000FFFF18C64529518CDFFF1CE7694A000095
:10407000B29459CE718CEB5A0C6379CEDBDEBEF76D
:1040800092949AD6B6B57DEF9EF714A5B6B5FFFF0C
:10409000EF7B59CEFFFFFFFF308400002421BAD60A
:1040A000FFFFFFFFFFFFFFFFFFFFFFFFFFFFFFFF20
:1040B000FFFFFFFFFFFF3CE792940842E7390C63E4
:1040C00092946D6B2C63CB5AF7BD7DEFBAD67DEF22
:1040D00018C63CE7FFFF7DEF10846D6BB6B5B29458
:1040E0009AD6FFFFD7BD00002421FFFFFFFF3CE76A
:1040F0003CE755AD0C63652996B5EB5A0842AE73A3
:10410000BEF7FFFF14A5D7BDFFFFFFFF3CE7EB5A4B
:104110004D6B1CE7BEF755ADC318863138C6DFFFBF
:10412000BAD69EF796B5084255AD75ADB2949EF7D6
:10413000FBDEF39CFFFFFFFF8A5200000000A63168
:104140003CE77DEF75AD79CEBEF7FFFFFFFF3CE7A3
:10415000D7BDB6B5B2940421C318694AEB5AEB5ADD
:10416000CF7BB294CF7B8E73BAD6FFFFFFFFFFFFEA
:10417000FFFFFFFFBEF734A5B29475ADF39CDFFFE0
:10418000FFFF9EF7AA52242138C6FFFFFFFFBEF7AC
:10419000FFFFFFFFFFFF518CAE739EF7BEF7DBDE24
:1041A000BEF7FFFFFFFFFFFF1CE759CEFFFFFFFF3A
:1041B000AE73E31896B5FFFF3CE7CB5AAE733CE70E
:1041C000FFFF1CE71CE779CEFFFFFFFFB29496B517
:1041D000FFFFFFFFFFFFFFFFE3180000242161083E
:1041E000BAD61CE7C7396108694AEF7BAE738631DE
:1041F000000000006108694A1084D39C929455AD78
:104200003CE71CE7F39CFBDEFFFFFFFF9EF79EF7FA
:104210007DEFF7BD7DEF79CEBEF73CE7BAD6BEF7AE
:104220007DEF7DEFAE73B6B5FFFF9EF7DFFF8E73B8
:10423000EF7BFFFFFBDE7DEFFFFF59CEBAD6FFFF1E
:104240005DEF0C63D7BDFFFFD7BD8A52FFFF34A5DA
:104250001CE755ADBAD659CEBEF7FFFF38C69AD681
:10426000FFFFDFFF9EF7FFFFFFFFFFFFFBDE3CE7E7
:10427000FFFFDFFFFFFFD7BDE31800006D6B863146
:104280008E73FFFF5DEFEB5A8631863165298A52C6
:104290006D6B518C34A5F7BDF7BD79CEBEF7FFFF2E
:1042A000FFFF9AD675ADFFFFBEF779CEFFFFFFFF88
:1042B000FBDEAE7359CE718C75AD7DEF7DEFBAD656
:1042C0000C63DFFF5DEF9EF7FBDEDBDEFFFFC73930
:1042D000494AFFFF9294B6B5FFFF38C6C739EB5A7B
:1042E0005DEF14A559CED7BDFBDE9AD6FFFFB6B55C
:1042F000BAD6FFFFFFFFDBDE9EF7BEF7FFFFFFFF33
:10430000FFFF59CEEB5A518C9EF73CE73CE71084F7
:104310002842AE735DEFAE73494AA210CB5AE31840
:10432000A210FFFFFFFFF7BDD7BD59CE18C679CE4B
:104330009AD6FBDEBAD6BAD6BEF7FFFFFFFF75AD41
:10434000308430848E73FBDEFFFF0C631084FFFF2C
:10435000DBDE8A5234A5F7BDF7BD3CE77DEFCB5AD3
:1043600086317DEFBEF7FFFF9AD6BEF7DFFF494AE1
:1043700075ADFFFFFBDE9AD68A52AA52A631652997
:104380009AD6FFFFFFFF3CE7929438C69EF7FFFFE7
:10439000BEF77DEF5DEFFBDE518CCB5AA63175ADDC
:1043A0007DEFFFFF96B5C739C739A631CB5A8E735B
:1043B0001084DBDEBEF71084DBDE9294494AC3181A
:1043C000C318FFFFFFFFB6B514A518C679CED7BD39
:1043D00079CE9EF75DEFFFFFFFFFFFFFFFFF9EF728
:1043E000FFFFFFFFFFFFFFFFFFFF10849294FFFF1F
:1043F000718C34A57DEF79CE3CE7DFFFEF7B0000C9
:104400009AD6BEF7FFFF3CE7FBDEFFFF96B58210B2
:10441000DBDEFFFF9AD6284208421084F7BD9EF7E4
:10442000A63186311CE7FFFFB6B5518C6D6BDBDE24
:10443000FBDE2421EB5ACF7B55AD9EF7F39CA210F7
:10444000242196B55DEFBEF76529D39CFBDEBAD675
:104450009EF7FFFF5DEFF7BDFFFF59CE2842C3185F
:10446000E318FFFFFFFFFBDEB294F7BD7DEFBAD686
:104470003CE7FFFFFFFFFFFFFFFF9EF7DFFF55ADAC
:10448000D7BD18C63084108455AD75AD7DEFB6B577
:104490003084FBDE1CE779CE9EF7BEF7EB5A8E73B5
:1044A000BEF73CE7FFFFFFFFFFFFFFFF518C20003F
:1044B000BAD6FFFFCF7B00005DEFFFFF38C6AA52E0
:1044C0000000A2100842FBDEFFFFB294494AD7BDAC
:1044D000DFFFCF7BAE73518C75ADFFFFDFFFF7BD04
:1044E0004D6B2000B294FFFFEF7B3CE7B6B575AD96
:1044F00079CEFFFF1CE759CEFFFFF7BD2842C31856
:10450000A2101CE7FFFFFFFFBEF7BEF7FFFFFFFF94
:10451000FFFFFFFFFFFFFFFF1CE7E739E739000060
:104520006108A21000000000042159CED39CC739B5
:10453000B29418C6D7BD96B596B5DFFF1CE7DFFF6E
:104540009EF738C67DEF7DEF3CE7FFFFCF7B41084C
:104550008E73FFFFEF7B41081CE7FFFF3CE714A5CC
:1045600055AD59CE96B52C6338C6FFFF7DEF5DEF94
:10457000FFFFFFFFFFFF38C604212C63084279CEFE
:10458000FFFF38C6FBDEDFFFFFF7FFF7FFFFFFFF90
:10459000FEFFFDFFDEFFFEFFFDFFFFFF9FEFDFF7EA
:1045A0003FDF9FE7FFF7FFF7BFF7BFFFDFFFFEFF2C
:1045B000FEFFFDFFFCFFFCFFFCFFFDFFFEFFFFFF1A
:1045C000DFFFDFFFDFFFDFFFFFFFFFFFFFFFFFFF7B
:1045D000FEFFFFFFFFFFFFFFFFFFFFFFFFFFFFFFEC
:1045E000FFFFFFFFFFFFFEFFFFFFFFFFFFF7FFFFE4
:1045F000FFFFFFFFFEFFFEFFDFFFFFFFDDF7FFF71F
:104600007FDFDFCE3C951A8DDDA5FFCE9FEFFFFF4C
:10461000FFFFFFFFFFFFFEF7FEFFFEFFFEFFFEFFB7
:10462000FEFFFFFFFFFFDFFFDFFFDFFFDFFFFFFF1B
:10463000FFFFFEFFFEFFFEFFFFFFFFFFFFFFFFFF8D
:10464000FFFFFFFFFFFFFFFFFFFFFFFFFFFFFFFF7A
:10465000FEFFFFFFFFFFDFFFDFFFDEFFDFFFFFFFEC
:10466000FFF79FDF3C8D9F95FF9D1F9E3D85DB7C67
:104670003B8DDDADDFCE9FE7FFF7FFF7FFF7FFFFD5
:10468000BEEFDEF7FFFFFFFFFFFFDFFFBFFFBFFF54
:10469000FFFFFFFFFFFFFFFFFEFFFEFFFFFFFFFF2C
:1046A000FFFFFFFFFFFFFFFFFFFFFFFFFFFFFFFF1A
:1046B000FFFFFFFFFEFFFFFFDFFFDFFFDFFFDFFF8B
:1046C000DFFFFFF7FFEF9DB61222D411D72A7E5CE1
:1046D0009F7DBFAEFF9D5E8DDC7CFB7C9C959FBE6D
:1046E0009FDFFFEFFFF7FFF7BFEFBFF7FFFFFFFF12
:1046F000FFFFFFFFFFFFFFFFFFFFFFFFFFFFFFFFCA
:10470000FFFFDFFFFFFFFFFFFFFFFFFFFFFFFFFFD9
:10471000FFFFFFFFFFFFFFFFFEFFFFFFDFFFDFFFEA
:10472000DFFFDFFFDFFFFFF7FFE71FBFB62A581AE3
:10473000F7013702F6017812FD4B1F753F965F9E19
:104740009F8DDC74FB7C3B8D7FB67FDFFFF7FFF72F
:10475000DFF77EE7BEF7FFFFFFFFDFFFDFFFDFFFD3
:10476000FFFFFFFFFFFFFFFFFFFFFFFFFFFFFFFF59
:10477000FFFFFFFFFFFFFFFFFFFFFFFFFEFFFFFF4A
:10478000DFFFBFFFDFFFDFFFDFFFFFF7FFE7BFAEAA
:10479000B301590A5A0AFC1A9A0A3902390AF7016E
:1047A000170A5B33DF6CFF951F9EBF951D85DA7C72
:1047B000F9841CAE9FE7FFF7FFF7DFEFFFFFFFFF76
:1047C000FFFFFFFFFFFFFFFFFFFFFFFFFFFFFFFFF9
:1047D000FFFFFFFFFFFFFFFFFFFFFFFFFFFFFFFFE9
:1047E000FEFFFFFFDFFFDFFFDFFFDFFFDFFFFFF782
:1047F000FFE7DFB6F4095A123601D8013A023A024D
:1048000019027B12DC1A5A12D70118125C3B7F6422
:10481000BF951F9E1F9E5D8DB974D87CFCA51FCFD0
:104820005FDF9FEFFFFFFFFFFFFFFFFFFEFFFFFFC9
:10483000FFFFFFFFFFFFFFFFFFFFFFFFFFFFFFFF88
:10484000FFFFFFFFFEFFFFFFDFFFDFFFDFFFDFFFF9
:10485000FFFFFFF7FFEFDFB6D311591A9200F40004
:1048600055011401B701B701F8013A125B1A5A1A3F
:104870001912D7091712D92A1D547F853F9E3F9ED2
:104880007E85DA7C19951CB65FE7FFFFFFFFFFFF0F
:10489000FFFFFFFFFFFFFFFFFFFFFFFFFFFFFFFF28
:1048A000FFFFFFFFFFFFFFFFFEFFFFFFFFFFDFFF39
:1048B000FFFFFEFFFFFFFFF7FFEFFFBE7009F519D7
:1048C000F200B501540174015401F3001401140104
:1048D000560119127B1A5A1A191219123912170A8B
:1048E000B9229B3B9F7DFF955FB67FC69EC6BFEFFB
:1048F000BFEFFFFFBEF7FEFFFFFFFFFFFFFFFFFF62
:10490000FFFFFFFFFFFFFFFFFFFFFFFFFEFFFFFFB8
:10491000FFFFDFFFFEFFFEFFFFFFFFFFFFF77CB69D
:10492000322AB319AF00110172095201310152014B
:10493000B5117409F300D300F400F600FA113B1A24
:104940007B1A1A0A390A18027A12571A5B6C5FDF4F
:10495000DFCE7DBEFFF7FFFFFFFFFFFFFFFFFFFF83
:10496000FFFFFFFFFFFFFFFFFFFFFFFFFFFFFFFF57
:10497000FFF7FFFFFFFFFFFFFEFFFDFFFEFFFFFF53
:10498000FFFF3ED7797CD221AE002F097119EF08C5
:10499000701130090F09310952097409950976011E
:1049A000150157015701B9013B0A7C121A02180A76
:1049B000752ADC847FDFFDAD1FD7FFF7DFEFFFFF38
:1049C000FFFFFFFFFFFFFFFFFFFFFFFFFFFFFFFFF7
:1049D000FFFFFFFFFFF7FFFFFFFFFFFFFEFFFDFFF2
:1049E000FEFFFEFFFDF7DFEF7CA54F196C000E11F7
:1049F000CD080E110D112D11CC080E095009100112
:104A00003209530134015501F500D4001601B901F2
:104A1000B9017A1A151A13227FB6BFDF9A9DDFEF0C
:104A2000FFF7FFFFFFFFFFFFFFFFFFFFFFFFFFFF9E
:104A3000FFFFFFFFFFFFFFFFFFF7FFFFFFFFDFFFAE
:104A4000FEFFFDFFFEFFFEFF9CEFFFF71B95EE1044
:104A5000AD002F118D00F54A1B953B9DB563B24209
:104A6000F029ED00EE00CF0011015201F611950181
:104A700055013501B300340174019311B5323FCFB4
:104A8000FFC65CB6FFF7FFFFFFFFFFFFFFFFFFFF63
:104A9000FFFFFFFFFFFFFFFFFFFFFFFFFFFFFFFF26
:104AA000DFFFDFFFDFFFFEFFFEFFFFFFFEFFFFF781
:104AB000DB8C2F112F11CE088D00F96BFFEFFFF764
:104AC0009FC6DFCEDFEFDFCEFC84B43AF1218D004C
:104AD0005109F0007301B40974011301F200940943
:104AE0006D00564BFFE77DBE7BBEFFFFFFFFFFFF64
:104AF000FFFFFFFFFFFFFFFFFFFFFFFFFFFFFFFFC6
:104B0000FFFFFFFFDFFFDFFFDFFFDEFFDFFFFFFF56
:104B1000FFFFFFEF9E9DEF08CF004D00CF00F22971
:104B20009FE73FDF72638B21B042777CFFCEDFE7E8
:104B300075536E11F4424F090E01CE00B21193115C
:104B4000540175093101CD00BD9D7FD73AB67EE78E
:104B5000DFF7DEF7FFFFFFFFFFFFFFFFFFFFFFFFB6
:104B6000FFFFFFFFFFFFFFFFDFFFDFFFFFFFFEFF96
:104B7000DFFFDFFFBEF7FFF71FCF3109EE00CD00EB
:104B8000122A0900E9087DC6FFF75EBEF04A05005B
:104B90002A11703A8D19B23AFFE7FFC63A6CED0858
:104BA0000E09CE00120154093201EF006E115FB6FA
:104BB000DFEF579D9FEFBEF7DFFFFFFFFFFFFFFF18
:104BC000FFFFFFFFFFFFFFFFFFFFFFFFFFFFFFFFF5
:104BD000FFFFFEFFDFFFBFFFFFFFDFEF7FAE9109AB
:104BE0004900F66B7FE719956C3A2711F36B1FD7D5
:104BF000FFEF5C9569002D094E118B00D44ABC84EF
:104C00007763F5523763F239CF08F1081309D20000
:104C1000D52154321FAE8B19DED6BFF7FFFFDFFF61
:104C2000FFFFFEFFFDFFFDFFFFFFFFFFFFFFFFFF99
:104C3000FFFFFFFFFEFFFEFFDFFFBFFF1DEFFFF7E0
:104C40003FA69209AB00167CDFFFBFF7FFFF9DCEAA
:104C5000968C7EBEFFEF9FDFFB8CCB08AB008B00FA
:104C600049002900AE29798CDA9CB2522D19EE0840
:104C7000B000D100941114221D8D6B111FDFDFFFD6
:104C8000DFFFDFFFFFFFFFFFFDF7FDF7FFFFFFFF88
:104C9000FFFFFFFFFFFFFFFFFEFFFEFFDEFFBEFF88
:104CA000FFFF5FDFB63232014D000A005039177343
:104CB0001CADBFFFDFFFBFF7DFF7FFF75FE7C808F7
:104CC0009363567C7263EF4AB68CBDCE1ED7FED678
:104CD0007FDF797CED006D00D211D5321B85CC21B0
:104CE0005FE7FFFFDFFFBFFFDFFFFFFFFFF7FFFF14
:104CF000FFFFFFFFDFFFDFFFDFFFFFFFFFF7FEF735
:104D0000DEFFDEFFBFFFFFD6510113018E082C101E
:104D10000B080B104C10CD2015633DAD7FD65FCE38
:104D20009473C810DFF7FFFF7FE7BFEFFFF7FFF7D0
:104D3000BDE7FFF7FFF71FCFF342AC009009512208
:104D40001A7D8A195FDFBFF7DFFFBFFFDFFFDFFFDD
:104D5000FFFFFFFFFFFFFFFFDFFFDFFFDFFFFFFFC3
:104D6000FFF7FEF7FFFFDFFFDFFFBFCE300193113C
:104D70002B006B200A200B186E100B004D006D08E5
:104D80006C102A082910B67B7FFFDFFFDFFFBFF71B
:104D90009FEFBFEFFFF7FFF7FFEFFFEF386CCC009F
:104DA000900931227B852B227EDFDFF7DFFF9FFF1B
:104DB000DFFFDFFFDFFFFFFFFFFFFFFFFFFFFFFF63
:104DC000DFFFFFFFFFF7FFF7DFFFDFFFFFFF3CB66F
:104DD0000E01B2190700A828052826202808CC10A3
:104DE0004A080A008D186D100B008D187352398C0B
:104DF0009FD6DFFFDFF7DFF7FFF79FEFFFF79FC6D5
:104E000072326C00F2193222B86CF67CFFEFFFFFB1
:104E1000FFFFDFFFDFFFDFFFDFF7FFFFFFFFFFFF2A
:104E2000FFFFFFFFFFFFFFFFFFF7FFF7DFFFDFFFE2
:104E30009FEFDEC6EF196C09A83132BD6EB4288B26
:104E4000C351023100084618AB180B004E00700029
:104E50004F002D006C008F29F35AB573B583D583AD
:104E600091526F218E008F007309D632712A1BA6D2
:104E7000FFEFFFFFFEFFFEFFFFFFFFFFDEFFFFFF75
:104E8000FFFFFFFFFEFFFEFFFFFFFFFFFFF7FFF744
:104E9000DFFFBFFFFFFF9DC68C090901274290C5B8
:104EA000CBBC2BD56AD567B4A79B45628220251061
:104EB000691009000C00F0186E080B004C084B0834
:104EC0000800090809004C08D1100F0055095FA619
:104ED0003122756CFFE7FEF7DDFFDCFFFEFFFEFF12
:104EE000FDFFFEFFFFFFFFFFFEFFFEFFFFFFFFFFD7
:104EF000FFF7FFF7DFFFBFFFFFFF7CBE8C094A090A
:104F0000474AB4E66DD586BC25DD24DD24D545D5DC
:104F100006CD05AC84726449031807100B104E10BF
:104F20004E082D004D008D086C100B0891103100BB
:104F300035111E645FAE8B115DD7FEF7FDFFFDFFDF
:104F4000FDFFFDFFFDFFFEFFFFFFFFFFFEFFFEFF7A
:104F5000FFFFFFFFFFF7FFF7DFFFBFFFFFFF7CBE95
:104F60008D094B09AB52DBFF78FF55FFABED67E5D1
:104F700005DDE4DC05DD06DDE7DCA9D46CC4C98A07
:104F8000E54804180610280869088A1028102A1015
:104F9000B01851005100F6213E858B113ED7FFF726
:104FA000FDFFFDFFFEFFFEFFFEFFFEFFFFFFFFFF19
:104FB000FFFFFFFFFFFFFFFFFFF7FFF7DFFFBFFF71
:104FC000FFFF9EC66F09ED004E429FFF9FFF9EFFB1
:104FD0009DFF9CFFD8FEF4FD30F5CCE4A9E4A6E4E7
:104FE000E5EC25ED46EDC7D4659BA259603000186D
:104FF0004320041009008E083319D4215F8D6B11F2
:105000003ED7FFF7FEFFFFFFFFFFDFFFFFFFFFFFC2
:10501000FFFFFFFFFFFFFFFFFFFFFFFFFFF7FFF7B0
:10502000DFFFBFFFDFFF5DBE70093001924ABFFFA7
:105030009FFF7FFF1FFF5FFF7FFF7FFF7DFFF7FE6B
:1050400051FEECFDE4E4C2DCC1DC03E527EDE9E45C
:105050004AD4CABB256A454105084A089221F42969
:105060007F950A093FD7FFF7FFFFFFFFDFFFDFFF55
:10507000FFFFDFFFFFFFFFFFFFFFFFFFFFFFFFFF60
:10508000FFF7FFF7DFFFBFFFDFFF5DBE70093101F4
:10509000B34A9FF7FFEE7FEE9FFF9FFFBFFFBEFF6C
:1050A000FCFFFBFFF9FFD8FFD8FFF5FEAFEDCBE427
:1050B00069EC68F446FC46ECCBCCAEACAC62C918EB
:1050C0000E1950197E956B113FD7FFF7DFFFDFFFF9
:1050D000DFFFDFFFDFFFDFFFFFFFFFFFFFFFFFFF60
:1050E000FFFFFFFFFFFFFFFFBFFFBFFFDFFF7EC62A
:1050F00070092F01913A7FEFBFDE3CCEBAC51ACEC0
:10510000DBDEBDF7FDFFFDFFFDFFFDFF5BF7BDFF34
:10511000BDFF7AFF74FEAEFD2AFDE8EC4ADDCFD577
:10512000509C09290D19B021BE9DAC193ED7FFF73F
:10513000FFFFFFFFFFFFDFFFFFFFDFFFFFFFFFFFBF
:10514000FEFFFEFFFEFFFFFFFFFFFFFFBFFF9FFF12
:10515000DFFF5DC66F096E013043FFF7FFFFFDF70C
:10516000DDE77BD7B9C637B617BE9AD65DF7FFFF26
:10517000FEFFFDFFDCFFBBFFFBFFFBFFFAFF76F747
:105180008BCDCEDDB0B4C7202D2111325D952A1113
:105190003ED7FFF7FEFFFEFFFFFFDFFFFFFFFFFF32
:1051A000FFFFFFFFFCFFFDFFFEFFFFFFFFFFFFFF15
:1051B000BFFFBFFFDFFF7DBE8F094E01AE3ADFE7C5
:1051C000BCEF9AE7FDEFFDEFFEF7FEEF1CDF5ACED6
:1051D000F9CDD8CD9ADE7CF7FEFFFDFFFDEFFEEFA7
:1051E000FEE7FDF7F8FFD9FF9AE64A312D19F129BC
:1051F0003B8D8A193ED7FFF7FEFFFEFFFFFFFEFF44
:10520000FFFFFFFFFFFFFFFFFBF7FCFFFFFFDFFFDD
:10521000DFFFDFFFDFFFFFFFFFF7DFC64F090F01F3
:10522000B342DFF73DE7D4BD56C6D8CE5BE7DEF725
:10523000FFFFFFFFDFFF9FF79AD658C617BE78C65D
:105240001BD7DDE7FEEFFEF7FDFFDFFF5FEF6D2110
:105250002D0910229C8DA9115DD7FFF7FFFFFFFFDD
:10526000FFFFFFFFFFFFFFFFFFFFFFFFFBF7FCF765
:10527000FFFFDFFFBFFFBFFFFFFFFFF7FFEFDFBE57
:105280004F09300933325FE79FF7FEFF5CF7FBE61B
:1052900059CE18C659CEFBE69EF7FFFFFFFFFFFF72
:1052A0009EEFFBDE79C638C679CEBAD65EEFDFFF59
:1052B0003FDF8E194F1131229B8D89095DD7FFF792
:1052C000FFFFFFFFFFFFFFFFFFFFFFFFFFFFFFFFEE
:1052D000FEF7FFF7FFFFBFFFBFFFBFFFFFFFFFF7B7
:1052E000FFE79DAE6E09901152329FEF1CE79CF7CD
:1052F0005FF79FFF9FFF5FF7DCDE59CE38CE57CEBA
:105300003BE77CEFDEFFFFFFFFFFBFF7FDDE5ACE7E
:105310001DE7BFF73FDF8E194E1131227B8D8911BA
:105320005DD7FFF7FFFFFFFFFFFFFFFFFFFFFEFF60
:10533000FFFFFFFFFFF7FFFFDFFFBFFFBFFFBFFF65
:10534000FFFFFFF7FFEFBEB66D092E09102ABFEF72
:10535000F8B554A51AC69CD63FEFDFFFFFFFBFF795
:105360005DEF1BE758CE38C618C69AD63DEFBFFF93
:10537000FFFFDFFF9EF7FFFF3FE76D192E091022A9
:105380007B8D89115ED7FFFFFFFFFFFFFFFFFFFF50
:10539000FFFFFEFFFFFFFFFFFFF7FFFFDFFFBFFF86
:1053A000BFFFDFFFFFFFFEF7FFEFBEB64C090D01A9
:1053B000F0297FDFFDD63CE799CEF6BD55AD76AD41
:1053C00059CE3DE79FF7BFFFBFFF9FFF3EEF9BDE3C
:1053D000F8CDF7C579D6FAE69DFFFFFF5FE78D218F
:1053E0002E1110227C8D8A113ED7FFFFFFFFDFFFB9
:1053F000FFFFFFFFFFFFFEFFFFFFFFFFFEFFFFFFBF
:10540000FFFFDFFFDFFFDFFFFEFFFEF7FFEF7DB6F1
:105410006D118F116F197A7C9BAD7FE79DE77CE75B
:105420001BDF9ACE19BED8BDF9BD1AC6FEE65FEFE6
:10543000DFFFFFFFBEFF1BEF98DE57D65BF7DFFFF6
:105440005FE78D214E1111225C8D49113FDFFFFF77
:10545000DFFFDFFFFFFFFFFFFFFFFEFFFFFFFFFF9D
:10546000FCFFFDFFFFFFFFFFDFFFFFFFFDFFFEF77C
:10547000FFF79EBE6E1150118E00CE088F29904A04
:10548000B68CD9AD3ED7BFEF5EDFBCCE7AC659C66B
:1054900095AD95B5F6BD99D65BEFDDFFFEFFFDFF3F
:1054A0003BEFBFFF3FE76D214E1111225C956A1162
:1054B0003FDFFFFFDFFFDFFFFFFFFFFFFFFFFEFF1D
:1054C000FFFFFFFFFCFFFCFFFEFFFEFFFFFFFEFFF5
:1054D000FDFFFEF7FFF79EBE2C112F117119511918
:1054E0009021AB08CA084B116F3A3574FBAD1ED73B
:1054F0005EDF3DDF3CDF1BDFB9CE16BEB5B5D5B5EF
:1055000077CEF9DE9CF7FFFF3FDF4C190D09F12143
:105510007C958B213FDFFFFFDFFFDFFFDFFFFFFF1A
:10552000FFFFFEFFFFFFFFFFFCFFFDFFFEFFFEFF93
:10553000FEFFFEFFFEFFFEFFFFF71FD7998411322B
:10554000AD08CE084F197021B22171190E09CC0097
:105550000B090E2AF46B99A5BCC63DD75DDF1BD79E
:10556000FAD61AD777C6B4ADF7BD9FEF1FDF4D1936
:105570006F11D0199D9D4A111FDFDFFFDFFFBFFFB5
:10558000DFFFFFFFFFFFFFFFFFFFFFFFFEFFFEFF4D
:10559000FFFFFFFFFFFFFFFFFEFFFFFFFFFFFFF724
:1055A000FFF71FD7DFAD397C71420D11CE00EF0838
:1055B0007119D121B0214D110B090A098B19715BA9
:1055C000799D9CBEDDCE1DD73DD73DDFDCD6DDD637
:1055D0009FC66E19B1191222FB84CC213FDFFFFF59
:1055E000DFFFDFFFDFFFFFFFFFFFFFFFFFFFFFFF2B
:1055F000FFFFFFFFFFFFFFFFFFFFFFFFFFFFFFFFBB
:105600007DEFDFF7FFFFFFF7FFF7BFEF3FD79FC645
:105610005774144BCF210C09ED080E114F1170195E
:105620002F11EE10ED086E21D24A997C1EB61FD7BD
:105630003FDFFFD69FC6CD00AD00532A1B85CC218E
:105640003EDFFFFFDFFFDFFFDFFFFFFFFFFFFFFFAB
:10565000FFFFFFFFFFFFFFFFDFFFFFFFFFFFFFFF7A
:10566000FFFFFFFFFFFFFFFFFFFFDFF7DFF7FFF7A2
:10567000FFF7FFEFFFEF7FD73DAE3A8D5874555BD4
:1056800011322F110F111011301951191011EF088B
:105690005019113298849CA5BFA591111001742A4C
:1056A0001A8528093EDFDFFFDFFFDFFFDFFFFFFF97
:1056B000FFFFFFFFFFFFFFFFDFFFDFFFFFFFFFFF3A
:1056C000FFFFFFFFFFFFFFFF9EF7BEFFDEFFFEFFB6
:1056D000FFFFFFFFFFF7FFF7FFEFFFEFFFF7FFF71A
:1056E000FFF7BFE79EBE7B9D946331320E09F01039
:1056F00073219521551933194B000C092F09CF003F
:105700003101B1115C8D0B2A3DD7DEF7DFFFBFFF02
:10571000DFFFFFFFFFFFFFFFFFFFFFFFFFFFFFFFB9
:10572000FFFFFFFFFFFFFFFFFFFFDFFFFFFFFFFFA9
:10573000FEFFFEFFFDFFFEFFFEF7FEF7FFFFFFFF90
:10574000DFF7BEEFFFEFFFF7FFF7FFF7FFF75FD7DA
:10575000BDA5D863D1218E00D0007219B021F121EE
:10576000CF0073099309B1091A7D27095DDFFEFF98
:10577000FEFFBEFFDFFFDFFFFFFFFFFFFFFFFFFFBB
:10578000FEFFFEFFFEFFFFFFFFFFFFFFFFFFDFFF4C
:105790009FFFBEFFDEFFFEFFFEFFFFFFFFFFFFFFDD
:1057A0009CEFDDFFFEFFFFFFFFFFFFFFFFF7BFE7FF
:1057B000DFEFFFF7FFEFFFEF5FD7588DCE3A2909F4
:1057C0000C093009D0009409730154225B85C91972
:1057D0009EE7FEFFFEFFBEFFDFFFDFFFFFFFFFFFD5
:1057E000FFFFFFFFFEFFFEFFFEFFFEFFFFFFFFFFCD
:1057F000FFFFFFFFDFFFDFFFDEFFFEFFFEFFFFFF1C
:10580000FFFFFFFFFEFFFEFFFEFFFEFFFFFFFFFFAC
:10581000FFFFFFF7FFF7FFF7FFEFFFEFFFF7FFEFE8
:10582000DDDF3DCFB884B33A9111B2198D00AF11CD
:10583000FC9D7795DEEFFEFFFEFFBEFFDFFFFFFF63
:10584000FFFFFFFFFFFFFFFFFFFFFFFFFFFFFFFF68
:10585000FFFFFFFFFFFFFFFFFFFFFFFFFFFFFFFF58
:10586000FFFFFFFFFFFFFFFFFFFFFFFFFFFFFFFF48
:10587000FFFFFFFFFFFFFFFFFFFFFFFFFFFFFFFF38
:10588000FFFFFFF7FFF7FFF7FFFFFFF71FD7D98CE9
:10589000F24AD46BBDC6FFF7FFFFFEFFFFFFFFFF1D
:1058A000FFFFFFFFFFFFFFFFFFFFFFFFFFFFFFFF08
:1058B000FFFFFFFFFFFFFFFFFFFFFFFFFFFFFFFFF8
:1058C000FFFFFFFFFFFFFFFFFFFFFFFFFFFFFFFFE8
:1058D000FFFFFFFFFFFFFFFFFFFFFFFFFFFFFFFFD8
:1058E000FFFFFFFFFFFFFFFFFFFFFFFFBEF7DFFF31
:1058F000FFFFDFF7BFEFFFF7FFF7BDEFFEFFFEFF94
:10590000FFFFFFFFFFFFFFFFFFFFFFFFFFFFFFFFA7
:10591000FFFFFFFFFFFFFFFFFFFFFFFFFFFFFFFF97
:10592000FFFFDFFFFFFFFFFFDFFFDFFFFFFFFFFFE7
:10593000FFFFFFFFBFFF5DF73DEF3DEF3CEF1CE7D3
:105940007DF75DEF5DEF5DEF5CEF7DF77DF79DF738
:105950009DF7BDF7FEFFFFFFBEF7DFFFFFFFFFFF75
:10596000FFFFFFFFFFFFFFFFFFFFFFFFFFFFFFFF47
:10597000FFFFFFFFFFFFFFFFFFFFFFFFFFFFFFFF37
:10598000FFFFFFFFFFFFDFFFFFFFFFFFDFFFDFFF87
:10599000FFFFDFFF7EF77EF75DEF1CE71CE71CE7EC
:1059A0001CE7DBDE1CE71CE71CE71CE71BE71BE72B
:1059B000FBE6FBDEB9D61ADF9DF7FFFFFFFFFFFF17
:1059C000FFFFDFFFFFFFFFFFFFFFFFFFFFFFFFFF07
:1059D000FFFFFFFFFFFFFFFFFFFFFFFFFFFFFFFFD7
:1059E000FFFFFFFFFFFFFFFFFFFFDFFFFFFFFFFFE7
:1059F000FFFFFFFFFFFF9EF7FCE61CEF3DEF1CE7FC
:105A00001CE73CEF1CE7FCE6FBE61BE71CE71CE79A
:105A10001BE7DADEB9D699D637C657C6DADEDEF727
:105A2000FFFFFFFFFFFFDFFFFFFFFFFFFFFFFFFFA6
:105A3000FFFFFFFFFFFFFFFFFFFFFFFFFFFFFFFF76
:105A4000FFFFFFFFFFFFFFFFFFFFFFFFFFFFFFFF66
:105A5000FFFFFFFFFFFFFFFFDFFF5DEFDBDE1CE768
:105A60003DEF3CEF3DEF5DEF3DEF1CE7FBE61BE755
:105A70001BE71BE7FBE6DADE99D678CE37C616BE03
:105A800037C61BE7FFFFFFFFDFFFFFFFFFFFFFFF43
:105A9000FFFFFFFFFFFFFFFFFFFFFFFFFFFFFFFF16
:105AA000FFFFFFFFFFFFFFFFFFFFFFFFFFFFFFFF06
:105AB000FFFFFFFFFFFFFFFFFFFFFFFFDFFF3CE7F1
:105AC0009AD6DBE61CEF1CEF1CEF1CEF1CE7FBE695
:105AD000DBDEDADEDADEBADE99DE79D658CE58CEF3
