:100000000C94FB710D94CB060D94A0060D9475060F
:100010000D944A060D941F060D94F4050D94C90520
:100020000D949E050C942C720C942C720C942C72D2
:100030000C942C720D942B180C942C720C942C7222
:100040000C942C720C942C720C942C720C942C72B8
:100050000C942C720C942C720C942C720D945405EC
:100060000C942C720D945B170D9432170C942C7217
:100070000C942C720C942C720C942C720C942C7288
:100080000C942C720C942C720C942C720C942C7278
:100090000C942C720C942C720C942C720D947D4642
:1000A0000C942C720C942C720C942C720C942C7258
:1000B0000C942C720C942C720C942C720C942C7248
:1000C0000C942C720C942C720C942C720C942C7238
:1000D0000C942C720C942C720C942C720C942C7228
:1000E0000C942C72B477B777BC77C477CF77CF777F
:1000F000DD77DD77DD77EE770498C1A7D198D198C9
:10010000639AC1A7689D9D9B159DC1A79B9E699FF2
:10011000B7A0B7A0049863A4C1A704980DA08DA1AF
:100120004F9927A2D8A263A4BCA3EFA4EAA5F5A681
:100130000AA7119C68AE7EAE94AEAAAEC0AED6AE93
:10014000ECAE02AF98AFC9AFFAAF2BB05CB08DB0D8
:10015000BEB0EFB06BB12FB2B9B241B3C9B351B4B5
:10016000D8B4FCB4C6E1DCE1F2E108E21EE234E21C
:100170004AE294E2C5E2F6E227E358E389E3BAE310
:1001800014E471E4C9E421E579E5D1E52BE687E9DA
:100190009DE9B3E9C9E9DFE9F5E90BEA21EA6DEA8E
:1001A0009EEACFEA00EB31EB62EB93EBC4EB1CEC85
:1001B0004DEC7EECAFECE0EC11ED41ED71EDC1FEEC
:1001C000FAFE2CFF5EFF90FFC2FFF4FFF1019901E0
:1001D000370213025501AB015F01D301F70153014F
:1001E0000902F90189019B016B01E701DD01790138
:1001F00087011902FD01210281010B02B101910168
:1002000065018B0163015101AD011102A3012B02B4
:1002100035025701B90163018D015B0101029701AC
:10022000CF01C501C5015D01CF01C301C701EB01CC
:10023000CF01F501F5010D020D029701C701CF01B4
:100240009701F501C701C5011D02C701C701C7011B
:10025000C701C7015901C701C701D7013102150202
:10026000C901BB01A5019D0195019501CB01B50116
:100270006F012D02FB01D9018301E3016D01BD0175
:1002800067012F02E501D101AF0169011702C10128
:10029000D501E101F30133021F02A10123020D94F4
:1002A000F8400D94C3130D9415020D9420010D9484
:1002B000DF130D942D1D0D94ED130D94B31C0D94AF
:1002C00082010D9404050D94F6130D94B2130D9450
:1002D0002D600D94B4600D943B030D94A15E0D94BC
:1002E000FF5D0D94D7400D94AA120D940A420D940F
:1002F000B26B0D9422040D9448130D94CC120D94FE
:1003000042410D94CE040D946B5E0D94BE120D947B
:10031000AE040D94A8020D94B8130D94E9130D9436
:1003200012420D94AE130D9465410D943F480D9407
:100330007D1C0D9458000D94EE020D9430480D94E0
:1003400060120D940E610D94D1130D9429480D94F3
:1003500008050D94456C0D9451010D94C7130D942F
:1003600099600D94BF130D9470120D94DB5D0D9484
:100370000D440D94E3130D9421480D9412600D94D7
:1003800005050D94FC600D945E1C0D94991C0D9454
:10039000411D0D9419480D9437480D94B36B0D947D
:1003A0006A1D0D947E600D94B3010D94FF600D9451
:1003B00001480D94505E0D94576C0D94D5030D9427
:1003C000CA410D9402610D94865E0D9463600D9494
:1003D00088030D943F420D94D81C0D9404440D9451
:1003E0000E410D9426000D9405610D94E61C0D94AC
:1003F000E4010D9477020D94355E0D94C0040D94C4
:100400000C050D94F1130D94F7130D949C410D946C
:100410009B120D9446020D94BC130D94031D0D9474
:1004200002130D94CD130D94EF000D9411480D940B
:10043000CF600D94B9040D946D410D94131D0D946E
:100440000B610D94C7040D9411610D940F430D942D
:1004500051410D9441410D94D5130D941A5E0D94A4
:1004600048600D9409480D9408610D94DB130D94B8
:100470008A0000407A10F35A00A0724E180900104A
:10048000A5D4E80000E87648170000E40B54020009
:1004900000CA9A3B000000E1F50500008096980034
:1004A000000040420F000000A0860100000010275D
:1004B00000000000E80300000000640000000000ED
:1004C0000A00000000000100000000002C76D8881F
:1004D000DC674F0823DFC1DFAE59E1B1B796E5E332
:1004E000E453C63AE651997696E8E6C28426EB894B
:1004F0008C9B62ED407C6FFCEFBC9C9F40F2BAA5E8
:100500006FA5F490055A2AF75C936B6CF9676DC17F
:100510001BFCE0E40D47FEF520E6B500D0ED902E83
:100520000300943577050080841E080000204E0AE1
:10053000000000C80C333333330F986E128311411F
:10054000EF8D2114893BE65516CFFEE6DB18D184EA
:100550004B381BF77C1D901DA4BBE4242032847211
:100560005E228100C9F124ECA1E53D2700000000D6
:10057000000000000000000000000000000000007B
:10058000000000000000000000000000000000006B
:10059000000000000000000000000000000000005B
:1005A000000000000000000000000000000000004B
:1005B000000000000000000000000000000000003B
:1005C000000000000000000041088210A210C318C3
:1005D000E3180419E318C318E318610800000000C9
:1005E000000000000000000000000000000000000B
:1005F00000000000000000000000000000000000FB
:100600000000000000000000A21024216529083A23
:10061000AA522C638E73AE730C632842AA52CF7B0E
:10062000CB5282100000000000000000000000001B
:1006300000000000000000000000000000000000BA
:1006400000000000000000002000E739694AAA52BB
:10065000718C96ADF7BD18C638C638C618BED7B56A
:1006600014A5B29496B575ADE739000000000000FE
:10067000000000000000000000000000000000007A
:100680000000000000000000000041082C63CF7350
:10069000518CF7BD38C679CEDBDE3CE77DEF5DEFF0
:1006A0001CE7BAD638C6F7BD96B538C6FBDECB5ABE
:1006B000000000000000000000000000000000003A
:1006C00000000000000000000000000000008D6B32
:1006D000D39434A538C638C61CE7FFFFFFFFFFFFE1
:1006E000FFFFFFFFFFFFFFFF9EF79AD6F7BDB6B5EE
:1006F00059CE5DEFAA52000000000000000000008B
:1007000000000000000000000000000000000000E9
:10071000694A34A575AD38C638C6BEF7FFFFFBDEA3
:10072000718C8A4AA631C739CB52D39C5DEFFFFF4B
:10073000DBDEF7BDB6B5BAD6DBDE863100000000E1
:1007400000000000000000000000000000000000A9
:100750000000C318F39C55A538C6F7BDBEF7DFFFF0
:10076000718CC318000000000000000000000000B1
:10077000042155ADFFFF9AD6B6B5D7BD7DEF34A5A0
:100780004100000000000000000000000000000028
:100790000000000000004D6B75ADF7BDD7BD1CE734
:1007A0009EF78D6B000000000000000000000000BC
:1007B0000000000000002000D39CDFFFD7BDB6B5CD
:1007C00079CE7DEF494200000000000000000000EB
:1007D00000000000000000006108F39C75AD18C621
:1007E00038C6FFFF51840000000000000000000038
:1007F000000000000000000000000000610818C6B2
:100800009AD696B5F7BD9EF7D39C00000000000075
:10081000000000000000000000000000A63175ADDF
:10082000B6B5F7BD1CE779CE04210000000000003A
:1008300000000000000000000000000000000000B8
:1008400000008A529AD634A5F7BD1CE79AD6C31881
:100850000000000000000000000000000000000098
:10086000CB5A96B5F7BD18C6BEF71084000000003D
:100870000000000000000000000000000000000078
:10088000000000000000821018C655ADF7BD9AD6D2
:100890007DEFC739000000000000000000000000EC
:1008A000000000004D6BB6B5F7BD58C6BEF72C630F
:1008B0000000000000000000000000000000000038
:1008C00000000000000000000000000034A5B6B5E4
:1008D000F7BD59CEBEF7694A0000000000000000D5
:1008E00000000000000000006D6B96B5F7BD59CE0A
:1008F000BEF7EB5A000000000000000000000000FE
:1009000000000000000000000000000000000000E7
:10091000D39CF7BDD7BD59CEBEF78A520000000068
:100920000000000000000000000000006D6B96B5A4
:10093000F7BD59CEBEF7EB5A0000000000000000E2
:1009400000000000000000000000000000000000A7
:1009500000000000D39CF7BDD7BD59C6BEF78A5230
:100960000000000000000000000000000000000087
:100970006D6B96B5F7BD59CEBEF7EB5A000000007F
:100980000000000000000000200020000000000027
:100990000000000000000000D39CF7BDD7BD38C6A2
:1009A0009EF78A52000000000000000000000000D6
:1009B000000000006D6B96B5D7BD38C6BEF7EB5A88
:1009C00000004108E318A631494ACB5A4D6B8E739B
:1009D0006D6B2C63694A863161080000D39CF7BDBA
:1009E000B6B538C69EF78A4A000000000000000035
:1009F00000000000000000006D6B96ADD7BD59CE21
:100A00005DEFAA5286318A524D6BEF7B518CB294C6
:100A100014A575ADB6B518C638C6F7BD34A56D6B4F
:100A2000929434A5D7BD38C69EF7694A00000000ED
:100A30000000000000000000000000006D6B96B593
:100A4000F7BDD39C4D6BAA522C63AE73EF7B108421
:100A5000518CB294F39C55ADB6B518C679CEDBDE99
:100A60003CE73CE759CEF39C14A518C69EF7694AAB
:100A70000000000000000000000000000000000076
:100A80008E7375AD1084EB5A4D6BAE738E738E738F
:100A9000AE73EF7B518CB29434A596B5F7BD59CEA9
:100AA0009AD6DBDE1CE77DEFBEF79EF759CE75AD1B
:100AB0003CE7694A00000000000000000000000060
:100AC000000000004C6310846D6B30843084EF7B39
:100AD000AE738E73CF7BEF7BEF7BCF7BEF7B30846E
:100AE000929475AD59CE3CE79EF79EF7BEF7DFFFB7
:100AF000FFFF5DEF39C60842000000000000000063
:100B00000000000000000000694A518CF39CB29480
:100B1000518C1084EF7B0C632842C739C739A6314A
:100B2000C73986312421242186310C6396B5BEF75E
:100B3000FFFFDFFFFFFFFFFFDFFF518C0000000022
:100B4000000000000000000000008631B29496B55D
:100B500055ADF39CD39C30842842652928428A52A3
:100B600028428631652904218210A210A210610852
:100B70008210CB5AFBDEFFFFFFFFFFFFFFFFFFFFEF
:100B80004D6B00000000000000000000A210718CFE
:100B900038C6F7BD96B575AD9294C739E739EB5AAB
:100BA0008A522842A6312421A6314529200000007E
:100BB0000000000061084108863179CEFFFFDFFFA9
:100BC000BEF7DFFF3CE7A631000000000000000098
:100BD0002C6359CEBAD659CE38C655ADA631C739D1
:100BE0002C634D6BCB5A2842E739863165290421A5
:100BF00061080000000020008210A210200045299A
:100C00009AD6FFFF7DEF5DEF9EF7B6B5200000009E
:100C100000002421B6B53CE7FBDEBAD69AD6694A75
:100C20008631CB5A0C6330842C638A528A52694ACB
:100C30000842A631E3182000000061082421A21018
:100C4000E318821028423CE75DEFFBDEDBDE3CE789
:100C5000AA52000000002C635DEF7DEF3CE77DEFC2
:100C6000718CE318694AAA52EB5AEB5A8A52EB5A32
:100C70004D6B4D6B1084D39CD39CAE73E318000076
:100C80008210042165298631C31810843CE79AD666
:100C900079CEBAD675AD0000410855ADDFFFBEF77D
:100CA000BEF73CE7A63165290842694A694AE73937
:100CB000EB5A518C518C34A538C69AD6FBDE7DEFA9
:100CC000DBDE084200004529C739E739C739C73993
:100CD00018C659CEF7BDD7BDBAD645294529BAD6CB
:100CE000FFFFDFFFFFFF14A582106529C739E73931
:100CF00045290842B6B579CE7DEFFFFFFFFFFFFF24
:100D0000FFFFBEF7FFFF5DEFA631C318494A8A52C5
:100D1000694AA631108418C696B555AD79CE0C63D4
:100D2000694A9EF7FFFFFFFFFFFF0C6382108631C9
:100D3000AA524529821034A5DFFFFFFFFFFFFFFF06
:100D4000DFFF9EF73CE7FBDE9AD6BEF796B504219F
:100D5000AA52CF7B0C63694AEB5A75AD14A5D39C9C
:100D6000D7BD518C6D6BFFFFFFFFFFFFBEF7C7398B
:100D70006108C318863141088631BEF7FFFFBEF710
:100D80007DEF1CE7BAD679CE38C618C618C69AD6F3
:100D900079CE694A494A6D6B0C630C63AA52F39C85
:100DA0009294718C14A514A51084DFFFFFFFFFFF40
:100DB0005DEF042161084108410800000C63FFFF5A
:100DC000FBDE9AD659CE18C618C618C659CE9AD682
:100DD000DBDE1CE7D7BD0C63494A0C630C636D6B0B
:100DE000AA52929430841084929455AD518CBEF7DF
:100DF000BEF7DFFF1CE7E3188210000000000000D0
:100E00004D6B3CE738C618C638C679CEBAD61CE753
:100E10005DEFBEF7FFFFDFFFF39CCB5A694ACB5A69
:100E2000CB5A8E73EB5A3084CF7BCF7B308434A582
:100E300010847DEF5DEF7DEFFBDE24216108000073
:100E400000000000AA5238C679CEFBDE3CE79EF7D0
:100E5000DFFFFFFFFFFFFFFFFFFF7DEFCF7B8A522A
:100E6000494A694A694A4D6BCB5A10848E738E7316
:100E70003084B2946D6B3CE71CE71CE7FBDE084254
:100E8000A2104108042161088631B29418C6FFFF00
:100E9000FFFFFFFFFFFFFFFFDFFFBEF7DFFFB6B57E
:100EA0008E73084228420C6328424D6BCB5AEF7B6D
:100EB0006D6B6D6B718CEF7B694ABAD6BAD69AD6D8
:100EC000DBDE0C63E318C3180421A21045290C6370
:100ED0003084DBDEFFFFDFFF9EF77DEF3CE71CE7A2
:100EE0009AD614A50C634529A631494A28420C63B9
:100EF000EB5ACF7B6D6B4D6BF39CCB5A652918C6B3
:100F000059CE38C659CEB294452924218210C3182F
:100F1000863128422C63EF7B38C61CE7FBDEBAD64D
:100F2000BAD6DBDEBAD692940421C318A210C31835
:100F300008428A526D6BEF7BAE738E7355AD652997
:100F40004108F39CF7BDB6B596B5B6B50842C739AA
:100F50002421242186312842694AEB5A1084B6B5EF
:100F6000FBDE9EF7FFFF7DEF718C821020002000DA
:100F70004108C318494A28429294EF7BCF7B3084C2
:100F8000F39C410800004D6BB6B555AD34A534A5B2
:100F9000EF7BA631694A8631E739AA52CB5A694AB2
:100FA0002842EB5AEF7B518C6D6B452900002000E5
:100FB000821000002000C739C739AE73D39C518C12
:100FC000108455AD4D6B00000000652955ADF39CB4
:100FD000D39C9294B2948A52494ACB5A28428E7337
:100FE0004D6BEB5AAA52C7390421821020004108E8
:100FF0004108E31824210000E3186529694A75AD0A
:1010000014A5B294D39CB6B5E3180000000000000C
:10101000EF7B34A5718C518C10841084E7398A528F
:101020006D6BEB5AEB5A0C630C63EB5A2C63AA52B0
:1010300086312421A210410882102421E318C739E7
:10104000B6B5D7BD75AD14A518C66D6B0000000010
:1010500000000000042155AD718CEF7BCF7BAE7397
:10106000AE73084228424D6B2C632C630C63CB5A41
:101070002C63CB5AA6312421E318A210C3186108AF
:10108000084238C6BAD618C6B6B538C634A541081F
:10109000000000000000000000008A52D7BDCF7B96
:1010A0008E738E738E738E73694AA631494AEB5ADA
:1010B000EB5AAA52AA52284286316529E3188210B7
:1010C000C318CF7B3CE75DEFDBDE79CE79CE79CEFE
:1010D0006529000000000000000000000000000082
:1010E000AE73D7BDAE734D6B6D6B8E73CF7B8E734E
:1010F000AA520842C739A631A631652904214529DB
:1011000008421084DBDEFFFFBEF75DEF1CE71CE743
:10111000FBDE494A00000000000000000000000063
:10112000000000000000AE7318C6EF7B4D6B8E739D
:10113000CF7B10849294D39CF39C14A514A575AD19
:1011400018C6FBDEBEF7FFFFFFFFFFFFBEF79EF7EF
:10115000BEF7FBDE494A000000000000000000006E
:101160000000000000000000000000008A52F7BDEF
:1011700014A5CF7BAE731084718CF39C75ADF7BD55
:1011800079CEFBDE5DEF9EF7DFFFFFFFFFFFFFFF86
:10119000FFFFFFFF18C686310000000000000000BE
:1011A000000000000000000000000000000000003F
:1011B0000000E3183084D7BD55ADB2949294F39CEF
:1011C00055ADD7BD59CEBAD61CE77DEFBEF7FFFFB0
:1011D000FFFFFFFF3CE7CF7B821000000000000014
:1011E00000000000000000000000000000000000FF
:1011F0000000000000000000000004218E7355ADC7
:1012000018C638C638C659CEBAD61CE77DEFDFFF00
:10121000FFFFBEF779CEEF7BE3180000000000006F
:1012200000000000000000000000000000000000BE
:1012300000000000000000000000000000000000AE
:10124000000041086529CB5ACF7B929414A534A5A0
:10125000F39C30842C6386314108000000000000BC
:10126000000000000000000000000000000000007E
:10127000000000000000000000000000000000006E
:10128000000000000000000000000000000000005E
:10129000000000000000000000000000000000004E
:1012A000000000000000000000000000000000003E
:1012B00000000000FFFFFFFFFFFFFFFFFFFFFFFF3A
:1012C000FFFFFFFFBAD69AD6DFFFFFFFFFFFFFFF4A
:1012D000FFFFFFFFBAD6FBDEFFFF1CE7BEF7FFFFF5
:1012E000FFFFFFFFFFFFFFFF3CE7F39CB294718C11
:1012F00075AD9AD659CEF7BDD7BD59CE9AD659CE2F
:1013000059CE7DEFFFFFDFFFFFFFFFFFFFFF694AC1
:101310006D6BFFFF59CE0842FFFFBEF7EF7BF39CDA
:10132000B2948A524108DFFFFFFFDFFFA631BAD631
:10133000FFFFFFFFFFFFFFFFFFFFFFFFFFFFFFFFBD
:10134000FFFFFFFFBAD6DBDEFFFFFFFFFFFFFFFF60
:10135000FFFFFFFFFFFFFFFFFFFFFFFFFFFFFFFF9D
:10136000FFFFFFFFFFFF1CE7DFFFFFFFFFFFFFFFA8
:10137000FFFFFFFFFFFFFFFFFFFFFFFFFFFFFFFF7D
:10138000FFFFDFFFBEF7FFFFDFFF59CEBAD6B6B5CE
:10139000F7BD9AD679CE18C6718C14A518C69AD600
:1013A00079CEDFFFFFFFDBDEDBDED7BD55ADA6313B
:1013B000B294FFFF7DEF8A52F7BDFFFFCF7BD39C36
:1013C000FFFF08426529FFFFFBDE5DEF0C63FFFFB7
:1013D000FFFFFFFFFFFFFFFFFFFFFFFFFFFFFFFF1D
:1013E000FFFFFFFFFFFF3CE7FFFFFFFFFFFFFFFFE8
:1013F000FFFFFFFF3CE7FFFFFFFFFFFFFFFFFFFFD8
:10140000FFFFFFFFFFFFFFFFFFFFFFFFBAD6DBDE9F
:1014100096B55DEFFFFFFFFFFFFF7DEFDFFFFFFFF3
:10142000FFFF5DEF3CE7FFFFFFFFFFFFFFFFFFFF59
:101430003CE73CE77DEFFFFFDBDE59CE79CE3CE7B2
:101440003CE7DFFF7DEF79CE6D6B0000A210718C61
:101450007DEFFFFFDFFFE739AE73FFFF8631084204
:10146000FFFF1084494AFFFFAE730842494AB6B5F0
:10147000FFFFFFFFFFFFFFFFFFFFFFFFFFFFBEF7C5
:101480001CE7DFFF1CE7DBDEFFFF5DEFDFFFFFFF99
:10149000FFFFFFFF7DEFFFFFFFFFFFFFFFFFFFFFEE
:1014A000FFFFFFFFFFFFFFFFFFFFFFFF9EF738C6B5
:1014B000B294518CBAD6FFFFFFFF9EF7DFFFFFFF0C
:1014C000FFFFFFFFFFFFFFFFFFFFFFFFFFFFFFFF2C
:1014D000FFFFFFFFFFFFFFFFFFFFFFFFFFFFFFFF1C
:1014E000FFFFFFFF1CE7E7398E734D6BAA52D7BD94
:1014F000694A8A52694A00002C63DFFF610828426A
:10150000FFFF6D6BA210FFFF518C00002C63AA52ED
:10151000FFFFFFFFFFFFFFFFFFFFFFFFFFFF7DEF6D
:1015200038C6BAD67DEFBEF7FFFF9EF7FFFFFFFF7D
:10153000FFFFFFFFFFFFFFFF5DEFBAD6FBDEFBDE25
:10154000FBDEFBDE79CEBAD6DFFFDFFF9EF7FBDEE8
:10155000DFFF3CE79EF7FFFFFFFFFFFFFFFFFFFFFF
:10156000FFFFFFFFFFFFFFFFFFFFFFFFFFFFFFFF8B
:10157000FFFFFFFFFFFFFFFFFFFFFFFFFFFFFFFF7B
:10158000FFFFFFFFFBDE0000CF7BFFFF494A0000AB
:101590002421C739A6314529A21061080000242161
:1015A000DBDE65290000DBDE6D6B0000AE73AA5246
:1015B000FFFFFFFFFFFFFFFFFFFFFFFFFFFFFFFF3B
:1015C000FBDE38C6BEF7FFFFFFFFFFFF7DEFFBDE50
:1015D000FFFFFFFFFFFFFFFFDBDEFBDE7DEF5DEFC9
:1015E000DFFFBEF79AD634A59EF75DEF18C659CE39
:1015F000FFFFFFFFFFFFFFFFFFFFFFFFFFFFFFFFFB
:10160000FFFFFFFFFFFFFFFFFFFFFFFFFFFFFFFFEA
:10161000FFFFFFFFFFFFFFFFFFFFFFFFFFFFFFFFDA
:10162000FFFFFFFF5DEF0000EF7B9AD6BAD6694A55
:1016300075ADFFFFFFFFFFFF34A5494AAA52EB5AE1
:10164000718C6D6B24210000000000000000694ACD
:10165000FFFFFFFFFFFFFFFFFFFFFFFFFFFF3CE775
:1016600059CE38C679CEFFFFFFFFFFFFFBDE3CE718
:10167000FFFF9EF759CE1CE759CE59CE59CE38C63A
:10168000DBDEBAD6DBDEFBDEFFFFFFFF1CE7DBDEC7
:10169000FFFFFFFFFFFFFFFFFFFFFFFFFFFFFFFF5A
:1016A00018C6AE73AE73CF7BAE73CF7BB2941CE71C
:1016B000FFFFFFFFFFFFFFFFFFFFFFFFFFFFFFFF3A
:1016C000FFFFFFFF518C00003084EB5A59CEFFFF23
:1016D0003CE75DEFFFFF3CE7FFFFFFFFFFFFFFFF82
:1016E000FFFFFFFFDBDE518C518C518CA210494A69
:1016F000FFFFFFFFFFFF1CE79EF7FFFF3CE759CE10
:1017000059CEFBDE5DEFFFFFFFFFFFFFFFFFFFFF97
:10171000FFFFBAD6D7BD9AD659CE3CE7BAD659CE36
:1017200038C638C69AD6FFFFFFFFFFFFFFFFFFFF57
:10173000FFFFDFFFDFFF18C6284208420842E739F3
:10174000C318000000000000000000000000652930
:101750000842E7398E73BEF7FFFFFFFFFFFFFFFF71
:10176000FFFFFFFF718C0000718C4D6BBAD679CEF4
:101770002421A631084245290842284228422C63E8
:1017800038C69EF7FFFFFFFFFFFFFFFF55AD2C633D
:10179000FFFFFFFFFBDE18C63CE73CE738C659CE2B
:1017A000FBDEFFFFFFFFFFFFFFFFFFFFFFFFFFFF6E
:1017B000FFFFDBDEDFFF9EF73CE7FFFFDFFF7DEF94
:1017C0009AD69AD6DBDEFFFFFFFFFFFF1CE79AD613
:1017D000518CC318E3184108000000000000E31812
:1017E000D39C1CE7EB5A04214D6B86312421929443
:1017F0004D6BC318C318A210AE739AD6FBDEFFFF61
:10180000FFFFFFFF9AD6694AFBDE08421CE775AD71
:10181000042114A5EB5A4529A631863182104108CE
:101820002000652904210421242124210421AA5215
:10183000FFFFFFFF9EF718C618C69AD6DBDEDFFF54
:10184000FFFFFFFFDFFFBAD6FBDEDFFFDFFF3CE776
:10185000FFFFFFFFFFFFFFFFFFFFFFFFFFFFFFFF98
:10186000FFFFFFFFFFFFFFFF75ADAE73E318000042
:1018700000002000000024214D6BD39C718C75ADBD
:101880005DEFFFFFFFFFBEF7FFFF0C639AD6FFFF80
:10189000FFFF55AD694A410800000000821038C6BC
:1018A000FFFFFFFF59CE0C6338C6A2105DEF34A5D1
:1018B0000C63FFFF5DEF34A53CE779CED7BD34A5BF
:1018C0000421F39C9294C7398A5208420000694A65
:1018D000FFFFFFFFFFFF9AD638C6DFFFFFFFFFFFC6
:1018E000FFFF9EF7DFFF9EF7DBDEBEF7FFFFFFFF88
:1018F000FFFF7DEFFFFFFFFFFBDEDFFFFFFFFFFFCF
:10190000FFFFFFFF5DEFAE738A520000000004216D
:10191000CB5A494A042155ADFFFFFFFF518C863158
:1019200075ADFFFF7DEFD7BD518CF39CBEF7F7BDC2
:10193000AE734529E31875ADE73961080000610809
:101940004D6B1CE7FBDE8A52FFFF494ADBDE96B592
:101950008E73FFFFFFFF3CE7FFFFFFFFFFFFDFFF8F
:10196000BAD6DFFFFFFFF7BD18C6EB5A0000494AA1
:10197000FFFFFFFFFFFFFFFFFFFFFFFF5DEFFFFF29
:10198000FFFF7DEFDFFFFFFFFFFFFFFFFFFF9EF782
:101990009EF75DEFFFFFFFFF96B518C6FBDEFFFF6A
:1019A000FFFFBEF7518C18C675AD8A52E7398A52CF
:1019B0003084CB5A718C14A5FBDE1084694AB6B50D
:1019C000FBDEDBDEF7BDE739A6311CE7FFFFF7BD25
:1019D000E73914A51CE7FBDE55ADB6B582108A5277
:1019E0002842242165298A52FFFF8A52DBDE18C66D
:1019F000AE737DEFDBDEFFFFFFFFFFFFFFFFFFFFAB
:101A0000FFFFFFFFFFFFFFFFFFFF494A00001084B9
:101A1000FFFFFFFFFFFFFFFFFFFFFFFF9EF7FFFF3F
:101A20007DEFDBDEBEF7DFFFFFFFFFFFFFFFDFFF26
:101A3000BEF7FFFFBEF7FFFFBEF7DBDEBAD6FFFF44
:101A4000FFFFFFFF3CE7F39CA6310C63C3182000A7
:101A50002421CB5A0C6392949EF7EF7B75ADFFFF68
:101A60005DEF18C6CB5A108438C6BEF77DEF79CE2D
:101A700096B5DBDEFBDEFFFF7DEF694A61087DEF97
:101A8000FFFFCB5AE31808427DEF34A53CE718C6A8
:101A9000AE73718C518C18C6FBDE59CE75ADB29405
:101AA000BAD67DEFBEF7FFFFFFFF494A2000FBDEFD
:101AB000FFFFFFFFFFFFFFFFFFFFFFFFFFFFFFFF36
:101AC000DFFFFBDEBAD6BAD67DEFFFFFFFFFFFFFD9
:101AD000FFFFFFFF79CEFFFFFFFFFFFFFFFFFFFFCD
:101AE000FFFFFFFF1CE70000410841080000000065
:101AF000B2947DEFFFFFFFFFBEF7718CAA52BAD6FA
:101B00001CE79294EF7B59CE38C614A50C63A6311E
:101B1000C3182000A21079CE4D6B410800000C6361
:101B2000FBDEFFFFDFFFEB5A2842FFFF5DEF108473
:101B30009EF7FFFFFFFF3CE734A5B6B555AD518CCE
:101B400096B518C6B6B575AD59CE6529A210FFFF7A
:101B5000FFFFFFFFFFFFFFFFFFFFFFFFFFFFFFFF95
:101B6000FFFFFFFFFFFFFFFFFFFFFFFFFFFFFFFF85
:101B7000FFFFFFFF5DEFFFFFFFFFFFFFFFFFFFFF27
:101B8000FFFFFFFF3CE7000000000000410875ADCB
:101B9000FFFFFFFFD39CAA52AA52C318F39CFBDE9F
:101BA0008E73CB5ACF7B3084AE73AA52A6312842B3
:101BB0008210000020002421A210863100000000C5
:101BC0006529FBDEFFFFB6B50000694A5DEFBAD6B6
:101BD000FFFF5DEF3CE7FFFFFFFFFFFFFFFFFFFFA2
:101BE000DFFFBEF71CE7F7BD38C64529A210FFFF8F
:101BF000FFFF9AD634A538C69EF7FFFFFFFFFFFF11
:101C0000FFFFFFFFFFFFFFFFFFFFFFFFFFFF38C6E4
:101C10006D6BEB5AFFFFDFFFBAD6BEF7FFFFFFFF8A
:101C2000FFFF34A5C739000000006D6BB6B5FFFF9C
:101C3000BEF74D6B000000002000B294BAD62421FC
:101C4000000086312842CB5AEF7BCF7B518C8E73BC
:101C5000E739AA5261082000CB5A75AD718C410852
:101C600000000421FBDEBEF779CEF7BDBAD6FFFF38
:101C7000FFFFDBDE55AD9AD6DBDEDBDE75ADB29461
:101C800038C61CE7FFFFFFFFFFFF28428210FFFF5F
:101C9000FFFF79CE55ADD7BD3CE7FFFFFFFFFFFF4C
:101CA000FFFFFFFFBEF79EF7D39CE739E739C31864
:101CB00000000000FFFFFFFFDFFFFFFFFFFF7DEFE2
:101CC0008E7320000000000065291CE7FFFFDFFF86
:101CD000B2940421E739E739FBDEFFFF96B5A63160
:101CE000E73934A5B294718C5DEF7DEF34A5AA522B
:101CF000F7BD3CE759CE5DEFBEF7FFFFFFFF79CEA2
:101D00008A5200000421B6B5DBDEDBDE6D6BF39C8E
:101D1000FFFFDFFF96B579CE5DEF1CE7F7BD14A599
:101D20009AD61CE7FBDE7DEFF7BD6108C318FFFF05
:101D3000FFFFFFFFFFFFFFFFFFFFFFFFFFFFFFFFB3
:101D400059CE59CE6529A210000000000000000005
:101D5000000000005DEF5DEFBEF7FFFFFFFFF7BD86
:101D60000000000020000C63D7BDFFFFFFFFBEF79F
:101D7000FBDE1CE718C6B6B5DFFFFFFFFFFFDFFF86
:101D80001CE73CE71CE77DEFFFFFF7BD652914A5C5
:101D9000FFFFFFFFFFFFFFFFFFFFFFFFFFFFFFFF53
:101DA000FFFF3084000000000000000030841CE7CA
:101DB000FFFFFFFF3CE77DEFFFFFFFFFFFFFBEF7E9
:101DC000FFFF5DEFDFFFFFFF18C64108C318FFFFED
:101DD000FFFFFFFFFFFFFFFF3CE7F39CF39C4D6B12
:101DE00000000000000000000000AA52CF7B042188
:101DF00024210C639AD61CE71CE7FFFF7DEF494ABC
:101E000000000000694AFFFFBAD638C6DFFF5DEF69
:101E1000FFFFFFFFFFFFFFFFFFFFFFFFFFFFFFFFD2
:101E2000FFFFFFFFFFFFFFFF7DEF55AD96B5FFFF03
:101E3000FFFFFFFFFFFFFFFFFFFFFFFFFFFFFFFFB2
:101E4000FFFF1CE761080000610861088A52929454
:101E5000FFFFFFFFFFFF7DEFFFFFFFFFDFFFF7BD8E
:101E6000FBDEFFFFFFFFFFFF5DEF4529A210FFFF35
:101E7000FFFFD39C4D6B2C63A631000000000000D7
:101E80000000E318694AD39C75ADFFFFFFFF79CED0
:101E90009AD6FFFF518CBAD63CE7FFFF1CE7000043
:101EA0000000410879CEFFFF3CE71CE7FFFFBEF7CB
:101EB000FFFFFFFFFFFFFFFFFFFFFFFFFFFFFFFF32
:101EC000FFFFFFFFFFFFFFFFBEF7FFFFFFFFFFFF6B
:101ED000FFFFFFFFFFFFFFFFFFFF3CE7DFFFFFFF0D
:101EE000FFFFBEF759CE718C410892948A52C739D0
:101EF00014A5DFFFFFFFFFFF5DEFBEF77DEF4D6B2A
:101F0000B6B5FFFFFFFFFFFFFFFF34A5694A55ADE0
:101F1000652900000000000000006108494A59CE10
:101F200059CEDBDE59CE9EF7FBDEBAD614A5FBDE1A
:101F3000FFFFFFFF55AD3CE7FFFFFFFFD39C000015
:101F4000C318B6B5FFFFFFFFFFFFFFFFFFFFFFFF57
:101F5000FFFFFFFFFFFFFFFFFFFFFFFFFFFFFFFF91
:101F6000FFFFFFFFFFFFFFFFFFFFFFFFFFFFBEF7CA
:101F70009EF77DEFFFFFFFFFFFFFDFFFFFFFFFFF8C
:101F8000FFFFFFFFFFFFB6B5000038C68A52000012
:101F9000A631DBDEFFFF9EF7FBDEBEF7FFFFFFFF94
:101FA000FFFFFFFF3CE7B6B596B5494AA210C3183C
:101FB000E318863128421084108414A5BAD6DFFFB6
:101FC000BAD6F7BD518C308496B5DBDE9AD6BEF713
:101FD000FFFFFFFFFFFFFFFFFFFFFFFFE318000012
:101FE0001084FFFFFFFFFFFFFFFF9EF7FFFFFFFFD4
:101FF000FFFFFFFFFFFFFFFFFFFFFFFFFFFFFFFFF1
:10200000FFFFFFFFFFFFFFFFFFFFFFFFDFFF7DEF92
:10201000DBDEEB5A18C6FFFFFFFFFFFFFFFFFFFFEE
:10202000FFFFFFFFFFFF38C6A2106D6B18C68A5274
:10203000E318518CFFFFFFFF7DEF9EF7FFFF75ADAB
:102040009294518CA631694A6D6BD39C34A5D7BD4F
:102050001CE73CE79EF75DEFF7BD1084B294BAD65B
:1020600075AD75ADD7BDFFFFFFFFFFFFFFFFFFFFA2
:10207000FFFF3CE7FFFFFFFFFFFFFFFF0421000022
:10208000718CFFFFFFFF1CE7FBDE79CEFBDEFFFF5D
:10209000FFFFFFFFDFFF5DEFFFFF5DEFDFFFFFFFF4
:1020A000FFFFFFFFDFFF5DEFFFFFFFFFFFFFFFFF12
:1020B0007DEF518C518CD7BD3CE7FFFFFFFFFFFF49
:1020C000FFFFFFFFFFFFFFFF4D6B00007DEFFFFFF6
:1020D000AA5282103CE7FFFFFFFFFFFF10840000C1
:1020E00024212C63F39CFFFFFFFFFFFF9EF7DBDE45
:1020F00038C61CE75DEFDBDE14A514A55DEFFFFF1E
:10210000FFFFFFFFBEF7FFFF9EF7FBDEDBDEF7BD45
:1021100096B5D7BDDFFFFFFFFFFFAE732000C739C5
:102120007DEFFFFF9AD679CE7DEFDBDE7DEFFFFFFF
:10213000BEF7FFFFFFFF9EF7DFFFBEF7FFFFBEF713
:10214000BAD67DEFFBDEBEF75DEF9AD6DBDEFFFF92
:102150003CE79AD618C68E73EF7B3CE75DEFFFFF36
:10216000FFFFFFFFFFFFFFFF10840000EF7BDFFF9B
:1021700038C64108AE73FFFFFFFFBEF708426D6B24
:102180001CE7BEF79EF7DFFF38C696B575AD9AD649
:102190005DEFFFFFFFFFFFFF9EF77DEFDFFFDFFF3C
:1021A0003CE79AD696B534A5BAD659CE59CE59CE73
:1021B0001CE77DEFFBDEFFFFFFFFEB5A0000694AE3
:1021C000FFFF9EF7AE7334A55DEFBEF7FFFFBEF7CE
:1021D000BAD6BEF7FFFF9EF75DEFFFFFFFFFFFFFE1
:1021E0003CE759CEDBDEFFFF5DEF38C655AD96B557
:1021F00018C6EF7BB6B579CE8210D39CFFFFFFFFE8
:10220000FFFFFFFFFFFFFFFF34A520000421CF7B6E
:10221000FFFFC73900003084DFFF3CE7D39CEB5A57
:10222000B6B538C6BAD6FFFFDFFFBEF7FFFFFFFF28
:10223000FFFF7DEF3CE73CE7718CAE739AD6FBDE87
:10224000BAD6BAD67DEF9EF7FFFFFFFFFFFFFFFF75
:10225000FFFFFFFFFFFFFFFFFFFF494A200075ADB3
:10226000FFFF3CE796B5FBDE9EF77DEFDFFFFFFF4C
:10227000FFFFFFFFFFFFFFFFFFFFFFFF3CE77DEFDB
:10228000FFFF5DEFFFFFFFFFFFFF7DEF38C634A5C7
:1022900075ADD39CEB5A694AEB5AB6B53CE75DEF96
:1022A000FFFF59CEFBDEFFFF1CE7C739C318C73954
:1022B000DBDEF39C00004108D7BDFFFF55AD863142
:1022C000F7BDFFFFFFFFFFFFBEF73CE7BAD61CE7F5
:1022D0001CE7FBDE59CEDBDE75AD79CEFFFFFFFFDD
:1022E000FFFFFFFFFFFFFFFFBEF73CE75DEF5DEF86
:1022F0003CE75DEFFFFFFFFFFFFF08428210FFFF9B
:10230000FFFFFFFFFFFFFFFFFFFFFFFFFFFFFFFFDD
:10231000FFFFFFFFDFFFDBDE7DEFFFFF5DEF7DEF08
:10232000FFFFFFFF5DEFFFFFFFFFFFFFBEF7FFFFB8
:102330001CE7D7BDD39CCF7BFBDEFFFFBAD68A520A
:10234000D7BD79CE1CE7FFFFFFFF75AD4108200028
:10235000B294FFFF92948210D7BD7DEF6D6B0C633A
:102360003CE7FBDE1CE7FFFFBEF73CE7DBDE3CE7BC
:10237000BEF7FFFFFFFFFFFFFFFF9EF7DFFFBEF788
:102380001CE775ADD39C38C63CE73CE71CE79AD602
:102390005DEFF7BDFFFFFFFFFFFF494A8210FFFF20
:1023A000FFFFFFFFFFFFFFFFFFFFFFFFFFFFFFFF3D
:1023B000DFFFBEF7FFFF3CE779CE9AD6FFFFFFFFB6
:1023C000FFFFFFFFBEF7FFFFFFFFFFFFFFFFFFFF66
:1023D000FFFF5DEFFBDEFBDEBAD67DEFFFFFF7BD53
:1023E000B6B5DFFFFFFFFFFFFFFFFFFFCB5A200067
:1023F000042118C69EF78E73FFFFFFFF0C63863122
:10240000DBDE1CE77DEFFFFFFFFFFFFFFFFFFFFFAE
:10241000FFFFFFFFFFFFBEF7DBDE96B5BAD6FFFF7B
:102420009EF718C696B53CE7DFFFFFFF9EF734A581
:10243000FFFFD39CFFFFFFFF5DEF8631A210FFFF80
:10244000FFFFDBDEDFFFFFFF5DEF1CE77DEFFFFF40
:102450007DEFDBDEDFFFFFFF1CE7F39C7DEFFFFF7F
:10246000FFFFFFFFFFFFFFFFFFFFFFFFFFFFFFFF7C
:10247000FFFFFFFFDFFFDFFFFFFF3CE79EF7FFFFF0
:102480005DEF9EF7FFFFFFFFFFFF9EF72842410829
:10249000E31859CEFFFF3CE7FFFF5DEFEB5ACB5A45
:1024A0005DEF7DEFBEF7FFFFBEF77DEF59CEDBDEC0
:1024B000FFFFFFFFFFFFFFFFFFFF1CE7BEF7FFFF70
:1024C000FFFFFFFFFFFFFFFFFFFFFFFF96B5108439
:1024D000BEF7518CFFFFFFFF10840000E318FFFFE1
:1024E000FFFF5DEF5DEF5DEF55ADD39CFBDEFFFFC2
:1024F000FFFFFFFFFFFFFFFF9EF779CEBEF7FFFF55
:102500009EF7BEF7FFFFFFFF9EF7DFFFFFFF3CE7F1
:102510001CE7FFFFFFFF75ADB294FFFF1CE71CE750
:10252000FFFF9EF7DFFFFFFFFFFFF39C28420C63D6
:1025300034A59EF7FFFFFFFFFFFF9AD62421C7397E
:10254000D7BDDBDE9AD6FFFFBEF71CE7FBDE5DEFF3
:10255000FFFFFFFFFFFF5DEFFBDEFFFFBEF7FFFFAB
:10256000FFFFFFFFBAD679CEFFFFDFFF8A52F39C51
:102570003CE7CB5AFFFFFFFF79CE65292842FFFFDA
:10258000FFFFFFFF38C6518C18C65DEFFFFFFFFF4E
:10259000FFFFFFFFFFFFFFFFFFFFFFFFFFFFFFFF4B
:1025A0009EF7BEF7FFFFFFFF1CE79AD6F7BD6D6BE6
:1025B000EB5AB29418C679CEA6312842CB5A308451
:1025C000FFFFDBDEBEF7FFFFFFFFD7BD108414A5C2
:1025D000084238C6FFFFFFFFFFFFFFFFC3180000E0
:1025E00055ADFFFFBEF7FFFFFBDE5DEFFFFFFFFF17
:1025F000FFFFFFFFFFFFF39CEF7BDFFFF39C3CE758
:10260000FFFFFFFFEF7BF39CFFFFDFFF18C6DFFF3D
:10261000FFFF75ADFFFFFFFFFFFFAA52D7BDFFFF12
:10262000FFFFFFFF9EF7FBDEFFFFFFFFFFFFFFFF48
:10263000FFFFFFFFFFFFFFFFFFFFDFFFFFFFFFFFCA
:10264000FFFFFFFFFFFFDFFFDFFFDBDE3CE7D7BD64
:102650000C632C63518CFFFF5DEFAE73A631494ACA
:10266000BAD6FFFFFFFFFFFFFFFF18C6308459CE29
:10267000610834A5FFFFFFFFFFFF9EF745290842D1
:1026800096B5FFFFFFFFFFFF75ADF7BDFFFF7DEFC5
:1026900038C6BEF79EF74D6B518C9EF7518C59CEC4
:1026A000FFFFDFFFAA5275ADFFFF3CE77DEFDBDEEA
:1026B0005DEFFFFF3CE7FFFFFFFF694A79CEFFFFB9
:1026C000BEF7FFFFFFFFFFFF1CE7F7BDDFFFFFFFC8
:1026D000FFFF1CE79EF7FFFFFFFFB6B57DEFFFFF93
:1026E000DFFFDFFFDFFF3CE7FFFFFFFFFFFFFFFF35
:1026F000FFFFFFFFDFFFFFFFFFFFFFFF718C45299B
:10270000518C5DEFFFFFFFFFFFFFDBDE694AEF7BD0
:10271000B294DBDEFFFFFFFFFFFF10846108694A10
:1027200018C6FFFFDBDEFFFF14A555ADFFFF59CE36
:102730008E735DEFFFFFF7BD38C6DFFF1CE714A502
:10274000FFFF38C62C6318C6FFFFFFFF9AD6F7BD00
:1027500059CE7DEF694AFFFFBEF72C63FBDEFFFF1A
:102760001CE71CE7BEF718C6652900002C633CE790
:10277000FFFF18C6D39CFFFFFFFFEF7B9AD6FFFF3A
:102780001CE77DEFFFFFFFFFFFFFFFFFFFFF1CE7E1
:10279000D7BDBAD6FFFF7DEFFFFFFFFFBEF79294D4
:1027A000D39C18C6DFFFFFFFFFFF9AD6A210084296
:1027B000FFFFFFFFFFFFFFFFFFFF084200008A52FD
:1027C000FFFFFFFF9EF7DFFFD39C9AD6FFFFFBDEE4
:1027D000B6B5FFFFFFFFFBDEFFFFFFFFBEF7BAD678
:1027E000FFFF718CAA5279CEFFFFBEF738C634A521
:1027F0001CE7DFFFE318FFFF7DEF75AD18C6FFFF95
:102800007DEFB29428428210000000000000CB5AF5
:10281000718C4529D39CFFFFFFFFEF7B2842FBDE35
:10282000BEF71CE7F7BD92940C63108414A58E7359
:10283000E31804218E736D6B284238C6FFFFFFFF3B
:102840009EF77DEFFFFFFFFFFFFF10842421D7BD20
:10285000FFFFFFFFFFFFFFFFFFFF34A58210518C3A
:10286000FFFFFFFFFFFFDBDE18C69EF7FFFFBAD6B4
:102870007DEFFFFF7DEF3084518C79CE3CE71084F3
:102880003CE775AD2000F39CDFFFB6B534A518C654
:1028900059CE9AD6FBDE7DEF3CE714A5242134A562
:1028A000F7BD284200004108863128422421494AC8
:1028B00045290000BAD6FFFFFFFF7DEFB294494AD9
:1028C00010844D6B65290000000000000000E31833
:1028D0000000E739B6B5DBDEEF7BEB5ADBDEFFFF4E
:1028E000FFFFFFFFDFFF7DEF38C66529494A7DEF17
:1028F000DBDECF7B79CEFFFFFFFF4D6B200045294C
:102900002842C318A21061088210EF7B4D6B61084A
:10291000C739694AA21000000000200082100000A0
:10292000610882100000C739E739200020008210BA
:10293000410820007DEF45296D6BFBDE04218A52A2
:10294000F7BDEF7B6D6B59CEFFFFFFFFFFFFF7BDBC
:102950006529E739BAD6FFFFFFFFFFFFFFFFD39CD2
:102960002C632C638631694A494A2842E7392000A2
:102970000000CF7B9EF7DFFFFFFF7DEFB294FFFFEC
:10298000FFFFFFFFFFFFFFFF75ADE739E73996B5A2
:10299000FBDE6D6B8A52FFFFFFFF084200008631AD
:1029A0006529A631E739E7390842494A28420842F1
:1029B00008420842E739284228420842E7392842BB
:1029C000E7390842494A2842084208420842E739A2
:1029D0000842E7397DEFE739AE73FFFF18C6BAD674
:1029E000FFFFFFFFFFFFFFFFD7BD3084DBDE5DEFA2
:1029F000652934A5FFFFFFFFFFFFFFFFFFFF59CE53
:102A000096B5FBDE38C6BEF7FFFFFFFFFFFF34A51C
:102A1000EF7B96B51CE7D7BD38C6DFFF0C63F39C90
:102A2000FFFFFFFFFFFFFFFF59CED39CA63134A568
:102A3000DFFF55ADCB5AAE73F7BD96B530847DEF51
:102A40007DEFFFFFFFFFFFFFFFFFFFFFFFFFFFFF28
:102A5000FFFFFFFFFFFFFFFFFFFFFFFFFFFFFFFF86
:102A6000FFFFFFFFFFFFFFFFFFFFFFFFFFFFFFFF76
:102A7000FFFFFFFFBEF70C63CF7BFFFF75AD2C633D
:102A8000494A694AAA528A52C31800006529494A2C
:102A9000200096B5FFFFFFFFFFFFFFFFFFFFDFFFF7
:102AA000F7BD308475ADFFFFFFFFFFFFFFFFFFFFA6
:102AB000FFFFFFFFFFFF7DEF1CE7DFFF8E730000CE
:102AC00014A5FFFFFFFFFFFFFFFF7DEFE318718CF1
:102AD0009AD6CF7B0C6300008E73FFFFFFFFFFFFD2
:102AE000FFFFFFFFFFFFFFFFFFFFFFFFFFFFFFFFF6
:102AF000FFFFFFFFFFFFFFFFFFFFFFFFFFFFDFFF06
:102B000075AD34A5DFFFFFFFFFFFFFFFDFFF5DEFC8
:102B10007DEFF7BDC318E7391CE7FFFF75ADC3189C
:102B20006108AE7318C6B6B5F7BD18C679CE518C1C
:102B3000000055ADFFFFFFFFFFFFFFFFFFFF5DEF51
:102B40004D6B042192942C63A210C318A210A21002
:102B5000A21014A5FBDE9EF7FFFFFFFFBAD6000010
:102B6000694AFFFFFFFFFFFFFFFFDFFFA2104D6B72
:102B700079CEAA52A6318210718CFFFFDFFF3CE7AD
:102B8000FFFFBEF73CE7FFFFFFFFFFFFFFFFDFFF99
:102B9000DFFFDFFFBEF7FFFFFFFFFFFFFFFF1CE7C9
:102BA000CB5AD39CFFFFDBDECF7BDBDEFFFFDBDE20
:102BB00096B5AE7382100000B294FFFFFFFFBEF720
:102BC000DFFFFFFF79CE2C630C63AE7396B5518C9B
:102BD000821075ADFFFFFFFFFFFFFFFFFFFF1CE748
:102BE000CB5AF39C3CE7694A0842CB5A494A08420F
:102BF000863100000000C73918C6BEF75DEF8A5263
:102C00009294FFFFFFFFFFFFFFFF3CE76108863163
:102C1000D7BD45294108EF7BB6B5FFFFFFFFFFFF9A
:102C2000FFFF1CE7AA5255AD7DEFFFFFFFFF9EF7A8
:102C30007DEF5DEFDBDED7BDD7BDB6B5F7BD5DEF90
:102C40007DEFFFFF9EF7F7BD494A38C6FFFFFFFF44
:102C5000DFFFBEF7EB5A4108B294FFFFD39C75AD7E
:102C6000FFFFFFFF1CE796B575AD38C6EB5A0000B5
:102C700086313CE7FFFFFFFFFFFFFFFFDFFFBAD614
:102C8000EF7B18C6FFFFFFFFFFFFFFFFFFFFFFFF08
:102C9000DFFF9294AA520000200079CEFFFFBEF71A
:102CA000BEF7FFFFDFFF5DEFFFFFFFFFE318000050
:102CB00055AD494A6108FFFFFFFF718C5DEFFFFFD3
:102CC000FFFFFFFF18C696B55DEFFFFFFFFFFFFF99
:102CD000FFFFFFFFFFFFCF7B8A528631694A9AD6FA
:102CE000BEF7FFFF7DEFFFFFFFFFFFFFFFFFFFFFCF
:102CF000FFFFFFFFA21008427DEFFFFF518C9AD625
:102D0000FFFFFFFFFFFFFFFFFFFFFFFF34A52421B1
:102D100014A5FFFFFFFFFFFFFFFFFFFFDFFF79CEDF
:102D2000F7BD59CEF39CB6B55DEFDFFFDFFFFFFFC8
:102D3000FFFFFFFFDFFFAE73000045290842452972
:102D4000E7394D6B5DEF9EF7FFFFFFFFE3180000D3
:102D5000F39C8A52E318FFFFFFFF96B5E7390C6337
:102D60005DEF9EF73CE7FFFFFFFFBEF76D6B18C6F8
:102D7000DFFFDFFFFFFFDFFF9EF71CE75DEFBEF722
:102D8000FFFFFFFFFFFFFFFFD39C494A38C6BEF796
:102D9000FFFFFFFF00008A52FFFFFFFFFFFFFFFF63
:102DA000FFFFFFFFFFFFBEF71CE738C659CE79CE05
:102DB000DFFFFFFFFFFFDFFFFFFFFFFFDBDE96B55B
:102DC0009AD6DFFF14A58E73F39CB6B5AA524D6B4D
:102DD00079CEFFFFFFFF34A58631C318A210000093
:102DE0004D6BFBDEFFFFFFFFFFFFFFFF494A0000C7
:102DF000518C38C634A5DBDEFBDE3084E318E318E3
:102E000028422842A63145298210610800000000AE
:102E1000610861086108694AFBDE3CE779CE694ACE
:102E200034A5DBDEEB5AC7392421A210C739EF7B6A
:102E3000FFFFFFFF0000694AFFFFFFFFFFFFFFFFEB
:102E4000FFFFFFFFDFFFFBDEFBDE18C6DBDEFFFF61
:102E5000FFFFBEF7DFFF1CE7BEF7FFFF18C614A594
:102E60007DEFFFFF5DEF3CE7FFFFFFFFB2940842FD
:102E7000A63118C6FFFFFFFFFFFFFFFFFFFF34A5CE
:102E8000F39CBAD6BEF7FFFFFFFFFFFFD39C000005
:102E900008429294CB5ACF7BFFFFFFFFFFFFFFFF5B
:102EA000DFFFFFFFDBDEF39CAA52494A8A52494A00
:102EB000494A494A494AE739000000000000000039
:102EC0000000000000000000B6B5FFFFFFFFFFFF9D
:102ED000BAD675AD0000694AFFFFFFFFFFFFFFFF95
:102EE000FFFFFFFFFFFFFFFFFFFFFFFFFFFFFFFFF2
:102EF000FFFFBAD61CE7BEF79EF7FFFF1CE7FBDE1D
:102F0000FFFFFFFF7DEFDFFF1CE73CE7FFFFFFFF59
:102F1000F7BD9AD6DFFF7DEF34A555ADFFFFFFFF6C
:102F2000FFFFF7BD9EF7FFFFFFFFFFFFBAD62000B0
:102F3000E73955AD3CE7BEF779CE3CE7FFFFFFFF31
:102F4000FBDE3084BEF7FFFFFFFFFFFFFFFFFFFF49
:102F5000FFFFFFFFFFFFFFFFD39C1084108430842E
:102F60001084108410840C6328428E738E739AD65A
:102F7000EF7B0000518C8A52FFFFFFFFFFFFFFFF36
:102F8000FFFFFFFFFFFFFFFF1CE7EB5A718CFFFF06
:102F9000FFFFBEF77DEFFFFFFFFFFFFFFFFFFFFF1C
:102FA000FFFFFFFFFFFFDFFF5DEF9AD6DBDEFFFFD6
:102FB000FFFFFFFFFFFF9EF718C62842284214A517
:102FC000FBDEDFFFFFFFFFFFFFFFFFFF3CE7C7392F
:102FD000F7BDFFFFFFFFFFFFFBDE0C630C638E738B
:102FE0006D6B2000EF7B3CE79EF7FFFFDFFF7DEF7F
:102FF0007DEF4D6B8A52DFFFFFFFFFFFFFFFFFFFFB
:10300000FFFFFFFFFFFFFFFFB6B575AD14A51CE77F
:10301000518C00003CE7718CFFFFFFFFFFFFFFFFBB
:10302000FFFFFFFFFFFFBEF7EB5A000055ADFFFFAC
:10303000FFFFFFFFFFFFFFFFFFFFFFFFFFFF5DEF52
:10304000B6B555ADDBDEFFFFFFFFDFFFBEF7FFFFCD
:10305000FFFFFFFFFFFFFFFFFFFF3CE76D6B3084CB
:103060009AD6DBDEDFFF9EF7FFFFFFFFFBDE610886
:10307000C73918C6FFFFFFFF9EF79EF75DEF7DEF94
:103080009EF7518C9AD69AD6CB5A79CE75ADE73940
:10309000B294E7390000EF7BDBDEFFFFFFFFFFFFAD
:1030A000FFFFFFFFFFFFFFFFFFFF3CE7FFFFFFFF0B
:1030B0004D6B00007DEFFFFFFFFFFFFFFFFFFFFFF6
:1030C000FFFFFFFF7DEFEB5A00006D6BDFFFFFFF9F
:1030D000FFFFFFFFFFFFFFFFFFFFFFFFFFFF18C620
:1030E000EB5A6108A2109AD6FFFFFFFFFFFFFFFF18
:1030F000FFFFFFFFFFFFFFFFFFFFFFFFFFFF9EF749
:103100003CE7DFFFFFFFF7BD75ADFFFFFBDE000013
:1031100000000C63BEF7EB5AA631F39C75AD96B573
:1031200018C6DBDEFFFFFFFFFFFFDFFFDBDE1CE774
:10313000FFFFB6B5D39CBAD675ADD7BD7DEFFFFF07
:10314000FFFFFFFF5DEF34A5EB5A0000DBDE1084CC
:10315000000000005DEFFFFF9EF7BEF77DEFFFFF71
:10316000FFFF9EF7518C000028427DEFFFFFFFFF1D
:10317000FFFFFFFFFFFFFFFFFFFFFFFFFFFFFFFF5F
:10318000FFFF30840000494AFFFFFFFFFFFFFFFF02
:10319000FFFFFFFFFFFFFFFFFFFFFFFFFFFFFFFF3F
:1031A00018C6BAD6FFFFF7BDCB5ADBDEBEF72C63DD
:1031B000000055AD9EF78E733084AE7300000000A2
:1031C00000002421EB5A6D6B8E73518CFFFFFFFFC3
:1031D000FFFFFFFFFFFFFFFFFFFF96B59EF77DEFAD
:1031E0009AD614A5EF7B718C8A52C318F7BD0000E4
:1031F0002842518CFFFFFFFF79CE18C6BAD6FFFFD9
:10320000FFFF14A54108410814A5FFFF14A5DBDE4C
:10321000FFFFFFFFFFFFFFFFFFFFFFFFFFFFFFFFBE
:10322000FFFFBEF78210410818C6FFFFFFFFFFFF38
:10323000FFFFFFFFFFFFFFFFFFFFFFFFFFFFFFFF9E
:103240009AD638C6FFFFD39CC7399AD6FFFF75AD13
:103250000000B6B5FFFFEF7B14A5FFFF18C6B6B59B
:1032600055ADF39CF39C6529000041082842284293
:10327000A631C739694A30849EF7FFFFDFFF7DEF33
:103280009EF7BAD6FBDEFFFFF39CF39CBEF78E736E
:103290001084FFFFFFFFDFFF38C65DEFDFFFFFFF9A
:1032A0001CE7452965291CE7BEF775AD0000C73945
:1032B0003CE7FFFFDFFF1CE7518CEB5ABAD6FFFF5C
:1032C000FFFFFFFFC318200065291CE7FFFFFFFF7A
:1032D000FFFFFFFF7DEFBAD6FFFFFFFFDFFF3CE7F9
:1032E000FFFFF7BD9AD6EB5A1084FFFF3CE7C739C2
:1032F00008421CE7FFFF1CE7FBDEDFFF5DEF79CE36
:10330000518CAA527DEF79CE75ADF7BDDBDE55ADA0
:1033100086318631652986312421200020008631BE
:1033200018C6FBDEDBDE9AD659CEFFFFFFFFCB5A75
:10333000AE73FFFFFFFFDFFF38C6DBDEFFFFDFFFFF
:103340002C63EB5A9EF7FFFFFFFFB6B52421000068
:10335000718CB6B5D7BDEF7B20000000452955AD77
:1033600018C634A5EF7B1084000055ADFFFFFFFFAA
:10337000FFFF9EF718C6D39C9AD6FFFFFFFFFFFF03
:10338000FFFFBAD675AD518CBEF7FFFF718C5DEFB4
:103390005DEF9EF71CE7FFFF9EF79EF7FFFFFFFF25
:1033A000FFFFDFFF9EF734A5CF7B14A57DEFB6B5F9
:1033B0009294929418C6FFFFB6B52C632C63CB5A37
:1033C000652900000000000000006D6BB294000051
:1033D000518CFFFFFFFFFFFFDBDED7BD96B5EF7B14
:1033E0008E73BEF7FFFFFFFFFFFFFFFFBAD6929479
:1033F00055ADAE73718CAE73C73908420000000042
:103400000421F39CFFFF9EF765296529FBDEFFFF82
:10341000FFFF7DEFFBDE96B5D7BD9EF7FFFFFFFFF9
:10342000FFFFFFFFD7BD9294FFFFDBDE8631FFFF7A
:103430009EF7B29475ADFFFFFFFFFFFFFFFFBEF7E2
:103440007DEFFFFFFFFFFFFFFFFFFFFF3CE714A53E
:10345000EF7BEF7BB6B5BEF7D39CCF7B10845DEFDF
:103460001CE79294B2949294929408420000000057
:1034700065292C63FFFFFFFF5DEF59CEEF7B4529E8
:1034800096B5FFFFFFFFFFFFFFFFFFFFFFFFFFFFFF
:10349000BEF738C692944D6B34A51CE7B2940C630A
:1034A000D7BDFFFFFFFFFFFF9AD6E739518C3CE7FE
:1034B000FFFFFFFFFFFF79CE59CEDBDEBEF7BAD6A6
:1034C0005DEFFFFF3CE779CEFFFF9EF7308434A528
:1034D000FBDE9AD69EF7BEF7BAD6BAD6FBDEDFFF82
:1034E000BEF73CE7DFFFFFFFFFFFFFFFFFFFFFFF30
:1034F000FFFFFFFFFFFFFFFF18C655AD55AD718CF5
:10350000EB5A6D6BF39CFFFFFFFF5DEFD39C08420E
:10351000D7BD55ADFFFFFFFF3CE779CEF7BD518C1E
:103520005DEFFFFFDFFFFFFFFFFFFFFFFFFFFFFF7D
:10353000BEF7DBDEB6B5D39CDBDEFFFFFFFF1CE78B
:10354000FFFFFFFFFFFFFFFFFFFF518CEB5AFBDE8A
:10355000FFFFFFFFFFFF18C675AD59CE9EF79AD645
:103560005DEFFFFFFFFFFFFF9EF7FFFFBEF7D7BD39
:1035700014A53CE7FFFFFFFF5DEF9AD618C638C6DB
:10358000DFFFDFFFBEF7FFFFFFFFFFFFFFFFFFFFD4
:10359000DFFFDFFFDFFF7DEFFFFFFFFFFFFF9EF796
:1035A000DBDE18C60842694A8A529AD65DEF0842A5
:1035B0007DEFFFFFFFFFFFFF3CE759CEBEF77DEF3A
:1035C000FFFFBEF7718CDBDEFFFFFFFFFFFFFFFF9A
:1035D000FBDE38C63CE7FFFFFFFFFFFFFFFFFFFFFB
:1035E000FFFFFFFFFFFFFFFFFFFFFFFFD39C18C69A
:1035F0007DEFDBDEFBDE79CED7BD18C6DFFFFFFF38
:10360000FFFFFFFFFFFF7DEF79CEDFFFFFFF14A578
:10361000042179CEFFFFDFFF7DEFFFFFDBDE75AD1D
:10362000BEF7FFFF5DEFFFFFFFFF1CE71CE79EF704
:103630007DEFBEF7BEF79AD69EF7BEF7FFFFFFFFFE
:10364000FFFFFFFFFFFFFFFFFFFFFFFFDBDE0421A8
:10365000B6B5BEF73CE7FFFF3CE738C6DFFFFFFF2C
:10366000BEF714A54108EB5AFFFFFFFFFFFFFFFF66
:1036700034A5D39C1CE759CE9EF7FFFFFFFFFFFF49
:10368000FFFFFFFFFFFFFFFFFFFFFFFF5DEFB6B58F
:10369000DBDEBAD61CE71CE759CE79CEDFFFFFFF91
:1036A000FFFFFFFFFFFFBEF7BEF79EF7FFFFFBDE4A
:1036B000F7BDFFFFFFFF9EF775AD1CE79EF7FFFF0D
:1036C0009EF7BEF7FFFFFBDE9EF7FBDE38C67DEF01
:1036D000FFFFFFFFFFFFFFFF9EF7BEF7FFFFFFFFAC
:1036E000FFFFFFFFFFFF1CE779CEFFFF34A504219A
:1036F000D7BDFFFF9EF7FFFF3CE73CE7FFFFFFFF63
:103700005DEFCF7B45298210718C9EF7BEF7FFFFDE
:10371000BEF77DEF9EF73CE7DFFFFFFFFFFFFFFFF8
:10372000FFFFFFFFFFFFFFFFFFFFFFFFFFFF79CE60
:103730003CE7FFFFFFFFFFFF1CE759CEFBDEFFFF6B
:10374000FFFFFFFFFFFFFFFFFFFFAE7375AD0842F6
:1037500034A5FFFFFFFFFFFFBAD63CE7BEF7FFFF30
:103760009AD638C6DBDEDBDE79CE3CE7DFFFFFFF33
:103770001CE75DEFFFFFDFFFDFFFDFFFF7BDEF7B44
:10378000EF7B518C3084CB5AF39CFFFF59CE694AB2
:1037900079CEFFFFFFFFFFFFDBDE3CE7FFFFFFFF10
:1037A0007DEFB6B59EF796B58210410859CE1CE75D
:1037B000BAD67DEFFFFFFFFFDFFFFFFFFFFFFFFF39
:1037C000FFFFFFFFFFFFFFFF9EF7FFFFFFFF7DEF04
:1037D0003CE75DEF9AD6FBDE3CE738C659CEFFFFEB
:1037E000FFFFFFFFFFFFFFFFFFFF494A4108000007
:1037F000AE73FFFFFFFFBEF7FFFFFFFFFFFFFFFFFF
:10380000FFFFDFFFDFFFFFFF59CEDBDEFFFFDFFF44
:1038100034A575ADFFFF59CEB6B5BAD62C630C638F
:10382000CF7B96B518C696B57DEFFFFFFFFFDFFF94
:10383000FFFFFFFFFFFFFFFFBAD6F39C3CE7FFFF50
:10384000FFFFFFFFFFFFFFFF96B54529B6B57DEFF0
:10385000B294D7BDEF7BB294B6B58E733084D39C4F
:1038600075AD9EF779CEF39C34A57DEFDFFF9AD638
:103870001CE7FFFFDFFFDBDE38C638C655ADFFFFB4
:10388000FFFFFFFFBEF7FFFFFFFF694A00000000D8
:10389000CF7BFFFFFFFF3CE7F7BD9AD6DFFF79CE76
:1038A000DBDE7DEFDFFFBEF79EF79EF77DEFFFFFCC
:1038B0007DEF1CE7FFFF3CE7DBDEFFFFFFFFFFFFC5
:1038C000FFFFFFFFFFFFDFFF9EF7FFFFFFFFFFFF91
:1038D000FFFFFFFFFFFFFFFFDFFF3084F7BDDFFFCC
:1038E000FBDEDFFFFFFFFFFFFFFFFBDE1084EB5A75
:1038F00096B5BEF7694AB6B5FBDEB294518CEB5A69
:103900000000494AC31800004108CF7BAE7392946F
:10391000BEF7FFFFFFFFFFFF5DEF9AD618C6FFFF60
:10392000FFFFFFFF55ADDFFFFFFF8A5200000000E1
:103930009294D7BD7DEFFFFFF7BDB6B5BEF779CE48
:10394000FBDE9EF79EF779CE9EF7FFFF5DEF7DEFE2
:10395000FFFF7DEFDFFFFFFFFFFFFFFF7DEFFFFFBB
:10396000FFFF5DEFFFFFDFFF7DEFFFFF1CE7518CE7
:10397000DFFF7DEFEB5A9EF7FFFF59CE30849AD6DA
:1039800075ADDBDEFFFFFFFFFFFFFFFF7DEF108464
:103990002421694AE7392C63AE732C6334A5CB5AD2
:1039A00004218210042138C6D7BD4D6B8A5259CEEE
:1039B000FFFFFFFFDFFFDFFFFFFF9EF7F7BDDFFF2A
:1039C000FFFFDBDEEF7BDFFFBEF7494A0000084266
:1039D0007DEF494AC739FFFFFFFFFFFFBEF71CE736
:1039E0003CE77DEF7DEF79CE92947DEF9EF796B523
:1039F000BEF71CE759CEFFFFDFFFBAD6BAD69AD67C
:103A00009EF7BAD6D7BDBEF7DFFF7DEF38C6CB5ADB
:103A1000EF7B8A5279CEF7BDFFFFFFFF4D6BD39C42
:103A2000D7BDF7BD9EF7FFFFFFFFFFFFFFFFFFFFC3
:103A30005DEF1CE71CE7B294CF7BCF7BF7BDBAD616
:103A40009EF77DEF9EF7FFFFFFFFDBDE718CDFFF50
:103A5000FFFFFFFF1CE79AD69AD6BEF71CE7FFFFD1
:103A6000FFFF929414A5FFFF518C2000410838C637
:103A7000FFFF28422000BEF7FFFFFFFF5DEF9EF72C
:103A8000718C694A79CEFBDE59CEFFFF7DEFEF7B6B
:103A900038C679CE38C6FFFFFBDE518C34A5718C59
:103AA000F7BDBEF7AE7396B57DEF5DEFFFFFDFFFAD
:103AB0007DEF79CEFFFFDFFF9EF7FFFF18C6A6312F
:103AC00079CEDBDE1CE7FFFFFFFFFFFFFFFFFFFFFD
:103AD000FFFFFFFFFFFFFFFFFFFFFFFFFFFFFFFFF6
:103AE000FFFFFFFFFFFFFFFFFFFFFFFF38C6DFFF06
:103AF000FFFFFFFFFFFF9EF77DEFFFFFFFFFFFFFD1
:103B0000DBDEAA521CE7FFFF30840000C739FFFF4D
:103B10003CE76529000059CEFFFFBEF7DFFF5DEFF0
:103B20001CE759CE38C69AD61CE7FFFF9EF779CE20
:103B3000FFFF55ADAA52DBDEFFFF7DEFFFFF9EF7D3
:103B4000DBDEFFFF518C2C63BAD659CEFBDEDBDE09
:103B5000FFFFFFFFFFFFFFFFFBDEBEF79EF7CB5A25
:103B6000718C1CE71CE7FFFF9EF738C61CE77DEF52
:103B700055AD79CE1CE7BAD6FFFF5DEFDFFFFFFF43
:103B8000FFFFFFFFFFFFFFFFFFFF3CE7BAD6FFFF8E
:103B9000FFFFFFFFFFFFFFFF9EF79EF7FFFF3CE7E2
:103BA000694A518CFFFF9AD686310000B6B5FFFFF7
:103BB00034A50000242179CEFFFF18C659CEDBDEE4
:103BC000FFFFFFFFFFFFFFFFFFFFFFFFDFFF18C645
:103BD000F7BDF7BD8E7338C6FFFF7DEFFFFF7DEFAA
:103BE00038C6BEF79EF714A59294DBDE3CE79AD662
:103BF00034A5EB5A2C63DFFFBAD6F39CFFFF59CEF6
:103C0000452955ADBEF7FFFF3CE7D7BD79CEB2944D
:103C1000494A6D6B4D6B30843CE7BEF7FFFF7DEF8B
:103C2000FBDEFFFFFFFFFFFFFFFF18C696B5FFFF9C
:103C3000FFFFFFFFDFFFFFFFBEF7DFFFFFFFD7BD87
:103C40009294FFFF3CE7C739000024219EF7FFFF55
:103C50009294A21061082C63DFFF7DEFDBDE14A5D8
:103C6000FFFFD7BD084214A5FFFF1084AA5275AD0F
:103C70009AD6FBDE1CE738C6AA528E736D6BFFFF27
:103C800096B5AE731CE79EF7EF7BB294BEF7FFFFCD
:103C9000FBDED7BD694AB294DFFF55ADFBDEFFFF07
:103CA000AA52AA52DFFFFFFFFFFF3CE7BEF71CE767
:103CB000B6B508424108AA5234A579CE18C696B5C1
:103CC000F7BDBEF7BEF79EF7FBDEBEF7DFFFFFFFD7
:103CD000FFFFDBDE79CEFFFFFFFFFFFF59CE75ADA3
:103CE000FFFFFBDEE7390000E318F7BDFFFF9AD6C0
:103CF000694A284245290421FBDEFFFFFFFF9EF7AA
:103D0000FBDEDBDE96B5CB5A96B5694AEB5AB29428
:103D10007DEFFFFFFFFFF7BD8631B294518CDFFFCF
:103D2000BEF78E730421B2941CE7D7BDF7BDDFFF49
:103D3000FFFFFFFF9AD6CF7BFFFFFFFFF39CFFFF44
:103D400059CE8210DBDEFFFFFFFFFFFFDFFF59CE02
:103D5000DBDEE7390000E739B6B5B6B5929475AD4C
:103D60003CE7FFFF5DEF9AD696B59EF7FFFFFFFF9A
:103D7000FFFF5DEF1CE7FFFFFFFF5DEF14A5FFFFF7
:103D80009AD604210000652938C6FFFFFFFFF39C87
:103D9000EB5A34A58A522842BEF7FFFFFFFFFFFF10
:103DA0002C63518CFFFF96B5F39C9AD67DEFD7BD5F
:103DB000BEF7FFFFFFFF1CE7DFFFFFFFFFFFFFFF77
:103DC000FFFFFFFF55AD96B5DFFF5DEFFFFF1CE77F
:103DD000BAD6FFFFBAD630849EF7FFFFB6B51CE710
:103DE000FFFFF7BD518CDFFFFFFFFFFFFFFF7DEF00
:103DF0009EF738C6518CD7BD3CE77DEF59CE5DEFBD
:103E0000BEF7FFFFDFFF59CEFBDEDFFFFFFFFFFF47
:103E1000FFFFFFFFFFFFFFFF7DEF59CEDFFF9AD6C9
:103E200024214108E318DBDEFFFFFFFFBAD68E73C3
:103E30002C63AE73652979CEFFFFFFFF7DEF75AD73
:103E4000F7BDBAD6FFFFFFFFFFFFFFFFFFFFFFFF3A
:103E5000FFFFFFFF3CE7FFFFFFFFFFFFFFFF18C66D
:103E6000D7BD79CEBEF75DEFDFFF3CE73CE79EF7BD
:103E70007DEFFFFFFFFFFBDE308479CE9EF7B2942B
:103E80003CE7FFFFCF7B79CEFFFFFFFFFFFFFFFF88
:103E9000FFFFFFFFFFFFFFFFFFFFFFFFFFFFFFFF32
:103EA000FFFFFFFFFFFFDFFFFFFFFFFFFFFFFFFF42
:103EB000FFFFFFFFFFFF7DEF5DEFFFFF9AD6A21030
:103EC0006108EF7BBAD6FFFFFFFFFFFF518C494A25
:103ED0006108C318A631B294FFFFFFFFDFFF9AD637
:103EE0009EF7FFFFBEF73CE759CE3CE71CE755AD18
:103EF000518C34A56D6BEB5AEB5A9AD6FFFF75AD1A
:103F0000EB5A14A5F7BD1CE7BEF7FFFF0C63CF7B90
:103F1000BEF77DEFDBDEFFFFF7BD0C63FFFF9AD638
:103F2000B6B5FFFF9AD6F7BDFFFFFFFFFFFFFFFF0C
:103F3000FFFFFFFFFFFFFFFFFFFFFFFFFFFFFFFF91
:103F4000FFFFFFFFFFFFFFFFFFFFBEF7FFFFFFFFCA
:103F5000FFFF5DEF18C6FBDE7DEFF7BD24210000FB
:103F6000E7390C637DEF5DEFB6B579CE55AD4529E8
:103F7000821059CEDBDE2421B2943CE7DFFFFFFF45
:103F800079CE5DEFDBDE518C18C6FFFFDFFFBEF799
:103F90001CE77DEF7DEFDBDE518C59CEDFFF3CE788
:103FA00059CE59CEDFFF1CE7B29455AD96B5EF7BE5
:103FB00038C6CF7BA21079CEFFFFAE73AE73BAD6F0
:103FC0009EF7FFFF7DEFD7BDFFFFFFFFFFFFFFFF66
:103FD000FFFFFFFFFFFFFFFFFFFFFFFFFFFFFFFFF1
:103FE000FFFFFFFFFFFFFFFFFFFFFBDE1CE7B6B594
:103FF000B6B514A5CF7BD39C4D6B0000718CB294E9
:1040000079CEFFFFFFFFDBDE0C63B6B5CF7B8210FE
:10401000F7BDFBDE2C63821010843CE7EF7BB6B566
:10402000BAD67DEFFFFFFFFFFFFFFFFFFFFF79CE57
:10403000B2945DEFFFFFFBDEF39CF39CBEF7D39CD5
:1040400096B5FFFFFFFF59CE518C4D6BDFFF9EF7FA
:1040500014A514A5518CB294FFFFBAD6694AFBDEB1
:10406000FFFFFFFF9AD6610855ADFFFFFFFFFFFF7F
:10407000FFFFFFFFFFFFFFFFFFFFFFFFFFFFFFFF50
:10408000FFFFFFFFFFFF1CE7AE73CF7B3084308460
:1040900030848E7330848E73410828425DEF59CE90
:1040A000DFFFFFFFBEF7B6B51CE734A5A63118C683
:1040B000FFFFCB5A000018C6FFFF7DEF0C63A21074
:1040C000F7BDFFFF7DEF92945DEFDFFFFFFF18C6A6
:1040D0004529518CDFFF1CE7694A0000B29459CE94
:1040E000718CEB5A0C6379CEDBDEBEF792949AD6D4
:1040F000B6B57DEF9EF714A5B6B5FFFFEF7B59CEA1
:10410000FFFFFFFF308400002421BAD6FFFFFFFF2E
:10411000FFFFFFFFFFFFFFFFFFFFFFFFFFFFFFFFAF
:10412000FFFF3CE792940842E7390C6392946D6B71
:104130002C63CB5AF7BD7DEFBAD67DEF18C63CE7AE
:10414000FFFF7DEF10846D6BB6B5B2949AD6FFFF7A
:10415000D7BD00002421FFFFFFFF3CE73CE755AD42
:104160000C63652996B5EB5A0842AE73BEF7FFFFA4
:1041700014A5D7BDFFFFFFFF3CE7EB5A4D6B1CE7D3
:10418000BEF755ADC318863138C6DFFFBAD69EF7E5
:1041900096B5084255AD75ADB2949EF7FBDEF39C23
:1041A000FFFFFFFF8A5200000000A6313CE77DEFD1
:1041B00075AD79CEBEF7FFFFFFFF3CE7D7BDB6B5C3
:1041C000B2940421C318694AEB5AEB5ACF7BB294DC
:1041D000CF7B8E73BAD6FFFFFFFFFFFFFFFFFFFF0E
:1041E000BEF734A5B29475ADF39CDFFFFFFF9EF7D9
:1041F000AA52242138C6FFFFFFFFBEF7FFFFFFFFD3
:10420000FFFF518CAE739EF7BEF7DBDEBEF7FFFFFC
:10421000FFFFFFFF1CE759CEFFFFFFFFAE73E31860
:1042200096B5FFFF3CE7CB5AAE733CE7FFFF1CE7B8
:104230001CE779CEFFFFFFFFB29496B5FFFFFFFFAB
:10424000FFFFFFFFE318000024216108BAD61CE736
:10425000C7396108694AEF7BAE7386310000000000
:104260006108694A1084D39C929455AD3CE71CE7E1
:10427000F39CFBDEFFFFFFFF9EF79EF77DEFF7BD90
:104280007DEF79CEBEF73CE7BAD6BEF77DEF7DEF86
:10429000AE73B6B5FFFF9EF7DFFF8E73EF7BFFFFB8
:1042A000FBDE7DEFFFFF59CEBAD6FFFF5DEF0C635B
:1042B000D7BDFFFFD7BD8A52FFFF34A51CE755AD20
:1042C000BAD659CEBEF7FFFF38C69AD6FFFFDFFF3A
:1042D0009EF7FFFFFFFFFFFFFBDE3CE7FFFFDFFF77
:1042E000FFFFD7BDE31800006D6B86318E73FFFFB3
:1042F0005DEFEB5A8631863165298A526D6B518CA0
:1043000034A5F7BDF7BD79CEBEF7FFFFFFFF9AD604
:1043100075ADFFFFBEF779CEFFFFFFFFFBDEAE738B
:1043200059CE718C75AD7DEF7DEFBAD60C63DFFF92
:104330005DEF9EF7FBDEDBDEFFFFC739494AFFFF7B
:104340009294B6B5FFFF38C6C739EB5A5DEF14A596
:1043500059CED7BDFBDE9AD6FFFFB6B5BAD6FFFF62
:10436000FFFFDBDE9EF7BEF7FFFFFFFFFFFF59CE2B
:10437000EB5A518C9EF73CE73CE710842842AE7321
:104380005DEFAE73494AA210CB5AE318A210FFFFAB
:10439000FFFFF7BDD7BD59CE18C679CE9AD6FBDE42
:1043A000BAD6BAD6BEF7FFFFFFFF75AD30843084B2
:1043B0008E73FBDEFFFF0C631084FFFFDBDE8A528F
:1043C00034A5F7BDF7BD3CE77DEFCB5A86317DEFD5
:1043D000BEF7FFFF9AD6BEF7DFFF494A75ADFFFF74
:1043E000FBDE9AD68A52AA52A63165299AD6FFFFD9
:1043F000FFFF3CE7929438C69EF7FFFFBEF77DEFC4
:104400005DEFFBDE518CCB5AA63175AD7DEFFFFF22
:1044100096B5C739C739A631CB5A8E731084DBDE07
:10442000BEF71084DBDE9294494AC318C318FFFF1D
:10443000FFFFB6B514A518C679CED7BD79CE9EF7C5
:104440005DEFFFFFFFFFFFFFFFFF9EF7FFFFFFFF97
:10445000FFFFFFFFFFFF10849294FFFF718C34A5D4
:104460007DEF79CE3CE7DFFFEF7B00009AD6BEF709
:10447000FFFF3CE7FBDEFFFF96B58210DBDEFFFFB0
:104480009AD6284208421084F7BD9EF7A63186319D
:104490001CE7FFFFB6B5518C6D6BDBDEFBDE242124
:1044A000EB5ACF7B55AD9EF7F39CA210242196B515
:1044B0005DEFBEF76529D39CFBDEBAD69EF7FFFF02
:1044C0005DEFF7BDFFFF59CE2842C318E318FFFF89
:1044D000FFFFFBDEB294F7BD7DEFBAD63CE7FFFFEE
:1044E000FFFFFFFFFFFF9EF7DFFF55ADD7BD18C6EB
:1044F0003084108455AD75AD7DEFB6B53084FBDEEC
:104500001CE779CE9EF7BEF7EB5A8E73BEF73CE7F9
:10451000FFFFFFFFFFFFFFFF518C2000BAD6FFFF18
:10452000CF7B00005DEFFFFF38C6AA520000A2104B
:104530000842FBDEFFFFB294494AD7BDDFFFCF7BC5
:10454000AE73518C75ADFFFFDFFFF7BD4D6B2000E3
:10455000B294FFFFEF7B3CE7B6B575AD79CEFFFFB8
:104560001CE759CEFFFFF7BD2842C318A2101CE775
:10457000FFFFFFFFBEF7BEF7FFFFFFFFFFFFFFFFDD
:10458000FFFFFFFF1CE7E739E73900006108A210D1
:1045900000000000042159CED39CC739B29418C63C
:1045A000D7BD96B596B5DFFF1CE7DFFF9EF738C68F
:1045B0007DEF7DEF3CE7FFFFCF7B41088E73FFFF70
:1045C000EF7B41081CE7FFFF3CE714A555AD59CE32
:1045D00096B52C6338C6FFFF7DEF5DEFFFFFFFFF51
:1045E000FFFF38C604212C63084279CEFFFF38C68E
:1045F000FBDEDFFF080C20173CE781BD81BD81BDDC
:1046000081BD81FF3CE7818181BD81BD81BD81FF8D
:104610003CE78181818181BD81BD81FF3CE7818152
:104620008181818181BD81FF3CE78181818181819F
:10463000818181FFFFFF003F3F000F0F0003030058
:104640000000003F3F000F0F0003030000000000C8
:1046500000000F0F00030300000000000000000036
:104660000003030000001010101010543810000058
:10467000000010385410101010100000000000004E
:1046800010087C08100000000000000010207C20B2
:10469000100000000000003C0C14244480000000C6
:1046A000000000804424140C3C00000000003C4248
:1046B000A581A599423C000000003C7EDBFFFFDBAA
:1046C000663C000000003C42A58199A5423C0000E8
:1046D00000003C7EDBFFFFE75A3C000000003C424C
:1046E00081818181423C000000003C7EFFFFFFFF92
:1046F0007E3C00000000FF818181818181FF0000FC
:104700000000FFFFFFFFFFFFFFFF00001CE79EF719
:104710009EF79EF79EF79EF79EF79EF77EF79EF711
:104720009EF79DF79DEF9EEF7EF79EF77EF79EEF3B
:104730009EF79EF77EF79DEF7EF79DF77EF77EF75B
:104740009EF79DEF9EF77EF77EF79EEF9EEF9DF71B
:104750007EF79EF79DEF9EF79DEF9EF79EF79EF7E3
:104760009EF79EF79EF79EF79EF79EF79EF71CE733
:10477000BEF7FFFFFFFFFFFFFFFFFFFFFFFFFFFF92
:10478000FFFFFFFFFFFFFFFFFFFFFFFFFFFFFFFF39
:10479000FFFFFFFFFFFFFFFFFFFFFFFFBFF75DE72B
:1047A0001DD73DDF9DEFFFFFFFFFFFFFFFFFFFFF77
:1047B000FFFFFFFFFFFFFFFFFFFFFFFFFFFFFFFF09
:1047C000FFFFFFFFFFFFFFFFFFFFFFFFFFFFFFFFF9
:1047D000FFFFBEF79EF7FFFFFFFFFFFFFFFFFFFF9B
:1047E000FFFFFFFFFFFFFFFFFFFFFFFFFFFFFFFFD9
:1047F000FFFFFFFFFFFFFFFFFFFFFFFF5DE7999553
:10480000F7537733DA3BB83BB743B77C9BC6FFFF20
:10481000FFFFFFFFFFFFFFFFFFFFFFFFFFFFFFFFA8
:10482000FFFFFFFFFFFFFFFFFFFFFFFFFFFFFFFF98
:10483000FFFFFFFFFFFF9EF79EF7FFFFFFFFFFFF5A
:10484000FFFFFFFFFFFFFFFFFFFFFFFFFFFFFFFF78
:10485000FFFFDFFFBCD6DAA57A8D7A855A85D97439
:10486000D743352BD51AD61A3343333BD512F5220D
:10487000763BB8749A9DDBA5FBA51AB6FCCEDFF794
:10488000FFFFFFFFFFFFFFFFFFFFFFFFFFFFFFFF38
:10489000FFFFFFFFFFFFFFFFFFFF9EF79EF7FFFFFA
:1048A000FFFFFFFFFFFFFFFFFFFFFFFFFFFFFFFF18
:1048B000FFFFFFFFFFFF989DD453D42218139923C5
:1048C00079235A13591BD622B42AB2634883C86A83
:1048D0007353F51A181B3923591B5B4C3944F712D3
:1048E000553B5574DCD6FFFFFFFFFFFFFFFFFFFFC7
:1048F000FFFFFFFFFFFFFFFFFFFFFFFFFFFF9EF731
:104900009EF7FFFFFFFFFFFFFFFFFFFFFFFFFFFF20
:10491000FFFFFFFFFFFFFFFF9EEFF45B7543754353
:10492000562B792BBA23591B381BB51AD03A8E6BEC
:10493000AD7B2B634E53B122381B7A1B9B1BBD4CA6
:104940005B547633753B133B566CFFFFFFFFFFFF55
:10495000FFFFFFFFFFFFFFFFFFFFFFFFFFFFFFFF67
:10496000FFFF9EF79EF7FFFFFFFFFFFFFFFFFFFF29
:10497000FFFFFFFFFFFFFFFFFFFFFFFF9BC6973B10
:10498000381B7633356CD5533823D61A931A5222F6
:104990006C3AAD42146493532A324E2A9322B522C4
:1049A000F71AB93B3664D35BF52AD51A343B5DE779
:1049B000FFFFFFFFFFFFFFFFFFFFFFFFFFFFFFFF07
:1049C000FFFFFFFFFFFF9EF77DEFFFFFFFFFFFFFF2
:1049D000FFFFFFFFFFFFFFFFFFFFFFFFFFFFFFFFE7
:1049E0009CC6B73B37239743546CD35BF52AB4225C
:1049F0009222524B8F630E53B57C947C0D532F53F0
:104A0000B1327222D4223533D45BB34BD422172374
:104A1000F32A9BCEFFFFFFFFFFFFFFFFFFFFFFFF1C
:104A2000FFFFFFFFFFFFFFFFFFFF9EF79EF7FFFF68
:104A3000FFFFFFFFFFFFFFFFFFFFFFFFFFFFFFFF86
:104A4000FFFFFFFF7DE7365C7833F7535733592B71
:104A5000B933194C1954B83B973B572B9964595C9F
:104A6000362BB83B194C795C983B582B1623D32A2C
:104A7000143B1623D64B9EEFFFFFFFFFFFFFFFFF08
:104A8000FFFFFFFFFFFFFFFFFFFFFFFFFFFF9EF79F
:104A90009EF7FFFFFFFFFFFFFFFFFFFFFFFFFFFF8F
:104AA000FFFFFFFFFFFFFFFFDEFF1885753BF7539A
:104AB000371B5A1BBB1B1D65FE8DDB237A133A1374
:104AC0003C75DB64FA125A239C545EA6DB2B591BFF
:104AD000181BB4221233B51A3785FFFFFFFFFFFF03
:104AE000FFFFFFFFFFFFFFFFFFFFFFFFFFFFFFFFD6
:104AF000FFFF9EF79EF7FFFFFFFFFFFFFFFFFFFF98
:104B0000FFFFFFFFFFFFFFFFFFFFFFFFFFFFBEF7FE
:104B10007BBE3A85792B7A1B9C1B7E7DBEBEDB2B30
:104B20007A133A1BBB647B545A1B5A139C4CFEC627
:104B30001B3C7A1B391BF622566CBAA59EEFFFFF71
:104B4000FFFFFFFFFFFFFFFFFFFFFFFFFFFFFFFF75
:104B5000FFFFFFFFFFFF9EF79EF7FFFFFFFFFFFF37
:104B6000FFFFFFFFFFFFFFFFFFFFFFFFFFFFFFFF55
:104B7000FFFFFFFFFFFFDCCE78337A23BB235C3CD3
:104B8000BC54DC239B1B7A23BB23BA2BBB23BC1B4B
:104B9000FC2B5B4CBB2B7A23381BD52ADBCEFFFFCB
:104BA000FFFFFFFFFFFFFFFFFFFFFFFFFFFFFFFF15
:104BB000FFFFFFFFFFFFFFFFFFFF9EF79EF7FFFFD7
:104BC000FFFFFFFFFFFFFFFFFFFFFFFFFFFFFFFFF5
:104BD000FFFFFFFFFFFFFFFFFFFF9EF7B96C782B82
:104BE000591B5A135B137A13791B792B792B982352
:104BF000992B99237A135A13591318133723D77CF7
:104C0000BEF7FFFFFFFFFFFFFFFFFFFFFFFFFFFFFD
:104C1000FFFFFFFFFFFFFFFFFFFFFFFFFFFF9EF70D
:104C20009EF7FFFFFFFFFFFFFFFFFFFFFFFFFFFFFD
:104C3000FFFFFFFFFFFFFFFFFFFFFFFFFFFFFFFF84
:104C4000FFFFFDCEFBA5BC8DBC8DFC9517856B329F
:104C50008B4A2A3AEE421BAEFC9D1B9EFC9D1BAE6E
:104C60003DDFFFFFFFFFFFFFFFFFFFFFFFFFFFFF36
:104C7000FFFFFFFFFFFFFFFFFFFFFFFFFFFFFFFF44
:104C8000FFFF9EF79EF7FFFFFFFFFFFFFFFFFFFF06
:104C9000FFFFFFFFFFFFFFFFFFFFFFFFFFFFFFFF24
:104CA000FFFFFFFFFFFFFFFFFFFFFFFF5BEF94B57D
:104CB0004B6BE54188622752E6410E8C94BDDDF7CF
:104CC000FFFFFFFFFFFFFFFFFFFFFFFFFFFFFFFFF4
:104CD000FFFFFFFFFFFFFFFFFFFFFFFFFFFFFFFFE4
:104CE000FFFFFFFFFFFF9EF79EF7FFFFFFFFFFFFA6
:104CF000FFFFFFFFFFFFFFFFFFFFFFFFFFFFFFFFC4
:104D0000FFFFFFFFFFFFFFFFFFFFFFFFFFFF99D642
:104D10008C73A952C639A639885A064A44290742D3
:104D2000884A0E849DF7FFFFFFFFFFFFFFFFFFFF95
:104D3000FFFFFFFFFFFFFFFFFFFFFFFFFFFFFFFF83
:104D4000FFFFFFFFFFFFFFFFFFFF9EF79EF7FFFF45
:104D5000FFFFFFFFFFFFFFFFFFFFFFFFFFFFFFFF63
:104D6000FFFFFFFFFFFFFFFFFFFFFFFFFFFFFFFF53
:104D7000FFFF11A5E8628952684A474A6852474ACC
:104D80002742484A2742474A38CEFFFFFFFFFFFF2E
:104D9000FFFFFFFFFFFFFFFFFFFFFFFFFFFFFFFF23
:104DA000FFFFFFFFFFFFFFFFFFFFFFFFFFFF9EF77C
:104DB0009EF7FFFFFFFFFFFFFFFFFFFFFFFFFFFF6C
:104DC000FFFFFFFFFFFFFFFFFFFFFFFFFFFFFFFFF3
:104DD000FFFFFFFFFFFFF1A4286B0863CB8391BDAA
:104DE00076D613CEAD9C496B8752465294B5FFFFE1
:104DF000FFFFFFFFFFFFFFFFFFFFFFFFFFFFFFFFC3
:104E0000FFFFFFFFFFFFFFFFFFFFFFFFFFFFFFFFB2
:104E1000FFFF9EF79EF7FFFFFFFFFFFFFFFFFFFF74
:104E2000FFFFFFFFFFFFFFFFFFFFFFFFFFFFFFFF92
:104E3000FFFFFFFFFFFFFFFFFFFFF0A4497B697348
:104E40000B9490BDB4E611D6ACAC897BC85A674AC6
:104E500032A5FFFFFFFFFFFFFFFFFFFFFFFFFFFF89
:104E6000FFFFFFFFFFFFFFFFFFFFFFFFFFFFFFFF52
:104E7000FFFFFFFFFFFF9EF79EF7FFFFFFFFFFFF14
:104E8000FFFFFFFFFFFFFFFFFFFFFFFFFFFFFFFF32
:104E9000FFFFFFFFFFFFFFFFFFFFFFFFFFFFCF9CB5
:104EA000487B697B2B8C0EB58EBD6EBDAC9C897B1F
:104EB000C75A6752F1A4FFFFFFFFFFFFFFFFFFFF8D
:104EC000FFFFFFFFFFFFFFFFFFFFFFFFFFFFFFFFF2
:104ED000FFFFFFFFFFFFFFFFFFFF9EF79EF7FFFFB4
:104EE000FFFFFFFFFFFFFFFFFFFFFFFFFFFFFFFFD2
:104EF000FFFFFFFFFFFFFFFFFFFFFFFFFFFFFFFFC2
:104F0000FFFF6E94697B8A830B8C4B9C2FB5CDA4DD
:104F1000C97B486B0863C75A4F8CFFFFFFFFFFFF39
:104F2000FFFFFFFFFFFFFFFFFFFFFFFFFFFFFFFF91
:104F3000FFFFFFFFFFFFFFFFFFFFFFFFFFFF9EF7EA
:104F40009EF7FFFFFFFFFFFFFFFFFFFFFFFFFFFFDA
:104F5000FFFFFFFFFFFFFFFFFFFFFFFFFFFFFFFF61
:104F6000FFFFFFFFFFFF4E948983EA8BCA83897B93
:104F7000EFA42C8CC862286B086BA75A2F84FFFF04
:104F8000FFFFFFFFFFFFFFFFFFFFFFFFFFFFFFFF31
:104F9000FFFFFFFFFFFFFFFFFFFFFFFFFFFFFFFF21
:104FA000FFFF9EF79EF7FFFFFFFFFFFFFFFFFFFFE3
:104FB000FFFFFFFFFFFFFFFFFFFFFFFFFFFFFFFF01
:104FC000FFFFFFFFFFFFFFFFFFFF8F9C8A83CA8B5E
:104FD000EA8BCA838CA46C9C087349732873086B92
:104FE00054ADFFFFFFFFFFFFFFFFFFFFFFFFFFFFCE
:104FF000FFFFFFFFFFFFFFFFFFFFFFFFFFFFFFFFC1
:10500000FFFFFFFFFFFF9EF79EF7FFFFFFFFFFFF82
:10501000FFFFFFFFFFFFFFFFFFFFFFFFFFFFFFFFA0
:10502000FFFFFFFFFFFFFFFFFFFFFFFFFFFFFADEB6
:105030000C8C6983A983CA83ACA44B94487308730E
:10504000E86253B5FFFFFFFFFFFFFFFFFFFFFFFF1A
:10505000FFFFFFFFFFFFFFFFFFFFFFFFFFFFFFFF60
:10506000FFFFFFFFFFFFFFFFFFFF9EF79EF7FFFF22
:10507000FFFFFFFFFFFFFFFFFFFFFFFFFFFFFFFF40
:10508000FFFFFFFFFFFFFFFFFFFFFFFFFFFFFFFF30
:10509000FFFF7CEF4D948A7BCA838DA44FB5AEACE5
:1050A0000B8C296BC8624E94BEF7FFFFFFFFFFFF1A
:1050B000FFFFFFFFFFFFFFFFFFFFFFFFFFFFFFFF00
:1050C000FFFFFFFFFFFFFFFFFFFFFFFFFFFF9EF759
:1050D0009EF7FFFFFFFFFFFFFFFFFFFFFFFFFFFF49
:1050E000FFFFFFFFFFFFFFFFFFFFFFFFFFFFFFFFD0
:1050F000FFFFFFFFFFFF78D6697B697BCA8BCDACD2
:10510000D1C550B58DA46A7BE8622A6BF7C5FFFF55
:10511000FFFFFFFFFFFFFFFFFFFFFFFFFFFFFFFF9F
:10512000FFFFFFFFFFFFFFFFFFFFFFFFFFFFFFFF8F
:10513000FFFF9EF79EF7FFFFFFFFFFFFFFFFFFFF51
:10514000FFFFFFFFFFFFFFFFFFFFFFFFFFFFFFFF6F
:10515000FFFFFFFFFFFFFFFFFADED0A4497B6A7B62
:105160008A83B2C554DE70BD0FB5CFAC49732A6BCC
:10517000EE8317C69DF7FFFFFFFFFFFFFFFFFFFF57
:10518000FFFFFFFFFFFFFFFFFFFFFFFFFFFFFFFF2F
:10519000FFFFFFFFFFFF9EF79EF7FFFFFFFFFFFFF1
:1051A000FFFFFFFFFFFFFFFFFFFFFFFFFFFFFFFF0F
:1051B000FFFFFFFFFFFFFFFF9DEF52ADCB838A7B19
:1051C000297B497BAA8391BDEEACEEAC0FB5CEAC8A
:1051D0006A73A85AE9622A6B0E8C3CE7FFFFFFFF57
:1051E000FFFFFFFFFFFFFFFFFFFFFFFFFFFFFFFFCF
:1051F000FFFFFFFFFFFFFFFFFFFF9EF79EF7FFFF91
:10520000FFFFFFFFFFFFFFFFFFFFFFFFFFFFFFFFAE
:10521000FFFFFFFFFFFFFFFFFFFFFFFF73B58A7B6D
:10522000CB836A730863086B09738DA48C9CCDAC27
:10523000EDACEEAC2973685AE9624A73086B74AD41
:10524000FFFFFFFFFFFFFFFFFFFFFFFFFFFFFFFF6E
:10525000FFFFFFFFFFFFFFFFFFFFFFFFFFFF9EF7C7
:105260009EF7FFFFFFFFFFFFFFFFFFFFFFFFFFFFB7
:10527000FFFFFFFFFFFFFFFFFFFFFFFFFFFFFFFF3E
:1052800052AD8A7B8B7B4A73286B096B2973EEAC1A
:10529000EEACCDACCDACEEAC6A73A85A0963296B09
:1052A000E86213A5FFFFFFFFFFFFFFFFFFFFFFFF08
:1052B000FFFFFFFFFFFFFFFFFFFFFFFFFFFFFFFFFE
:1052C000FFFF9EF79EF7FFFFFFFFFFFFFFFFFFFFC0
:1052D000FFFFFFFFFFFFFFFFFFFFFFFFFFFFFFFFDE
:1052E000FFFFFFFFD6BD697B6A7B4973286BC862ED
:1052F000C86A8983687B077307730773E862E8628B
:10530000096BE8620A63FBDEFFFFFFFFFFFFDEFFC2
:10531000DADEB9D65CEFFFFFFFFFFFFFFFFFFFFF05
:10532000FFFFFFFFFFFF9EF79EF7FFFFFFFFFFFF5F
:10533000FFFFFFFFFFFFFFFF9DF7F6BDB4B594B57C
:105340009AD6FFFFFFFFFFFFBDF78D7B096B6A7BDE
:10535000AB7BEB8BCB8B2C946D946C9C6C9C0B94EB
:10536000CB838A7B296BA85AEA6238C699D678CE55
:1053700037C64F8CC962C95ACD7B9DF7FFFFFFFF2F
:10538000FFFFFFFFFFFFFFFFFFFF9EF79EF7FFFFFF
:10539000FFFFFFFFFFFFFFFFFFFFFFFF16CEE86AE3
:1053A000E86AA862EA62B19CF1A4B09CB09C2A6B46
:1053B000E95A4C6BCC73EC834D8CAF9C72BD30B50D
:1053C000AFA42D8CCB7B4A6BC852474A0642E86299
:1053D00009630963E95AA85AA85AA85A885A58CEA4
:1053E000FFFFFFFFFFFFFFFFFFFFFFFFFFFF9EF736
:1053F0009EF7FFFFFFFFFFFFFFFFFFFFFFFFFFFF26
:1054000073B5E862296B096BC85AC85A4A73296B8D
:10541000296BE96AA85AE86A296B8B7B2D846D8C0D
:1054200051ADEFA44D8CEB7B8A73E86AA75A464ACC
:10543000464AC85A8752A8528852A85AC85AC85AC7
:10544000675253ADFFFFFFFFFFFFFFFFFFFFFFFFAF
:10545000FFFF9EF79EF7FFFFFFFFFFFFFFFFFFFF2E
:10546000FFFFFFFF32AD296B6973096BC862C95A30
:10547000E9620963E8626973E86AE86A287B8A83FB
:105480002A94CCACECACECAC8CA4EA8B697B287392
:10549000C7626752C862096B88526752A852C962D4
:1054A000C962C8626752D19CFFFFFFFFFFFFFFFF89
:1054B000FFFFFFFFFFFF9EF79EF7FFFFFFFFFFFFCE
:1054C000FFFFFFFFFFFFFFFFF1A408634A730963BB
:1054D000C962C962296B2A6B096B697B487328739F
:1054E00089830A944A9C8BA4CCA4ACAC0A94AA836A
:1054F0008983487B0773C7624973897B4973086B4B
:10550000696B4973A85AC86267529094FFFFFFFF06
:10551000FFFFFFFFFFFFFFFFFFFF9EF79EF7FFFF6D
:10552000FFFFFFFFFFFFFFFFFFFFFFFF12A5E86286
:10553000296B2963C9626A73CB83EB8B8A83497BAE
:105540000B8C887BA9832A948BA4EDB40DB5EDB4A4
:105550004C9C2B94CA8B697B28736873CA8B0A9402
:105560008CA42B948D9CCA8BC75AE96288522F84D5
:10557000FFFFFFFFFFFFFFFFFFFFFFFFFFFF9EF7A4
:105580009EF7FFFFFFFFFFFFFFFFFFFFFFFFFFFF94
:1055900052ADC85AE862C862E862EB83CEA40EAD91
:1055A000ADA4EB8BEDAC0DB5C9832A94ACAC0DB5B5
:1055B0008EC54DBD8CA44B94EB8B897BA983EDB438
:1055C0006EBDEDACB0C58FC5AFC52B9CE86A4A6B0C
:1055D000086B0E84FFFFFFFFFFFFFFFFFFFFFFFFD2
:1055E000FFFF9EF79EF7FFFFFFFFFFFFFFFFFFFF9D
:1055F000FFFFFFFF73BD8B7B2E8CCC830973EEAC5A
:1056000032D651D6CFC52EB5B5E615F78FBDE99385
:105610008CA40DB56EC52DBD8CA42B94EA8BCA83CA
:105620006FBDB4E6B3E6AFC551D693E672DEACA467
:105630000B9412CE2EB56D94DFFFFFFFFFFFFFFF2F
:10564000FFFFFFFFFFFF9EF79EF7FFFFFFFFFFFF3C
:10565000FFFFFFFFFFFFFFFFD4BDB0C593E672DE83
:10566000CA8B91BD77F756F7D5DE70BDFBFFFBFF08
:1056700036EFECB48BA4EDB46EBD0DB56BA42B94DA
:10568000CA8B0EAD35EF97F797F732D615EF76F751
:1056900076F74FBD6CA44DBDCBAC8E9CBEF7FFFF23
:1056A000FFFFFFFFFFFFFFFFFFFF9EF79EF7FFFFDC
:1056B000FFFFFFFFFFFFFFFFFFFFFFFF15CEAFC59F
:1056C000D0D5AFCD0A8C91B576EFD8FFD4DE4FB5EB
:1056D00057F715EFF4EED0CD8CA4EDAC6EC52DBD13
:1056E000ACAC2B940B8C8FC572E6D4EEF4EEAFC548
:1056F00093E6B2E6B1DE2EB5ACAC0DB5CBAC8DA465
:10570000BEF7FFFFFFFFFFFFFFFFFFFFFFFF9EF75B
:105710009EF7FFFFFFFFFFFFFFFFFFFFFFFFFFFF02
:1057200035CE0DB54EBD4FC52B9CADA431D6B3E6DD
:10573000F0CD8CA4D0CDF1D5F0D5B0CD0DB5EDB474
:105740006EBD2EBDCCAC6B9C6C9C0DB56EC56FC593
:10575000AFCDEDB40DB56FC58FC5ECACACACECAC5A
:105760008BA4ADA4BEF7FFFFFFFFFFFFFFFFFFFF0E
:10577000FFFF9EF79EF7FFFFFFFFFFFFFFFFFFFF0B
:10578000FFFFFFFF56D60DB5EDAC0DB5ACA48CA454
:10579000AFC5B0C52DBD4B9C0DB52EBD6FC52EBD83
:1057A000EDB4ACACCCACEDACCCAC6B9C8CA4EDB49F
:1057B0000DB5EDB4EDB46BA4EDB44EBD6FC5ACAC9E
:1057C000ECB40DB50DB50EAD9DF7FFFFFFFFFFFF6C
:1057D000FFFFFFFFFFFF9EF79EF7FFFFFFFFFFFFAB
:1057E000FFFFFFFFFFFFFFFF76D6EDB40DB52DBD28
:1057F000CDAC8CA4AFC56EC5ACA46BA4CDACCDB400
:10580000EDB40DBDCCAC6CA48CA4ACA4ACAC8BA49E
:105810008CACACAC0EBD2EBDADAC2B9CCDACCDB428
:105820006BA42B9C0DB52DB50DB52FB59DF7FFFFC6
:10583000FFFFFFFFFFFFFFFFFFFF9EF79EF7FFFF4A
:10584000FFFFFFFFFFFFFFFFFFFFFFFF77D6CCAC9F
:10585000EDB40EB5ADAC6C9C4EB52EBD4B9C2B9CE7
:10586000ADACADACADACCCAC8CA46BA4ACA48CA4F6
:105870008CAC8CA44B9C8CA4ACAC0DB5ACAC2B9478
:105880008CAC8CAC0A940B94EDB40DB5ECB4EEACCE
:105890007DF7FFFFFFFFFFFFFFFFFFFFFFFF9EF70B
:1058A0009EF7FFFFFFFFFFFFFFFFFFFFFFFFFFFF71
:1058B00077D6ACAC0DB5EDB42B9C8A830A8C4B9497
:1058C000EA938983CA8B0B940B940A940A9C0B9CD1
:1058D0002B942B9C2B9C2B9C0A940A940A94EA8B65
:1058E000AA83A983E98BEA8BAA83AA83ACA4CDAC53
:1058F000EDACCEA4BEF7FFFFFFFFFFFFFFFFFFFFF2
:10590000FFFF9EF79EF7FFFFFFFFFFFFFFFFFFFF79
:10591000FFFFFFFFB8D68CA4ACA4CCAC0A94497BA3
:10592000AA83A983A98B697B6A7B8983AA8BAA8BAB
:105930008983AA8B8983AA83AA83CA8BC983EA8BAA
:10594000CB8BCC8B8B838983898389838983697B88
:105950006B9CADA48C9CEFACDEF7FFFFFFFFFFFF5D
:10596000FFFFFFFFFFFF9EF79EF7FFFFFFFFFFFF19
:10597000FFFFFFFFFFFFFFFFFAE64C940B8C2B9419
:10598000C98BAA83EB8BEB83ED8B32AD17C6F6BDCB
:1059900094B5D5C5B4BDF5BDF6C5F5BD16C6B9D629
:1059A00078CEBAD6FADE3CE71BDFD5BD12A5D1A46E
:1059B000AF9C2C8C4C942C8CEB8372B5FFFFFFFFBB
:1059C000FFFFFFFFFFFFFFFFFFFF9EF7BEF7FFFF99
:1059D000FFFFFFFFFFFFFFFFFFFFFFFFBEF7B5BDAC
:1059E00054B5B5BD36C6DADE3CE77DEF9EF7FFFF66
:1059F000FFFFFFFFFFFFFFFFFFFFFFFFFFFFFFFFB7
:105A0000FFFFFFFFFFFFFFFFFFFFFFFFFFFFFFFFA6
:105A1000FFFFFFFFDFFF7DEFFADEB9DE79CE5CEF3F
:105A2000FFFFFFFFFFFFFFFFFFFFFFFFFFFFBEF7CF
:105A30001CE79EF79EF79EF79EF79EF79EF79EF750
:105A40009EF79EF79EF79EF79EF79EF79EF79EF7AE
:105A50009EF79EF79EF79EF79EF79EF79EF79EF79E
:105A60009EF79EF79EF79EF79EF79EF79EF79EF78E
:105A70009EF79EF79EF79EF79EF79EF79EF79EF77E
:105A80007EF79EF79EF79EF79EF79EF79EF79EF78E
:105A90009EF71CE7FFF7FFF7FFFFFFFFFEFFFDFF8D
:105AA000DEFFFEFFFDFFFFFF9FEFDFF73FDF9FE71A
:105AB000FFF7FFF7BFF7BFFFDFFFFEFFFEFFFDFFB2
:105AC000FCFFFCFFFCFFFDFFFEFFFFFFDFFFDFFF32
:105AD000DFFFDFFFFFFFFFFFFFFFFFFFFEFFFFFF17
