:100000000C942A550C945B550C945B550C945B55E1
:100010000C945B550C945B550C945B550C945B55A0
:100020000C945B550C945B550C945B550C945B5590
:100030000C945B550C9407F00C945B550C945B5539
:100040000C945B550C945B550C945B550C945B5570
:100050000C945B550C945B550C945B550C94F1F32C
:100060000C945B550C9499F20C9470F20C945B55C3
:100070000C945B550C945B550C945B550C945B5540
:100080000C945B550C945B550C945B550C945B5530
:100090000C945B550C945B550C945B550C9490E060
:1000A0000C945B550C945B550C945B550C945B5510
:1000B0000C945B550C945B550C945B550C945B5500
:1000C0000C945B550C945B550C945B550C945B55F0
:1000D0000C945B550C945B550C945B550C945B55E0
:1000E0000C945B55165A195A1E5A265A315A315ACF
:1000F0003F5A3F5A3F5AE680A390B381B38145836C
:10010000A3904A867F84F785A3907D874B88998941
:100110009989E680458DA390E680EF886F8A3182C9
:10012000098BBA8B458D9E8CD18DCC8ED78FEC8F61
:10013000F384F6950C96229638964E9664967A96A7
:10014000C596F696279758978997BA97EB974A9846
:100150005E99649A6A9B709C769D7E9E5AA093A03D
:10016000C5A0F7A029A15BA18DA1BFA1F1A123A2E8
:1001700089A2BAA2EBA21CA34DA37EA3AFA3E0A3C6
:1001800011A442A488A498A59EA6AFA7B5A8BBA910
:10019000CAAAD1AAD8AADFAA12AD28AD3EAD54ADE5
:1001A0006AAD80AD96ADE5AD16AE47AE78AEA9AE00
:1001B000DAAE0BAF49AFB1B0DFB10BB337B463B553
:1001C0008EB681D0A5D0C0D0DBD0F6D011D12CD145
:1001D00047D1B8D2D3D2EED209D324D33FD35AD306
:1001E00075D3A2D3A5D3A8D3ABD3AED3B1D3B4D355
:1001F000B7D3F2D808D91ED934D94AD960D976D91B
:10020000BED9EFD920DA51DA82DAB3DAE4DA47DBA1
:100210006EDB95DBBCDBE3DB0ADC2DDCB2F1B5F198
:10022000A4F1A8F1AEF1ECF1B9F1BDF1C3F1C7F160
:10023000CBF1D1F1D5F1D9F1ECF1DFF1E3F1E7F157
:10024000F3FDACFE0AFE0AFE1FFEACFEDAFD8EFEDA
:100250003DFEACFE47FE47FE5BFE5BFEF3FD8EFE01
:10026000ACFEF3FD47FE8EFE0AFE69FE8EFE8EFE9C
:100270008EFE8EFE8EFE7EFE8EFE8EFE0D94A349B9
:100280000D94484A0D94601D0D948B1D0D94C14929
:100290000D94231D0D94A4490D945D1A0D94CC1951
:1002A00000407A10F35A00A0724E18090010A5D42D
:1002B000E80000E87648170000E40B54020000CA8A
:1002C0009A3B000000E1F5050000809698000000D0
:1002D00040420F000000A08601000000102700002F
:1002E0000000E803000000006400000000000A00B5
:1002F000000000000100000000002C76D888DC67B8
:100300004F0823DFC1DFAE59E1B1B796E5E3E4530F
:10031000C63AE651997696E8E6C28426EB898C9B2C
:1003200062ED407C6FFCEFBC9C9F40F2BAA56FA5CC
:10033000F490055A2AF75C936B6CF9676DC11BFC4E
:10034000E0E40D47FEF520E6B500D0ED902E030069
:10035000943577050080841E080000204E0A0000B6
:1003600000C80C333333330F986E12831141EF8D75
:100370002114893BE65516CFFEE6DB18D1844B38B5
:100380001BF77C1D901DA4BBE424203284725E22E6
:100390008100C9F124ECA1E53D27080C20173CE7BA
:1003A00081BD81BD81BD81BD81FF3CE7818181BD72
:1003B00081BD81BD81FF3CE78181818181BD81BD9E
:1003C00081FF3CE781818181818181BD81FF3CE7A3
:1003D000818181818181818181FFFFFF003F3F0019
:1003E0000F0F000303000000003F3F000F0F00034A
:1003F00003000000000000000F0F000303000000D6
:1004000000000000000000030300000010101010A6
:100410001054381000000000103854101010101044
:1004200000000000000010087C0810000000000020
:10043000000010207C20100000000000003C0C1484
:10044000244480000000000000804424140C3C0080
:10045000000000003C42A581A599423C000000003C
:100460003C7EDBFFFFDB663C000000003C42A581D8
:1004700099A5423C000000003C7EDBFFFFE75A3CB0
:10048000000000003C4281818181423C000000006C
:100490003C7EFFFFFFFF7E3C00000000FF8181816A
:1004A000818181FF00000000FFFFFFFFFFFFFFFFD2
:1004B0000000FFFFFFFFFFFFFFFFFFFF7DEFFFFFDC
:1004C0007DEF7DEFFFFFDFFF7DEFFFFFFFFFFFFF12
:1004D000FFFFFFFFDFFFFFFFFFFFDFFFDFFFFFFF8C
:1004E000FFFFFFFFDFFFFFFFFFFF7DEF59CEDBDEEA
:1004F0005DEFBEF7FFFFFFFF7DEF9EF7FFFFFFFF02
:10050000BEF7BEF7DFFFFFFFFFFFFFFFFFFFFFFFAD
:10051000FFFFFFFFFFFFDFFFFFFFFFFFDFFFBEF774
:10052000FFFF9EF7BEF73CE7FBDEFBDEFBDEDBDE1C
:10053000FBDE3CE73CE7DFFFDFFFFFFFFFFFDFFF06
:10054000FFFFFFFFDFFFDFFFFFFFDFFF9EF718C6A4
:100550009294EF7B2C63108414A5DBDEFFFFFFFF7A
:100560007DEF5DEFFFFFFFFFFFFFFFFFFFFFDFFFFF
:100570007DEFBEF7FFFFFFFFFFFFFFFFFFFFBEF7AF
:10058000FFFFFFFFDFFF55AD18C6FFFF5DEFBEF7B2
:10059000FFFF9EF77DEF9EF73CE75DEFDFFFFFFF7C
:1005A000FFFFDFFFFFFFFFFFDFFFFFFFFFFFFFFF9B
:1005B000BEF7718CA631494AAE734D6BAA52CB5A25
:1005C0009294DBDEFFFFFFFF9EF7FFFFFFFFFFFFC1
:1005D000DFFFFFFFFFFFFFFF9EF7FFFFFFFFFFFFB4
:1005E000FFFFBEF7FFFFFFFFBEF7718CCB5A7DEF19
:1005F000FFFFFFFFFFFFDFFFDFFFBEF73CE71CE76A
:100600005DEF9EF7BEF7FFFFFFFFFFFFFFFFFFFF5E
:10061000FFFFFFFFFFFF38C62C632842E739CB5AA4
:10062000CB5A694A08422C63D7BDDFFFFFFF9EF714
:10063000FFFFFFFFFFFFFFFFFFFFFFFFFFFFFFFFCA
:10064000FFFF9EF7FFFFFFFF9EF7FFFFFFFF59CE63
:100650002842B2943CE7FFFF7DEF5DEF9EF79EF7E7
:100660009EF73CE71CE7DBDE5DEFFFFFFFFFDFFFF0
:10067000FFFFFFFFFFFFDFFFFFFFFFFF3CE775AD61
:10068000AA528631E739EB5AEB5AE739494AD39CEB
:100690001CE7FFFFDFFF9EF7DFFFFFFFDFFFDFFF4E
:1006A000FFFFFFFFFFFFFFFFFFFFFFFFDFFFFFFF7A
:1006B0009EF7FFFF96B58A5275AD9EF7DFFFDFFF0D
:1006C000BEF79EF7DFFF7DEF3CE779CEDBDEDFFF95
:1006D000FFFF9EF7FFFFDFFFFFFFFFFFFFFFDFFFD3
:1006E000FFFFFFFF7DEFAE73C7398631694A2842AD
:1006F0008631494A2C63BAD69EF7FFFFBEF7DFFF6B
:10070000FFFFFFFF7DEFFFFFFFFFFFFFBEF79EF73D
:10071000FFFFFFFFBEF7FFFFFFFF1084CF7B96B503
:10072000DFFFFFFF9EF79EF73CE75DEF7DEF79CEA1
:1007300018C63CE7FFFFBEF7FFFFFFFFDFFF9EF796
:10074000FFFFFFFF9EF7DFFF9EF7FBDE8E73863114
:10075000C739C739C739E739A631494A55ADDFFF2F
:10076000FFFF7DEF9EF7FFFFFFFFFFFFFFFF9EF7FD
:10077000FFFFDFFF1CE75DEFFFFF5DEFDFFFFFFF28
:100780008E73AE731CE77DEF7DEFFFFF3CE7FBDE72
:10079000BEF79AD696B5BAD6FFFFFFFFFFFFDFFF81
:1007A000FFFFFFFFFFFFDFFFBEF7FFFFBEF7FFFF0B
:1007B000AE7324218631A63165296529452945294D
:1007C00086318E73DBDEFFFFDFFF9EF7FFFFFFFF4B
:1007D000FFFFFFFF9EF7FFFF75AD38C61CE7FFFF69
:1007E000FFFFFFFF3CE78E7334A5DFFF3CE79EF77A
:1007F0001CE7FBDE1CE7FBDED7BD18C69EF7FFFF3C
:10080000DFFFFFFFDFFFFFFFFFFFFFFFFFFFFFFF38
:10081000BEF73CE7E31865294529A21045292421A4
:10082000C3182421C318A2102842B6B5FFFFFFFF4A
:10083000DFFFFFFFFFFFDFFFFFFFFFFF14A53CE728
:1008400059CED7BDFFFFFFFF7DEFF7BD34A51CE7F5
:100850009EF75DEF9EF7FBDE1CE7FBDED7BD38C6DB
:10086000DFFFFFFFDFFFFFFFDFFFDFFFDFFFBEF781
:10087000DFFFFFFF9EF72C634529E318C3182421EF
:10088000E3182000242161084529C31820008210A4
:10089000EF7B7DEFFFFFFFFFFFFFDFFFBEF7FFFFF7
:1008A000F39C79CE1CE718C659CE7DEFFFFFFFFF02
:1008B00038C61CE79EF7FBDE3CE7FBDEDBDEBAD684
:1008C000D7BD59CEDFFFFFFFFFFFFFFFDFFFFFFFB9
:1008D000FFFFDFFFFFFFFFFFBEF7652982108210D9
:1008E000C3184108A21024216108E318E318A210DC
:1008F0000421E318821075ADDFFFFFFFFFFFFFFF4C
:10090000BEF7FFFF55AD14A5FFFF5DEFF7BD79CE34
:10091000FFFF7DEF1CE75DEF5DEF3CE7DBDEFBDE1D
:1009200079CE38C6D7BD9AD6DFFFFFFFFFFFDFFFC6
:10093000DFFFFFFFFFFFFFFFFFFFFFFF9EF7929428
:10094000EB5A2421A2108631E31882100421C31827
:100950004529E318610808424108F7BDFFFFFFFF82
:10096000FFFFBEF7FFFFFFFF79CE718C3CE73CE74E
:100970007DEFF7BD9AD6D7BD5DEF3CE75DEF9AD628
:10098000FBDE1CE738C618C638C6FBDEDFFFBEF745
:10099000FFFFFFFFFFFFFFFFFFFFBEF7DFFFDFFFF0
:1009A0003CE79EF7CF7BAA522421242141088210E4
:1009B000863104218631C73986312421C318BAD63D
:1009C000FFFFFFFFFFFFFFFFFFFFDFFF5DEF6D6B2F
:1009D00059CEBEF7DBDED7BD75ADD7BD7DEF3CE7A9
:1009E0001CE714A5D7BD59CE38C69AD6DBDE3CE746
:1009F000DFFFDFFFFFFFFFFFFFFFFFFFDFFFBEF7B0
:100A0000FFFFDFFF1CE714A5CB5AEF7BC7390000BF
:100A1000C739CF7BAA52452941084529CB5A8210B4
:100A2000CB5A3CE7BEF7FFFFFFFFFFFFDFFFDFFF13
:100A3000FFFFAE7334A59EF734A575ADB6B59AD653
:100A40003CE7FBDEB6B5D39C14A5308496B51CE715
:100A5000FBDE1CE7FFFFFFFFFFFFFFFFDFFFDFFF06
:100A6000DFFFFFFFFFFF1CE796B528423084518C63
:100A70004D6B2C63F7BDBAD638C6694A821061083F
:100A800041084529BAD6FFFFBEF7FFFFFFFF9EF7DB
:100A9000FFFFBEF7FFFF96B54D6B75ADB6B534A53C
:100AA000BAD679CE59CE38C6108479CEB6B528429A
:100AB000F39C3CE7BAD69AD6FFFFFFFFDFFFFFFFAC
:100AC000DFFFFFFFFFFFFFFF5DEF75AD2C63EF7BE7
:100AD00010848E73FBDE38C6DFFFFFFFBEF7FBDE40
:100AE000CB5A6529A210D7BDFFFF7DEFFFFFFFFFA7
:100AF000FFFFFFFFFFFFFFFF5DEFBEF7EB5AB29472
:100B000034A5D7BDB6B59AD6F7BD518C59CE34A50C
:100B1000CB5A108455AD3CE7DBDEDBDEFFFFDFFFA9
:100B2000DFFFFFFFDFFF9EF718C6F7BDDBDE8E732A
:100B30006D6B10846D6B79CEFFFFBEF7FFFFFFFF7B
:100B4000DFFFFFFF1CE7B29492947DEFFFFFBEF73B
:100B5000FFFFFFFFFFFFFFFFBEF7FFFFFFFFFFFFEE
:100B600096B5308496B5B6B5D7BDD7BD718C18C6CD
:100B700014A5EF7B4D6B38C6DBDEFBDEBAD65DEF2E
:100B8000FFFFDFFFBEF77DEFFFFF55AD652965294C
:100B90004D6B8E73CF7B8A5279CEFFFFDFFFFFFF55
:100BA000FFFFFFFFFFFF9EF7FFFF7DEF5DEFFFFF02
:100BB000FFFF7DEFFFFFFFFFFFFFFFFFFFFFBEF720
:100BC000FFFFFFFF3CE7F39C96B514A5F7BDD39C50
:100BD000F39C55ADAE730C63F39C38C61CE7BAD6D4
:100BE00059CEDBDE7DEFFFFFFFFFFFFF518C24219D
:100BF0002842042141080C63284234A5FFFFFFFF6F
:100C00007DEFFFFFDFFFBEF7FFFFBEF7FFFFFFFF38
:100C1000FFFFFFFFFFFFDFFFFFFFFFFFFFFFFFFF04
:100C2000FFFF7DEF9EF7FFFFD39CF39C96B596B533
:100C300096B5D39CF7BDCF7BEB5AEF7B75AD18C64D
:100C4000FBDEFBDE1CE7DBDE7DEFFFFF9EF78E7336
:100C50000421E739A631E739E73900006D6BFFFF62
:100C6000DFFF3CE7FFFFFFFFBEF7FFFFFFFFFFFFD8
:100C7000BEF77DEF9EF7DFFFFFFFFFFFDFFFFFFF08
:100C8000FFFFFFFFFFFFDFFFFFFFFFFFAA522C6305
:100C9000B294B6B5D39C55AD14A530844D6B75ADEB
:100CA000F39C18C6B6B5D7BD79CE38C61CE75DEF44
:100CB000AE73E318494AC7396529A63124210000DB
:100CC00034A5FFFF1CE7FFFFFFFF9EF7FFFFFFFFBD
:100CD000DFFFFFFFDFFFFFFFFFFFFFFFFFFFFFFF64
:100CE000DFFFFFFFFFFFFFFFBEF7FFFFFFFFBEF7C6
:100CF00055ADCB5A694AEF7B9294F39CF39CF39CDD
:100D000014A518C638C655AD718C34A5F7BD75ADA0
:100D100059CEB6B586318A526529A631E739E3182E
:100D2000610845293CE7BEF77DEFFFFFFFFFDFFFCE
:100D3000FFFFBEF7FFFFFFFFFFFFFFFFFFFFFFFF0C
:100D4000FFFFFFFFFFFFFFFFFFFFFFFFFFFFFFFFB3
:100D5000BEF79EF7FFFF96B54D6B0842EB5ACB5A94
:100D60004D6BCB5A8E73EB5A518CD39CB29438C6D0
:100D7000DBDE79CEBAD638C69294C3182842242135
:100D8000042104210000B294FFFFFFFFFFFFBEF724
:100D9000BEF7FFFFFFFF7DEFFFFFFFFFDFFF9EF7C7
:100DA0009EF7FFFFFFFFFFFFFFFFFFFFFFFFFFFFBC
:100DB000FFFF7DEFFFFFDFFF7DEFFFFF1CE775AD5E
:100DC000CF7BCF7B0C634D6B8A52E7392842AE73E1
:100DD0003084D7BD59CE9AD69AD6F7BDBAD6B2943A
:100DE000E3188631042182108631DFFF7DEF7DEF2D
:100DF000FFFFFFFFFFFFFFFFDFFFFFFFFFFFFFFF23
:100E0000FFFFFFFFFFFFFFFFFFFFDFFFFFFFFFFF12
:100E1000FFFFFFFFFFFFFFFFFFFFFFFFFFFFFFFFE2
:100E2000FFFFFFFFBEF71CE7FBDE79CE96B5B2945D
:100E30006D6B2842AE73718C38C618C6BAD6FBDE0D
:100E400096B59AD6718C82100000C31875ADBEF7A6
:100E5000DFFFDFFFFFFFFFFFFFFFFFFFFFFFFFFFE2
:100E6000FFFFFFFFFFFFFFFFFFFFFFFFFFFFFFFF92
:100E7000FFFFFFFFFFFFFFFFFFFFFFFFFFFFFFFF82
:100E8000FFFFFFFFFFFF9EF7FFFFBEF7FFFFFFFF24
:100E9000DFFFDFFF5DEFF39C494A718C718C59CE07
:100EA000FBDE18C659CE55AD59CE3084A210AE73B4
:100EB00079CEFFFF9EF7FFFFFFFFFFFFFFFFFFFF62
:100EC000FFFFFFFFFFFFFFFFFFFFFFFFFFFFFFFF32
:100ED000FFFFFFFFFFFFFFFFFFFFFFFFFFFFFFFF22
:100EE000FFFFFFFFFFFFFFFFFFFFBEF7FFFFFFFF5B
:100EF000FFFFFFFFFFFFFFFFDFFF1CE7718CCB5AF7
:100F0000518C34A5D7BD9AD6BAD659CE55AD9AD6FE
:100F1000929496B5FFFFDFFFFFFFFFFFFFFFFFFF8C
:100F2000FFFFFFFFFFFFFFFFFFFFFFFFFFFFFFFFD1
:100F3000FFFFFFFFFFFFFFFFFFFFFFFFFFFFFFFFC1
:100F4000FFFFFFFFFFFFFFFFFFFFFFFFFFFFFFFFB1
:100F5000FFFFBEF7DFFFFFFFBEF7DFFFDFFFFFFF93
:100F600075AD042110849294718C9AD679CEFBDEF3
:100F7000F7BDF39C9EF77DEF3CE7FFFFDFFFFFFF30
:100F8000FFFFFFFFFFFFFFFFFFFFFFFFFFFFFFFF71
:100F9000FFFFFFFFFFFFFFFFFFFFFFFFFFFFFFFF61
:100FA000FFFFFFFFFFFFFFFFFFFFFFFFFFFFFFFF51
:100FB000FFFFFFFFFFFFBEF7FFFFFFFFBEF7FFFFD3
:100FC000FFFFBEF70842A210C7399294B29414A54D
:100FD00018C638C6FBDE96B5D7BD9EF71CE7FFFFE7
:100FE000BEF7FFFFFFFFFFFFFFFFFFFFFFFFFFFF5A
:100FF000FFFFFFFFFFFFFFFFFFFFFFFFFFFFFFFF01
:10100000FFFFFFFFFFFFFFFFFFFFFFFFFFFFFFFFF0
:10101000FFFFFFFFFFFFFFFFFFFFFFFFFFFF9EF749
:101020007DEFFFFF9EF74D6B2000E318A210694A89
:1010300014A5B29475AD18C638C63CE755AD34A5B5
:10104000FFFFFBDEFFFFDFFFDFFFFFFFFFFFFFFF15
:10105000FFFFFFFFFFFFFFFFFFFFFFFFFFFFFFFFA0
:10106000FFFFFFFFFFFFFFFFFFFFFFFFFFFFFFFF90
:10107000FFFFFFFFFFFFFFFFFFFFBEF7DFFFFFFFE9
:10108000FFFFDFFFFFFFBEF7D39C00000421A2108B
:10109000042161084D6BF39C14A5D7BD38C618C652
:1010A0001CE734A559CE5DEF5DEFBEF7DFFFDFFF34
:1010B000FFFFFFFFFFFFFFFFFFFFFFFFFFFFFFFF40
:1010C000FFFFFFFFFFFFFFFFFFFFFFFFFFFFFFFF30
:1010D000FFFFFFFFFFFFFFFFFFFFFFFFFFFFFFFF20
:1010E000FFFFFFFFDFFF9EF7FFFF18C68210C31848
:1010F00082108210A210C318E3181084F39CB6B5B6
:10110000D7BD59CE38C63CE775AD59CE3CE79EF702
:10111000BEF7DFFFFFFFFFFFFFFFFFFFFFFFFFFF48
:10112000FFFFFFFFFFFFFFFFFFFFFFFFFFFFFFFFCF
:10113000FFFFFFFFFFFFFFFFFFFFFFFFFFFFFFFFBF
:10114000FFFFFFFFFFFF9EF7FFFFDFFFFBDE2842F1
:10115000C318C31861080421A21041084108652979
:10116000B29414A5D7BD18C618C6BAD679CE18C67B
:1011700059CE9AD65DEFDFFFDFFFDFFFFFFFFFFFF6
:10118000DFFFFFFFFFFFFFFFFFFFFFFFFFFFFFFF8F
:10119000FFFFFFFFFFFFFFFFFFFFFFFFFFFFFFFF5F
:1011A000FFFFFFFFFFFFFFFFFFFFFFFF3CE7FFFF2A
:1011B000CB5AE739A631A210C318200061082000DD
:1011C000C318AA528A52B294F7BD18C696B538C64B
:1011D00059CEDBDE18C618C659CE1CE7FFFFFFFF4D
:1011E000DFFFDFFFFFFFFFFFFFFFFFFFFFFFFFFF4F
:1011F000FFFFFFFFFFFFFFFFFFFFFFFFFFFFFFFFFF
:10120000FFFFFFFFFFFFFFFFFFFFDFFFFFFF7DEFA0
:10121000FFFF3084E739A6312842E318610841080E
:10122000200000006D6B18C68A52EB5A14A596B5C3
:1012300059CE55AD79CEFBDE79CEF7BDD7BD38C6D8
:101240003CE7FFFFFFFFDFFFFFFFFFFFFFFFFFFFA9
:10125000FFFFFFFFFFFFFFFFFFFFFFFFFFFFFFFF9E
:10126000FFFFFFFFFFFFFFFFFFFFFFFFFFFFDFFFAE
:10127000DFFFFFFF96B5A631284208428631452997
:101280008210C3180000C739FBDEFFFFF7BD08421C
:101290002C6355AD79CED7BDF7BD38C6BAD69AD630
:1012A00079CE18C618C6FBDEFFFFFFFFBEF7FFFFB3
:1012B000FFFFFFFFFFFFFFFFFFFFFFFFFFFFFFFF3E
:1012C000FFFFFFFFFFFFFFFFFFFFFFFFFFFFFFFF2E
:1012D000FFFFFFFFFFFF9AD6A63128420842863162
:1012E00065294529E3182000E31875ADFFFF7DEF60
:1012F000FFFF9294E739718CF39CBAD696B596B5F8
:1013000038C6DBDEDBDE79CEF7BD38C61CE7DFFF93
:10131000FFFFFFFFFFFFFFFFFFFFFFFFFFFFFFFFDD
:10132000FFFFFFFFFFFFFFFFFFFFFFFFFFFFFFFFCD
:10133000FFFFFFFFFFFFFFFF1CE7CB5A2842C73923
:10134000C7396529A631652900004108D39CBEF73D
:10135000BEF7FFFFBEF79EF76D6B494ACF7B75ADB9
:101360009AD655AD38C659CE79CEBAD6BAD638C681
:10137000F7BDDBDEFFFFDFFFDFFFFFFFFFFFFFFF4C
:10138000FFFFFFFFFFFFFFFFFFFFFFFFFFFFFFFF6D
:10139000FFFFFFFFFFFFFFFFFFFF7DEFEF7BC73981
:1013A0008A52C739042108422421042141084D6B87
:1013B000FFFFFFFF7DEFFFFF7DEFFFFF59CE8A525A
:1013C0002C638E7338C6D7BD18C6D7BD18C69AD63B
:1013D000FBDE9AD618C679CE1CE7BEF7DFFFDFFF2B
:1013E000FFFFFFFFFFFFFFFFFFFFFFFFFFFFFFFF0D
:1013F000FFFFFFFFFFFFFFFFFFFFFFFFFFFFF39C6C
:10140000494A0842C73986318631E318E31800009B
:10141000CB5ADBDEDFFFDFFFFFFF9EF7FFFF9EF70C
:10142000FFFF75AD28422C63AE739AD696B5D7BD33
:1014300018C659CE79CEDBDE1CE79AD6D7BD9EF70B
:10144000BEF7DFFFFFFFFFFFFFFFFFFFFFFFFFFF15
:10145000FFFFFFFFFFFFFFFFDFFFFFFF7DEFFFFF4E
:10146000F7BD494A494AA631C73945292421863161
:1014700000008631F7BDFFFF9EF7FFFFFFFFDFFF94
:10148000FFFFFFFFDFFFFFFF4D6B8A524D6BAE7317
:1014900059CE96B579CED39CEB5AEB5A75ADBEF7C3
:1014A00038C659CE9EF7FFFFBEF7FFFFFFFFFFFFD5
:1014B000DFFFFFFFFFFFFFFF9EF7FFFFFFFFBEF70E
:1014C000FFFF18C68A522842694AA631863145294B
:1014D000084200004108F39C7DEFFFFFDFFFFFFFA4
:1014E000FFFFBEF7FFFFDFFFDFFF9EF7FFFF8A5220
:1014F0008A526D6B108459CED7BD308496B596B59F
:101500009294BAD6FBDE18C65DEFFFFFFFFFFFFF28
:10151000FFFFFFFFFFFFFFFFFFFFFFFFFFFFFFFFDB
:10152000DFFFBEF71CE7C7394529E739284265299F
:10153000C73924216108000030849EF7FFFFFFFFB8
:10154000DFFFFFFFFFFFDFFFFFFFDFFFBEF7FFFF54
:10155000FFFF9AD6E7392C634D6BF7BD96B559CE90
:10156000BEF7DFFFBAD659CEBEF738C63CE7FFFF5D
:10157000FFFFFFFFBEF7BEF7FFFFFFFFFFFFDFFF2D
:10158000FFFFFFFFDFFFFFFFBAD6E3180421084289
:10159000A631E318452945290000CB5ADBDEFFFFC1
:1015A000DFFFDFFFFFFFFFFFFFFFFFFFFFFFDFFFAB
:1015B000FFFFDFFF5DEFFFFF55AD494A6D6BCF7B4E
:1015C00038C6D7BDFBDE3CE738C65DEF1CE79AD6D0
:1015D0005DEFBEF7DFFFFFFFFFFFDFFFFFFFFFFF56
:1015E000FFFFFFFF9EF7FFFFFFFFBEF7FFFFF39C2C
:1015F0006529042104216529C3180000452959CE15
:10160000BEF7FFFFDFFFFFFFFFFFDFFFFFFFFFFF73
:10161000DFFFFFFFFFFFDFFFFFFFBEF7FFFFAE7340
:10162000694A1084F39C59CED7BDD7BD59CE18C690
:101630007DEFB6B53CE7FFFFBEF7DFFFFFFFFFFF23
:10164000FFFFFFFFFFFFFFFFDFFFFFFFDFFFFFFFEA
:10165000FFFFBEF734A5694A821082100000200007
:10166000B294BEF7FFFFFFFFFFFFFFFFFFFFDFFFAB
:10167000FFFFFFFFFFFFDFFFFFFFFFFFDFFFFFFFBA
:10168000DFFF1CE76D6BAA52B29475AD79CE59CECF
:1016900014A534A59294F39CFBDEFFFFFFFFDFFF50
:1016A000FFFFFFFFFFFFFFFFFFFFFFFFFFFFFFFF4A
:1016B0009EF7FFFF7DEFBEF7FFFF9AD60C63410850
:1016C0002000CF7BFFFFFFFFBEF7FFFFFFFFFFFF05
:1016D000FFFFFFFFFFFFFFFFFFFFBEF7FFFFBEF7AC
:1016E000FFFFFFFFDFFFFFFF9AD6AA528A52108446
:1016F000718C3084CF7B8A528A52F7BD7DEFFFFF19
:10170000FFFFFFFFFFFFFFFFFFFFFFFFFFFFFFFFE9
:10171000BEF7FFFFFFFFBEF7FFFFFFFFBEF7DFFFD4
:10172000DFFF718C694AFBDEBEF7FFFFDFFFFFFFC3
:10173000FFFFDFFFFFFFFFFFFFFFBEF7FFFFFFFF22
:10174000FFFF9EF7FFFFFFFFBEF7FFFFFFFF38C65B
:101750002C63E739AA528A5228426D6B34A5FFFFE9
:10176000FFFFFFFFDFFFFFFFFFFFDFFFFFFFFFFFC9
:10177000FFFFFFFFFFFFFFFFFFFFFFFFFFFFFFFF79
:10178000FFFFFFFFDFFF7DEF3CE79EF7FFFFFFFF5F
:10179000DFFFFFFFFFFFFFFFFFFFFFFFFFFFFFFF79
:1017A000FFFFFFFFFFFFFFFFFFFFFFFFFFFFFFFF49
:1017B000DFFFDFFFDBDE75AD9294B29496B5DBDE22
:1017C000BEF7FFFFFFFFFFFFFFFFFFFFFFFFFFFF72
:1017D000FFFFFFFFFFFFFFFFFFFFFFFFFFFFFFFF19
:1017E000FFFFFFFFFFFFFFFFFFFFBEF79EF7DFFFDB
:1017F000FFFFFFFFDFFFFFFFFFFFFFFFFFFFFFFF19
:10180000FFFFFFFFFFFFFFFFFFFFFFFFFFFFFFFFE8
:10181000FFFFFFFFDFFFFFFFFFFFBEF79EF7BEF7F3
:10182000DFFFFFFFFFFFFFFFFFFFFFFFFFFFFFFFE8
:10183000FFFFFFFFFFFFFFFFFFFF1F1C1F1E1F1EFD
:101840001F1F1E1F1E1F005EBCE2613FDD83C29C86
:101850007E20A3FD1F419DC3217FFCA2401E5F018E
:10186000E3BD3E6082DC237D9FC1421CFEA0E1BF40
:101870005D0380DE3C62BEE0025CDF81633D7C2272
:10188000C09E1D43A1FF4618FAA427799BC584DAA0
:101890003866E5BB5907DB856739BAE4065819474E
:1018A000A5FB7826C49A653BD987045AB8E6A7F900
:1018B0001B45C6987A24F8A6441A99C7257B3A6432
:1018C00086D85B05E7B98CD2306EEDB3510F4E1060
:1018D000F2AC2F7193CD114FADF3702ECC92D38D0E
:1018E0006F31B2EC0E50AFF1134DCE90722C6D33C0
:1018F000D18F0C52B0EE326C8ED0530DEFB1F0AEF2
:101900004C1291CF2D73CA947628ABF5174908561F
:10191000B4EA6937D58B5709EBB536688AD495CBCD
:101920002977F4AA4816E9B7550B88D6346A2B757F
:1019300097C94A14F6A8742AC896154BA9F7B6E8B1
:101940000A54D7896B3500002100240027002A00A3
:101950002D003000330001010000040107010A01DD
:1019600000000A0B02090C0D0E0807030401000019
:101970000000000000000000000000000000000067
:101980000000000000000000000000001211100024
:101990000000000000000000000000000000000047
:1019A000000000000000022032201A0000000000A9
:1019B0000000000000000000000000000000000027
:1019C0000000000000000000000000000000000017
:1019D0000000000000000000000000000000000007
:1019E00000000000000000000000000000000000F7
:1019F00000000000000000000000000000000000E7
:101A000000000000000000000000000000000000D6
:101A100000000000000000000000000000000000C6
:101A200000000000000000000000000000000000B6
:101A300000000000000000000000000000000000A6
:101A40000000000000000000000000000000000096
:101A50000000000000000000000000000000000086
:101A60000000000000000000000000000000000076
:101A70000000000000000000000000000000000066
:101A80000000000C0000001E0000003F0000003FAE
:101A90000000003F0000003F0000003F0000003F4A
:101AA0000000003F0000003F0000003F0000003F3A
:101AB0000000003F0000003F0000003F0000003C2D
:101AC000000000380000002000000000000000209E
:101AD000000000300000003C0000003F0000003F1C
:101AE0000000003F0000003F0000003F0000003FFA
:101AF0000000003F0000003F0000003F0000003FEA
:101B00000000003F0000003F0000003F0000003FD9
:101B10000000001E0000000C00000000000000009B
:101B200000000000000000000000000000000000B5
:101B300000000000000000000000000000000000A5
:101B4000000000007FFF0000FFFF8001FFFF80001A
:101B5000FFFF00007FFE000000000000000000000A
:101B60000000000000000000000000000000000075
:101B70000000000000000000000000000000000065
:101B80000000000000000000000000000000000055
:101B90000000000000000000000000000000000045
:101BA0000000000000000000000000000000000035
:101BB0000000000000000000000000000000000025
:101BC0000000000000000000000000000000000015
:101BD0000000000000000000000000000000000005
:101BE00000000000000000000000000000000000F5
:101BF00000000000000000000000000000000000E5
:101C000000000000000000007FFF0000FFFF8001D7
:101C1000FFFF8000FFFF00007FFE000000000000CB
:101C200000000000000000000000000000000000B4
:101C300000000000000000000000000000000000A4
:101C40000000000000000000000000000000000094
:101C500000000000000000007FFF0001FFFFC00740
:101C6000FFFFF001FFFFE0007FFF800000000000A9
:101C70000000000000000000000000000000000064
:101C80000000000000000000000000000000000054
:101C90000000000000000000000000000000000044
:101CA0000000000000000000000000007FFF0000B6
:101CB000FFFF8001FFFFC000FFFF80007FFF0000EB
:101CC0000000000000000000000000000000000014
:101CD000000000003FFF80007FFFC000FFFFE0002A
:101CE0007FFFC0033FFF80078000000FC000000F90
:101CF000C000000FC000000FC000000FC000000FA8
:101D0000C000000FC000000FC000000FC000000F97
:101D1000C000000FC000000FC000000FC000000F87
:101D20008000000E7FFF8008FFFFE003FFFFF80147
:101D3000FFFFF0007FFFC60000001E0000007E00D5
:101D400000007E0000007E0000007E0000007E009B
:101D500000007E0000007E0000007E0000007E008B
:101D600000007E0000007E0000007E0000007E007B
:101D700000007E0000003C003FFF98007FFFC00095
:101D8000FFFFE0007FFFC0003FFF80000000000079
:101D90000000000000000000000000000000000043
:101DA00000000000000000060000000F0000001FFF
:101DB0008000001F8000001F8000001F8000001FA7
:101DC0008000001F8000001F8000001F8000001F97
:101DD0008000001F8000001F8000001F8000001F87
:101DE0008000001E0000001C000000100000000029
:101DF000000000000000000000000C0000003C009B
:101E00000000FC000000FC000000FC000000FC00E2
:101E10000000FC000000FC000000FC000000FC00D2
:101E20000000FC000000FC000000FC000000FC00C2
:101E30000000FC000000FC00000078000000300002
:101E40000000000000000000000000000000000092
:101E50000000000000000000000000000000000082
:101E60007FFF0000FFFF8001FFFF8000FFFF0006F3
:101E70007FFE000F0000001F8000001F8000001F79
:101E80008000001F8000001F8000001F8000001FD6
:101E90008000001F8000001F8000001F8000001FC6
:101EA0008000001F8000001F8000001F0000001C39
:101EB000FFFF0011FFFFC007FFFFF013FFFFE01C53
:101EC000FFFF8C1F00003C1F8000FC1F8000FC1FD8
:101ED0008000FC1F8000FC1F8000FC1F8000FC1F96
:101EE0008000FC1F8000FC1F8000FC1F8000FC1F86
:101EF0008000FC1F8000FC1F8000FC1F8000FC0F86
:101F0000000078067FFF3000FFFF8001FFFFC00068
:101F1000FFFF80007FFF00000000000000000000C5
:101F2000000000000000000000000000FFFE0001B3
:101F3000FFFF0003FFFF0001FFFE0000FFFC0000A9
:101F40000000000000000000000000000000000091
:101F50000000000000000000000000000000000081
:101F60000000000000000000000000000000000071
:101F70000000000000000000000000000000000061
:101F80000000000000000000000000000000000051
:101F90000000000000000000000000000000000041
:101FA0000000000000000000000000000000000031
:101FB0000000000000000000000000000000000021
:101FC0000000000000000000000000000000000011
:101FD0000000000000000000000000000000000001
:101FE00000000000000000000000000000000000F1
:101FF000000000007FFF0000FFFF8001FFFF800066
:10200000FFFF00067FFE000F0000001F8000001F82
:102010008000001F8000001F8000001F8000001F44
:102020008000001F8000001F8000001F8000001F34
:102030008000001F8000001F8000001F8000001E25
:102040000000001C00000010000000000000001054
:10205000000000180000001E0000001F8000001F8C
:102060008000001F8000001F8000001F8000001FF4
:102070008000001F8000001F8000001F8000001FE4
:102080008000001F8000001F8000001F8000001FD4
:102090008000000F000000067FFF0000FFFF8001AE
:1020A000FFFFC000FFFF80007FFF00000000000076
:1020B0000000000000000000000000007FFF0000A2
:1020C000FFFF8001FFFFC000FFFFB0007FFF78002F
:1020D0000000FC000000FC000000FC000000FC0010
:1020E0000000FC000000FC000000FC000000FC0000
:1020F0000000FC000000FC000000FC000000FC00F0
:102100000000FC000000FC0000003C0000000C008F
:1021100000000400000000000000000000000C00AF
:1021200000003C000000FC000000FC000000FC007F
:102130000000FC000000FC000000FC000000FC00AF
:102140000000FC000000FC000000FC000000FC009F
:102150000000FC000000FC000000FC000000780013
:102160007FFF3000FFFF8001FFFFC000FFFF800006
:102170007FFF0000000000000000000000000000E1
:10218000000000007FFF0000FFFF8001FFFFC00094
:10219000FFFFB0067FFF780F0000FC1F8000FC1FD0
:1021A0008000FC1F8000FC1F8000FC1F8000FC1FC3
:1021B0008000FC1F8000FC1F8000FC1F8000FC1FB3
:1021C0008000FC1F8000FC1F8000FC1F8000FC1FA3
:1021D00000003C1CFFFF0C11FFFFC407FFFFF013C2
:1021E000FFFFE01CFFFF8C1F00003C1F8000FC1F56
:1021F0008000FC1F8000FC1F8000FC1F8000FC1F73
:102200008000FC1F8000FC1F8000FC1F8000FC1F62
:102210008000FC1F8000FC1F8000FC1F8000FC1F52
:102220008000FC0F000078067FFF3000FFFF800178
:10223000FFFFC000FFFF80007FFF000000000000E4
:10224000000000000000000000000000000000008E
:10225000000000000000000000000000000000007E
:10226000000000000000000000000000000000006E
:1022700000000000008000000180000001C000009C
:1022800003E0000003E0000003E0000003E00000C2
:1022900003E0000003E00000FFFF0001FFFFC007B4
:1022A000FFFFF003FFFFE000FFFF800003E00000FE
:1022B00003E0000003E0000003E0000003E0000092
:1022C00003C0000001C00000018000000080000089
:1022D00000000000000000000000000000000000FE
:1022E00000000000000000000000000000000000EE
:1022F00000000000000000000000000000000000DE
:1023000000000000000000000000000000000000CD
:1023100000000000000000000000000000000000BD
:1023200000000000000000000000000000000000AD
:10233000000000000000000000000000000000009D
:10234000000000000000000000000000000000008D
:10235000000000000000000000000000000000007D
:10236000000000000000000000000000000000006D
:10237000000000000000000000000000000000005D
:10238000000000000000000000000000000000004D
:10239000000000000000000000000000000000003D
:1023A000000000000000000000000000000000002D
:1023B0000070000000F8000001FC000001FC0000BB
:1023C00001FC000000F800000070000000000000A8
:1023D00000000000000000000000000000000000FD
:1023E00000000000000000000000000000000000ED
:1023F00000000000000000000000000000000000DD
:1024000000000000000000000000000000000000CC
:1024100000000000000000000000000000000000BC
:102420000000000000000000FFFF0001FFFFC007E8
:10243000FFFFF003FFFFE000FFFF8000000000004F
:10244000000000000000000000000000000000008C
:10245000000000000000000000000000000000007C
:10246000000000000000000000000000000000006C
:10247000000000000000000000000000000000005C
:10248000000000000000000000000000000000004C
:10249000000000000000000000000000000000003C
:1024A000000000000000000000000000000000002C
:1024B000000000000000000000000000000000001C
:1024C000000000000000000000000000000000000C
:1024D00000000000000000000000000000000000FC
:1024E00000000000000000000000000000000000EC
:1024F00000000000000000000000000000000000DC
:1025000000000000000000000000000000000000CB
:1025100000000000000000000000000000000000BB
:1025200000000000000000000000000000000000AB
:10253000000000000000000000000000000000009B
:102540000070000000F8000001FC000001FC000029
:1025500001FC000000F80000007000000000000016
:10256000000000000000000000000000000000006B
:1025700000000000000010000000380000007C0097
:102580000000FC000000FC000000FC000000FC005B
:102590000000FC000000FC000000FC000000FC004B
:1025A0000000FC000000FC000000FC000000FC003B
:1025B0000000FC0000003C007FFF0C01FFFFC4078F
:1025C000FFFFF013FFFFE01CFFFF801F0000001F54
:1025D0008000001F8000001F8000001F8000001F7F
:1025E0008000001F8000001F8000001F8000001F6F
:1025F0008000001F8000001F8000001F8000001F5F
:102600008000001F8000000F000000060000000096
:1026100000000000000000000000000000000000BA
:1026200000000000000000000000000000000000AA
:10263000000000007FFF0000FFFF8001FFFFC000DF
:10264000FFFFB0067FFF780F0000FC1F8000FC1F1B
:102650008000FC1F8000FC1F8000FC1F8000FC1F0E
:102660008000FC1F8000FC1F8000FC1F8000FC1FFE
:102670008000FC1F8000FC1F8000FC1F8000FC1FEE
:1026800000003C1C00000C100000040000000010C2
:102690000000001C00000C1F00003C1F8000FC1FFD
:1026A0008000FC1F8000FC1F8000FC1F8000FC1FBE
:1026B0008000FC1F8000FC1F8000FC1F8000FC1FAE
:1026C0008000FC1F8000FC1F8000FC1F8000FC1F9E
:1026D0008000FC0F000078067FFF3000FFFF8001C4
:1026E000FFFFC000FFFF80007FFF00000000000030
:1026F00000000000000000000000000000000000DA
:102700000000000000000000000030000000780021
:102710000000FC000000FC000000FC000000FC00C9
:102720000000FC000000FC000000FC000000FC00B9
:102730000000FC000000FC000000FC000000FC00A9
:102740000000FC000000FC0000003C0000000C0049
:1027500000000400000000000000000000000C0069
:1027600000003C000000FC000000FC000000FC0039
:102770000000FC000000FC000000FC000000FC0069
:102780000000FC000000FC000000FC000000FC0059
:102790000000FC000000FC000000FC0000007800CD
:1027A00000003000000000000000000000000000F9
:1027B0000000000000000000000000000000000019
:1027C000000000007FFF0000FFFF8001FFFFC0004E
:1027D000FFFFB0007FFF78000000FC000000FC005D
:1027E0000000FC000000FC000000FC000000FC00F9
:1027F0000000FC000000FC000000FC000000FC00E9
:102800000000FC000000FC000000FC000000FC00D8
:1028100000003C00FFFF0C01FFFFC407FFFFF013A7
:10282000FFFFE01CFFFF801F0000001F8000001F53
:102830008000001F8000001F8000001F8000001F1C
:102840008000001F8000001F8000001F8000001F0C
:102850008000001F8000001F8000001F8000001FFC
:102860008000000F000000067FFF0000FFFF8001D6
:10287000FFFFC000FFFF80007FFF0000000000009E
:102880000000000000000000000000007FFF0000CA
:10289000FFFF8001FFFFC000FFFFB0007FFF780057
:1028A0000000FC000000FC000000FC000000FC0038
:1028B0000000FC000000FC000000FC000000FC0028
:1028C0000000FC000000FC000000FC000000FC0018
:1028D0000000FC000000FC0000003C00FFFF0C01B9
:1028E000FFFFC407FFFFF003FFFFE000FFFF8C00C6
:1028F00000003C000000FC000000FC000000FC00A8
:102900000000FC000000FC000000FC000000FC00D7
:102910000000FC000000FC000000FC000000FC00C7
:102920000000FC000000FC000000FC00000078003B
:102930007FFF3000FFFF8001FFFFC000FFFF80002E
:102940007FFF000000000000000000000000000009
:102950000000000000000000000000000000000077
:10296000000030060000780F0000FC1F8000FC1FF4
:102970008000FC1F8000FC1F8000FC1F8000FC1FEB
:102980008000FC1F8000FC1F8000FC1F8000FC1FDB
:102990008000FC1F8000FC1F8000FC1F8000FC1FCB
:1029A00000003C1CFFFF0C11FFFFC407FFFFF003FA
:1029B000FFFFE000FFFF8C0000003C000000FC0077
:1029C0000000FC000000FC000000FC000000FC0017
:1029D0000000FC000000FC000000FC000000FC0007
:1029E0000000FC000000FC000000FC000000FC00F7
:1029F0000000FC0000007800000030000000000033
:102A000000000000000000000000000000000000C6
:102A10000000000000000000000000007FFF000038
:102A2000FFFF8001FFFFC000FFFF80067FFF000F58
:102A30000000001F8000001F8000001F8000001F9A
:102A40008000001F8000001F8000001F8000001F0A
:102A50008000001F8000001F8000001F8000001FFA
:102A60008000001F8000001F0000001CFFFF0011FD
:102A7000FFFFC007FFFFF003FFFFE000FFFF8C0038
:102A800000003C000000FC000000FC000000FC0016
:102A90000000FC000000FC000000FC000000FC0046
:102AA0000000FC000000FC000000FC000000FC0036
:102AB0000000FC000000FC000000FC0000007800AA
:102AC0007FFF3000FFFF8001FFFFC000FFFF80009D
:102AD0007FFF000000000000000000000000000078
:102AE000000000007FFF0000FFFF8001FFFFC0002B
:102AF000FFFF80067FFF000F0000001F8000001F07
:102B00008000001F8000001F8000001F8000001F49
:102B10008000001F8000001F8000001F8000001F39
:102B20008000001F8000001F8000001F8000001F29
:102B30000000001CFFFF0011FFFFC007FFFFF013A4
:102B4000FFFFE01CFFFF8C1F00003C1F8000FC1FEC
:102B50008000FC1F8000FC1F8000FC1F8000FC1F09
:102B60008000FC1F8000FC1F8000FC1F8000FC1FF9
:102B70008000FC1F8000FC1F8000FC1F8000FC1FE9
:102B80008000FC0F000078067FFF3000FFFF80010F
:102B9000FFFFC000FFFF80007FFF0000000000007B
:102BA0000000000000000000000000007FFF0000A7
:102BB000FFFF8001FFFFC000FFFFB0007FFF780034
:102BC0000000FC000000FC000000FC000000FC0015
:102BD0000000FC000000FC000000FC000000FC0005
:102BE0000000FC000000FC000000FC000000FC00F5
:102BF0000000FC000000FC0000003C0000000C0095
:102C000000000400000000000000000000000C00B4
:102C100000003C000000FC000000FC000000FC0084
:102C20000000FC000000FC000000FC000000FC00B4
:102C30000000FC000000FC000000FC000000FC00A4
:102C40000000FC000000FC000000FC000000780018
:102C50000000300000000000000000000000000044
:102C60000000000000000000000000000000000064
:102C7000000000007FFF0000FFFF8001FFFFC00099
:102C8000FFFFB0067FFF780F0000FC1F8000FC1FD5
:102C90008000FC1F8000FC1F8000FC1F8000FC1FC8
:102CA0008000FC1F8000FC1F8000FC1F8000FC1FB8
:102CB0008000FC1F8000FC1F8000FC1F8000FC1FA8
:102CC00000003C1CFFFF0C11FFFFC407FFFFF013C7
:102CD000FFFFE01CFFFF8C1F00003C1F8000FC1F5B
:102CE0008000FC1F8000FC1F8000FC1F8000FC1F78
:102CF0008000FC1F8000FC1F8000FC1F8000FC1F68
:102D00008000FC1F8000FC1F8000FC1F8000FC1F57
:102D10008000FC0F000078067FFF3000FFFF80017D
:102D2000FFFFC000FFFF80007FFF000000000000E9
:102D30000000000000000000000000007FFF000015
:102D4000FFFF8001FFFFC000FFFFB0067FFF780F8D
:102D50000000FC1F8000FC1F8000FC1F8000FC1F87
:102D60008000FC1F8000FC1F8000FC1F8000FC1FF7
:102D70008000FC1F8000FC1F8000FC1F8000FC1FE7
:102D80008000FC1F8000FC1F00003C1CFFFF0C119A
:102D9000FFFFC407FFFFF003FFFFE000FFFF8C0011
:102DA00000003C000000FC000000FC000000FC00F3
:102DB0000000FC000000FC000000FC000000FC0023
:102DC0000000FC000000FC000000FC000000FC0013
:102DD0000000FC000000FC000000FC000000780087
:102DE0007FFF3000FFFF8001FFFFC000FFFF80007A
:102DF0007FFF00000000000000000000002200250E
:102E00000028002B002E00310034000201000005D4
:102E10000108010B01000020002300260029002CDE
:102E2000002F003200000100000301060109010526
:102E3000050505070508080808020202020A0A0833
:102E40000804040404010101010101010103030359
:102E50000303030303040707070C0C0C0C0C0C0CF6
:102E60000C0202020206060606060606060B0B0BFD
:102E70000B0B0B0B0B010210202008081020401038
:102E8000204080020102010804020101020408102E
:102E9000204080804020100804020180040201804C
:102EA0004020100804020108040201010204081075
:102EB00020408001020408102040807C3C3E5E2BB4
:102EC0003D3F2F5B5D3B2C2A225C001010208F00C1
:102ED00000000000000000000000000000000000F2
:102EE00000000000000000000000000000000000E2
:102EF00000000007000F800F800F800F800F8007F9
:102F000000070000000000070007000700000000A5
:102F1000000E380E380E380E380630000000000063
:102F200000000000000000000000000000000000A1
:102F3000000C300C300C307FFE7FFE0C300C300C5F
:102F4000300C307FFE7FFE0C300C300C3000000067
:102F500000024002400FF81FF81A401A401FF00FFD
:102F6000F8025802581FF81FF0024002400000000B
:102F700000000000000E100E300E7000E001C003D3
:102F80008007000E700C7008700000000000000048
:102F90000000000F001980198019800F000F080F22
:102FA0009819F818F018E019F00F980000000000C8
:102FB0000000000700070007000E000000000000EE
:102FC0000000000000000000000000000000000001
:102FD00000000000F001C0038007000E000E000E8C
:102FE000000E000700038001C000F0000000000098
:102FF0000000000F00038001C000E00070007000BE
:1030000070007000E001C003800F000000000000AD
:1030100000000001801188099007E007E03FFC3FB5
:10302000FC07E007E0099011880180000000000023
:10303000000000000000000180018001800FF00FFF
:10304000F00180018001800000000000000000000D
:103050000000000000000000000000000000000070
:1030600000000000000700070007000E000000003D
:10307000000000000000000000000000001FF81F1A
:10308000F800000000000000000000000000000048
:103090000000000000000000000000000000000030
:1030A000000000000007000700070000000000000B
:1030B00000000000020006000E001C003800700036
:1030C000E001C0038007000E001C000000000000AB
:1030D0000000000FF01C381C781CF81CF81DB81DEF
:1030E000B81F381F381E381C380FF00000000000D1
:1030F0000000000180018003801F801F8003800387
:103100008003800380038003801FF0000000000024
:103110000000000FE01C701C380038007000E00157
:10312000C0038007000E381C381FF80000000000A4
:103130000000000FE01C701C380038007003C00352
:10314000C0007000381C381C700FE0000000000048
:1031500000000000E001E003E006E00CE018E01FE2
:10316000F81FF800E000E000E003F80000000000B5
:103170000000001FF81C001C001C001C001FE01FAA
:10318000F0007800381C381C700FE00000000000D0
:1031900000000003E007000E001C001C001FF01FD1
:1031A000F81C381C381C381C380FF00000000000D8
:1031B0000000001FFC1C1C1C1C1C1C001C003800F8
:1031C0007000E001C0038003800380000000000065
:1031D0000000000FF01C381C381C381F3807E007AF
:1031E000E01CF81C381C381C380FF00000000000F0
:1031F0000000000FF01C381C381C381C381FF80F5A
:10320000F800380038007000E007C000000000003F
:103210000000000000000003800380038000000025
:103220000003800380038000000000000000000015
:103230000000000000000003800380038000000005
:1032400000038003800380070000000000000000EE
:1032500000007000E001C0038007000E001C001C8D
:10326000000E000700038001C000E00070000000B5
:103270000000000000000000003FFC3FFC000000D8
:10328000003FFC3FFC0000000000000000000000C8
:10329000001C000E000700038001C000E000700069
:1032A0007000E001C0038007000E001C0000000059
:1032B0000003C00FF01E7818380038007000E001DD
:1032C000C001C00000000001C001C001C00000003A
:1032D000000FF81C1C1C1C1C1C1C1C1CFC1CFC1CBB
:1032E000FC1CFC1C001C001C001FF007F800000068
:1032F00000000003C007E00E701C381C381C381C8E
:10330000381FF81C381C381C381C3800000000001E
:103310000000001FF00E380E380E380E380FF00F78
:10332000F00E380E380E380E381FF0000000000086
:1033300000000007F00E381C381C001C001C001C8C
:10334000001C001C001C380E3807F00000000000B4
:103350000000001FE00E700E380E380E380E380ECA
:10336000380E380E380E380E701FE00000000000D6
:103370000000001FF80E180E080E000E300FF00FA0
:10338000F00E300E000E080E181FF80000000000AE
:103390000000001FF80E180E080E000E300FF00F80
:1033A000F00E300E000E000E001F000000000000A6
:1033B00000000007F00E381C381C381C001C001CD4
:1033C000001CF81C381C380E3807F80000000000FC
:1033D0000000001C701C701C701C701C701FF01F03
:1033E000F01C701C701C701C701C70000000000031
:1033F0000000000FE003800380038003800380034C
:103400008003800380038003800FE0000000000041
:1034100000000001FC00700070007000700070007F
:103420007038703870387038700FE000000000009D
:103430000000001E380E380E700EE00FC00F800F17
:10344000800FC00EE00E700E381E38000000000025
:103450000000001F000E000E000E000E000E000EF9
:10346000000E000E080E180E381FF80000000000B5
:103470000000001C1C1E3C1F7C1FFC1FFC1DDC1CD4
:103480009C1C1C1C1C1C1C1C1C1C1C000000000088
:103490000000001C1C1C1C1E1C1F1C1F9C1DDC1C77
:1034A000FC1C7C1C3C1C1C1C1C1C1C000000000088
:1034B00000000003E007F00E381C1C1C1C1C1C1C28
:1034C0001C1C1C1C1C0E3807F003E0000000000050
:1034D0000000001FF00E380E380E380E380FF00FB7
:1034E000F00E000E000E000E001F00000000000095
:1034F00000000003E00F780E381C1C1C1C1C1C1C58
:103500001C1C7C1CFC0FF80FF8003800FC000000AD
:103510000000001FF00E380E380E380E380FF00F76
:10352000F00E700E380E380E381E38000000000005
:103530000000000FF01C381C381C381C000FE0077E
:10354000F000381C381C381C380FF0000000000058
:103550000000001FFC19CC11C401C001C001C00152
:10356000C001C001C001C001C007F00000000000A0
:103570000000001C701C701C701C701C701C701CE7
:10358000701C701C701C701C700FE00000000000AC
:103590000000001C701C701C701C701C701C701CC7
:1035A000701C701C700EE007C0038000000000005B
:1035B0000000001C1C1C1C1C1C1C1C1C1C1C9C1C1F
:1035C0009C1C9C0FF80FF8077007700000000000AB
:1035D0000000001C701C701C700EE007C00380030C
:1035E0008007C00EE01C701C701C70000000000002
:1035F0000000001C701C701C701C701C700EE0071A
:10360000C003800380038003800FE00000000000FF
:103610000000001FF81C381838107000E001C003CB
:103620008007000E081C181C381FF800000000005E
:1036300000000007F0070007000700070007000769
:1036400000070007000700070007F0000000000067
:10365000000000100018001C000E0007000380018D
:10366000C000E000700038001C00070000000000EF
:1036700000000007F0007000700070007000700023
:1036800070007000700070007007F0000000000013
:1036900000018003C007E00E701C3800000000002D
:1036A000000000000000000000000000000000001A
:1036B000000000000000000000000000000000000A
:1036C00000000000000000000000007FFF7FFF00FE
:1036D0000000001C001C00070007000000000000A4
:1036E00000000000000000000000000000000000DA
:1036F00000000000000000000000000FE00070006B
:10370000700FF01C701C701C700FD80000000000BF
:103710000000001E000E000E000E000FF00E380E0E
:10372000380E380E380E380E381BF000000000003E
:1037300000000000000000000000000FE01C701CF2
:10374000701C001C001C701C700FE00000000000CA
:1037500000000000F80070007000700FF01C701C7A
:10376000701C701C701C701C700FD80000000000D2
:1037700000000000000000000000000FE01C701CB2
:10378000701FF01C001C701C700FE0000000000097
:1037900000000003E007700770070007001FE01F2C
:1037A000E007000700070007001FC000000000003E
:1037B00000000000000000000000000FD81C701C7A
:1037C000701C701C700FF007F000701C700FE00090
:1037D0000000001E000E000E000E000EF00F380F4D
:1037E000380E380E380E380E381E38000000000033
:1037F00000000001C001C001C000000FC001C001F5
:10380000C001C001C001C001C00FF80000000000ED
:10381000000000007000700070000003F0007000F5
:103820007000700070007000701C700CF007E000F9
:103830000000001E000E000E000E000E380E700E6E
:10384000E00FC00EE00E700E381E380000000000C1
:103850000000000FC001C001C001C001C001C001D3
:10386000C001C001C001C001C00FF800000000008D
:1038700000000000000000000000001FF81C9C1C5D
:103880009C1C9C1C9C1C9C1C9C1C9C000000000004
:1038900000000000000000000000001FE01C701C81
:1038A000701C701C701C701C701C700000000000EC
:1038B00000000000000000000000000FE01C701C71
:1038C000701C701C701C701C700FE0000000000069
:1038D00000000000000000000000001BF00E380E89
:1038E000380E380E380E380FF00E000E001F000094
:1038F00000000000000000000000001FB038E038A9
:10390000E038E038E038E01FE000E000E001F000DF
:1039100000000000000000000000001EF00FF80F83
:10392000380E000E000E000E001F00000000000008
:1039300000000000000000000000000FE01C301C30
:10394000300F8003E0187018700FE00000000000D6
:1039500000000000000100030007001FF00700073F
:1039600000070007000770077003E0000000000078
:1039700000000000000000000000001C701C701C13
:10398000701C701C701C701C700FD80000000000B0
:1039900000000000000000000000001C701C701CF3
:1039A000701C701C700EE007C00380000000000057
:1039B00000000000000000000000001C1C1C1C1C7B
:1039C0001C1C9C1C9C0FF807700770000000000076
:1039D00000000000000000000000001CE01CE00FE0
:1039E000C0078007800FC01CE01CE0000000000042
:1039F00000000000000000000000000E380E380E2D
:103A0000380E380E3807F003E000E001C01F8000D8
:103A100000000000000000000000001FE018E0119E
:103A2000C0038007000E201C601FE00000000000A3
:103A300000000001F803800380038007001C001CC5
:103A400000070003800380038001F80000000000ED
:103A50000001C001C001C001C001C001C001C0011E
:103A6000C001C001C001C001C001C001C000000010
:103A70000000001F8001C001C001C000E00038004C
:103A80003800E001C001C001C01F8000000000003C
:103A90000000001F1C3B9C39DC38F80000000000CF
:103AA0000000000000000000000000000000000016
:103AB00000000000F001F80198019801F800F00002
:103AC00000000000000000000000000000000000F6
:103AD0000000001FF80E180E080E000E000FF00E6A
:103AE000380E380E380E380E381FF0000000000077
:103AF0000000001FF80E180E080E000E000E000E3B
:103B0000000E000E000E000E001F0000000000005E
:103B100000000007F00C701C701C701C701C701CE6
:103B2000701C701C701C701C703FF8301820080648
:103B30006000001FF80E180E080E000E300FF00F78
:103B4000F00E300E000E080E181FF80000000000E6
:103B500000000033CC1998199819980DB00FF00F88
:103B6000F01DB819981998199833CC00000000007E
:103B700000000017E01E701C381038007003C003EE
:103B8000C0007000381C381C700FE00000000000FE
:103B90000000001C701C701C701C701C701C701CC1
:103BA000F01DF01F701E701C701C700000000003E0
:103BB0008000001C701C701C701C701C701C701C21
:103BC000F01DF01F701E701C701C700000000000C3
:103BD00000000003F006700E700E700E700E700E76
:103BE000700E700E700E700E701C700000000000E1
:103BF0000000001FF01C701C701C701C701C701CDE
:103C0000701C701C701C701C701C70000000000088
:103C10000000001C701C701C701C701C701C700F4D
:103C2000F007F0007000701CE00FC0000000000002
:103C30000000001FF033983398339833983398334B
:103C40009833981FF00380038007C0000000000035
:103C50000000001C701C701C701C701C701C701C00
:103C6000701C701C701C701C701FF800180008007D
:103C70000000001C701C701C701C701C701C701FDD
:103C8000F00FF00070007000700070000000000085
:103C9000000000399C399C399C399C399C399C39ED
:103CA0009C399C399C399C399C3FFC0000000000E9
:103CB000000000399C399C399C399C399C399C39CD
:103CC0009C399C399C399C399C3FFE0006000200BF
:103CD0000000003F002E002E000E000E000FF00E20
:103CE000380E380E380E380E381FF0000000000075
:103CF000000000381C381C381C381C381C3F9C390C
:103D0000DC39DC39DC39DC39DC3F9C0000000000A8
:103D10000000001F000E000E000E000E000FF00E3F
:103D2000380E380E380E380E381FF0000000000034
:103D30000000000FE01C701C380038003803F80346
:103D4000F8003800381C381C700FE000000000003C
:103D50000000003CF81D9C1D9C1D9C1D9C1F9C1F71
:103D60009C1D9C1D9C1D9C1D9C3CF800000000009F
:103D70000000000FF81C701C701C701C701C701F61
:103D8000F00FF01C701C701C7038780000000000F0
:103D9000000000001807F80F000E000E000FF00ED4
:103DA000380E380E380E380E3807F00000000000CC
:103DB00000000000000000000000001FF00E380EA0
:103DC000380FF00E380E380E381FF00000000000DB
:103DD00000000000000000000000001FF81C381C5C
:103DE000001C001C001C001C001C00000000000047
:103DF000000000000000000000000007F00E700E40
:103E0000700E700E700E700E701FF810080000001B
:103E10000000000000000006C000000FE01C701C45
:103E2000701FF01C001C701C700FE00000000000F0
:103E3000000000000000000000000019CC19CC199F
:103E4000CC0DD807F00DD819CC19CC00000000001B
:103E500000000000000000000000000FE01C7000E7
:103E60007003E0007000701C700FE00000000000A4
:103E700000000000000000000000001C701C701C0E
:103E8000701CF01D701E701C701C70000000000083
:103E90000000000000000001C000000E380E380EC7
:103EA000380E780EB80F380E380E380000000000BB
:103EB00000000000000000000000000E380E380E68
:103EC000700FE00E700E380E380E38000000000043
:103ED000000000000000000000000003F8073807A1
:103EE0003807380738073807380E38000000000058
:103EF00000000000000000000000003838383838AA
:103F0000383C783AB8393838383838000000000082
:103F100000000000000000000000001C701C701C6D
:103F2000701C701FF01C701C701C700000000000E2
:103F300000000000000000000000001FF01C701CCA
:103F4000701C701C701C701C701C70000000000045
:103F500000000000000000000000001FF0139003AC
:103F60008003800380038003800380000000000042
:103F700000000000000000000003801FF03BB83B81
:103F8000B83BB83BB80FF00380038003800000000B
:103F900000000000000000000000001C701C701CED
:103FA000701C701C701C701C701FF8001800000042
:103FB00000000000000000000000001C701C701CCD
:103FC000701C700FF00070007000700000000000A6
:103FD0000000000000000000000000399C399C39FE
:103FE0009C399C399C399C399C3FFC0000000000A6
:103FF0000000000000000000000000399C399C39DE
:104000009C399C399C399C399C3FFE00060000007D
:1040100000000000000000000000003E002E000E26
:10402000000FF00E380E380E380FF00000000000C0
:104030000000000000000000000000381C381C38A0
:104040001C3F9C39DC39DC39DC3F9C00000000005F
:1040500000000000000000000000000E000E000E36
:10406000000FF00E380E380E380FF0000000000080
:1040700000000000000000000000000FE01C7000C5
:104080007003F0007000701C700FE0000000000072
:10409000000000000000000000000038F8399C39E2
:1040A0009C399C3F9C399C399C38F80000000000EA
:1040B000000000000000000000000007F80E380EAD
:1040C000380E3807F80E380E381C3800000000088B
:1040D0000C20A6000000000000000000000000000E
:1040E0000020202020202000200000002850500028
:1040F0000000000000000000002828FC2850FC50B0
:10410000500000002078A8A0603028A8F02000000F
:104110000048A8B0502834544800000000205050F7
:1041200078A8A8906C0000004040800000000000CB
:104130000000000004081010101010100804000007
:10414000402010101010101020400000000020A887
:104150007070A8200000000000202020F8202020FF
:10416000000000000000000000000000404080004F
:1041700000000000F8000000000000000000000047
:1041800000000000400000000810101020204040F7
:10419000408000000070888888888888700000004F
:1041A00000206020202020207000000000708888FF
:1041B00010204080F800000000708808300808884F
:1041C000700000000010305050907810180000006F
:1041D00000F88080F008088870000000007090806F
:1041E000F08888887000000000F8901020202020BF
:1041F00020000000007088887088888870000000A7
:10420000007088888878084870000000000000204E
:10421000000000002000000000000000200000005E
:104220002020000004081020402010080400000096
:10423000000000F80000F800000000004020100816
:104240000408102040000000007088881020200022
:104250002000000000708898A8A8B88078000000AE
:104260000020203050507848CC00000000F0484832
:1042700070484848F000000000788880808080887E
:104280007000000000F0484848484848F00000002E
:1042900000F8485070504048F800000000F84850BE
:1042A00070504040E000000000384880809C884802
:1042B0003000000000CC484878484848CC00000056
:1042C00000F8202020202020F8000000007C1010A2
:1042D0001010101090E0000000EC48506050504862
:1042E000EC00000000E0404040404044FC00000082
:1042F00000D8D8D8D8A8A8A8A800000000DC486832
:1043000068585848E80000000070888888888888C5
:104310007000000000F0484870404040E00000009D
:10432000007088888888E8987018000000F0484875
:1043300070504848EC0000000078888060100888C1
:10434000F000000000F8A8202020202070000000CD
:1043500000CC4848484848483000000000CC484855
:10436000505030202000000000A8A8A870505050E5
:104370005000000000D8505020205050D8000000BD
:1043800000D85050202020207000000000F890102D
:1043900020204048F8000000382020202020202045
:1043A000203800004040402020101010080000007D
:1043B000701010101010101010700000205000002D
:1043C00000000000000000000000000000000000ED
:1043D0000000FC00200000000000000000000000C1
:1043E00000000000304838483C00000000C0404059
:1043F0007048484870000000000000003848404005
:104400003800000000180808384848483C00000000
:10441000000000003048784038000000001C2020D8
:104420007820202078000000000000003C48304048
:104430007844380000C0404070484848EC00000014
:10444000002000006020202070000000001000000C
:10445000301010101010E00000C040405C50704858
:10446000EC00000000E0202020202020F8000000C8
:1044700000000000F0A8A8A8A800000000000000AC
:10448000F0484848EC000000000000003048484870
:104490003000000000000000F04848487040E00094
:1044A000000000003848484838081C0000000000A0
:1044B000D8604040E0000000000000007840300874
:1044C000780000000000202070202020180000004C
:1044D00000000000D84848483C00000000000000F0
:1044E000EC4850302000000000000000A8A87050E8
:1044F0005000000000000000D8502050D8000000FC
:1045000000000000EC4850302020C00000000000F7
:1045100078102020780000001810101020101010C3
:1045200010180010101010101010101010101000A3
:10453000602020201020202020600040A4180000CF
:10454000000000000000000000304848300000007B
:104550000000000000F8484070484848F0000000A3
:1045600000F8484040404040E00000000038484823
:1045700048484848FC84005000F848507050404873
:10458000F800000000A8A8A870F8A8A8A8000000DB
:1045900000F0880830080808F000000000EC4858D7
:1045A00058686848DC00003000EC48585868684893
:1045B000DC000000003C484848484848CC00000067
:1045C00000FC484848484848CC00000000D85050FB
:1045D00020204040800000000070A8A8A8A87020FB
:1045E0007000000000CC484848484848FC040000DF
:1045F00000CC4848483808081C00000000D6545435
:1046000054545454FE00000000D65454545454548E
:10461000FE02000000E0C04070484848F000000082
:1046200000EE444464545454EE00000000E0404066
:1046300070484848F000000000E0900838080890F2
:104640006000000000EC525252725252EC00000026
:10465000003C4848483848489C000000000830406A
:1046600070484848300000000000000070283028E2
:10467000700000000000000078282020700000007A
:1046800000000000182828287C44000000002800B2
:104690003048784030000000000000005454385486
:1046A0005400000000000000700830087000000096
:1046B00000000000CC485868CC000000000030002A
:1046C000CC485868CC000000000000004850605002
:1046D00048000000000000001C2828284C000000B2
:1046E00000000000446C544444000000000000003E
:1046F000CC487848CC00000000000000FC48484846
:10470000CC000000000000007C54101038000000B5
:1047100000000000385454543810380000000000E5
:10472000CC484848FC04000000000000CC48380891
:104730000C00000000000000545454547C000000A1
:1047400000000000545454547E0200000000000099
:10475000E0A030287000000000000000C64464544F
:10476000E60000000000000060203028700000001B
:104770000000000030481848300000000000000031
:10478000C8547454C8000000000000003C48483879
:104790004C00003CE781BD81BD81BD81BD81FF3CF6
:1047A000E7818181BD81BD81BD81FF3CE781818140
:1047B0008181BD81BD81FF3CE781818181818181D2
:1047C000BD81FF3CE7818181818181818181FFFF02
:1047D000FF003F3F000F0F000303000000003F3FBA
:1047E000000F0F000303000000000000000F0F0087
:1047F00003030000000000000000000003030000AD
:104800000010101010105438100000000010385420
:10481000101010101000000000000010087C08109C
:104820000000000000000010207C201000000000AC
:1048300000003C0C14244480000000000000804470
:1048400024140C3C00000000003C42A581A59942C4
:104850003C000000003C7EDBFFFFDB663C0000000C
:10486000003C42A58199A5423C000000003C7EDB53
:10487000FFFFE75A3C000000003C428181818142F9
:104880003C000000003C7EFFFFFFFF7E3C0000007C
:1048900000FF818181818181FF00000000FFFFFF17
:1048A000FFFFFFFFFF0000FFFFFFFFFFFFFFFFFF16
:1048B000FFFFFFFFFFFFFFFFFFFFFFFFFFFFFFFF08
:1048C000FFFFFFFFFFFFFFFFFFFFFFFFFFFFFFFFF8
:1048D000FFFFFFFFFFFFFFFFFFFFFFFFFFFFFFFFE8
:1048E000FFFFFFFFFFFFFFFFFFFFFFFFFFFFFFFFD8
:1048F000FFFFFFFFFFFFFFFFFFFFFFFFFFFFFFFFC8
:10490000FFFFFFFFFFFFFFFFFFFFFFFFFFFFFFFFB7
:10491000FFFFFFFFFFFFFFFFFFFFFFFFFFFFFFFFA7
:10492000FFFFFFFFFFDEF7FFFFFFFFFFFFFFFFFFC0
:10493000FFFFFFFFFFFFFFFFFFFFFFFFFFFFFFFF87
:10494000FFFFFFFFFFFFFFFFFFFFFFFFFFDFFFFF97
:10495000FFFFFFFFFFFFFFFFFFFFFFFFFFFFFFFF67
:10496000FFFFFFFFFFFFFFFFFFFFFFFFFFFFFFFF57
:10497000FFFFFFFFFFFFFFFFFFFFFFFFFFFFFFFF47
:10498000FFFFFFFFFFFFFFFFFFFFFFFFFFFFFFFF37
:10499000FFFFFFFFFFFFFFFFFFFFFFFFFFFFFFFF27
:1049A000FFFFFFFFFFFFFFFFFFFFFFFFFFFFFFFF17
:1049B000FFFFFFDFFFFFFFFFFFFFFFFFFFFFFFFF27
:1049C000FFFFFFFFFFFFFFFFFFFFFFFFFFFFFFFFF7
:1049D000FFFFFFFFFFFFFFFFFFFFFFFFFFFFFFFFE7
:1049E000FFFFFFFFFFFFFFFFFFFFFFFFFFFFFFFFD7
:1049F000FFFFFFFFFFFFFFFFFFFFFFFFFFFFFFFFC7
:104A0000FFFFFFFFFFFFFFFFFFFFFFFFFFFFFFFFB6
:104A1000FFFFFFFFFFFFFFFFFFFFFFFFFFFFFFFFA6
:104A2000FFFFFFFFFFFFFFFFFFFFFFFFFFFFFFFF96
:104A3000FFFFFFDEF7FFFFFFFFFFFFFFFFFFFFFFAF
:104A4000FFFFFFFFFFFFFFFFFFFFFFFFFFFFFFFF76
:104A5000FFFFFFFFFFFFFFFFFFFFFFFFFFFFFFFF66
:104A6000FFFFFFFFFFFFFFFFFFFFFFFFFFFFFFFF56
:104A7000FFFFFFFFFFFFFFFFFFFFFF9EEF1CDF5D5C
:104A8000E7FFFFFFFFFFFFFFFFFFFFFFFFFFFFFF4E
:104A9000FFFFFFFFFFFFFFFFFFFFFFFFFFFFFFFF26
:104AA000FFFFFFFFFFFFFFFFFFFFFFFFFFFFFFFF16
:104AB000FFFFFFFFFFFFFFFFFFFFFFFFFFFFFFFF06
:104AC000FFFFFFFFFFFFFFFFFFFFFFFFFFFFFFFFF6
:104AD000FFFFFFFFFFFFFFFFFFFFFFFFFFFCDE51B8
:104AE000846E6B4D63D394BFF7FFFFFFFFFFFFFFA3
:104AF000FFFFFFFFFFFFFFFFFFFFFFFFFFFFFFFFC6
:104B0000FFFFFFFFFFFFFFFFFFFFFFFFFFFFFFFFB5
:104B1000FFFFFFFFFFFFFFFFFFFFFFFFFFFFFFFFA5
:104B2000FFFFFFFFFFFFFFFFFFFFFFFFFFFFFFFF95
:104B3000FFFFFFFFFFFFFFFFFFFFFFFFFFFFFFFF85
:104B4000F772846E6B928C2D638A4AF7BDFFFFFF6C
:104B5000FFFFFFFFFFFFFFFFFFFFFFFFFFFFFFFF65
:104B6000FFFFFFFFFFFFFFFFFFFFFFFFFFFFFFFF55
:104B7000FFFFFFFFFFFFFFFFFFFFFFFFFFFFFFFF45
:104B8000FFFFFFFFFFFFFFFFFFFFFFFFFFFFFFFF35
:104B9000FFFFFFFFFFFFFFFFFFFFFFFFFFFFFFFF25
:104BA000FFFFFF18BE8E6BCF739EEF55A52C6335AC
:104BB000A5FFFFFFFFFFFFFFFFFFFFFFFFFFFFFF5F
:104BC000FFFFFFFFFFFFFFFFFFFFFFFFFFFFFFFFF5
:104BD000FFFFFFFFFFFFFFFFFFFFFFFFFFFFFFFFE5
:104BE000FFFFFFFFFFFFFFFFFFFFFFFFFFFFFFFFD5
:104BF000FFFFFFFFFFFFFFFFFFFFFFFFFFFFFFFFC5
:104C0000FFDFFFFFFF9EEF31846D63D7B5FFFF72BB
:104C10008C318418BEFFFFFFFFFFFFFFFFFFFFFF88
:104C2000FFFFFFFFFFFFFFFFFFFFFFFFFFFFFFFF94
:104C3000FFFFFFFFFFFFFFFFFFFFFFFFFFFFFFFF84
:104C4000FFFFFFFFFFFFFFFFFFFFFFFFFFFFFFFF74
:104C5000FFFFFFFFFFFFFFFFFFFFFFFFFFFFFFFF64
:104C6000FFFFFFDFFFFFFFFFFF96AD6E6B5184DF9D
:104C7000F7F8B50C5BCF735DEFFFFFFFFFFFFFFFA2
:104C8000FFFFFFFFFFFFFFFFFFFFFFFFFFFFFFFF34
:104C9000FFFFFFFFFFFFFFFFFFFFFFFFFFFFFFFF24
:104CA000FFFFFFFFFFFFFFFFFFFFFFFFFFFFFFFF14
:104CB000FFFFFFFFFFFFFFFFFFFFFFFFFFFFFFFF04
:104CC000FFFFFFFFFFDFFFFFFFFFFF3CE7CF736E3C
:104CD0006B59C69EEFAF736E6B18BEFFFFDFFFFF11
:104CE000FFFFFFFFFFFFFFFFFFFFFFFFFFFFFFFFD4
:104CF000FFFFFFFFFFFFFFFFFFFFFFFFFFFFFFFFC4
:104D0000FFFFFFFFFFFFFFFFFFFFFFFFFFFFFFFFB3
:104D1000FFFFFFFFFFFFFFFFFFFFFFFFFFFFFFFFA3
:104D2000FFFFFFFFFFFFFFDFFFFFFFFFFFFFFF347E
:104D3000A56E6B928CFFFF55A56E6B928CBFF7FF33
:104D4000FFFFFFFFFFFFFFFFFFFFFFFFFFFFFFFF73
:104D5000FFFFFFFFFFFFFFFFFFFFFFFFFFFFFFFF63
:104D6000FFFFFFFFFFFFFFFFFFFFFFFFFFFFFFFF53
:104D7000FFFFFFFFFFFFFFFFFFFFFFFFFFFFFFFF43
:104D8000FFFFFFFFFFFFFFFFFFFFFFFFFFDFFFFF53
:104D9000FFDBD6AF73AF731CDF1CDFAF73EF7B7A23
:104DA000CEFFFFFFFFFFFFFFFFFFFFFFFFFFFFFF44
:104DB000FFFFFFFFFFFFFFFFFFFFFFFFFFFFFFFF03
:104DC000FFFFFFFFFFFFFFFFFFFFFFFFFFFFFFFFF3
:104DD000FFFFFFFFFFFFFFFFFFFFFFFFFFFFFFFFE3
:104DE000FFFFFFFFFFFFFFFFFFFFFFFFFFFFFFFFD3
:104DF000FFDFFFFFFFD3946E6B55A5FFFFF49CF020
:104E00007B34A5FFFFFFFFFFFFFFFFFFFFFFFFFF5B
:104E1000FFFFFFFFFFFFFFFFFFFFFFFFFFFFFFFFA2
:104E2000FFFFFFFFFFFFFFFFFFFFFFFFFFFFFFFF92
:104E3000FFFFFFFFFFFFFFFFFFFFFFFFFFFFFFFF82
:104E4000FFFFFFFFFFFFFFFFFFFFFFFFFFFFFFFF72
:104E5000FFFFFFDFFFFFFF59C68E6B51847EEF9A85
:104E6000CE51849294FCDEDFFFFFFFFFFFFFFFFFC8
:104E7000FFFFFFFFFFFFFFFFFFFFFFFFFFFFFFFF42
:104E8000FFFFFFFFFFFFFFFFFFFFFFFFFFFFFFFF32
:104E9000FFFFFFFFFFFFFFFFFFFFFFFFFFFFFFFF22
:104EA000FFFFFFFFFFFFFFFFFFFFFFFFFFFFFFFF12
:104EB000FFFFFFFFFFFFFFFFFF9EF7928C107CF8C4
:104EC000BDDFF7149DF39CB7B5FFFFFFFFFFFFDFCA
:104ED000FFFFFFFFFFFFFFFFFFFFFFFFFFFFFFFFE2
:104EE000FFFFFFFFFFFFFFFFFFFFFFFFFFFFFFFFD2
:104EF000FFFFFFFFFFFFFFFFFFFFFFFFFFFFFFFFC2
:104F0000FFFFFFFFFFFFFFFFFFFFFFFFFFFFFFFFB1
:104F1000FFFFFFFFFFFFFFFFFFFFFFFFFFF7BD30BA
:104F200084D394DFF759C676AD55AD3CE7FFFFFF5C
:104F3000FFFFFFFFFFFFFFFFFFFFFFFFFFFFFFFF81
:104F4000FFFFFFFFFFFFFFFFFFFFFFFFFFFFFFFF71
:104F5000FFFFFFFFFFFFFFFFFFFFFFFFFFFFFFFF61
:104F6000FFFFFFFFFFFFFFFFFFFFFFFFFFFFFFFF51
:104F7000FFFFFFFFFFFFFFFFFFFFFFFFFFFFFF5CE4
:104F8000E7D294B39479CE7EEFF7BDF7BD18C6FF94
:104F9000FFFFFFFFFFFFFFFFFFFFFFFFFFFFFFFF21
:104FA000FFFFFFFFFFFFFFFFFFFFFFFFFFFFFFFF11
:104FB000FFFFFFFFFFFFFFFFFFFFFFFFFFFFFFFF01
:104FC000FFFFFFFFFFFFFFFFFFFFFFFFFFFFFFFFF1
:104FD000FFFFFFFFFFFFFFFFFFFFFFFFFFFFFFFFE1
:104FE000FFDFFFF7BD55AD75ADBEF79ACE9ACE96F1
:104FF000B55DEFFFFFFFFFFFFFFFFFFFFFFFFFFFBD
:10500000FFFFFFFFFFFFFFFFFFFFFFFFFFFFFFFFB0
:10501000FFFFFFFFFFFFFFFFFFFFFFFFFFFFFFFFA0
:10502000FFFFFFFFFFFFFFFFFFFFFFFFFFFFFFFF90
:10503000FFFFFFFFFFFFFFFFFFFFFFFFFFFFFFFF80
:10504000FFFFFFFFFFFBDEF7BD96ADBAD67DEF9AFF
:10505000CE18BE38C6FFFFDFFFFFFFFFFFFFFFFFD9
:10506000FFFFFFFFFFFFFFFFFFFFFFFFFFFFFFFF50
:10507000FFFFFFFFFFFFFFFFFFFFFFFFFFFFFFFF40
:10508000FFFFFFFFFFFFFFFFFFFFFFFFFFFFFFFF30
:10509000FFFFFFFFFFFFFFFFFFFFFFFFFFFFFFFF20
:1050A000FFFFFFFFFFFFFFDEF759CE59CE95ADDEC4
:1050B000F7BAD6BAD675ADBEF7FFFFFFFFFFFFFF09
:1050C000FFFFFFFFFFFFFFFFFFFFFFFFFFFFFFFFF0
:1050D000FFFFFFFFFFFFFFFFFFFFFFFFFFFFFFFFE0
:1050E000FFFFFFFFFFFFFFFFFFFFFFFFFFFFFFFFD0
:1050F000FFFFFFFFFFFFFFFFFFFFFFFFFFFFFFFFC0
:10510000FFFFFFFFFFFFFFFFFFFFFFFBDEBAD695AC
:10511000ADFBDE5CE7DBD6B6B59ACEFFFFDFFFFF67
:10512000FFDFFFFFFFFFFFFFFFFFFFFFFFFFFFFFAF
:10513000FFFFFFFFFFFFFFFFFFFFFFFFFFFFFFFF7F
:10514000FFFFFFFFFFFFFFFFFFFFFFFFFFFFFFFF6F
:10515000FFFFFFFFFFFFFFFFFFFFFFFFFFFFFFFF5F
:10516000FFFFFFFFFFFFFFFFFFFFFFFFFF9EEFDBE4
:10517000D659C695ADFFFF9ACE38C675ADFFFFDF95
:10518000FFFFFFFFFFFFFFFFFFFFFFDFFFFFFFFF4F
:10519000FFFFFFFFFFFFFFFFFFFFFFFFFFFFFFFF1F
:1051A000FFFFFFFFFFFFFFFFFFFFFFFFFFFFFFFF0F
:1051B000FFFFFFFFFFFFFFFFFFFFFFFFFFFFFFFFFF
:1051C000FFFFFFFFFFFFFFFFFFFFFFFFFFFFFFFFEF
:1051D000FFDBDEBAD6149D5DE7FBDE38C6F39CFB31
:1051E000DEFFFFFFFFFFFFFFFFFFFFFFFFFFFFFFF0
:1051F000FFFFFFFFFFFFFFFFFFFFFFFFFFFFFFFFBF
:10520000FFFFFFFFFFFFFFFFFFFFFFFFFFFFFFFFAE
:10521000FFFFFFFFFFFFFFFFFFFFFFFFFFFFFFFF9E
:10522000FFFFFFFFFFFFFFFFFFFFFFFFFFFFFFFF8E
:10523000FFFFFF7DEF79CE96ADD7B5DFF796AD34A2
:10524000A595ADFFFFDFFFFFFFFFFFFFFFFFFFFFA4
:10525000FFFFFFFFFFFFFFFFFFFFFFFFFFFFFFFF5E
:10526000FFFFFFFFFFFFFFFFFFFFFFFFFFFFFFFF4E
:10527000FFFFFFFFFFFFFFFFFFFFFFFFFFFFFFFF3E
:10528000FFFFFFFFFFFFFFFFFFFFFFDFFFFFFFFF4E
:10529000FFFFFFFFFFFFFF59C696ADB294BFF7189F
:1052A000BED394928C7DEFFFFFFFFFFFFFFFFFFF58
:1052B000FFFFFFFFFFFFFFFFFFFFFFFFFFFFFFFFFE
:1052C000FFFFFFFFFFFFFFFFFFFFFFFFFFFFFFFFEE
:1052D000FFFFFFFFFFFFFFFFFFFFFFFFFFFFFFFFDE
:1052E000FFFFFFFFFFFFFFFFFFFFFFFFFFFFFFFFCE
:1052F000FFFFFFFFFFDFFFFFFF3DE7149D518459D4
:10530000C69EEF928C308417BEFFFFFFFFFFFFFFAA
:10531000FFFFFFFFFFFFFFFFFFFFFFFFFFFFFFFF9D
:10532000FFFFFFFFFFFFFFFFFFFFFFFFFFFFFFFF8D
:10533000FFFFFFFFFFFFFFFFFFFFFFFFFFFFFFFF7D
:10534000FFFFFFFFFFFFFFFFFFFFFFFFFFFFFFFF6D
:10535000FFFFFFFFFFFFFFFFFFDFFFFFFF55A5314F
:1053600084D394FFFF55A5EF7B928CDEF7FFFFFF00
:10537000FFFFFFFFFFFFFFFFFFFFFFFFFFFFFFFF3D
:10538000FFFFFFFFFFFFFFFFFFFFFFFFFFFFFFFF2D
:10539000FFFFFFFFFFFFFFFFFFFFFFFFFFFFFFFF1D
:1053A000FFFFFFFFFFFFFFFFFFFFFFFFFFFFFFFF0D
:1053B000FFFFFFFFFFFFFFFFFFFFFFDFFFFFFFBB61
:1053C000D6107CAF731CDFDBD6EF73AF739ACEFFC2
:1053D000FFFFFFFFFFFFFFFFFFFFFFFFFFFFFFFFDD
:1053E000FFFFFFFFFFFFFFFFFFFFFFFFFFFFFFFFCD
:1053F000FFFFFFFFFFFFFFFFFFFFFFFFFFFFFFFFBD
:10540000FFFFFFFFFFFFFFFFFFFFFFFFFFFFFFFFAC
:10541000FFFFFFFFFFFFFFFFFFFFFFFFFFDFF7FFC4
:10542000FFDFF7B3948E6B55A5FFFF928C6E6B1464
:105430009DFFFFFFFFDFFFFFFFFFFFFFFFFFFFFFFE
:10544000FFFFFFFFFFFFFFFFFFFFFFFFFFFFFFFF6C
:10545000FFFFFFFFFFFFFFFFFFFFFFFFFFFFFFFF5C
:10546000FFFFFFFFFFFFFFFFFFFFFFFFFFFFFFFF4C
:10547000FFFFFFFFFFFFFFFFFFFFFFFFFFFFFFFF3C
:10548000FFDFFFFFFF38C6AF73CF739EEF39C66DE6
:1054900063CF733DE7FFFFDFFFFFFFDFFFFFFFFF8E
:1054A000FFFFFFFFFFFFFFFFFFFFFFFFFFFFFFFF0C
:1054B000FFFFFFFFFFFFFFFFFFFFFFFFFFFFFFFFFC
:1054C000FFFFFFFFFFFFFFFFFFFFFFFFFFFFFFFFEC
:1054D000FFFFFFFFFFFFFFFFFFFFFFFFFFFFFFFFDC
:1054E000FFFFFFFFFFDFF7BEF731846E6BB7B5DF5D
:1054F000F7107C4D6396ADFFFFFFFFFFFFFFFFFF3F
:10550000FFDFFFFFFFFFFFFFFFFFFFFFFFFFFFFFCB
:10551000FFFFFFFFFFFFFFFFFFFFFFFFFFFFFFFF9B
:10552000FFFFFFFFFFFFFFFFFFFFFFFFFFFFFFFF8B
:10553000FFFFFFFFFFFFFFFFFFFFFFDFFFFFFFDFBB
:10554000FFFFFF38C6B6B5DFFFFFFF55A58E6B9294
:105550008CFFFFB7AD2D63107C7EEFFFFFFFFFFFD9
:10556000FFFFFFFFFFFFFFFFFFFFFFFFFFFFFFFF4B
:10557000FFFFFFFFFFFFFFFFFFFFFFFFFFFFFFFF3B
:10558000FFFFFFFFFFFFFFFFFFFFFFFFFFFFFFFF2B
:10559000FFFFFFFFFFFFFFFFFFFFFFFFFFDEFFFF3C
:1055A000FFDFFFFFFF7DEFA6314000C73131846E82
:1055B0006B2D5B928C5DE78E6B4D6318BEFFFFFF1A
:1055C000FFDFFFFFFFFFFFFFFFFFFFFFFFFFFFFF0B
:1055D000FFFFFFFFFFFFFFFFFFFFFFFFFFFFFFFFDB
:1055E000FFFFFFFFFFFFFFFFFFFFFFFFFFFFFFFFCB
:1055F000FFFFFFFFFFFFFFFFFFFFFFFFFFDEFFFEDD
:10560000FFFFFFFFFFDFFFFFFFFFFFCA5A652962B1
:1056100008E318CF73318449426A4A4D63928CBFC4
:10562000F7FFFFDFFFFFFFFFFFFFFFFFFFFFFFFFB2
:10563000FFFFFFFFFFFFFFFFFFFFFFFFFFFFFFFF7A
:10564000FFFFFFFFFFFFFFFFFFFFFFFFFFFFFFFF6A
:10565000FFFFFFFFFFFFFFFFFFFFFFFFFFFFFFDE7B
:10566000FF3BE7B9D63BE77CEFFFFFFFFF38C645BE
:1056700029E7392842083AC731928CF49C8E6BCBCB
:1056800052F49CFFFFFFFFFFFFDFFFFFFFFFFFFF65
:10569000FFFFFFFFFFFFFFFFFFFFFFFFFFFFFFFF1A
:1056A000FFFFFFFFFFFFFFFFFFFFFFFFFFFFFFFF0A
:1056B000FFFFFFFFFFFFFFFFFFFFFFFFFFFFFFDF1A
:1056C000FFFFFF7CEFFADEFADE7CEFAA526D6B9AE9
:1056D000CE8A522421073A073A4842694A2842E8CA
:1056E000394D636942928CFFFFDFFFFFFFFFFFFF31
:1056F000FFFFFFFFFFFFFFFFFFFFFFFFFFFFFFFFBA
:10570000FFFFFFFFFFFFFFFFFFFFFFFFFFFFFFFFA9
:10571000FFFFFFFFFFFFFFFFFFFFFFFFFFFFFFFF99
:10572000FFFFFFFFFFDEFF1AE73AE7FDFFD9DE6468
:1057300029C318C3184529E739073A2842494A6955
:105740004A694A083AA629C310452138C6FFFFDF37
:10575000FFFFFFFFFFFFFFFFFFFFFFFFFFFFFFFF59
:10576000FFFFFFFFFFFFFFFFFFFFFFFFFFFFFFFF49
:10577000FFFFFFFFFFFFFFFFFFFFFFFFFFFFFFFF39
:10578000FFFFFFFFFFFFFFFFFFFEFF3BE73BE7FEE3
:10579000FFCD736529C739A631C731073A083A28C2
:1057A00042894A4942083A083AE73145216208618C
:1057B0000855ADFFFFDFFFFFFFFFFFDFFFFFFFFF2C
:1057C000FFFFFFFFFFFFFFFFFFFFFFFFFFFFFFFFE9
:1057D000FFFFFFFFFFFFFFFFFFFFFFFFFFFFFFFFD9
:1057E000FFFFFFFFFFFFFFFFFFFFFFFFFFFFFFDEEA
:1057F000FFDDF753A5E2188529A631C731E739083F
:105800003A4942694A694A694A2842C731A629A6E3
:105810003186292000AA52FFFFDFFFFFFFFFFFFFB5
:10582000FFFFFFFFFFFFFFFFFFFFFFFFFFFFFFFF88
:10583000FFFFFFFFFFFFFFFFFFFFFFFFFFFFFFFF78
:10584000FFFFFFFFFFFFFFFFFFFFFFFFFFFFFFFF68
:10585000FFFFFFFFFFFFFF1BDFF39C073A652907F0
:105860003A083A28424942894A694A2842C731C718
:1058700031A6314521E31834A57DEFFFFFDFFFFF9F
:10588000FFFFFFFFFFFFFFFFFFFFFFFFFFFFFFFF28
:10589000FFFFFFFFFFFFFFFFFFFFFFFFFFFFFFFF18
:1058A000FFFFFFFFFFFFFFFFFFFFFFFFFFFFFFFF08
:1058B000FFFFFFFFFFFFFFFFFFFFFFFFFFFFFF7D7A
:1058C000EF894AA63128422842694A694A48422853
:1058D00042E7398629A63182086E6BFFFFFFFFFF82
:1058E000FFFFFFFFFFDFFFFFFFFFFFFFFFFFFFFFE8
:1058F000FFFFFFFFFFFFFFFFFFFFFFFFFFFFFFFFB8
:10590000FFFFFFFFFFFFFFFFFFFFFFFFFFFFFFFFA7
:10591000FFFFFFFFFFFFFFFFFFFFFFFFFFFFFFDFB7
:10592000FFDFFFFFFF6D6B242128422842494269B7
:105930004A0842C739A6318629242124211CE7DFE1
:10594000FFDFFFFFFFFFFFFFFFFFFFFFFFFFFFFF87
:10595000FFFFFFFFFFFFFFFFFFFFFFFFFFFFFFFF57
:10596000FFFFFFFFFFFFFFFFFFFFFFFFFFFFFFFF47
:10597000FFFFFFFFFFFFFFFFFFFFFFFFFFFFFFFF37
:10598000FFFFFFFFFFDFFFFFFF54A5E318084208FA
:105990003A2842073A073AA631A63186298208F307
:1059A0009CFFFFFFFFFFFFFFFFDFFFFFFFFFFFFF8A
:1059B000FFFFFFFFFFFFFFFFFFFFFFFFFFFFFFFFF7
:1059C000FFFFFFFFFFFFFFFFFFFFFFFFFFFFFFFFE7
:1059D000FFFFFFFFFFFFFFFFFFFFFFFFFFFFFFFFD7
:1059E000FFFFFFFFFFFFFFFFFFFFFFDFFFBFF76AC4
:1059F0004A44212842E739E739A631C731A6318226
:105A000010EB5ADFFFFFFFFFFFFFFFFFFFFFFFFF6E
:105A1000FFFFFFFFFFFFFFFFFFFFFFFFFFFFFFFF96
:105A2000FFFFFFFFFFFFFFFFFFFFFFFFFFFFFFFF86
:105A3000FFFFFFFFFFFFFFFFFFFFFFFFFFFFFFFF76
:105A4000FFFFFFFFFFFFFFFFFFFFFFFFFFFFFFFF66
:105A5000FFFFFFDBDEC7392421C631E739A6314518
:105A600029A210494A7DEFFFFFFFFFFFFFFFFFFF65
:105A7000FFFFFFFFFFFFFFFFFFFFFFFFFFFFFFFF36
:105A8000FFFFFFFFFFFFFFFFFFFFFFFFFFFFFFFF26
:105A9000FFFFFFFFFFFFFFFFFFFFFFFFFFFFFFFF16
:105AA000FFFFFFFFFFFFFFFFFFFFFFFFFFFFFFFF06
:105AB000FFDFFFFFFFDFFFFFFF1CE74D6B86312499
:105AC000212421C73150849EF7FFFFFFFFFFFFFF16
:105AD000FFFFFFDFFFFFFFFFFFFFFFFFFFFFFFFFF6
