:100000000C9481550C9414F30C94E9F20C94BEF208
:100010000C9493F20C9468F20C943DF20C9412F24E
:100020000C94E7F10C94B2550C94B2550C94B25563
:100030000C94B2550C9453ED0C94B2550C94B255EB
:100040000C94B2550C94B2550C94B2550C94B25514
:100050000C94B2550C94B2550C94B2550C949DF17D
:100060000C94B2550C9481EC0C9458EC0C94B25551
:100070000C94B2550C94B2550C94B2550C94B255E4
:100080000C94B2550C94B2550C94B2550C94B255D4
:100090000C94B2550C94B2550C94B2550C94F5FBDB
:1000A0000C94B2550C94B2550C94B2550C94B255B4
:1000B0000C94B2550C94B2550C94B2550C94B255A4
:1000C0000C94B2550C94B2550C94B2550C94B25594
:1000D0000C94B2550C94B2550C94B2550C94B25584
:1000E0000C94B255B55AB85ABD5AC55AD05AD05ABE
:1000F000DE5ADE5ADE5A97015F01870187019501BA
:100100005F016D0163016B015F01530155017301D3
:100110007301970149015F01970167017B01750137
:100120009901590149017D01A1014F015D01410181
:100130004B01D581EB81018217822D824382598246
:100140006F820B833C836D839E83CF8300843184D5
:100150006284DF8447867987A988D989098B398C9D
:100160005E8C0B8E448E768EA88EDA8E0C8F3E8F30
:10017000708FA28FD48F50908190B290E3901491A1
:1001800045917691A791D89109924F925F9365948A
:1001900076957C968297919898989F98A698799B47
:1001A0008F9BA59BBB9BD19BE79BFD9B469C779C14
:1001B000A89CD99C0A9D3B9D6C9DC79D669EF79E01
:1001C000889F19A0AAA03DA125B63BB651B667B637
:1001D0007DB693B6A9B6F1B622B753B784B7B5B713
:1001E000E6B717B87AB8A1B8C8B8EFB816B93DB92C
:1001F00060B9D6E18FE2EDE1EDE102E28FE2BDE12F
:1002000071E220E28FE22AE22AE23EE23EE2D6E119
:1002100071E28FE2D6E12AE271E2EDE14CE271E2B5
:1002200071E271E271E271E261E271E271E252EB5C
:1002300055EB44EB48EB4EEB8CEB59EB5DEB63EB92
:1002400067EB6BEB71EB75EB79EB8CEB7FEB83EB97
:1002500087EB8B016101510145017F017101830130
:1002600079018D019B0147018101650193016F01B6
:100270008F01430169014D015B018901570177013C
:10028000A5010D940F4F0D94EA210D94241F0D9498
:1002900036210D94684C0D9416440D94F0210D9464
:1002A000EF4D0D94091F0D94A0460D946E470D94CB
:1002B000F9210D94DD4A0D94F3210D94FA4E0D941D
:1002C000C64F0D94EE1E0D94A2430D946C210D9417
:1002D00012480D94ED210D941A450D946D450D9421
:1002E000A2210D945A1F0D94BC480D9454410D94B5
:1002F000FC210D94901F0D9492490D94C14B0D94C7
:100300003F1F0D9451210D94751F0D94A8550D9408
:10031000D6400D94F6210D94CA1E0D9400210D9423
:10032000BD210D94DA530D9487210D9468420D94EC
:1003300009400D942C4A0D941B210D94833D0D947E
:10034000EA0C0D94F44C0D94823D0D94FF21004075
:100350007A10F35A00A0724E18090010A5D4E800D4
:1003600000E87648170000E40B54020000CA9A3BEC
:10037000000000E1F5050000809698000000404272
:100380000F000000A0860100000010270000000000
:10039000E803000000006400000000000A00000004
:1003A00000000100000000002C76D888DC674F08B0
:1003B00023DFC1DFAE59E1B1B796E5E3E453C63AB6
:1003C000E651997696E8E6C28426EB898C9B62ED2D
:1003D000407C6FFCEFBC9C9F40F2BAA56FA5F490E7
:1003E000055A2AF75C936B6CF9676DC11BFCE0E45E
:1003F0000D47FEF520E6B500D0ED902E03009435B4
:1004000077050080841E080000204E0A000000C806
:100410000C333333330F986E12831141EF8D211457
:10042000893BE65516CFFEE6DB18D1844B381BF727
:100430007C1D901DA4BBE424203284725E228100C6
:10044000C9F124ECA1E53D27080C20173CE781BD4C
:1004500081BD81BD81BD81FF3CE7818181BD81BDC1
:1004600081BD81FF3CE78181818181BD81BD81FFAB
:100470003CE781818181818181BD81FF3CE7818170
:1004800081818181818181FFFFFF003F3F000F0F4C
:10049000000303000000003F3F000F0F00030300B4
:1004A0000000000000000F0F000303000000000028
:1004B0000000000000030300000010101010105492
:1004C00038100000000010385410101010100000F8
:1004D0000000000010087C08100000000000000070
:1004E00010207C20100000000000003C0C1424446C
:1004F00080000000000000804424140C3C00000038
:1005000000003C42A581A599423C000000003C7ED1
:10051000DBFFFFDB663C000000003C42A58199A5A3
:10052000423C000000003C7EDBFFFFE75A3C00003D
:1005300000003C4281818181423C000000003C7E01
:10054000FFFFFFFF7E3C00000000FF818181818171
:1005500081FF00000000FFFFFFFFFFFFFFFF000023
:100560001010208F000000000000000000000000BC
:10057000000000000000000000000000000000007B
:10058000000000000000000007000F800F800F80B7
:100590000F800F8007000700000000000700070021
:1005A0000700000000000E380E380E380E380630F6
:1005B000000000000000000000000000000000003B
:1005C0000000000000000C300C300C307FFE7FFE7D
:1005D0000C300C300C300C307FFE7FFE0C300C30B9
:1005E0000C3000000000024002400FF81FF81A40D3
:1005F0001A401FF00FF8025802581FF81FF002406F
:10060000024000000000000000000E100E300E70CE
:1006100000E001C0038007000E700C70087000003D
:1006200000000000000000000F00198019801980F0
:100630000F000F080F9819F818F018E019F00F982C
:1006400000000000000000000700070007000E0087
:10065000000000000000000000000000000000009A
:10066000000000000000000000F001C0038007004F
:100670000E000E000E000E000700038001C000F007
:1006800000000000000000000F00038001C000E037
:10069000007000700070007000E001C003800F0067
:1006A000000000000000000001801188099007E0B0
:1006B00007E03FFC3FFC07E007E00990118801805C
:1006C0000000000000000000000000000180018028
:1006D00001800FF00FF00180018001800000000018
:1006E000000000000000000000000000000000000A
:1006F00000000000000000000000070007000700E5
:100700000E000000000000000000000000000000DB
:1007100000001FF81FF800000000000000000000AB
:1007200000000000000000000000000000000000C9
:1007300000000000000000000000070007000700A4
:10074000000000000000000000020006000E001C77
:100750000038007000E001C0038007000E001C009C
:1007600000000000000000000FF01C381C781CF88E
:100770001CF81DB81DB81F381F381E381C380FF064
:1007800000000000000000000180018003801F8045
:100790001F800380038003800380038003801FF099
:1007A00000000000000000000FE01C701C38003842
:1007B000007000E001C0038007000E381C381FF8ED
:1007C00000000000000000000FE01C701C38003822
:1007D000007003C003C0007000381C381C700FE0AC
:1007E000000000000000000000E001E003E006E07F
:1007F0000CE018E01FF81FF800E000E000E003F84C
:1008000000000000000000001FF81C001C001C007D
:100810001C001FE01FF0007800381C381C700FE02F
:10082000000000000000000003E007000E001C00B4
:100830001C001FF01FF81C381C381C381C380FF027
:1008400000000000000000001FFC1C1C1C1C1C1CE5
:10085000001C0038007000E001C0038003800380AA
:1008600000000000000000000FF01C381C381C388D
:100870001F3807E007E01CF81C381C381C380FF044
:1008800000000000000000000FF01C381C381C386D
:100890001C381FF80FF800380038007000E007C05F
:1008A0000000000000000000000000000380038042
:1008B000038000000000038003800380000000002C
:1008C0000000000000000000000000000380038022
:1008D0000380000000000380038003800700000005
:1008E000000000000000007000E001C0038007006D
:1008F0000E001C001C000E000700038001C000E079
:1009000000700000000000000000000000003FFC3C
:100910003FFC000000003FFC3FFC00000000000026
:100920000000000000001C000E000700038001C052
:1009300000E00070007000E001C0038007000E00BE
:100940001C000000000003C00FF01E7818380038AB
:10095000007000E001C001C00000000001C001C043
:1009600001C0000000000FF81C1C1C1C1C1C1C1CDF
:100970001CFC1CFC1CFC1CFC1C001C001C001FF0B4
:1009800007F800000000000003C007E00E701C38EC
:100990001C381C381C381FF81C381C381C381C38F4
:1009A00000000000000000001FF00E380E380E3866
:1009B0000E380FF00FF00E380E380E380E381FF0CC
:1009C000000000000000000007F00E381C381C007A
:1009D0001C001C001C001C001C001C380E3807F0FA
:1009E00000000000000000001FE00E700E380E38FE
:1009F0000E380E380E380E380E380E380E701FE0D6
:100A000000000000000000001FF80E180E080E0085
:100A10000E300FF00FF00E300E000E080E181FF8FB
:100A200000000000000000001FF80E180E080E0065
:100A30000E300FF00FF00E300E000E000E001F00F3
:100A4000000000000000000007F00E381C381C38C1
:100A50001C001C001C001CF81C381C380E3807F841
:100A600000000000000000001C701C701C701C7056
:100A70001C701FF01FF01C701C701C701C701C7010
:100A800000000000000000000FE0038003800380EE
:100A900003800380038003800380038003800FE0D2
:100AA000000000000000000001FC007000700070F9
:100AB00000700070007038703870387038700FE057
:100AC00000000000000000001E380E380E700EE01E
:100AD0000FC00F800F800FC00EE00E700E381E3852
:100AE00000000000000000001F000E000E000E00BD
:100AF0000E000E000E000E000E080E180E381FF825
:100B000000000000000000001C1C1E3C1F7C1FFC9D
:100B10001FFC1DDC1C9C1C1C1C1C1C1C1C1C1C1CF1
:100B200000000000000000001C1C1C1C1E1C1F1CE0
:100B30001F9C1DDC1CFC1C7C1C3C1C1C1C1C1C1C51
:100B4000000000000000000003E007F00E381C1C4D
:100B50001C1C1C1C1C1C1C1C1C1C0E3807F003E05D
:100B600000000000000000001FF00E380E380E38A4
:100B70000E380FF00FF00E000E000E000E001F00DA
:100B8000000000000000000003E00F780E381C1C7D
:100B90001C1C1C1C1C1C1C7C1CFC0FF80FF80038B7
:100BA00000FC0000000000001FF00E380E380E3868
:100BB0000E380FF00FF00E700E380E380E381E384B
:100BC00000000000000000000FF01C381C381C382A
:100BD0001C000FE007F000381C381C381C380FF0E0
:100BE00000000000000000001FFC19CC11C401C06F
:100BF00001C001C001C001C001C001C001C007F0B7
:100C000000000000000000001C701C701C701C70B4
:100C10001C701C701C701C701C701C701C700FE011
:100C200000000000000000001C701C701C701C7094
:100C30001C701C701C701C701C700EE007C00380C0
:100C400000000000000000001C1C1C1C1C1C1C1CC4
:100C50001C1C1C9C1C9C1C9C0FF80FF80770077038
:100C600000000000000000001C701C701C700EE0F2
:100C700007C00380038007C00EE01C701C701C704E
:100C800000000000000000001C701C701C701C7034
:100C90001C700EE007C003800380038003800FE018
:100CA00000000000000000001FF81C381838107009
:100CB00000E001C0038007000E081C181C381FF854
:100CC000000000000000000007F007000700070018
:100CD000070007000700070007000700070007F0EC
:100CE0000000000000000000100018001C000E00B2
:100CF0000700038001C000E000700038001C0007FE
:100D0000000000000000000007F00070007000709C
:100D1000007000700070007000700070007007F0CC
:100D2000000000000000018003C007E00E701C38C6
:100D300000000000000000000000000000000000B3
:100D400000000000000000000000000000000000A3
:100D50000000000000000000000000000000000093
:100D60007FFF7FFF000000001C001C000700070041
:100D70000000000000000000000000000000000073
:100D80000000000000000000000000000000000063
:100D90000FE0007000700FF01C701C701C700FD8FA
:100DA00000000000000000001E000E000E000E00FB
:100DB0000FF00E380E380E380E380E380E381BF085
:100DC0000000000000000000000000000000000023
:100DD0000FE01C701C701C001C001C701C700FE0CD
:100DE000000000000000000000F8007000700070BB
:100DF0000FF01C701C701C701C701C701C700FD8C5
:100E000000000000000000000000000000000000E2
:100E10000FE01C701C701FF01C001C701C700FE099
:100E2000000000000000000003E0077007700700EA
:100E300007001FE01FE007000700070007001FC0B2
:100E400000000000000000000000000000000000A2
:100E50000FD81C701C701C701C700FF007F0007015
:100E60001C700FE0000000001E000E000E000E00BF
:100E70000EF00F380F380E380E380E380E381E3878
:100E8000000000000000000001C001C001C000001F
:100E90000FC001C001C001C001C001C001C00FF8F6
:100EA00000000000000000000070007000700000F2
:100EB00003F00070007000700070007000701C7013
:100EC0000CF007E0000000001E000E000E000E00F7
:100ED0000E380E700EE00FC00EE00E700E381E3889
:100EE00000000000000000000FC001C001C001C0F0
:100EF00001C001C001C001C001C001C001C00FF8A4
:100F000000000000000000000000000000000000E1
:100F10001FF81C9C1C9C1C9C1C9C1C9C1C9C1C9CB2
:100F200000000000000000000000000000000000C1
:100F30001FE01C701C701C701C701C701C701C70DE
:100F400000000000000000000000000000000000A1
:100F50000FE01C701C701C701C701C701C700FE06B
:100F60000000000000000000000000000000000081
:100F70001BF00E380E380E380E380E380FF00E00FB
:100F80000E001F0000000000000000000000000034
:100F90001FB038E038E038E038E038E01FE000E02B
:100FA00000E001F000000000000000000000000070
:100FB0001EF00FF80F380E000E000E000E001F007E
:100FC0000000000000000000000000000000000021
:100FD0000FE01C301C300F8003E0187018700FE019
:100FE00000000000000000000000010003000700F6
:100FF0001FF007000700070007000770077003E0F5
:1010000000000000000000000000000000000000E0
:101010001C701C701C701C701C701C701C700FD815
:1010200000000000000000000000000000000000C0
:101030001C701C701C701C701C700EE007C00380BC
:1010400000000000000000000000000000000000A0
:101050001C1C1C1C1C1C1C9C1C9C0FF80770077083
:101060000000000000000000000000000000000080
:101070001CE01CE00FC0078007800FC01CE01CE0D4
:101080000000000000000000000000000000000060
:101090000E380E380E380E380E3807F003E000E038
:1010A00001C01F80000000000000000000000000E0
:1010B0001FE018E011C0038007000E201C601FE035
:1010C000000000000000000001F80380038003809E
:1010D00007001C001C00070003800380038001F848
:1010E00000000000000001C001C001C001C001C03B
:1010F00001C001C001C001C001C001C001C001C0E8
:1011000001C00000000000001F8001C001C001C03C
:1011100000E00038003800E001C001C001C01F80BD
:1011200000000000000000001F1C3B9C39DC38F868
:1011300000000000000000000000000000000000AF
:10114000000000000000000000F001F80198019884
:1011500001F800F0000000000000000000000000A6
:1011600000000000000000001FF80E180E080E001E
:101170000E000FF00E380E380E380E380E381FF0F5
:1011800000000000000000001FF80E180E080E00FE
:101190000E000E000E000E000E000E000E001F00CE
:1011A000000000000000000007F00C701C701C70B4
:1011B0001C701C701C701C701C701C701C703FF824
:1011C00030182008066000001FF80E180E080E00E8
:1011D0000E300FF00FF00E300E000E080E181FF834
:1011E000000000000000000033CC199819981998ED
:1011F0000DB00FF00FF01DB819981998199833CC4D
:10120000000000000000000017E01E701C381038BD
:10121000007003C003C0007000381C381C700FE061
:1012200000000000000000001C701C701C701C708E
:101230001C701C701CF01DF01F701E701C701C7048
:1012400000000000038000001C701C701C701C70EB
:101250001C701C701CF01DF01F701E701C701C7028
:10126000000000000000000003F006700E700E7019
:101270000E700E700E700E700E700E700E701C7070
:1012800000000000000000001FF01C701C701C70AB
:101290001C701C701C701C701C701C701C701C70EE
:1012A00000000000000000001C701C701C701C700E
:1012B0001C701C700FF007F0007000701CE00FC075
:1012C00000000000000000001FF0339833983398AE
:1012D00033983398339833981FF00380038007C006
:1012E00000000000000000001C701C701C701C70CE
:1012F0001C701C701C701C701C701C701C701FF803
:1013000000180008000000001C701C701C701C708D
:101310001C701C701FF00FF00070007000700070E7
:101320000000000000000000399C399C399C399C69
:10133000399C399C399C399C399C399C399C3FFC9F
:101340000000000000000000399C399C399C399C49
:10135000399C399C399C399C399C399C399C3FFE7D
:1013600000060002000000003F002E002E000E00CC
:101370000E000FF00E380E380E380E380E381FF0F3
:101380000000000000000000381C381C381C381C0D
:10139000381C3F9C39DC39DC39DC39DC39DC3F9CDA
:1013A00000000000000000001F000E000E000E00F4
:1013B0000E000FF00E380E380E380E380E381FF0B3
:1013C00000000000000000000FE01C701C38003816
:1013D000003803F803F8003800381C381C700FE0A0
:1013E00000000000000000003CF81D9C1D9C1D9C9E
:1013F0001D9C1F9C1F9C1D9C1D9C1D9C1D9C3CF8A6
:1014000000000000000000000FF81C701C701C7031
:101410001C701C701FF00FF01C701C701C70387852
:101420000000000000000000001807F80F000E0088
:101430000E000FF00E380E380E380E380E3807F04A
:10144000000000000000000000000000000000009C
:101450001FF00E380E380FF00E380E380E381FF011
:10146000000000000000000000000000000000007C
:101470001FF81C381C001C001C001C001C001C0059
:10148000000000000000000000000000000000005C
:1014900007F00E700E700E700E700E700E701FF84A
:1014A00010080000000000000000000006C000005E
:1014B0000FE01C701C701FF01C001C701C700FE0F3
:1014C000000000000000000000000000000000001C
:1014D00019CC19CC19CC0DD807F00DD819CC19CCD2
:1014E00000000000000000000000000000000000FC
:1014F0000FE01C70007003E0007000701C700FE0C3
:1015000000000000000000000000000000000000DB
:101510001C701C701C701CF01D701E701C701C70E8
:1015200000000000000000000000000001C00000FA
:101530000E380E380E380E780EB80F380E380E38BA
:10154000000000000000000000000000000000009B
:101550000E380E380E700FE00E700E380E380E3842
:10156000000000000000000000000000000000007B
:1015700003F80738073807380738073807380E38B0
:10158000000000000000000000000000000000005B
:101590003838383838383C783AB839383838383804
:1015A000000000000000000000000000000000003B
:1015B0001C701C701C701C701FF01C701C701C7048
:1015C000000000000000000000000000000000001B
:1015D0001FF01C701C701C701C701C701C701C7028
:1015E00000000000000000000000000000000000FB
:1015F0001FF0139003800380038003800380038027
:101600000000000000000000000000000000038057
:101610001FF03BB83BB83BB83BB80FF003800380EA
:101620000380000000000000000000000000000037
:101630001C701C701C701C701C701C701C701FF8BF
:101640000018000000000000000000000000000082
:101650001C701C701C701C700FF00070007000700B
:10166000000000000000000000000000000000007A
:10167000399C399C399C399C399C399C399C3FFC5C
:10168000000000000000000000000000000000005A
:10169000399C399C399C399C399C399C399C3FFE3A
:1016A0000006000000000000000000000000000034
:1016B0003E002E000E000FF00E380E380E380FF0E0
:1016C000000000000000000000000000000000001A
:1016D000381C381C381C3F9C39DC39DC39DC3F9C19
:1016E00000000000000000000000000000000000FA
:1016F0000E000E000E000FF00E380E380E380FF0F0
:1017000000000000000000000000000000000000D9
:101710000FE01C70007003F0007000701C700FE090
:1017200000000000000000000000000000000000B9
:1017300038F8399C399C399C3F9C399C399C38F845
:101740000000000000000000000000000000000099
:1017500007F80E380E380E3807F80E380E381C38D9
:1017600000000000080C20A600000000000000009F
:101770000000000000002020202020200020000089
:101780000028505000000000000000000000282841
:10179000FC2850FC50500000002078A8A0603028A1
:1017A000A8F02000000048A8B05028345448000099
:1017B000000020505078A8A8906C000000404080A5
:1017C00000000000000000000004081010101010BD
:1017D00010080400004020101010101010204000CD
:1017E00000000020A87070A8200000000000202049
:1017F00020F8202020000000000000000000000071
:10180000004040800000000000F8000000000000E0
:101810000000000000000000004000000008101060
:101820001020204040408000000070888888888810
:101830008870000000002060202020202070000020
:10184000000070888810204080F800000000708838
:101850000830080888700000000010305050907860
:10186000101800000000F88080F008088870000060
:101870000000709080F08888887000000000F89068
:1018800010202020202000000000708888708888A8
:101890008870000000007088888878084870000010
:1018A00000000000200000000020000000000000F8
:1018B000002000000020200000040810204020101C
:1018C0000804000000000000F80000F8000000001C
:1018D000004020100804081020400000000070881C
:1018E00088102020002000000000708898A8A8B868
:1018F00080780000000020203050507848CC000054
:101900000000F0484870484848F00000000078881F
:1019100080808080887000000000F0484848484877
:1019200048F000000000F8485070504048F80000AF
:101930000000F8485070504040E000000000384877
:1019400080809C88483000000000CC484878484897
:1019500048CC00000000F8202020202020F80000C3
:1019600000007C10101010101090E0000000EC48F7
:101970005060505048EC00000000E04040404040C3
:1019800044FC00000000D8D8D8D8A8A8A8A8000017
:101990000000DC486868585848E80000000070887B
:1019A00088888888887000000000F04848704040AF
:1019B00040E0000000007088888888E8987018006F
:1019C0000000F0484870504848EC0000000078885B
:1019D0008060100888F000000000F8A82020202077
:1019E000207000000000CC484848484848300000BB
:1019F0000000CC4848505030202000000000A8A82B
:101A0000A8705050505000000000D8505020205076
:101A100050D800000000D850502020202070000036
:101A20000000F8901020204048F8000000382020E6
:101A3000202020202020380000404040202010108E
:101A4000100800000070101010101010101070001E
:101A50000020500000000000000000000000000016
:101A600000000000000000FC00200000000000005A
:101A7000000000000000000000304838483C000032
:101A80000000C0404070484848700000000000005E
:101A9000003848404038000000001808083848481E
:101AA000483C00000000000000304878403800004A
:101AB00000001C202078202020780000000000007A
:101AC000003C4830407844380000C04040704848EE
:101AD00048EC000000002000006020202070000082
:101AE0000000100000301010101010E00000C04086
:101AF000405C507048EC00000000E02020202020D6
:101B000020F800000000000000F0A8A8A8A800002D
:101B10000000000000F0484848EC00000000000011
:101B200000304848483000000000000000F04848FD
:101B3000487040E000000000003848484838081C61
:101B40000000000000D8604040E0000000000000FD
:101B5000007840300878000000000020207020202D
:101B6000201800000000000000D84848483C000051
:101B70000000000000EC4850302000000000000091
:101B800000A8A870505000000000000000D85020AD
:101B900050D800000000000000EC4850302020C069
:101BA00000000000007810202078000000181010BD
:101BB000102010101010180010101010101010101D
:101BC0001010101000602020201020202020600025
:101BD00040A4180000000000000000000000304891
:101BE00048300000000000000000F84840704848FD
:101BF00048F000000000F8484040404040E000004D
:101C0000000038484848484848FC84005000F848DC
:101C10005070504048F800000000A8A8A870F8A82C
:101C2000A8A800000000F0880830080808F00000AC
:101C30000000EC485858686848DC00003000EC4868
:101C40005858686848DC000000003C48484848484C
:101C500048CC00000000FC484848484848CC0000F8
:101C60000000D8505020204040800000000070A8A4
:101C7000A8A8A870207000000000CC484848484838
:101C800048FC04000000CC4848483808081C000004
:101C90000000D6545454545454FE00000000D6544E
:101CA0005454545454FE02000000E0C040704848B0
:101CB00048F000000000EE444464545454EE000028
:101CC0000000E0404070484848F000000000E0900C
:101CD00008380808906000000000EC52525272521E
:101CE00052EC000000003C4848483848489C00003E
:101CF00000000830407048484830000000000000F4
:101D000000702830287000000000000000782820B3
:101D1000207000000000000000182828287C4400E3
:101D2000000000280030487840300000000000002B
:101D30000054543854540000000000000070083073
:101D4000087000000000000000CC485868CC00007B
:101D50000000003000CC485868CC000000000000B3
:101D6000004850605048000000000000001C282877
:101D7000284C00000000000000446C544444000063
:101D80000000000000CC487848CC000000000000B3
:101D900000FC484848CC000000000000007C5410C3
:101DA0001038000000000000003854545438103837
:101DB0000000000000CC484848FC0400000000007F
:101DC00000CC4838080C00000000000000545454B7
:101DD000547C00000000000000545454547E020063
:101DE0000000000000E0A0302870000000000000AB
:101DF00000C6446454E6000000000000006020308B
:101E00002870000000000000003048184830000032
:101E10000000000000C8547454C800000000000016
:101E2000003C4848384C00003CE781BD81BD81BD85
:101E300081BD81FF3CE7818181BD81BD81BD81FF85
:101E40003CE78181818181BD81BD81FF3CE781814A
:101E50008181818181BD81FF3CE781818181818197
:101E6000818181FFFFFF003F3F000F0F0003030050
:101E70000000003F3F000F0F0003030000000000C0
:101E800000000F0F0003030000000000000000002E
:101E90000003030000001010101010543810000050
:101EA0000000103854101010101000000000000046
:101EB00010087C08100000000000000010207C20AA
:101EC000100000000000003C0C14244480000000BE
:101ED000000000804424140C3C00000000003C4240
:101EE000A581A599423C000000003C7EDBFFFFDBA2
:101EF000663C000000003C42A58199A5423C0000E0
:101F000000003C7EDBFFFFE75A3C000000003C4243
:101F100081818181423C000000003C7EFFFFFFFF89
:101F20007E3C00000000FF818181818181FF0000F3
:101F30000000FFFFFFFFFFFFFFFF0000FFFFFFFFAD
:101F4000FFFFFFFFFFFFFFFFFFFFFFFFFFFFFFFFA1
:101F5000FFFFFFFFFFFFFFFF59D6108C6D732C6B47
:101F6000AA5AAA5AAA5A8D7BCE8313ADFBE6FFFF6D
:101F7000FFFFFFFFFFFFFFFFFFFFFFFFFFFFFFFF71
:101F8000FFFFFFFFFFFFFFFFFFFFFFFFFFFFFFFF61
:101F9000FFFFFFFFFFFFFFFFFFFFFFFFFFFFFFFF51
:101FA000FFFFFFFFFFFFFFFFFFFFFFFFFFFFFFFF41
:101FB000FFFFFFFFFFFFFFFFFFFFFFFFEF83485221
:101FC000308C8E7BC3206210A2184852AA62074A46
:101FD000518CFFFFDFFFFFFFFFFFFFFFFFFFFFFF52
:101FE000FFFFFFFFFFFFFFFFFFFFFFFFFFFFFFFF01
:101FF000FFFFFFFFFFFFFFFFFFFFFFFFFFFFFFFFF1
:10200000FFFFFFFFFFFFFFFFFFFFFFFFFFFFFFFFE0
:10201000FFFFFFFFFFFFFFFFFFFFFFFFFFFFFFFFD0
:10202000AE7B29525194108C821000004108295235
:102030008A5AC6411084FFFFFFFFFFFFFFFFFFFF2B
:10204000FFFFFFFFFFFFFFFFFFFFFFFFFFFFFFFFA0
:10205000FFFFFFFFFFFFFFFFFFFFFFFFFFFFFFFF90
:10206000FFFFFFFFFFFFFFFFFFFFFFFFFFFFFFFF80
:10207000FFFFFFFFFFFFFFFFFFFFFFFFFFFFFFFF70
:10208000DFFFFFFF8E7B69527194108CA218000055
:1020900082106952CA62C741108CFFFFDFFFFFFF49
:1020A000FFFFFFFFFFFFFFFFFFFFFFFFFFFFFFFF40
:1020B000FFFFFFFFFFFFFFFFFFFFFFFFFFFFFFFF30
:1020C000FFFFFFFFFFFFFFFFFFFFFFFFFFFFFFFF20
:1020D000FFFFFFFFFFFFFFFFFFFFFFFFFFFFFFFF10
:1020E000FFFFFFFFFFFFDFFF2C6B295251940C63B2
:1020F00021080000611069520B6BC641AE7BDEFF08
:10210000FFFFFFFFFFFFFFFFFFFFFFFFFFFFFFFFDF
:10211000FFFFFFFFFFFFFFFFFFFFFFFFFFFFFFFFCF
:10212000FFFFFFFFFFFFFFFFFFFFFFFFFFFFFFFFBF
:10213000FFFFFFFFFFFFFFFFFFFFFFFFFFFFFFFFAF
:10214000FFFFFFFFFFFFFFFFB6BDEB62284A084A13
:102150002C6BE7414108210841084529C739A639B8
:1021600049528D73B6BDFFFFFFFFFFFFFFFFFFFF6B
:10217000FFFFFFFFFFFFFFFFFFFFFFFFFFFFFFFF6F
:10218000FFFFFFFFFFFFFFFFFFFFFFFFFFFFFFFF5F
:10219000FFFFFFFFFFFFFFFFFFFFFFFFFFFFFFFF4F
:1021A000FFFFFFFFFFFFFFFFDFFFFFFF308C242952
:1021B000E7414852AA5A0421210841082108000099
:1021C0004108A639C641084AD39CFFFFDFFFFFFF45
:1021D000FFFFFFFFFFFFFFFFFFFFFFFFFFFFFFFF0F
:1021E000FFFFFFFFFFFFFFFFFFFFFFFFFFFFFFFFFF
:1021F000FFFFFFFFFFFFFFFFFFFFFFFFFFFFFFFFEF
:10220000FFFFFFFFFFFFFFFFFFFFFFFFDFFFFFFFFE
:1022100092948539C7412852AA5A04210000210806
:10222000410821088210A639C6414952F3A4FFFF94
:10223000DFFFFFFFFFFFFFFFFFFFFFFFFFFFFFFFCE
:10224000FFFFFFFFFFFFFFFFFFFFFFFFFFFFFFFF9E
:10225000FFFFFFFFFFFFFFFFFFFFFFFFFFFFFFFF8E
:10226000FFFFFFFFFFFFFFFFFFFFFFFFFFFFFFFF7E
:10227000DFFFFFFF508C4531E7414852AA5A042145
:1022800021082108210821086210A639E741084ADF
:10229000B29CFFFFDFFFFFFFFFFFFFFFFFFFFFFF1E
:1022A000FFFFFFFFFFFFFFFFFFFFFFFFFFFFFFFF3E
:1022B000FFFFFFFFFFFFFFFFFFFFFFFFFFFFFFFF2E
:1022C000FFFFFFFFFFFFFFFFFFFFFFFFFFFFFFFF1E
:1022D000FFFFFFFFFFFFFFFF18C6E7416539C74952
:1022E000E751A32800100010001000102018253915
:1022F0008641CA6238CEFFFFFFFFFFFFFFFFFFFFEF
:10230000FFFFFFFFFFFFFFFFFFFFFFFFFFFFFFFFDD
:10231000FFFFFFFFFFFFFFFFFFFFFFFFFFFFFFFFCD
:10232000FFFFFFFFFFFFFFFFFFFFFFFFFFFFFFFFBD
:10233000FFFFFFFFFFFFFFFFFFFFDFFFFFFFB2A475
:10234000654966512559834841388348A348E4507C
:1023500004596661C759D7CDFFFFDFFFFFFFFFFFBD
:10236000FFFFFFFFFFFFFFFFFFFFFFFFFFFFFFFF7D
:10237000FFFFFFFFFFFFFFFFFFFFFFFFFFFFFFFF6D
:10238000FFFFFFFFFFFFFFFFFFFFFFFFFFFFFFFF5D
:10239000FFFFFFFFFFFFFFFFFFFFFFFFFFFFFFFF4D
:1023A000DFFFBEFF38EE6EABEDAAA88946816789D4
:1023B00066898789E891499276DD9EFFBFFFFFFF1E
:1023C000FFFFFFFFFFFFFFFFFFFFFFFFFFFFFFFF1D
:1023D000FFFFFFFFFFFFFFFFFFFFFFFFFFFFFFFF0D
:1023E000FFFFFFFFFFFFFFFFFFFFFFFFFFFFFFFFFD
:1023F000FFFFFFFFFFFFFFFFFFFFFFFFFFFFFFFFED
:10240000FFFFFFFFDFFFDFFFF8F54EC38FDB09BAE9
:1024100087A988A987A94ABA8BC2ECB2DBFEBFFFA5
:10242000DFFFFFFFFFFFFFFFFFFFFFFFFFFFFFFFDC
:10243000FFFFFFFFFFFFFFFFFFFFFFFFFFFFFFFFAC
:10244000FFFFFFFFFFFFFFFFFFFFFFFFFFFFFFFF9C
:10245000FFFFFFFFFFFFFFFFFFFFFFFFFFFFFFFF8C
:10246000FFFFFFFFFFFFFFFFDFFF9EFF72D44ED392
:10247000CCD20ACAC9C1C9C1E9C14ACA4AC22AAA38
:1024800051CC79FE3CFF7EFFDFFFDFFFDFFFDFFF88
:10249000FFFFFFFFFFFFFFFFFFFFFFFFFFFFFFFF4C
:1024A000FFFFFFFFFFFFFFFFFFFFFFFFFFFFFFFF3C
:1024B000FFFFFFFFFFFFFFFFFFFFFFFFFFFFFFFF2C
:1024C000FFFFFFFFFFFFDFFFDFFF5DFFFCFE59FEA9
:1024D00011DCCCCA4AC22ACA2ACA4ACACCDA6BCA96
:1024E00009C209BAABBAAFCB72D4D3D492CCB3CCB5
:1024F00055DD18E63CF7FFFFFFFFFFFFFFFFFFFF83
:10250000FFFFFFFFFFFFFFFFFFFFFFFFFFFFFFFFDB
:10251000FFFFFFFFFFFFFFFFFFFFFFFFFFFFFFFFCB
:10252000FFFFFFFFFFFFFFFFFFFFDFFF9AF672BC19
:1025300031C431D48FD3CCC28BC28BC2ABCAECDADC
:102540006BCA09C209C209C24AC2ACC26ED351E405
:10255000B3EC51D431CCF0B396DD9EFFDEFFDFFF4C
:10256000DFFFFFFFDFFFFFFFFFFFFFFFFFFFFFFFBB
:10257000FFFFFFFFFFFFFFFFFFFFFFFFFFFFFFFF6B
:10258000FFFFFFFFFFFFFFFFFFFFDFFFFFFFDFFF9B
:1025900035D5AFBBF0D38FCB6ED30DC3D0D3F0DB2B
:1025A0000CCB09BA2AC22ACA2ACA2ACA2AC24AC2D1
:1025B0004ABAABC28FD372ECB3F4D4ECB3DCB3D46D
:1025C00055E5F7ED9AFE7DFFDFFFDFFFFFFFFFFF21
:1025D000FFFFFFFFFFFFFFFFFFFFFFFFFFFFFFFF0B
:1025E000FFFFFFFFFFFFFFFFFFFFFFFFFFFFFFFFFB
:1025F000DEFF7DFFF4CCF0BB8EBB4DB3ECB2ABA2E3
:10260000F0C3AB9A29A229B2ECD2ACCAABCA8BCA2E
:102610008BCA8BCA8BCAACCACCCA4ED36ED34EC33C
:10262000AFC331CC31C451BC51BCD3C438E69EFFDA
:10263000DFFFFFFFFFFFFFFFFFFFFFFFFFFFFFFFCA
:10264000FFFFFFFFFFFFFFFFFFFFFFFFFFFFFFFF9A
:10265000F3A46D73108C5194B2AC51AC496A086A02
:1026600029720872087A6A92C8896AA2CBB2ECBA57
:102670000DC32DCB0DD3ECD2ECD2EDD20DD3ECCAE1
:102680002DCBCFCB6DABCB8A6A7A6972AB822D939F
:10269000CFAB34D55DFFFFFFFFFFFFFFFFFFFFFF65
:1026A000FFFFFFFFFFFFFFFFFFFFFFFFFFFFFFFF3A
:1026B000FFFFFFFF8D73C741284A2852695ACB6A32
:1026C0000C6B8A620852C751865166598669A77198
:1026D000E879C779E8814A92ECBA0DCB0DD30DDBCE
:1026E000CCCA2DCB2DB3E879A661C759E759696AE1
:1026F000C7598659E8710C93D3C45DFFDFFFFFFF14
:10270000FFFFFFFFFFFFFFFFFFFFFFFFFFFFFFFFD9
:10271000FFFFFFFFFFFFFFFFCE7B284A695A4852A9
:10272000084A084A084AC741A641E749285A0852B8
:1027300049622862CB72CB7A8A72287249928BB234
:102740008BC28BBA0DC3CBA26659E7594C832C7B45
:102750004C7BD2AC8962AA6A48620862EB8A55D582
:10276000BFFFDFFFFFFFFFFFFFFFFFFFFFFFFFFFD9
:10277000FFFFFFFFFFFFFFFFFFFFFFFFCE7BE741F4
:102780004952284A2852284A4531C741A218084AC6
:1027900048528639C741A639A639A641A6414549BE
:1027A0006A928ECBECC22DCBABA245598649485AD2
:1027B0004C7B2C7389620C73074A0B6B0B73EB72A7
:1027C000A6614D939AEEDFFFDFFFFFFFFFFFFFFFE4
:1027D000FFFFFFFFFFFFFFFFFFFFFFFFFFFFFFFF09
:1027E000CE83E7414852284A6952032124296531A2
:1027F00045316952E7414531863986398639A639EE
:10280000A7416549098A4DC30DC3ECB26661A65163
:10281000A64128520B6BEB6A695AEB6AC6414852D3
:10282000895AEB7265490862F3BCBEFFDFFFFFFF08
:10283000FFFFFFFFFFFFFFFFFFFFFFFFFFFFFFFFA8
:10284000FFFFFFFFCF83C7414852284A49528531D5
:1028500041084108C3188639084245298631863126
:102860008631A63986392541E8790DBB0DBBE88153
:102870004549C749A639895A8A5A8639084A285289
:10288000A639A641895A4852C749A6514D931CFF03
:10289000DFFFFFFFFFFFFFFFFFFFFFFFFFFFFFFF68
:1028A000FFFFFFFFDFFFFFFFCF7BC6412852084A33
:1028B00069526952242900000000E320E7414429BD
:1028C000653165316531863985392541C7794DBB1B
:1028D000CBA24561E7596539AA5A4952E749C74130
:1028E0000429E7412C73C641695A2852896249621A
:1028F000297239EEDFFFDFFFFFFFFFFFFFFFFFFF62
:10290000FFFFFFFFFFFFFFFFDFFFFFFFCF7BA639CA
:10291000284A074A6952284A452900000000C3187E
:10292000284A44296531653165316531863924414C
:1029300086716EB3087A49728D8B6952485228525B
:102940006539A64151946D7BC741AA62C741695A56
:10295000695A0C7BE76176D5DFFFFFFFFFFFFFFFC2
:10296000FFFFFFFFFFFFFFFFFFFFFFFFFFFFFFFF77
:10297000CF83A639284A074A285269520421000009
:102980000000C3180842452965316531653145317C
:102990006531043986692DAB0872AA72509C2C737C
:1029A000895A2852653138D6BEFFD6C58D7BA641DF
:1029B000C74185392852EB72C761F4C4DFFFFFFFBE
:1029C000FFFFFFFFFFFFFFFFFFFFFFFFFFFFFFFF17
:1029D000DFFFFFFFCF83A639284A084A084AE741AC
:1029E000863100000000E320C741452945294529DB
:1029F000452944294531043966690CA32872486287
:102A0000EE8BCA620B6B8639EB627DF7B6C5D2A43A
:102A100058D66539C741CB62AA622C7BC761D3C443
:102A2000DFFFFFFFFFFFFFFFFFFFFFFFFFFFFFFFD6
:102A3000FFFFFFFFDFFFFFFFCF838639084A084A09
:102A4000A639AE7BE741A21800004429C7414529B9
:102A50004529452924292429242904396661EC9A29
:102A6000076A2C7B13B5895A2C73A641B2A4FBEEDE
:102A7000B2A438D658D6C641C741CA6289620C7B17
:102A8000A76114C5DFFFDFFFFFFFFFFFFFFFFFFFB1
:102A9000FFFFFFFFFFFFFFFFDFFFFFFFCF83863951
:102AA000084A074AE741B6BD484A6531A218E741DE
:102AB000284A452945294529242924292429E33060
:102AC0006561EB9A286ACE9333B5AA62CA628539EA
:102AD000F3ACBAE696BDDBEE14AD6539C641653997
:102AE000485A0C7BE86196D5DFFFFFFFFFFFFFFF31
:102AF000FFFFFFFFFFFFFFFFFFFFFFFFDFFFFFFF06
:102B0000CF838639084AE749084A4852284AE741AC
:102B1000074A084A084A45314529452945292429B3
:102B20002429C33065610C9B086ACE93D2ACEA6A53
:102B3000695AC741284A55B5BAE618D64952853967
:102B4000C741A641495ACB7249727AEEFFFFFFFF97
:102B5000FFFFFFFFFFFFFFFFFFFFFFFFFFFFFFFF85
:102B6000DFFFFFFFEF838639074AE749084AE84954
:102B7000E741E741C741E741C7414531452945297B
:102B8000442924292531E33045612DA3E769EB7AF7
:102B900091A42B736952695A2431E7412C6BE749A0
:102BA0008639084A49528641495AC7512D8B5DFFE3
:102BB000DFFFFFFFFFFFFFFFFFFFFFFFFFFFFFFF45
:102BC000FFFFFFFFFFFFFFFF10848639E749E7495A
:102BD000084AE849E741E741C741A639A6394531E6
:102BE00045292429242924294431C33045614DAB8A
:102BF000E871286A4C7B6952695A695A8639A6413C
:102C000045314852695A6952895AA6418649A651A6
:102C1000F4BCDFFFDFFFFFFFFFFFFFFFFFFFFFFF52
:102C2000FFFFFFFFFFFFFFFFDFFFFFFF108486397D
:102C3000E749E741E741084AE741E741C741C64163
:102C4000A639452945292429242904292429C330C2
:102C500045690DB38A922559E7598539084AE749EC
:102C60008639A641A641AA62CB62CB628A62A64996
:102C70006549CB7ADBEEDFFFDFFFFFFFFFFFFFFFE2
:102C8000FFFFFFFFFFFFFFFFFFFFFFFFFFFFFFFF54
:102C9000308CA639084AE741074A074AE741C7414D
:102CA000C641A639863945292529252924292429DB
:102CB0002431C33866690CB3ECB286794449C749FC
:102CC00086418639084A085286418A5A8A5A074AF2
:102CD000485A8649C76114C5DFFFDFFFFFFFFFFFCA
:102CE000FFFFFFFFFFFFFFFFFFFFFFFFFFFFFFFFF4
:102CF000DFFFFFFF308CC641284A074A084A074ACF
:102D0000E741C641A641C641A639452925292429BE
:102D1000242904292429E3388671ECB2ACBAABAA81
:102D200065618651A649E7490C73EB6AE749285269
:102D3000CB6A285A085AA651F0A35DFFDFFFFFFFB8
:102D4000FFFFFFFFFFFFFFFFFFFFFFFFFFFFFFFF93
:102D5000FFFFFFFFDFFFFFFF108C6531284A084AA5
:102D6000284A084AE741C741C641C741A639242934
:102D7000452945292429042924290439A771ECAAC5
:102D80008BB2CCBA8AA245612549E751CB6A695A10
:102D9000C749C649A651454986618E9BFBF6DFFFB0
:102DA000DFFFFFFFFFFFFFFFFFFFFFFFFFFFFFFF53
:102DB000FFFFFFFFFFFFFFFFFFFFFFFF18C60B63D3
:102DC0006952C641C641C641C741C741C641A6393D
:102DD0008639452925294529042904314539E4380E
:102DE000E871E8814571E8898BA2CB9A0872665137
:102DF0004549244145494549A6594972F0ABFBFE76
:102E0000DFFFDFFFFFFFFFFFFFFFFFFFFFFFFFFF12
:102E1000FFFFFFFFFFFFFFFFFFFFFFFFFFFFFFFFC2
:102E2000FFFFFFFF1CE7F7C592944C6B484AE74150
:102E3000C741C64186394529452904290431243929
:102E40002441C338CB8279F655D572B4CFABEC9A16
:102E5000AB928A922982087A087A8A826E9B55CD33
:102E60007EFFDFFFDFFFFFFFFFFFFFFFFFFFFFFF33
:102E7000FFFFFFFFFFFFFFFFFFFFFFFFFFFFFFFF62
:102E8000FFFFFFFFFFFFFFFFFFFFFFFFFFFFFFFF52
:102E9000FBE66952A639A639653145314531C7414E
:102EA000864986496651C759CB72DBF6DFFFDFFFE3
:102EB000BEFFBBFE55DDF0BBAFABF0B3B3CCD7E587
:102EC0001CFFDFFFFFFFDFFFFFFFFFFFFFFFFFFF35
:102ED000FFFFFFFFFFFFFFFFFFFFFFFFFFFFFFFF02
:102EE000FFFFFFFFFFFFFFFFFFFFFFFFFFFFDFFF12
:102EF000DFFFFFFFB6BDC639A639452924290429BD
:102F00002429084AC328A228E438E338E330519C36
:102F1000DFFFBEFFDFFFDFFFDFFFDFFFBFFFBFFF22
:102F2000DFFFDFFFDFFFDFFFFFFFFFFFFFFFFFFF31
:102F3000FFFFFFFFFFFFFFFFFFFFFFFFFFFFFFFFA1
:102F4000FFFFFFFFFFFFFFFFFFFFFFFFFFFFFFFF91
:102F5000FFFFFFFFDFFFFFFFB29C653107428631B5
:102F6000242904294531C741001061188220A22874
:102F7000A2204C73FFFFDFFFFFFFFFFFDFFFFFFF1C
:102F8000FFFFFFFFFFFFFFFFFFFFFFFFFFFFFFFF51
:102F9000FFFFFFFFFFFFFFFFFFFFFFFFFFFFFFFF41
:102FA000FFFFFFFFFFFFFFFFFFFFFFFFFFFFFFFF31
:102FB000FFFFFFFFFFFFFFFFDFFFFFFFD39C653138
:102FC000E7418631242924296531084AE320032971
:102FD000E3280429E3206D73FFFFFFFFFFFFFFFFDE
:102FE000FFFFFFFFFFFFFFFFFFFFFFFFFFFFFFFFF1
:102FF000FFFFFFFFFFFFFFFFFFFFFFFFFFFFFFFFE1
:10300000FFFFFFFFFFFFFFFFFFFFFFFFFFFFFFFFD0
:10301000FFFFFFFFFFFFFFFFFFFFFFFFFFFFFFFFC0
:10302000B29C6531E7418631452924296531E74164
:10303000C320E320E320E320E3206D73FFFFFFFFC5
:10304000FFFFFFFFFFFFFFFFFFFFFFFFFFFFFFFF90
:10305000FFFFFFFFFFFFFFFFFFFFFFFFFFFFFFFF80
:10306000FFFFFFFFFFFFFFFFFFFFFFFFFFFFFFFF70
:10307000FFFFFFFFFFFFFFFFFFFFFFFFFFFFFFFF60
:10308000DFFFFFFF13A5C318853165314429653182
:103090002529E320C320E320E320E320C218CE7BD0
:1030A000FFFFFFFFFFFFFFFFFFFFFFFFFFFFFFFF30
:1030B000FFFFFFFFFFFFFFFFFFFFFFFFFFFFFFFF20
:1030C000FFFFFFFFFFFFFFFFFFFFFFFFFFFFFFFF10
:1030D000FFFFFFFFFFFFFFFFFFFFFFFFFFFFFFFF00
:1030E000FFFFFFFFFFFFFFFF9EF714A56531A63925
:1030F000452904218218C318C318E3200329453148
:10310000D29C7DF7DFFFFFFFFFFFFFFFFFFFFFFF09
:10311000FFFFFFFFFFFFFFFFFFFFFFFFFFFFFFFFBF
:10312000FFFFFFFFFFFFFFFFFFFFFFFFFFFFFFFFAF
:10313000FFFFFFFFFFFFFFFFFFFFFFFFFFFFFFFF9F
:10314000FFFFFFFFFFFFFFFFFFFFFFFFFFFF1BE78B
:10315000695286394529E320E320C320A218E320E1
:103160000429C641DBDEFFFFDFFFFFFFFFFFFFFF9C
:10317000FFFFFFFFFFFFFFFFFFFFFFFFFFFFFFFF5F
:10318000FFFFFFFFFFFFFFFFFFFFFFFFFFFFFFFF4F
:10319000FFFFFFFFFFFFFFFFFFFFFFFFFFFFFFFF3F
:1031A000FFFFFFFFFFFFFFFFFFFFFFFFFFFFDFFF4F
:1031B000FFFF79D6C639453145290421E320C320D4
:1031C000C318C320E320443179D6FFFFDFFFFFFFA0
:1031D000FFFFFFFFFFFFFFFFFFFFFFFFFFFFFFFFFF
:1031E000FFFFFFFFFFFFFFFFFFFFFFFFFFFFFFFFEF
:1031F000FFFFFFFFFFFFFFFFFFFFFFFFFFFFFFFFDF
:10320000FFFFFFFFFFFFFFFFFFFFFFFFFFFFFFFFCE
:10321000FFFFFFFFFFFFFBDE494A4429A218A21867
:10322000A2188218821861104110E7413CE7FFFFA5
:10323000FFFFFFFFFFFFFFFFFFFFFFFFFFFFFFFF9E
:10324000FFFFFFFFFFFFFFFFFFFFFFFFFFFFFFFF8E
:10325000FFFFFFFFFFFFFFFFFFFFFFFFFFFFFFFF7E
:10326000FFFFFFFFFFFFFFFFFFFFFFFFFFFFFFFF6E
:10327000FFFFFFFFFFFFFFFFFFFFFFFFFFFF1CE759
:10328000B6BDEF832C6BCB624D73D3A479D6DFFF31
:10329000FFFFFFFFFFFFFFFFFFFFFFFFFFFFFFFF3E
:1032A000FFFFFFFFFFFFFFFFFFFFFFFFFFFFFFFF2E
:1032B000FFFFFFFFFFFFFFFFFFFFFFFFFFFFFFFF1E
:1032C000FFFFFFFFFFFFFFFFFFFFFFFFFFFFFFFF0E
:1032D000FFFFFFFFBFF7FFFFFFFFFFFFFFFFFFFF46
:1032E000FFFFFFFFFFFFBDFF9DF7FFFFDEFF9DF725
:1032F000FFFFDADEFBE6BADE7DF7FFFF9DFFDEFFB4
:10330000DEFF5CF7FFFFFFFFDFFFDFFF9FF7FFFF41
:10331000BFF7FFFFFFFFFFFFFFFFFFFFFFFFFFFF05
:10332000FFFFFFFFFFFFFFFFFFFFFFFFFFFFFFFFAD
:10333000FFFFFFFFFFFFFFFFFFFFFFFFDFF7FFFFC5
:10334000FFFFDFFFDFFFFFFFDEFFFFFFFFFF1BE7EA
:1033500017C6B6B5D7BD75AD55ADB6BD54ADD3A482
:1033600075B599DE9DFFFFFFDFFFFFFFDFFFFFFF6A
:10337000FFFFFFFFBFF7DFFFFFFFFFFFFFFFFFFFC5
:10338000FFFFFFFFFFFFFFFFFFFFFFFFFFFFFFFF4D
:10339000FFFFFFFFFFFFFFFFFFFFFFFFFFFFDFF765
:1033A000DFF7FFFFFFFFFFFFFFFFFFFFFFFF7CEFE8
:1033B00078CEB6B538C6FBDE3CE7DFFFDFFFDFFFC8
:1033C0007DEF7DF7BADEB29CD2A49EFF9DF7FFFF92
:1033D000FFFFDFFFDFFF9EF7BFFFFFFFFFFFFFFFE6
:1033E000FFFFFFFFFFFFFFFFFFFFFFFFFFFFFFFFED
:1033F000FFFFFFFFFFFFFFFFFFFFFFFFFFFFFFFFDD
:10340000FFFFDFF7FFFFFFFFFFFFFFFFFFFFDEFF15
:10341000FEFFF7BD38C63CE7FFFFFFFFFFFFFFFFE2
:10342000DFF7FFFFFFFFDFFFFFFF1BE775B5919C95
:10343000FFFFFFFF9DF73CEFFFFFFFFFFFFFBFF721
:10344000FFFFFFFFFFFFFFFFFFFFFFFFFFFFFFFF8C
:10345000FFFFFFFFFFFFFFFFFFFFFFFFFFFFFFFF7C
:10346000FFFFFFFFFFFFFFFFFFFFFFFFDFFFFFFF8C
:10347000FFFFBEFFDADE95B57DEFFFFFFFFFBFF771
:103480009EEFFFFFFFFFFFFFDFFFBEF7FFFFFFFF26
:103490009EF713A599D6FEFFFEFFFFFFFFFFFFFF7C
:1034A000FFFFBFFFFFFFFFFFFFFFFFFFFFFFFFFF6C
:1034B000FFFFFFFFFFFFFFFFFFFFFFFFFFFFFFFF1C
:1034C000FFFFFFFFFFFFFFFFFFFFFFFFFFFFDFFF2C
:1034D000FFFFDFFFDEFFFFFF38CE99D6FFFFFFFFC4
:1034E0005CE7BEF7FFFFFFFFFFFF9EEFFFFFFFFF61
:1034F0005DEF7DF7BEFFDADE74B57BEF5BEFFEFFBD
:103500009DF7BDF7FFFFFFFFFFFFFFFFFFFFFFFF7F
:10351000FFFFFFFFFFFFFFFFFFFFFFFFFFFFFFFFBB
:10352000FFFFFFFFFFFFFFFFFFFFFFFFDFFFFFFFCB
:10353000DFFFDFFFFFFFFBE679D6DEFF95BD7CF7FF
:10354000DEFFDEFFFFFFFFFFFFFF7DEFBEF7FFFFA8
:10355000FFFFDEFFFFFFFFFFDEFF78D694BDB4BDA7
:103560002E843AE7FEFFFEFFFEFF9DF7FFFFFFFF01
:10357000FFFFFFFFFFFFFFFFFFFFFFFFFFFFFFFF5B
:10358000FFFFFFFFFFFFFFFFFFFFFFFFFFFFFFFF4B
:10359000FFFFFFFFBEFFFFFFFFFF95BD308C17CE83
:1035A000909CD9E6F5C516C6DEFFBDFF9DF7FFFF6F
:1035B000FFFFFFFFDEFFFFFF3BEF4F94895A6C7B5D
:1035C000ED83AF9CCC83FDFFFEFFDEFF5CEFFFFFD2
:1035D000FFFFFFFFFFFFFFFFFFFFFFFFFFFFFFFFFB
:1035E000FFFFFFFFFFFFFFFFFFFFFFFFFFFFFFFFEB
:1035F000FFFFFFFFDFFFFFFFBEF7FFFFFFFF9DFFA6
:103600000B6B13AD12B54A7B6B7B2A738C7BD9E6AF
:10361000FEFFFAE678DE57D6DEFF9DFFEE8BC54152
:10362000C96A8C83CC83B3BD97DEF1A4B8DEFEFFFC
:10363000BDFFFFFFFFFFFFFFFFFFFFFFFFFFFFFFDC
:10364000FFFFFFFFFFFFFFFFFFFFFFFFFFFFFFFF8A
:10365000FFFFFFFFFFFFFFFFFFFFFFFFBEFFDEFFDC
:103660009DFFFAE6AD836C7B93C5D4CD2D948FA4DA
:103670002A730A6B1AEF3BF733B5B4C557D64F9C84
:10368000A441E551EA72C96A6E94D3C5FDFFCD83AA
:103690000A6B78D6BDFFFFFFFFFFFFFFFFFFFFFFB5
:1036A000FFFFFFFFFFFFFFFFFFFFFFFFFFFFFFFF2A
:1036B000FFFFFFFFFFFFFFFFFFFFFFFFFFFF7DEFAC
:1036C000DEFFFFFF95BDC96248524B7B15D6FCFF5C
:1036D00052BD6EA4E96A665A77DEF9EE5BFF7BFFA6
:1036E000DDFF73BD26520231E230E5492D94FCFF27
:1036F0007BFF4B73A95A8D7B9DF7BDF7FFFFFFFF43
:10370000FFFFFFFFFFFFFFFFFFFFFFFFFFFFFFFFC9
:10371000FFFFFFFFFFFFFFFFFFFFFFFFFFFFFFFFB9
:10372000FFFFBEFFDEFF34ADEB6A4752A962475A86
:103730002D9C7AFFD8EEAC8B2A736F9C32B5F1AC1E
:10374000909CCD8312ADB5C573BDCD8B8441E54949
:1037500022318B7BF1ACE96A8C7B4B73F6C5FFFFA2
:10376000FFFFFFFFFFFFFFFFFFFFFFFFFFFFFFFF69
:10377000FFFFFFFFFFFFFFFFFFFFFFFFFFFFFFFF59
:10378000FFFFFFFFFFFFFFFFBEFFEA62064A2B734A
:103790000A6BA862A86A76DEFDFF93BD32B536CE0D
:1037A000D1A4D1A4D1A40F8C8D7BEA624C738C7B05
:1037B000685A685AA4410008401823312752895A90
:1037C00038CEBEFFFFFFFFFFFFFFFFFFFFFFFFFF42
:1037D000FFFFFFFFFFFFFFFFFFFFFFFFFFFFFFFFF9
:1037E000FFFFFFFFFFFFFFFFFFFF9DF73CEF895A41
:1037F000C641A962E649A962C549AC83D0A412AD0D
:1038000033AD909C2F8C13A5B19495B5B5B533AD60
:10381000D29C71942F8CEE830A73A96203310752F4
:10382000485248521CEFFFFFDFFFFFFFFFFFFFFF83
:10383000FFFFFFFFFFFFFFFFFFFFFFFFFFFFFFFF98
:10384000FFFFFFFFFFFFFFFFFFFFFFFFDFFFFFFFA8
:103850001BEFEA62C541EA6A475A84412A732A6B20
:103860002A6BB19C74B533A5D6BD58CEBAD658C60E
:1038700055A558C6DBDE38C659CE95BD74BD2F940C
:103880002C73CA6A14B5FFFF3DF77DF7DFFFFFFF1A
:10389000FFFFFFFFFFFFFFFFFFFFFFFFFFFFFFFF38
:1038A000FFFFFFFFFFFFFFFFFFFFFFFFFFFFFFFF28
:1038B000DEFFFFFFFEFFF6C5A9626439C96A4F94B7
:1038C0000E8CEE83D19C74ADD6BDFADE3CE7FBDEF8
:1038D000BAD6DBD676AD7ACEBACE18BE3CE738C6BD
:1038E00017CE38D614AD0F8C8A5A96BDFFFFDFFF76
:1038F000FFFFFFFFFFFFFFFFFFFFFFFFFFFFFFFFD8
:10390000FFFFFFFFFFFFFFFFFFFFFFFFFFFFDFFFE7
:10391000DFFFFFFFDEFFDDFFFDFF93BDA862CD836C
:10392000B4C5F2AC4C6BB6B575B579D6FBDE38C60E
:103930003CE71CDFFCDE18BEB7AD5284FCD61DDFB1
:10394000DCD61DDFD49CF59CDCDE76ADB3940C6335
:10395000139DFFFFDFFFBEF7FFFFFFFFBEF7FFFF77
:10396000DFF7FFFFFFFFFFFFFFFFFFFFFFFFFFFF8F
:10397000FFFFFFFFFFFFFFFFFEFFFDFF15CECC8324
:103980004E9497DE16D68D7B7194B6B5DBDE96B578
:10399000D7BDFFFFDBDE5DE77EEF117CF59C359D3B
:1039A00019BEBCCE5EE7B8AD9CCE3AC6D8B51DDF19
:1039B00035A551848E6B38BEFFFFFFFFFFFFFFFF71
:1039C000DFFFFFFFBFF7FFFFFFFFFFFFFEFFFFFF70
:1039D000FFFFFFFFFFFFFFFFFFFFFEFFDDFF7BEFAE
:1039E000D09C8B73F5C57BF7B4C5CE83B6BDDADE4C
:1039F0003CE7BAD6F8BDDBD618C6DBD6DFF7159D97
:103A0000B494117CB8AD3EDFDDD6906B3AC6FDD6DE
:103A1000DDD67AC69ACE76AD928C4D631BDFFFFF62
:103A2000FFFFFFFFFFFFFFFFBFF7FFFFFFFFFFFFEE
:103A3000FFFFFFFFFFFFDFFFDFFFDFFFDFFFDEFF37
:103A40007CF794BDED8331ADF9E6F5CD909C54B58E
:103A500038CEBAD69AD6FFFF18BE3184928C9BD648
:103A60003DE75AC6B7ADB38C9BCEFFF71DDF52843E
:103A7000F594BFEF3EDFFDDE39C6DBD675AD0C5BDE
:103A8000F39CDEF7FFFFDFF7FFFFDFFFDFFFFFFF46
:103A9000FFFFFFFFFEFFFFFFFFFFDFFFBFF7DFFFBF
:103AA000FFFFFFFFFAE66B736B7397DED9E6909C1E
:103AB000709458CE3CE79AD65DEFFFFF18C6D394BA
:103AC000928CFCDE5EE7DCD61DDF1DDF5EE7FDDEEF
:103AD000FDDE19BE3ABE5FE7FDDE1DDFBBD6D7B502
:103AE00096ADD3940C5B79CEFFFFFFFFFFFFFFFF86
:103AF000FFFFFFFFFFFFFFFFFEFFFFFFFFFFFFFFD7
:103B0000DFFFFFFFFFFFFFFFF2A467524E9419EFA4
:103B100052B5AD7B33AD99DEBAD67DEF3DE7FCDE25
:103B200039C676AD55A5F073F8BD5EE73AC697ADD8
:103B3000DCD6DCD69BCEFDD67FE7DCD6DCD6359D49
:103B40009BCEF49C39C6F7B50C5BF39CFFFFFFFFDF
:103B5000DFFFFFFFFFFFDFFFFFFFFFFFFFFFFFFFB5
:103B6000FFFFFFFFFFFFFFFFBEFF3CEFC962A85A48
:103B7000B4BDB8DE8C738C7317CE58CE1CE7DFF75C
:103B80001CDFDBD67EEFFCDE7EEFF0738B4A9BCE34
:103B9000369D117C9BCE9FEF1DDF9FEFDCD67FEF24
:103BA00019BEB3945284DBD67ACE59C6928C4D633B
:103BB0003CE7FFFFDEF7FFFFFFFFDFFFFFFFFFFF39
:103BC000FFFFFFFFFFFFDFFFFFFFFFFF5DF778D67F
:103BD000274A2A6B15C6F5C5E962EE8358D696B515
:103BE00079CE317C76AD728459C67EEF1DDF59C621
:103BF000872976A5DCD6FCD6DCD6DCD61DDFBCD684
:103C00009BCE7EE7DCD65284728C1DDF1CDF7ACE21
:103C1000F8BD494239C6FFFFBEF7FFFFFFFFFFFFB8
:103C2000FFFFFFFFFFFFDEF7FFFFFFFFFFFFFFFFCD
:103C3000FFFF919C84396F94D8DE2E8C474AD19C2B
:103C400099D61CE79ACE1074AF73928CB7ADFCDE98
:103C50003DDF7EE73284E9395EE73DDFFCD6DCD626
:103C60007EE7DCD63EDF1DDF9BCE97AD56A539C67D
:103C70009ACEBBD618BE8E6B5184FFFFFFFFDEF7D6
:103C8000FFFFFFFFFFFFFFFFFFFFDFFFFFFFFFFF64
:103C9000BFFFBFFFBEFFCE83064AD1A497DECD7B18
:103CA000A95254AD9AD61CE71CDF7284CF6B728484
:103CB000D8B53DDF1DDFDCD6F9BD872976A5BFEF7E
:103CC000DCD61DDFFCD69BCE3DDFFCDEBBD65AC664
:103CD0009BCE7BCEBBD65AC618BEF07BEF7BDFF700
:103CE000FFFFDEFFFFFFFFFFFFFFFFFFFFFFFFFF05
:103CF000FFFFFFFFDFFFBFFF5DF70B6B685A12ADE1
:103D0000F5C5E962A95A95B59ACEFCDE7EE739BEC3
:103D100039BE7BC6FCD67EE73DDF1DDF9FEFB0736B
:103D2000EC521DDFBCD63DE75EE77FEFF8BD18BE65
:103D300019BE39BE9BCE76ADBBD6BBD639C69394E1
:103D40006D6BBEF7FFFFDFFFFFFFFFFFFFFFFFFF12
:103D5000FFFFFFFFFFFFFFFFFFFFDFFF3CF7895A79
:103D6000675A12AD52B5474A0B6358C6BBD61DDF22
:103D7000FCD63DDF9FEF7FE71DD7FCD6FCD6FCD6F7
:103D80007FE75AC6C410159D9FEF5EE77BCE97ADC7
:103D90007AC61CDF7EEF5EE79BCE4E63B394F49C45
:103DA0005AC635A50C5B9EEFFFFFFFFFFFFFFFFF2D
:103DB000FFFFFFFFFFFFFFFFFFFFDFFFDFFFDFFF73
:103DC0001CF70752C549D1A432AD474A8D73BAD604
:103DD000BBD6BCCE97ADBBCE1DD7FCCEDCCE1DD79F
:103DE0001DDFFCD6FDD6FFF78F6B317CD4948F6B33
:103DF000AF73B394317C5184107C8F6B0D5B2621A3
:103E0000728CF9BD7ACE56A52D63BEF7FFFFFFFF7A
:103E1000FFFFFFFFFFFFFFFFFFFFFFFFFFFFBFFFF2
:103E2000BFFFDFFF1BEFC64923316F9C11A5064280
:103E30000B63F7BD97AD159D6E5BD8ADFDD61DD755
:103E40003DD73DDF5EE71DD75EDF97ADD49432846A
:103E5000159D56A5B39456A5B7B5F8B539C65AC63B
:103E60005AC6D4943AC6DCD67ACE15A5CF73DFF7FE
:103E7000FFFFFEFFFFFFFFFFFFFFFFFFFFFFFFFF53
:103E8000FFFFBFFFBFFFDFFF3CF7E649A120ED8B3F
:103E9000D19CA539284255A556A5F594AC4AF9B54B
:103EA0003EDF3EDF1DD7DCCEFCD67AC6738452845B
:103EB0005AC65AC65EE7BFF73EE77FEF5DE73DDFD4
:103EC0003DDF3DDF3EE7BCD6FDDEFDDE9BCEB3949D
:103ED0009394FFFFFFFFDEFFFFFFFFFFFFFFFFFFEA
:103EE000FFFFFFFFFFFFBFFFDFFFDFFF9DFF485A20
:103EF0008018AD83B09C84310742D7BDBBD6BBCE02
:103F0000F4945EDF3EDFBBCEFDD63DDF1DDF19BE84
:103F100019BEDFF7DCD6D8B51DDF9BCE1DDFDCD6A2
:103F20001CDF1CDF5DE73DDF1DDF3DDFBCD6BBD600
:103F30009BCE728C35A5FFFFFFFFDEFFFFFFFFFF6B
:103F4000FFFFFFFFFFFFFFFF9EFFFFFFBFFFFFFF22
:103F5000DEFFEE836010A95AB19C85318531B6BD74
:103F60007ACE1DE7FDDEFDDEBCD61DDFBCD6FDDE54
:103F7000DCD61DDFFDDEFCDE1DDF77AD3DDFFCDEC8
:103F8000FCD61DDF1DD77EE7FCD6B7AD159D3DDF06
:103F9000DCD6DBD618BE718C9ACEFFFFFFFFFFFF89
:103FA000FFFFFFFFFFFFFFFFDFFFFFFFBFFFFFFF81
:103FB000DEFFDEFFFFFF54AD2329C95A13A50742D8
:103FC0008110B29CFBE6BBDEFCDE5FEF3EE77FEFDD
:103FD0001DE7FDDEFDDEFDDE1DDF1DDFFCDED8B5ED
:103FE0001DDF3DE75EE71DDF1DD75EDF9FE7D06B7E
:103FF0000C531CDF7AC6FBD696AD149D1CE7FFFF61
:10400000BEF7FFFFFFFFFFFFFFFFFFFFDFFFFFFF29
:10401000BFFFFFFFFFFFDEFFFFFFFAE6A95A0B63BA
:1040200054AD6D7381108D73FBE67ACEDCDEF9BD85
:10403000938CB8B51DE7FDDE1DE7BCD6FDDEFDDEC9
:104040007AC6F8B59BCE1CD77EE7FCD65EDF9BC652
:104050001CD79384AF6B18B6149D38BE149D18BE40
:10406000DFFFFFFF9DF7FFFFFFFFDEFFFFFFFFFF0B
:10407000DFFFFFFFDFFFFFFFFFFFDEFFFFFFFEFFB2
:10408000D19C8C73D19C13A5484AEA6217CE79D68D
:104090009FF716A58C52738C3EE71DDF3EE71DDFB0
:1040A0001DDFDCD639BE7AC65AC6BBCE5EE7FCD66B
:1040B000BFEF3DDF5DDFBFEF7EE7DBD659C67ACECF
:1040C00076AD1CDFFFFFDFFFBEF7FFFFFFFFFFFF47
:1040D000FFFFFFFFFFFFFFFFDFFFDFFFFFFFDEFF51
:1040E000DEFFFEFFB9DE0E84CD7B94B57094A95A35
:1040F000919CBADEB7BDF59C8F6B159DFDDEDCD6BD
:10410000DCD63DDF3EDFFDD6DCD63EDF1DD7FCD65C
:104110003DDF3DDF9384D7ADBBCEDCD6FCD6DBD60E
:104120007ACEB7B59ACEDEF7FFFFDFFFFFFFFFFFC6
:10413000FFFFFFFFFFFFFFFFFFFFFFFFDFFFDFFFCF
:10414000FFFFFEFFBDF7DEFFDDFF12A56B73D19C05
:1041500032AD4B6BAC7B58CE9294D8BDB8B53AC655
:10416000DCD6DCD6159DD4943DDF1DD79FE7FDD668
:104170003EDF5EE71DD71DD78E63B38C7EE7BBCED7
:104180009ACEFBD6F8BD38C69EEFFFFFDEFFFFFFDD
:10419000FFFFDEFFFFFFFFFFFFFFFFFFFFFFFFFF50
:1041A000FFFFFFFFFFFFFFFFFEFFDEFFFEFFB9DEA9
:1041B000B09C0E8CF1A44F948B7BB19C7ACE7EEF99
:1041C0001DDF5EE7FCDEFCDE6F638F6B3DDFFDD63F
:1041D0007EE7159D3ABE7FE7FDD6FDD6B38C928C67
:1041E000FCD61CDF1CDF39C6B7B51CDFFFFFFFFFA5
:1041F000BEF7FFFFFFFFBEF7FFFFFFFFFFFFFFFF61
:10420000FFFFFFF7FFFFFFFFDEF7FFFFFFFFFEFFF0
:10421000FEFFFEFF57D6ED836F9452B5CC830A6341
:1042200059CE7ACE39C63DE7BBD63DE7F07B19BE05
:104230007EE71DDF3DDF0D5BF5947FE71DDF3DDF92
:10424000F8B575A576AD7ACE1CDFB6ADDBD69EEFA0
:10425000FFFFFFFFBEF7FFFFFFFFBEF7FFFFFFFF00
:10426000FFFFFFFFFFFFFFFFFFFFFFFFFFFFFFFF5E
:10427000FFFFFFFFDEFFFEFFFDFFB4BD0E8C4E947F
:10428000B09C2F8C4D6B9ACE5DEF18BE7ACE5DE759
:1042900076AD3DDF7EEFDCD639BED07372845EE74B
:1042A0005EE71CD7DBD69ACE18BE59C6B6B5FBDE84
:1042B000BEF7DFF7FFFFFFFFFFFFFFFFFFFFFFFF7F
:1042C000FFFFFFFFFFFFFFFFFFFFFFFFFFFFFFFFFE
:1042D000FFFFFFFFFFFFFFFFFEFFBDF7FEFFDDFF5C
:1042E00036CE6F94ED832F8C9194EB5AD7BDFBDEC5
:1042F0009AD6AE7318BE3CE7DBD63DDF9FEFD8B54C
:1043000097AD3DDFBBCE7ACEFCDEBAD6BAD6BAD6F2
:10431000FBDEFBDE7DEFFFFFFFFFFFFFFFFFFFFF89
:10432000FFFFFFFFFFFFFFFFFFFFFFFFFFFFFFFF9D
:10433000FFFFFFFFFFFFFFFFFFFFFFFFFFFFBEFFCE
:10434000FFFFFEFFBDFFD9DE53B5ED83CE7BAE731D
:10435000919454AD1CE7BAD61CE738C67ACE59C63C
:104360005ACE15A555A5DBD6BBD6DBD69AD658CEE8
:1043700038C6B6B55DEFBEF7FFFFFFFFFFFFFFFFDB
:10438000FFFFFFFFFFFFFFFFFFFFFFFFFFFFFFFF3D
:10439000FFFFFFFFFFFFFFFFFFFFFFFFFFFFFFFF2D
:1043A000FFFFFFFFFFFF9DF7DEFFFEFF9CF774B5E9
:1043B00070946C736D73CE7BCE7BB6B5DADE3CE762
:1043C0005DEF1CE77DEFDBDEDBDE3DE79BD67ACEE3
:1043D000D7BD38C638C6F39CB6B59DF7FFFFBEF70C
:1043E000FFFFFFFFFFFFFFFFFFFFFFFFFFFFFFFFDD
:1043F000FFFFFFFFFFFFFFFFFFFFFFFFFFFFFFFFCD
:10440000FFFFFFFFFFFFDFFFFFFFFFFFDEFFFEFFFE
:10441000FEFFFEFFFEFFD9DEEE834C6BEE8368529B
:104420000B63EF83D29C34A5F7BDD7BD55AD14A562
:10443000F49C75AD38C61BE79DF758CE0F8417C6A0
:10444000FFFFDEFFFFFFFFFFFFFFFFFFFFFFFFFF9D
:10445000FFFFFFFFFFFFFFFFFFFFFFFFFFFFFFFF6C
:10446000FFFFFFFFFFFFFFFFFFFFBFF7FFFFFFFFA4
:10447000FFFFBEF7FEFFFEFF9CF7FEFF274A70948A
:10448000FEFFB9DE54AD308CCE7B8D736D738E73B1
:10449000EF83929496B579D69DF7BEF7FFFFFFFFA5
:1044A00054AD38C6BDF7FFFFFFFFFFFFFFFFFFFF63
:1044B000FFFFFFFFFFFFFFFFFFFFFFFFFFFFFFFF0C
:1044C000FFFFFFFFFFFFFFFFFFFFFFFFFFFFDFFF1C
:1044D000FFFFFFFFFFFFFFFFFFFF7CEFFEFF73B556
:1044E000A962DDFF9CFFDDFFFEFF3BEF7CF7FBE6F3
:1044F00079D6DBE69EF7FFFFFFFFFFFFFFFFFFFF21
:10450000FFFFFFFF9DF79DF7BEFFFFFFFFFFFFFFD0
:10451000FFFFFFFFFFFFFFFFFFFFFFFFFFFFFFFFAB
:10452000FFFFFFFFFFFFFFFFFFFFFFFFFFFFFFFF9B
:10453000FFFFDFFFFFFFFFFFDFFFDFF7FFFFFFFFF3
:104540009CF76B73D5C5DDFFFEFFDDFFFEFFFFFFB0
:10455000FFFFFFFFFFFFFFFFFFFFDFFFFFFFDFFFAB
:10456000BEFFFFFFFFFF5CEFFFFFFFFFDFFFFFFF6F
:10457000FFFFFFFFFFFFFFFFFFFFFFFFFFFFFFFF4B
:10458000FFFFFFFFFFFFFFFFFFFFFFFFFFFFFFFF3B
:10459000FFFFFFFFFFFFFFFFFFFFFFFFFFFFFFFF2B
:1045A000FFFFFFFFD9DEEE7B7CF7FEFF9DF7FFFFED
:1045B000FFFFFFFFFFFFFFFFFFFFFFFFFFFFFFFF0B
:1045C000FFFFFFFFFFFFFFFFFFFFFFFFFFFFFFFFFB
:1045D000FFFFFFFFFFFFFFFFFFFFFFFFFFFFFFFFEB
:1045E000FFFFFFFFFFFFFFFFFFFFFFFFFFFFFFFFDB
:1045F000FFFFFFFFFFFFFFFFFFFFFFFFFFFFFFFFCB
:10460000FFFFFFFFFFFFFFFFFFFF78CEFFFFFEFF73
:10461000DEFFFFFFDFFFFFFFFFFFFFFFFFFFFFFFEB
:10462000FFFFFFFFFFFFFFFFFFFFFFFFFFFFFFFF9A
:10463000FFFFFFFFFFFFFFFFFFFFFFFFFFFFFFFF8A
:10464000FFFFFFFFFFFFFFFFFFFFFFFFFFFFFFFF7A
:10465000FFFFFFFFFFFF7DEFFFFF7DEF7DEFFFFF20
:10466000DFFF7DEFFFFFFFFFFFFFFFFFFFFFDFFF2C
:10467000FFFFFFFFDFFFDFFFFFFFFFFFFFFFDFFFAA
:10468000FFFFFFFF7DEF59CEDBDE5DEFBEF7FFFFE3
:10469000FFFF7DEF9EF7FFFFFFFFBEF7BEF7DFFFD7
:1046A000FFFFFFFFFFFFFFFFFFFFFFFFFFFFFFFF1A
:1046B000DFFFFFFFFFFFDFFFBEF7FFFF9EF7BEF745
:1046C0003CE7FBDEFBDEFBDEDBDEFBDE3CE73CE764
:1046D000DFFFDFFFFFFFFFFFDFFFFFFFFFFFDFFF6A
:1046E000DFFFFFFFDFFF9EF718C69294EF7B2C637E
:1046F000108414A5DBDEFFFFFFFF7DEF5DEFFFFF02
:10470000FFFFFFFFFFFFFFFFDFFF7DEFBEF7FFFFB4
:10471000FFFFFFFFFFFFFFFFBEF7FFFFFFFFDFFF12
:1047200055AD18C6FFFF5DEFBEF7FFFF9EF77DEFAB
:104730009EF73CE75DEFDFFFFFFFFFFFDFFFFFFFBF
:10474000FFFFDFFFFFFFFFFFFFFFBEF7718CA6310A
:10475000494AAE734D6BAA52CB5A9294DBDEFFFFEF
:10476000FFFF9EF7FFFFFFFFFFFFDFFFFFFFFFFFE2
:10477000FFFF9EF7FFFFFFFFFFFFFFFFBEF7FFFFFB
:10478000FFFFBEF7718CCB5A7DEFFFFFFFFFFFFFEE
:10479000DFFFDFFFBEF73CE71CE75DEF9EF7BEF7EC
:1047A000FFFFFFFFFFFFFFFFFFFFFFFFFFFFFFFF19
:1047B00038C62C632842E739CB5ACB5A694A08429B
:1047C0002C63D7BDDFFFFFFF9EF7FFFFFFFFFFFF5B
:1047D000FFFFFFFFFFFFFFFFFFFFFFFF9EF7FFFF52
:1047E000FFFF9EF7FFFFFFFF59CE2842B2943CE740
:1047F000FFFF7DEF5DEF9EF79EF79EF73CE71CE71E
:10480000DBDE5DEFFFFFFFFFDFFFFFFFFFFFFFFFCF
:10481000DFFFFFFFFFFF3CE775ADAA528631E739A6
:10482000EB5AEB5AE739494AD39C1CE7FFFFDFFFFD
:104830009EF7DFFFFFFFDFFFDFFFFFFFFFFFFFFF51
:10484000FFFFFFFFFFFFDFFFFFFF9EF7FFFF96B5B4
:104850008A5275AD9EF7DFFFDFFFBEF79EF7DFFFE1
:104860007DEF3CE779CEDBDEDFFFFFFF9EF7FFFF4A
:10487000DFFFFFFFFFFFFFFFDFFFFFFFFFFF7DEF1A
:10488000AE73C7398631694A28428631494A2C635A
:10489000BAD69EF7FFFFBEF7DFFFFFFFFFFF7DEFFA
:1048A000FFFFFFFFFFFFBEF79EF7FFFFFFFFBEF713
:1048B000FFFFFFFF1084CF7B96B5DFFFFFFF9EF762
:1048C0009EF73CE75DEF7DEF79CE18C63CE7FFFF32
:1048D000BEF7FFFFFFFFDFFF9EF7FFFFFFFF9EF723
:1048E000DFFF9EF7FBDE8E738631C739C739C739C4
:1048F000E739A631494A55ADDFFFFFFF7DEF9EF74F
:10490000FFFFFFFFFFFFFFFF9EF7FFFFDFFF1CE73B
:104910005DEFFFFF5DEFDFFFFFFF8E73AE731CE700
:104920007DEF7DEFFFFF3CE7FBDEBEF79AD696B545
:10493000BAD6FFFFFFFFFFFFDFFFFFFFFFFFFFFF15
:10494000DFFFBEF7FFFFBEF7FFFFAE732421863106
:10495000A631652965294529452986318E73DBDE17
:10496000FFFFDFFF9EF7FFFFFFFFFFFFFFFF9EF749
:10497000FFFF75AD38C61CE7FFFFFFFFFFFF3CE7F9
:104980008E7334A5DFFF3CE79EF71CE7FBDE1CE7D8
:10499000FBDED7BD18C69EF7FFFFDFFFFFFFDFFF7F
:1049A000FFFFFFFFFFFFFFFFFFFFBEF73CE7E3183E
:1049B00065294529A21045292421C3182421C3189B
:1049C000A2102842B6B5FFFFFFFFDFFFFFFFFFFF8A
:1049D000DFFFFFFFFFFF14A53CE759CED7BDFFFF68
:1049E000FFFF7DEFF7BD34A51CE79EF75DEF9EF757
:1049F000FBDE1CE7FBDED7BD38C6DFFFFFFFDFFFB6
:104A0000FFFFDFFFDFFFDFFFBEF7DFFFFFFF9EF7E8
:104A10002C634529E318C3182421E318200024211E
:104A200061084529C31820008210EF7B7DEFFFFF4E
:104A3000FFFFFFFFDFFFBEF7FFFFF39C79CE1CE710
:104A400018C659CE7DEFFFFFFFFF38C61CE79EF763
:104A5000FBDE3CE7FBDEDBDEBAD6D7BD59CEDFFF9F
:104A6000FFFFFFFFFFFFDFFFFFFFFFFFDFFFFFFF96
:104A7000FFFFBEF7652982108210C3184108A210FB
:104A800024216108E318E318A2100421E31882101E
:104A900075ADDFFFFFFFFFFFFFFFBEF7FFFF55AD67
:104AA00014A5FFFF5DEFF7BD79CEFFFF7DEF1CE79B
:104AB0005DEF5DEF3CE7DBDEFBDE79CE38C6D7BDD0
:104AC0009AD6DFFFFFFFFFFFDFFFDFFFFFFFFFFFE4
:104AD000FFFFFFFFFFFF9EF79294EB5A2421A210E5
:104AE0008631E31882100421C3184529E3186108B0
:104AF00008424108F7BDFFFFFFFFFFFFBEF7FFFFC2
:104B0000FFFF79CE718C3CE73CE77DEFF7BD9AD68D
:104B1000D7BD5DEF3CE75DEF9AD6FBDE1CE738C6FC
:104B200018C638C6FBDEDFFFBEF7FFFFFFFFFFFF43
:104B3000FFFFFFFFBEF7DFFFDFFF3CE79EF7CF7B06
:104B4000AA52242124214108821086310421863171
:104B5000C73986312421C318BAD6FFFFFFFFFFFFF4
:104B6000FFFFFFFFDFFF5DEF6D6B59CEBEF7DBDEB2
:104B7000D7BD75ADD7BD7DEF3CE71CE714A5D7BD0C
:104B800059CE38C69AD6DBDE3CE7DFFFDFFFFFFFFA
:104B9000FFFFFFFFFFFFDFFFBEF7FFFFDFFF1CE7A9
:104BA00014A5CB5AEF7BC7390000C739CF7BAA5277
:104BB000452941084529CB5A8210CB5A3CE7BEF71C
:104BC000FFFFFFFFFFFFDFFFDFFFFFFFAE7334A537
:104BD0009EF734A575ADB6B59AD63CE7FBDEB6B503
:104BE000D39C14A5308496B51CE7FBDE1CE7FFFFC1
:104BF000FFFFFFFFFFFFDFFFDFFFDFFFFFFFFFFF25
:104C00001CE796B528423084518C4D6B2C63F7BD60
:104C1000BAD638C6694A8210610841084529BAD611
:104C2000FFFFBEF7FFFFFFFF9EF7FFFFBEF7FFFF8F
:104C300096B54D6B75ADB6B534A5BAD679CE59CE0D
:104C400038C6108479CEB6B52842F39C3CE7BAD674
:104C50009AD6FFFFFFFFDFFFFFFFDFFFFFFFFFFF32
:104C6000FFFF5DEF75AD2C63EF7B10848E73FBDE71
:104C700038C6DFFFFFFFBEF7FBDECB5A6529A21067
:104C8000D7BDFFFF7DEFFFFFFFFFFFFFFFFFFFFF30
:104C9000FFFF5DEFBEF7EB5AB29434A5D7BDB6B5B2
:104CA0009AD6F7BD518C59CE34A5CB5A108455AD48
:104CB0003CE7DBDEDBDEFFFFDFFFDFFFFFFFDFFFC9
:104CC0009EF718C6F7BDDBDE8E736D6B10846D6BBF
:104CD00079CEFFFFBEF7FFFFFFFFDFFFFFFF1CE7FF
:104CE000B29492947DEFFFFFBEF7FFFFFFFFFFFF3F
:104CF000FFFFBEF7FFFFFFFFFFFF96B5308496B5BD
:104D0000B6B5D7BDD7BD718C18C614A5EF7B4D6B5A
:104D100038C6DBDEFBDEBAD65DEFFFFFDFFFBEF796
:104D20007DEFFFFF55AD652965294D6B8E73CF7BF8
:104D30008A5279CEFFFFDFFFFFFFFFFFFFFFFFFF7C
:104D40009EF7FFFF7DEF5DEFFFFFFFFF7DEFFFFFB2
:104D5000FFFFFFFFFFFFFFFFBEF7FFFFFFFF3CE787
:104D6000F39C96B514A5F7BDD39CF39C55ADAE73DB
:104D70000C63F39C38C61CE7BAD659CEDBDE7DEF58
:104D8000FFFFFFFFFFFF518C24212842042141082F
:104D90000C63284234A5FFFFFFFF7DEFFFFFDFFF1D
:104DA000BEF7FFFFBEF7FFFFFFFFFFFFFFFFFFFFA5
:104DB000DFFFFFFFFFFFFFFFFFFFFFFF7DEF9EF71E
:104DC000FFFFD39CF39C96B596B596B5D39CF7BDE3
:104DD000CF7BEB5AEF7B75AD18C6FBDEFBDE1CE725
:104DE000DBDE7DEFFFFF9EF78E730421E739A631EE
:104DF000E739E73900006D6BFFFFDFFF3CE7FFFF9E
:104E0000FFFFBEF7FFFFFFFFFFFFBEF77DEF9EF73F
:104E1000DFFFFFFFFFFFDFFFFFFFFFFFFFFFFFFFE2
:104E2000DFFFFFFFFFFFAA522C63B294B6B5D39CFD
:104E300055AD14A530844D6B75ADF39C18C6B6B551
:104E4000D7BD79CE38C61CE75DEFAE73E318494A8B
:104E5000C7396529A6312421000034A5FFFF1CE7CE
:104E6000FFFFFFFF9EF7FFFFFFFFDFFFFFFFDFFFFB
:104E7000FFFFFFFFFFFFFFFFFFFFDFFFFFFFFFFF62
:104E8000FFFFBEF7FFFFFFFFBEF755ADCB5A694AE4
:104E9000EF7B9294F39CF39CF39C14A518C638C640
:104EA00055AD718C34A5F7BD75AD59CEB6B586310B
:104EB0008A526529A631E739E318610845293CE79C
:104EC000BEF77DEFFFFFFFFFDFFFFFFFBEF7FFFF36
:104ED000FFFFFFFFFFFFFFFFFFFFFFFFFFFFFFFFE2
:104EE000FFFFFFFFFFFFFFFFFFFFBEF79EF7FFFF84
:104EF00096B54D6B0842EB5ACB5A4D6BCB5A8E731D
:104F0000EB5A518CD39CB29438C6DBDE79CEBAD63C
:104F100038C69294C3182842242104210421000099
:104F2000B294FFFFFFFFFFFFBEF7BEF7FFFFFFFFDB
:104F30007DEFFFFFFFFFDFFF9EF79EF7FFFFFFFF05
:104F4000FFFFFFFFFFFFFFFFFFFFFFFF7DEFFFFF03
:104F5000DFFF7DEFFFFF1CE775ADCF7BCF7B0C63E1
:104F60004D6B8A52E7392842AE733084D7BD59CE93
:104F70009AD69AD6F7BDBAD6B294E31886310421F0
:104F800082108631DFFF7DEF7DEFFFFFFFFFFFFF28
:104F9000FFFFDFFFFFFFFFFFFFFFFFFFFFFFFFFF41
:104FA000FFFFFFFFDFFFFFFFFFFFFFFFFFFFFFFF31
:104FB000FFFFFFFFFFFFFFFFFFFFFFFFFFFFBEF74A
:104FC0001CE7FBDE79CE96B5B2946D6B2842AE73CA
:104FD000718C38C618C6BAD6FBDE96B59AD6718CD7
:104FE00082100000C31875ADBEF7DFFFDFFFFFFFC3
:104FF000FFFFFFFFFFFFFFFFFFFFFFFFFFFFFFFFC1
:10500000FFFFFFFFFFFFFFFFFFFFFFFFFFFFFFFFB0
:10501000FFFFFFFFFFFFFFFFFFFFFFFFFFFFFFFFA0
:105020009EF7FFFFBEF7FFFFFFFFDFFFDFFF5DEF34
:10503000F39C494A718C718C59CEFBDE18C659CE4F
:1050400055AD59CE3084A210AE7379CEFFFF9EF7D6
:10505000FFFFFFFFFFFFFFFFFFFFFFFFFFFFFFFF60
:10506000FFFFFFFFFFFFFFFFFFFFFFFFFFFFFFFF50
:10507000FFFFFFFFFFFFFFFFFFFFFFFFFFFFFFFF40
:10508000FFFFFFFFBEF7FFFFFFFFFFFFFFFFFFFF79
:10509000FFFFDFFF1CE7718CCB5A518C34A5D7BDC5
:1050A0009AD6BAD659CE55AD9AD6929496B5FFFFF8
:1050B000DFFFFFFFFFFFFFFFFFFFFFFFFFFFFFFF20
:1050C000FFFFFFFFFFFFFFFFFFFFFFFFFFFFFFFFF0
:1050D000FFFFFFFFFFFFFFFFFFFFFFFFFFFFFFFFE0
:1050E000FFFFFFFFFFFFFFFFFFFFFFFFBEF7DFFF39
:1050F000FFFFBEF7DFFFDFFFFFFF75AD0421108468
:105100009294718C9AD679CEFBDEF7BDF39C9EF714
:105110007DEF3CE7FFFFDFFFFFFFFFFFFFFFFFFF2C
:10512000FFFFFFFFFFFFFFFFFFFFFFFFFFFFFFFF8F
:10513000FFFFFFFFFFFFFFFFFFFFFFFFFFFFFFFF7F
:10514000FFFFFFFFFFFFFFFFFFFFFFFFFFFFFFFF6F
:10515000BEF7FFFFFFFFBEF7FFFFFFFFBEF70842EE
:10516000A210C7399294B29414A518C638C6FBDEB3
:1051700096B5D7BD9EF71CE7FFFFBEF7FFFFFFFF09
:10518000FFFFFFFFFFFFFFFFFFFFFFFFFFFFFFFF2F
:10519000FFFFFFFFFFFFFFFFFFFFFFFFFFFFFFFF1F
:1051A000FFFFFFFFFFFFFFFFFFFFFFFFFFFFFFFF0F
:1051B000FFFFFFFFFFFFFFFF9EF77DEFFFFF9EF763
:1051C0004D6B2000E318A210694A14A5B29475AD86
:1051D00018C638C63CE755AD34A5FFFFFBDEFFFF20
:1051E000DFFFDFFFFFFFFFFFFFFFFFFFFFFFFFFF0F
:1051F000FFFFFFFFFFFFFFFFFFFFFFFFFFFFFFFFBF
:10520000FFFFFFFFFFFFFFFFFFFFFFFFFFFFFFFFAE
:10521000FFFFFFFFBEF7DFFFFFFFFFFFDFFFFFFF27
:10522000BEF7D39C00000421A210042161084D6B3D
:10523000F39C14A5D7BD38C618C61CE734A559CEB3
:105240005DEF5DEFBEF7DFFFDFFFFFFFFFFFFFFF5B
:10525000FFFFFFFFFFFFFFFFFFFFFFFFFFFFFFFF5E
:10526000FFFFFFFFFFFFFFFFFFFFFFFFFFFFFFFF4E
:10527000FFFFFFFFFFFFFFFFFFFFFFFFFFFFDFFF5E
:105280009EF7FFFF18C68210C31882108210A2106A
:10529000C318E3181084F39CB6B5D7BD59CE38C6F1
:1052A0003CE775AD59CE3CE79EF7BEF7DFFFFFFF49
:1052B000FFFFFFFFFFFFFFFFFFFFFFFFFFFFFFFFFE
:1052C000FFFFFFFFFFFFFFFFFFFFFFFFFFFFFFFFEE
:1052D000FFFFFFFFFFFFFFFFFFFFFFFFFFFFFFFFDE
:1052E0009EF7FFFFDFFFFBDE2842C318C3186108EB
:1052F0000421A210410841086529B29414A5D7BD24
:1053000018C618C6BAD679CE18C659CE9AD65DEF49
:10531000DFFFDFFFDFFFFFFFFFFFDFFFFFFFFFFF1D
:10532000FFFFFFFFFFFFFFFFFFFFFFFFFFFFFFFF8D
:10533000FFFFFFFFFFFFFFFFFFFFFFFFFFFFFFFF7D
:10534000FFFFFFFFFFFF3CE7FFFFCB5AE739A63126
:10535000A210C318200061082000C318AA528A5264
:10536000B294F7BD18C696B538C659CEDBDE18C65E
:1053700018C659CE1CE7FFFFFFFFDFFFDFFFFFFF6F
:10538000FFFFFFFFFFFFFFFFFFFFFFFFFFFFFFFF2D
:10539000FFFFFFFFFFFFFFFFFFFFFFFFFFFFFFFF1D
:1053A000FFFFFFFFDFFFFFFF7DEFFFFF3084E739E7
:1053B000A6312842E31861084108200000006D6B07
:1053C00018C68A52EB5A14A596B559CE55AD79CE6A
:1053D000FBDE79CEF7BDD7BD38C63CE7FFFFFFFF48
:1053E000DFFFFFFFFFFFFFFFFFFFFFFFFFFFFFFFED
:1053F000FFFFFFFFFFFFFFFFFFFFFFFFFFFFFFFFBD
:10540000FFFFFFFFFFFFFFFFDFFFDFFFFFFF96B59F
:10541000A63128420842863145298210C31800006F
:10542000C739FBDEFFFFF7BD08422C6355AD79CECF
:10543000D7BDF7BD38C6BAD69AD679CE18C618C623
:10544000FBDEFFFFFFFFBEF7FFFFFFFFFFFFFFFFDA
:10545000FFFFFFFFFFFFFFFFFFFFFFFFFFFFFFFF5C
:10546000FFFFFFFFFFFFFFFFFFFFFFFFFFFFFFFF4C
:105470009AD6A63128420842863165294529E31883
:105480002000E31875ADFFFF7DEFFFFF9294E73931
:10549000718CF39CBAD696B596B538C6DBDEDBDEEA
:1054A00079CEF7BD38C61CE7DFFFFFFFFFFFFFFF28
:1054B000FFFFFFFFFFFFFFFFFFFFFFFFFFFFFFFFFC
:1054C000FFFFFFFFFFFFFFFFFFFFFFFFFFFFFFFFEC
:1054D000FFFF1CE7CB5A2842C739C7396529A631D7
:1054E000652900004108D39CBEF7BEF7FFFFBEF759
:1054F0009EF76D6B494ACF7B75AD9AD655AD38C6D0
:1055000059CE79CEBAD6BAD638C6F7BDDBDEFFFFA4
:10551000DFFFDFFFFFFFFFFFFFFFFFFFFFFFFFFFDB
:10552000FFFFFFFFFFFFFFFFFFFFFFFFFFFFFFFF8B
:10553000FFFFFFFF7DEFEF7BC7398A52C739042198
:1055400008422421042141084D6BFFFFFFFF7DEF3E
:10555000FFFF7DEFFFFF59CE8A522C638E7338C652
:10556000D7BD18C6D7BD18C69AD6FBDE9AD618C6C0
:1055700079CE1CE7BEF7DFFFDFFFFFFFFFFFFFFF76
:10558000FFFFFFFFFFFFFFFFFFFFFFFFFFFFFFFF2B
:10559000FFFFFFFFFFFFFFFFF39C494A0842C739A7
:1055A00086318631E318E3180000CB5ADBDEDFFFDB
:1055B000DFFFFFFF9EF7FFFF9EF7FFFF75AD28425D
:1055C0002C63AE739AD696B5D7BD18C659CE79CE90
:1055D000DBDE1CE79AD6D7BD9EF7BEF7DFFFFFFFE5
:1055E000FFFFFFFFFFFFFFFFFFFFFFFFFFFFFFFFCB
:1055F000FFFFDFFFFFFF7DEFFFFFF7BD494A494A8D
:10560000A631C73945292421863100008631F7BDEE
:10561000FFFF9EF7FFFFFFFFDFFFFFFFFFFFDFFF43
:10562000FFFF4D6B8A524D6BAE7359CE96B579CE56
:10563000D39CEB5AEB5A75ADBEF738C659CE9EF7E0
:10564000FFFFBEF7FFFFFFFFFFFFDFFFFFFFFFFFD3
:10565000FFFF9EF7FFFFFFFFBEF7FFFF18C68A524E
:105660002842694AA631863145290842000041088E
:10567000F39C7DEFFFFFDFFFFFFFFFFFBEF7FFFFA4
:10568000DFFFDFFF9EF7FFFF8A528A526D6B1084A7
:1056900059CED7BD308496B596B59294BAD6FBDE76
:1056A00018C65DEFFFFFFFFFFFFFFFFFFFFFFFFFDC
:1056B000FFFFFFFFFFFFFFFFFFFFDFFFBEF71CE75E
:1056C000C7394529E73928426529C73924216108A6
:1056D000000030849EF7FFFFFFFFDFFFFFFFFFFFAB
:1056E000DFFFFFFFDFFFBEF7FFFFFFFF9AD6E739BF
:1056F0002C634D6BF7BD96B559CEBEF7DFFFBAD61A
:1057000059CEBEF738C63CE7FFFFFFFFFFFFBEF7ED
:10571000BEF7FFFFFFFFFFFFDFFFFFFFFFFFDFFF22
:10572000FFFFBAD6E31804210842A631E318452941
:1057300045290000CB5ADBDEFFFFDFFFDFFFFFFF65
:10574000FFFFFFFFFFFFFFFFDFFFFFFFDFFF5DEF5B
:10575000FFFF55AD494A6D6BCF7B38C6D7BDFBDE29
:105760003CE738C65DEF1CE79AD65DEFBEF7DFFF7A
:10577000FFFFFFFFDFFFFFFFFFFFFFFFFFFF9EF7C2
:10578000FFFFFFFFBEF7FFFFF39C65290421042103
:105790006529C3180000452959CEBEF7FFFFDFFF7A
:1057A000FFFFFFFFDFFFFFFFFFFFDFFFFFFFFFFF49
:1057B000DFFFFFFFBEF7FFFFAE73694A1084F39C63
:1057C00059CED7BDD7BD59CE18C67DEFB6B53CE78B
:1057D000FFFFBEF7DFFFFFFFFFFFFFFFFFFFFFFF42
:1057E000FFFFDFFFFFFFDFFFFFFFFFFFBEF734A577
:1057F000694A8210821000002000B294BEF7FFFFB9
:10580000FFFFFFFFFFFFFFFFDFFFFFFFFFFFFFFFC8
:10581000DFFFFFFFFFFFDFFFFFFFDFFF1CE76D6B19
:10582000AA52B29475AD79CE59CE14A534A59294EE
:10583000F39CFBDEFFFFFFFFDFFFFFFFFFFFFFFF2C
:10584000FFFFFFFFFFFFFFFFFFFF9EF7FFFF7DEF63
:10585000BEF7FFFF9AD60C6341082000CF7BFFFF05
:10586000FFFFBEF7FFFFFFFFFFFFFFFFFFFFFFFF91
:10587000FFFFFFFFBEF7FFFFBEF7FFFFFFFFDFFFEA
:10588000FFFF9AD6AA528A521084718C3084CF7B43
:105890008A528A52F7BD7DEFFFFFFFFFFFFFFFFF38
:1058A000FFFFFFFFFFFFFFFFFFFFBEF7FFFFFFFF51
:1058B000BEF7FFFFFFFFBEF7DFFFDFFF718C694A16
:1058C000FBDEBEF7FFFFDFFFFFFFFFFFDFFFFFFF96
:1058D000FFFFFFFFBEF7FFFFFFFFFFFF9EF7FFFF8A
:1058E000FFFFBEF7FFFFFFFF38C62C63E739AA5260
:1058F0008A5228426D6B34A5FFFFFFFFFFFFDFFFD9
:10590000FFFFFFFFDFFFFFFFFFFFFFFFFFFFFFFFC7
:10591000FFFFFFFFFFFFFFFFFFFFFFFFFFFFDFFFB7
:105920007DEF3CE79EF7FFFFFFFFDFFFFFFFFFFF7D
:10593000FFFFFFFFFFFFFFFFFFFFFFFFFFFFFFFF77
:10594000FFFFFFFFFFFFFFFFFFFFDFFFDFFFDBDEEC
:1059500075AD9294B29496B5DBDEBEF7FFFFFFFF04
:10596000FFFFFFFFFFFFFFFFFFFFFFFFFFFFFFFF47
:10597000FFFFFFFFFFFFFFFFFFFFFFFFFFFFFFFF37
:10598000FFFFFFFFBEF79EF7DFFFFFFFFFFFDFFF19
:10599000FFFFFFFFFFFFFFFFFFFFFFFFFFFFFFFF17
:1059A000FFFFFFFFFFFFFFFFFFFFFFFFFFFFDFFF27
:1059B000FFFFFFFFBEF79EF7BEF7DFFFFFFFFFFF12
:1059C000FFFFFFFFFFFFFFFFFFFFFFFFFFFFFFFFE7
:1059D000FFFFFFFF00000A0B02090C0D0E08070372
:1059E00004010000000000000000000000000000B2
:1059F00000000000000000000000000000000000A7
:105A00001211100000000000000000000000000063
:105A100000000000000000000000021F1C1F1E1FED
:105A20001E1F1F1E1F1E1F005EBCE2613FDD83C2E2
:105A30009C7E20A3FD1F419DC3217FFCA2401E5FD1
:105A400001E3BD3E6082DC237D9FC1421CFEA0E1DC
:105A5000BF5D0380DE3C62BEE0025CDF81633D7CB3
:105A600022C09E1D43A1FF4618FAA427799BC58436
:105A7000DA3866E5BB5907DB856739BAE406581999
:105A800047A5FB7826C49A653BD987045AB8E6A790
:105A9000F91B45C6987A24F8A6441A99C7257B3A7B
:105AA0006486D85B05E7B98CD2306EEDB3510F4EEA
:105AB00010F2AC2F7193CD114FADF3702ECC92D369
:105AC0008D6F31B2EC0E50AFF1134DCE90722C6D44
:105AD00033D18F0C52B0EE326C8ED0530DEFB1F04B
