:100000000C948D550C94BE550C94BE550C94BE5555
:100010000C94BE550C94BE550C94BE550C94BE5514
:100020000C94BE550C94BE550C94BE550C94BE5504
:100030000C94BE550C94D0FF0C94BE550C94BE5538
:100040000C94BE550C94BE550C94BE550C94BE55E4
:100050000C94BE550C94BE550C94BE550D94B50031
:100060000C94BE550C94FEFE0C94D5FE0C94BE551B
:100070000C94BE550C94BE550C94BE550C94BE55B4
:100080000C94BE550C94BE550C94BE550C94BE55A4
:100090000C94BE550C94BE550C94BE550C9452E273
:1000A0000C94BE550C94BE550C94BE550C94BE5584
:1000B0000C94BE550C94BE550C94BE550C94BE5574
:1000C0000C94BE550C94BE550C94BE550C94BE5564
:1000D0000C94BE550C94BE550C94BE550C94BE5554
:1000E0000C94BE55BE5AC15AC65ACE5AD95AD95A7C
:1000F000E75AE75AE75A95017D0193019301A3015D
:100100007D016B01B1018B017D019B018F016301B9
:100110006301950171017D01950149015D016D0149
:10012000650143017101A701670187015101910137
:100130009901728188819E81B481CA81E081F681B2
:100140000C82A882D9820A833B836C839D83CE83F1
:10015000FF837C84E485168746887689A68AD68BB9
:10016000FB8BD48EEA8E008F168F2C8F428F588F88
:10017000A38FD48F0590369067909890C99028915E
:100180003C92429348944E9554965C973899719955
:10019000A399D599079A399A6B9A9D9ACF9A019B00
:1001A000679B989BC99BFA9B2B9C5C9C8D9CBE9CDF
:1001B000EF9C209D669D749E789F87A08BA18FA247
:1001C0009CA3A2A3A8A3AEA352B968B97EB994B95F
:1001D000AAB9C0B9D6B91EBA4FBA80BAB1BAE2BA92
:1001E00013BB44BBA7BBCDBBF3BB19BC3FBC65BCB9
:1001F00087BC0AE4DBE421E421E436E4DBE4F1E358
:10020000B2E454E4DBE462E462E47FE47FE40AE421
:10021000B2E4DBE40AE462E4B2E421E48DE4B2E4B3
:10022000B2E4B2E4B2E4B2E4A2E4B2E4B2E472FD55
:1002300075FD64FD68FD6EFDACFD79FD7DFD83FD02
:1002400087FD8BFD91FD95FD99FDACFD9FFDA3FD07
:10025000A7FD79014D017301AD0141014701830102
:1002600097017F01590155016101A9014B01A501C8
:100270005F014F0175018501570189019D015301FE
:100280005B010D9493170D945E3F0D9468110D94CE
:10029000AE170D94933C0D94DB190D9442170D94F9
:1002A0003E1A0D947B430D94501A0D948A190D94A7
:1002B000471A0D946F190D94531A0D94133E0D9413
:1002C000111A0D94A5190D943D3D0D94AD3E0D945C
:1002D00075410D94B2450D94EE390D94D5350D94BC
:1002E000232E0D94E9400D945D170D94411A0D9441
:1002F0002F000D941E170D94F9310D9447440D9461
:1003000054190D94372E0D94C9170D94441A0D9459
:1003100070420D944A1A0D949B390D943F2E0D9402
:10032000EF3B0D9490430D9457350D948A340D9402
:10033000E4170D9497380D94213B0D944D1A0D94AC
:1003400075470D946F2E0D94E9360D94F6190D94A2
:1003500042400D94C0190D946E000D9478170D94C1
:10036000FA310D94233800407A10F35A00A0724EEF
:1003700018090010A5D4E80000E87648170000E44A
:100380000B54020000CA9A3B000000E1F505000092
:1003900080969800000040420F000000A0860100F7
:1003A0000000102700000000E803000000006400C7
:1003B000000000000A000000000001000000000032
:1003C0002C76D888DC674F0823DFC1DFAE59E1B156
:1003D000B796E5E3E453C63AE651997696E8E6C265
:1003E0008426EB898C9B62ED407C6FFCEFBC9C9F6C
:1003F00040F2BAA56FA5F490055A2AF75C936B6C8E
:10040000F9676DC11BFCE0E40D47FEF520E6B50081
:10041000D0ED902E0300943577050080841E0800EF
:1004200000204E0A000000C80C333333330F986E9F
:1004300012831141EF8D2114893BE65516CFFEE65C
:10044000DB18D1844B381BF77C1D901DA4BBE42422
:10045000203284725E228100C9F124ECA1E53D279F
:10046000080C20173CE781BD81BD81BD81BD81FFA6
:100470003CE7818181BD81BD81BD81FF3CE78181F8
:10048000818181BD81BD81FF3CE781818181818145
:1004900081BD81FF3CE7818181818181818181FFF3
:1004A000FFFF003F3F000F0F000303000000003F6D
:1004B0003F000F0F000303000000000000000F0FBB
:1004C0000003030000000000000000000003030020
:1004D00000001010101010543810000000001038E8
:1004E00054101010101000000000000010087C08CC
:1004F000100000000000000010207C201000000010
:100500000000003C0C142444800000000000008027
:100510004424140C3C00000000003C42A581A59935
:10052000423C000000003C7EDBFFFFDB663C00003D
:1005300000003C42A58199A5423C000000003C7EA1
:10054000DBFFFFE75A3C000000003C4281818181D3
:10055000423C000000003C7EFFFFFFFF7E3C0000AD
:100560000000FF818181818181FF00000000FFFF89
:10057000FFFFFFFFFFFF0000021010208F000000B0
:10058000000000000000000000000000000000006B
:10059000000000000000000000000000000000005B
:1005A0000007000F800F800F800F800F800700076B
:1005B0000000000000070007000700000000000E18
:1005C000380E380E380E38063000000000000000EB
:1005D0000000000000000000000000000000000C0F
:1005E000300C300C307FFE7FFE0C300C300C300CA9
:1005F000307FFE7FFE0C300C300C3000000000021B
:100600004002400FF81FF81A401A401FF00FF8027E
:100610005802581FF81FF00240024000000000007E
:100620000000000E100E300E7000E001C0038007C5
:10063000000E700C70087000000000000000000048
:10064000000F001980198019800F000F080F9819EA
:10065000F818F018E019F00F9800000000000000F2
:10066000000700070007000E000000000000000067
:10067000000000000000000000000000000000007A
:100680000000F001C0038007000E000E000E000EF7
:10069000000700038001C000F0000000000000001F
:1006A000000F00038001C000E000700070007000C7
:1006B0007000E001C003800F000000000000000097
:1006C0000001801188099007E007E03FFC3FFC072C
:1006D000E007E009901188018000000000000000A0
:1006E00000000000000180018001800FF00FF00188
:1006F0008001800180000000000000000000000078
:1007000000000000000000000000000000000000E9
:100710000000000700070007000E000000000000B6
:1007200000000000000000000000001FF81FF8009B
:1007300000000000000000000000000000000000B9
:1007400000000000000000000000000000000000A9
:100750000000000700070007000000000000000084
:100760000000020006000E001C0038007000E001CE
:10077000C0038007000E001C000000000000000005
:10078000000FF01C381C781CF81CF81DB81DB81F91
:10079000381F381E381C380FF00000000000000021
:1007A000000180018003801F801F8003800380037D
:1007B000800380038003801FF00000000000000021
:1007C000000FE01C701C380038007000E001C0030E
:1007D0008007000E381C381FF800000000000000E1
:1007E000000FE01C701C380038007003C003C0000C
:1007F0007000381C381C700FE00000000000000082
:100800000000E001E003E006E00CE018E01FF81F44
:10081000F800E000E000E003F80000000000000045
:10082000001FF81C001C001C001C001FE01FF00033
:100830007800381C381C700FE00000000000000039
:100840000003E007000E001C001C001FF01FF81C36
:10085000381C381C381C380FF00000000000000065
:10086000001FFC1C1C1C1C1C1C001C003800700001
:10087000E001C0038003800380000000000000004E
:10088000000FF01C381C381C381F3807E007E01C2C
:10089000F81C381C381C380FF00000000000000065
:1008A000000FF01C381C381C381C381FF80FF800DB
:1008B000380038007000E007C000000000000000B1
:1008C000000000000003800380038000000000039C
:1008D0008003800380000000000000000000000092
:1008E000000000000003800380038000000000037C
:1008F000800380038007000000000000000000006B
:100900007000E001C0038007000E001C001C000EF8
:10091000000700038001C000E0007000000000003C
:10092000000000000000003FFC3FFC000000003F12
:10093000FC3FFC0000000000000000000000001C64
:10094000000E000700038001C000E000700070008E
:10095000E001C0038007000E001C0000000000033F
:10096000C00FF01E7818380038007000E001C00198
:10097000C00000000001C001C001C0000000000F65
:10098000F81C1C1C1C1C1C1C1C1CFC1CFC1CFC1C2B
:10099000FC1C001C001C001FF007F80000000000F9
:1009A0000003C007E00E701C381C381C381C381FB0
:1009B000F81C381C381C381C3800000000000000EF
:1009C000001FF00E380E380E380E380FF00FF00EF4
:1009D000380E380E380E381FF000000000000000FE
:1009E0000007F00E381C381C001C001C001C001CEA
:1009F000001C001C380E3807F0000000000000004A
:100A0000001FE00E700E380E380E380E380E380EFD
:100A1000380E380E380E701FE00000000000000095
:100A2000001FF80E180E080E000E300FF00FF00E1B
:100A3000300E000E080E181FF80000000000000025
:100A4000001FF80E180E080E000E300FF00FF00EFB
:100A5000300E000E000E001F00000000000000001D
:100A60000007F00E381C381C381C001C001C001C31
:100A7000F81C381C380E3807F80000000000000091
:100A8000001C701C701C701C701C701FF01FF01C70
:100A9000701C701C701C701C7000000000000000B6
:100AA000000FE00380038003800380038003800342
:100AB000800380038003800FE0000000000000003E
:100AC0000001FC0070007000700070007000703851
:100AD000703870387038700FE000000000000000BF
:100AE000001E380E380E700EE00FC00F800F800F02
:100AF000C00EE00E700E381E38000000000000002E
:100B0000001F000E000E000E000E000E000E000E64
:100B1000000E080E180E381FF8000000000000003C
:100B2000001C1C1E3C1F7C1FFC1FFC1DDC1C9C1C95
:100B30001C1C1C1C1C1C1C1C1C00000000000000B9
:100B4000001C1C1C1C1E1C1F1C1F9C1DDC1CFC1CD8
:100B50007C1C3C1C1C1C1C1C1C0000000000000019
:100B60000003E007F00E381C1C1C1C1C1C1C1C1C69
:100B70001C1C1C0E3807F003E00000000000000001
:100B8000001FF00E380E380E380E380FF00FF00E32
:100B9000000E000E000E001F00000000000000000C
:100BA0000003E00F780E381C1C1C1C1C1C1C1C1C99
:100BB0007C1CFC0FF80FF8003800FC00000000005F
:100BC000001FF00E380E380E380E380FF00FF00EF2
:100BD000700E380E380E381E38000000000000007D
:100BE000000FF01C381C381C381C000FE007F00008
:100BF000381C381C381C380FF000000000000000C2
:100C0000001FFC19CC11C401C001C001C001C0010A
:100C1000C001C001C001C007F000000000000000DA
:100C2000001C701C701C701C701C701C701C701CD4
:100C3000701C701C701C700FE000000000000000B1
:100C4000001C701C701C701C701C701C701C701CB4
:100C5000701C700EE007C003800000000000000060
:100C6000001C1C1C1C1C1C1C1C1C1C1C9C1C9C1CE0
:100C70009C0FF80FF80770077000000000000000DC
:100C8000001C701C701C700EE007C00380038007FE
:100C9000C00EE01C701C701C700000000000000002
:100CA000001C701C701C701C701C700EE007C003D0
:100CB000800380038003800FE0000000000000003C
:100CC000001FF81C381838107000E001C0038007BE
:100CD000000E081C181C381FF8000000000000005F
:100CE0000007F007000700070007000700070007DC
:100CF0000007000700070007F000000000000000E8
:100D000000100018001C000E000700038001C00046
:100D1000E000700038001C00070000000000000028
:100D20000007F0007000700070007000700070002C
:100D30007000700070007007F000000000000001FB
:100D40008003C007E00E701C3800000000000000A7
:100D50000000000000000000000000000000000093
:100D60000000000000000000000000000000000083
:100D70000000000000000000007FFF7FFF00000077
:100D8000001C001C0007000700000000000000001D
:100D90000000000000000000000000000000000053
:100DA0000000000000000000000FE0007000700F65
:100DB000F01C701C701C700FD800000000000000B8
:100DC000001E000E000E000E000FF00E380E380E42
:100DD000380E380E380E381BF000000000000000FE
:100DE0000000000000000000000FE01C701C701CE0
:100DF000001C001C701C700FE000000000000000D0
:100E00000000F80070007000700FF01C701C701C67
:100E1000701C701C701C700FD800000000000000D7
:100E20000000000000000000000FE01C701C701F9C
:100E3000F01C001C701C700FE0000000000000009F
:100E40000003E007700770070007001FE01FE007BE
:100E5000000700070007001FC0000000000000009E
:100E60000000000000000000000FD81C701C701C67
:100E7000701C700FF007F000701C700FE000000095
:100E8000001E000E000E000E000EF00F380F380E80
:100E9000380E380E380E381E3800000000000000F2
:100EA0000001C001C001C000000FC001C001C001AD
:100EB000C001C001C001C00FF80000000000000028
:100EC00000007000700070000003F00070007000FF
:100ED000700070007000701C700CF007E0000000E3
:100EE000001E000E000E000E000E380E700EE00FF9
:100EF000C00EE00E700E381E38000000000000002A
:100F0000000FC001C001C001C001C001C001C0018B
:100F1000C001C001C001C00FF800000000000000C7
:100F20000000000000000000001FF81C9C1C9C1C1E
:100F30009C1C9C1C9C1C9C1C9C0000000000000035
:100F40000000000000000000001FE01C701C701C6E
:100F5000701C701C701C701C7000000000000000F1
:100F60000000000000000000000FE01C701C701C5E
:100F7000701C701C701C700FE0000000000000006E
:100F80000000000000000000001BF00E380E380EBC
:100F9000380E380E380FF00E000E001F0000000053
:100FA0000000000000000000001FB038E038E0380A
:100FB000E038E038E01FE000E000E001F000000071
:100FC0000000000000000000001EF00FF80F380EB7
:100FD000000E000E000E001F0000000000000000C8
:100FE0000000000000000000000FE01C301C300F6B
:100FF0008003E0187018700FE0000000000000008F
:101000000000000100030007001FF00700070007B1
:101010000007000770077003E000000000000000F8
:101020000000000000000000001C701C701C701C00
:10103000701C701C701C700FD800000000000000B5
:101040000000000000000000001C701C701C701CE0
:10105000701C700EE007C00380000000000000005C
:101060000000000000000000001C1C1C1C1C1C1CBC
:101070009C1C9C0FF8077007700000000000000027
:101080000000000000000000001CE01CE00FC00792
:101090008007800FC01CE01CE00000000000000082
:1010A0000000000000000000000E380E380E380E60
:1010B000380E3807F003E000E001C01F8000000098
:1010C0000000000000000000001FE018E011C00355
:1010D0008007000E201C601FE000000000000000E0
:1010E0000001F803800380038007001C001C000738
:1010F0000003800380038001F8000000000000016D
:10110000C001C001C001C001C001C001C001C001D7
:10111000C001C001C001C001C001C000000000004A
:10112000001F8001C001C001C000E000380038008D
:10113000E001C001C001C01F8000000000000000ED
:10114000001F1C3B9C39DC38F80000000000000048
:10115000000000000000000000000000000000008F
:101160000000F001F80198019801F800F00000007B
:10117000000000000000000000000000000000006F
:10118000001FF80E180E080E000E000FF00E380E9D
:10119000380E380E380E381FF00000000000000036
:1011A000001FF80E180E080E000E000E000E000EA6
:1011B000000E000E000E001F0000000000000000E6
:1011C0000007F00C701C701C701C701C701C701CD4
:1011D000701C701C701C703FF830182008066000EE
:1011E000001FF80E180E080E000E300FF00FF00E54
:1011F000300E000E080E181FF8000000000000005E
:101200000033CC1998199819980DB00FF00FF01DF4
:10121000B819981998199833CC0000000000000004
:101220000017E01E701C381038007003C003C000A7
:101230007000381C381C700FE00000000000000037
:10124000001C701C701C701C701C701C701CF01D2D
:10125000F01F701E701C701C7000000000038000E6
:10126000001C701C701C701C701C701C701CF01D0D
:10127000F01F701E701C701C700000000000000049
:101280000003F006700E700E700E700E700E700E71
:10129000700E700E700E701C7000000000000000D8
:1012A000001FF01C701C701C701C701C701C701CCB
:1012B000701C701C701C701C70000000000000008E
:1012C000001C701C701C701C701C701C700FF007D0
:1012D000F0007000701CE00FC00000000000000073
:1012E000001FF033983398339833983398339833FA
:1012F000981FF00380038007C0000000000000007A
:10130000001C701C701C701C701C701C701C701CED
:10131000701C701C701C701FF80018000800000082
:10132000001C701C701C701C701C701C701FF00F57
:10133000F0007000700070007000000000000000FD
:1013400000399C399C399C399C399C399C399C3991
:101350009C399C399C399C3FFC0000000000000037
:1013600000399C399C399C399C399C399C399C3971
:101370009C399C399C399C3FFE000600020000000D
:10138000003F002E002E000E000E000FF00E380E53
:10139000380E380E380E381FF00000000000000034
:1013A00000381C381C381C381C381C3F9C39DC3970
:1013B000DC39DC39DC39DC3F9C0000000000000037
:1013C000001F000E000E000E000E000FF00E380E73
:1013D000380E380E380E381FF000000000000000F4
:1013E000000FE01C701C380038003803F803F800C8
:1013F0003800381C381C700FE000000000000000AE
:10140000003CF81D9C1D9C1D9C1D9C1F9C1F9C1D31
:101410009C1D9C1D9C1D9C3CF800000000000000D1
:10142000000FF81C701C701C701C701C701FF00FDB
:10143000F01C701C701C7038780000000000000068
:1014400000001807F80F000E000E000FF00E380E07
:10145000380E380E380E3807F0000000000000008B
:101460000000000000000000001FF00E380E380FD2
:10147000F00E380E380E381FF0000000000000009B
:101480000000000000000000001FF81C381C001CB9
:10149000001C001C001C001C0000000000000000DC
:1014A00000000000000000000007F00E700E700E3B
:1014B000700E700E700E701FF81008000000000013
:1014C000000000000006C000000FE01C701C701F30
:1014D000F01C001C701C700FE000000000000000F9
:1014E00000000000000000000019CC19CC19CC0D40
:1014F000D807F00DD819CC19CC000000000000006E
:101500000000000000000000000FE01C70007003ED
:10151000E0007000701C700FE00000000000000090
:101520000000000000000000001C701C701C701CFB
:10153000F01D701E701C701C700000000000000088
:10154000000000000001C000000E380E380E380EFA
:10155000780EB80F380E380E38000000000000007A
:101560000000000000000000000E380E380E700F62
:10157000E00E700E380E380E38000000000000003B
:1015800000000000000000000003F80738073807DB
:10159000380738073807380E380000000000000010
:1015A0000000000000000000003838383838383CAF
:1015B000783AB83938383838380000000000000070
:1015C0000000000000000000001C701C701C701C5B
:1015D000701FF01C701C701C7000000000000000E8
:1015E0000000000000000000001FF01C701C701CB8
:1015F000701C701C701C701C70000000000000004B
:101600000000000000000000001FF01390038003A2
:10161000800380038003800380000000000000003E
:101620000000000000000003801FF03BB83BB83B07
:10163000B83BB80FF0038003800380000000000077
:101640000000000000000000001C701C701C701CDA
:10165000701C701C701C701FF80018000000000047
:101660000000000000000000001C701C701C701CBA
:10167000700FF000700070007000000000000000AB
:10168000000000000000000000399C399C399C39A2
:101690009C399C399C399C3FFC00000000000000F4
:1016A000000000000000000000399C399C399C3982
:1016B0009C399C399C399C3FFE00060000000000CC
:1016C0000000000000000000003E002E000E000F91
:1016D000F00E380E380E380FF00000000000000049
:1016E000000000000000000000381C381C381C3FBF
:1016F0009C39DC39DC39DC3F9C0000000000000034
:101700000000000000000000000E000E000E000FA0
:10171000F00E380E380E380FF00000000000000008
:101720000000000000000000000FE01C70007003CB
:10173000F0007000701C700FE0000000000000005E
:1017400000000000000000000038F8399C399C3986
:101750009C3F9C399C399C38F80000000000000038
:1017600000000000000000000007F80E380E380EE0
:101770003807F80E380E381C3800000000080C201E
:10178000A600000000000000000000000000002093
:1017900020202020200020000000285050000000C1
:1017A000000000000000002828FC2850FC505000D9
:1017B00000002078A8A0603028A8F0200000004891
:1017C000A8B050283454480000000020505078A899
:1017D000A8906C0000004040800000000000000065
:1017E0000000040810101010101008040000402021
:1017F00010101010101020400000000020A8707081
:10180000A8200000000000202020F8202020000058
:1018100000000000000000000000404080000000C8
:101820000000F800000000000000000000000000C0
:1018300000004000000008101010202040404080B0
:101840000000007088888888888870000000002068
:101850006020202020207000000000708888102068
:101860004080F80000000070880830080888700088
:10187000000000103050509078101800000000F860
:101880008080F00808887000000000709080F08868
:1018900088887000000000F8901020202020200090
:1018A00000000070888870888888700000000070D0
:1018B0008888887808487000000000000020000038
:1018C0000000200000000000000020000000202098
:1018D0000000040810204020100804000000000050
:1018E00000F80000F8000000000040201008040884
:1018F0001020400000000070888810202000200088
:10190000000000708898A8A8B88078000000002027
:10191000203050507848CC00000000F04848704813
:101920004848F0000000007888808080808870003F
:10193000000000F0484848484848F000000000F81F
:10194000485070504048F800000000F8485070506F
:101950004040E000000000384880809C884830000B
:10196000000000CC484878484848CC00000000F807
:10197000202020202020F8000000007C10101010F3
:10198000101090E0000000EC485060505048EC000F
:10199000000000E0404040404044FC00000000D80F
:1019A000D8D8D8A8A8A8A800000000DC48686858C3
:1019B0005848E8000000007088888888888870008F
:1019C000000000F0484870404040E0000000007017
:1019D00088888888E8987018000000F0484870509F
:1019E0004848EC0000000078888060100888F0000B
:1019F000000000F8A820202020207000000000CC6B
:101A00004848484848483000000000CC48485050FA
:101A100030202000000000A8A8A8705050505000AE
:101A2000000000D8505020205050D800000000D8AE
:101A30005050202020207000000000F8901020203E
:101A40004048F800000038202020202020202038A6
:101A500000004040402020101010080000007010CE
:101A60001010101010101070000020500000000026
:101A70000000000000000000000000000000000066
:101A8000FC0020000000000000000000000000003A
:101A90000000304838483C00000000C0404070481A
:101AA00048487000000000000000384840403800FE
:101AB000000000180808384848483C0000000000B2
:101AC00000003048784038000000001C20207820BA
:101AD000202078000000000000003C48304078449E
:101AE000380000C0404070484848EC00000000202A
:101AF0000000602020207000000000100000301066
:101B000010101010E00000C040405C507048EC0025
:101B1000000000E0202020202020F800000000002D
:101B20000000F0A8A8A8A800000000000000F048ED
:101B30004848EC00000000000000304848483000F1
:101B4000000000000000F04848487040E00000003D
:101B500000003848484838081C0000000000D860E1
:101B60004040E000000000000000784030087800AD
:101B7000000000002020702020201800000000003D
:101B80000000D84848483C00000000000000EC4835
:101B900050302000000000000000A8A87050500045
:101BA000000000000000D8502050D80000000000C5
:101BB0000000EC4850302020C000000000007810E9
:101BC000202078000000181010102010101010189D
:101BD00000101010101010101010101010006020C5
:101BE00020201020202020600040A41800000000C9
:101BF00000000000000000304848300000000000F5
:101C0000000000F8484070484848F000000000F824
:101C1000484040404040E000000000384848484804
:101C20004848FC84005000F8485070504048F80084
:101C3000000000A8A8A870F8A8A8A800000000F05C
:101C4000880830080808F000000000EC4858586880
:101C50006848DC00003000EC485858686848DC00F0
:101C60000000003C484848484848CC00000000FCC0
:101C7000484848484848CC00000000D85050202030
:101C80004040800000000070A8A8A8A87020700044
:101C9000000000CC484848484848FC04000000CCFC
:101CA0004848483808081C00000000D654545454D2
:101CB0005454FE00000000D6545454545454FE02B0
:101CC000000000E0C04070484848F000000000EE0E
:101CD000444464545454EE00000000E04040704816
:101CE0004848F000000000E09008380808906000C4
:101CF000000000EC525252725252EC000000003CC4
:101D00004848483848489C00000000083040704867
:101D100048483000000000000000702830287000A3
:101D20000000000000007828202070000000000063
:101D30000000182828287C440000000028003048B3
:101D40007840300000000000000054543854540023
:101D50000000000000007008300870000000000063
:101D60000000CC485868CC00000000003000CC488F
:101D70005868CC0000000000000048506050480047
:101D80000000000000001C2828284C000000000073
:101D90000000446C54444400000000000000CC48A3
:101DA0007848CC00000000000000FC484848CC0007
:101DB0000000000000007C541010380000000000FB
:101DC0000000385454543810380000000000CC484B
:101DD0004848FC04000000000000CC4838080C0013
:101DE000000000000000545454547C000000000027
:101DF0000000545454547E02000000000000E0A093
:101E000030287000000000000000C6446454E60062
:101E1000000000000000602030287000000000007A
:101E20000000304818483000000000000000C8548E
:101E30007454C8000000000000003C4848384C00C2
:101E4000003CE781BD81BD81BD81BD81FF3CE78153
:101E50008181BD81BD81BD81FF3CE781818181811F
:101E6000BD81BD81FF3CE781818181818181BD810F
:101E7000FF3CE7818181818181818181FFFFFF00BA
:101E80003F3F000F0F000303000000003F3F000F23
:101E90000F000303000000000000000F0F00030309
:101EA000000000000000000000000303000000101C
:101EB000101010105438100000000010385410108A
:101EC00010101000000000000010087C0810000036
:101ED000000000000010207C201000000000000026
:101EE0003C0C1424448000000000000080442414B2
:101EF0000C3C00000000003C42A581A599423C003A
:101F00000000003C7EDBFFFFDB663C000000003C85
:101F100042A58199A5423C000000003C7EDBFFFF0A
:101F2000E75A3C000000003C4281818181423C0034
:101F30000000003C7EFFFFFFFF7E3C00000000FF32
:101F4000818181818181FF00000000FFFFFFFFFF91
:101F5000FFFFFF0000FFFFFFFFFFFFFFFFFFFF7D11
:101F6000EFFFFF7DEF7DEFFFFFDFFF7DEFFFFFFF67
:101F7000FFFFFFFFFFFFFFDFFFFFFFFFFFDFFFDFD1
:101F8000FFFFFFFFFFFFFFDFFFFFFFFFFF7DEF59B9
:101F9000CEDBDE5DEFBEF7FFFFFFFF7DEF9EF7FFBD
:101FA000FFFFFFBEF7BEF7DFFFFFFFFFFFFFFFFFF3
:101FB000FFFFFFFFFFFFFFFFFFDFFFFFFFFFFFDF71
:101FC000FFBEF7FFFF9EF7BEF73CE7FBDEFBDEFB45
:101FD000DEDBDEFBDE3CE73CE7DFFFDFFFFFFFFF92
:101FE000FFDFFFFFFFFFFFDFFFDFFFFFFFDFFF9EE2
:101FF000F718C69294EF7B2C63108414A5DBDEFFE8
:10200000FFFFFF7DEF5DEFFFFFFFFFFFFFFFFFFF24
:10201000FFDFFF7DEFBEF7FFFFFFFFFFFFFFFFFFCB
:10202000FFBEF7FFFFFFFFDFFF55AD18C6FFFF5DE7
:10203000EFBEF7FFFF9EF77DEF9EF73CE75DEFDF1A
:10204000FFFFFFFFFFDFFFFFFFFFFFDFFFFFFFFFE0
:10205000FFFFFFBEF7718CA631494AAE734D6BAAE4
:1020600052CB5A9294DBDEFFFFFFFF9EF7FFFFFF8C
:10207000FFFFFFDFFFFFFFFFFFFFFF9EF7FFFFFFF9
:10208000FFFFFFFFFFBEF7FFFFFFFFBEF7718CCB27
:102090005A7DEFFFFFFFFFFFFFDFFFDFFFBEF73CD3
:1020A000E71CE75DEF9EF7BEF7FFFFFFFFFFFFFFB7
:1020B000FFFFFFFFFFFFFFFFFF38C62C632842E74B
:1020C00039CB5ACB5A694A08422C63D7BDDFFFFF90
:1020D000FF9EF7FFFFFFFFFFFFFFFFFFFFFFFFFF79
:1020E000FFFFFFFFFF9EF7FFFFFFFF9EF7FFFFFFD2
:1020F000FF59CE2842B2943CE7FFFF7DEF5DEF9E93
:10210000F79EF79EF73CE71CE7DBDE5DEFFFFFFF86
:10211000FFDFFFFFFFFFFFFFFFDFFFFFFFFFFF3CD2
:10212000E775ADAA528631E739EB5AEB5AE73949E0
:102130004AD39C1CE7FFFFDFFF9EF7DFFFFFFFDFB7
:10214000FFDFFFFFFFFFFFFFFFFFFFFFFFFFFFDFDF
:10215000FFFFFF9EF7FFFF96B58A5275AD9EF7DF32
:10216000FFDFFFBEF79EF7DFFF7DEF3CE779CEDBB9
:10217000DEDFFFFFFF9EF7FFFFDFFFFFFFFFFFFF39
:10218000FFDFFFFFFFFFFF7DEFAE73C739863169C9
:102190004A28428631494A2C63BAD69EF7FFFFBED1
:1021A000F7DFFFFFFFFFFF7DEFFFFFFFFFFFFFBE3A
:1021B000F79EF7FFFFFFFFBEF7FFFFFFFF1084CF83
:1021C0007B96B5DFFFFFFF9EF79EF73CE75DEF7D57
:1021D000EF79CE18C63CE7FFFFBEF7FFFFFFFFDF3A
:1021E000FF9EF7FFFFFFFF9EF7DFFF9EF7FBDE8EF0
:1021F000738631C739C739C739E739A631494A55D6
:10220000ADDFFFFFFF7DEF9EF7FFFFFFFFFFFFFF4B
:10221000FF9EF7FFFFDFFF1CE75DEFFFFF5DEFDFD6
:10222000FFFFFF8E73AE731CE77DEF7DEFFFFF3C7A
:10223000E7FBDEBEF79AD696B5BAD6FFFFFFFFFFE3
:10224000FFDFFFFFFFFFFFFFFFDFFFBEF7FFFFBE68
:10225000F7FFFFAE7324218631A631652965294534
:1022600029452986318E73DBDEFFFFDFFF9EF7FFF6
:10227000FFFFFFFFFFFFFF9EF7FFFF75AD38C61C96
:10228000E7FFFFFFFFFFFF3CE78E7334A5DFFF3C56
:10229000E79EF71CE7FBDE1CE7FBDED7BD18C69EFA
:1022A000F7FFFFDFFFFFFFDFFFFFFFFFFFFFFFFF86
:1022B000FFFFFFBEF73CE7E31865294529A210455B
:1022C000292421C3182421C318A2102842B6B5FF1F
:1022D000FFFFFFDFFFFFFFFFFFDFFFFFFFFFFF1439
:1022E000A53CE759CED7BDFFFFFFFF7DEFF7BD341B
:1022F000A51CE79EF75DEF9EF7FBDE1CE7FBDED734
:10230000BD38C6DFFFFFFFDFFFFFFFDFFFDFFFDFBF
:10231000FFBEF7DFFFFFFF9EF72C634529E318C3DD
:10232000182421E3182000242161084529C318201E
:10233000008210EF7B7DEFFFFFFFFFFFFFDFFFBE9F
:10234000F7FFFFF39C79CE1CE718C659CE7DEFFF4F
:10235000FFFFFF38C61CE79EF7FBDE3CE7FBDEDB3A
:10236000DEBAD6D7BD59CEDFFFFFFFFFFFFFFFDF8D
:10237000FFFFFFFFFFDFFFFFFFFFFFBEF7652982C3
:10238000108210C3184108A21024216108E318E349
:1023900018A2100421E318821075ADDFFFFFFFFFC4
:1023A000FFFFFFBEF7FFFF55AD14A5FFFF5DEFF781
:1023B000BD79CEFFFF7DEF1CE75DEF5DEF3CE7DB16
:1023C000DEFBDE79CE38C6D7BD9AD6DFFFFFFFFF32
:1023D000FFDFFFDFFFFFFFFFFFFFFFFFFFFFFF9EAE
:1023E000F79294EB5A2421A2108631E3188210044C
:1023F00021C3184529E318610808424108F7BDFFC9
:10240000FFFFFFFFFFBEF7FFFFFFFF79CE718C3CA0
:10241000E73CE77DEFF7BD9AD6D7BD5DEF3CE75DC2
:10242000EF9AD6FBDE1CE738C618C638C6FBDEDFDF
:10243000FFBEF7FFFFFFFFFFFFFFFFFFFFBEF7DF5E
:10244000FFDFFF3CE79EF7CF7BAA522421242141E6
:10245000088210863104218631C73986312421C390
:1024600018BAD6FFFFFFFFFFFFFFFFFFFFDFFF5D93
:10247000EF6D6B59CEBEF7DBDED7BD75ADD7BD7D39
:10248000EF3CE71CE714A5D7BD59CE38C69AD6DB7A
:10249000DE3CE7DFFFDFFFFFFFFFFFFFFFFFFFDFA8
:1024A000FFBEF7FFFFDFFF1CE714A5CB5AEF7BC78A
:1024B000390000C739CF7BAA52452941084529CBAD
:1024C0005A8210CB5A3CE7BEF7FFFFFFFFFFFFDF4A
:1024D000FFDFFFFFFFAE7334A59EF734A575ADB6E1
:1024E000B59AD63CE7FBDEB6B5D39C14A5308496EE
:1024F000B51CE7FBDE1CE7FFFFFFFFFFFFFFFFDF71
:10250000FFDFFFDFFFFFFFFFFF1CE796B52842302C
:1025100084518C4D6B2C63F7BDBAD638C6694A829C
:1025200010610841084529BAD6FFFFBEF7FFFFFF3B
:10253000FF9EF7FFFFBEF7FFFF96B54D6B75ADB67B
:10254000B534A5BAD679CE59CE38C6108479CEB670
:10255000B52842F39C3CE7BAD69AD6FFFFFFFFDFCF
:10256000FFFFFFDFFFFFFFFFFFFFFF5DEF75AD2CFC
:1025700063EF7B10848E73FBDE38C6DFFFFFFFBE88
:10258000F7FBDECB5A6529A210D7BDFFFF7DEFFF19
:10259000FFFFFFFFFFFFFFFFFFFFFF5DEFBEF7EB5A
:1025A0005AB29434A5D7BDB6B59AD6F7BD518C5959
:1025B000CE34A5CB5A108455AD3CE7DBDEDBDEFF25
:1025C000FFDFFFDFFFFFFFDFFF9EF718C6F7BDDB72
:1025D000DE8E736D6B10846D6B79CEFFFFBEF7FFDF
:1025E000FFFFFFDFFFFFFF1CE7B29492947DEFFF38
:1025F000FFBEF7FFFFFFFFFFFFFFFFBEF7FFFFFF7D
:10260000FFFFFF96B5308496B5B6B5D7BDD7BD717F
:102610008C18C614A5EF7B4D6B38C6DBDEFBDEBA2B
:10262000D65DEFFFFFDFFFBEF77DEFFFFF55AD6526
:102630002965294D6B8E73CF7B8A5279CEFFFFDFE0
:10264000FFFFFFFFFFFFFFFFFF9EF7FFFF7DEF5D37
:10265000EFFFFFFFFF7DEFFFFFFFFFFFFFFFFFFF2C
:10266000FFBEF7FFFFFFFF3CE7F39C96B514A5F70D
:10267000BDD39CF39C55ADAE730C63F39C38C61C64
:10268000E7BAD659CEDBDE7DEFFFFFFFFFFFFF513C
:102690008C24212842042141080C63284234A5FFE0
:1026A000FFFFFF7DEFFFFFDFFFBEF7FFFFBEF7FF7E
:1026B000FFFFFFFFFFFFFFFFFFDFFFFFFFFFFFFF4A
:1026C000FFFFFFFFFF7DEF9EF7FFFFD39CF39C967C
:1026D000B596B596B5D39CF7BDCF7BEB5AEF7B751E
:1026E000AD18C6FBDEFBDE1CE7DBDE7DEFFFFF9EE9
:1026F000F78E730421E739A631E739E73900006D19
:102700006BFFFFDFFF3CE7FFFFFFFFBEF7FFFFFFB1
:10271000FFFFFFBEF77DEF9EF7DFFFFFFFFFFFDF4D
:10272000FFFFFFFFFFFFFFFFFFDFFFFFFFFFFFAA2E
:10273000522C63B294B6B5D39C55AD14A530844DDC
:102740006B75ADF39C18C6B6B5D7BD79CE38C61C2F
:10275000E75DEFAE73E318494AC7396529A631240E
:1027600021000034A5FFFF1CE7FFFFFFFF9EF7FFDE
:10277000FFFFFFDFFFFFFFDFFFFFFFFFFFFFFFFFA9
:10278000FFFFFFDFFFFFFFFFFFFFFFBEF7FFFFFFC2
:10279000FFBEF755ADCB5A694AEF7B9294F39CF399
:1027A0009CF39C14A518C638C655AD718C34A5F79A
:1027B000BD75AD59CEB6B586318A526529A631E7C9
:1027C00039E318610845293CE7BEF77DEFFFFFFFBD
:1027D000FFDFFFFFFFBEF7FFFFFFFFFFFFFFFFFF72
:1027E000FFFFFFFFFFFFFFFFFFFFFFFFFFFFFFFFF9
:1027F000FFFFFFBEF79EF7FFFF96B54D6B0842EB5C
:102800005ACB5A4D6BCB5A8E73EB5A518CD39CB228
:102810009438C6DBDE79CEBAD638C69294C318286F
:10282000422421042104210000B294FFFFFFFFFF96
:10283000FFBEF7BEF7FFFFFFFF7DEFFFFFFFFFDFEC
:10284000FF9EF79EF7FFFFFFFFFFFFFFFFFFFFFF6A
:10285000FFFFFFFFFF7DEFFFFFDFFF7DEFFFFF1CAF
:10286000E775ADCF7BCF7B0C634D6B8A52E7392880
:1028700042AE733084D7BD59CE9AD69AD6F7BDBA38
:10288000D6B294E3188631042182108631DFFF7DB1
:10289000EF7DEFFFFFFFFFFFFFFFFFDFFFFFFFFF0A
:1028A000FFFFFFFFFFFFFFFFFFFFFFFFFFDFFFFF58
:1028B000FFFFFFFFFFFFFFFFFFFFFFFFFFFFFFFF28
:1028C000FFFFFFFFFFFFFFBEF71CE7FBDE79CE96A1
:1028D000B5B2946D6B2842AE73718C38C618C6BA07
:1028E000D6FBDE96B59AD6718C82100000C318759F
:1028F000ADBEF7DFFFDFFFFFFFFFFFFFFFFFFFFFC3
:10290000FFFFFFFFFFFFFFFFFFFFFFFFFFFFFFFFD7
:10291000FFFFFFFFFFFFFFFFFFFFFFFFFFFFFFFFC7
:10292000FFFFFFFFFFFFFFFFFF9EF7FFFFBEF7FF69
:10293000FFFFFFDFFFDFFF5DEFF39C494A718C7102
:102940008C59CEFBDE18C659CE55AD59CE3084A277
:1029500010AE7379CEFFFF9EF7FFFFFFFFFFFFFF73
:10296000FFFFFFFFFFFFFFFFFFFFFFFFFFFFFFFF77
:10297000FFFFFFFFFFFFFFFFFFFFFFFFFFFFFFFF67
:10298000FFFFFFFFFFFFFFFFFFFFFFFFFFBEF7FFA0
:10299000FFFFFFFFFFFFFFFFFFFFFFDFFF1CE771F0
:1029A0008CCB5A518C34A5D7BD9AD6BAD659CE55B0
:1029B000AD9AD6929496B5FFFFDFFFFFFFFFFFFFB2
:1029C000FFFFFFFFFFFFFFFFFFFFFFFFFFFFFFFF17
:1029D000FFFFFFFFFFFFFFFFFFFFFFFFFFFFFFFF07
:1029E000FFFFFFFFFFFFFFFFFFFFFFFFFFFFFFFFF7
:1029F000FFFFFFFFFFBEF7DFFFFFFFBEF7DFFFDFD9
:102A0000FFFFFF75AD042110849294718C9AD679E2
:102A1000CEFBDEF7BDF39C9EF77DEF3CE7FFFFDFCB
:102A2000FFFFFFFFFFFFFFFFFFFFFFFFFFFFFFFFB6
:102A3000FFFFFFFFFFFFFFFFFFFFFFFFFFFFFFFFA6
:102A4000FFFFFFFFFFFFFFFFFFFFFFFFFFFFFFFF96
:102A5000FFFFFFFFFFFFFFFFFFBEF7FFFFFFFFBE10
:102A6000F7FFFFFFFFBEF70842A210C7399294B2EA
:102A70009414A518C638C6FBDE96B5D7BD9EF71CC4
:102A8000E7FFFFBEF7FFFFFFFFFFFFFFFFFFFFFFB7
:102A9000FFFFFFFFFFFFFFFFFFFFFFFFFFFFFFFF46
:102AA000FFFFFFFFFFFFFFFFFFFFFFFFFFFFFFFF36
:102AB000FFFFFFFFFFFFFFFFFFFFFFFFFFFFFFFF26
:102AC000FF9EF77DEFFFFF9EF74D6B2000E318A2FE
:102AD00010694A14A5B29475AD18C638C63CE755BE
:102AE000AD34A5FFFFFBDEFFFFDFFFDFFFFFFFFFD2
:102AF000FFFFFFFFFFFFFFFFFFFFFFFFFFFFFFFFE6
:102B0000FFFFFFFFFFFFFFFFFFFFFFFFFFFFFFFFD5
:102B1000FFFFFFFFFFFFFFFFFFFFFFFFFFBEF7DF2E
:102B2000FFFFFFFFFFDFFFFFFFBEF7D39C000004A6
:102B300021A210042161084D6BF39C14A5D7BD3868
:102B4000C618C61CE734A559CE5DEF5DEFBEF7DFB2
:102B5000FFDFFFFFFFFFFFFFFFFFFFFFFFFFFFFFA5
:102B6000FFFFFFFFFFFFFFFFFFFFFFFFFFFFFFFF75
:102B7000FFFFFFFFFFFFFFFFFFFFFFFFFFFFFFFF65
:102B8000FFFFFFFFFFFFFFDFFF9EF7FFFF18C6827B
:102B900010C31882108210A210C318E3181084F317
:102BA0009CB6B5D7BD59CE38C63CE775AD59CE3CBD
:102BB000E79EF7BEF7DFFFFFFFFFFFFFFFFFFFFF0F
:102BC000FFFFFFFFFFFFFFFFFFFFFFFFFFFFFFFF15
:102BD000FFFFFFFFFFFFFFFFFFFFFFFFFFFFFFFF05
:102BE000FFFFFFFFFFFFFFFFFF9EF7FFFFDFFFFB82
:102BF000DE2842C318C31861080421A2104108410D
:102C0000086529B29414A5D7BD18C618C6BAD679D6
:102C1000CE18C659CE9AD65DEFDFFFDFFFDFFFFF8C
:102C2000FFFFFFDFFFFFFFFFFFFFFFFFFFFFFFFFD4
:102C3000FFFFFFFFFFFFFFFFFFFFFFFFFFFFFFFFA4
:102C4000FFFFFFFFFFFFFFFFFFFFFFFFFFFFFF3C57
:102C5000E7FFFFCB5AE739A631A210C31820006165
:102C6000082000C318AA528A52B294F7BD18C6961B
:102C7000B538C659CEDBDE18C618C659CE1CE7FFDC
:102C8000FFFFFFDFFFDFFFFFFFFFFFFFFFFFFFFF94
:102C9000FFFFFFFFFFFFFFFFFFFFFFFFFFFFFFFF44
:102CA000FFFFFFFFFFFFFFFFFFFFFFFFFFDFFFFF54
:102CB000FF7DEFFFFF3084E739A6312842E318613A
:102CC000084108200000006D6B18C68A52EB5A14A8
:102CD000A596B559CE55AD79CEFBDE79CEF7BDD7E9
:102CE000BD38C63CE7FFFFFFFFDFFFFFFFFFFFFF31
:102CF000FFFFFFFFFFFFFFFFFFFFFFFFFFFFFFFFE4
:102D0000FFFFFFFFFFFFFFFFFFFFFFFFFFFFFFFFD3
:102D1000FFDFFFDFFFFFFF96B5A63128420842869E
:102D20003145298210C3180000C739FBDEFFFFF7C9
:102D3000BD08422C6355AD79CED7BDF7BD38C6BAB4
:102D4000D69AD679CE18C618C6FBDEFFFFFFFFBEA7
:102D5000F7FFFFFFFFFFFFFFFFFFFFFFFFFFFFFF8B
:102D6000FFFFFFFFFFFFFFFFFFFFFFFFFFFFFFFF73
:102D7000FFFFFFFFFFFFFFFFFF9AD6A631284208A3
:102D800042863165294529E3182000E31875ADFF17
:102D9000FF7DEFFFFF9294E739718CF39CBAD696D2
:102DA000B596B538C6DBDEDBDE79CEF7BD38C61C9E
:102DB000E7DFFFFFFFFFFFFFFFFFFFFFFFFFFFFF5B
:102DC000FFFFFFFFFFFFFFFFFFFFFFFFFFFFFFFF13
:102DD000FFFFFFFFFFFFFFFFFFFFFF1CE7CB5A28AE
:102DE00042C739C7396529A631652900004108D392
:102DF0009CBEF7BEF7FFFFBEF79EF76D6B494ACF4B
:102E00007B75AD9AD655AD38C659CE79CEBAD6BAFD
:102E1000D638C6F7BDDBDEFFFFDFFFDFFFFFFFFFBA
:102E2000FFFFFFFFFFFFFFFFFFFFFFFFFFFFFFFFB2
:102E3000FFFFFFFFFFFFFFFFFFFFFFFFFF7DEFEF44
:102E40007BC7398A52C73904210842242104214111
:102E5000084D6BFFFFFFFF7DEFFFFF7DEFFFFF5989
:102E6000CE8A522C638E7338C6D7BD18C6D7BD180C
:102E7000C69AD6FBDE9AD618C679CE1CE7BEF7DF17
:102E8000FFDFFFFFFFFFFFFFFFFFFFFFFFFFFFFF72
:102E9000FFFFFFFFFFFFFFFFFFFFFFFFFFFFFFFF42
:102EA000FFF39C494A0842C73986318631E318E36B
:102EB000180000CB5ADBDEDFFFDFFFFFFF9EF7FFCE
:102EC000FF9EF7FFFF75AD28422C63AE739AD6962E
:102ED000B5D7BD18C659CE79CEDBDE1CE79AD6D75A
:102EE000BD9EF7BEF7DFFFFFFFFFFFFFFFFFFFFF06
:102EF000FFFFFFFFFFFFFFFFFFFFFFDFFFFFFF7D84
:102F0000EFFFFFF7BD494A494AA631C73945292491
:102F100021863100008631F7BDFFFF9EF7FFFFFFDE
:102F2000FFDFFFFFFFFFFFDFFFFFFF4D6B8A524D0B
:102F30006BAE7359CE96B579CED39CEB5AEB5A75DE
:102F4000ADBEF738C659CE9EF7FFFFBEF7FFFFFFB5
:102F5000FFFFFFDFFFFFFFFFFFFFFF9EF7FFFFFF0A
:102F6000FFBEF7FFFF18C68A522842694AA631867B
:102F7000314529084200004108F39C7DEFFFFFDF47
:102F8000FFFFFFFFFFBEF7FFFFDFFFDFFF9EF7FF43
:102F9000FF8A528A526D6B108459CED7BD30849609
:102FA000B596B59294BAD6FBDE18C65DEFFFFFFF6B
:102FB000FFFFFFFFFFFFFFFFFFFFFFFFFFFFFFFF21
:102FC000FFFFFFDFFFBEF71CE7C7394529E73928B8
:102FD000426529C73924216108000030849EF7FF2B
:102FE000FFFFFFDFFFFFFFFFFFDFFFFFFFDFFFBE92
:102FF000F7FFFFFFFF9AD6E7392C634D6BF7BD96BD
:10300000B559CEBEF7DFFFBAD659CEBEF738C63CAB
:10301000E7FFFFFFFFFFFFBEF7BEF7FFFFFFFFFF6A
:10302000FFDFFFFFFFFFFFDFFFFFFFBAD6E318045C
:10303000210842A631E318452945290000CB5ADB77
:10304000DEFFFFDFFFDFFFFFFFFFFFFFFFFFFFFFF1
:10305000FFDFFFFFFFDFFF5DEFFFFF55AD494A6D6B
:103060006BCF7B38C6D7BDFBDE3CE738C65DEF1CB7
:10307000E79AD65DEFBEF7DFFFFFFFFFFFDFFFFF41
:10308000FFFFFFFFFFFFFF9EF7FFFFFFFFBEF7FF02
:10309000FFF39C6529042104216529C3180000451C
:1030A0002959CEBEF7FFFFDFFFFFFFFFFFDFFFFF66
:1030B000FFFFFFDFFFFFFFFFFFDFFFFFFFBEF7FFA9
:1030C000FFAE73694A1084F39C59CED7BDD7BD5962
:1030D000CE18C67DEFB6B53CE7FFFFBEF7DFFFFFBA
:1030E000FFFFFFFFFFFFFFFFFFFFFFDFFFFFFFDF30
:1030F000FFFFFFFFFFBEF734A5694A821082100070
:10310000002000B294BEF7FFFFFFFFFFFFFFFFFFAD
:10311000FFDFFFFFFFFFFFFFFFDFFFFFFFFFFFDF1F
:10312000FFFFFFDFFF1CE76D6BAA52B29475AD790C
:10313000CE59CE14A534A59294F39CFBDEFFFFFF7D
:10314000FFDFFFFFFFFFFFFFFFFFFFFFFFFFFFFFAF
:10315000FFFFFF9EF7FFFF7DEFBEF7FFFF9AD60C44
:103160006341082000CF7BFFFFFFFFBEF7FFFFFF9B
:10317000FFFFFFFFFFFFFFFFFFFFFFFFFFBEF7FFA8
:10318000FFBEF7FFFFFFFFDFFFFFFF9AD6AA528ABD
:10319000521084718C3084CF7B8A528A52F7BD7D65
:1031A000EFFFFFFFFFFFFFFFFFFFFFFFFFFFFFFF3F
:1031B000FFFFFFBEF7FFFFFFFFBEF7FFFFFFFFBEF2
:1031C000F7DFFFDFFF718C694AFBDEBEF7FFFFDF31
:1031D000FFFFFFFFFFDFFFFFFFFFFFFFFFBEF7FF68
:1031E000FFFFFFFFFF9EF7FFFFFFFFBEF7FFFFFFA1
:1031F000FF38C62C63E739AA528A5228426D6B34D5
:10320000A5FFFFFFFFFFFFDFFFFFFFFFFFDFFFFF68
:10321000FFFFFFFFFFFFFFFFFFFFFFFFFFFFFFFFBE
:10322000FFFFFFFFFFFFFFDFFF7DEF3CE79EF7FFA4
:10323000FFFFFFDFFFFFFFFFFFFFFFFFFFFFFFFFBE
:10324000FFFFFFFFFFFFFFFFFFFFFFFFFFFFFFFF8E
:10325000FFFFFFDFFFDFFFDBDE75AD9294B29496D8
:10326000B5DBDEBEF7FFFFFFFFFFFFFFFFFFFFFF46
:10327000FFFFFFFFFFFFFFFFFFFFFFFFFFFFFFFF5E
:10328000FFFFFFFFFFFFFFFFFFFFFFFFFFBEF79EF8
:10329000F7DFFFFFFFFFFFDFFFFFFFFFFFFFFFFF86
:1032A000FFFFFFFFFFFFFFFFFFFFFFFFFFFFFFFF2E
:1032B000FFFFFFFFFFFFFFDFFFFFFFFFFFBEF79EE8
:1032C000F7BEF7DFFFFFFFFFFFFFFFFFFFFFFFFF7F
:1032D000FFFFFFFFFFFFFFFFFFFFFFFFFFFFF7FF06
:1032E000F7FFFFFFFFFEFFFDFFDEFFFEFFFDFFFF1D
:1032F000FF9FEFDFF73FDF9FE7FFF7FFF7BFF7BF66
:10330000FFDFFFFEFFFEFFFDFFFCFFFCFFFCFFFDFC
:10331000FFFEFFFFFFDFFFDFFFDFFFDFFFFFFFFF3E
:10332000FFFFFFFFFFFEFFFFFFFFFFFFFFFFFFFFAE
:10333000FFFFFFFFFFFFFFFFFFFFFFFEFFFFFFFF9E
:10334000FFFFF7FFFFFFFFFFFFFEFFFEFFDFFFFFB7
:10335000FFDDF7FFF77FDFDFCE3C951A8DDDA5FFA0
:10336000CE9FEFFFFFFFFFFFFFFFFFFEF7FEFFFE19
:10337000FFFEFFFEFFFEFFFFFFFFFFDFFFDFFFDFC0
:10338000FFDFFFFFFFFFFFFEFFFEFFFEFFFFFFFF70
:10339000FFFFFFFFFFFFFFFFFFFFFFFFFFFFFFFF3D
:1033A000FFFFFFFFFFFEFFFFFFFFFFDFFFDFFFDE8F
:1033B000FFDFFFFFFFFFF79FDF3C8D9F95FF9D1F06
:1033C0009E3D85DB7C3B8DDDADDFCE9FE7FFF7FFCC
:1033D000F7FFF7FFFFBEEFDEF7FFFFFFFFFFFFDFA7
:1033E000FFBFFFBFFFFFFFFFFFFFFFFFFFFEFFFE6F
:1033F000FFFFFFFFFFFFFFFFFFFFFFFFFFFFFFFFDD
:10340000FFFFFFFFFFFFFFFFFFFEFFFFFFDFFFDF0D
:10341000FFDFFFDFFFDFFFFFF7FFEF9DB61222D4D4
:1034200011D72A7E5C9F7DBFAEFF9D5E8DDC7CFB4D
:103430007C9C959FBE9FDFFFEFFFF7FFF7BFEFBFBD
:10344000F7FFFFFFFFFFFFFFFFFFFFFFFFFFFFFF94
:10345000FFFFFFFFFFFFFFDFFFFFFFFFFFFFFFFF9C
:10346000FFFFFFFFFFFFFFFFFFFFFFFFFFFEFFFF6D
:10347000FFDFFFDFFFDFFFDFFFDFFFFFF7FFE71FFC
:10348000BFB62A581AF7013702F6017812FD4B1F12
:10349000753F965F9E9F8DDC74FB7C3B8D7FB67F76
:1034A000DFFFF7FFF7DFF77EE7BEF7FFFFFFFFDF86
:1034B000FFDFFFDFFFFFFFFFFFFFFFFFFFFFFFFF5C
:1034C000FFFFFFFFFFFFFFFFFFFFFFFFFFFFFFFF0C
:1034D000FFFEFFFFFFDFFFBFFFDFFFDFFFDFFFFFBD
:1034E000F7FFE7BFAEB301590A5A0AFC1A9A0A3924
:1034F00002390AF701170A5B33DF6CFF951F9EBF85
:10350000951D85DA7CF9841CAE9FE7FFF7FFF7DF96
:10351000EFFFFFFFFFFFFFFFFFFFFFFFFFFFFFFFCB
:10352000FFFFFFFFFFFFFFFFFFFFFFFFFFFFFFFFAB
:10353000FFFFFFFFFFFEFFFFFFDFFFDFFFDFFFDF1C
:10354000FFDFFFFFF7FFE7DFB6F4095A123601D8B5
:10355000013A023A0219027B12DC1A5A12D70118F8
:10356000125C3B7F64BF951F9E1F9E5D8DB974D812
:103570007CFCA51FCF5FDF9FEFFFFFFFFFFFFFFF7B
:10358000FFFEFFFFFFFFFFFFFFFFFFFFFFFFFFFF4C
:10359000FFFFFFFFFFFFFFFFFFFEFFFFFFDFFFDF7C
:1035A000FFDFFFDFFFFFFFFFF7FFEFDFB6D31159AC
:1035B0001A9200F40055011401B701B701F8013A5D
:1035C000125B1A5A1A1912D7091712D92A1D547FD9
:1035D000853F9E3F9E7E85DA7C19951CB65FE7FF8E
:1035E000FFFFFFFFFFFFFFFFFFFFFFFFFFFFFFFFEB
:1035F000FFFFFFFFFFFFFFFFFFFFFFFFFFFEFFFFDC
:10360000FFFFFFDFFFFFFFFEFFFFFFFFF7FFEFFF03
:10361000BE7009F519F200B501540174015401F3AB
:103620000014011401560119127B1A5A1A191219A1
:10363000123912170AB9229B3B9F7DFF955FB67F17
:10364000C69EC6BFEFBFEFFFFFBEF7FEFFFFFFFF47
:10365000FFFFFFFFFFFFFFFFFFFFFFFFFFFFFFFF7A
:10366000FFFEFFFFFFFFFFDFFFFEFFFEFFFFFFFF8D
:10367000FFFFF77CB6322AB319AF0011017209526D
:103680000131015201B5117409F300D300F400F6C1
:1036900000FA113B1A7B1A1A0A390A18027A1257D1
:1036A0001A5B6C5FDFDFCE7DBEFFF7FFFFFFFFFF22
:1036B000FFFFFFFFFFFFFFFFFFFFFFFFFFFFFFFF1A
:1036C000FFFFFFFFFFFFF7FFFFFFFFFFFFFEFFFD15
:1036D000FFFEFFFFFFFFFF3ED7797CD221AE002F18
:1036E000097119EF08701130090F09310952097475
:1036F0000995097601150157015701B9013B0A7C6B
:10370000121A02180A752ADC847FDFFDAD1FD7FF6D
:10371000F7DFEFFFFFFFFFFFFFFFFFFFFFFFFFFFF1
:10372000FFFFFFFFFFFFFFFFFFFFF7FFFFFFFFFFB1
:10373000FFFEFFFDFFFEFFFEFFFDF7DFEF7CA54F65
:10374000196C000E11CD080E110D112D11CC080EA3
:1037500009500910013209530134015501F500D413
:10376000001601B901B9017A1A151A13227FB6BFE2
:10377000DF9A9DDFEFFFF7FFFFFFFFFFFFFFFFFF78
:10378000FFFFFFFFFFFFFFFFFFFFFFFFFFFFF7FF51
:10379000FFFFFFDFFFFEFFFDFFFEFFFEFF9CEFFFD1
:1037A000F71B95EE10AD002F118D00F54A1B953BD0
:1037B0009DB563B242F029ED00EE00CF0011015239
:1037C00001F611950155013501B3003401740193DF
:1037D00011B5323FCFFFC65CB6FFF7FFFFFFFFFF1B
:1037E000FFFFFFFFFFFFFFFFFFFFFFFFFFFFFFFFE9
:1037F000FFFFFFFFFFDFFFDFFFDFFFFEFFFEFFFF3B
:10380000FFFEFFFFF7DB8C2F112F11CE088D00F983
:103810006BFFEFFFF79FC6DFCEDFEFDFCEFC84B498
:103820003AF1218D005109F0007301B409740113BC
:1038300001F20094096D00564BFFE77DBE7BBEFF91
:10384000FFFFFFFFFFFFFFFFFFFFFFFFFFFFFFFF88
:10385000FFFFFFFFFFFFFFFFFFDFFFDFFFDFFFDEF9
:10386000FFDFFFFFFFFFFFFFEF9E9DEF08CF004D43
:1038700000CF00F2299FE73FDF72638B21B04277D0
:103880007CFFCEDFE775536E11F4424F090E01CE77
:1038900000B2119311540175093101CD00BD9D7F16
:1038A000D73AB67EE7DFF7DEF7FFFFFFFFFFFFFF48
:1038B000FFFFFFFFFFFFFFFFFFFFFFFFFFDFFFDF58
:1038C000FFFFFFFEFFDFFFDFFFBEF7FFF71FCF3178
:1038D00009EE00CD00122A0900E9087DC6FFF75E57
:1038E000BEF04A05002A11703A8D19B23AFFE7FF7F
:1038F000C63A6CED080E09CE00120154093201EFF0
:10390000006E115FB6DFEF579D9FEFBEF7DFFFFF41
:10391000FFFFFFFFFFFFFFFFFFFFFFFFFFFFFFFFB7
:10392000FFFFFFFFFFFFFFFEFFDFFFBFFFFFFFDF28
:10393000EF7FAE91094900F66B7FE719956C3A2746
:1039400011F36B1FD7FFEF5C9569002D094E118BAA
:1039500000D44ABC847763F5523763F239CF08F15B
:10396000081309D200D52154321FAE8B19DED6BF01
:10397000F7FFFFDFFFFFFFFEFFFDFFFDFFFFFFFF84
:10398000FFFFFFFFFFFFFFFFFFFEFFFEFFDFFFBFA9
:10399000FF1DEFFFF73FA69209AB00167CDFFFBFCC
:1039A000F7FFFF9DCE968C7EBEFFEF9FDFFB8CCB9B
:1039B00008AB008B0049002900AE29798CDA9CB253
:1039C000522D19EE08B000D100941114221D8D6BF8
:1039D000111FDFDFFFDFFFDFFFFFFFFFFFFDF7FD51
:1039E000F7FFFFFFFFFFFFFFFFFFFFFFFFFEFFFEF1
:1039F000FFDEFFBEFFFFFF5FDFB63232014D000A80
:103A000000503917731CADBFFFDFFFBFF7DFF7FFB3
:103A1000F75FE7C8089363567C7263EF4AB68CBDC4
:103A2000CE1ED7FED67FDF797CED006D00D211D59A
:103A3000321B85CC215FE7FFFFDFFFBFFFDFFFFF0A
:103A4000FFFFF7FFFFFFFFFFFFDFFFDFFFDFFFFFEE
:103A5000FFFFF7FEF7DEFFDEFFBFFFFFD6510113CA
:103A6000018E082C100B080B104C10CD2015633D57
:103A7000AD7FD65FCE9473C810DFF7FFFF7FE7BF3F
:103A8000EFFFF7FFF7BDE7FFF7FFF71FCFF342ACFC
:103A900000900951221A7D8A195FDFBFF7DFFFBF4F
:103AA000FFDFFFDFFFFFFFFFFFFFFFFFFFDFFFDFA6
:103AB000FFDFFFFFFFFFF7FEF7FFFFDFFFDFFFBFC7
:103AC000CE300193112B006B200A200B186E100BC7
:103AD000004D006D086C102A082910B67B7FFFDFAF
:103AE000FFDFFFBFF79FEFBFEFFFF7FFF7FFEFFF2E
:103AF000EF386CCC00900931227B852B227EDFDFF2
:103B0000F7DFFF9FFFDFFFDFFFDFFFFFFFFFFFFFAD
:103B1000FFFFFFFFFFDFFFFFFFFFF7FFF7DFFFDF25
:103B2000FFFFFF3CB60E01B2190700A828052826A2
:103B3000202808CC104A080A008D186D100B008D43
:103B4000187352398C9FD6DFFFDFF7DFF7FFF79F3F
:103B5000EFFFF79FC672326C00F2193222B86CF692
:103B60007CFFEFFFFFFFFFDFFFDFFFDFFFDFF7FF80
:103B7000FFFFFFFFFFFFFFFFFFFFFFFFFFFFF7FF5D
:103B8000F7DFFFDFFF9FEFDEC6EF196C09A83132C8
:103B9000BD6EB4288BC351023100084618AB180B18
:103BA000004E0070004F002D006C008F29F35AB5B5
:103BB00073B583D58391526F218E008F007309D620
:103BC00032712A1BA6FFEFFFFFFEFFFEFFFFFFFF84
:103BD000FFDEFFFFFFFFFFFFFFFEFFFEFFFFFFFF18
:103BE000FFFFF7FFF7DFFFBFFFFFFF9DC68C09094F
:103BF00001274290C5CBBC2BD56AD567B4A79B459E
:103C00006282202510691009000C00F0186E080B64
:103C1000004C084B080800090809004C08D1100F97
:103C20000055095FA63122756CFFE7FEF7DDFFDC6A
:103C3000FFFEFFFEFFFDFFFEFFFFFFFFFFFEFFFE9B
:103C4000FFFFFFFFFFFFF7FFF7DFFFBFFFFFFF7C77
:103C5000BE8C094A09474AB4E66DD586BC25DD24E9
:103C6000DD24D545D506CD05AC847264490318071B
:103C7000100B104E104E082D004D008D086C100BCF
:103C8000089110310035111E645FAE8B115DD7FEB7
:103C9000F7FDFFFDFFFDFFFDFFFDFFFEFFFFFFFF47
:103CA000FFFEFFFEFFFFFFFFFFFFF7FFF7DFFFBF96
:103CB000FFFFFF7CBE8D094B09AB52DBFF78FF5540
:103CC000FFABED67E505DDE4DC05DD06DDE7DCA93E
:103CD000D46CC4C98AE54804180610280869088A03
:103CE0001028102A10B01851005100F6213E858B83
:103CF000113ED7FFF7FDFFFDFFFEFFFEFFFEFFFEBB
:103D0000FFFFFFFFFFFFFFFFFFFFFFFFFFFFF7FFCB
:103D1000F7DFFFBFFFFFFF9EC66F09ED004E429F1A
:103D2000FF9FFF9EFF9DFF9CFFD8FEF4FD30F5CC6A
:103D3000E4A9E4A6E4E5EC25ED46EDC7D4659BA235
:103D400059603000184320041009008E083319D43C
:103D5000215F8D6B113ED7FFF7FEFFFFFFFFFFDFF7
:103D6000FFFFFFFFFFFFFFFFFFFFFFFFFFFFFFFF63
:103D7000FFFFF7FFF7DFFFBFFFDFFF5DBE7009301A
:103D800001924ABFFF9FFF7FFF1FFF5FFF7FFF7F03
:103D9000FF7DFFF7FE51FEECFDE4E4C2DCC1DC0375
:103DA000E527EDE9E44AD4CABB256A454105084A3E
:103DB000089221F4297F950A093FD7FFF7FFFFFFFB
:103DC000FFDFFFDFFFFFFFDFFFFFFFFFFFFFFFFF63
:103DD000FFFFFFFFFFFFF7FFF7DFFFBFFFDFFF5D25
:103DE000BE70093101B34A9FF7FFEE7FEE9FFF9F40
:103DF000FFBFFFBEFFFCFFFBFFF9FFD8FFD8FFF5B9
:103E0000FEAFEDCBE469EC68F446FC46ECCBCCAEFF
:103E1000ACAC62C9180E1950197E956B113FD7FFD3
:103E2000F7DFFFDFFFDFFFDFFFDFFFDFFFFFFFFF6A
:103E3000FFFFFFFFFFFFFFFFFFFFFFFFFFBFFFBF12
:103E4000FFDFFF7EC670092F01913A7FEFBFDE3C96
:103E5000CEBAC51ACEDBDEBDF7FDFFFDFFFDFFFDCF
:103E6000FF5BF7BDFFBDFF7AFF74FEAEFD2AFDE8E4
:103E7000EC4ADDCFD5509C09290D19B021BE9DAC6F
:103E8000193ED7FFF7FFFFFFFFFFFFDFFFFFFFDF59
:103E9000FFFFFFFFFFFEFFFEFFFEFFFFFFFFFFFF35
:103EA000FFBFFF9FFFDFFF5DC66F096E013043FF5D
:103EB000F7FFFFFDF7DDE77BD7B9C637B617BE9A28
:103EC000D65DF7FFFFFEFFFDFFDCFFBBFFFBFFFB47
:103ED000FFFAFF76F78BCDCEDDB0B4C7202D2111D0
:103EE000325D952A113ED7FFF7FEFFFEFFFFFFDF91
:103EF000FFFFFFFFFFFFFFFFFFFCFFFDFFFEFFFFD8
:103F0000FFFFFFFFFFBFFFBFFFDFFF7DBE8F094E3B
:103F100001AE3ADFE7BCEF9AE7FDEFFDEFFEF7FEFB
:103F2000EF1CDF5ACEF9CDD8CD9ADE7CF7FEFFFD2F
:103F3000FFFDEFFEEFFEE7FDF7F8FFD9FF9AE64A37
:103F4000312D19F1293B8D8A193ED7FFF7FEFFFE6F
:103F5000FFFFFFFEFFFFFFFFFFFFFFFFFFFBF7FC81
:103F6000FFFFFFDFFFDFFFDFFFDFFFFFFFFFF7DF09
:103F7000C64F090F01B342DFF73DE7D4BD56C6D89F
:103F8000CE5BE7DEF7FFFFFFFFDFFF9FF79AD65814
:103F9000C617BE78C61BD7DDE7FEEFFEF7FDFFDFD5
:103FA000FF5FEF6D212D0910229C8DA9115DD7FFB8
:103FB000F7FFFFFFFFFFFFFFFFFFFFFFFFFFFFFF19
:103FC000FFFBF7FCF7FFFFDFFFBFFFBFFFFFFFFFB8
:103FD000F7FFEFDFBE4F09300933325FE79FF7FE8F
:103FE000FF5CF7FBE659CE18C659CEFBE69EF7FFFD
:103FF000FFFFFFFFFF9EEFFBDE79C638C679CEBA22
:10400000D65EEFDFFF3FDF8E194F1131229B8D8986
:10401000095DD7FFF7FFFFFFFFFFFFFFFFFFFFFF78
:10402000FFFFFFFFFFFEF7FFF7FFFFBFFFBFFFBF71
:10403000FFFFFFFFF7FFE79DAE6E09901152329F21
:10404000EF1CE79CF75FF79FFF9FFF5FF7DCDE59F0
:10405000CE38CE57CE3BE77CEFDEFFFFFFFFFFBF42
:10406000F7FDDE5ACE1DE7BFF73FDF8E194E113147
:10407000227B8D89115DD7FFF7FFFFFFFFFFFFFF59
:10408000FFFFFFFEFFFFFFFFFFFFF7FFFFDFFFBFA9
:10409000FFBFFFBFFFFFFFFFF7FFEFBEB66D092EAB
:1040A00009102ABFEFF8B554A51AC69CD63FEFDF1A
:1040B000FFFFFFBFF75DEF1BE758CE38C618C69A63
:1040C000D63DEFBFFFFFFFDFFF9EF7FFFF3FE76D2E
:1040D000192E0910227B8D89115ED7FFFFFFFFFF8C
:1040E000FFFFFFFFFFFFFFFEFFFFFFFFFFFFF7FFE9
:1040F000FFDFFFBFFFBFFFDFFFFFFFFEF7FFEFBEEA
:10410000B64C090D01F0297FDFFDD63CE799CEF6CC
:10411000BD55AD76AD59CE3DE79FF7BFFFBFFF9FC1
:10412000FF3EEF9BDEF8CDF7C579D6FAE69DFFFF9F
:10413000FF5FE78D212E1110227C8D8A113ED7FF63
:10414000FFFFFFDFFFFFFFFFFFFFFFFEFFFFFFFFA0
:10415000FFFEFFFFFFFFFFDFFFDFFFDFFFFEFFFED2
:10416000F7FFEF7DB66D118F116F197A7C9BAD7FD4
:10417000E79DE77CE71BDF9ACE19BED8BDF9BD1AD3
:10418000C6FEE65FEFDFFFFFFFBEFF1BEF98DE57C7
:10419000D65BF7DFFF5FE78D214E1111225C8D4961
:1041A000113FDFFFFFDFFFDFFFFFFFFFFFFFFFFE2E
:1041B000FFFFFFFFFFFCFFFDFFFFFFFFFFDFFFFF34
:1041C000FFFDFFFEF7FFF79EBE6E1150118E00CE71
:1041D000088F29904AB68CD9AD3ED7BFEF5EDFBCC1
:1041E000CE7AC659C695AD95B5F6BD99D65BEFDDCD
:1041F000FFFEFFFDFF3BEFBFFF3FE76D214E1111BB
:10420000225C956A113FDFFFFFDFFFDFFFFFFFFF4B
:10421000FFFFFFFEFFFFFFFFFFFCFFFCFFFEFFFEB7
:10422000FFFFFFFEFFFDFFFEF7FFF79EBE2C112FE5
:1042300011711951199021AB08CA084B116F3A3509
:1042400074FBAD1ED75EDF3DDF3CDF1BDFB9CE1652
:10425000BEB5B5D5B577CEF9DE9CF7FFFF3FDF4C95
:10426000190D09F1217C958B213FDFFFFFDFFFDF77
:10427000FFDFFFFFFFFFFFFEFFFFFFFFFFFCFFFD74
:10428000FFFEFFFEFFFEFFFEFFFEFFFEFFFFF71F2C
:10429000D799841132AD08CE084F197021B221711F
:1042A000190E09CC000B090E2AF46B99A5BCC63D6A
:1042B000D75DDF1BD7FAD61AD777C6B4ADF7BD9F47
:1042C000EF1FDF4D196F11D0199D9D4A111FDFDFC0
:1042D000FFDFFFBFFFDFFFFFFFFFFFFFFFFFFFFF6E
:1042E000FFFEFFFEFFFFFFFFFFFFFFFFFFFEFFFFE1
:1042F000FFFFFFFFF7FFF71FD7DFAD397C71420DDE
:1043000011CE00EF087119D121B0214D110B090A0E
:10431000098B19715B799D9CBEDDCE1DD73DD73DC4
:10432000DFDCD6DDD69FC66E19B1191222FB84CC14
:10433000213FDFFFFFDFFFDFFFDFFFFFFFFFFFFFAB
:10434000FFFFFFFFFFFFFFFFFFFFFFFFFFFFFFFF7D
:10435000FFFFFFFFFF7DEFDFF7FFFFFFF7FFF7BF77
:10436000EF3FD79FC65774144BCF210C09ED080EB1
:10437000114F1170192F11EE10ED086E21D24A99CC
:104380007C1EB61FD73FDFFFD69FC6CD00AD0053C2
:104390002A1B85CC213EDFFFFFDFFFDFFFDFFFFFB2
:1043A000FFFFFFFFFFFFFFFFFFFFFFFFFFDFFFFF3D
:1043B000FFFFFFFFFFFFFFFFFFFFFFFFFFFFFFDF2D
:1043C000F7DFF7FFF7FFF7FFEFFFEF7FD73DAE3ADD
:1043D0008D5874555B11322F110F11101130195176
:1043E000191011EF085019113298849CA5BFA5919E
:1043F000111001742A1A8528093EDFDFFFDFFFDF75
:10440000FFDFFFFFFFFFFFFFFFFFFFFFFFDFFFDF1C
:10441000FFFFFFFFFFFFFFFFFFFFFFFFFF9EF7BE56
:10442000FFDEFFFEFFFFFFFFFFFFF7FFF7FFEFFFDE
:10443000EFFFF7FFF7FFF7BFE79EBE7B9D94633169
:10444000320E09F01073219521551933194B000CC8
:10445000092F09CF003101B1115C8D0B2A3DD7DE48
:10446000F7DFFFBFFFDFFFFFFFFFFFFFFFFFFFFFE4
:10447000FFFFFFFFFFFFFFFFFFFFFFFFFFFFFFDF6C
:10448000FFFFFFFFFFFEFFFEFFFDFFFEFFFEF7FE4B
:10449000F7FFFFFFFFDFF7BEEFFFEFFFF7FFF7FFCD
:1044A000F7FFF75FD7BDA5D863D1218E00D000728A
:1044B00019B021F121CF0073099309B1091A7D27A1
:1044C000095DDFFEFFFEFFBEFFDFFFDFFFFFFFFF37
:1044D000FFFFFFFFFFFEFFFEFFFEFFFFFFFFFFFFEF
:1044E000FFFFFFDFFF9FFFBEFFDEFFFEFFFEFFFFC0
:1044F000FFFFFFFFFF9CEFDDFFFEFFFFFFFFFFFF62
:10450000FFFFF7BFE7DFEFFFF7FFEFFFEF5FD758E2
:104510008DCE3A29090C093009D000940973015451
:10452000225B85C9199EE7FEFFFEFFBEFFDFFFDFAE
:10453000FFFFFFFFFFFFFFFFFFFEFFFEFFFEFFFE8F
:10454000FFFFFFFFFFFFFFFFFFDFFFDFFFDEFFFEDD
:10455000FFFEFFFFFFFFFFFFFFFEFFFEFFFEFFFE70
:10456000FFFFFFFFFFFFFFFFF7FFF7FFF7FFEFFF83
:10457000EFFFF7FFEFDDDF3DCFB884B33A9111B223
:10458000198D00AF11FC9D7795DEEFFEFFFEFFBE9B
:10459000FFDFFFFFFFFFFFFFFFFFFFFFFFFFFFFF4B
:1045A000FFFFFFFFFFFFFFFFFFFFFFFFFFFFFFFF1B
:1045B000FFFFFFFFFFFFFFFFFFFFFFFFFFFFFFFF0B
:1045C000FFFFFFFFFFFFFFFFFFFFFFFFFFFFFFFFFB
:1045D000FFFFFFFFFFFFFFFFF7FFF7FFF7FFFFFF03
:1045E000F71FD7D98CF24AD46BBDC6FFF7FFFFFE89
:1045F000FFFFFFFFFFFFFFFFFFFFFFFFFFFFFFFFCB
:10460000FFFFFFFFFFFFFFFFFFFFFFFFFFFFFFFFBA
:10461000FFFFFFFFFFFFFFFFFFFFFFFFFFFFFFFFAA
:10462000FFFFFFFFFFFFFFFFFFFFFFFFFFFFFFFF9A
:10463000FFFFFFFFFFFFFFFFFFFFFFFFFFFFFFFF8A
:10464000FFBEF7DFFFFFFFDFF7BFEFFFF7FFF7BDAD
:10465000EFFEFFFEFFFFFFFFFFFFFFFFFFFFFFFF7C
:10466000FFFFFFFFFFFFFFFFFFFFFFFFFFFFFFFF5A
:10467000FFFFFFFFFFFFFFDFFFFFFFFFFFDFFFDFAA
:10468000FFFFFFFFFFFFFFFFFFBFFF5DF73DEF3DB8
:10469000EF3CEF1CE77DF75DEF5DEF5DEF5CEF7DDD
:1046A000F77DF79DF79DF7BDF7FEFFFFFFBEF7DF34
:1046B000FFFFFFFFFFFFFFFFFFFFFFFFFFFFFFFF0A
:1046C000FFFFFFFFFFFFFFFFFFFFFFFFFFFFFFFFFA
:1046D000FFFFFFFFFFFFFFFFFFFFFFDFFFFFFFFF0A
:1046E000FFDFFFDFFFFFFFDFFF7EF77EF75DEF1CE1
:1046F000E71CE71CE71CE7DBDE1CE71CE71CE71CEC
:10470000E71BE71BE7FBE6FBDEB9D61ADF9DF7FFE9
:10471000FFFFFFFFFFFFFFDFFFFFFFFFFFFFFFFFC9
:10472000FFFFFFFFFFFFFFFFFFFFFFFFFFFFFFFF99
:10473000FFFFFFFFFFFFFFFFFFFFFFFFFFFFFFDFA9
:10474000FFFFFFFFFFFFFFFFFFFFFF9EF7FCE61CE1
:10475000EF3DEF1CE71CE73CEF1CE7FCE6FBE61B2C
:10476000E71CE71CE71BE7DADEB9D699D637C65750
:10477000C6DADEDEF7FFFFFFFFFFFFDFFFFFFFFF11
:10478000FFFFFFFFFFFFFFFFFFFFFFFFFFFFFFFF39
:10479000FFFFFFFFFFFFFFFFFFFFFFFFFFFFFFFF29
:1047A000FFFFFFFFFFFFFFFFFFFFFFFFFFDFFF5DDB
:1047B000EFDBDE1CE73DEF3CEF3DEF5DEF3DEF1C37
:1047C000E7FBE61BE71BE71BE7FBE6DADE99D6789B
:1047D000CE37C616BE37C61BE7FFFFFFFFDFFFFF62
:1047E000FFFFFFFFFFFFFFFFFFFFFFFFFFFFFFFFD9
:1047F000FFFFFFFFFFFFFFFFFFFFFFFFFFFFFFFFC9
:10480000FFFFFFFFFFFFFFFFFFFFFFFFFFFFFFFFB8
:10481000FFDFFF3CE79AD6DBE61CEF1CEF1CEF1C2A
:10482000EF1CE7FBE6DBDEDADEDADEBADE99DE7904
:10483000D658CE58CE58CE17C6D6BD99D6BEF7DFBD
:10484000FFDFFFFFFFFFFFFFFFFFFFFFFFFFFFFF98
:10485000FFFFFFFFFFFFFFFFFFFFFFFFFFFFFFFF68
:10486000FFFFFFFFFFFFFFFFFFFFFFFFFFFFFFFF58
:10487000FFFFFFFFFFDFFF1CE79AD6FBE63CEF1CC4
:10488000EF1CE71CE7FBE6FBE6DADEDADEBADE99D0
:10489000D679D658CE38CE37CE37C637C6F6BD997C
:1048A000CEDEFFFFFFBEF7FFFFFFFFFFFFFFFFFFB3
:1048B000FFFFFFFFFFFFFFFFFFFFFFFFFFFFFFFF08
:1048C000FFFFFFFFFFFFFFFFFFFFFFFFFFFFFFFFF8
:1048D000FFFFFFFFFFDFFFFFFFDFFF1CE7BADEFB8D
:1048E000E63CEF3CEF1CEF1CEF1BE71BE7DAE6DAD8
:1048F000DEBADE99D678D658CE37CE17C6D6BD5793
:10490000C6F6BD79CEFEFFFFFFBFF7FFFFFFFFFF3B
:10491000FFFFFFFFFFFFFFFFFFFFFFFFFFFFFFFFA7
:10492000FFFFFFFFFFFFFFFFFFFFFFFFFFFFFFFF97
:10493000FFFFFFFFFFFFFFFFFFDFFFFFFFDFFF1CAA
:10494000E79AD6FBE63CEF3CEF1BE71BE71BE71BB8
:10495000E7DADEDADEBADE99D678D637CEF6C5D615
:10496000BDB5B557C6F6BD58CEDEFFFFFFDFFFFF72
:10497000FFFFFFFFFFFFFFFFFFFFFFFFFFFFFFFF47
:10498000FFFFFFFFFFFFFFFFFFFFFFFFFFFFFFFF37
:10499000FFFFFFFFFFFFFFFFFFDFFFFFFFFFFFDF67
:1049A000FFFFFF1CE7BADEFBE61BEF1BEF1BEF1B55
:1049B000EF1BEF1BE7FAE6DAE6B9DE78D637CE165C
:1049C000CEF6C5D6BDF6BD16C6D6BD58CEFFFFDEA7
:1049D000FFFFFFFFFFFFFFFFFFFFFFFFFFFFFFFFE7
:1049E000FFFFFFFFFFFFFFFFFFFFFFFFFFFFFFFFD7
:1049F000FFFFFFFFFFFFFFFFFFFFFFFFFFDFFFFFE7
:104A0000FFFFFFDFFFFFFF1CE7BADEFBE61BEFFB4C
:104A1000E6FBE6FBE6FBE6DAE6DAE6DADE99DE78E6
:104A2000D637CE16C6F6C5D5BDF6BD37C6F6BD78A7
:104A3000CEFFFFDEFFFFFFDFFFFFFFFFFFFFFFFFF8
:104A4000FFFFFFFFFFFFFFFFFFFFFFFFFFFFFFFF76
:104A5000FFFFFFFFFFFFFFFFFFFFFFFFFFFFFFFF66
:104A6000FFDFFFFFFFFFFFDFFFFFFF1CE79ADEDA3C
:104A7000E6FBEEFBE6FBE6FAE6FAE6DAE6B9DE99F5
:104A8000DE78DE57D617CEF6C5D5C5B5BDD6BD1670
:104A9000C6D6BD58CEFFFFDEFFFFFFDFFFFFFFFFE3
:104AA000FFFFFFFFFFFFFFFFFFFFFFFFFFFFFFFF16
:104AB000FFFFFFFFFFFFFFFFFFFFFFFFFFFFFFFF06
:104AC000FFFFFFFFFFDFFFFFFFFFFFDFFFFFFF1C19
:104AD000E779D6BADEFAE6FAE6FAE6FAE6FAE6DACE
:104AE000E699DE98DE78D637CE16CED5C5B5BDB5FB
:104AF000BD94B5D6BDB5B558CEFFFFDEFFFFFFDFD5
:104B0000FFFFFFFFFFFFFFFFFFFFFFFFFFFFFFFFB5
:104B1000FFFFFFFFFFFFFFFFFFFFFFFFFFFFFFFFA5
:104B2000FFFFFFFFFFFFFFFFFFDFFFFFFFFFFFDFD5
:104B3000FFFFFF1CE779D6B9DEDAE6FAE6DAE6DA55
:104B4000E6DAE6B9DE99DE98DE78D637CEF6C5D558
:104B5000C594BD94BD74ADD5B5B5B558CEFFFFDFD6
:104B6000FFFFFFDFFFFFFFFFFFFFFFFFFFFFFFFF75
:104B7000FFFFFFFFFFFFFFFFFFFFFFFFFFFFFFFF45
:104B8000FFFFFFFFFFFFFFFFFFFFFFFFFFDFFFFF55
:104B9000FFFFFFDFFFFFFF1CE799DEDAE61BEFFBFD
:104BA000EEFAE6DAE6B9E699DE98DE78D657D6165A
:104BB000CED5C594BD74B553B574ADD5B5B5B5787E
:104BC000CEFFFFDFFFFFFFDFFFFFFFFFFFFFFFFF66
:104BD000FFFFFFFFFFFFFFFFFFFFFFFFFFFFFFFFE5
:104BE000FFFFFFFFFFFFFFFFFFFFFFFFFFFFFFFFD5
:104BF000FFDFFFFFFFFFFFDFFFFFFF1CE737CE7880
:104C0000D6B9DEB9DEB9DEB9DE98DE78D657D6374A
:104C1000CEF6C5B5BD73B532AD12ADF1A412A57413
:104C2000AD95AD58C6FFFFFFFFFFFFDFFFFFFFFFA2
:104C3000FFFFFFFFFFFFFFFFFFFFFFFFFFFFFFFF84
:104C4000FFFFFFFFFFFFFFFFFFFFFFFFFFFFFFFF74
:104C5000FFFFFFFFFFDFFFFFFFFFFFDFFFFFFF1B88
:104C6000E754B594C5F4CD14D614DE34DE14DEF367
:104C7000DDD3D5D2D591CD50C50FB5CEAC8DA46EB8
:104C8000A48F9C11A532AD16C6FFFFFFFFFFFFFFEB
:104C9000FFFFFFFFFFFFFFFFFFFFFFFFFFFFFFFF24
:104CA000FFFFFFFFFFFFFFFFFFFFFFFFFFFFFFFF14
:104CB000FFFFFFFFFFFFFFFFFFFFFFFFFFFFFFDF24
:104CC000FFBEF77DF74B7BEC9BE99BAABC47BC671B
:104CD000C467CC68D4C9D4C9D4E8D4E7D4E8CCC874
:104CE000CCC9CCCBCC4FCD71C54D9477D6FEFF9DB2
:104CF000F7FFFFFFFFFFFFFFFFFFFFFFFFFFFFFFCC
:104D0000FFFFFFFFFFFFFFFFFFFFFFFFFFFFFFFFB3
:104D1000FFFFFFFFFFFFFFFFFFFFFFFFFFFFFFFFA3
:104D2000FFFFFFDFFFBEF79DFF2E9CCA9B28B4E963
:104D3000D4A6D4C6E4A6E4A6ECE6EC06ED25ED4543
:104D4000ED45ED67ED68ED6BE58FDD50C56DA4F8C1
:104D5000EEFEFFDEF7FFFFFFFFFFFFFFFFFFFFFF9E
:104D6000FFFFFFFFFFFFFFFFFFFFFFFFFFFFFFFF53
:104D7000FFFFFFFFFFFFFFFFFFFFFFFFFFFFFFFF43
:104D8000FFFFFFFFFFFFFFDFFFDFFFDEFF11B54883
:104D90008B48B4C8CCE6DCE5E4C5E4C5EC06F525F3
:104DA000F545ED64EDA5F5A7F5A9F5ACEDF0E50F3A
:104DB000BDAEA49BFFFEFFFFFFFFFFFFFFFFFFFF56
:104DC000FFFFFFFFFFFFFFFFFFFFFFFFFFFFFFFFF3
:104DD000FFFFFFFFFFFFFFFFFFFFFFFFFFFFFFFFE3
:104DE000FFFFFFFFFFFFFFFFFFDFFFDFFFFFFFFE14
:104DF000FFD4CDE67A28ACA6C405DD04E5C4E4E41E
:104E0000EC45F565F584F5A4F5A4EDA6EDA7F5AAA6
:104E1000EDD0DDADAC10B5FDFFDDFFFFFFFFFFFF07
:104E2000FFFFFFFFFFFFFFFFFFFFFFFFFFFFFFFF92
:104E3000FFFFFFFFFFFFFFFFFFFFFFFFFFFFFFFF82
:104E4000FFFFFFFFFFFFFFFFFFFFFFFFFFFFFFDF92
:104E5000FFFFFFFEFFD8EE478327A4A6C426DD246C
:104E6000E504ED24F585FDA4F5A3F5C3F5E4F5E52A
:104E7000F5C7F5AAEDAFD54D9CB2C5FDFFDDFFFF2F
:104E8000FFFFFFFFFFFFFFFFFFFFFFFFFFFFFFFF32
:104E9000FFFFFFFFFFFFFFFFFFFFFFFFFFFFFFFF22
:104EA000FFFFFFFFFFFFFFFFFFFFFFFFFFFFFFFF12
:104EB000FFFFFFFFFFFFFFFEFF7BFF0B9CC69BA6D4
:104EC000BC46DD44E503E544F584F5A3F5C3F5E30D
:104ED000F503F605F6E7F5EBED8FD56D9C96DEFD57
:104EE000FFFEFFFFFFFFFFFFFFFFFFFFFFFFFFFFD3
:104EF000FFFFFFFFFFFFFFFFFFFFFFFFFFFFFFFFC2
:104F0000FFFFFFFFFFFFFFFFFFFFFFFFFFFFFFFFB1
:104F1000FFFFFFFFFFFFFFFFFFFFFFDEFFDDFFEFF4
:104F2000B4858BA6BC26DD44E523E584F583F5A393
:104F3000F5C2F502F604F625F607FE2BF68FCD8EA8
:104F4000A47AFFFDFFFFFFFFFFFFF7FFFFFFFFFF5B
:104F5000FFFFFFFFFFFFFFFFFFFFFFFFFFFFFFFF61
:104F6000FFFFFFFFFFFFFFFFFFFFFFFFFFFFFFFF51
:104F7000FFFFFFFFFFFFFFFFFFFFFFFFFFDFFFBEA2
:104F8000FFFEFFB3CD658BA7BC46DD65E543EDA411
:104F9000FDC4FDE4FD03F623F645F646FE49FE4C4E
:104FA000F66FC5AFA4FDFFBDFFFFFFDFF7BEF7FF44
:104FB000FFFFFFFFFFFFFFFFFFFFFFFFFFFFFFFF01
:104FC000FFFFFFFFFFFFFFFFFFFFFFFFFFFFFFFFF1
:104FD000FFFFFFFFFFFFFFFFFFFFFFFFFFFFFFFFE1
:104FE000FFFFFFFFFFBEFFF9F6678B26AC88DDA64B
:104FF000ED65EDC5FD05FE04FE23F624F645F62716
:10500000F629FE6EF68CACF4CDFDFFBDF7FFFFFF79
:10501000FFFFFFDFF7FFFFFFFFFFFFFFFFFFFFFFC8
:10502000FFFFFFFFFFFFFFFFFFFFFFFFFFFFFFFF90
:10503000FFFFFFFFFFFFFFFFFFFFFFFFFFFFFFFF80
:10504000FFFFFFFFFFFFFFFFFFDFFF3BFFE99326AF
:10505000A468DDA6ED85EDC5FD05FE25FE24F6451B
:10506000F646F648F64AF64EF68DAC36CEFEFFBD55
:10507000F7FFFFFFF7FFFFDFF7FFFFFFFFFFFFFF78
:10508000FFFFFFFFFFFFFFFFFFFFFFFFFFFFFFFF30
:10509000FFFFFFFFFFFFFFFFFFFFFFFFFFFFFFFF20
:1050A000FFFFFFFFFFFFFFFFFFFFFFFFFFDFFF9D92
:1050B000FF8DAC27A448D5A7EDC6F5E6F526FE453D
:1050C000FE65FE66F667F669F64CF62FEEADAC9817
:1050D000DEFEFFDEFFFFFFDFF7FFFFFFFFFFFFFF4B
:1050E000FFFFFFFFFFFFFFFFFFFFFFFFFFFFFFFFD0
:1050F000FFFFFFFFFFFFFFFFFFFFFFFFFFFFFFFFC0
:10510000FFFFFFFFFFFFFFFFFFFFFFFFFFFFFFFFAF
:10511000FFBFFFDFFF2FBD07A427CDC7EDE7F506D3
:10512000FE26FE66FE86FE87FE88FE8AFE4DF60F90
:10513000E6AEAC1AE7FEFFFFFFFFFFDFF7FFFFFF62
:10514000FFFFFFFFFFFEFFFEFFFFFFFFFFFFFFFF71
:10515000FFFFFFFFFFFFFFFFFFFFFFFFFFFFFFFF5F
:10516000FFFFFFFFFFFFFFFFFFFFFFFFFFFFFFFF4F
:10517000FFFFFFFFFF9FFFDFFFB1C5E69B27CDE7E6
:10518000ED07F646FE46FE86FEA6FEA7FEA9FEAB8E
:10519000FE4DF6EFE5CEAC7CF7FFFFFFFFFFFFDF34
:1051A000F7FFFFFFFFFFFFFFFFFEFFFEFFFFFFFF19
:1051B000FFFFFFFFFFFFFFFFFFFFFFFFFFFFFFFFFF
:1051C000FFFFFFFFFFFFFFFFFFFFFFFFFFFFFFFFEF
:1051D000FFFFFFFFFFFFFFFFFF9FFFBEFFF2D506B0
:1051E0009C47CD07EE27F666FE66FEA6FEC7FEA725
:1051F000FEA9FEACFE4DF6EFDDCFACDDFFFEFFFFFE
:10520000FFFFFFFFF7FFFFFFFFFFFFFFFFFEFFFEB8
:10521000FFFFFFFFFFFFFFFFFFFFFFFFFFFFFFFF9E
:10522000FFFFFFFFFFFFFFFFFFFFFFFFFFFFFFFF8E
:10523000FFFFFFFFFFFFFFFFFFFFFFFFFFBFFFBEFF
:10524000FF33D6069C67D507EE26F666FE86FEC6B9
:10525000FEC6FEA7FEA9FEACFE4EF6CFDDCFA4FE35
:10526000FFBEF7FFFFFFFFFFFFFFFFFFFFFFFFFF97
:10527000FFFEFFFEFFFFFFFFFFFFFFFFFFFFFFFF40
:10528000FFFFFFFFFFFFFFFFFFFFFFFFFFFFFFFF2E
:10529000FFFFFFFFFFFFFFFFFFFFFFFFFFFFFFFF1E
:1052A000FFFFFFDDFF73DE279C88D507EE06F6665D
:1052B000FE86FEC7FEC7FEA7F6A9F6CCFE6DF6CFAA
:1052C000DDCFACFEFF9DF7FFFFFFFFFFFFFFFFFFFE
:1052D000FFFFFFFFFFFFFFFFFFFFFFFFFFFFFFFFDE
:1052E000FFFFFFFFFFFFFFFFFFFFFFFFFFFFFFFFCE
:1052F000FFFFFFFFFFFFFFFFFFFFFFFFFFFFFFFFBE
:10530000FFFFFFFFFFDFFFFDFF53D6E69328CD0829
:10531000EE47FE46FE66FEA7FE67F6A9FEABF68CDC
:10532000F6AEF6AED510ADDEFFFFFFFFFFBEF7FF16
:10533000FFFFFFFFFFFFFFFFFFFFFFFFFFFFFFFF7D
:10534000FFFFFFFFFFFFFFFFFFFFFFFFFFFFFFFF6D
:10535000FFFFFFFFFFFFFFFFFFFFFFFFFFFFFFFF5D
:10536000FFFFFFFFFFFFFFFFFFDEFFFDFF54D6E75C
:105370009328CDE9ED47FE46FE86FEA7FE67FEAA0E
:10538000FE8BF68CF6AEF6CDD510ADDEFFFFFFFF3F
:10539000FFDEFFFFFFDFFFFFFFFFFFFFFFFFFFFF5E
:1053A000FFFFFFFFFFFFFFFFFFFFFFFFFFFFFFFF0D
:1053B000FFFFFFFFFFFFFFFFFFFFFFFFFFFFFFFFFD
:1053C000FFFFFFFFFFFFFFFFFFFFFFFFFFDEF7FE17
:1053D000FF75D6089429CDE8ED47FE66FE86FEA748
:1053E000FE87FEA9FEABF68CF6CEFEEED510ADDD47
:1053F000FFFFFFFFFFDEFFFFFFDFFFFFFFFFFFFFFE
:10540000FFFFFFFFFFFFFFFFFFFFFFFFFFFFFFFFAC
:10541000FFFFFFFFFFFFFFFFFFFFFFFFFFFFFFFF9C
:10542000FFFFFFFFFFFFFFFFFFFFFFFFFFFFFFFF8C
:10543000FFDFF7FEFF55D6089429CDE8E547FE8645
:10544000FE85FEA6FE87FEC9FE8AF68CF6CEFEEE2F
:10545000DDEFACBDFFFFFFFFFFDEFFFFFFDFFFFF64
:10546000FFFFFFFFFFFFFFFFFFFFFFFFFFFFFFFF4C
:10547000FFFFFFFFFFFFFFFFFFFFFFFFFFFFFFFF3C
:10548000FFFFFFFFFFFFFFFFFFFFFFFFFFFFFFFF2C
:10549000FFFFFFFFFFDFF7FFFF34D6089449CDE899
:1054A000E546FE86FE85FEA6FE86FEA9FE8AF68BF2
:1054B000F6CDFEEEDDCFA49DF7FEFFFFFFDEFFFF82
:1054C000FFDFFFFFFFFFFFFFFFFFFFFFFFFFFFFF0C
:1054D000FFFFFFFFFFFFFFFFFFFFFFFFFFFFFFFFDC
:1054E000FFFFFFFFFFFFFFFFFFFFFFFFFFFFFFFFCC
:1054F000FFFFFFFFFFFFFFFFFFDFFFFEFF14CEE810
:105500009349CDE8E526F685FE64FEA5FE86FEA855
:10551000FE69F66AF6ADFEEDE5AEA49CF7FEFFFF70
:10552000FFDEFFFFFFDFFFFFFFFFFFFFFFFFFFFFCC
:10553000FFFFFFFFFFFFFFFFFFFFFFFFFFFFFFFF7B
:10554000FFFFFFFFFFFFFFFFFFFFFFFFFFFFFFFF6B
:10555000FFFFFFFFFFFFFFFFFFFFFFFFFFDFFFBDBD
:10556000FFD3CDC79349CDE8ED26F665FE44FE8511
:10557000FE66FE87FE48F64AFE8CFEEDE58D9C7CBD
:10558000F7DEFFFFFFDEFFFFFFDFFFFFFFFFFFFF95
:10559000FFFFFFFFFFFFFFFFFFFFFFFFFFFFFFFF1B
:1055A000FFFFFFFFFFFFFFFFFFFFFFFFFFFFFFFF0B
:1055B000FFFFFFFFFFFFFFFFFFFFFFFFFFFFFFFFFB
:1055C000FFDFFFBDFFB2CDA79349CDE8ED06F6455D
:1055D000FE44FE86FE66FE88FE48FE4AFE8CFEED18
:1055E000E56D9C5CEFDEFFFFFFDEFFFFFFDFFFFFEF
:1055F000FFFFFFFFFFFFFFFFFFFFFFFFFFFFFFFFBB
:10560000FFFFFFFFFFFFFFFFFFFFFFFFFFFFFFFFAA
:10561000FFFFFFFFFFFFFFFFFFFFFFFFFFFFFFFF9A
:10562000FFFFFFFFFFDFFFFEFFEFB4A79309CDA849
:10563000ED48FE26FE46FE46FE47FE48FE49FE4B6E
:10564000FE4BFE2FF68D9CFAE6FEFFFFFFFFFFFFED
:10565000FFFFFFFFFFFFFFFFFFFFFFFFFFFFFFFF5A
:10566000FFFFFFFFFFFFFFFFFFFFFFFFFFFFFFFF4A
:10567000FFFFFFFFFFFFFFFFFFFFFFFFFFFFFFFF3A
:10568000FFFFFFFFFFFFFFFFFFDFFFDDFFEFB409BD
:10569000A40ACDAAED09FEE7FD07FE48FE49FE4A31
:1056A000FE4BFE4CFE0CFE0FEE4D9499D6DEFFFE37
:1056B000FFFFFFFFFFFFFFFFFFFFFFFFFFFFFFFFFA
:1056C000FFFFFFFFFFFFFFFFFFFFFFFFFFFFFFFFEA
:1056D000FFFFFFFFFFFFFFFFFFFFFFFFFFFFFFFFDA
:1056E000FFFFFFFFFFFFFFFFFFFFFFFFFFBEFF3BCF
:1056F000F7AB8B678B07ACE9CC28DD68E567DD8805
:10570000E5A9E569DD49D52AD50AD5EBC42D94373D
:10571000CEDEFFDEFFFFFFFFFFFFFFFFFFFFFFFF0C
:10572000FFFFFFFFFFFFFFFFFFFFFFFFFFFFFFFF89
:10573000FFFFFFFFFFFFFFFFFFFFFFFFFFFFFFFF79
:10574000FFFFFFFFFFFFFFFFFFFFFFFFFFFFFFFF69
:10575000FFFFFF7CF78B83AA8BA89B89BC48BC8882
:10576000C409CD2ACD0ACDEAC4EAC42BC50BC5CCE9
:10577000B40D8CD6BDFEFFDEFFFFFFFFFFFFFFFF76
:10578000FFFFFFFFFFFFFFFFFFFFFFFFFFFFFFFF29
:10579000FFFFFFFFFFFFFFFFFFFFFFFFFFFFFFFF19
:1057A000FFFFFFFFFFFFFFFFFFFFFFFFFFFFFFFF09
:1057B000FFFFFFFFFFBEF779CE2B6B4E9CAEB46FA1
:1057C000CD4ECD8FD56FD5AFD5B0D5D0CD12DE5360
:1057D000E611DE70C5AC7B33ADFEFFDEFFFFFFFFE1
:1057E000FFFFFFFFFFFFFFFFFFFFFFFFFFFFFFFFC9
:1057F000FFFFFFFFFFFFFFFFFFFFFFFFFFFFFFFFB9
:10580000FFFFFFFFFFFFFFFFFFFFFFFFFFFFFFFFA8
:10581000FFFFFFFFFFFFFFFFFFFFF799C6CE7B32C1
:10582000ADD4CD76E618FFDBFF59FFBBFFDBFFBB36
:10583000FFDBFFFBFF58F796DE4B6B7094DEFFBD7E
:10584000F7FFFFDFFFFFFFFFFFFFFFFFFFFFFFFF90
:10585000FFFFFFFFFFFFFFFFFFFFFFFFFFFFFFFF58
:10586000FFFFFFFFFFFFFFFFFFFFFFFFFFFFFFFF48
:10587000FFFFFFFFFFFFFFFFFFFFFFFFFFFFF77AC5
:10588000BEEF73718C50948D8370A474C5F6D55897
:10589000D658D6D6BD94B5B4B552ADB0944B6B4F77
:1058A0008CFEFFBEF7FFFFDFFFFFFFFFFFFFFFFFE5
:1058B000FFFFFFFFFFFFFFFFFFFFFFFFFFFFFFFFF8
:1058C000FFFFFFFFFFFFFFFFFFFFFFFFFFFFFFFFE8
:1058D000FFFFFFFFFFFFFFFFFFFFFFFFFFFFFFFFD8
:1058E000FFFFF79AC6D39434A59194695ACB6A6D99
:1058F0007B3094729C518C8E734C63AD73EE7BCD78
:10590000738D73708CFFFFFFFFFFFFDFFFFFFFFF53
:10591000FFFFFFFFFFFFFFFFFFFFFFFFFFFFFFFF97
:10592000FFFFFFFFFFFFFFFFFFFFFFFFFFFFFFFF87
:10593000FFFFFFFFFFFFFFFFFFFFFFFFFFFFFFFF77
:10594000FFFFFFFFFFFFFFBEEFDBD696B591940F81
:10595000842F8C7094B5BD58D678D695B513A554C0
:10596000AD74AD34A5B6BDFBDEFFFFFFFFFFFFFF4B
:10597000FFFFFFBEF7FFFFFFFFFFFFFFFFFFFFFF80
:10598000FFFFFFFFFFFFFFFFFFFFFFFFFFFFFFFF27
:10599000FFFFFFFFFFFFFFFFFFFFFFFFFFFFFFFF17
:1059A000FFFFFFFFFFFFFFFFFFBEF7DFF7DFFFBED9
:1059B000F77DEF7CEF9DF7DDFFFAE67CF79CF73B88
:1059C000EF5CEFBDFFFEFFBEFF7DEFFFFFFFFFFFC0
:1059D000FFDFFFFFFFFFFFDFFFFFFFFFFFFFFFFF17
:1059E000FFFFFFFFFFFFFFFFFFFFFFFFFF000021A3
:1059F00000240027002A002D0030003300010100A0
:105A000000040107010A011F1C1F1E1F1E1F1F1E6D
:105A10001F1E1F005EBCE2613FDD83C29C7E20A38F
:105A2000FD1F419DC3217FFCA2401E5F01E3BD3EDF
:105A30006082DC237D9FC1421CFEA0E1BF5D03802C
:105A4000DE3C62BEE0025CDF81633D7C22C09E1DC5
:105A500043A1FF4618FAA427799BC584DA3866E586
:105A6000BB5907DB856739BAE406581947A5FB78A7
:105A700026C49A653BD987045AB8E6A7F91B45C6E0
:105A8000987A24F8A6441A99C7257B3A6486D85B8D
:105A900005E7B98CD2306EEDB3510F4E10F2AC2F3A
:105AA0007193CD114FADF3702ECC92D38D6F31B277
:105AB000EC0E50AFF1134DCE90722C6D33D18F0C94
:105AC00052B0EE326C8ED0530DEFB1F0AE4C12915D
:105AD000CF2D73CA947628ABF517490856B4EA69F6
