:100000000C944F550C9480550C9480550C9480554D
:100010000C9480550C9480550C9480550C9480550C
:100020000C9480550C9480550C9480550C948055FC
:100030000C9480550C945DE90C9480550C9480557B
:100040000C9480550C9480550C9480550C948055DC
:100050000C9480550C9480550C9480550C9442EA75
:100060000C9480550C948BE80C9462E80C948055A9
:100070000C9480550C9480550C9480550C948055AC
:100080000C9480550C9480550C9480550C9480559C
:100090000C9480550C9480550C9480550C94EFE290
:1000A0000C9480550C9480550C9480550C9480557C
:1000B0000C9480550C9480550C9480550C9480556C
:1000C0000C9480550C9480550C9480550C9480555C
:1000D0000C9480550C9480550C9480550C9480554C
:1000E0000C9480557E5A815A865A8E5A995A995A3A
:1000F000A75AA75AA75A73017101630163015701F7
:10010000710161014F014501710147016F01510109
:10011000510173016901710173016B0165014901AD
:100120005301670169015F014D015B014B015D01F5
:1001300055019881AE81C481DA81F08106821C82EA
:100140003282CE82FF82308361839283C383F483C1
:100150002584A2840A863C876C889C89CC8AFC8B87
:10016000218CFA8E108F268F3C8F528F688F7E8F56
:10017000C98FFA8F2B905C908D90BE90EF904E912E
:10018000629268936E9474957A9682975E99979925
:10019000C999FB992D9A5F9A919AC39AF59A279BD0
:1001A0008D9BBE9BEF9B209C519C829CB39CE49CAE
:1001B000159D469D8C9D9C9EA29FB3A0B9A1BFA2F8
:1001C000CEA3D5A3DCA3E3A3D0A6E6A6FCA612A7E4
:1001D00028A73EA754A79CA7CDA7FEA72FA860A835
:1001E00091A8C2A825A94CA973A99AA9C0A9E6A952
:1001F00008AA95ADB9ADD4ADEFAD0AAE25AE40AE0F
:100200005BAECAAFE5AF00B01BB036B051B06CB05A
:1002100087B0B4B0B7B0BAB0BDB0C0B0C3B0C6B0AC
:10022000C9B0FFE602E7F1E6F5E6FBE639E706E7E7
:100230000AE710E714E718E71EE722E726E739E7A1
:100240002CE730E734E7BDEF8EF0D4EFD4EFE9EFE1
:100250008EF0A4EF65F007F08EF015F015F032F097
:1002600032F0BDEF65F08EF0BDEF15F065F0D4EF24
:1002700040F065F065F065F065F065F055F065F00B
:1002800065F00D94D3320D949B460D94843A0D94F1
:100290000A3C0D94BE360D9464440D945E420D9458
:1002A0000C390D94263E0D94963F0D9480390D9493
:1002B000D2370D94D4320D9459430D9479440D9452
:1002C0002B410D94D73A0D9440360D94FC3E0D947D
:1002D00047400D94D2410D947C3D0D94AD460D9454
:1002E000D83C0D9430450D94733500407A10F35A84
:1002F00000A0724E18090010A5D4E80000E8764866
:10030000170000E40B54020000CA9A3B000000E111
:10031000F505000080969800000040420F000000A4
:10032000A08601000000102700000000E803000084
:1003300000006400000000000A000000000001004E
:10034000000000002C76D888DC674F0823DFC1DF6F
:10035000AE59E1B1B796E5E3E453C63AE651997672
:1003600096E8E6C28426EB898C9B62ED407C6FFCAC
:10037000EFBC9C9F40F2BAA56FA5F490055A2AF7EE
:100380005C936B6CF9676DC11BFCE0E40D47FEF5F7
:1003900020E6B500D0ED902E03009435770500805F
:1003A000841E080000204E0A000000C80C333333BE
:1003B000330F986E12831141EF8D2114893BE6555E
:1003C00016CFFEE6DB18D1844B381BF77C1D901D41
:1003D000A4BBE424203284725E228100C9F124ECA3
:1003E000A1E53D27FFFFFFFFFFFFFFFFFFFFFFFF2F
:1003F000FFFFFFFFFFFFFFFFFFFFFFFFFFFFFFFF0D
:1004000059D6108C6D732C6BAA5AAA5AAA5A8D7B96
:10041000CE8313ADFBE6FFFFFFFFFFFFFFFFFFFFF4
:10042000FFFFFFFFFFFFFFFFFFFFFFFFFFFFFFFFDC
:10043000FFFFFFFFFFFFFFFFFFFFFFFFFFFFFFFFCC
:10044000FFFFFFFFFFFFFFFFFFFFFFFFFFFFFFFFBC
:10045000FFFFFFFFFFFFFFFFFFFFFFFFFFFFFFFFAC
:10046000FFFFFFFFEF834852308C8E7BC32062106A
:10047000A2184852AA62074A518CFFFFDFFFFFFF14
:10048000FFFFFFFFFFFFFFFFFFFFFFFFFFFFFFFF7C
:10049000FFFFFFFFFFFFFFFFFFFFFFFFFFFFFFFF6C
:1004A000FFFFFFFFFFFFFFFFFFFFFFFFFFFFFFFF5C
:1004B000FFFFFFFFFFFFFFFFFFFFFFFFFFFFFFFF4C
:1004C000FFFFFFFFFFFFFFFFAE7B29525194108C0F
:1004D00082100000410829528A5AC6411084FFFF49
:1004E000FFFFFFFFFFFFFFFFFFFFFFFFFFFFFFFF1C
:1004F000FFFFFFFFFFFFFFFFFFFFFFFFFFFFFFFF0C
:10050000FFFFFFFFFFFFFFFFFFFFFFFFFFFFFFFFFB
:10051000FFFFFFFFFFFFFFFFFFFFFFFFFFFFFFFFEB
:10052000FFFFFFFFFFFFFFFFDFFFFFFF8E7B695233
:100530007194108CA218000082106952CA62C741DF
:10054000108CFFFFDFFFFFFFFFFFFFFFFFFFFFFF3D
:10055000FFFFFFFFFFFFFFFFFFFFFFFFFFFFFFFFAB
:10056000FFFFFFFFFFFFFFFFFFFFFFFFFFFFFFFF9B
:10057000FFFFFFFFFFFFFFFFFFFFFFFFFFFFFFFF8B
:10058000FFFFFFFFFFFFFFFFFFFFFFFFFFFFDFFF9B
:100590002C6B295251940C632108000061106952A0
:1005A0000B6BC641AE7BDEFFFFFFFFFFFFFFFFFFD0
:1005B000FFFFFFFFFFFFFFFFFFFFFFFFFFFFFFFF4B
:1005C000FFFFFFFFFFFFFFFFFFFFFFFFFFFFFFFF3B
:1005D000FFFFFFFFFFFFFFFFFFFFFFFFFFFFFFFF2B
:1005E000FFFFFFFFFFFFFFFFFFFFFFFFFFFFFFFF1B
:1005F000B6BDEB62284A084A2C6BE7414108210846
:1006000041084529C739A63949528D73B6BDFFFF48
:10061000FFFFFFFFFFFFFFFFFFFFFFFFFFFFFFFFEA
:10062000FFFFFFFFFFFFFFFFFFFFFFFFFFFFFFFFDA
:10063000FFFFFFFFFFFFFFFFFFFFFFFFFFFFFFFFCA
:10064000FFFFFFFFFFFFFFFFFFFFFFFFFFFFFFFFBA
:10065000DFFFFFFF308C2429E7414852AA5A0421CA
:1006600021084108210800004108A639C641084A6E
:10067000D39CFFFFDFFFFFFFFFFFFFFFFFFFFFFF39
:10068000FFFFFFFFFFFFFFFFFFFFFFFFFFFFFFFF7A
:10069000FFFFFFFFFFFFFFFFFFFFFFFFFFFFFFFF6A
:1006A000FFFFFFFFFFFFFFFFFFFFFFFFFFFFFFFF5A
:1006B000FFFFFFFFDFFFFFFF92948539C7412852FC
:1006C000AA5A042100002108410821088210A639F5
:1006D000C6414952F3A4FFFFDFFFFFFFFFFFFFFF0B
:1006E000FFFFFFFFFFFFFFFFFFFFFFFFFFFFFFFF1A
:1006F000FFFFFFFFFFFFFFFFFFFFFFFFFFFFFFFF0A
:10070000FFFFFFFFFFFFFFFFFFFFFFFFFFFFFFFFF9
:10071000FFFFFFFFFFFFFFFFDFFFFFFF508C4531B3
:10072000E7414852AA5A042121082108210821083A
:100730006210A639E741084AB29CFFFFDFFFFFFFC6
:10074000FFFFFFFFFFFFFFFFFFFFFFFFFFFFFFFFB9
:10075000FFFFFFFFFFFFFFFFFFFFFFFFFFFFFFFFA9
:10076000FFFFFFFFFFFFFFFFFFFFFFFFFFFFFFFF99
:10077000FFFFFFFFFFFFFFFFFFFFFFFFFFFFFFFF89
:1007800018C6E7416539C749E751A3280010001092
:1007900000100010201825398641CA6238CEFFFFAC
:1007A000FFFFFFFFFFFFFFFFFFFFFFFFFFFFFFFF59
:1007B000FFFFFFFFFFFFFFFFFFFFFFFFFFFFFFFF49
:1007C000FFFFFFFFFFFFFFFFFFFFFFFFFFFFFFFF39
:1007D000FFFFFFFFFFFFFFFFFFFFFFFFFFFFFFFF29
:1007E000FFFFDFFFFFFFB2A465496651255983482B
:1007F00041388348A348E45004596661C759D7CDAE
:10080000FFFFDFFFFFFFFFFFFFFFFFFFFFFFFFFF18
:10081000FFFFFFFFFFFFFFFFFFFFFFFFFFFFFFFFE8
:10082000FFFFFFFFFFFFFFFFFFFFFFFFFFFFFFFFD8
:10083000FFFFFFFFFFFFFFFFFFFFFFFFFFFFFFFFC8
:10084000FFFFFFFFFFFFFFFFDFFFBEFF38EE6EABD6
:10085000EDAAA8894681678966898789E8914992C6
:1008600076DD9EFFBFFFFFFFFFFFFFFFFFFFFFFFE4
:10087000FFFFFFFFFFFFFFFFFFFFFFFFFFFFFFFF88
:10088000FFFFFFFFFFFFFFFFFFFFFFFFFFFFFFFF78
:10089000FFFFFFFFFFFFFFFFFFFFFFFFFFFFFFFF68
:1008A000FFFFFFFFFFFFFFFFFFFFFFFFDFFFDFFF98
:1008B000F8F54EC38FDB09BA87A988A987A94ABA78
:1008C0008BC2ECB2DBFEBFFFDFFFFFFFFFFFFFFFCE
:1008D000FFFFFFFFFFFFFFFFFFFFFFFFFFFFFFFF28
:1008E000FFFFFFFFFFFFFFFFFFFFFFFFFFFFFFFF18
:1008F000FFFFFFFFFFFFFFFFFFFFFFFFFFFFFFFF08
:10090000FFFFFFFFFFFFFFFFFFFFFFFFFFFFFFFFF7
:10091000DFFF9EFF72D44ED3CCD20ACAC9C1C9C16F
:10092000E9C14ACA4AC22AAA51CC79FE3CFF7EFFDD
:10093000DFFFDFFFDFFFDFFFFFFFFFFFFFFFFFFF47
:10094000FFFFFFFFFFFFFFFFFFFFFFFFFFFFFFFFB7
:10095000FFFFFFFFFFFFFFFFFFFFFFFFFFFFFFFFA7
:10096000FFFFFFFFFFFFFFFFFFFFFFFFFFFFDFFFB7
:10097000DFFF5DFFFCFE59FE11DCCCCA4AC22ACA69
:100980002ACA4ACACCDA6BCA09C209BAABBAAFCB17
:1009900072D4D3D492CCB3CC55DD18E63CF7FFFF2C
:1009A000FFFFFFFFFFFFFFFFFFFFFFFFFFFFFFFF57
:1009B000FFFFFFFFFFFFFFFFFFFFFFFFFFFFFFFF47
:1009C000FFFFFFFFFFFFFFFFFFFFFFFFFFFFFFFF37
:1009D000FFFFDFFF9AF672BC31C431D48FD3CCC293
:1009E0008BC28BC2ABCAECDA6BCA09C209C209C29C
:1009F0004AC2ACC26ED351E4B3EC51D431CCF0B3A3
:100A000096DD9EFFDEFFDFFFDFFFFFFFDFFFFFFF63
:100A1000FFFFFFFFFFFFFFFFFFFFFFFFFFFFFFFFE6
:100A2000FFFFFFFFFFFFFFFFFFFFFFFFFFFFFFFFD6
:100A3000FFFFDFFFFFFFDFFF35D5AFBBF0D38FCB6D
:100A40006ED30DC3D0D3F0DB0CCB09BA2AC22ACAAD
:100A50002ACA2ACA2AC24AC24ABAABC28FD372EC85
:100A6000B3F4D4ECB3DCB3D455E5F7ED9AFE7DFFD7
:100A7000DFFFDFFFFFFFFFFFFFFFFFFFFFFFFFFFC6
:100A8000FFFFFFFFFFFFFFFFFFFFFFFFFFFFFFFF76
:100A9000FFFFFFFFFFFFFFFFDEFF7DFFF4CCF0BB9A
:100AA0008EBB4DB3ECB2ABA2F0C3AB9A29A229B274
:100AB000ECD2ACCAABCA8BCA8BCA8BCA8BCAACCAC3
:100AC000CCCA4ED36ED34EC3AFC331CC31C451BCAC
:100AD00051BCD3C438E69EFFDFFFFFFFFFFFFFFFDF
:100AE000FFFFFFFFFFFFFFFFFFFFFFFFFFFFFFFF16
:100AF000FFFFFFFFFFFFFFFFF3A46D73108C519406
:100B0000B2AC51AC496A086A29720872087A6A92D2
:100B1000C8896AA2CBB2ECBA0DC32DCB0DD3ECD2EF
:100B2000ECD2EDD20DD3ECCA2DCBCFCB6DABCB8AB3
:100B30006A7A6972AB822D93CFAB34D55DFFFFFF2C
:100B4000FFFFFFFFFFFFFFFFFFFFFFFFFFFFFFFFB5
:100B5000FFFFFFFFFFFFFFFFFFFFFFFF8D73C74199
:100B6000284A2852695ACB6A0C6B8A620852C751CC
:100B7000865166598669A771E879C779E8814A92F2
:100B8000ECBA0DCB0DD30DDBCCCA2DCB2DB3E87950
:100B9000A661C759E759696AC7598659E8710C9324
:100BA000D3C45DFFDFFFFFFFFFFFFFFFFFFFFFFF7E
:100BB000FFFFFFFFFFFFFFFFFFFFFFFFFFFFFFFF45
:100BC000CE7B284A695A4852084A084A084AC7410F
:100BD000A641E749285A085249622862CB72CB7A6B
:100BE0008A72287249928BB28BC28BBA0DC3CBA288
:100BF0006659E7594C832C7B4C7BD2AC8962AA6A3C
:100C000048620862EB8A55D5BFFFDFFFFFFFFFFF99
:100C1000FFFFFFFFFFFFFFFFFFFFFFFFFFFFFFFFE4
:100C2000FFFFFFFFCE7BE7414952284A2852284A5E
:100C30004531C741A218084A48528639C741A639EA
:100C4000A639A641A64145496A928ECBECC22DCB6E
:100C5000ABA245598649485A4C7B2C7389620C7368
:100C6000074A0B6B0B73EB72A6614D939AEEDFFF95
:100C7000DFFFFFFFFFFFFFFFFFFFFFFFFFFFFFFFA4
:100C8000FFFFFFFFFFFFFFFFCE83E7414852284AE7
:100C9000695203212429653145316952E7414531C3
:100CA000863986398639A639A7416549098A4DC3EF
:100CB0000DC3ECB26661A651A64128520B6BEB6ADC
:100CC000695AEB6AC6414852895AEB726549086213
:100CD000F3BCBEFFDFFFFFFFFFFFFFFFFFFFFFFFD4
:100CE000FFFFFFFFFFFFFFFFFFFFFFFFCF83C741B6
:100CF0004852284A4952853141084108C31886396B
:100D000008424529863186318631A6398639254102
:100D1000E8790DBB0DBBE8814549C749A639895A19
:100D20008A5A8639084A2852A639A641895A485211
:100D3000C749A6514D931CFFDFFFFFFFFFFFFFFFD9
:100D4000FFFFFFFFFFFFFFFFFFFFFFFFDFFFFFFFD3
:100D5000CF7BC6412852084A6952695224290000B3
:100D60000000E320E741442965316531653186396A
:100D700085392541C7794DBBCBA24561E759653916
:100D8000AA5A4952E749C7410429E7412C73C64191
:100D9000695A285289624962297239EEDFFFDFFF02
:100DA000FFFFFFFFFFFFFFFFFFFFFFFFFFFFFFFF53
:100DB000DFFFFFFFCF7BA639284A074A6952284A3E
:100DC000452900000000C318284A442965316531CF
:100DD000653165318639244186716EB3087A49726E
:100DE0008D8B6952485228526539A64151946D7BCA
:100DF000C741AA62C741695A695A0C7BE76176D537
:100E0000DFFFFFFFFFFFFFFFFFFFFFFFFFFFFFFF12
:100E1000FFFFFFFFFFFFFFFFCF83A639284A074AE6
:100E200028526952042100000000C31808424529D5
:100E300065316531653145316531043986692DABE0
:100E40000872AA72509C2C73895A2852653138D680
:100E5000BEFFD6C58D7BA641C74185392852EB72AE
:100E6000C761F4C4DFFFFFFFFFFFFFFFFFFFFFFFCE
:100E7000FFFFFFFFFFFFFFFFDFFFFFFFCF83A6396D
:100E8000284A084A084AE741863100000000E3206A
:100E9000C741452945294529452944294531043972
:100EA00066690CA328724862EE8BCA620B6B8639A6
:100EB000EB627DF7B6C5D2A458D66539C741CB627F
:100EC000AA622C7BC761D3C4DFFFFFFFFFFFFFFFD8
:100ED000FFFFFFFFFFFFFFFFFFFFFFFFDFFFFFFF42
:100EE000CF838639084A084AA639AE7BE741A21863
:100EF00000004429C7414529452945292429242999
:100F0000242904396661EC9A076A2C7B13B5895A47
:100F10002C73A641B2A4FBEEB2A438D658D6C64173
:100F2000C741CA6289620C7BA76114C5DFFFDFFF7E
:100F3000FFFFFFFFFFFFFFFFFFFFFFFFFFFFFFFFC1
:100F4000DFFFFFFFCF838639084A074AE741B6BD76
:100F5000484A6531A218E741284A452945294529CB
:100F6000242924292429E3306561EB9A286ACE9349
:100F700033B5AA62CA628539F3ACBAE696BDDBEE38
:100F800014AD6539C6416539485A0C7BE86196D580
:100F9000DFFFFFFFFFFFFFFFFFFFFFFFFFFFFFFF81
:100FA000FFFFFFFFDFFFFFFFCF838639084AE749D6
:100FB000084A4852284AE741074A084A084A453140
:100FC00045294529452924292429C33065610C9BDD
:100FD000086ACE93D2ACEA6A695AC741284A55B525
:100FE000BAE618D649528539C741A641495ACB724B
:100FF00049727AEEFFFFFFFFFFFFFFFFFFFFFFFFDA
:10100000FFFFFFFFFFFFFFFFDFFFFFFFEF838639DB
:10101000074AE749084AE849E741E741C741E7414C
:10102000C741453145294529442924292531E33043
:1010300045612DA3E769EB7A91A42B736952695A34
:101040002431E7412C6BE7498639084A49528641E9
:10105000495AC7512D8B5DFFDFFFFFFFFFFFFFFFE9
:10106000FFFFFFFFFFFFFFFFFFFFFFFFFFFFFFFF90
:1010700010848639E749E749084AE849E741E741EA
:10108000C741A639A63945314529242924292429CF
:101090004431C33045614DABE871286A4C7B6952DD
:1010A000695A695A8639A64145314852695A695286
:1010B000895AA6418649A651F4BCDFFFDFFFFFFF36
:1010C000FFFFFFFFFFFFFFFFFFFFFFFFFFFFFFFF30
:1010D000DFFFFFFF10848639E749E741E741084A0F
:1010E000E741E741C741C641A63945294529242999
:1010F000242904292429C33045690DB38A9225592E
:10110000E7598539084AE7498639A641A641AA62C6
:10111000CB62CB628A62A6496549CB7ADBEEDFFF00
:10112000DFFFFFFFFFFFFFFFFFFFFFFFFFFFFFFFEF
:10113000FFFFFFFFFFFFFFFF308CA639084AE741A2
:10114000074A074AE741C741C641A63986394529BA
:1011500025292529242924292431C33866690CB37B
:10116000ECB286794449C74986418639084A085213
:1011700086418A5A8A5A074A485A8649C76114C51D
:10118000DFFFDFFFFFFFFFFFFFFFFFFFFFFFFFFFAF
:10119000FFFFFFFFFFFFFFFFDFFFFFFF308CC641B8
:1011A000284A074A084A074AE741C641A641C641BC
:1011B000A639452925292429242904292429E33865
:1011C0008671ECB2ACBAABAA65618651A649E74913
:1011D0000C73EB6AE7492852CB6A285A085AA65181
:1011E000F0A35DFFDFFFFFFFFFFFFFFFFFFFFFFF3C
:1011F000FFFFFFFFFFFFFFFFFFFFFFFFDFFFFFFF1F
:10120000108C6531284A084A284A084AE741C741F4
:10121000C641C741A639242945294529242904293D
:1012200024290439A771ECAA8BB2CCBA8AA24561F1
:101230002549E751CB6A695AC749C649A65145496C
:1012400086618E9BFBF6DFFFDFFFFFFFFFFFFFFFE7
:10125000FFFFFFFFFFFFFFFFFFFFFFFFFFFFFFFF9E
:10126000FFFFFFFF18C60B636952C641C641C64166
:10127000C741C741C641A63986394529252945298F
:10128000042904314539E438E871E8814571E88979
:101290008BA2CB9A0872665145492441454945497C
:1012A000A6594972F0ABFBFEDFFFDFFFFFFFFFFF38
:1012B000FFFFFFFFFFFFFFFFFFFFFFFFFFFFFFFF3E
:1012C000FFFFFFFFFFFFFFFFFFFFFFFF1CE7F7C56B
:1012D00092944C6B484AE741C741C641863945293B
:1012E00045290429043124392441C338CB8279F6B5
:1012F00055D572B4CFABEC9AAB928A922982087A18
:10130000087A8A826E9B55CD7EFFDFFFDFFFFFFFED
:10131000FFFFFFFFFFFFFFFFFFFFFFFFFFFFFFFFDD
:10132000FFFFFFFFFFFFFFFFFFFFFFFFFFFFFFFFCD
:10133000FFFFFFFFFFFFFFFFFBE66952A639A6395B
:10134000653145314531C741864986496651C7599E
:10135000CB72DBF6DFFFDFFFBEFFBBFE55DDF0BB70
:10136000AFABF0B3B3CCD7E51CFFDFFFFFFFDFFF70
:10137000FFFFFFFFFFFFFFFFFFFFFFFFFFFFFFFF7D
:10138000FFFFFFFFFFFFFFFFFFFFFFFFFFFFFFFF6D
:10139000FFFFFFFFFFFFDFFFDFFFFFFFB6BDC63927
:1013A000A6394529242904292429084AC328A22822
:1013B000E438E338E330519CDFFFBEFFDFFFDFFF9F
:1013C000DFFFDFFFBFFFBFFFDFFFDFFFDFFFDFFF6D
:1013D000FFFFFFFFFFFFFFFFFFFFFFFFFFFFFFFF1D
:1013E000FFFFFFFFFFFFFFFFFFFFFFFFFFFFFFFF0D
:1013F000FFFFFFFFFFFFFFFFFFFFFFFFDFFFFFFF1D
:10140000B29C653107428631242904294531C74100
:10141000001061188220A228A2204C73FFFFDFFF7A
:10142000FFFFFFFFDFFFFFFFFFFFFFFFFFFFFFFFEC
:10143000FFFFFFFFFFFFFFFFFFFFFFFFFFFFFFFFBC
:10144000FFFFFFFFFFFFFFFFFFFFFFFFFFFFFFFFAC
:10145000FFFFFFFFFFFFFFFFFFFFFFFFFFFFFFFF9C
:10146000DFFFFFFFD39C6531E74186312429242922
:101470006531084AE3200329E3280429E3206D733A
:10148000FFFFFFFFFFFFFFFFFFFFFFFFFFFFFFFF6C
:10149000FFFFFFFFFFFFFFFFFFFFFFFFFFFFFFFF5C
:1014A000FFFFFFFFFFFFFFFFFFFFFFFFFFFFFFFF4C
:1014B000FFFFFFFFFFFFFFFFFFFFFFFFFFFFFFFF3C
:1014C000FFFFFFFFFFFFFFFFB29C6531E741863161
:1014D000452924296531E741C320E320E320E320A7
:1014E000E3206D73FFFFFFFFFFFFFFFFFFFFFFFF25
:1014F000FFFFFFFFFFFFFFFFFFFFFFFFFFFFFFFFFC
:10150000FFFFFFFFFFFFFFFFFFFFFFFFFFFFFFFFEB
:10151000FFFFFFFFFFFFFFFFFFFFFFFFFFFFFFFFDB
:10152000FFFFFFFFFFFFFFFFDFFFFFFF13A5C31854
:1015300085316531442965312529E320C320E32025
:10154000E320E320C218CE7BFFFFFFFFFFFFFFFF7A
:10155000FFFFFFFFFFFFFFFFFFFFFFFFFFFFFFFF9B
:10156000FFFFFFFFFFFFFFFFFFFFFFFFFFFFFFFF8B
:10157000FFFFFFFFFFFFFFFFFFFFFFFFFFFFFFFF7B
:10158000FFFFFFFFFFFFFFFFFFFFFFFFFFFFFFFF6B
:101590009EF714A56531A639452904218218C31880
:1015A000C318E32003294531D29C7DF7DFFFFFFFFD
:1015B000FFFFFFFFFFFFFFFFFFFFFFFFFFFFFFFF3B
:1015C000FFFFFFFFFFFFFFFFFFFFFFFFFFFFFFFF2B
:1015D000FFFFFFFFFFFFFFFFFFFFFFFFFFFFFFFF1B
:1015E000FFFFFFFFFFFFFFFFFFFFFFFFFFFFFFFF0B
:1015F000FFFFFFFFFFFF1BE7695286394529E32004
:10160000E320C320A218E3200429C641DBDEFFFF4C
:10161000DFFFFFFFFFFFFFFFFFFFFFFFFFFFFFFFFA
:10162000FFFFFFFFFFFFFFFFFFFFFFFFFFFFFFFFCA
:10163000FFFFFFFFFFFFFFFFFFFFFFFFFFFFFFFFBA
:10164000FFFFFFFFFFFFFFFFFFFFFFFFFFFFFFFFAA
:10165000FFFFFFFFFFFFDFFFFFFF79D6C6394531F0
:1016600045290421E320C320C318C320E3204431CB
:1016700079D6FFFFDFFFFFFFFFFFFFFFFFFFFFFF49
:10168000FFFFFFFFFFFFFFFFFFFFFFFFFFFFFFFF6A
:10169000FFFFFFFFFFFFFFFFFFFFFFFFFFFFFFFF5A
:1016A000FFFFFFFFFFFFFFFFFFFFFFFFFFFFFFFF4A
:1016B000FFFFFFFFFFFFFFFFFFFFFFFFFFFFFBDE5F
:1016C000494A4429A218A218A21882188218611047
:1016D0004110E7413CE7FFFFFFFFFFFFFFFFFFFF78
:1016E000FFFFFFFFFFFFFFFFFFFFFFFFFFFFFFFF0A
:1016F000FFFFFFFFFFFFFFFFFFFFFFFFFFFFFFFFFA
:10170000FFFFFFFFFFFFFFFFFFFFFFFFFFFFFFFFE9
:10171000FFFFFFFFFFFFFFFFFFFFFFFFFFFFFFFFD9
:10172000FFFFFFFFFFFF1CE7B6BDEF832C6BCB6213
:101730004D73D3A479D6DFFFFFFFFFFFFFFFFFFF4D
:10174000FFFFFFFFFFFFFFFFFFFFFFFFFFFFFFFFA9
:10175000FFFFFFFFFFFFFFFFFFFFFFFFFFFFFFFF99
:10176000FFFFFFFFFFFFFFFFFFFFFFFFFFFFFFFF89
:10177000FFFFFFFFFFFFFFFFFFFFFFFFBFF7FFFFC1
:10178000FFFFFFFFFFFFFFFFFFFFFFFFFFFFBDFFAB
:101790009DF7FFFFDEFF9DF7FFFFDADEFBE6BADE17
:1017A0007DF7FFFF9DFFDEFFDEFF5CF7FFFFFFFF22
:1017B000DFFFDFFF9FF7FFFFBFF7FFFFFFFFFFFF29
:1017C000FFFFFFFFFFFFFFFFFFFFFFFFFFFFFFFF29
:1017D000FFFFFFFFFFFFFFFFFFFFFFFFFFFFFFFF19
:1017E000FFFFFFFFDFF7FFFFFFFFDFFFDFFFFFFF71
:1017F000DEFFFFFFFFFF1BE717C6B6B5D7BD75AD10
:1018000055ADB6BD54ADD3A475B599DE9DFFFFFFB0
:10181000DFFFFFFFDFFFFFFFFFFFFFFFBFF7DFFF80
:10182000FFFFFFFFFFFFFFFFFFFFFFFFFFFFFFFFC8
:10183000FFFFFFFFFFFFFFFFFFFFFFFFFFFFFFFFB8
:10184000FFFFFFFFFFFFDFF7DFF7FFFFFFFFFFFFF8
:10185000FFFFFFFFFFFF7CEF78CEB6B538C6FBDE9B
:101860003CE7DFFFDFFFDFFF7DEF7DF7BADEB29CF5
:10187000D2A49EFF9DF7FFFFFFFFDFFFDFFF9EF774
:10188000BFFFFFFFFFFFFFFFFFFFFFFFFFFFFFFFA8
:10189000FFFFFFFFFFFFFFFFFFFFFFFFFFFFFFFF58
:1018A000FFFFFFFFFFFFFFFFFFFFDFF7FFFFFFFF70
:1018B000FFFFFFFFFFFFDEFFFEFFF7BD38C63CE77F
:1018C000FFFFFFFFFFFFFFFFDFF7FFFFFFFFDFFF70
:1018D000FFFF1BE775B5919CFFFFFFFF9DF73CEFF6
:1018E000FFFFFFFFFFFFBFF7FFFFFFFFFFFFFFFF50
:1018F000FFFFFFFFFFFFFFFFFFFFFFFFFFFFFFFFF8
:10190000FFFFFFFFFFFFFFFFFFFFFFFFFFFFFFFFE7
:10191000FFFFFFFFDFFFFFFFFFFFBEFFDADE95B532
:101920007DEFFFFFFFFFBFF79EEFFFFFFFFFFFFF12
:10193000DFFFBEF7FFFFFFFF9EF713A599D6FEFF5F
:10194000FEFFFFFFFFFFFFFFFFFFBFFFFFFFFFFFE8
:10195000FFFFFFFFFFFFFFFFFFFFFFFFFFFFFFFF97
:10196000FFFFFFFFFFFFFFFFFFFFFFFFFFFFFFFF87
:10197000FFFFFFFFFFFFDFFFFFFFDFFFDEFFFFFFD8
:1019800038CE99D6FFFFFFFF5CE7BEF7FFFFFFFFF2
:10199000FFFF9EEFFFFFFFFF5DEF7DF7BEFFDADE8B
:1019A00074B57BEF5BEFFEFF9DF7BDF7FFFFFFFF19
:1019B000FFFFFFFFFFFFFFFFFFFFFFFFFFFFFFFF37
:1019C000FFFFFFFFFFFFFFFFFFFFFFFFFFFFFFFF27
:1019D000FFFFFFFFDFFFFFFFDFFFDFFFFFFFFBE694
:1019E00079D6DEFF95BD7CF7DEFFDEFFFFFFFFFF50
:1019F000FFFF7DEFBEF7FFFFFFFFDEFFFFFFFFFFF3
:101A0000DEFF78D694BDB4BD2E843AE7FEFFFEFF1C
:101A1000FEFF9DF7FFFFFFFFFFFFFFFFFFFFFFFF41
:101A2000FFFFFFFFFFFFFFFFFFFFFFFFFFFFFFFFC6
:101A3000FFFFFFFFFFFFFFFFFFFFFFFFBEFFFFFFF7
:101A4000FFFF95BD308C17CE909CD9E6F5C516C624
:101A5000DEFFBDFF9DF7FFFFFFFFFFFFDEFFFFFF84
:101A60003BEF4F94895A6C7BED83AF9CCC83FDFF99
:101A7000FEFFDEFF5CEFFFFFFFFFFFFFFFFFFFFF4B
:101A8000FFFFFFFFFFFFFFFFFFFFFFFFFFFFFFFF66
:101A9000FFFFFFFFFFFFFFFFFFFFFFFFDFFFFFFF76
:101AA000BEF7FFFFFFFF9DFF0B6B13AD12B54A7B27
:101AB0006B7B2A738C7BD9E6FEFFFAE678DE57D67D
:101AC000DEFF9DFFEE8BC541C96A8C83CC83B3BD1D
:101AD00097DEF1A4B8DEFEFFBDFFFFFFFFFFFFFFB3
:101AE000FFFFFFFFFFFFFFFFFFFFFFFFFFFFFFFF06
:101AF000FFFFFFFFFFFFFFFFFFFFFFFFFFFFFFFFF6
:101B0000FFFFFFFFBEFFDEFF9DFFFAE6AD836C7BAC
:101B100093C5D4CD2D948FA42A730A6B1AEF3BF78B
:101B200033B5B4C557D64F9CA441E551EA72C96A92
:101B30006E94D3C5FDFFCD830A6B78D6BDFFFFFF42
:101B4000FFFFFFFFFFFFFFFFFFFFFFFFFFFFFFFFA5
:101B5000FFFFFFFFFFFFFFFFFFFFFFFFFFFFFFFF95
:101B6000FFFFFFFFFFFF7DEFDEFFFFFF95BDC962B7
:101B700048524B7B15D6FCFF52BD6EA4E96A665AEB
:101B800077DEF9EE5BFF7BFFDDFF73BD265202318E
:101B9000E230E5492D94FCFF7BFF4B73A95A8D7B06
:101BA0009DF7BDF7FFFFFFFFFFFFFFFFFFFFFFFFF9
:101BB000FFFFFFFFFFFFFFFFFFFFFFFFFFFFFFFF35
:101BC000FFFFFFFFFFFFFFFFFFFFBEFFDEFF34ADA4
:101BD000EB6A4752A962475A2D9C7AFFD8EEAC8B2C
:101BE0002A736F9C32B5F1AC909CCD8312ADB5C514
:101BF00073BDCD8B8441E54922318B7BF1ACE96A21
:101C00008C7B4B73F6C5FFFFFFFFFFFFFFFFFFFF5E
:101C1000FFFFFFFFFFFFFFFFFFFFFFFFFFFFFFFFD4
:101C2000FFFFFFFFFFFFFFFFFFFFFFFFFFFFFFFFC4
:101C3000BEFFEA62064A2B730A6BA862A86A76DEC8
:101C4000FDFF93BD32B536CED1A4D1A4D1A40F8C63
:101C50008D7BEA624C738C7B685A685AA4410008F9
:101C6000401823312752895A38CEBEFFFFFFFFFFAD
:101C7000FFFFFFFFFFFFFFFFFFFFFFFFFFFFFFFF74
:101C8000FFFFFFFFFFFFFFFFFFFFFFFFFFFFFFFF64
:101C9000FFFF9DF73CEF895AC641A962E649A96258
:101CA000C549AC83D0A412AD33AD909C2F8C13A545
:101CB000B19495B5B5B533ADD29C71942F8CEE83AC
:101CC0000A73A96203310752485248521CEFFFFFC2
:101CD000DFFFFFFFFFFFFFFFFFFFFFFFFFFFFFFF34
:101CE000FFFFFFFFFFFFFFFFFFFFFFFFFFFFFFFF04
:101CF000FFFFFFFFDFFFFFFF1BEFEA62C541EA6A5C
:101D0000475A84412A732A6B2A6BB19C74B533A558
:101D1000D6BD58CEBAD658C655A558C6DBDE38C68D
:101D200059CE95BD74BD2F942C73CA6A14B5FFFFAC
:101D30003DF77DF7DFFFFFFFFFFFFFFFFFFFFFFF27
:101D4000FFFFFFFFFFFFFFFFFFFFFFFFFFFFFFFFA3
:101D5000FFFFFFFFFFFFFFFFDEFFFFFFFEFFF6C5F8
:101D6000A9626439C96A4F940E8CEE83D19C74AD1C
:101D7000D6BDFADE3CE7FBDEBAD6DBD676AD7ACE50
:101D8000BACE18BE3CE738C617CE38D614AD0F8C85
:101D90008A5A96BDFFFFDFFFFFFFFFFFFFFFFFFF38
:101DA000FFFFFFFFFFFFFFFFFFFFFFFFFFFFFFFF43
:101DB000FFFFFFFFFFFFDFFFDFFFFFFFDEFFDDFFB6
:101DC000FDFF93BDA862CD83B4C5F2AC4C6BB6B534
:101DD00075B579D6FBDE38C63CE71CDFFCDE18BEE5
:101DE000B7AD5284FCD61DDFDCD61DDFD49CF59C3C
:101DF000DCDE76ADB3940C63139DFFFFDFFFBEF70F
:101E0000FFFFFFFFBEF7FFFFDFF7FFFFFFFFFFFF53
:101E1000FFFFFFFFFFFFFFFFFFFFFFFFFFFFFFFFD2
:101E2000FEFFFDFF15CECC834E9497DE16D68D7B3C
:101E30007194B6B5DBDE96B5D7BDFFFFDBDE5DE79F
:101E40007EEF117CF59C359D19BEBCCE5EE7B8AD2A
:101E50009CCE3AC6D8B51DDF35A551848E6B38BEF1
:101E6000FFFFFFFFFFFFFFFFDFFFFFFFBFF7FFFFEA
:101E7000FFFFFFFFFEFFFFFFFFFFFFFFFFFFFFFF73
:101E8000FFFFFEFFDDFF7BEFD09C8B73F5C57BF77B
:101E9000B4C5CE83B6BDDADE3CE7BAD6F8BDDBD634
:101EA00018C6DBD6DFF7159DB494117CB8AD3EDFC4
:101EB000DDD6906B3AC6FDD6DDD67AC69ACE76AD23
:101EC000928C4D631BDFFFFFFFFFFFFFFFFFFFFF54
:101ED000BFF7FFFFFFFFFFFFFFFFFFFFFFFFDFFF7A
:101EE000DFFFDFFFDFFFDEFF7CF794BDED8331AD69
:101EF000F9E6F5CD909C54B538CEBAD69AD6FFFF08
:101F000018BE3184928C9BD63DE75AC6B7ADB38CD0
:101F10009BCEFFF71DDF5284F594BFEF3EDFFDDE61
:101F200039C6DBD675AD0C5BF39CDEF7FFFFDFF740
:101F3000FFFFDFFFDFFFFFFFFFFFFFFFFEFFFFFFF2
:101F4000FFFFDFFFBFF7DFFFFFFFFFFFFAE66B7367
:101F50006B7397DED9E6909C709458CE3CE79AD686
:101F60005DEFFFFF18C6D394928CFCDE5EE7DCD6F3
:101F70001DDF1DDF5EE7FDDEFDDE19BE3ABE5FE759
:101F8000FDDE1DDFBBD6D7B596ADD3940C5B79CE05
:101F9000FFFFFFFFFFFFFFFFFFFFFFFFFFFFFFFF51
:101FA000FEFFFFFFFFFFFFFFDFFFFFFFFFFFFFFF62
:101FB000F2A467524E9419EF52B5AD7B33AD99DE62
:101FC000BAD67DEF3DE7FCDE39C676AD55A5F07398
:101FD000F8BD5EE73AC697ADDCD6DCD69BCEFDD623
:101FE0007FE7DCD6DCD6359D9BCEF49C39C6F7B5B1
:101FF0000C5BF39CFFFFFFFFDFFFFFFFFFFFDFFF37
:10200000FFFFFFFFFFFFFFFFFFFFFFFFFFFFFFFFE0
:10201000BEFF3CEFC962A85AB4BDB8DE8C738C73A6
:1020200017CE58CE1CE7DFF71CDFDBD67EEFFCDED9
:102030007EEFF0738B4A9BCE369D117C9BCE9FEF3B
:102040001DDF9FEFDCD67FEF19BEB3945284DBD641
:102050007ACE59C6928C4D633CE7FFFFDEF7FFFF57
:10206000FFFFDFFFFFFFFFFFFFFFFFFFFFFFDFFFC0
:10207000FFFFFFFF5DF778D6274A2A6B15C6F5C527
:10208000E962EE8358D696B579CE317C76AD72840E
:1020900059C67EEF1DDF59C6872976A5DCD6FCD64A
:1020A000DCD6DCD61DDFBCD69BCE7EE7DCD65284E8
:1020B000728C1DDF1CDF7ACEF8BD494239C6FFFFA6
:1020C000BEF7FFFFFFFFFFFFFFFFFFFFFFFFDEF792
:1020D000FFFFFFFFFFFFFFFFFFFF919C84396F941D
:1020E000D8DE2E8C474AD19C99D61CE79ACE107424
:1020F000AF73928CB7ADFCDE3DDF7EE73284E93909
:102100005EE73DDFFCD6DCD67EE7DCD63EDF1DDFBA
:102110009BCE97AD56A539C69ACEBBD618BE8E6B50
:102120005184FFFFFFFFDEF7FFFFFFFFFFFFFFFF11
:10213000FFFFDFFFFFFFFFFFBFFFBFFFBEFFCE833D
:10214000064AD1A497DECD7BA95254AD9AD61CE79E
:102150001CDF7284CF6B7284D8B53DDF1DDFDCD607
:10216000F9BD872976A5BFEFDCD61DDFFCD69BCE57
:102170003DDFFCDEBBD65AC69BCE7BCEBBD65AC655
:1021800018BEF07BEF7BDFF7FFFFDEFFFFFFFFFFF7
:10219000FFFFFFFFFFFFFFFFFFFFFFFFDFFFBFFFAF
:1021A0005DF70B6B685A12ADF5C5E962A95A95B592
:1021B0009ACEFCDE7EE739BE39BE7BC6FCD67EE712
:1021C0003DDF1DDF9FEFB073EC521DDFBCD63DE756
:1021D0005EE77FEFF8BD18BE19BE39BE9BCE76AD67
:1021E000BBD6BBD639C693946D6BBEF7FFFFDFFF3E
:1021F000FFFFFFFFFFFFFFFFFFFFFFFFFFFFFFFFEF
:10220000FFFFDFFF3CF7895A675A12AD52B5474AC4
:102210000B6358C6BBD61DDFFCD63DDF9FEF7FE7C3
:102220001DD7FCD6FCD6FCD67FE75AC6C410159D38
:102230009FEF5EE77BCE97AD7AC61CDF7EEF5EE751
:102240009BCE4E63B394F49C5AC635A50C5B9EEFAF
:10225000FFFFFFFFFFFFFFFFFFFFFFFFFFFFFFFF8E
:10226000FFFFDFFFDFFFDFFF1CF70752C549D1A4E7
:1022700032AD474A8D73BAD6BBD6BCCE97ADBBCE76
:102280001DD7FCCEDCCE1DD71DDFFCD6FDD6FFF75B
:102290008F6B317CD4948F6BAF73B394317C51844A
:1022A000107C8F6B0D5B2621728CF9BD7ACE56A502
:1022B0002D63BEF7FFFFFFFFFFFFFFFFFFFFFFFFE5
:1022C000FFFFFFFFFFFFBFFFBFFFDFFF1BEFC649A1
:1022D00023316F9C11A506420B63F7BD97AD159D89
:1022E0006E5BD8ADFDD61DD73DD73DDF5EE71DD770
:1022F0005EDF97ADD4943284159D56A5B39456A550
:10230000B7B5F8B539C65AC65AC6D4943AC6DCD65B
:102310007ACE15A5CF73DFF7FFFFFEFFFFFFFFFFAC
:10232000FFFFFFFFFFFFFFFFFFFFBFFFBFFFDFFF5D
:102330003CF7E649A120ED8BD19CA539284255A553
:1023400056A5F594AC4AF9B53EDF3EDF1DD7DCCE8D
:10235000FCD67AC6738452845AC65AC65EE7BFF763
:102360003EE77FEF5DE73DDF3DDF3DDF3EE7BCD68B
:10237000FDDEFDDE9BCEB3949394FFFFFFFFDEFFF7
:10238000FFFFFFFFFFFFFFFFFFFFFFFFFFFFBFFF9D
:10239000DFFFDFFF9DFF485A8018AD83B09C84317A
:1023A0000742D7BDBBD6BBCEF4945EDF3EDFBBCECB
:1023B000FDD63DDF1DDF19BE19BEDFF7DCD6D8B56F
:1023C0001DDF9BCE1DDFDCD61CDF1CDF5DE73DDFA4
:1023D0001DDF3DDFBCD6BBD69BCE728C35A5FFFF83
:1023E000FFFFDEFFFFFFFFFFFFFFFFFFFFFFFFFF1E
:1023F0009EFFFFFFBFFFFFFFDEFFEE836010A95AC5
:10240000B19C85318531B6BD7ACE1DE7FDDEFDDE9E
:10241000BCD61DDFBCD6FDDEDCD61DDFFDDEFCDE5E
:102420001DDF77AD3DDFFCDEFCD61DDF1DD77EE76F
:10243000FCD6B7AD159D3DDFDCD6DBD618BE718C62
:102440009ACEFFFFFFFFFFFFFFFFFFFFFFFFFFFF32
:10245000DFFFFFFFBFFFFFFFDEFFDEFFFFFF54AD2B
:102460002329C95A13A507428110B29CFBE6BBDEA3
:10247000FCDE5FEF3EE77FEF1DE7FDDEFDDEFDDE0C
:102480001DDF1DDFFCDED8B51DDF3DE75EE71DDF8C
:102490001DD75EDF9FE7D06B0C531CDF7AC6FBD6DF
:1024A00096AD149D1CE7FFFFBEF7FFFFFFFFFFFF88
:1024B000FFFFFFFFDFFFFFFFBFFFFFFFFFFFDEFFAD
:1024C000FFFFFAE6A95A0B6354AD6D7381108D734B
:1024D000FBE67ACEDCDEF9BD938CB8B51DE7FDDEF8
:1024E0001DE7BCD6FDDEFDDE7AC6F8B59BCE1CD757
:1024F0007EE7FCD65EDF9BC61CD79384AF6B18B615
:10250000149D38BE149D18BEDFFFFFFF9DF7FFFF2F
:10251000FFFFDEFFFFFFFFFFDFFFFFFFDFFFFFFF2C
:10252000FFFFDEFFFFFFFEFFD19C8C73D19C13A544
:10253000484AEA6217CE79D69FF716A58C52738C5B
:102540003EE71DDF3EE71DDF1DDFDCD639BE7AC664
:102550005AC6BBCE5EE7FCD6BFEF3DDF5DDFBFEF07
:102560007EE7DBD659C67ACE76AD1CDFFFFFDFFFF4
:10257000BEF7FFFFFFFFFFFFFFFFFFFFFFFFFFFFB4
:10258000DFFFDFFFFFFFDEFFDEFFFEFFB9DE0E84B1
:10259000CD7B94B57094A95A919CBADEB7BDF59CD9
:1025A0008F6B159DFDDEDCD6DCD63DDF3EDFFDD634
:1025B000DCD63EDF1DD7FCD63DDF3DDF9384D7ADB3
:1025C000BBCEDCD6FCD6DBD67ACEB7B59ACEDEF75C
:1025D000FFFFDFFFFFFFFFFFFFFFFFFFFFFFFFFF2B
:1025E000FFFFFFFFDFFFDFFFFFFFFEFFBDF7DEFFA7
:1025F000DDFF12A56B73D19C32AD4B6BAC7B58CE1B
:102600009294D8BDB8B53AC6DCD6DCD6159DD49424
:102610003DDF1DD79FE7FDD63EDF5EE71DD71DD707
:102620008E63B38C7EE7BBCE9ACEFBD6F8BD38C6A0
:102630009EEFFFFFDEFFFFFFFFFFDEFFFFFFFFFF5D
:10264000FFFFFFFFFFFFFFFFFFFFFFFFFFFFFFFF9A
:10265000FEFFDEFFFEFFB9DEB09C0E8CF1A44F94AE
:102660008B7BB19C7ACE7EEF1DDF5EE7FCDEFCDE6D
:102670006F638F6B3DDFFDD67EE7159D3ABE7FE72A
:10268000FDD6FDD6B38C928CFCD61CDF1CDF39C680
:10269000B7B51CDFFFFFFFFFBEF7FFFFFFFFBEF771
:1026A000FFFFFFFFFFFFFFFFFFFFFFF7FFFFFFFF42
:1026B000DEF7FFFFFFFFFEFFFEFFFEFF57D6ED83B5
:1026C0006F9452B5CC830A6359CE7ACE39C63DE7B2
:1026D000BBD63DE7F07B19BE7EE71DDF3DDF0D5B1E
:1026E000F5947FE71DDF3DDFF8B575A576AD7ACEB1
:1026F0001CDFB6ADDBD69EEFFFFFFFFFBEF7FFFF8F
:10270000FFFFBEF7FFFFFFFFFFFFFFFFFFFFFFFF22
:10271000FFFFFFFFFFFFFFFFFFFFFFFFDEFFFEFFEB
:10272000FDFFB4BD0E8C4E94B09C2F8C4D6B9ACE99
:102730005DEF18BE7ACE5DE776AD3DDF7EEFDCD68D
:1027400039BED07372845EE75EE71CD7DBD69ACEC3
:1027500018BE59C6B6B5FBDEBEF7DFF7FFFFFFFFB9
:10276000FFFFFFFFFFFFFFFFFFFFFFFFFFFFFFFF79
:10277000FFFFFFFFFFFFFFFFFFFFFFFFFFFFFFFF69
:10278000FEFFBDF7FEFFDDFF36CE6F94ED832F8C8D
:102790009194EB5AD7BDFBDE9AD6AE7318BE3CE7D8
:1027A000DBD63DDF9FEFD8B597AD3DDFBBCE7ACE10
:1027B000FCDEBAD6BAD6BAD6FBDEFBDE7DEFFFFF73
:1027C000FFFFFFFFFFFFFFFFFFFFFFFFFFFFFFFF19
:1027D000FFFFFFFFFFFFFFFFFFFFFFFFFFFFFFFF09
:1027E000FFFFFFFFFFFFBEFFFFFFFEFFBDFFD9DEC4
:1027F00053B5ED83CE7BAE73919454AD1CE7BAD63E
:102800001CE738C67ACE59C65ACE15A555A5DBD6D3
:10281000BBD6DBD69AD658CE38C6B6B55DEFBEF776
:10282000FFFFFFFFFFFFFFFFFFFFFFFFFFFFFFFFB8
:10283000FFFFFFFFFFFFFFFFFFFFFFFFFFFFFFFFA8
:10284000FFFFFFFFFFFFFFFFFFFFFFFFFFFF9DF702
:10285000DEFFFEFF9CF774B570946C736D73CE7BD6
:10286000CE7BB6B5DADE3CE75DEF1CE77DEFDBDE65
:10287000DBDE3DE79BD67ACED7BD38C638C6F39CA3
:10288000B6B59DF7FFFFBEF7FFFFFFFFFFFFFFFF9E
:10289000FFFFFFFFFFFFFFFFFFFFFFFFFFFFFFFF48
:1028A000FFFFFFFFFFFFFFFFFFFFFFFFFFFFDFFF58
:1028B000FFFFFFFFDEFFFEFFFEFFFEFFFEFFD9DE94
:1028C000EE834C6BEE8368520B63EF83D29C34A58E
:1028D000F7BDD7BD55AD14A5F49C75AD38C61BE743
:1028E0009DF758CE0F8417C6FFFFDEFFFFFFFFFFE7
:1028F000FFFFFFFFFFFFFFFFFFFFFFFFFFFFFFFFE8
:10290000FFFFFFFFFFFFFFFFFFFFFFFFFFFFFFFFD7
:10291000FFFFBFF7FFFFFFFFFFFFBEF7FEFFFEFF5A
:102920009CF7FEFF274A7094FEFFB9DE54AD308C51
:10293000CE7B8D736D738E73EF83929496B579D63B
:102940009DF7BEF7FFFFFFFF54AD38C6BDF7FFFF91
:10295000FFFFFFFFFFFFFFFFFFFFFFFFFFFFFFFF87
:10296000FFFFFFFFFFFFFFFFFFFFFFFFFFFFFFFF77
:10297000FFFFFFFFFFFFDFFFFFFFFFFFFFFFFFFF87
:10298000FFFF7CEFFEFF73B5A962DDFF9CFFDDFF5B
:10299000FEFF3BEF7CF7FBE679D6DBE69EF7FFFF19
:1029A000FFFFFFFFFFFFFFFFFFFFFFFF9DF79DF70B
:1029B000BEFFFFFFFFFFFFFFFFFFFFFFFFFFFFFF68
:1029C000FFFFFFFFFFFFFFFFFFFFFFFFFFFFFFFF17
:1029D000FFFFFFFFFFFFFFFFFFFFDFFFFFFFFFFF27
:1029E000DFFFDFF7FFFFFFFF9CF76B73D5C5DDFF50
:1029F000FEFFDDFFFEFFFFFFFFFFFFFFFFFFFFFF0B
:102A0000FFFFDFFFFFFFDFFFBEFFFFFFFFFF5CEF0A
:102A1000FFFFFFFFDFFFFFFFFFFFFFFFFFFFFFFFE6
:102A2000FFFFFFFFFFFFFFFFFFFFFFFFFFFFFFFFB6
:102A3000FFFFFFFFFFFFFFFFFFFFFFFFFFFFFFFFA6
:102A4000FFFFFFFFFFFFFFFFFFFFFFFFD9DEEE7B72
:102A50007CF7FEFF9DF7FFFFFFFFFFFFFFFFFFFF7C
:102A6000FFFFFFFFFFFFFFFFFFFFFFFFFFFFFFFF76
:102A7000FFFFFFFFFFFFFFFFFFFFFFFFFFFFFFFF66
:102A8000FFFFFFFFFFFFFFFFFFFFFFFFFFFFFFFF56
:102A9000FFFFFFFFFFFFFFFFFFFFFFFFFFFFFFFF46
:102AA000FFFFFFFFFFFFFFFFFFFFFFFFFFFFFFFF36
:102AB000FFFF78CEFFFFFEFFDEFFFFFFDFFFFFFF20
:102AC000FFFFFFFFFFFFFFFFFFFFFFFFFFFFFFFF16
:102AD000FFFFFFFFFFFFFFFFFFFFFFFFFFFFFFFF06
:102AE000FFFFFFFFFFFFFFFFFFFFFFFFFFFFFFFFF6
:102AF000FFFFFFFF021010208F0000000000000009
:102B000000000000000000000000000000000000C5
:102B10000000000000000000000000000007000F9F
:102B2000800F800F800F800F8007000700000000DB
:102B300000070007000700000000000E380E380EE6
:102B4000380E3806300000000000000000000000D1
:102B500000000000000000000000000C300C300CF1
:102B6000307FFE7FFE0C300C300C300C307FFE7F4F
:102B7000FE0C300C300C3000000000024002400F10
:102B8000F81FF81A401A401FF00FF8025802581F99
:102B9000F81FF00240024000000000000000000E9C
:102BA000100E300E7000E001C0038007000E700CA4
:102BB000700870000000000000000000000F001905
:102BC00080198019800F000F080F9819F818F01855
:102BD000E019F00F98000000000000000007000757
:102BE0000007000E000000000000000000000000D0
:102BF0000000000000000000000000000000F001E4
:102C0000C0038007000E000E000E000E0007000338
:102C10008001C000F000000000000000000F000371
:102C20008001C000E0007000700070007000E001E2
:102C3000C003800F000000000000000000018011B0
:102C400088099007E007E03FFC3FFC07E007E00948
:102C500090118801800000000000000000000000CA
:102C6000000180018001800FF00FF00180018001E0
:102C700080000000000000000000000000000000D4
:102C8000000000000000000000000000000000073D
:102C900000070007000E0000000000000000000018
:102CA000000000000000001FF81FF80000000000F6
:102CB0000000000000000000000000000000000014
:102CC00000000000000000000000000000000007FD
:102CD00000070007000000000000000000000200E4
:102CE00006000E001C0038007000E001C0038007E1
:102CF000000E001C0000000000000000000FF01C8F
:102D0000381C781CF81CF81DB81DB81F381F381E59
:102D1000381C380FF00000000000000000018001A6
:102D20008003801F801F8003800380038003800353
:102D30008003801FF000000000000000000FE01C76
:102D4000701C380038007000E001C0038007000EDE
:102D5000381C381FF800000000000000000FE01CC5
:102D6000701C380038007003C003C0007000381CAD
:102D7000381C700FE0000000000000000000E001BF
:102D8000E003E006E00CE018E01FF81FF800E000A8
:102D9000E000E003F800000000000000001FF81C45
:102DA000001C001C001C001FE01FF0007800381CF5
:102DB000381C700FE0000000000000000003E00776
:102DC000000E001C001C001FF01FF81C381C381CD3
:102DD000381C380FF000000000000000001FFC1C31
:102DE0001C1C1C1C1C001C0038007000E001C003EF
:102DF000800380038000000000000000000FF01C32
:102E0000381C381C381F3807E007E01CF81C381C39
:102E1000381C380FF000000000000000000FF01C0C
:102E2000381C381C381C381FF80FF80038003800E0
:102E30007000E007C000000000000000000000007B
:102E400000038003800380000000000380038003F0
:102E500080000000000000000000000000000000F2
:102E600000038003800380000000000380038003D0
:102E70008007000000000000000000007000E0017A
:102E8000C0038007000E001C001C000E000700039A
:102E90008001C000E00070000000000000000000A1
:102EA0000000003FFC3FFC000000003FFC3FFC0036
:102EB00000000000000000000000001C000E0007E1
:102EC00000038001C000E00070007000E001C0035A
:102ED0008007000E001C000000000003C00FF01E61
:102EE0007818380038007000E001C001C000000010
:102EF0000001C001C001C0000000000FF81C1C1C34
:102F00001C1C1C1C1C1CFC1CFC1CFC1CFC1C001C9D
:102F1000001C001FF007F800000000000003C007BD
:102F2000E00E701C381C381C381C381FF81C381C6C
:102F3000381C381C3800000000000000001FF00E94
:102F4000380E380E380E380FF00FF00E380E380EDF
:102F5000380E381FF0000000000000000007F00EDF
:102F6000381C381C001C001C001C001C001C001C11
:102F7000380E3807F000000000000000001FE00ECF
:102F8000700E380E380E380E380E380E380E380ED9
:102F9000380E701FE000000000000000001FF80E57
:102FA000180E080E000E300FF00FF00E300E000E4F
:102FB000080E181FF800000000000000001FF80EA7
:102FC000180E080E000E300FF00FF00E300E000E2F
:102FD000000E001F00000000000000000007F00EBF
:102FE000381C381C381C001C001C001CF81C381C29
:102FF000380E3807F800000000000000001C701CAC
:10300000701C701C701C701FF01FF01C701C701C5A
:10301000701C701C7000000000000000000FE00336
:103020008003800380038003800380038003800388
:103030008003800FE0000000000000000001FC00A1
:103040007000700070007000700070387038703858
:103050007038700FE000000000000000001E380E05
:10306000380E700EE00FC00F800F800FC00EE00E04
:10307000700E381E3800000000000000001F000E17
:10308000000E000E000E000E000E000E000E080EC8
:10309000180E381FF800000000000000001C1C1E65
:1030A0003C1F7C1FFC1FFC1DDC1C9C1C1C1C1C1CD6
:1030B0001C1C1C1C1C00000000000000001C1C1C30
:1030C0001C1E1C1F1C1F9C1DDC1CFC1C7C1C3C1C97
:1030D0001C1C1C1C1C000000000000000003E0077A
:1030E000F00E381C1C1C1C1C1C1C1C1C1C1C1C0E4C
:1030F0003807F003E000000000000000001FF00EA1
:10310000380E380E380E380FF00FF00E000E000E8D
:10311000000E001F00000000000000000003E00F90
:10312000780E381C1C1C1C1C1C1C1C1C7C1CFC0F42
:10313000F80FF8003800FC0000000000001FF00E3F
:10314000380E380E380E380FF00FF00E700E380EA5
:10315000380E381E3800000000000000000FF01C80
:10316000381C381C381C000FE007F000381C381CD5
:10317000381C380FF000000000000000001FFC1990
:10318000CC11C401C001C001C001C001C001C00117
:10319000C001C007F000000000000000001C701C0F
:1031A000701C701C701C701C701C701C701C701CBF
:1031B000701C700FE000000000000000001C701C7C
:1031C000701C701C701C701C701C701C701C700EAD
:1031D000E007C0038000000000000000001C1C1C71
:1031E0001C1C1C1C1C1C1C1C9C1C9C1C9C0FF80FDD
:1031F000F80770077000000000000000001C701C41
:10320000701C700EE007C00380038007C00EE01C36
:10321000701C701C7000000000000000001C701C7E
:10322000701C701C701C700EE007C00380038003CC
:103230008003800FE000000000000000001FF81C69
:10324000381838107000E001C0038007000E081C19
:10325000181C381FF8000000000000000007F007ED
:103260000007000700070007000700070007000726
:1032700000070007F0000000000000000010001828
:10328000001C000E000700038001C000E000700079
:1032900038001C0007000000000000000007F000DC
:1032A000700070007000700070007000700070009E
:1032B00070007007F0000000000000018003C007EC
:1032C000E00E701C3800000000000000000000004C
:1032D00000000000000000000000000000000000EE
:1032E00000000000000000000000000000000000DE
:1032F00000000000007FFF7FFF000000001C001C9A
:1033000000070007000000000000000000000000AF
:1033100000000000000000000000000000000000AD
:1033200000000000000FE0007000700FF01C701C27
:10333000701C700FD800000000000000001E000E7E
:10334000000E000E000FF00E380E380E380E380E3C
:10335000380E381BF00000000000000000000000E4
:1033600000000000000FE01C701C701C001C001C02
:10337000701C700FE0000000000000000000F8006A
:1033800070007000700FF01C701C701C701C701CA2
:10339000701C700FD800000000000000000000004A
:1033A00000000000000FE01C701C701FF01C001CCF
:1033B000701C700FE0000000000000000003E00738
:1033C000700770070007001FE01FE00700070007F5
:1033D0000007001FC0000000000000000000000007
:1033E00000000000000FD81C701C701C701C700FB7
:1033F000F007F000701C700FE0000000001E000ECF
:10340000000E000E000EF00F380F380E380E380E7A
:10341000380E381E38000000000000000001C00116
:10342000C001C000000FC001C001C001C001C00147
:10343000C001C00FF8000000000000000000700094
:10344000700070000003F0007000700070007000E9
:103450007000701C700CF007E0000000001E000EF1
:10346000000E000E000E380E700EE00FC00EE00EC3
:10347000700E381E3800000000000000000FC00170
:10348000C001C001C001C001C001C001C001C00134
:10349000C001C00FF80000000000000000000000A4
:1034A00000000000001FF81C9C1C9C1C9C1C9C1C09
:1034B0009C1C9C1C9C000000000000000000000000
:1034C00000000000001FE01C701C701C701C701CB1
:1034D000701C701C70000000000000000000000064
:1034E00000000000000FE01C701C701C701C701CA1
:1034F000701C700FE00000000000000000000000E1
:1035000000000000001BF00E380E380E380E380E8A
:10351000380FF00E000E001F000000000000000039
:1035200000000000001FB038E038E038E038E03834
:10353000E01FE000E000E001F000000000000000FB
:1035400000000000001EF00FF80F380E000E000EF5
:10355000000E001F0000000000000000000000003E
:1035600000000000000FE01C301C300F8003E0184A
:103570007018700FE0000000000000000000000163
:1035800000030007001FF0070007000700070007FF
:1035900070077003E0000000000000000000000061
:1035A00000000000001C701C701C701C701C701C43
:1035B000701C700FD8000000000000000000000028
:1035C00000000000001C701C701C701C701C700E31
:1035D000E007C003800000000000000000000000C1
:1035E00000000000001C1C1C1C1C1C1C9C1C9C0FB4
:1035F000F8077007700000000000000000000000E5
:1036000000000000001CE01CE00FC0078007800FD6
:10361000C01CE01CE00000000000000000000000F2
:1036200000000000000E380E380E380E380E380735
:10363000F003E000E001C01F800000000000000077
:1036400000000000001FE018E011C0038007000E1A
:10365000201C601FE0000000000000000001F803D3
:10366000800380038007001C001C00070003800308
:1036700080038001F800000000000001C001C001CB
:10368000C001C001C001C001C001C001C001C00132
:10369000C001C001C001C00000000000001F800187
:1036A000C001C001C000E00038003800E001C001E6
:1036B000C001C01F8000000000000000001F1C3B74
:1036C0009C39DC38F8000000000000000000000019
:1036D0000000000000000000000000000000F001F9
:1036E000F80198019801F800F000000000000000C7
:1036F000000000000000000000000000001FF80EA5
:10370000180E080E000E000FF00E380E380E380E90
:10371000380E381FF000000000000000001FF80EF7
:10372000180E080E000E000E000E000E000E000E09
:10373000000E001F00000000000000000007F00C59
:10374000701C701C701C701C701C701C701C701C19
:10375000701C703FF830182008066000001FF80E3B
:10376000180E080E000E300FF00FF00E300E000E87
:10377000080E181FF8000000000000000033CC19EC
:1037800098199819980DB00FF00FF01DB8199819E5
:1037900098199833CC000000000000000017E01ECC
:1037A000701C381038007003C003C0007000381C53
:1037B000381C700FE000000000000000001C701CAE
:1037C000701C701C701C701C701CF01DF01F701E93
:1037D000701C701C7000000000038000001C701C36
:1037E000701C701C701C701C701CF01DF01F701E73
:1037F000701C701C70000000000000000003F00648
:10380000700E700E700E700E700E700E700E700EC8
:10381000700E701C7000000000000000001FF01C03
:10382000701C701C701C701C701C701C701C701C38
:10383000701C701C7000000000000000001C701C58
:10384000701C701C701C701C700FF007F000700072
:10385000701CE00FC000000000000000001FF033EB
:10386000983398339833983398339833981FF003EC
:1038700080038007C000000000000000001C701CD6
:10388000701C701C701C701C701C701C701C701CD8
:10389000701C701FF800180008000000001C701C4D
:1038A000701C701C701C701C701FF00FF0007000FA
:1038B00070007000700000000000000000399C39AA
:1038C0009C399C399C399C399C399C399C399C3950
:1038D0009C399C3FFC0000000000000000399C392E
:1038E0009C399C399C399C399C399C399C399C3930
:1038F0009C399C3FFE00060002000000003F002EA5
:10390000002E000E000E000FF00E380E380E380E8E
:10391000380E381FF00000000000000000381C388E
:103920001C381C381C381C3F9C39DC39DC39DC392C
:10393000DC39DC3F9C00000000000000001F000E8E
:10394000000E000E000E000FF00E380E380E380E6E
:10395000380E381FF000000000000000000FE01CCF
:10396000701C380038003803F803F8003800381CA1
:10397000381C700FE000000000000000003CF81D43
:103980009C1D9C1D9C1D9C1F9C1F9C1D9C1D9C1D6B
:103990009C1D9C3CF800000000000000000FF81C7B
:1039A000701C701C701C701C701FF00FF01C701CC1
:1039B000701C70387800000000000000000018073C
:1039C000F80F000E000E000FF00E380E380E380EF5
:1039D000380E3807F0000000000000000000000072
:1039E00000000000001FF00E380E380FF00E380EE9
:1039F000380E381FF000000000000000000000003A
:103A000000000000001FF81C381C001C001C001CDB
:103A1000001C001C0000000000000000000000006E
:103A2000000000000007F00E700E700E700E700E99
:103A3000700E701FF8100800000000000000000069
:103A40000006C000000FE01C701C701FF01C001C62
:103A5000701C700FE000000000000000000000007B
:103A6000000000000019CC19CC19CC0DD807F00DBE
:103A7000D819CC19CC0000000000000000000000A4
:103A800000000000000FE01C70007003E0007000F8
:103A9000701C700FE000000000000000000000003B
:103AA00000000000001C701C701C701CF01D701EBB
:103AB000701C701C7000000000000000000000007E
:103AC0000001C000000E380E380E380E780EB80F08
:103AD000380E380E38000000000000000000000022
:103AE00000000000000E380E380E700FE00E700E51
:103AF000380E380E38000000000000000000000002
:103B0000000000000003F8073807380738073807B7
:103B10003807380E380000000000000000000000E8
:103B200000000000003838383838383C783AB83966
:103B3000383838383800000000000000000000006D
:103B400000000000001C701C701C701C701FF01C1A
:103B5000701C701C700000000000000000000000DD
:103B600000000000001FF01C701C701C701C701CFA
:103B7000701C701C700000000000000000000000BD
:103B800000000000001FF0139003800380038003F7
:103B9000800380038000000000000000000000009F
:103BA00000000003801FF03BB83BB83BB83BB80FA8
:103BB000F00380038003800000000000000000008C
:103BC00000000000001C701C701C701C701C701C1D
:103BD000701C701FF80018000000000000000000BA
:103BE00000000000001C701C701C701C700FF000A6
:103BF0007000700070000000000000000000000075
:103C00000000000000399C399C399C399C399C3952
:103C10009C399C3FFC0000000000000000000000F8
:103C20000000000000399C399C399C399C399C3932
:103C30009C399C3FFE0006000000000000000000D0
:103C400000000000003E002E000E000FF00E380EA7
:103C5000380E380FF00000000000000000000000E7
:103C60000000000000381C381C381C3F9C39DC392F
:103C7000DC39DC3F9C000000000000000000000078
:103C800000000000000E000E000E000FF00E380EB7
:103C9000380E380FF00000000000000000000000A7
:103CA00000000000000FE01C70007003F0007000C6
:103CB000701C700FE0000000000000000000000019
:103CC000000000000038F8399C399C399C3F9C3931
:103CD0009C399C38F8000000000000000000000043
:103CE000000000000007F80E380E380E3807F80EF6
:103CF000380E381C3800000000080C20A600000018
:103D00000000000000000000000000202020202013
:103D1000200020000000285050000000000000009B
:103D20000000002828FC2850FC505000000020789B
:103D3000A8A0603028A8F02000000048A8B05028B3
:103D40003454480000000020505078A8A8906C001F
:103D50000000404080000000000000000000040857
:103D60001010101010100804000040201010101047
:103D7000101020400000000020A87070A820000053
:103D8000000000202020F82020200000000000007B
:103D90000000000000004040800000000000F8002B
:103DA00000000000000000000000000000004000D3
:103DB00000000810101020204040408000000070DB
:103DC0008888888888887000000000206020202073
:103DD0002020700000000070888810204080F800CB
:103DE000000000708808300808887000000000108B
:103DF0003050509078101800000000F88080F008D3
:103E000008887000000000709080F088888870003A
:103E1000000000F8901020202020200000000070FA
:103E2000888870888888700000000070888888788A
:103E30000848700000000000002000000000200082
:103E40000000000000002000000020200000040806
:103E500010204020100804000000000000F80000BE
:103E6000F800000000004020100804081020400066
:103E700000000070888810202000200000000070E2
:103E80008898A8A8B8807800000000202030505002
:103E90007848CC00000000F0484870484848F000DE
:103EA000000000788880808080887000000000F02A
:103EB000484848484848F000000000F84850705012
:103EC0004048F800000000F8485070504040E000C2
:103ED000000000384880809C88483000000000CCFA
:103EE000484878484848CC00000000F820202020AE
:103EF0002020F8000000007C10101010101090E03E
:103F0000000000EC485060505048EC00000000E019
:103F1000404040404044FC00000000D8D8D8D8A819
:103F2000A8A8A800000000DC486868585848E800C5
:103F3000000000708888888888887000000000F081
:103F4000484870404040E000000000708888888841
:103F5000E8987018000000F0484870504848EC009D
:103F600000000078888060100888F000000000F8E9
:103F7000A820202020207000000000CC484848489D
:103F800048483000000000CC484850503020200005
:103F9000000000A8A8A8705050505000000000D8A1
:103FA000505020205050D800000000D85050202001
:103FB00020207000000000F8901020204048F800F9
:103FC0000000382020202020202020380000404001
:103FD0004020201010100800000070101010101069
:103FE00010101070000020500000000000000000C1
:103FF000000000000000000000000000FC002000A5
:104000000000000000000000000000000000304838
:1040100038483C00000000C04040704848487000EC
:104020000000000000003848404038000000001840
:104030000808384848483C000000000000003048AC
:10404000784038000000001C2020782020207800D4
:104050000000000000003C4830407844380000C0B8
:10406000404070484848EC000000002000006020FC
:104070002020700000000010000030101010101000
:10408000E00000C040405C507048EC00000000E0E0
:10409000202020202020F800000000000000F0A8D0
:1040A000A8A8A800000000000000F0484848EC0064
:1040B00000000000000030484848300000000000C8
:1040C0000000F04848487040E00000000000384818
:1040D000484838081C0000000000D8604040E0005C
:1040E0000000000000007840300878000000000068
:1040F0002020702020201800000000000000D84878
:1041000048483C00000000000000EC48503020000F
:10411000000000000000A8A870505000000000003F
:104120000000D8502050D800000000000000EC48EB
:1041300050302020C00000000000781020207800BF
:10414000000018101010201010101018001010107F
:1041500010101010101010101000602020201020DF
:10416000202020600040A418000000000000000093
:10417000000000304848300000000000000000F857
:10418000484070484848F000000000F8484040406F
:104190004040E00000000038484848484848FC8457
:1041A000005000F8485070504048F800000000A847
:1041B000A8A870F8A8A8A800000000F08808300897
:1041C0000808F000000000EC485858686848DC0017
:1041D000003000EC485858686848DC000000003C9B
:1041E000484848484848CC00000000FC4848484837
:1041F0004848CC00000000D85050202040408000AB
:1042000000000070A8A8A8A870207000000000CCD2
:10421000484848484848FC04000000CC4848483812
:1042200008081C00000000D6545454545454FE0096
:10423000000000D6545454545454FE02000000E0D0
:10424000C04070484848F000000000EE4444645408
:104250005454EE00000000E0404070484848F00030
:10426000000000E09008380808906000000000ECB2
:10427000525252725252EC000000003C48484838FA
:1042800048489C0000000008304070484848300012
:1042900000000000000070283028700000000000BE
:1042A000000078282020700000000000000018287E
:1042B00028287C4400000000280030487840300066
:1042C0000000000000005454385454000000000066
:1042D0000000700830087000000000000000CC48AA
:1042E0005868CC00000000003000CC485868CC0072
:1042F000000000000000485060504800000000002E
:1043000000001C2828284C00000000000000446C1D
:1043100054444400000000000000CC487848CC0021
:10432000000000000000FC484848CC0000000000ED
:1043300000007C54101038000000000000003854C9
:1043400054543810380000000000CC484848FC04A1
:10435000000000000000CC4838080C0000000000FD
:104360000000545454547C000000000000005454D9
:1043700054547E02000000000000E0A030287000CD
:10438000000000000000C6446454E6000000000085
:10439000000060203028700000000000000030485D
:1043A00018483000000000000000C8547454C800D1
:1043B0000000000000003C4848384C00003CE78109
:1043C000BD81BD81BD81BD81FF3CE7818181BD8112
:1043D000BD81BD81FF3CE78181818181BD81BD813E
:1043E000FF3CE781818181818181BD81FF3CE78143
:1043F0008181818181818181FFFFFF003F3F000F2B
:104400000F000303000000003F3F000F0F000303F5
:10441000000000000000000F0F0003030000000078
:104420000000000000000303000000101010101036
:1044300054381000000000103854101010101000F4
:10444000000000000010087C0810000000000000C0
:104450000010207C20100000000000003C0C142400
:104460004480000000000000804424140C3C000044
:104470000000003C42A581A599423C000000003CA0
:104480007EDBFFFFDB663C000000003C42A581991B
:10449000A5423C000000003C7EDBFFFFE75A3C00E9
:1044A0000000003C4281818181423C000000003CD0
:1044B0007EFFFFFFFF7E3C00000000FF81818181C5
:1044C0008181FF00000000FFFFFFFFFFFFFFFF00F3
:1044D00000080C20173CE781BD81BD81BD81BD81F5
:1044E000FF3CE7818181BD81BD81BD81FF3CE781CA
:1044F00081818181BD81BD81FF3CE7818181818195
:104500008181BD81FF3CE7818181818181818181C0
:10451000FFFFFF003F3F000F0F00030300000000FC
:104520003F3F000F0F000303000000000000000FDA
:104530000F00030300000000000000000000030360
:10454000000000101010101054381000000000106F
:104550003854101010101000000000000010087CEB
:1045600008100000000000000010207C2010000057
:10457000000000003C0C14244480000000000000F7
:10458000804424140C3C00000000003C42A581A59E
:1045900099423C000000003C7EDBFFFFDB663C00F4
:1045A0000000003C42A58199A5423C000000003C6F
:1045B0007EDBFFFFE75A3C000000003C4281818126
:1045C00081423C000000003C7EFFFFFFFF7E3C007C
:1045D000000000FF818181818181FF00000000FFD8
:1045E000FFFFFFFFFFFFFF00007C3C3E5E2B3D3FD7
:1045F0002F5B5D3B2C2A225C001F1C1F1E1F1E1FF1
:104600001F1E1F1E1F005EBCE2613FDD83C29C7E39
:1046100020A3FD1F419DC3217FFCA2401E5F01E33B
:10462000BD3E6082DC237D9FC1421CFEA0E1BF5DD8
:104630000380DE3C62BEE0025CDF81633D7C22C021
:104640009E1D43A1FF4618FAA427799BC584DA383A
:1046500066E5BB5907DB856739BAE406581947A5F3
:10466000FB7826C49A653BD987045AB8E6A7F91B9C
:1046700045C6987A24F8A6441A99C7257B3A6486D9
:10468000D85B05E7B98CD2306EEDB3510F4E10F206
:10469000AC2F7193CD114FADF3702ECC92D38D6FA3
:1046A00031B2EC0E50AFF1134DCE90722C6D33D170
:1046B0008F0C52B0EE326C8ED0530DEFB1F0AE4C89
:1046C0001291CF2D73CA947628ABF517490856B4CA
:1046D000EA6937D58B5709EBB536688AD495CB296B
:1046E00077F4AA4816E9B7550B88D6346A2B759724
:1046F000C94A14F6A8742AC896154BA9F7B6E80A51
:1047000054D7896B3500000A0B02090C0D0E0807FF
:104710000304010000000000000000000000000091
:104720000000000000000000000000000000000089
:104730000012111000000000000000000000000046
:104740000000000000000000000000000022002522
:104750000028002B002E003100340002010000056B
:104760000108010B01000020002300260029002C75
:10477000002F0032000001000003010601090105BD
:10478000050505070508080808020202020A0A08CA
:1047900008040404040101010101010101030303F0
:1047A0000303030303040707070C0C0C0C0C0C0C8D
:1047B0000C0202020206060606060606060B0B0B94
:1047C0000B0B0B0B0B0102102020080810204010CF
:1047D00020408002010201080402010102040810C5
:1047E00020408080402010080402018004020180E3
:1047F000402010080402010804020101020408100C
:1048000020408001020408102040802032201A003D
:104810000000000000000000000000000000000098
:104820000000000000000000000000000000000088
:104830000000000000000000000000000000000078
:104840000000000000000000000000000000000068
:104850000000000000000000000000000000000058
:104860000000000000000000000000000000000048
:104870000000000000000000000000000000000038
:104880000000000000000000000000000000000028
:104890000000000000000000000000000000000018
:1048A0000000000000000000000000000000000008
:1048B00000000000000000000000000000000000F8
:1048C00000000000000000000000000000000000E8
:1048D00000000000000000000000000000000000D8
:1048E000000000000000000C0000001E0000003F5F
:1048F0000000003F0000003F0000003F0000003FBC
:104900000000003F0000003F0000003F0000003FAB
:104910000000003F0000003F0000003F0000003F9B
:104920000000003C000000380000002000000000F3
:1049300000000020000000300000003C0000003FAC
:104940000000003F0000003F0000003F0000003F6B
:104950000000003F0000003F0000003F0000003F5B
:104960000000003F0000003F0000003F0000003F4B
:104970000000003F0000001E0000000C00000000CE
:104980000000000000000000000000000000000027
:104990000000000000000000000000000000000017
:1049A00000000000000000007FFF0000FFFF80010A
:1049B000FFFF8000FFFF00007FFE000000000000FE
:1049C00000000000000000000000000000000000E7
:1049D00000000000000000000000000000000000D7
:1049E00000000000000000000000000000000000C7
:1049F00000000000000000000000000000000000B7
:104A000000000000000000000000000000000000A6
:104A10000000000000000000000000000000000096
:104A20000000000000000000000000000000000086
:104A30000000000000000000000000000000000076
:104A40000000000000000000000000000000000066
:104A50000000000000000000000000000000000056
:104A60000000000000000000000000007FFF0000C8
:104A7000FFFF8001FFFF8000FFFF00007FFE0000BE
:104A80000000000000000000000000000000000026
:104A90000000000000000000000000000000000016
:104AA0000000000000000000000000000000000006
:104AB0000000000000000000000000007FFF000177
:104AC000FFFFC007FFFFF001FFFFE0007FFF800056
:104AD00000000000000000000000000000000000D6
:104AE00000000000000000000000000000000000C6
:104AF00000000000000000000000000000000000B6
:104B000000000000000000000000000000000000A5
:104B10007FFF0000FFFF8001FFFFC000FFFF80005C
:104B20007FFF000000000000000000000000000007
:104B300000000000000000003FFF80007FFFC00079
:104B4000FFFFE0007FFFC0033FFF80078000000FF2
:104B5000C000000FC000000FC000000FC000000F19
:104B6000C000000FC000000FC000000FC000000F09
:104B7000C000000FC000000FC000000FC000000FF9
:104B8000C000000F8000000E7FFF8008FFFFE003E1
:104B9000FFFFF801FFFFF0007FFFC60000001E00CE
:104BA00000007E0000007E0000007E0000007E000D
:104BB00000007E0000007E0000007E0000007E00FD
:104BC00000007E0000007E0000007E0000007E00ED
:104BD00000007E0000007E0000003C003FFF9800C7
:104BE0007FFFC000FFFFE0007FFFC0003FFF8000AD
:104BF00000000000000000000000000000000000B5
:104C00000000000000000000000000060000000F8F
:104C10000000001F8000001F8000001F8000001F98
:104C20008000001F8000001F8000001F8000001F08
:104C30008000001F8000001F8000001F8000001FF8
:104C40008000001F8000001E0000001C00000010FB
:104C500000000000000000000000000000000C0048
:104C600000003C000000FC000000FC000000FC0014
:104C70000000FC000000FC000000FC000000FC0044
:104C80000000FC000000FC000000FC000000FC0034
:104C90000000FC000000FC000000FC0000007800A8
:104CA00000003000000000000000000000000000D4
:104CB00000000000000000000000000000000000F4
:104CC000000000007FFF0000FFFF8001FFFF800069
:104CD000FFFF00067FFE000F0000001F8000001F86
:104CE0008000001F8000001F8000001F8000001F48
:104CF0008000001F8000001F8000001F8000001F38
:104D00008000001F8000001F8000001F8000001F27
:104D10000000001CFFFF0011FFFFC007FFFFF013A2
:104D2000FFFFE01CFFFF8C1F00003C1F8000FC1FEA
:104D30008000FC1F8000FC1F8000FC1F8000FC1F07
:104D40008000FC1F8000FC1F8000FC1F8000FC1FF7
:104D50008000FC1F8000FC1F8000FC1F8000FC1FE7
:104D60008000FC0F000078067FFF3000FFFF80010D
:104D7000FFFFC000FFFF80007FFF00000000000079
:104D80000000000000000000000000000000000023
:104D9000FFFE0001FFFF0003FFFF0001FFFE000018
:104DA000FFFC000000000000000000000000000008
:104DB00000000000000000000000000000000000F3
:104DC00000000000000000000000000000000000E3
:104DD00000000000000000000000000000000000D3
:104DE00000000000000000000000000000000000C3
:104DF00000000000000000000000000000000000B3
:104E000000000000000000000000000000000000A2
:104E10000000000000000000000000000000000092
:104E20000000000000000000000000000000000082
:104E30000000000000000000000000000000000072
:104E40000000000000000000000000000000000062
:104E500000000000000000007FFF0000FFFF800155
:104E6000FFFF8000FFFF00067FFE000F0000001F15
:104E70008000001F8000001F8000001F8000001FB6
:104E80008000001F8000001F8000001F8000001FA6
:104E90008000001F8000001F8000001F8000001F96
:104EA0008000001E0000001C000000100000000038
:104EB00000000010000000180000001E0000001F8D
:104EC0008000001F8000001F8000001F8000001F66
:104ED0008000001F8000001F8000001F8000001F56
:104EE0008000001F8000001F8000001F8000001F46
:104EF0008000001F8000000F000000067FFF000000
:104F0000FFFF8001FFFFC000FFFF80007FFF000068
:104F10000000000000000000000000000000000091
:104F20007FFF0000FFFF8001FFFFC000FFFFB00018
:104F30007FFF78000000FC000000FC000000FC0087
:104F40000000FC000000FC000000FC000000FC0071
:104F50000000FC000000FC000000FC000000FC0061
:104F60000000FC000000FC000000FC0000003C0011
:104F700000000C0000000400000000000000000021
:104F800000000C0000003C000000FC000000FC00E1
:104F90000000FC000000FC000000FC000000FC0021
:104FA0000000FC000000FC000000FC000000FC0011
:104FB0000000FC000000FC000000FC000000FC0001
:104FC000000078007FFF3000FFFF8001FFFFC0007E
:104FD000FFFF80007FFF00000000000000000000D5
:104FE00000000000000000007FFF0000FFFF8001C4
:104FF000FFFFC000FFFFB0067FFF780F0000FC1F1F
:105000008000FC1F8000FC1F8000FC1F8000FC1F34
:105010008000FC1F8000FC1F8000FC1F8000FC1F24
:105020008000FC1F8000FC1F8000FC1F8000FC1F14
:105030008000FC1F00003C1CFFFF0C11FFFFC40799
:10504000FFFFF013FFFFE01CFFFF8C1F00003C1F61
:105050008000FC1F8000FC1F8000FC1F8000FC1FE4
:105060008000FC1F8000FC1F8000FC1F8000FC1FD4
:105070008000FC1F8000FC1F8000FC1F8000FC1FC4
:105080008000FC1F8000FC0F000078067FFF3000CE
:10509000FFFF8001FFFFC000FFFF80007FFF0000D7
:1050A0000000000000000000000000000000000000
:1050B00000000000000000000000000000000000F0
:1050C00000000000000000000000000000000000E0
:1050D00000000000000000000080000001800000CF
:1050E00001C0000003E0000003E0000003E0000056
:1050F00003E0000003E0000003E00000FFFF000108
:10510000FFFFC007FFFFF003FFFFE000FFFF80008D
:1051100003E0000003E0000003E0000003E0000003
:1051200003E0000003C0000001C000000180000097
:1051300000800000000000000000000000000000EF
:10514000000000000000000000000000000000005F
:10515000000000000000000000000000000000004F
:10516000000000000000000000000000000000003F
:10517000000000000000000000000000000000002F
:10518000000000000000000000000000000000001F
:10519000000000000000000000000000000000000F
:1051A00000000000000000000000000000000000FF
:1051B00000000000000000000000000000000000EF
:1051C00000000000000000000000000000000000DF
:1051D00000000000000000000000000000000000CF
:1051E00000000000000000000000000000000000BF
:1051F00000000000000000000000000000000000AF
:10520000000000000000000000000000000000009E
:10521000000000000070000000F8000001FC000029
:1052200001FC000001FC000000F80000007000001C
:10523000000000000000000000000000000000006E
:10524000000000000000000000000000000000005E
:10525000000000000000000000000000000000004E
:10526000000000000000000000000000000000003E
:10527000000000000000000000000000000000002E
:10528000000000000000000000000000FFFF00011F
:10529000FFFFC007FFFFF003FFFFE000FFFF8000FC
:1052A00000000000000000000000000000000000FE
:1052B00000000000000000000000000000000000EE
:1052C00000000000000000000000000000000000DE
:1052D00000000000000000000000000000000000CE
:1052E00000000000000000000000000000000000BE
:1052F00000000000000000000000000000000000AE
:10530000000000000000000000000000000000009D
:10531000000000000000000000000000000000008D
:10532000000000000000000000000000000000007D
:10533000000000000000000000000000000000006D
:10534000000000000000000000000000000000005D
:10535000000000000000000000000000000000004D
:10536000000000000000000000000000000000003D
:10537000000000000000000000000000000000002D
:10538000000000000000000000000000000000001D
:10539000000000000000000000000000000000000D
:1053A000000000000070000000F8000001FC000098
:1053B00001FC000001FC000000F80000007000008B
:1053C00000000000000000000000000000000000DD
:1053D0000000000000000000000010000000380085
:1053E00000007C000000FC000000FC000000FC004D
:1053F0000000FC000000FC000000FC000000FC00BD
:105400000000FC000000FC000000FC000000FC00AC
:105410000000FC000000FC0000003C007FFF0C01CD
:10542000FFFFC407FFFFF013FFFFE01CFFFF801F1B
:105430000000001F8000001F8000001F8000001F70
:105440008000001F8000001F8000001F8000001FE0
:105450008000001F8000001F8000001F8000001FD0
:105460008000001F8000001F8000000F0000000669
:10547000000000000000000000000000000000002C
:10548000000000000000000000000000000000001C
:1054900000000000000000007FFF0000FFFF80010F
:1054A000FFFFC000FFFFB0067FFF780F0000FC1F6A
:1054B0008000FC1F8000FC1F8000FC1F8000FC1F80
:1054C0008000FC1F8000FC1F8000FC1F8000FC1F70
:1054D0008000FC1F8000FC1F8000FC1F8000FC1F60
:1054E0008000FC1F00003C1C00000C1000000400A9
:1054F000000000100000001C00000C1F00003C1FFA
:105500008000FC1F8000FC1F8000FC1F8000FC1F2F
:105510008000FC1F8000FC1F8000FC1F8000FC1F1F
:105520008000FC1F8000FC1F8000FC1F8000FC1F0F
:105530008000FC1F8000FC0F000078067FFF300019
:10554000FFFF8001FFFFC000FFFF80007FFF000022
:10555000000000000000000000000000000000004B
:10556000000000000000000000000000000030000B
:10557000000078000000FC000000FC000000FC00BF
:105580000000FC000000FC000000FC000000FC002B
:105590000000FC000000FC000000FC000000FC001B
:1055A0000000FC000000FC000000FC0000003C00CB
:1055B00000000C00000004000000000000000000DB
:1055C00000000C0000003C000000FC000000FC009B
:1055D0000000FC000000FC000000FC000000FC00DB
:1055E0000000FC000000FC000000FC000000FC00CB
:1055F0000000FC000000FC000000FC000000FC00BB
:1056000000007800000030000000000000000000F2
:10561000000000000000000000000000000000008A
:1056200000000000000000007FFF0000FFFF80017D
:10563000FFFFC000FFFFB0007FFF78000000FC000C
:105640000000FC000000FC000000FC000000FC006A
:105650000000FC000000FC000000FC000000FC005A
:105660000000FC000000FC000000FC000000FC004A
:105670000000FC0000003C00FFFF0C01FFFFC4071E
:10568000FFFFF013FFFFE01CFFFF801F0000001F63
:105690008000001F8000001F8000001F8000001F8E
:1056A0008000001F8000001F8000001F8000001F7E
:1056B0008000001F8000001F8000001F8000001F6E
:1056C0008000001F8000000F000000067FFF000028
:1056D000FFFF8001FFFFC000FFFF80007FFF000091
:1056E00000000000000000000000000000000000BA
:1056F0007FFF0000FFFF8001FFFFC000FFFFB00041
:105700007FFF78000000FC000000FC000000FC00AF
:105710000000FC000000FC000000FC000000FC0099
:105720000000FC000000FC000000FC000000FC0089
:105730000000FC000000FC000000FC0000003C0039
:10574000FFFF0C01FFFFC407FFFFF003FFFFE000B6
:10575000FFFF8C0000003C000000FC000000FC008B
:105760000000FC000000FC000000FC000000FC0049
:105770000000FC000000FC000000FC000000FC0039
:105780000000FC000000FC000000FC000000FC0029
:10579000000078007FFF3000FFFF8001FFFFC000A6
:1057A000FFFF80007FFF00000000000000000000FD
:1057B00000000000000000000000000000000000E9
:1057C00000000000000030060000780F0000FC1F01
:1057D0008000FC1F8000FC1F8000FC1F8000FC1F5D
:1057E0008000FC1F8000FC1F8000FC1F8000FC1F4D
:1057F0008000FC1F8000FC1F8000FC1F8000FC1F3D
:105800008000FC1F00003C1CFFFF0C11FFFFC407C1
:10581000FFFFF003FFFFE000FFFF8C0000003C00F3
:105820000000FC000000FC000000FC000000FC0088
:105830000000FC000000FC000000FC000000FC0078
:105840000000FC000000FC000000FC000000FC0068
:105850000000FC000000FC000000780000003000A8
:105860000000000000000000000000000000000038
:105870000000000000000000000000000000000028
:105880007FFF0000FFFF8001FFFFC000FFFF8006D9
:105890007FFF000F0000001F8000001F8000001F1E
:1058A0008000001F8000001F8000001F8000001F7C
:1058B0008000001F8000001F8000001F8000001F6C
:1058C0008000001F8000001F8000001F0000001CDF
:1058D000FFFF0011FFFFC007FFFFF003FFFFE00025
:1058E000FFFF8C0000003C000000FC000000FC00FA
:1058F0000000FC000000FC000000FC000000FC00B8
:105900000000FC000000FC000000FC000000FC00A7
:105910000000FC000000FC000000FC000000FC0097
:10592000000078007FFF3000FFFF8001FFFFC00014
:10593000FFFF80007FFF000000000000000000006B
:1059400000000000000000007FFF0000FFFF80015A
:10595000FFFFC000FFFF80067FFF000F0000001F59
:105960008000001F8000001F8000001F8000001FBB
:105970008000001F8000001F8000001F8000001FAB
:105980008000001F8000001F8000001F8000001F9B
:105990008000001F0000001CFFFF0011FFFFC00778
:1059A000FFFFF013FFFFE01CFFFF8C1F00003C1FF8
:1059B0008000FC1F8000FC1F8000FC1F8000FC1F7B
:1059C0008000FC1F8000FC1F8000FC1F8000FC1F6B
:1059D0008000FC1F8000FC1F8000FC1F8000FC1F5B
:1059E0008000FC1F8000FC0F000078067FFF300065
:1059F000FFFF8001FFFFC000FFFF80007FFF00006E
:105A00000000000000000000000000000000000096
:105A10007FFF0000FFFF8001FFFFC000FFFFB0001D
:105A20007FFF78000000FC000000FC000000FC008C
:105A30000000FC000000FC000000FC000000FC0076
:105A40000000FC000000FC000000FC000000FC0066
:105A50000000FC000000FC000000FC0000003C0016
:105A600000000C0000000400000000000000000026
:105A700000000C0000003C000000FC000000FC00E6
:105A80000000FC000000FC000000FC000000FC0026
:105A90000000FC000000FC000000FC000000FC0016
:105AA0000000FC000000FC000000FC000000FC0006
:105AB000000078000000300000000000000000003E
:105AC00000000000000000000000000000000000D6
:105AD00000000000000000007FFF0000FFFF8001C9
