:100000000C9475650D940B010D94E0000D94B500F2
:100010000D948A000D945F000D9434000D94090036
:100020000C94DEFF0C94A6650C94A6650C94A66552
:100030000C94A6650C944AFB0C94A6650C94A665DA
:100040000C94A6650C94A6650C94A6650C94A66504
:100050000C94A6650C94A6650C94A6650C9494FF6C
:100060000C94A6650C9478FA0C944FFA0C94A6653F
:100070000C94A6650C94A6650C94A6650C94A665D4
:100080000C94A6650C94A6650C94A6650C94A665C4
:100090000C94A6650C94A6650C94A6650D9471321B
:1000A0000C94A6650C94A6650C94A6650C94A665A4
:1000B0000C94A6650C94A6650C94A6650C94A66594
:1000C0000C94A6650C94A6650C94A6650C94A66584
:1000D0000C94A6650C94A6650C94A6650C94A66574
:1000E0000C94A665476B4A6B4F6B576B626B626BE8
:1000F000706B706B706B816B84939A93B093C693A3
:10010000DC93F29308941E94BA94EB941C954D954D
:100110007E95AF95E09511968E96F6972899589A08
:10012000889BB89CE89D0D9EBA9FF39F25A057A081
:1001300089A0BBA0EDA01FA151A183A1FFA130A266
:1001400061A292A2C3A2F4A225A356A387A3B8A337
:10015000FEA30EA514A625A72BA831A940AA47AA3D
:100160004EAA55AA28AD3EAD54AD6AAD80AD96AD50
:10017000ACADF6AD27AE58AE89AEBAAEEBAE1CAFA5
:1001800077AF18B0ABB03EB1D1B164B2F9B2BCC474
:10019000D2C4E8C4FEC414C52AC540C556C5A2C50C
:1001A000D3C504C635C666C697C6C8C6F9C652C703
:1001B00083C7B4C7E5C716C847C877C8A7C8F7E656
:1001C0001BE736E751E76CE787E7A2E7BDE72EE9D3
:1001D00049E964E97FE99AE9B5E9D0E9EBE918EA88
:1001E0001BEA1EEA21EA24EA27EA2AEA2DEA49F96B
:1001F0004CF93BF93FF945F983F950F954F95AF9AB
:100200005EF962F968F96CF970F983F976F97AF9AF
:100210007EF90D942C0B0D9436530D94010B0D9417
:1002200037530D94592E0D947D2E0D94842F0D94DB
:10023000D30D0D94EA2E0D94692E0D94B42E0D94C9
:100240005A2E0D946A0B0D94E22E0D94EF2D0D9401
:10025000102E0D94262E0D94E9620D94B7640D9422
:10026000852E0D948D2F00407A10F35A00A0724E07
:1002700018090010A5D4E80000E87648170000E44B
:100280000B54020000CA9A3B000000E1F505000093
:1002900080969800000040420F000000A0860100F8
:1002A0000000102700000000E803000000006400C8
:1002B000000000000A000000000001000000000033
:1002C0002C76D888DC674F0823DFC1DFAE59E1B157
:1002D000B796E5E3E453C63AE651997696E8E6C266
:1002E0008426EB898C9B62ED407C6FFCEFBC9C9F6D
:1002F00040F2BAA56FA5F490055A2AF75C936B6C8F
:10030000F9676DC11BFCE0E40D47FEF520E6B50082
:10031000D0ED902E0300943577050080841E0800F0
:1003200000204E0A000000C80C333333330F986EA0
:1003300012831141EF8D2114893BE65516CFFEE65D
:10034000DB18D1844B381BF77C1D901DA4BBE42423
:10035000203284725E228100C9F124ECA1E53D27A0
:10036000000000000000000000000000000000008D
:10037000000000000000000000000000000000007D
:10038000000000000000000000000000000000006D
:10039000000000000000000000000000000000005D
:1003A000000000000000000000000000000000004D
:1003B0000000000000000000000000004108821062
:1003C000A210C318E3180419E318C318E31861084E
:1003D000000000000000000000000000000000001D
:1003E000000000000000000000000000000000000D
:1003F000000000000000000000000000A210242106
:100400006529083AAA522C638E73AE730C63284296
:10041000AA52CF7BCB5282100000000000000000E7
:1004200000000000000000000000000000000000CC
:100430000000000000000000000000002000E7397C
:10044000694AAA52718C96ADF7BD18C638C638C62F
:1004500018BED7B514A5B29496B575ADE7390000AE
:10046000000000000000000000000000000000008C
:100470000000000000000000000000000000410833
:100480002C63CF73518CF7BD38C679CEDBDE3CE7E9
:100490007DEF5DEF1CE7BAD638C6F7BD96B538C616
:1004A000FBDECB5A0000000000000000000000004E
:1004B000000000000000000000000000000000003C
:1004C00000008D6BD39434A538C638C61CE7FFFFF7
:1004D000FFFFFFFFFFFFFFFFFFFFFFFF9EF79AD623
:1004E000F7BDB6B559CE5DEFAA520000000000007E
:1004F00000000000000000000000000000000000FC
:1005000000000000694A34A575AD38C638C6BEF78C
:10051000FFFFFBDE718C8A4AA631C739CB52D39CD0
:100520005DEFFFFFDBDEF7BDB6B5BAD6DBDE8631A9
:1005300000000000000000000000000000000000BB
:10054000000000000000C318F39C55A538C6F7BD95
:10055000BEF7DFFF718CC318000000000000000030
:1005600000000000042155ADFFFF9AD6B6B5D7BDF7
:100570007DEF34A5410000000000000000000000F5
:10058000000000000000000000004D6B75ADF7BDDD
:10059000D7BD1CE79EF78D6B000000000000000037
:1005A000000000000000000000002000D39CDFFFDE
:1005B000D7BDB6B579CE7DEF4942000000000000FE
:1005C0000000000000000000000000006108F39C33
:1005D00075AD18C638C6FFFF51840000000000004A
:1005E000000000000000000000000000000000000B
:1005F000610818C69AD696B5F7BD9EF7D39C000041
:1006000000000000000000000000000000000000EA
:10061000A63175ADB6B5F7BD1CE779CE0421000053
:1006200000000000000000000000000000000000CA
:100630000000000000008A529AD634A5F7BD1CE7DE
:100640009AD6C3180000000000000000000000005F
:1006500000000000CB5A96B5F7BD18C6BEF710844F
:10066000000000000000000000000000000000008A
:1006700000000000000000000000821018C655AD08
:10068000F7BD9AD67DEFC7390000000000000000DA
:1006900000000000000000004D6BB6B5F7BD58C665
:1006A000BEF72C6300000000000000000000000006
:1006B000000000000000000000000000000000003A
:1006C00034A5B6B5F7BD59CEBEF7694A00000000A3
:1006D0000000000000000000000000006D6B96B5F7
:1006E000F7BD59CEBEF7EB5A000000000000000035
:1006F00000000000000000000000000000000000FA
:1007000000000000D39CF7BDD7BD59CEBEF78A527A
:1007100000000000000000000000000000000000D9
:100720006D6B96B5F7BD59CEBEF7EB5A00000000D1
:1007300000000000000000000000000000000000B9
:100740000000000000000000D39CF7BDD7BD59C6D3
:10075000BEF78A5200000000000000000000000008
:10076000000000006D6B96B5F7BD59CEBEF7EB5A91
:100770000000000000000000000000002000200039
:10078000000000000000000000000000D39CF7BD46
:10079000D7BD38C69EF78A52000000000000000056
:1007A00000000000000000006D6B96B5D7BD38C694
:1007B000BEF7EB5A00004108E318A631494ACB5A6C
:1007C0004D6B8E736D6B2C63694A86316108000036
:1007D000D39CF7BDB6B538C69EF78A4A0000000024
:1007E0000000000000000000000000006D6B96ADEE
:1007F000D7BD59CE5DEFAA5286318A524D6BEF7B41
:10080000518CB29414A575ADB6B518C638C6F7BDEF
:1008100034A56D6B929434A5D7BD38C69EF7694A4E
:1008200000000000000000000000000000000000C8
:100830006D6B96B5F7BDD39C4D6BAA522C63AE730E
:10084000EF7B1084518CB294F39C55ADB6B518C6AD
:1008500079CEDBDE3CE73CE759CEF39C14A518C605
:100860009EF7694A00000000000000000000000040
:10087000000000008E7375AD1084EB5A4D6BAE73A3
:100880008E738E73AE73EF7B518CB29434A596B594
:10089000F7BD59CE9AD6DBDE1CE77DEFBEF79EF79B
:1008A00059CE75AD3CE7694A000000000000000029
:1008B00000000000000000004C6310846D6B308469
:1008C0003084EF7BAE738E73CF7BEF7BEF7BCF7B80
:1008D000EF7B3084929475AD59CE3CE79EF79EF73E
:1008E000BEF7DFFFFFFF5DEF39C6084200000000E2
:1008F000000000000000000000000000694A518C68
:10090000F39CB294518C1084EF7B0C632842C7395E
:10091000C739A631C73986312421242186310C6399
:1009200096B5BEF7FFFFDFFFFFFFFFFFDFFF518C34
:100930000000000000000000000000000000863100
:10094000B29496B555ADF39CD39C3084284265296A
:1009500028428A5228428631652904218210A21039
:10096000A21061088210CB5AFBDEFFFFFFFFFFFFE2
:10097000FFFFFFFF4D6B00000000000000000000C3
:10098000A210718C38C6F7BD96B575AD9294C73973
:10099000E739EB5A8A522842A6312421A63145294B
:1009A000200000000000000061084108863179CE77
:1009B000FFFFDFFFBEF7DFFF3CE7A63100000000CE
:1009C000000000002C6359CEBAD659CE38C655ADBA
:1009D000A631C7392C634D6BCB5A2842E739863193
:1009E0006529042161080000000020008210A21087
:1009F000200045299AD6FFFF7DEF5DEF9EF7B6B543
:100A00002000000000002421B6B53CE7FBDEBAD68A
:100A10009AD6694A8631CB5A0C6330842C638A5249
:100A20008A52694A0842A631E31820000000610892
:100A30002421A210E318821028423CE75DEFFBDE80
:100A4000DBDE3CE7AA52000000002C635DEF7DEF87
:100A50003CE77DEF718CE318694AAA52EB5AEB5AD6
:100A60008A52EB5A4D6B4D6B1084D39CD39CAE7362
:100A7000E31800008210042165298631C318108410
:100A80003CE79AD679CEBAD675AD0000410855AD8F
:100A9000DFFFBEF7BEF73CE7A63165290842694A89
:100AA000694AE739EB5A518C518C34A538C69AD62D
:100AB000FBDE7DEFDBDE084200004529C739E73960
:100AC000C739C73918C659CEF7BDD7BDBAD64529DB
:100AD0004529BAD6FFFFDFFFFFFF14A58210652965
:100AE000C739E73945290842B6B579CE7DEFFFFF12
:100AF000FFFFFFFFFFFFBEF7FFFF5DEFA631C3184B
:100B0000494A8A52694AA631108418C696B555AD2D
:100B100079CE0C63694A9EF7FFFFFFFFFFFF0C636E
:100B200082108631AA524529821034A5DFFFFFFFCB
:100B3000FFFFFFFFDFFF9EF73CE7FBDE9AD6BEF725
:100B400096B50421AA52CF7B0C63694AEB5A75AD66
:100B500014A5D39CD7BD518C6D6BFFFFFFFFFFFF2A
:100B6000BEF7C7396108C318863141088631BEF720
:100B7000FFFFBEF77DEF1CE7BAD679CE38C618C6A0
:100B800018C69AD679CE694A494A6D6B0C630C63D4
:100B9000AA52F39C9294718C14A514A51084DFFFC3
:100BA000FFFFFFFF5DEF04216108410841080000DD
:100BB0000C63FFFFFBDE9AD659CE18C618C618C6BE
:100BC00059CE9AD6DBDE1CE7D7BD0C63494A0C63CD
:100BD0000C636D6BAA52929430841084929455AD3C
:100BE000518CBEF7BEF7DFFF1CE7E3188210000050
:100BF000000000004D6B3CE738C618C638C679CEF9
:100C0000BAD61CE75DEFBEF7FFFFDFFFF39CCB5AC0
:100C1000694ACB5ACB5A8E73EB5A3084CF7BCF7B49
:100C2000308434A510847DEF5DEF7DEFFBDE242161
:100C30006108000000000000AA5238C679CEFBDE31
:100C40003CE79EF7DFFFFFFFFFFFFFFFFFFF7DEFAA
:100C5000CF7B8A52494A694A694A4D6BCB5A108404
:100C60008E738E733084B2946D6B3CE71CE71CE787
:100C7000FBDE0842A2104108042161088631B294CB
:100C800018C6FFFFFFFFFFFFFFFFFFFFDFFFBEF7FD
:100C9000DFFFB6B58E73084228420C6328424D6BC5
:100CA000CB5AEF7B6D6B6D6B718CEF7B694ABAD65B
:100CB000BAD69AD6DBDE0C63E318C3180421A2105F
:100CC00045290C633084DBDEFFFFDFFF9EF77DEFFD
:100CD0003CE71CE79AD614A50C634529A631494A7E
:100CE00028420C63EB5ACF7B6D6B4D6BF39CCB5A58
:100CF000652918C659CE38C659CEB2944529242143
:100D00008210C318863128422C63EF7B38C61CE75B
:100D1000FBDEBAD6BAD6DBDEBAD692940421C3186B
:100D2000A210C31808428A526D6BEF7BAE738E73AC
:100D300055AD65294108F39CF7BDB6B596B5B6B576
:100D40000842C7392421242186312842694AEB5AB6
:100D50001084B6B5FBDE9EF7FFFF7DEF718C82102D
:100D6000200020004108C318494A28429294EF7B92
:100D7000CF7B3084F39C410800004D6BB6B555AD78
:100D800034A534A5EF7BA631694A8631E739AA52EA
:100D9000CB5A694A2842EB5AEF7B518C6D6B45293F
:100DA00000002000821000002000C739C739AE7350
:100DB000D39C518C108455AD4D6B0000000065290B
:100DC00055ADF39CD39C9294B2948A52494ACB5A23
:100DD00028428E734D6BEB5AAA52C73904218210F8
:100DE000200041084108E31824210000E318652988
:100DF000694A75AD14A5B294D39CB6B5E31800004A
:100E000000000000EF7B34A5718C518C108410849D
:100E1000E7398A526D6BEB5AEB5A0C630C63EB5A51
:100E20002C63AA5286312421A21041088210242169
:100E3000E318C739B6B5D7BD75AD14A518C66D6B27
:100E40000000000000000000042155AD718CEF7B14
:100E5000CF7BAE73AE73084228424D6B2C632C637C
:100E60000C63CB5A2C63CB5AA6312421E318A21071
:100E7000C3186108084238C6BAD618C6B6B538C60F
:100E800034A54108000000000000000000008A5264
:100E9000D7BDCF7B8E738E738E738E73694AA631E6
:100EA000494AEB5AEB5AAA52AA522842863165297E
:100EB000E3188210C318CF7B3CE75DEFDBDE79CE11
:100EC00079CE79CE65290000000000000000000006
:100ED00000000000AE73D7BDAE734D6B6D6B8E73AB
:100EE000CF7B8E73AA520842C739A631A631652935
:100EF0000421452908421084DBDEFFFFBEF75DEFC9
:100F00001CE71CE7FBDE494A00000000000000006F
:100F100000000000000000000000AE7318C6EF7B68
:100F20004D6B8E73CF7B10849294D39CF39C14A54D
:100F300014A575AD18C6FBDEBEF7FFFFFFFFFFFF70
:100F4000BEF79EF7BEF7FBDE494A00000000000036
:100F50000000000000000000000000000000000091
:100F60008A52F7BD14A5CF7BAE731084718CF39CAD
:100F700075ADF7BD79CEFBDE5DEF9EF7DFFFFFFFBE
:100F8000FFFFFFFFFFFFFFFF18C6863100000000D4
:100F90000000000000000000000000000000000051
:100FA000000000000000E3183084D7BD55ADB294B6
:100FB0009294F39C55ADD7BD59CEBAD61CE77DEFC0
:100FC000BEF7FFFFFFFFFFFF3CE7CF7B8210000073
:100FD0000000000000000000000000000000000011
:100FE00000000000000000000000000000000421DC
:100FF0008E7355AD18C638C638C659CEBAD61CE75A
:101000007DEFDFFFFFFFBEF779CEEF7BE318000037
:1010100000000000000000000000000000000000D0
:1010200000000000000000000000000000000000C0
:1010300000000000000041086529CB5ACF7B929444
:1010400014A534A5F39C30842C638631410800003C
:101050000000000000000000000000000000000090
:101060000000000000000000000000000000000080
:101070000000000000000000000000000000000070
:101080000000000000000000000000000000000060
:101090000000000000000000000000000000000050
:1010A0000000000000000000080C20173CE781BD94
:1010B00081BD81BD81BD81FF3CE7818181BD81BD55
:1010C00081BD81FF3CE78181818181BD81BD81FF3F
:1010D0003CE781818181818181BD81FF3CE7818104
:1010E00081818181818181FFFFFF003F3F000F0FE0
:1010F000000303000000003F3F000F0F0003030048
:101100000000000000000F0F0003030000000000BB
:101110000000000000030300000010101010105425
:10112000381000000000103854101010101000008B
:101130000000000010087C08100000000000000003
:1011400010207C20100000000000003C0C142444FF
:1011500080000000000000804424140C3C000000CB
:1011600000003C42A581A599423C000000003C7E65
:10117000DBFFFFDB663C000000003C42A58199A537
:10118000423C000000003C7EDBFFFFE75A3C0000D1
:1011900000003C4281818181423C000000003C7E95
:1011A000FFFFFFFF7E3C00000000FF818181818105
:1011B00081FF00000000FFFFFFFFFFFFFFFF0000B7
:1011C0001CE79EF79EF79EF79EF79EF79EF79EF709
:1011D0007EF79EF79EF79DF79DEF9EEF7EF79EF7B9
:1011E0007EF79EEF9EF79EF77EF79DEF7EF79DF7C9
:1011F0007EF77EF79EF79DEF9EF77EF77EF79EEFD8
:101200009EEF9DF77EF79EF79DEF9EF79DEF9EF771
:101210009EF79EF79EF79EF79EF79EF79EF79EF726
:101220009EF71CE7BEF7FFFFFFFFFFFFFFFFFFFF7B
:10123000FFFFFFFFFFFFFFFFFFFFFFFFFFFFFFFFBE
:10124000FFFFFFFFFFFFFFFFFFFFFFFFFFFFFFFFAE
:10125000BFF75DE71DD73DDF9DEFFFFFFFFFFFFFFE
:10126000FFFFFFFFFFFFFFFFFFFFFFFFFFFFFFFF8E
:10127000FFFFFFFFFFFFFFFFFFFFFFFFFFFFFFFF7E
:10128000FFFFFFFFFFFFBEF79EF7FFFFFFFFFFFF20
:10129000FFFFFFFFFFFFFFFFFFFFFFFFFFFFFFFF5E
:1012A000FFFFFFFFFFFFFFFFFFFFFFFFFFFFFFFF4E
:1012B0005DE79995F7537733DA3BB83BB743B77C93
:1012C0009BC6FFFFFFFFFFFFFFFFFFFFFFFFFFFFCB
:1012D000FFFFFFFFFFFFFFFFFFFFFFFFFFFFFFFF1E
:1012E000FFFFFFFFFFFFFFFFFFFF9EF79EF7FFFFE0
:1012F000FFFFFFFFFFFFFFFFFFFFFFFFFFFFFFFFFE
:10130000FFFFFFFFFFFFDFFFBCD6DAA57A8D7A85EE
:101310005A85D974D743352BD51AD61A3343333B64
:10132000D512F522763BB8749A9DDBA5FBA51AB6BB
:10133000FCCEDFF7FFFFFFFFFFFFFFFFFFFFFFFF19
:10134000FFFFFFFFFFFFFFFFFFFFFFFFFFFF9EF716
:101350009EF7FFFFFFFFFFFFFFFFFFFFFFFFFFFF06
:10136000FFFFFFFFFFFFFFFFFFFF989DD453D42235
:101370001813992379235A13591BD622B42AB2631E
:101380004883C86A7353F51A181B3923591B5B4CE1
:101390003944F712553B5574DCD6FFFFFFFFFFFFC2
:1013A000FFFFFFFFFFFFFFFFFFFFFFFFFFFFFFFF4D
:1013B000FFFF9EF79EF7FFFFFFFFFFFFFFFFFFFF0F
:1013C000FFFFFFFFFFFFFFFFFFFFFFFF9EEFF45B4D
:1013D00075437543562B792BBA23591B381BB51A05
:1013E000D03A8E6BAD7B2B634E53B122381B7A1BE8
:1013F0009B1BBD4C5B547633753B133B566CFFFF18
:10140000FFFFFFFFFFFFFFFFFFFFFFFFFFFFFFFFEC
:10141000FFFFFFFFFFFF9EF79EF7FFFFFFFFFFFFAE
:10142000FFFFFFFFFFFFFFFFFFFFFFFFFFFFFFFFCC
:101430009BC6973B381B7633356CD5533823D61A69
:10144000931A52226C3AAD42146493532A324E2AB4
:101450009322B522F71AB93B3664D35BF52AD51A25
:10146000343B5DE7FFFFFFFFFFFFFFFFFFFFFFFFD5
:10147000FFFFFFFFFFFFFFFFFFFF9EF77DEFFFFF77
:10148000FFFFFFFFFFFFFFFFFFFFFFFFFFFFFFFF6C
:10149000FFFFFFFF9CC6B73B37239743546CD35BDA
:1014A000F52AB4229222524B8F630E53B57C947C62
:1014B0000D532F53B1327222D4223533D45BB34B48
:1014C000D4221723F32A9BCEFFFFFFFFFFFFFFFF6E
:1014D000FFFFFFFFFFFFFFFFFFFFFFFFFFFF9EF785
:1014E0009EF7FFFFFFFFFFFFFFFFFFFFFFFFFFFF75
:1014F000FFFFFFFFFFFFFFFF7DE7365C7833F75309
:101500005733592BB933194C1954B83B973B572BC8
:101510009964595C362BB83B194C795C983B582B35
:101520001623D32A143B1623D64B9EEFFFFFFFFF53
:10153000FFFFFFFFFFFFFFFFFFFFFFFFFFFFFFFFBB
:10154000FFFF9EF79EF7FFFFFFFFFFFFFFFFFFFF7D
:10155000FFFFFFFFFFFFFFFFFFFFFFFFDEFF18851D
:10156000753BF753371B5A1BBB1B1D65FE8DDB23D9
:101570007A133A133C75DB64FA125A239C545EA624
:10158000DB2B591B181BB4221233B51A3785FFFF0A
:10159000FFFFFFFFFFFFFFFFFFFFFFFFFFFFFFFF5B
:1015A000FFFFFFFFFFFF9EF79EF7FFFFFFFFFFFF1D
:1015B000FFFFFFFFFFFFFFFFFFFFFFFFFFFFFFFF3B
:1015C000FFFFBEF77BBE3A85792B7A1B9C1B7E7D85
:1015D000BEBEDB2B7A133A1BBB647B545A1B5A13D7
:1015E0009C4CFEC61B3C7A1B391BF622566CBAA5D6
:1015F0009EEFFFFFFFFFFFFFFFFFFFFFFFFFFFFF6C
:10160000FFFFFFFFFFFFFFFFFFFF9EF79EF7FFFFBC
:10161000FFFFFFFFFFFFFFFFFFFFFFFFFFFFFFFFDA
:10162000FFFFFFFFFFFFFFFFFFFFDCCE78337A23D2
:10163000BB235C3CBC54DC239B1B7A23BB23BA2B0F
:10164000BB23BC1BFC2B5B4CBB2B7A23381BD52A42
:10165000DBCEFFFFFFFFFFFFFFFFFFFFFFFFFFFFEF
:10166000FFFFFFFFFFFFFFFFFFFFFFFFFFFF9EF7F3
:101670009EF7FFFFFFFFFFFFFFFFFFFFFFFFFFFFE3
:10168000FFFFFFFFFFFFFFFFFFFFFFFFFFFF9EF7D3
:10169000B96C782B591B5A135B137A13791B792B6E
:1016A000792B9823992B99237A135A1359131813CA
:1016B0003723D77CBEF7FFFFFFFFFFFFFFFFFFFFD2
:1016C000FFFFFFFFFFFFFFFFFFFFFFFFFFFFFFFF2A
:1016D000FFFF9EF79EF7FFFFFFFFFFFFFFFFFFFFEC
:1016E000FFFFFFFFFFFFFFFFFFFFFFFFFFFFFFFF0A
:1016F000FFFFFFFFFFFFFDCEFBA5BC8DBC8DFC9562
:1017000017856B328B4A2A3AEE421BAEFC9D1B9E1C
:10171000FC9D1BAE3DDFFFFFFFFFFFFFFFFFFFFF55
:10172000FFFFFFFFFFFFFFFFFFFFFFFFFFFFFFFFC9
:10173000FFFFFFFFFFFF9EF79EF7FFFFFFFFFFFF8B
:10174000FFFFFFFFFFFFFFFFFFFFFFFFFFFFFFFFA9
:10175000FFFFFFFFFFFFFFFFFFFFFFFFFFFFFFFF99
:101760005BEF94B54B6BE54188622752E6410E8CE6
:1017700094BDDDF7FFFFFFFFFFFFFFFFFFFFFFFF50
:10178000FFFFFFFFFFFFFFFFFFFFFFFFFFFFFFFF69
:10179000FFFFFFFFFFFFFFFFFFFF9EF79EF7FFFF2B
:1017A000FFFFFFFFFFFFFFFFFFFFFFFFFFFFFFFF49
:1017B000FFFFFFFFFFFFFFFFFFFFFFFFFFFFFFFF39
:1017C000FFFF99D68C73A952C639A639885A064AA2
:1017D00044290742884A0E849DF7FFFFFFFFFFFF61
:1017E000FFFFFFFFFFFFFFFFFFFFFFFFFFFFFFFF09
:1017F000FFFFFFFFFFFFFFFFFFFFFFFFFFFF9EF762
:101800009EF7FFFFFFFFFFFFFFFFFFFFFFFFFFFF51
:10181000FFFFFFFFFFFFFFFFFFFFFFFFFFFFFFFFD8
:10182000FFFFFFFFFFFF11A5E8628952684A474AA0
:101830006852474A2742484A2742474A38CEFFFF64
:10184000FFFFFFFFFFFFFFFFFFFFFFFFFFFFFFFFA8
:10185000FFFFFFFFFFFFFFFFFFFFFFFFFFFFFFFF98
:10186000FFFF9EF79EF7FFFFFFFFFFFFFFFFFFFF5A
:10187000FFFFFFFFFFFFFFFFFFFFFFFFFFFFFFFF78
:10188000FFFFFFFFFFFFFFFFFFFFF1A4286B0863CF
:10189000CB8391BD76D613CEAD9C496B8752465211
:1018A00094B5FFFFFFFFFFFFFFFFFFFFFFFFFFFFFD
:1018B000FFFFFFFFFFFFFFFFFFFFFFFFFFFFFFFF38
:1018C000FFFFFFFFFFFF9EF79EF7FFFFFFFFFFFFFA
:1018D000FFFFFFFFFFFFFFFFFFFFFFFFFFFFFFFF18
:1018E000FFFFFFFFFFFFFFFFFFFFFFFFFFFFF0A472
:1018F000497B69730B9490BDB4E611D6ACAC897B7F
:10190000C85A674A32A5FFFFFFFFFFFFFFFFFFFF37
:10191000FFFFFFFFFFFFFFFFFFFFFFFFFFFFFFFFD7
:10192000FFFFFFFFFFFFFFFFFFFF9EF79EF7FFFF99
:10193000FFFFFFFFFFFFFFFFFFFFFFFFFFFFFFFFB7
:10194000FFFFFFFFFFFFFFFFFFFFFFFFFFFFFFFFA7
:10195000FFFFCF9C487B697B2B8C0EB58EBD6EBD87
:10196000AC9C897BC75A6752F1A4FFFFFFFFFFFFC2
:10197000FFFFFFFFFFFFFFFFFFFFFFFFFFFFFFFF77
:10198000FFFFFFFFFFFFFFFFFFFFFFFFFFFF9EF7D0
:101990009EF7FFFFFFFFFFFFFFFFFFFFFFFFFFFFC0
:1019A000FFFFFFFFFFFFFFFFFFFFFFFFFFFFFFFF47
:1019B000FFFFFFFFFFFF6E94697B8A830B8C4B9CBC
:1019C0002FB5CDA4C97B486B0863C75A4F8CFFFF66
:1019D000FFFFFFFFFFFFFFFFFFFFFFFFFFFFFFFF17
:1019E000FFFFFFFFFFFFFFFFFFFFFFFFFFFFFFFF07
:1019F000FFFF9EF79EF7FFFFFFFFFFFFFFFFFFFFC9
:101A0000FFFFFFFFFFFFFFFFFFFFFFFFFFFFFFFFE6
:101A1000FFFFFFFFFFFFFFFFFFFF4E948983EA8B6D
:101A2000CA83897BEFA42C8CC862286B086BA75AE9
:101A30002F84FFFFFFFFFFFFFFFFFFFFFFFFFFFF01
:101A4000FFFFFFFFFFFFFFFFFFFFFFFFFFFFFFFFA6
:101A5000FFFFFFFFFFFF9EF79EF7FFFFFFFFFFFF68
:101A6000FFFFFFFFFFFFFFFFFFFFFFFFFFFFFFFF86
:101A7000FFFFFFFFFFFFFFFFFFFFFFFFFFFF8F9C49
:101A80008A83CA8BEA8BCA838CA46C9C08734973C3
:101A90002873086B54ADFFFFFFFFFFFFFFFFFFFF41
:101AA000FFFFFFFFFFFFFFFFFFFFFFFFFFFFFFFF46
:101AB000FFFFFFFFFFFFFFFFFFFF9EF79EF7FFFF08
:101AC000FFFFFFFFFFFFFFFFFFFFFFFFFFFFFFFF26
:101AD000FFFFFFFFFFFFFFFFFFFFFFFFFFFFFFFF16
:101AE000FFFFFADE0C8C6983A983CA83ACA44B94F4
:101AF00048730873E86253B5FFFFFFFFFFFFFFFF66
:101B0000FFFFFFFFFFFFFFFFFFFFFFFFFFFFFFFFE5
:101B1000FFFFFFFFFFFFFFFFFFFFFFFFFFFF9EF73E
:101B20009EF7FFFFFFFFFFFFFFFFFFFFFFFFFFFF2E
:101B3000FFFFFFFFFFFFFFFFFFFFFFFFFFFFFFFFB5
:101B4000FFFFFFFFFFFF7CEF4D948A7BCA838DA4CC
:101B50004FB5AEAC0B8C296BC8624E94BEF7FFFF3D
:101B6000FFFFFFFFFFFFFFFFFFFFFFFFFFFFFFFF85
:101B7000FFFFFFFFFFFFFFFFFFFFFFFFFFFFFFFF75
:101B8000FFFF9EF79EF7FFFFFFFFFFFFFFFFFFFF37
:101B9000FFFFFFFFFFFFFFFFFFFFFFFFFFFFFFFF55
:101BA000FFFFFFFFFFFFFFFFFFFF78D6697B697B29
:101BB000CA8BCDACD1C550B58DA46A7BE8622A6BC7
:101BC000F7C5FFFFFFFFFFFFFFFFFFFFFFFFFFFF67
:101BD000FFFFFFFFFFFFFFFFFFFFFFFFFFFFFFFF15
:101BE000FFFFFFFFFFFF9EF79EF7FFFFFFFFFFFFD7
:101BF000FFFFFFFFFFFFFFFFFFFFFFFFFFFFFFFFF5
:101C0000FFFFFFFFFFFFFFFFFFFFFFFFFADED0A494
:101C1000497B6A7B8A83B2C554DE70BD0FB5CFACF9
:101C200049732A6BEE8317C69DF7FFFFFFFFFFFF87
:101C3000FFFFFFFFFFFFFFFFFFFFFFFFFFFFFFFFB4
:101C4000FFFFFFFFFFFFFFFFFFFF9EF79EF7FFFF76
:101C5000FFFFFFFFFFFFFFFFFFFFFFFFFFFFFFFF94
:101C6000FFFFFFFFFFFFFFFFFFFFFFFF9DEF52ADF5
:101C7000CB838A7B297B497BAA8391BDEEACEEACFA
:101C80000FB5CEAC6A73A85AE9622A6B0E8C3CE79A
:101C9000FFFFFFFFFFFFFFFFFFFFFFFFFFFFFFFF54
:101CA000FFFFFFFFFFFFFFFFFFFFFFFFFFFF9EF7AD
:101CB0009EF7FFFFFFFFFFFFFFFFFFFFFFFFFFFF9D
:101CC000FFFFFFFFFFFFFFFFFFFFFFFFFFFFFFFF24
:101CD00073B58A7BCB836A730863086B09738DA421
:101CE0008C9CCDACEDACEEAC2973685AE9624A73BA
:101CF000086B74ADFFFFFFFFFFFFFFFFFFFFFFFF5C
:101D0000FFFFFFFFFFFFFFFFFFFFFFFFFFFFFFFFE3
:101D1000FFFF9EF79EF7FFFFFFFFFFFFFFFFFFFFA5
:101D2000FFFFFFFFFFFFFFFFFFFFFFFFFFFFFFFFC3
:101D3000FFFFFFFF52AD8A7B8B7B4A73286B096BD9
:101D40002973EEACEEACCDACCDACEEAC6A73A85A58
:101D50000963296BE86213A5FFFFFFFFFFFFFFFF89
:101D6000FFFFFFFFFFFFFFFFFFFFFFFFFFFFFFFF83
:101D7000FFFFFFFFFFFF9EF79EF7FFFFFFFFFFFF45
:101D8000FFFFFFFFFFFFFFFFFFFFFFFFFFFFFFFF63
:101D9000FFFFFFFFFFFFFFFFD6BD697B6A7B497333
:101DA000286BC862C86A8983687B077307730773E7
:101DB000E862E862096BE8620A63FBDEFFFFFFFF8F
:101DC000FFFFDEFFDADEB9D65CEFFFFFFFFFFFFFAC
:101DD000FFFFFFFFFFFFFFFFFFFF9EF79EF7FFFFE5
:101DE000FFFFFFFFFFFFFFFFFFFFFFFF9DF7F6BDB8
:101DF000B4B594B59AD6FFFFFFFFFFFFBDF78D7B0B
:101E0000096B6A7BAB7BEB8BCB8B2C946D946C9CBE
:101E10006C9C0B94CB838A7B296BA85AEA6238C6E8
:101E200099D678CE37C64F8CC962C95ACD7B9DF7FB
:101E3000FFFFFFFFFFFFFFFFFFFFFFFFFFFF9EF71B
:101E40009EF7FFFFFFFFFFFFFFFFFFFFFFFFFFFF0B
:101E500016CEE86AE86AA862EA62B19CF1A4B09C76
:101E6000B09C2A6BE95A4C6BCC73EC834D8CAF9CC5
:101E700072BD30B5AFA42D8CCB7B4A6BC852474A9C
:101E80000642E86209630963E95AA85AA85AA85A9F
:101E9000885A58CEFFFFFFFFFFFFFFFFFFFFFFFF46
:101EA000FFFF9EF79EF7FFFFFFFFFFFFFFFFFFFF14
:101EB000FFFFFFFF73B5E862296B096BC85AC85A68
:101EC0004A73296B296BE96AA85AE86A296B8B7BEC
:101ED0002D846D8C51ADEFA44D8CEB7B8A73E86A39
:101EE000A75A464A464AC85A8752A8528852A85A00
:101EF000C85AC85A675253ADFFFFFFFFFFFFFFFFED
:101F0000FFFFFFFFFFFF9EF79EF7FFFFFFFFFFFFB3
:101F1000FFFFFFFFFFFFFFFF32AD296B6973096B06
:101F2000C862C95AE9620963E8626973E86AE86AE3
:101F3000287B8A832A94CCACECACECAC8CA4EA8BE6
:101F4000697B2873C7626752C862096B88526752FF
:101F5000A852C962C962C8626752D19CFFFFFFFFE5
:101F6000FFFFFFFFFFFFFFFFFFFF9EF79EF7FFFF53
:101F7000FFFFFFFFFFFFFFFFFFFFFFFFF1A408636D
:101F80004A730963C962C962296B2A6B096B697B51
:101F90004873287389830A944A9C8BA4CCA4ACAC64
:101FA0000A94AA838983487B0773C7624973897B34
:101FB0004973086B696B4973A85AC8626752909459
:101FC000FFFFFFFFFFFFFFFFFFFFFFFFFFFF9EF78A
:101FD0009EF7FFFFFFFFFFFFFFFFFFFFFFFFFFFF7A
:101FE00012A5E862296B2963C9626A73CB83EB8B04
:101FF0008A83497B0B8C887BA9832A948BA4EDB4BC
:102000000DB5EDB44C9C2B94CA8B697B2873687317
:10201000CA8B0A948CA42B948D9CCA8BC75AE962F4
:1020200088522F84FFFFFFFFFFFFFFFFFFFFFFFF2F
:10203000FFFF9EF79EF7FFFFFFFFFFFFFFFFFFFF82
:10204000FFFFFFFF52ADC85AE862C862E862EB8347
:10205000CEA40EADADA4EB8BEDAC0DB5C9832A9427
:10206000ACAC0DB58EC54DBD8CA44B94EB8B897B70
:10207000A983EDB46EBDEDACB0C58FC5AFC52B9CCB
:10208000E86A4A6B086B0E84FFFFFFFFFFFFFFFF4C
:10209000FFFFFFFFFFFF9EF79EF7FFFFFFFFFFFF22
:1020A000FFFFFFFFFFFFFFFF73BD8B7B2E8CCC83F9
:1020B0000973EEAC32D651D6CFC52EB5B5E615F7BD
:1020C0008FBDE9938CA40DB56EC52DBD8CA42B944A
:1020D000EA8BCA836FBDB4E6B3E6AFC551D693E6CB
:1020E00072DEACA40B9412CE2EB56D94DFFFFFFF11
:1020F000FFFFFFFFFFFFFFFFFFFF9EF79EF7FFFFC2
:10210000FFFFFFFFFFFFFFFFFFFFFFFFD4BDB0C5D5
:1021100093E672DECA8B91BD77F756F7D5DE70BDB8
:10212000FBFFFBFF36EFECB48BA4EDB46EBD0DB539
:102130006BA42B94CA8B0EAD35EF97F797F732D679
:1021400015EF76F776F74FBD6CA44DBDCBAC8E9CEA
:10215000BEF7FFFFFFFFFFFFFFFFFFFFFFFF9EF741
:102160009EF7FFFFFFFFFFFFFFFFFFFFFFFFFFFFE8
:1021700015CEAFC5D0D5AFCD0A8C91B576EFD8FFCF
:10218000D4DE4FB557F715EFF4EED0CD8CA4EDACFF
:102190006EC52DBDACAC2B940B8C8FC572E6D4EE06
:1021A000F4EEAFC593E6B2E6B1DE2EB5ACAC0DB53C
:1021B000CBAC8DA4BEF7FFFFFFFFFFFFFFFFFFFFCC
:1021C000FFFF9EF79EF7FFFFFFFFFFFFFFFFFFFFF1
:1021D000FFFFFFFF35CE0DB54EBD4FC52B9CADA407
:1021E00031D6B3E6F0CD8CA4D0CDF1D5F0D5B0CDBD
:1021F0000DB5EDB46EBD2EBDCCAC6B9C6C9C0DB51D
:102200006EC56FC5AFCDEDB40DB56FC58FC5ECAC68
:10221000ACACECAC8BA4ADA4BEF7FFFFFFFFFFFF9F
:10222000FFFFFFFFFFFF9EF79EF7FFFFFFFFFFFF90
:10223000FFFFFFFFFFFFFFFF56D60DB5EDAC0DB55D
:10224000ACA48CA4AFC5B0C52DBD4B9C0DB52EBDA7
:102250006FC52EBDEDB4ACACCCACEDACCCAC6B9CD6
:102260008CA4EDB40DB5EDB4EDB46BA4EDB44EBDDE
:102270006FC5ACACECB40DB50DB50EAD9DF7FFFF61
:10228000FFFFFFFFFFFFFFFFFFFF9EF79EF7FFFF30
:10229000FFFFFFFFFFFFFFFFFFFFFFFF76D6EDB45D
:1022A0000DB52DBDCDAC8CA4AFC56EC5ACA46BA4D3
:1022B000CDACCDB4EDB40DBDCCAC6CA48CA4ACA4B1
:1022C000ACAC8BA48CACACAC0EBD2EBDADAC2B9C21
:1022D000CDACCDB46BA42B9C0DB52DB50DB52FB5E4
:1022E0009DF7FFFFFFFFFFFFFFFFFFFFFFFF9EF7D1
:1022F0009EF7FFFFFFFFFFFFFFFFFFFFFFFFFFFF57
:1023000077D6CCACEDB40EB5ADAC6C9C4EB52EBD55
:102310004B9C2B9CADACADACADACCCAC8CA46BA44D
:10232000ACA48CA48CAC8CA44B9C8CA4ACAC0DB594
:10233000ACAC2B948CAC8CAC0A940B94EDB40DB576
:10234000ECB4EEAC7DF7FFFFFFFFFFFFFFFFFFFFE9
:10235000FFFF9EF79EF7FFFFFFFFFFFFFFFFFFFF5F
:10236000FFFFFFFF77D6ACAC0DB5EDB42B9C8A8395
:102370000A8C4B94EA938983CA8B0B940B940A942E
:102380000A9C0B9C2B942B9C2B9C2B9C0A940A94B0
:102390000A94EA8BAA83A983E98BEA8BAA83AA838E
:1023A000ACA4CDACEDACCEA4BEF7FFFFFFFFFFFFAA
:1023B000FFFFFFFFFFFF9EF79EF7FFFFFFFFFFFFFF
:1023C000FFFFFFFFFFFFFFFFB8D68CA4ACA4CCAC8F
:1023D0000A94497BAA83A983A98B697B6A7B898339
:1023E000AA8BAA8B8983AA8B8983AA83AA83CA8B87
:1023F000C983EA8BCB8BCC8B8B838983898389833D
:102400008983697B6B9CADA48C9CEFACDEF7FFFFEE
:10241000FFFFFFFFFFFFFFFFFFFF9EF79EF7FFFF9E
:10242000FFFFFFFFFFFFFFFFFFFFFFFFFAE64C94F8
:102430000B8C2B94C98BAA83EB8BEB83ED8B32AD8A
:1024400017C6F6BD94B5D5C5B4BDF5BDF6C5F5BD89
:1024500016C6B9D678CEBAD6FADE3CE71BDFD5BDB4
:1024600012A5D1A4AF9C2C8C4C942C8CEB8372B510
:10247000FFFFFFFFFFFFFFFFFFFFFFFFFFFF9EF7D5
:10248000BEF7FFFFFFFFFFFFFFFFFFFFFFFFFFFFA5
:10249000BEF7B5BD54B5B5BD36C6DADE3CE77DEF57
:1024A0009EF7FFFFFFFFFFFFFFFFFFFFFFFFFFFFA5
:1024B000FFFFFFFFFFFFFFFFFFFFFFFFFFFFFFFF2C
:1024C000FFFFFFFFFFFFFFFFDFFF7DEFFADEB9DE5B
:1024D00079CE5CEFFFFFFFFFFFFFFFFFFFFFFFFF76
:1024E000FFFFBEF71CE79EF79EF79EF79EF79EF74D
:1024F0009EF79EF79EF79EF79EF79EF79EF79EF734
:102500009EF79EF79EF79EF79EF79EF79EF79EF723
:102510009EF79EF79EF79EF79EF79EF79EF79EF713
:102520009EF79EF79EF79EF79EF79EF79EF79EF703
:102530009EF79EF77EF79EF79EF79EF79EF79EF713
:102540009EF79EF79EF71CE7FFFFFFFFFFFFFFFFD1
:10255000FFFFFFFFFFFFFFFFFFFFFFFFFFFFFFFF8B
:10256000FFFFFFFF59D6108C6D732C6BAA5AAA5A25
:10257000AA5A8D7BCE8313ADFBE6FFFFFFFFFFFF63
:10258000FFFFFFFFFFFFFFFFFFFFFFFFFFFFFFFF5B
:10259000FFFFFFFFFFFFFFFFFFFFFFFFFFFFFFFF4B
:1025A000FFFFFFFFFFFFFFFFFFFFFFFFFFFFFFFF3B
:1025B000FFFFFFFFFFFFFFFFFFFFFFFFFFFFFFFF2B
:1025C000FFFFFFFFFFFFFFFFEF834852308C8E7B42
:1025D000C3206210A2184852AA62074A518CFFFF1A
:1025E000DFFFFFFFFFFFFFFFFFFFFFFFFFFFFFFF1B
:1025F000FFFFFFFFFFFFFFFFFFFFFFFFFFFFFFFFEB
:10260000FFFFFFFFFFFFFFFFFFFFFFFFFFFFFFFFDA
:10261000FFFFFFFFFFFFFFFFFFFFFFFFFFFFFFFFCA
:10262000FFFFFFFFFFFFFFFFFFFFFFFFAE7B295212
:102630005194108C82100000410829528A5AC641D8
:102640001084FFFFFFFFFFFFFFFFFFFFFFFFFFFF04
:10265000FFFFFFFFFFFFFFFFFFFFFFFFFFFFFFFF8A
:10266000FFFFFFFFFFFFFFFFFFFFFFFFFFFFFFFF7A
:10267000FFFFFFFFFFFFFFFFFFFFFFFFFFFFFFFF6A
:10268000FFFFFFFFFFFFFFFFFFFFFFFFDFFFFFFF7A
:102690008E7B69527194108CA218000082106952CE
:1026A000CA62C741108CFFFFDFFFFFFFFFFFFFFF84
:1026B000FFFFFFFFFFFFFFFFFFFFFFFFFFFFFFFF2A
:1026C000FFFFFFFFFFFFFFFFFFFFFFFFFFFFFFFF1A
:1026D000FFFFFFFFFFFFFFFFFFFFFFFFFFFFFFFF0A
:1026E000FFFFFFFFFFFFFFFFFFFFFFFFFFFFFFFFFA
:1026F000FFFFDFFF2C6B295251940C63210800006F
:10270000611069520B6BC641AE7BDEFFFFFFFFFF1E
:10271000FFFFFFFFFFFFFFFFFFFFFFFFFFFFFFFFC9
:10272000FFFFFFFFFFFFFFFFFFFFFFFFFFFFFFFFB9
:10273000FFFFFFFFFFFFFFFFFFFFFFFFFFFFFFFFA9
:10274000FFFFFFFFFFFFFFFFFFFFFFFFFFFFFFFF99
:10275000FFFFFFFFB6BDEB62284A084A2C6BE7413A
:102760004108210841084529C739A63949528D73C6
:10277000B6BDFFFFFFFFFFFFFFFFFFFFFFFFFFFFF4
:10278000FFFFFFFFFFFFFFFFFFFFFFFFFFFFFFFF59
:10279000FFFFFFFFFFFFFFFFFFFFFFFFFFFFFFFF49
:1027A000FFFFFFFFFFFFFFFFFFFFFFFFFFFFFFFF39
:1027B000FFFFFFFFDFFFFFFF308C2429E741485276
:1027C000AA5A042121084108210800004108A6391D
:1027D000C641084AD39CFFFFDFFFFFFFFFFFFFFF5B
:1027E000FFFFFFFFFFFFFFFFFFFFFFFFFFFFFFFFF9
:1027F000FFFFFFFFFFFFFFFFFFFFFFFFFFFFFFFFE9
:10280000FFFFFFFFFFFFFFFFFFFFFFFFFFFFFFFFD8
:10281000FFFFFFFFFFFFFFFFDFFFFFFF9294853900
:10282000C7412852AA5A0421000021084108210862
:102830008210A639C6414952F3A4FFFFDFFFFFFF14
:10284000FFFFFFFFFFFFFFFFFFFFFFFFFFFFFFFF98
:10285000FFFFFFFFFFFFFFFFFFFFFFFFFFFFFFFF88
:10286000FFFFFFFFFFFFFFFFFFFFFFFFFFFFFFFF78
:10287000FFFFFFFFFFFFFFFFFFFFFFFFDFFFFFFF88
:10288000508C4531E7414852AA5A042121082108B9
:10289000210821086210A639E741084AB29CFFFFCF
:1028A000DFFFFFFFFFFFFFFFFFFFFFFFFFFFFFFF58
:1028B000FFFFFFFFFFFFFFFFFFFFFFFFFFFFFFFF28
:1028C000FFFFFFFFFFFFFFFFFFFFFFFFFFFFFFFF18
:1028D000FFFFFFFFFFFFFFFFFFFFFFFFFFFFFFFF08
:1028E000FFFFFFFF18C6E7416539C749E751A32835
:1028F0000010001000100010201825398641CA620F
:1029000038CEFFFFFFFFFFFFFFFFFFFFFFFFFFFFCF
:10291000FFFFFFFFFFFFFFFFFFFFFFFFFFFFFFFFC7
:10292000FFFFFFFFFFFFFFFFFFFFFFFFFFFFFFFFB7
:10293000FFFFFFFFFFFFFFFFFFFFFFFFFFFFFFFFA7
:10294000FFFFFFFFFFFFDFFFFFFFB2A465496651F6
:102950002559834841388348A348E45004596661A7
:10296000C759D7CDFFFFDFFFFFFFFFFFFFFFFFFFCF
:10297000FFFFFFFFFFFFFFFFFFFFFFFFFFFFFFFF67
:10298000FFFFFFFFFFFFFFFFFFFFFFFFFFFFFFFF57
:10299000FFFFFFFFFFFFFFFFFFFFFFFFFFFFFFFF47
:1029A000FFFFFFFFFFFFFFFFFFFFFFFFDFFFBEFF98
:1029B00038EE6EABEDAAA88946816789668987895A
:1029C000E891499276DD9EFFBFFFFFFFFFFFFFFF0B
:1029D000FFFFFFFFFFFFFFFFFFFFFFFFFFFFFFFF07
:1029E000FFFFFFFFFFFFFFFFFFFFFFFFFFFFFFFFF7
:1029F000FFFFFFFFFFFFFFFFFFFFFFFFFFFFFFFFE7
:102A0000FFFFFFFFFFFFFFFFFFFFFFFFFFFFFFFFD6
:102A1000DFFFDFFFF8F54EC38FDB09BA87A988A96E
:102A200087A94ABA8BC2ECB2DBFEBFFFDFFFFFFF14
:102A3000FFFFFFFFFFFFFFFFFFFFFFFFFFFFFFFFA6
:102A4000FFFFFFFFFFFFFFFFFFFFFFFFFFFFFFFF96
:102A5000FFFFFFFFFFFFFFFFFFFFFFFFFFFFFFFF86
:102A6000FFFFFFFFFFFFFFFFFFFFFFFFFFFFFFFF76
:102A7000FFFFFFFFDFFF9EFF72D44ED3CCD20ACA06
:102A8000C9C1C9C1E9C14ACA4AC22AAA51CC79FE00
:102A90003CFF7EFFDFFFDFFFDFFFDFFFFFFFFFFF0A
:102AA000FFFFFFFFFFFFFFFFFFFFFFFFFFFFFFFF36
:102AB000FFFFFFFFFFFFFFFFFFFFFFFFFFFFFFFF26
:102AC000FFFFFFFFFFFFFFFFFFFFFFFFFFFFFFFF16
:102AD000FFFFDFFFDFFF5DFFFCFE59FE11DCCCCA0C
:102AE0004AC22ACA2ACA4ACACCDA6BCA09C209BA75
:102AF000ABBAAFCB72D4D3D492CCB3CC55DD18E6FD
:102B00003CF7FFFFFFFFFFFFFFFFFFFFFFFFFFFFA0
:102B1000FFFFFFFFFFFFFFFFFFFFFFFFFFFFFFFFC5
:102B2000FFFFFFFFFFFFFFFFFFFFFFFFFFFFFFFFB5
:102B3000FFFFFFFFFFFFDFFF9AF672BC31C431D405
:102B40008FD3CCC28BC28BC2ABCAECDA6BCA09C2C0
:102B500009C209C24AC2ACC26ED351E4B3EC51D42B
:102B600031CCF0B396DD9EFFDEFFDFFFDFFFFFFF1E
:102B7000DFFFFFFFFFFFFFFFFFFFFFFFFFFFFFFF85
:102B8000FFFFFFFFFFFFFFFFFFFFFFFFFFFFFFFF55
:102B9000FFFFFFFFFFFFDFFFFFFFDFFF35D5AFBB0D
:102BA000F0D38FCB6ED30DC3D0D3F0DB0CCB09BAEF
:102BB0002AC22ACA2ACA2ACA2AC24AC24ABAABC2E4
:102BC0008FD372ECB3F4D4ECB3DCB3D455E5F7EDAA
:102BD0009AFE7DFFDFFFDFFFFFFFFFFFFFFFFFFF2D
:102BE000FFFFFFFFFFFFFFFFFFFFFFFFFFFFFFFFF5
:102BF000FFFFFFFFFFFFFFFFFFFFFFFFDEFF7DFF88
:102C0000F4CCF0BB8EBB4DB3ECB2ABA2F0C3AB9A2D
:102C100029A229B2ECD2ACCAABCA8BCA8BCA8BCA66
:102C20008BCAACCACCCA4ED36ED34EC3AFC331CC61
:102C300031C451BC51BCD3C438E69EFFDFFFFFFF57
:102C4000FFFFFFFFFFFFFFFFFFFFFFFFFFFFFFFF94
:102C5000FFFFFFFFFFFFFFFFFFFFFFFFF3A46D7309
:102C6000108C5194B2AC51AC496A086A297208724E
:102C7000087A6A92C8896AA2CBB2ECBA0DC32DCB8E
:102C80000DD3ECD2ECD2EDD20DD3ECCA2DCBCFCB01
:102C90006DABCB8A6A7A6972AB822D93CFAB34D598
:102CA0005DFFFFFFFFFFFFFFFFFFFFFFFFFFFFFFD6
:102CB000FFFFFFFFFFFFFFFFFFFFFFFFFFFFFFFF24
:102CC0008D73C741284A2852695ACB6A0C6B8A62B5
:102CD0000852C751865166598669A771E879C77944
:102CE000E8814A92ECBA0DCB0DD30DDBCCCA2DCBCB
:102CF0002DB3E879A661C759E759696AC75986595A
:102D0000E8710C93D3C45DFFDFFFFFFFFFFFFFFF00
:102D1000FFFFFFFFFFFFFFFFFFFFFFFFFFFFFFFFC3
:102D2000FFFFFFFFCE7B284A695A4852084A084AEB
:102D3000084AC741A641E749285A08524962286211
:102D4000CB72CB7A8A72287249928BB28BC28BBAC1
:102D50000DC3CBA26659E7594C832C7B4C7BD2AC7C
:102D60008962AA6A48620862EB8A55D5BFFFDFFF15
:102D7000FFFFFFFFFFFFFFFFFFFFFFFFFFFFFFFF63
:102D8000FFFFFFFFFFFFFFFFCE7BE7414952284ACD
:102D90002852284A4531C741A218084A4852863964
:102DA000C741A639A639A641A64145496A928ECBAC
:102DB000ECC22DCBABA245598649485A4C7B2C73AB
:102DC00089620C73074A0B6B0B73EB72A6614D9310
:102DD0009AEEDFFFDFFFFFFFFFFFFFFFFFFFFFFFB9
:102DE000FFFFFFFFFFFFFFFFFFFFFFFFCE83E74176
:102DF0004852284A695203212429653145316952D4
:102E0000E7414531863986398639A639A741654972
:102E1000098A4DC30DC3ECB26661A651A641285282
:102E20000B6BEB6A695AEB6AC6414852895AEB72DE
:102E300065490862F3BCBEFFDFFFFFFFFFFFFFFF36
:102E4000FFFFFFFFFFFFFFFFFFFFFFFFFFFFFFFF92
:102E5000CF83C7414852284A495285314108410829
:102E6000C318863908424529863186318631A6390C
:102E700086392541E8790DBB0DBBE8814549C74935
:102E8000A639895A8A5A8639084A2852A639A6414B
:102E9000895A4852C749A6514D931CFFDFFFFFFFD7
:102EA000FFFFFFFFFFFFFFFFFFFFFFFFFFFFFFFF32
:102EB000DFFFFFFFCF7BC6412852084A69526952A3
:102EC000242900000000E320E741442965316531F1
:102ED0006531863985392541C7794DBBCBA245611E
:102EE000E7596539AA5A4952E749C7410429E741D8
:102EF0002C73C641695A285289624962297239EE97
:102F0000DFFFDFFFFFFFFFFFFFFFFFFFFFFFFFFF11
:102F1000FFFFFFFFDFFFFFFFCF7BA639284A074AED
:102F20006952284A452900000000C318284A44294C
:102F300065316531653165318639244186716EB3FD
:102F4000087A49728D8B6952485228526539A641D8
:102F500051946D7BC741AA62C741695A695A0C7B7B
:102F6000E76176D5DFFFFFFFFFFFFFFFFFFFFFFFFA
:102F7000FFFFFFFFFFFFFFFFFFFFFFFFCF83A6392C
:102F8000284A074A28526952042100000000C31849
:102F9000084245296531653165314531653104396E
:102FA00086692DAB0872AA72509C2C73895A2852DC
:102FB000653138D6BEFFD6C58D7BA641C741853960
:102FC0002852EB72C761F4C4DFFFFFFFFFFFFFFF72
:102FD000FFFFFFFFFFFFFFFFFFFFFFFFDFFFFFFF21
:102FE000CF83A639284A084A084AE74186310000BB
:102FF0000000E320C74145294529452945294429A1
:103000004531043966690CA328724862EE8BCA62A6
:103010000B6B8639EB627DF7B6C5D2A458D66539FD
:10302000C741CB62AA622C7BC761D3C4DFFFFFFF1D
:10303000FFFFFFFFFFFFFFFFFFFFFFFFFFFFFFFFA0
:10304000DFFFFFFFCF838639084A084AA639AE7BE7
:10305000E741A21800004429C741452945294529CF
:1030600024292429242904396661EC9A076A2C7BD7
:1030700013B5895A2C73A641B2A4FBEEB2A438D67C
:1030800058D6C641C741CA6289620C7BA76114C584
:10309000DFFFDFFFFFFFFFFFFFFFFFFFFFFFFFFF80
:1030A000FFFFFFFFDFFFFFFFCF838639084A074A94
:1030B000E741B6BD484A6531A218E741284A45298B
:1030C00045294529242924292429E3306561EB9ADF
:1030D000286ACE9333B5AA62CA628539F3ACBAE6E0
:1030E00096BDDBEE14AD6539C6416539485A0C7B97
:1030F000E86196D5DFFFFFFFFFFFFFFFFFFFFFFF48
:10310000FFFFFFFFFFFFFFFFDFFFFFFFCF838639DA
:10311000084AE749084A4852284AE741074A084A04
:10312000084A453145294529452924292429C33000
:1031300065610C9B086ACE93D2ACEA6A695AC741B2
:10314000284A55B5BAE618D649528539C741A6412D
:10315000495ACB7249727AEEFFFFFFFFFFFFFFFF74
:10316000FFFFFFFFFFFFFFFFFFFFFFFFDFFFFFFF8F
:10317000EF838639074AE749084AE849E741E741CA
:10318000C741E741C74145314529452944292429FB
:103190002531E33045612DA3E769EB7A91A42B73C8
:1031A0006952695A2431E7412C6BE7498639084A4C
:1031B00049528641495AC7512D8B5DFFDFFFFFFF02
:1031C000FFFFFFFFFFFFFFFFFFFFFFFFFFFFFFFF0F
:1031D000FFFFFFFF10848639E749E749084AE849BD
:1031E000E741E741C741A639A63945314529242998
:1031F000242924294431C33045614DABE871286A44
:103200004C7B6952695A695A8639A6414531485200
:10321000695A6952895AA6418649A651F4BCDFFF12
:10322000DFFFFFFFFFFFFFFFFFFFFFFFFFFFFFFFCE
:10323000FFFFFFFFDFFFFFFF10848639E749E7410B
:10324000E741084AE741E741C741C641A639452958
:1032500045292429242904292429C33045690DB38B
:103260008A922559E7598539084AE7498639A6419E
:10327000A641AA62CB62CB628A62A6496549CB7A33
:10328000DBEEDFFFDFFFFFFFFFFFFFFFFFFFFFFFC3
:10329000FFFFFFFFFFFFFFFFFFFFFFFF308CA6399F
:1032A000084AE741074A074AE741C741C641A639EC
:1032B0008639452925292529242924292431C3385B
:1032C00066690CB3ECB286794449C74986418639B0
:1032D000084A085286418A5A8A5A074A485A8649F1
:1032E000C76114C5DFFFDFFFFFFFFFFFFFFFFFFF29
:1032F000FFFFFFFFFFFFFFFFFFFFFFFFDFFFFFFFFE
:10330000308CC641284A074A084A074AE741C64165
:10331000A641C641A639452925292429242904295D
:103320002429E3388671ECB2ACBAABAA6561865148
:10333000A649E7490C73EB6AE7492852CB6A285A39
:10334000085AA651F0A35DFFDFFFFFFFFFFFFFFF5D
:10335000FFFFFFFFFFFFFFFFFFFFFFFFFFFFFFFF7D
:10336000DFFFFFFF108C6531284A084A284A084AC7
:10337000E741C741C641C741A63924294529452906
:103380002429042924290439A771ECAA8BB2CCBAC8
:103390008AA245612549E751CB6A695AC749C6499E
:1033A000A651454986618E9BFBF6DFFFDFFFFFFFDD
:1033B000FFFFFFFFFFFFFFFFFFFFFFFFFFFFFFFF1D
:1033C000FFFFFFFFFFFFFFFF18C60B636952C641F7
:1033D000C641C641C741C741C641A63986394529BC
:1033E00025294529042904314539E438E871E88163
:1033F0004571E8898BA2CB9A0872665145492441F0
:1034000045494549A6594972F0ABFBFEDFFFDFFF96
:10341000FFFFFFFFFFFFFFFFFFFFFFFFFFFFFFFFBC
:10342000FFFFFFFFFFFFFFFFFFFFFFFFFFFFFFFFAC
:103430001CE7F7C592944C6B484AE741C741C64127
:103440008639452945290429043124392441C338C2
:10345000CB8279F655D572B4CFABEC9AAB928A9207
:103460002982087A087A8A826E9B55CD7EFFDFFF1B
:10347000DFFFFFFFFFFFFFFFFFFFFFFFFFFFFFFF7C
:10348000FFFFFFFFFFFFFFFFFFFFFFFFFFFFFFFF4C
:10349000FFFFFFFFFFFFFFFFFFFFFFFFFBE669529C
:1034A000A639A639653145314531C7418649864936
:1034B0006651C759CB72DBF6DFFFDFFFBEFFBBFEF5
:1034C00055DDF0BBAFABF0B3B3CCD7E51CFFDFFFEE
:1034D000FFFFDFFFFFFFFFFFFFFFFFFFFFFFFFFF1C
:1034E000FFFFFFFFFFFFFFFFFFFFFFFFFFFFFFFFEC
:1034F000FFFFFFFFFFFFFFFFFFFFDFFFDFFFFFFF1C
:10350000B6BDC639A6394529242904292429084AE3
:10351000C328A228E438E338E330519CDFFFBEFF24
:10352000DFFFDFFFDFFFDFFFBFFFBFFFDFFFDFFFEB
:10353000DFFFDFFFFFFFFFFFFFFFFFFFFFFFFFFFDB
:10354000FFFFFFFFFFFFFFFFFFFFFFFFFFFFFFFF8B
:10355000FFFFFFFFFFFFFFFFFFFFFFFFFFFFFFFF7B
:10356000DFFFFFFFB29C6531074286312429042921
:103570004531C741001061188220A228A2204C7357
:10358000FFFFDFFFFFFFFFFFDFFFFFFFFFFFFFFF8B
:10359000FFFFFFFFFFFFFFFFFFFFFFFFFFFFFFFF3B
:1035A000FFFFFFFFFFFFFFFFFFFFFFFFFFFFFFFF2B
:1035B000FFFFFFFFFFFFFFFFFFFFFFFFFFFFFFFF1B
:1035C000FFFFFFFFDFFFFFFFD39C6531E74186313F
:1035D000242924296531084AE3200329E328042902
:1035E000E3206D73FFFFFFFFFFFFFFFFFFFFFFFF04
:1035F000FFFFFFFFFFFFFFFFFFFFFFFFFFFFFFFFDB
:10360000FFFFFFFFFFFFFFFFFFFFFFFFFFFFFFFFCA
:10361000FFFFFFFFFFFFFFFFFFFFFFFFFFFFFFFFBA
:10362000FFFFFFFFFFFFFFFFFFFFFFFFB29C6531C2
:10363000E7418631452924296531E741C320E3204C
:10364000E320E320E3206D73FFFFFFFFFFFFFFFF99
:10365000FFFFFFFFFFFFFFFFFFFFFFFFFFFFFFFF7A
:10366000FFFFFFFFFFFFFFFFFFFFFFFFFFFFFFFF6A
:10367000FFFFFFFFFFFFFFFFFFFFFFFFFFFFFFFF5A
:10368000FFFFFFFFFFFFFFFFFFFFFFFFDFFFFFFF6A
:1036900013A5C31885316531442965312529E320F7
:1036A000C320E320E320E320C218CE7BFFFFFFFF0F
:1036B000FFFFFFFFFFFFFFFFFFFFFFFFFFFFFFFF1A
:1036C000FFFFFFFFFFFFFFFFFFFFFFFFFFFFFFFF0A
:1036D000FFFFFFFFFFFFFFFFFFFFFFFFFFFFFFFFFA
:1036E000FFFFFFFFFFFFFFFFFFFFFFFFFFFFFFFFEA
:1036F000FFFFFFFF9EF714A56531A6394529042178
:103700008218C318C318E32003294531D29C7DF7E2
:10371000DFFFFFFFFFFFFFFFFFFFFFFFFFFFFFFFD9
:10372000FFFFFFFFFFFFFFFFFFFFFFFFFFFFFFFFA9
:10373000FFFFFFFFFFFFFFFFFFFFFFFFFFFFFFFF99
:10374000FFFFFFFFFFFFFFFFFFFFFFFFFFFFFFFF89
:10375000FFFFFFFFFFFFFFFFFFFF1BE769528639F7
:103760004529E320E320C320A218E3200429C64111
:10377000DBDEFFFFDFFFFFFFFFFFFFFFFFFFFFFFBE
:10378000FFFFFFFFFFFFFFFFFFFFFFFFFFFFFFFF49
:10379000FFFFFFFFFFFFFFFFFFFFFFFFFFFFFFFF39
:1037A000FFFFFFFFFFFFFFFFFFFFFFFFFFFFFFFF29
:1037B000FFFFFFFFFFFFFFFFFFFFDFFFFFFF79D6E8
:1037C000C639453145290421E320C320C318C3204D
:1037D000E320443179D6FFFFDFFFFFFFFFFFFFFF4C
:1037E000FFFFFFFFFFFFFFFFFFFFFFFFFFFFFFFFE9
:1037F000FFFFFFFFFFFFFFFFFFFFFFFFFFFFFFFFD9
:10380000FFFFFFFFFFFFFFFFFFFFFFFFFFFFFFFFC8
:10381000FFFFFFFFFFFFFFFFFFFFFFFFFFFFFFFFB8
:10382000FFFFFBDE494A4429A218A218A2188218F9
:10383000821861104110E7413CE7FFFFFFFFFFFFE7
:10384000FFFFFFFFFFFFFFFFFFFFFFFFFFFFFFFF88
:10385000FFFFFFFFFFFFFFFFFFFFFFFFFFFFFFFF78
:10386000FFFFFFFFFFFFFFFFFFFFFFFFFFFFFFFF68
:10387000FFFFFFFFFFFFFFFFFFFFFFFFFFFFFFFF58
:10388000FFFFFFFFFFFFFFFFFFFF1CE7B6BDEF835A
:103890002C6BCB624D73D3A479D6DFFFFFFFFFFF04
:1038A000FFFFFFFFFFFFFFFFFFFFFFFFFFFFFFFF28
:1038B000FFFFFFFFFFFFFFFFFFFFFFFFFFFFFFFF18
:1038C000FFFFFFFFFFFFFFFFFFFFFFFFFFFFFFFF08
:1038D000FFFFFFFFFFFFFFFFFFFFFFFFFFFFFFFFF8
:1038E000BFF7FFFFFFFFFFFFFFFFFFFFFFFFFFFF30
:1038F000FFFFBDFF9DF7FFFFDEFF9DF7FFFFDADE55
:10390000FBE6BADE7DF7FFFF9DFFDEFFDEFF5CF723
:10391000FFFFFFFFDFFFDFFF9FF7FFFFBFF7FFFFA7
:10392000FFFFFFFFFFFFFFFFFFFFFFFFFFFFFFFFA7
:10393000FFFFFFFFFFFFFFFFFFFFFFFFFFFFFFFF97
:10394000FFFFFFFFFFFFFFFFDFF7FFFFFFFFDFFFCF
:10395000DFFFFFFFDEFFFFFFFFFF1BE717C6B6B568
:10396000D7BD75AD55ADB6BD54ADD3A475B599DE13
:103970009DFFFFFFDFFFFFFFDFFFFFFFFFFFFFFFF9
:10398000BFF7DFFFFFFFFFFFFFFFFFFFFFFFFFFFAF
:10399000FFFFFFFFFFFFFFFFFFFFFFFFFFFFFFFF37
:1039A000FFFFFFFFFFFFFFFFFFFFDFF7DFF7FFFF77
:1039B000FFFFFFFFFFFFFFFFFFFF7CEF78CEB6B5F5
:1039C00038C6FBDE3CE7DFFFDFFFDFFF7DEF7DF783
:1039D000BADEB29CD2A49EFF9DF7FFFFFFFFDFFF80
:1039E000DFFF9EF7BFFFFFFFFFFFFFFFFFFFFFFFB0
:1039F000FFFFFFFFFFFFFFFFFFFFFFFFFFFFFFFFD7
:103A0000FFFFFFFFFFFFFFFFFFFFFFFFFFFFDFF7EE
:103A1000FFFFFFFFFFFFFFFFFFFFDEFFFEFFF7BD22
:103A200038C63CE7FFFFFFFFFFFFFFFFDFF7FFFFA9
:103A3000FFFFDFFFFFFF1BE775B5919CFFFFFFFF57
:103A40009DF73CEFFFFFFFFFFFFFBFF7FFFFFFFF0B
:103A5000FFFFFFFFFFFFFFFFFFFFFFFFFFFFFFFF76
:103A6000FFFFFFFFFFFFFFFFFFFFFFFFFFFFFFFF66
:103A7000FFFFFFFFFFFFFFFFDFFFFFFFFFFFBEFFB7
:103A8000DADE95B57DEFFFFFFFFFBFF79EEFFFFF8B
:103A9000FFFFFFFFDFFFBEF7FFFFFFFF9EF713A54E
:103AA00099D6FEFFFEFFFFFFFFFFFFFFFFFFBFFFF7
:103AB000FFFFFFFFFFFFFFFFFFFFFFFFFFFFFFFF16
:103AC000FFFFFFFFFFFFFFFFFFFFFFFFFFFFFFFF06
:103AD000FFFFFFFFFFFFFFFFFFFFDFFFFFFFDFFF36
:103AE000DEFFFFFF38CE99D6FFFFFFFF5CE7BEF792
:103AF000FFFFFFFFFFFF9EEFFFFFFFFF5DEF7DF783
:103B0000BEFFDADE74B57BEF5BEFFEFF9DF7BDF71E
:103B1000FFFFFFFFFFFFFFFFFFFFFFFFFFFFFFFFB5
:103B2000FFFFFFFFFFFFFFFFFFFFFFFFFFFFFFFFA5
:103B3000FFFFFFFFFFFFFFFFDFFFFFFFDFFFDFFFF5
:103B4000FFFFFBE679D6DEFF95BD7CF7DEFFDEFFEB
:103B5000FFFFFFFFFFFF7DEFBEF7FFFFFFFFDEFF71
:103B6000FFFFFFFFDEFF78D694BDB4BD2E843AE799
:103B7000FEFFFEFFFEFF9DF7FFFFFFFFFFFFFFFFC2
:103B8000FFFFFFFFFFFFFFFFFFFFFFFFFFFFFFFF45
:103B9000FFFFFFFFFFFFFFFFFFFFFFFFFFFFFFFF35
:103BA000BEFFFFFFFFFF95BD308C17CE909CD9E67E
:103BB000F5C516C6DEFFBDFF9DF7FFFFFFFFFFFF48
:103BC000DEFFFFFF3BEF4F94895A6C7BED83AF9C88
:103BD000CC83FDFFFEFFDEFF5CEFFFFFFFFFFFFF7B
:103BE000FFFFFFFFFFFFFFFFFFFFFFFFFFFFFFFFE5
:103BF000FFFFFFFFFFFFFFFFFFFFFFFFFFFFFFFFD5
:103C0000DFFFFFFFBEF7FFFFFFFF9DFF0B6B13AD55
:103C100012B54A7B6B7B2A738C7BD9E6FEFFFAE6F2
:103C200078DE57D6DEFF9DFFEE8BC541C96A8C83D7
:103C3000CC83B3BD97DEF1A4B8DEFEFFBDFFFFFF6E
:103C4000FFFFFFFFFFFFFFFFFFFFFFFFFFFFFFFF84
:103C5000FFFFFFFFFFFFFFFFFFFFFFFFFFFFFFFF74
:103C6000FFFFFFFFFFFFFFFFBEFFDEFF9DFFFAE646
:103C7000AD836C7B93C5D4CD2D948FA42A730A6B2E
:103C80001AEF3BF733B5B4C557D64F9CA441E55165
:103C9000EA72C96A6E94D3C5FDFFCD830A6B78D6EC
:103CA000BDFFFFFFFFFFFFFFFFFFFFFFFFFFFFFF66
:103CB000FFFFFFFFFFFFFFFFFFFFFFFFFFFFFFFF14
:103CC000FFFFFFFFFFFFFFFFFFFF7DEFDEFFFFFFB7
:103CD00095BDC96248524B7B15D6FCFF52BD6EA400
:103CE000E96A665A77DEF9EE5BFF7BFFDDFF73BDA5
:103CF00026520231E230E5492D94FCFF7BFF4B73E5
:103D0000A95A8D7B9DF7BDF7FFFFFFFFFFFFFFFF68
:103D1000FFFFFFFFFFFFFFFFFFFFFFFFFFFFFFFFB3
:103D2000FFFFFFFFFFFFFFFFFFFFFFFFFFFFBEFFE4
:103D3000DEFF34ADEB6A4752A962475A2D9C7AFFE9
:103D4000D8EEAC8B2A736F9C32B5F1AC909CCD83CE
:103D500012ADB5C573BDCD8B8441E54922318B7B56
:103D6000F1ACE96A8C7B4B73F6C5FFFFFFFFFFFFE9
:103D7000FFFFFFFFFFFFFFFFFFFFFFFFFFFFFFFF53
:103D8000FFFFFFFFFFFFFFFFFFFFFFFFFFFFFFFF43
:103D9000FFFFFFFFBEFFEA62064A2B730A6BA862B1
:103DA000A86A76DEFDFF93BD32B536CED1A4D1A48C
:103DB000D1A40F8C8D7BEA624C738C7B685A685A55
:103DC000A4410008401823312752895A38CEBEFF3B
:103DD000FFFFFFFFFFFFFFFFFFFFFFFFFFFFFFFFF3
:103DE000FFFFFFFFFFFFFFFFFFFFFFFFFFFFFFFFE3
:103DF000FFFFFFFFFFFF9DF73CEF895AC641A96215
:103E0000E649A962C549AC83D0A412AD33AD909CFC
:103E10002F8C13A5B19495B5B5B533ADD29C7194E3
:103E20002F8CEE830A73A96203310752485248521D
:103E30001CEFFFFFDFFFFFFFFFFFFFFFFFFFFFFFA5
:103E4000FFFFFFFFFFFFFFFFFFFFFFFFFFFFFFFF82
:103E5000FFFFFFFFFFFFFFFFDFFFFFFF1BEFEA6238
:103E6000C541EA6A475A84412A732A6B2A6BB19C7E
:103E700074B533A5D6BD58CEBAD658C655A558C6C2
:103E8000DBDE38C659CE95BD74BD2F942C73CA6A3B
:103E900014B5FFFF3DF77DF7DFFFFFFFFFFFFFFFDB
:103EA000FFFFFFFFFFFFFFFFFFFFFFFFFFFFFFFF22
:103EB000FFFFFFFFFFFFFFFFFFFFFFFFDEFFFFFF33
:103EC000FEFFF6C5A9626439C96A4F940E8CEE8371
:103ED000D19C74ADD6BDFADE3CE7FBDEBAD6DBD6AC
:103EE00076AD7ACEBACE18BE3CE738C617CE38D6F5
:103EF00014AD0F8C8A5A96BDFFFFDFFFFFFFFFFF57
:103F0000FFFFFFFFFFFFFFFFFFFFFFFFFFFFFFFFC1
:103F1000FFFFFFFFFFFFFFFFFFFFDFFFDFFFFFFFF1
:103F2000DEFFDDFFFDFF93BDA862CD83B4C5F2AC1B
:103F30004C6BB6B575B579D6FBDE38C63CE71CDFF1
:103F4000FCDE18BEB7AD5284FCD61DDFDCD61DDF0B
:103F5000D49CF59CDCDE76ADB3940C63139DFFFF1F
:103F6000DFFFBEF7FFFFFFFFBEF7FFFFDFF7FFFF3B
:103F7000FFFFFFFFFFFFFFFFFFFFFFFFFFFFFFFF51
:103F8000FFFFFFFFFEFFFDFF15CECC834E9497DEB3
:103F900016D68D7B7194B6B5DBDE96B5D7BDFFFF27
:103FA000DBDE5DE77EEF117CF59C359D19BEBCCE56
:103FB0005EE7B8AD9CCE3AC6D8B51DDF35A55184B5
:103FC0008E6B38BEFFFFFFFFFFFFFFFFDFFFFFFF2E
:103FD000BFF7FFFFFFFFFFFFFEFFFFFFFFFFFFFF3A
:103FE000FFFFFFFFFFFFFEFFDDFF7BEFD09C8B732A
:103FF000F5C57BF7B4C5CE83B6BDDADE3CE7BAD6ED
:10400000F8BDDBD618C6DBD6DFF7159DB494117C5E
:10401000B8AD3EDFDDD6906B3AC6FDD6DDD67AC6AA
:104020009ACE76AD928C4D631BDFFFFFFFFFFFFF43
:10403000FFFFFFFFBFF7FFFFFFFFFFFFFFFFFFFFD8
:10404000FFFFDFFFDFFFDFFFDFFFDEFF7CF794BD59
:10405000ED8331ADF9E6F5CD909C54B538CEBAD6A6
:104060009AD6FFFF18BE3184928C9BD63DE75AC684
:10407000B7ADB38C9BCEFFF71DDF5284F594BFEF35
:104080003EDFFDDE39C6DBD675AD0C5BF39CDEF79B
:10409000FFFFDFF7FFFFDFFFDFFFFFFFFFFFFFFF98
:1040A000FEFFFFFFFFFFDFFFBFF7DFFFFFFFFFFFA9
:1040B000FAE66B736B7397DED9E6909C709458CEDA
:1040C0003CE79AD65DEFFFFF18C6D394928CFCDED6
:1040D0005EE7DCD61DDF1DDF5EE7FDDEFDDE19BE1F
:1040E0003ABE5FE7FDDE1DDFBBD6D7B596ADD394F4
:1040F0000C5B79CEFFFFFFFFFFFFFFFFFFFFFFFF1E
:10410000FFFFFFFFFEFFFFFFFFFFFFFFDFFFFFFFE0
:10411000FFFFFFFFF2A467524E9419EF52B5AD7B3B
:1041200033AD99DEBAD67DEF3DE7FCDE39C676AD1C
:1041300055A5F073F8BD5EE73AC697ADDCD6DCD680
:104140009BCEFDD67FE7DCD6DCD6359D9BCEF49C9E
:1041500039C6F7B50C5BF39CFFFFFFFFDFFFFFFFE6
:10416000FFFFDFFFFFFFFFFFFFFFFFFFFFFFFFFF7F
:10417000FFFFFFFFBEFF3CEFC962A85AB4BDB8DE27
:104180008C738C7317CE58CE1CE7DFF71CDFDBD6A1
:104190007EEFFCDE7EEFF0738B4A9BCE369D117C6A
:1041A0009BCE9FEF1DDF9FEFDCD67FEF19BEB39450
:1041B0005284DBD67ACE59C6928C4D633CE7FFFF22
:1041C000DEF7FFFFFFFFDFFFFFFFFFFFFFFFFFFF48
:1041D000FFFFDFFFFFFFFFFF5DF778D6274A2A6B5F
:1041E00015C6F5C5E962EE8358D696B579CE317C11
:1041F00076AD728459C67EEF1DDF59C6872976A534
:10420000DCD6FCD6DCD6DCD61DDFBCD69BCE7EE76A
:10421000DCD65284728C1DDF1CDF7ACEF8BD494299
:1042200039C6FFFFBEF7FFFFFFFFFFFFFFFFFFFFE6
:10423000FFFFDEF7FFFFFFFFFFFFFFFFFFFF919C88
:1042400084396F94D8DE2E8C474AD19C99D61CE7CE
:104250009ACE1074AF73928CB7ADFCDE3DDF7EE773
:104260003284E9395EE73DDFFCD6DCD67EE7DCD67A
:104270003EDF1DDF9BCE97AD56A539C69ACEBBD685
:1042800018BE8E6B5184FFFFFFFFDEF7FFFFFFFFBD
:10429000FFFFFFFFFFFFDFFFFFFFFFFFBFFFBFFFCE
:1042A000BEFFCE83064AD1A497DECD7BA95254AD82
:1042B0009AD61CE71CDF7284CF6B7284D8B53DDFC1
:1042C0001DDFDCD6F9BD872976A5BFEFDCD61DDF63
:1042D000FCD69BCE3DDFFCDEBBD65AC69BCE7BCE4A
:1042E000BBD65AC618BEF07BEF7BDFF7FFFFDEFFC1
:1042F000FFFFFFFFFFFFFFFFFFFFFFFFFFFFFFFFCE
:10430000DFFFBFFF5DF70B6B685A12ADF5C5E962C1
:10431000A95A95B59ACEFCDE7EE739BE39BE7BC67A
:10432000FCD67EE73DDF1DDF9FEFB073EC521DDF53
:10433000BCD63DE75EE77FEFF8BD18BE19BE39BEBB
:104340009BCE76ADBBD6BBD639C693946D6BBEF70C
:10435000FFFFDFFFFFFFFFFFFFFFFFFFFFFFFFFF8D
:10436000FFFFFFFFFFFFDFFF3CF7895A675A12ADDF
:1043700052B5474A0B6358C6BBD61DDFFCD63DDF9E
:104380009FEF7FE71DD7FCD6FCD6FCD67FE75AC649
:10439000C410159D9FEF5EE77BCE97AD7AC61CDFFC
:1043A0007EEF5EE79BCE4E63B394F49C5AC635A570
:1043B0000C5B9EEFFFFFFFFFFFFFFFFFFFFFFFFF15
:1043C000FFFFFFFFFFFFDFFFDFFFDFFF1CF70752ED
:1043D000C549D1A432AD474A8D73BAD6BBD6BCCE3F
:1043E00097ADBBCE1DD7FCCEDCCE1DD71DDFFCD6D6
:1043F000FDD6FFF78F6B317CD4948F6BAF73B39482
:10440000317C5184107C8F6B0D5B2621728CF9BD41
:104410007ACE56A52D63BEF7FFFFFFFFFFFFFFFF1C
:10442000FFFFFFFFFFFFFFFFFFFFBFFFBFFFDFFF3C
:104430001BEFC64923316F9C11A506420B63F7BDE4
:1044400097AD159D6E5BD8ADFDD61DD73DD73DDF31
:104450005EE71DD75EDF97ADD4943284159D56A5D7
:10446000B39456A5B7B5F8B539C65AC65AC6D4944A
:104470003AC6DCD67ACE15A5CF73DFF7FFFFFEFF75
:10448000FFFFFFFFFFFFFFFFFFFFFFFFFFFFBFFF7C
:10449000BFFFDFFF3CF7E649A120ED8BD19CA5399A
:1044A000284255A556A5F594AC4AF9B53EDF3EDF46
:1044B0001DD7DCCEFCD67AC6738452845AC65AC63F
:1044C0005EE7BFF73EE77FEF5DE73DDF3DDF3DDFC6
:1044D0003EE7BCD6FDDEFDDE9BCEB3949394FFFF9A
:1044E000FFFFDEFFFFFFFFFFFFFFFFFFFFFFFFFFFD
:1044F000FFFFBFFFDFFFDFFF9DFF485A8018AD833E
:10450000B09C84310742D7BDBBD6BBCEF4945EDFEE
:104510003EDFBBCEFDD63DDF1DDF19BE19BEDFF786
:10452000DCD6D8B51DDF9BCE1DDFDCD61CDF1CDF43
:104530005DE73DDF1DDF3DDFBCD6BBD69BCE728C79
:1045400035A5FFFFFFFFDEFFFFFFFFFFFFFFFFFFC0
:10455000FFFFFFFF9EFFFFFFBFFFFFFFDEFFEE83BA
:104560006010A95AB19C85318531B6BD7ACE1DE760
:10457000FDDEFDDEBCD61DDFBCD6FDDEDCD61DDFDC
:10458000FDDEFCDE1DDF77AD3DDFFCDEFCD61DDF92
:104590001DD77EE7FCD6B7AD159D3DDFDCD6DBD65B
:1045A00018BE718C9ACEFFFFFFFFFFFFFFFFFFFFDA
:1045B000FFFFFFFFDFFFFFFFBFFFFFFFDEFFDEFFAD
:1045C000FFFF54AD2329C95A13A507428110B29C9D
:1045D000FBE6BBDEFCDE5FEF3EE77FEF1DE7FDDEC7
:1045E000FDDEFDDE1DDF1DDFFCDED8B51DDF3DE796
:1045F0005EE71DDF1DD75EDF9FE7D06B0C531CDF2E
:104600007AC6FBD696AD149D1CE7FFFFBEF7FFFFF1
:10461000FFFFFFFFFFFFFFFFDFFFFFFFBFFFFFFF0A
:10462000FFFFDEFFFFFFFAE6A95A0B6354AD6D737F
:1046300081108D73FBE67ACEDCDEF9BD938CB8B5C4
:104640001DE7FDDE1DE7BCD6FDDEFDDE7AC6F8B552
:104650009BCE1CD77EE7FCD65EDF9BC61CD793841F
:10466000AF6B18B6149D38BE149D18BEDFFFFFFF58
:104670009DF7FFFFFFFFDEFFFFFFFFFFDFFFFFFFF5
:10468000DFFFFFFFFFFFDEFFFFFFFEFFD19C8C730C
:10469000D19C13A5484AEA6217CE79D69FF716A592
:1046A0008C52738C3EE71DDF3EE71DDF1DDFDCD63D
:1046B00039BE7AC65AC6BBCE5EE7FCD6BFEF3DDF39
:1046C0005DDFBFEF7EE7DBD659C67ACE76AD1CDF65
:1046D000FFFFDFFFBEF7FFFFFFFFFFFFFFFFFFFF53
:1046E000FFFFFFFFDFFFDFFFFFFFDEFFDEFFFEFF5D
:1046F000B9DE0E84CD7B94B57094A95A919CBADE34
:10470000B7BDF59C8F6B159DFDDEDCD6DCD63DDF9D
:104710003EDFFDD6DCD63EDF1DD7FCD63DDF3DDFDC
:104720009384D7ADBBCEDCD6FCD6DBD67ACEB7B57C
:104730009ACEDEF7FFFFDFFFFFFFFFFFFFFFFFFF68
:10474000FFFFFFFFFFFFFFFFDFFFDFFFFFFFFEFFBA
:10475000BDF7DEFFDDFF12A56B73D19C32AD4B6B55
:10476000AC7B58CE9294D8BDB8B53AC6DCD6DCD670
:10477000159DD4943DDF1DD79FE7FDD63EDF5EE754
:104780001DD71DD78E63B38C7EE7BBCE9ACEFBD6EA
:10479000F8BD38C69EEFFFFFDEFFFFFFFFFFDEFF25
:1047A000FFFFFFFFFFFFFFFFFFFFFFFFFFFFFFFF19
:1047B000FFFFFFFFFEFFDEFFFEFFB9DEB09C0E8CA9
:1047C000F1A44F948B7BB19C7ACE7EEF1DDF5EE728
:1047D000FCDEFCDE6F638F6B3DDFFDD67EE7159D53
:1047E0003ABE7FE7FDD6FDD6B38C928CFCD61CDF9B
:1047F0001CDF39C6B7B51CDFFFFFFFFFBEF7FFFFA9
:10480000FFFFBEF7FFFFFFFFFFFFFFFFFFFFFFF709
:10481000FFFFFFFFDEF7FFFFFFFFFEFFFEFFFEFFD4
:1048200057D6ED836F9452B5CC830A6359CE7ACEB6
:1048300039C63DE7BBD63DE7F07B19BE7EE71DDFFD
:104840003DDF0D5BF5947FE71DDF3DDFF8B575A516
:1048500076AD7ACE1CDFB6ADDBD69EEFFFFFFFFF55
:10486000BEF7FFFFFFFFBEF7FFFFFFFFFFFFFFFFEA
:10487000FFFFFFFFFFFFFFFFFFFFFFFFFFFFFFFF48
:10488000DEFFFEFFFDFFB4BD0E8C4E94B09C2F8C5E
:104890004D6B9ACE5DEF18BE7ACE5DE776AD3DDF0B
:1048A0007EEFDCD639BED07372845EE75EE71CD73C
:1048B000DBD69ACE18BE59C6B6B5FBDEBEF7DFF71B
:1048C000FFFFFFFFFFFFFFFFFFFFFFFFFFFFFFFFF8
:1048D000FFFFFFFFFFFFFFFFFFFFFFFFFFFFFFFFE8
:1048E000FFFFFFFFFEFFBDF7FEFFDDFF36CE6F943B
:1048F000ED832F8C9194EB5AD7BDFBDE9AD6AE7325
:1049000018BE3CE7DBD63DDF9FEFD8B597AD3DDF66
:10491000BBCE7ACEFCDEBAD6BAD6BAD6FBDEFBDE8A
:104920007DEFFFFFFFFFFFFFFFFFFFFFFFFFFFFF29
:10493000FFFFFFFFFFFFFFFFFFFFFFFFFFFFFFFF87
:10494000FFFFFFFFFFFFFFFFFFFFBEFFFFFFFEFFB9
:10495000BDFFD9DE53B5ED83CE7BAE73919454ADDC
:104960001CE7BAD61CE738C67ACE59C65ACE15A56A
:1049700055A5DBD6BBD6DBD69AD658CE38C6B6B54B
:104980005DEFBEF7FFFFFFFFFFFFFFFFFFFFFFFF32
:10499000FFFFFFFFFFFFFFFFFFFFFFFFFFFFFFFF27
:1049A000FFFFFFFFFFFFFFFFFFFFFFFFFFFFFFFF17
:1049B000FFFF9DF7DEFFFEFF9CF774B570946C73EC
:1049C0006D73CE7BCE7BB6B5DADE3CE75DEF1CE7E0
:1049D0007DEFDBDEDBDE3DE79BD67ACED7BD38C68A
:1049E00038C6F39CB6B59DF7FFFFBEF7FFFFFFFF8C
:1049F000FFFFFFFFFFFFFFFFFFFFFFFFFFFFFFFFC7
:104A0000FFFFFFFFFFFFFFFFFFFFFFFFFFFFFFFFB6
:104A1000FFFFDFFFFFFFFFFFDEFFFEFFFEFFFEFFEA
:104A2000FEFFD9DEEE834C6BEE8368520B63EF839F
:104A3000D29C34A5F7BDD7BD55AD14A5F49C75AD7A
:104A400038C61BE79DF758CE0F8417C6FFFFDEFF61
:104A5000FFFFFFFFFFFFFFFFFFFFFFFFFFFFFFFF66
:104A6000FFFFFFFFFFFFFFFFFFFFFFFFFFFFFFFF56
:104A7000FFFFFFFFFFFFBFF7FFFFFFFFFFFFBEF7D7
:104A8000FEFFFEFF9CF7FEFF274A7094FEFFB9DE93
:104A900054AD308CCE7B8D736D738E73EF83929497
:104AA00096B579D69DF7BEF7FFFFFFFF54AD38C628
:104AB000BDF7FFFFFFFFFFFFFFFFFFFFFFFFFFFF50
:104AC000FFFFFFFFFFFFFFFFFFFFFFFFFFFFFFFFF6
:104AD000FFFFFFFFFFFFFFFFFFFFDFFFFFFFFFFF06
:104AE000FFFFFFFFFFFF7CEFFEFF73B5A962DDFF55
:104AF0009CFFDDFFFEFF3BEF7CF7FBE679D6DBE6B4
:104B00009EF7FFFFFFFFFFFFFFFFFFFFFFFFFFFF1E
:104B10009DF79DF7BEFFFFFFFFFFFFFFFFFFFFFFBA
:104B2000FFFFFFFFFFFFFFFFFFFFFFFFFFFFFFFF95
:104B3000FFFFFFFFFFFFFFFFFFFFFFFFFFFFDFFFA5
:104B4000FFFFFFFFDFFFDFF7FFFFFFFF9CF76B7348
:104B5000D5C5DDFFFEFFDDFFFEFFFFFFFFFFFFFF0F
:104B6000FFFFFFFFFFFFDFFFFFFFDFFFBEFFFFFFD6
:104B7000FFFF5CEFFFFFFFFFDFFFFFFFFFFFFFFF18
:104B8000FFFFFFFFFFFFFFFFFFFFFFFFFFFFFFFF35
:104B9000FFFFFFFFFFFFFFFFFFFFFFFFFFFFFFFF25
:104BA000FFFFFFFFFFFFFFFFFFFFFFFFFFFFFFFF15
:104BB000D9DEEE7B7CF7FEFF9DF7FFFFFFFFFFFFD7
:104BC000FFFFFFFFFFFFFFFFFFFFFFFFFFFFFFFFF5
:104BD000FFFFFFFFFFFFFFFFFFFFFFFFFFFFFFFFE5
:104BE000FFFFFFFFFFFFFFFFFFFFFFFFFFFFFFFFD5
:104BF000FFFFFFFFFFFFFFFFFFFFFFFFFFFFFFFFC5
:104C0000FFFFFFFFFFFFFFFFFFFFFFFFFFFFFFFFB4
:104C1000FFFFFFFFFFFF78CEFFFFFEFFDEFFFFFF7E
:104C2000DFFFFFFFFFFFFFFFFFFFFFFFFFFFFFFFB4
:104C3000FFFFFFFFFFFFFFFFFFFFFFFFFFFFFFFF84
:104C4000FFFFFFFFFFFFFFFFFFFFFFFFFFFFFFFF74
:104C5000FFFFFFFFFFFFFFFFFFFFFFFFFFFFFFFF64
:104C6000FFFF7DEFFFFF7DEF7DEFFFFFDFFF7DEFBC
:104C7000FFFFFFFFFFFFFFFFFFFFDFFFFFFFFFFF64
:104C8000DFFFDFFFFFFFFFFFFFFFDFFFFFFFFFFF94
:104C90007DEF59CEDBDE5DEFBEF7FFFFFFFF7DEF5F
:104CA0009EF7FFFFFFFFBEF7BEF7DFFFFFFFFFFF2F
:104CB000FFFFFFFFFFFFFFFFFFFFFFFFDFFFFFFF24
:104CC000FFFFDFFFBEF7FFFF9EF7BEF73CE7FBDE0F
:104CD000FBDEFBDEDBDEFBDE3CE73CE7DFFFDFFF8E
:104CE000FFFFFFFFDFFFFFFFFFFFDFFFDFFFFFFF34
:104CF000DFFF9EF718C69294EF7B2C63108414A5F7
:104D0000DBDEFFFFFFFF7DEF5DEFFFFFFFFFFFFF3C
:104D1000FFFFFFFFDFFF7DEFBEF7FFFFFFFFFFFF9E
:104D2000FFFFFFFFBEF7FFFFFFFFDFFF55AD18C618
:104D3000FFFF5DEFBEF7FFFF9EF77DEF9EF73CE7BD
:104D40005DEFDFFFFFFFFFFFDFFFFFFFFFFFDFFF85
:104D5000FFFFFFFFFFFFBEF7718CA631494AAE731C
:104D60004D6BAA52CB5A9294DBDEFFFFFFFF9EF7FA
:104D7000FFFFFFFFFFFFDFFFFFFFFFFFFFFF9EF7CC
:104D8000FFFFFFFFFFFFFFFFBEF7FFFFFFFFBEF7C5
:104D9000718CCB5A7DEFFFFFFFFFFFFFDFFFDFFFCF
:104DA000BEF73CE71CE75DEF9EF7BEF7FFFFFFFF96
:104DB000FFFFFFFFFFFFFFFFFFFFFFFF38C62C6372
:104DC0002842E739CB5ACB5A694A08422C63D7BDEF
:104DD000DFFFFFFF9EF7FFFFFFFFFFFFFFFFFFFF6C
:104DE000FFFFFFFFFFFFFFFF9EF7FFFFFFFF9EF7A5
:104DF000FFFFFFFF59CE2842B2943CE7FFFF7DEF53
:104E00005DEF9EF79EF79EF73CE71CE7DBDE5DEF6C
:104E1000FFFFFFFFDFFFFFFFFFFFFFFFDFFFFFFFE2
:104E2000FFFF3CE775ADAA528631E739EB5AEB5AE2
:104E3000E739494AD39C1CE7FFFFDFFF9EF7DFFFFE
:104E4000FFFFDFFFDFFFFFFFFFFFFFFFFFFFFFFFB2
:104E5000FFFFDFFFFFFF9EF7FFFF96B58A5275AD9C
:104E60009EF7DFFFDFFFBEF79EF7DFFF7DEF3CE73A
:104E700079CEDBDEDFFFFFFF9EF7FFFFDFFFFFFFE7
:104E8000FFFFFFFFDFFFFFFFFFFF7DEFAE73C739BF
:104E90008631694A28428631494A2C63BAD69EF740
:104EA000FFFFBEF7DFFFFFFFFFFF7DEFFFFFFFFF0D
:104EB000FFFFBEF79EF7FFFFFFFFBEF7FFFFFFFFFD
:104EC0001084CF7B96B5DFFFFFFF9EF79EF73CE790
:104ED0005DEF7DEF79CE18C63CE7FFFFBEF7FFFF21
:104EE000FFFFDFFF9EF7FFFFFFFF9EF7DFFF9EF74D
:104EF000FBDE8E738631C739C739C739E739A6312A
:104F0000494A55ADDFFFFFFF7DEF9EF7FFFFFFFF33
:104F1000FFFFFFFF9EF7FFFFDFFF1CE75DEFFFFFD7
:104F20005DEFDFFFFFFF8E73AE731CE77DEF7DEF5C
:104F3000FFFF3CE7FBDEBEF79AD696B5BAD6FFFF79
:104F4000FFFFFFFFDFFFFFFFFFFFFFFFDFFFBEF7FA
:104F5000FFFFBEF7FFFFAE7324218631A63165291E
:104F600065294529452986318E73DBDEFFFFDFFF8A
:104F70009EF7FFFFFFFFFFFFFFFF9EF7FFFF75ADEF
:104F800038C61CE7FFFFFFFFFFFF3CE78E7334A529
:104F9000DFFF3CE79EF71CE7FBDE1CE7FBDED7BD2F
:104FA00018C69EF7FFFFDFFFFFFFDFFFFFFFFFFFDA
:104FB000FFFFFFFFFFFFBEF73CE7E3186529452928
:104FC000A21045292421C3182421C318A210284265
:104FD000B6B5FFFFFFFFDFFFFFFFFFFFDFFFFFFFB4
:104FE000FFFF14A53CE759CED7BDFFFFFFFF7DEFC4
:104FF000F7BD34A51CE79EF75DEF9EF7FBDE1CE7CF
:10500000FBDED7BD38C6DFFFFFFFDFFFFFFFDFFF9F
:10501000DFFFDFFFBEF7DFFFFFFF9EF72C634529B1
:10502000E318C3182421E31820002421610845292E
:10503000C31820008210EF7B7DEFFFFFFFFFFFFF13
:10504000DFFFBEF7FFFFF39C79CE1CE718C659CEF1
:105050007DEFFFFFFFFF38C61CE79EF7FBDE3CE756
:10506000FBDEDBDEBAD6D7BD59CEDFFFFFFFFFFF89
:10507000FFFFDFFFFFFFFFFFDFFFFFFFFFFFBEF7C9
:10508000652982108210C3184108A21024216108EA
:10509000E318E318A2100421E318821075ADDFFFB6
:1050A000FFFFFFFFFFFFBEF7FFFF55AD14A5FFFF9A
:1050B0005DEFF7BD79CEFFFF7DEF1CE75DEF5DEFA4
:1050C0003CE7DBDEFBDE79CE38C6D7BD9AD6DFFF04
:1050D000FFFFFFFFDFFFDFFFFFFFFFFFFFFFFFFF20
:1050E000FFFF9EF79294EB5A2421A2108631E31819
:1050F00082100421C3184529E318610808424108B9
:10510000F7BDFFFFFFFFFFFFBEF7FFFFFFFF79CEF9
:10511000718C3CE73CE77DEFF7BD9AD6D7BD5DEFDC
:105120003CE75DEF9AD6FBDE1CE738C618C638C6EA
:10513000FBDEDFFFBEF7FFFFFFFFFFFFFFFFFFFF0D
:10514000BEF7DFFFDFFF3CE79EF7CF7BAA522421AB
:10515000242141088210863104218631C7398631E5
:105160002421C318BAD6FFFFFFFFFFFFFFFFFFFF99
:10517000DFFF5DEF6D6B59CEBEF7DBDED7BD75ADE2
:10518000D7BD7DEF3CE71CE714A5D7BD59CE38C687
:105190009AD6DBDE3CE7DFFFDFFFFFFFFFFFFFFF0D
:1051A000FFFFDFFFBEF7FFFFDFFF1CE714A5CB5AB1
:1051B000EF7BC7390000C739CF7BAA524529410888
:1051C0004529CB5A8210CB5A3CE7BEF7FFFFFFFFC1
:1051D000FFFFDFFFDFFFFFFFAE7334A59EF734A5AF
:1051E00075ADB6B59AD63CE7FBDEB6B5D39C14A533
:1051F000308496B51CE7FBDE1CE7FFFFFFFFFFFFD7
:10520000FFFFDFFFDFFFDFFFFFFFFFFF1CE796B5BC
:1052100028423084518C4D6B2C63F7BDBAD638C60A
:10522000694A8210610841084529BAD6FFFFBEF7D6
:10523000FFFFFFFF9EF7FFFFBEF7FFFF96B54D6B29
:1052400075ADB6B534A5BAD679CE59CE38C6108468
:1052500079CEB6B52842F39C3CE7BAD69AD6FFFF82
:10526000FFFFDFFFFFFFDFFFFFFFFFFFFFFF5DEF40
:1052700075AD2C63EF7B10848E73FBDE38C6DFFFC9
:10528000FFFFBEF7FBDECB5A6529A210D7BDFFFF9B
:105290007DEFFFFFFFFFFFFFFFFFFFFFFFFF5DEF62
:1052A000BEF7EB5AB29434A5D7BDB6B59AD6F7BDC2
:1052B000518C59CE34A5CB5A108455AD3CE7DBDE7A
:1052C000DBDEFFFFDFFFDFFFFFFFDFFF9EF718C61C
:1052D000F7BDDBDE8E736D6B10846D6B79CEFFFFD7
:1052E000BEF7FFFFFFFFDFFFFFFF1CE7B2949294C2
:1052F0007DEFFFFFBEF7FFFFFFFFFFFFFFFFBEF7E2
:10530000FFFFFFFFFFFF96B5308496B5B6B5D7BD5A
:10531000D7BD718C18C614A5EF7B4D6B38C6DBDE8C
:10532000FBDEBAD65DEFFFFFDFFFBEF77DEFFFFFCD
:1053300055AD652965294D6B8E73CF7B8A5279CE29
:10534000FFFFDFFFFFFFFFFFFFFFFFFF9EF7FFFFF6
:105350007DEF5DEFFFFFFFFF7DEFFFFFFFFFFFFF33
:10536000FFFFFFFFBEF7FFFFFFFF3CE7F39C96B593
:1053700014A5F7BDD39CF39C55ADAE730C63F39CA1
:1053800038C61CE7BAD659CEDBDE7DEFFFFFFFFF44
:10539000FFFF518C24212842042141080C6328423C
:1053A00034A5FFFFFFFF7DEFFFFFDFFFBEF7FFFF2D
:1053B000BEF7FFFFFFFFFFFFFFFFFFFFDFFFFFFF66
:1053C000FFFFFFFFFFFFFFFF7DEF9EF7FFFFD39C77
:1053D000F39C96B596B596B5D39CF7BDCF7BEB5AAB
:1053E000EF7B75AD18C6FBDEFBDE1CE7DBDE7DEF79
:1053F000FFFF9EF78E730421E739A631E739E739BD
:1054000000006D6BFFFFDFFF3CE7FFFFFFFFBEF714
:10541000FFFFFFFFFFFFBEF77DEF9EF7DFFFFFFF00
:10542000FFFFDFFFFFFFFFFFFFFFFFFFDFFFFFFFCC
:10543000FFFFAA522C63B294B6B5D39C55AD14A508
:1054400030844D6B75ADF39C18C6B6B5D7BD79CE1B
:1054500038C61CE75DEFAE73E318494AC7396529C2
:10546000A6312421000034A5FFFF1CE7FFFFFFFF4A
:105470009EF7FFFFFFFFDFFFFFFFDFFFFFFFFFFFE5
:10548000FFFFFFFFFFFFDFFFFFFFFFFFFFFFBEF795
:10549000FFFFFFFFBEF755ADCB5A694AEF7B9294F1
:1054A000F39CF39CF39C14A518C638C655AD718CBB
:1054B00034A5F7BD75AD59CEB6B586318A5265298A
:1054C000A631E739E318610845293CE7BEF77DEFCF
:1054D000FFFFFFFFDFFFFFFFBEF7FFFFFFFFFFFF45
:1054E000FFFFFFFFFFFFFFFFFFFFFFFFFFFFFFFFCC
:1054F000FFFFFFFFFFFFBEF79EF7FFFF96B54D6B67
:105500000842EB5ACB5A4D6BCB5A8E73EB5A518CE7
:10551000D39CB29438C6DBDE79CEBAD638C6929424
:10552000C31828422421042104210000B294FFFF63
:10553000FFFFFFFFBEF7BEF7FFFFFFFF7DEFFFFF9F
:10554000FFFFDFFF9EF79EF7FFFFFFFFFFFFFFFF5D
:10555000FFFFFFFFFFFFFFFF7DEFFFFFDFFF7DEF9F
:10556000FFFF1CE775ADCF7BCF7B0C634D6B8A5281
:10557000E7392842AE733084D7BD59CE9AD69AD631
:10558000F7BDBAD6B294E318863104218210863171
:10559000DFFF7DEF7DEFFFFFFFFFFFFFFFFFDFFF7F
:1055A000FFFFFFFFFFFFFFFFFFFFFFFFFFFFFFFF0B
:1055B000DFFFFFFFFFFFFFFFFFFFFFFFFFFFFFFF1B
:1055C000FFFFFFFFFFFFFFFFFFFFBEF71CE7FBDE54
:1055D00079CE96B5B2946D6B2842AE73718C38C695
:1055E00018C6BAD6FBDE96B59AD6718C821000002A
:1055F000C31875ADBEF7DFFFDFFFFFFFFFFFFFFF43
:10560000FFFFFFFFFFFFFFFFFFFFFFFFFFFFFFFFAA
:10561000FFFFFFFFFFFFFFFFFFFFFFFFFFFFFFFF9A
:10562000FFFFFFFFFFFFFFFFFFFFFFFF9EF7FFFFF3
:10563000BEF7FFFFFFFFDFFFDFFF5DEFF39C494A8F
:10564000718C718C59CEFBDE18C659CE55AD59CE32
:105650003084A210AE7379CEFFFF9EF7FFFFFFFFED
:10566000FFFFFFFFFFFFFFFFFFFFFFFFFFFFFFFF4A
:10567000FFFFFFFFFFFFFFFFFFFFFFFFFFFFFFFF3A
:10568000FFFFFFFFFFFFFFFFFFFFFFFFFFFFFFFF2A
:10569000BEF7FFFFFFFFFFFFFFFFFFFFFFFFDFFF83
:1056A0001CE7718CCB5A518C34A5D7BD9AD6BAD68B
:1056B00059CE55AD9AD6929496B5FFFFDFFFFFFF06
:1056C000FFFFFFFFFFFFFFFFFFFFFFFFFFFFFFFFEA
:1056D000FFFFFFFFFFFFFFFFFFFFFFFFFFFFFFFFDA
:1056E000FFFFFFFFFFFFFFFFFFFFFFFFFFFFFFFFCA
:1056F000FFFFFFFFFFFFFFFFBEF7DFFFFFFFBEF76C
:10570000DFFFDFFFFFFF75AD042110849294718CE1
:105710009AD679CEFBDEF7BDF39C9EF77DEF3CE792
:10572000FFFFDFFFFFFFFFFFFFFFFFFFFFFFFFFFA9
:10573000FFFFFFFFFFFFFFFFFFFFFFFFFFFFFFFF79
:10574000FFFFFFFFFFFFFFFFFFFFFFFFFFFFFFFF69
:10575000FFFFFFFFFFFFFFFFFFFFFFFFBEF7FFFFA2
:10576000FFFFBEF7FFFFFFFFBEF70842A210C739D9
:105770009294B29414A518C638C6FBDE96B5D7BD70
:105780009EF71CE7FFFFBEF7FFFFFFFFFFFFFFFFD6
:10579000FFFFFFFFFFFFFFFFFFFFFFFFFFFFFFFF19
:1057A000FFFFFFFFFFFFFFFFFFFFFFFFFFFFFFFF09
:1057B000FFFFFFFFFFFFFFFFFFFFFFFFFFFFFFFFF9
:1057C000FFFFFFFF9EF77DEFFFFF9EF74D6B200071
:1057D000E318A210694A14A5B29475AD18C638C66C
:1057E0003CE755AD34A5FFFFFBDEFFFFDFFFDFFF2A
:1057F000FFFFFFFFFFFFFFFFFFFFFFFFFFFFFFFFB9
:10580000FFFFFFFFFFFFFFFFFFFFFFFFFFFFFFFFA8
:10581000FFFFFFFFFFFFFFFFFFFFFFFFFFFFFFFF98
:10582000BEF7DFFFFFFFFFFFDFFFFFFFBEF7D39CE9
:1058300000000421A210042161084D6BF39C14A503
:10584000D7BD38C618C61CE734A559CE5DEF5DEF4D
:10585000BEF7DFFFDFFFFFFFFFFFFFFFFFFFFFFFE1
:10586000FFFFFFFFFFFFFFFFFFFFFFFFFFFFFFFF48
:10587000FFFFFFFFFFFFFFFFFFFFFFFFFFFFFFFF38
:10588000FFFFFFFFFFFFFFFFFFFFDFFF9EF7FFFFB1
:1058900018C68210C31882108210A210C318E31811
:1058A0001084F39CB6B5D7BD59CE38C63CE775AD6C
:1058B00059CE3CE79EF7BEF7DFFFFFFFFFFFFFFF7C
:1058C000FFFFFFFFFFFFFFFFFFFFFFFFFFFFFFFFE8
:1058D000FFFFFFFFFFFFFFFFFFFFFFFFFFFFFFFFD8
:1058E000FFFFFFFFFFFFFFFFFFFFFFFF9EF7FFFF31
:1058F000DFFFFBDE2842C318C31861080421A21091
:10590000410841086529B29414A5D7BD18C618C628
:10591000BAD679CE18C659CE9AD65DEFDFFFDFFF33
:10592000DFFFFFFFFFFFDFFFFFFFFFFFFFFFFFFFC7
:10593000FFFFFFFFFFFFFFFFFFFFFFFFFFFFFFFF77
:10594000FFFFFFFFFFFFFFFFFFFFFFFFFFFFFFFF67
:10595000FFFF3CE7FFFFCB5AE739A631A210C3187F
:10596000200061082000C318AA528A52B294F7BDE1
:1059700018C696B538C659CEDBDE18C618C659CE3D
:105980001CE7FFFFFFFFDFFFDFFFFFFFFFFFFFFF62
:10599000FFFFFFFFFFFFFFFFFFFFFFFFFFFFFFFF17
:1059A000FFFFFFFFFFFFFFFFFFFFFFFFFFFFFFFF07
:1059B000DFFFFFFF7DEFFFFF3084E739A63128428C
:1059C000E31861084108200000006D6B18C68A5278
:1059D000EB5A14A596B559CE55AD79CEFBDE79CEEE
:1059E000F7BDD7BD38C63CE7FFFFFFFFDFFFFFFF76
:1059F000FFFFFFFFFFFFFFFFFFFFFFFFFFFFFFFFB7
:105A0000FFFFFFFFFFFFFFFFFFFFFFFFFFFFFFFFA6
:105A1000FFFFFFFFDFFFDFFFFFFF96B5A631284244
:105A20000842863145298210C3180000C739FBDEC1
:105A3000FFFFF7BD08422C6355AD79CED7BDF7BD4A
:105A400038C6BAD69AD679CE18C618C6FBDEFFFF7E
:105A5000FFFFBEF7FFFFFFFFFFFFFFFFFFFFFFFF9F
:105A6000FFFFFFFFFFFFFFFFFFFFFFFFFFFFFFFF46
:105A7000FFFFFFFFFFFFFFFFFFFFFFFF9AD6A631EB
:105A800028420842863165294529E3182000E31899
:105A900075ADFFFF7DEFFFFF9294E739718CF39CAA
:105AA000BAD696B596B538C6DBDEDBDE79CEF7BD65
:105AB00038C61CE7DFFFFFFFFFFFFFFFFFFFFFFF11
:105AC000FFFFFFFFFFFFFFFFFFFFFFFFFFFFFFFFE6
:105AD000FFFFFFFFFFFFFFFFFFFFFFFFFFFF1CE7D1
