:100000000C9431550C9462550C9462550C946255C5
:100010000C9462550C9462550C9462550C94625584
:100020000C9462550C9462550C9462550C94625574
:100030000C9462550C945BDB0C9462550C946255E5
:100040000C9462550C9462550C9462550C94625554
:100050000C9462550C9462550C9462550C9440DCDF
:100060000C9462550C9489DA0C9460DA0C94625505
:100070000C9462550C9462550C9462550C94625524
:100080000C9462550C9462550C9462550C94625514
:100090000C9462550C9462550C9462550D94C006F4
:1000A0000C9462550C9462550C9462550C946255F4
:1000B0000C9462550C9462550C9462550C946255E4
:1000C0000C9462550C9462550C9462550C946255D4
:1000D0000C9462550C9462550C9462550C946255C4
:1000E0000C946255605A635A685A705A7B5A7B5A0C
:1000F000895A895A895A7A819081A681BC81D28194
:10010000E881FE811482B082E1821283438374838A
:10011000A583D68307848484EC851E874E887E89D8
:10012000AE8ADE8B038CDC8EF28E088F1E8F348FAE
:100130004A8F608FAB8FDC8F0D903E906F90A090B8
:10014000D190309144924A93509456955C9664971E
:1001500040997999AB99DD990F9A419A739AA59A2A
:10016000D79A099B6F9BA09BD19B029C339C649C5C
:10017000959CC69CF79C289D6E9D7C9E809F8FA021
:1001800093A197A2A4A3AAA3B0A3B6A3B9AECFAEDE
:10019000E5AEFBAE11AF27AF3DAF85AFB6AFE7AF72
:1001A00018B049B07AB0ABB00EB135B15CB183B123
:1001B000AAB1D1B1F4B1FDD800D9EFD8F3D8F9D8AC
:1001C00037D904D908D90ED912D916D91CD920D9B2
:1001D00024D937D92AD92ED932D91B012B0117019D
:1001E000090107010F012D0105014F0149010B0113
:1001F0001F012F01390125013D01150131012701A1
:100200004B010D014101290111010D94851D0D9432
:10021000341D0D94191D0D94251F0D94E51F0D948B
:100220004F1D0D94EE1F0D94F7020D94D91F0D94E0
:10023000FE1C0D9433320D94BF1C0D94C7030D9416
:10024000401F0D9418030D94D6020D94911F0D9428
:10025000DF1F0D94EB1F0D94E31C0D946A1D0D948C
:100260005B1F0D94DC1F0D9419080D9419030D9458
:100270001C300D94761F0D940D030D94AC1F0D943E
:100280003C030D94E81F0D9444030D9432320D94F9
:100290004C030D940A1F0D94E21F0D9428030D9436
:1002A000EF1E0D94B53F0D9478410D94D00300409E
:1002B0007A10F35A00A0724E18090010A5D4E80075
:1002C00000E87648170000E40B54020000CA9A3B8D
:1002D000000000E1F5050000809698000000404213
:1002E0000F000000A08601000000102700000000A1
:1002F000E803000000006400000000000A000000A5
:1003000000000100000000002C76D888DC674F0850
:1003100023DFC1DFAE59E1B1B796E5E3E453C63A56
:10032000E651997696E8E6C28426EB898C9B62EDCD
:10033000407C6FFCEFBC9C9F40F2BAA56FA5F49087
:10034000055A2AF75C936B6CF9676DC11BFCE0E4FE
:100350000D47FEF520E6B500D0ED902E0300943554
:1003600077050080841E080000204E0A000000C8A7
:100370000C333333330F986E12831141EF8D2114F8
:10038000893BE65516CFFEE6DB18D1844B381BF7C8
:100390007C1D901DA4BBE424203284725E22810067
:1003A000C9F124ECA1E53D27080C20173CE781BDED
:1003B00081BD81BD81BD81FF3CE7818181BD81BD62
:1003C00081BD81FF3CE78181818181BD81BD81FF4C
:1003D0003CE781818181818181BD81FF3CE7818111
:1003E00081818181818181FFFFFF003F3F000F0FED
:1003F000000303000000003F3F000F0F0003030055
:100400000000000000000F0F0003030000000000C8
:100410000000000000030300000010101010105432
:100420003810000000001038541010101010000098
:100430000000000010087C08100000000000000010
:1004400010207C20100000000000003C0C1424440C
:1004500080000000000000804424140C3C000000D8
:1004600000003C42A581A599423C000000003C7E72
:10047000DBFFFFDB663C000000003C42A58199A544
:10048000423C000000003C7EDBFFFFE75A3C0000DE
:1004900000003C4281818181423C000000003C7EA2
:1004A000FFFFFFFF7E3C00000000FF818181818112
:1004B00081FF00000000FFFFFFFFFFFFFFFF0000C4
:1004C000FFFFFFFFFFFFFFFFFFFFFFFFFFFFFFFF3C
:1004D000FFFFFFFFFFFFFFFFFFFFFFFF59D6108C5D
:1004E0006D732C6BAA5AAA5AAA5A8D7BCE8313AD70
:1004F000FBE6FFFFFFFFFFFFFFFFFFFFFFFFFFFF29
:10050000FFFFFFFFFFFFFFFFFFFFFFFFFFFFFFFFFB
:10051000FFFFFFFFFFFFFFFFFFFFFFFFFFFFFFFFEB
:10052000FFFFFFFFFFFFFFFFFFFFFFFFFFFFFFFFDB
:10053000FFFFFFFFFFFFFFFFFFFFFFFFFFFFFFFFCB
:10054000EF834852308C8E7BC3206210A218485231
:10055000AA62074A518CFFFFDFFFFFFFFFFFFFFF8B
:10056000FFFFFFFFFFFFFFFFFFFFFFFFFFFFFFFF9B
:10057000FFFFFFFFFFFFFFFFFFFFFFFFFFFFFFFF8B
:10058000FFFFFFFFFFFFFFFFFFFFFFFFFFFFFFFF7B
:10059000FFFFFFFFFFFFFFFFFFFFFFFFFFFFFFFF6B
:1005A000FFFFFFFFAE7B29525194108C8210000098
:1005B000410829528A5AC6411084FFFFFFFFFFFFFE
:1005C000FFFFFFFFFFFFFFFFFFFFFFFFFFFFFFFF3B
:1005D000FFFFFFFFFFFFFFFFFFFFFFFFFFFFFFFF2B
:1005E000FFFFFFFFFFFFFFFFFFFFFFFFFFFFFFFF1B
:1005F000FFFFFFFFFFFFFFFFFFFFFFFFFFFFFFFF0B
:10060000FFFFFFFFDFFFFFFF8E7B69527194108CAD
:10061000A218000082106952CA62C741108CFFFF05
:10062000DFFFFFFFFFFFFFFFFFFFFFFFFFFFFFFFFA
:10063000FFFFFFFFFFFFFFFFFFFFFFFFFFFFFFFFCA
:10064000FFFFFFFFFFFFFFFFFFFFFFFFFFFFFFFFBA
:10065000FFFFFFFFFFFFFFFFFFFFFFFFFFFFFFFFAA
:10066000FFFFFFFFFFFFFFFFFFFFDFFF2C6B2952A4
:1006700051940C6321080000611069520B6BC64154
:10068000AE7BDEFFFFFFFFFFFFFFFFFFFFFFFFFF70
:10069000FFFFFFFFFFFFFFFFFFFFFFFFFFFFFFFF6A
:1006A000FFFFFFFFFFFFFFFFFFFFFFFFFFFFFFFF5A
:1006B000FFFFFFFFFFFFFFFFFFFFFFFFFFFFFFFF4A
:1006C000FFFFFFFFFFFFFFFFFFFFFFFFB6BDEB6276
:1006D000284A084A2C6BE74141082108410845296E
:1006E000C739A63949528D73B6BDFFFFFFFFFFFF23
:1006F000FFFFFFFFFFFFFFFFFFFFFFFFFFFFFFFF0A
:10070000FFFFFFFFFFFFFFFFFFFFFFFFFFFFFFFFF9
:10071000FFFFFFFFFFFFFFFFFFFFFFFFFFFFFFFFE9
:10072000FFFFFFFFFFFFFFFFFFFFFFFFDFFFFFFFF9
:10073000308C2429E7414852AA5A04212108410853
:10074000210800004108A639C641084AD39CFFFF92
:10075000DFFFFFFFFFFFFFFFFFFFFFFFFFFFFFFFC9
:10076000FFFFFFFFFFFFFFFFFFFFFFFFFFFFFFFF99
:10077000FFFFFFFFFFFFFFFFFFFFFFFFFFFFFFFF89
:10078000FFFFFFFFFFFFFFFFFFFFFFFFFFFFFFFF79
:10079000DFFFFFFF92948539C7412852AA5A0421EE
:1007A00000002108410821088210A639C64149529B
:1007B000F3A4FFFFDFFFFFFFFFFFFFFFFFFFFFFFD0
:1007C000FFFFFFFFFFFFFFFFFFFFFFFFFFFFFFFF39
:1007D000FFFFFFFFFFFFFFFFFFFFFFFFFFFFFFFF29
:1007E000FFFFFFFFFFFFFFFFFFFFFFFFFFFFFFFF19
:1007F000FFFFFFFFDFFFFFFF508C4531E74148520D
:10080000AA5A042121082108210821086210A639CA
:10081000E741084AB29CFFFFDFFFFFFFFFFFFFFF3A
:10082000FFFFFFFFFFFFFFFFFFFFFFFFFFFFFFFFD8
:10083000FFFFFFFFFFFFFFFFFFFFFFFFFFFFFFFFC8
:10084000FFFFFFFFFFFFFFFFFFFFFFFFFFFFFFFFB8
:10085000FFFFFFFFFFFFFFFFFFFFFFFF18C6E7419E
:100860006539C749E751A328001000100010001097
:10087000201825398641CA6238CEFFFFFFFFFFFFEF
:10088000FFFFFFFFFFFFFFFFFFFFFFFFFFFFFFFF78
:10089000FFFFFFFFFFFFFFFFFFFFFFFFFFFFFFFF68
:1008A000FFFFFFFFFFFFFFFFFFFFFFFFFFFFFFFF58
:1008B000FFFFFFFFFFFFFFFFFFFFFFFFFFFFDFFF68
:1008C000FFFFB2A4654966512559834841388348E2
:1008D000A348E45004596661C759D7CDFFFFDFFF35
:1008E000FFFFFFFFFFFFFFFFFFFFFFFFFFFFFFFF18
:1008F000FFFFFFFFFFFFFFFFFFFFFFFFFFFFFFFF08
:10090000FFFFFFFFFFFFFFFFFFFFFFFFFFFFFFFFF7
:10091000FFFFFFFFFFFFFFFFFFFFFFFFFFFFFFFFE7
:10092000FFFFFFFFDFFFBEFF38EE6EABEDAAA88929
:100930004681678966898789E891499276DD9EFFBD
:10094000BFFFFFFFFFFFFFFFFFFFFFFFFFFFFFFFF7
:10095000FFFFFFFFFFFFFFFFFFFFFFFFFFFFFFFFA7
:10096000FFFFFFFFFFFFFFFFFFFFFFFFFFFFFFFF97
:10097000FFFFFFFFFFFFFFFFFFFFFFFFFFFFFFFF87
:10098000FFFFFFFFFFFFFFFFDFFFDFFFF8F54EC3B5
:100990008FDB09BA87A988A987A94ABA8BC2ECB2AA
:1009A000DBFEBFFFDFFFFFFFFFFFFFFFFFFFFFFFDC
:1009B000FFFFFFFFFFFFFFFFFFFFFFFFFFFFFFFF47
:1009C000FFFFFFFFFFFFFFFFFFFFFFFFFFFFFFFF37
:1009D000FFFFFFFFFFFFFFFFFFFFFFFFFFFFFFFF27
:1009E000FFFFFFFFFFFFFFFFFFFFFFFFDFFF9EFF98
:1009F00072D44ED3CCD20ACAC9C1C9C1E9C14ACA4C
:100A00004AC22AAA51CC79FE3CFF7EFFDFFFDFFFFE
:100A1000DFFFDFFFFFFFFFFFFFFFFFFFFFFFFFFF26
:100A2000FFFFFFFFFFFFFFFFFFFFFFFFFFFFFFFFD6
:100A3000FFFFFFFFFFFFFFFFFFFFFFFFFFFFFFFFC6
:100A4000FFFFFFFFFFFFFFFFFFFFDFFFDFFF5DFF98
:100A5000FCFE59FE11DCCCCA4AC22ACA2ACA4ACABA
:100A6000CCDA6BCA09C209BAABBAAFCB72D4D3D451
:100A700092CCB3CC55DD18E63CF7FFFFFFFFFFFF3C
:100A8000FFFFFFFFFFFFFFFFFFFFFFFFFFFFFFFF76
:100A9000FFFFFFFFFFFFFFFFFFFFFFFFFFFFFFFF66
:100AA000FFFFFFFFFFFFFFFFFFFFFFFFFFFFDFFF76
:100AB0009AF672BC31C431D48FD3CCC28BC28BC2F4
:100AC000ABCAECDA6BCA09C209C209C24AC2ACC2DB
:100AD0006ED351E4B3EC51D431CCF0B396DD9EFF2C
:100AE000DEFFDFFFDFFFFFFFDFFFFFFFFFFFFFFF97
:100AF000FFFFFFFFFFFFFFFFFFFFFFFFFFFFFFFF06
:100B0000FFFFFFFFFFFFFFFFFFFFFFFFFFFFDFFF15
:100B1000FFFFDFFF35D5AFBBF0D38FCB6ED30DC357
:100B2000D0D3F0DB0CCB09BA2AC22ACA2ACA2ACAF5
:100B30002AC24AC24ABAABC28FD372ECB3F4D4EC25
:100B4000B3DCB3D455E5F7ED9AFE7DFFDFFFDFFFA1
:100B5000FFFFFFFFFFFFFFFFFFFFFFFFFFFFFFFFA5
:100B6000FFFFFFFFFFFFFFFFFFFFFFFFFFFFFFFF95
:100B7000FFFFFFFFDEFF7DFFF4CCF0BB8EBB4DB36C
:100B8000ECB2ABA2F0C3AB9A29A229B2ECD2ACCAA8
:100B9000ABCA8BCA8BCA8BCA8BCAACCACCCA4ED35F
:100BA0006ED34EC3AFC331CC31C451BC51BCD3C4DE
:100BB00038E69EFFDFFFFFFFFFFFFFFFFFFFFFFFA6
:100BC000FFFFFFFFFFFFFFFFFFFFFFFFFFFFFFFF35
:100BD000FFFFFFFFF3A46D73108C5194B2AC51ACC6
:100BE000496A086A29720872087A6A92C8896AA2F0
:100BF000CBB2ECBA0DC32DCB0DD3ECD2ECD2EDD2EF
:100C00000DD3ECCA2DCBCFCB6DABCB8A6A7A697290
:100C1000AB822D93CFAB34D55DFFFFFFFFFFFFFF0E
:100C2000FFFFFFFFFFFFFFFFFFFFFFFFFFFFFFFFD4
:100C3000FFFFFFFFFFFFFFFF8D73C741284A2852C8
:100C4000695ACB6A0C6B8A620852C7518651665941
:100C50008669A771E879C779E8814A92ECBA0DCB29
:100C60000DD30DDBCCCA2DCB2DB3E879A661C759C6
:100C7000E759696AC7598659E8710C93D3C45DFF77
:100C8000DFFFFFFFFFFFFFFFFFFFFFFFFFFFFFFF94
:100C9000FFFFFFFFFFFFFFFFFFFFFFFFCE7B284AA5
:100CA000695A4852084A084A084AC741A641E749D2
:100CB000285A085249622862CB72CB7A8A7228720B
:100CC00049928BB28BC28BBA0DC3CBA26659E7593E
:100CD0004C832C7B4C7BD2AC8962AA6A4862086246
:100CE000EB8A55D5BFFFDFFFFFFFFFFFFFFFFFFFD1
:100CF000FFFFFFFFFFFFFFFFFFFFFFFFFFFFFFFF04
:100D0000CE7BE7414952284A2852284A4531C741FB
:100D1000A218084A48528639C741A639A639A641C1
:100D2000A64145496A928ECBECC22DCBABA2455968
:100D30008649485A4C7B2C7389620C73074A0B6BAB
:100D40000B73EB72A6614D939AEEDFFFDFFFFFFF9F
:100D5000FFFFFFFFFFFFFFFFFFFFFFFFFFFFFFFFA3
:100D6000FFFFFFFFCE83E7414852284A6952032123
:100D70002429653145316952E74145318639863943
:100D80008639A639A7416549098A4DC30DC3ECB21E
:100D90006661A651A64128520B6BEB6A695AEB6A51
:100DA000C6414852895AEB7265490862F3BCBEFFDE
:100DB000DFFFFFFFFFFFFFFFFFFFFFFFFFFFFFFF63
:100DC000FFFFFFFFFFFFFFFFCF83C7414852284AC5
:100DD0004952853141084108C318863908424529DE
:100DE000863186318631A63986392541E8790DBBB1
:100DF0000DBBE8814549C749A639895A8A5A8639BF
:100E0000084A2852A639A641895A4852C749A651CC
:100E10004D931CFFDFFFFFFFFFFFFFFFFFFFFFFF03
:100E2000FFFFFFFFFFFFFFFFDFFFFFFFCF7BC6419D
:100E30002852084A69526952242900000000E32020
:100E4000E741442965316531653186398539254168
:100E5000C7794DBBCBA24561E7596539AA5A4952BA
:100E6000E749C7410429E7412C73C641695A285212
:100E700089624962297239EEDFFFDFFFFFFFFFFF62
:100E8000FFFFFFFFFFFFFFFFFFFFFFFFDFFFFFFF92
:100E9000CF7BA639284A074A6952284A45290000CB
:100EA0000000C318284A4429653165316531653130
:100EB0008639244186716EB3087A49728D8B6952E6
:100EC000485228526539A64151946D7BC741AA62A8
:100ED000C741695A695A0C7BE76176D5DFFFFFFF8E
:100EE000FFFFFFFFFFFFFFFFFFFFFFFFFFFFFFFF12
:100EF000FFFFFFFFCF83A639284A074A28526952CD
:100F0000042100000000C3180842452965316531FD
:100F1000653145316531043986692DAB0872AA7295
:100F2000509C2C73895A2852653138D6BEFFD6C5DD
:100F30008D7BA641C74185392852EB72C761F4C445
:100F4000DFFFFFFFFFFFFFFFFFFFFFFFFFFFFFFFD1
:100F5000FFFFFFFFDFFFFFFFCF83A639284A084AC4
:100F6000084AE741863100000000E320C7414529D7
:100F700045294529452944294531043966690CA389
:100F800028724862EE8BCA620B6B8639EB627DF782
:100F9000B6C5D2A458D66539C741CB62AA622C7BAC
:100FA000C761D3C4DFFFFFFFFFFFFFFFFFFFFFFFAE
:100FB000FFFFFFFFFFFFFFFFDFFFFFFFCF8386394C
:100FC000084A084AA639AE7BE741A2180000442926
:100FD000C74145294529452924292429242904399B
:100FE0006661EC9A076A2C7B13B5895A2C73A6416B
:100FF000B2A4FBEEB2A438D658D6C641C741CA62E5
:1010000089620C7BA76114C5DFFFDFFFFFFFFFFFD5
:10101000FFFFFFFFFFFFFFFFFFFFFFFFDFFFFFFF00
:10102000CF838639084A074AE741B6BD484A653149
:10103000A218E741284A4529452945292429242978
:101040002429E3306561EB9A286ACE9333B5AA620E
:10105000CA628539F3ACBAE696BDDBEE14AD6539EC
:10106000C6416539485A0C7BE86196D5DFFFFFFF22
:10107000FFFFFFFFFFFFFFFFFFFFFFFFFFFFFFFF80
:10108000DFFFFFFFCF838639084AE749084A485205
:10109000284AE741074A084A084A4531452945296F
:1010A000452924292429C33065610C9B086ACE9305
:1010B000D2ACEA6A695AC741284A55B5BAE618D689
:1010C00049528539C741A641495ACB7249727AEED5
:1010D000FFFFFFFFFFFFFFFFFFFFFFFFFFFFFFFF20
:1010E000FFFFFFFFDFFFFFFFEF838639074AE74976
:1010F000084AE849E741E741C741E741C74145316F
:1011000045294529442924292531E33045612DA36A
:10111000E769EB7A91A42B736952695A2431E7414C
:101120002C6BE7498639084A49528641495AC751CA
:101130002D8B5DFFDFFFFFFFFFFFFFFFFFFFFFFFC7
:10114000FFFFFFFFFFFFFFFFFFFFFFFF1084863958
:10115000E749E749084AE849E741E741C741A63975
:10116000A639453145292429242924294431C3306D
:1011700045614DABE871286A4C7B6952695A695ADE
:101180008639A64145314852695A6952895AA64161
:101190008649A651F4BCDFFFDFFFFFFFFFFFFFFF23
:1011A000FFFFFFFFFFFFFFFFFFFFFFFFDFFFFFFF6F
:1011B00010848639E749E741E741084AE741E741BA
:1011C000C741C641A639452945292429242904298E
:1011D0002429C33045690DB38A922559E7598539C9
:1011E000084AE7498639A641A641AA62CB62CB628A
:1011F0008A62A6496549CB7ADBEEDFFFDFFFFFFF9E
:10120000FFFFFFFFFFFFFFFFFFFFFFFFFFFFFFFFEE
:10121000FFFFFFFF308CA639084AE741074A074A1B
:10122000E741C741C641A6398639452925292529DF
:10123000242924292431C33866690CB3ECB2867999
:101240004449C74986418639084A085286418A5A24
:101250008A5A074A485A8649C76114C5DFFFDFFF2B
:10126000FFFFFFFFFFFFFFFFFFFFFFFFFFFFFFFF8E
:10127000FFFFFFFFDFFFFFFF308CC641284A074A10
:10128000084A074AE741C641A641C641A639452951
:1012900025292429242904292429E3388671ECB23C
:1012A000ACBAABAA65618651A649E7490C73EB6AF3
:1012B000E7492852CB6A285A085AA651F0A35DFF85
:1012C000DFFFFFFFFFFFFFFFFFFFFFFFFFFFFFFF4E
:1012D000FFFFFFFFFFFFFFFFDFFFFFFF108C653108
:1012E000284A084A284A084AE741C741C641C74137
:1012F000A6392429452945292429042924290439E2
:10130000A771ECAA8BB2CCBA8AA245612549E751F4
:10131000CB6A695AC749C649A651454986618E9B21
:10132000FBF6DFFFDFFFFFFFFFFFFFFFFFFFFFFF1A
:10133000FFFFFFFFFFFFFFFFFFFFFFFFFFFFFFFFBD
:1013400018C60B636952C641C641C641C741C74171
:10135000C641A6398639452925294529042904315C
:101360004539E438E871E8814571E8898BA2CB9A68
:10137000087266514549244145494549A659497273
:10138000F0ABFBFEDFFFDFFFFFFFFFFFFFFFFFFF15
:10139000FFFFFFFFFFFFFFFFFFFFFFFFFFFFFFFF5D
:1013A000FFFFFFFFFFFFFFFF1CE7F7C592944C6BA9
:1013B000484AE741C741C64186394529452904299C
:1013C000043124392441C338CB8279F655D572B41F
:1013D000CFABEC9AAB928A922982087A087A8A82F9
:1013E0006E9B55CD7EFFDFFFDFFFFFFFFFFFFFFF9F
:1013F000FFFFFFFFFFFFFFFFFFFFFFFFFFFFFFFFFD
:10140000FFFFFFFFFFFFFFFFFFFFFFFFFFFFFFFFEC
:10141000FFFFFFFFFBE66952A639A639653145316A
:101420004531C741864986496651C759CB72DBF6BB
:10143000DFFFDFFFBEFFBBFE55DDF0BBAFABF0B3A0
:10144000B3CCD7E51CFFDFFFFFFFDFFFFFFFFFFF90
:10145000FFFFFFFFFFFFFFFFFFFFFFFFFFFFFFFF9C
:10146000FFFFFFFFFFFFFFFFFFFFFFFFFFFFFFFF8C
:10147000FFFFDFFFDFFFFFFFB6BDC639A6394529F5
:10148000242904292429084AC328A228E438E33857
:10149000E330519CDFFFBEFFDFFFDFFFDFFFDFFF39
:1014A000BFFFBFFFDFFFDFFFDFFFDFFFFFFFFFFF4C
:1014B000FFFFFFFFFFFFFFFFFFFFFFFFFFFFFFFF3C
:1014C000FFFFFFFFFFFFFFFFFFFFFFFFFFFFFFFF2C
:1014D000FFFFFFFFFFFFFFFFDFFFFFFFB29C653154
:1014E00007428631242904294531C741001061187B
:1014F0008220A228A2204C73FFFFDFFFFFFFFFFF27
:10150000DFFFFFFFFFFFFFFFFFFFFFFFFFFFFFFF0B
:10151000FFFFFFFFFFFFFFFFFFFFFFFFFFFFFFFFDB
:10152000FFFFFFFFFFFFFFFFFFFFFFFFFFFFFFFFCB
:10153000FFFFFFFFFFFFFFFFFFFFFFFFDFFFFFFFDB
:10154000D39C6531E7418631242924296531084A35
:10155000E3200329E3280429E3206D73FFFFFFFF45
:10156000FFFFFFFFFFFFFFFFFFFFFFFFFFFFFFFF8B
:10157000FFFFFFFFFFFFFFFFFFFFFFFFFFFFFFFF7B
:10158000FFFFFFFFFFFFFFFFFFFFFFFFFFFFFFFF6B
:10159000FFFFFFFFFFFFFFFFFFFFFFFFFFFFFFFF5B
:1015A000FFFFFFFFB29C6531E741863145292429C1
:1015B0006531E741C320E320E320E320E3206D739E
:1015C000FFFFFFFFFFFFFFFFFFFFFFFFFFFFFFFF2B
:1015D000FFFFFFFFFFFFFFFFFFFFFFFFFFFFFFFF1B
:1015E000FFFFFFFFFFFFFFFFFFFFFFFFFFFFFFFF0B
:1015F000FFFFFFFFFFFFFFFFFFFFFFFFFFFFFFFFFB
:10160000FFFFFFFFDFFFFFFF13A5C3188531653123
:10161000442965312529E320C320E320E320E3208A
:10162000C218CE7BFFFFFFFFFFFFFFFFFFFFFFFFA3
:10163000FFFFFFFFFFFFFFFFFFFFFFFFFFFFFFFFBA
:10164000FFFFFFFFFFFFFFFFFFFFFFFFFFFFFFFFAA
:10165000FFFFFFFFFFFFFFFFFFFFFFFFFFFFFFFF9A
:10166000FFFFFFFFFFFFFFFFFFFFFFFF9EF714A538
:101670006531A639452904218218C318C318E3200F
:1016800003294531D29C7DF7DFFFFFFFFFFFFFFFFE
:10169000FFFFFFFFFFFFFFFFFFFFFFFFFFFFFFFF5A
:1016A000FFFFFFFFFFFFFFFFFFFFFFFFFFFFFFFF4A
:1016B000FFFFFFFFFFFFFFFFFFFFFFFFFFFFFFFF3A
:1016C000FFFFFFFFFFFFFFFFFFFFFFFFFFFFFFFF2A
:1016D000FFFF1BE7695286394529E320E320C32039
:1016E000A218E3200429C641DBDEFFFFDFFFFFFF76
:1016F000FFFFFFFFFFFFFFFFFFFFFFFFFFFFFFFFFA
:10170000FFFFFFFFFFFFFFFFFFFFFFFFFFFFFFFFE9
:10171000FFFFFFFFFFFFFFFFFFFFFFFFFFFFFFFFD9
:10172000FFFFFFFFFFFFFFFFFFFFFFFFFFFFFFFFC9
:10173000FFFFDFFFFFFF79D6C63945314529042178
:10174000E320C320C318C320E320443179D6FFFF30
:10175000DFFFFFFFFFFFFFFFFFFFFFFFFFFFFFFFB9
:10176000FFFFFFFFFFFFFFFFFFFFFFFFFFFFFFFF89
:10177000FFFFFFFFFFFFFFFFFFFFFFFFFFFFFFFF79
:10178000FFFFFFFFFFFFFFFFFFFFFFFFFFFFFFFF69
:10179000FFFFFFFFFFFFFFFFFFFFFBDE494A44297A
:1017A000A218A218A2188218821861104110E741ED
:1017B0003CE7FFFFFFFFFFFFFFFFFFFFFFFFFFFF14
:1017C000FFFFFFFFFFFFFFFFFFFFFFFFFFFFFFFF29
:1017D000FFFFFFFFFFFFFFFFFFFFFFFFFFFFFFFF19
:1017E000FFFFFFFFFFFFFFFFFFFFFFFFFFFFFFFF09
:1017F000FFFFFFFFFFFFFFFFFFFFFFFFFFFFFFFFF9
:10180000FFFF1CE7B6BDEF832C6BCB624D73D3A4F7
:1018100079D6DFFFFFFFFFFFFFFFFFFFFFFFFFFFA7
:10182000FFFFFFFFFFFFFFFFFFFFFFFFFFFFFFFFC8
:10183000FFFFFFFFFFFFFFFFFFFFFFFFFFFFFFFFB8
:10184000FFFFFFFFFFFFFFFFFFFFFFFFFFFFFFFFA8
:10185000FFFFFFFFFFFFFFFFBFF7FFFFFFFFFFFFE0
:10186000FFFFFFFFFFFFFFFFFFFFBDFF9DF7FFFF34
:10187000DEFF9DF7FFFFDADEFBE6BADE7DF7FFFF56
:101880009DFFDEFFDEFF5CF7FFFFFFFFDFFFDFFFF7
:101890009FF7FFFFBFF7FFFFFFFFFFFFFFFFFFFF08
:1018A000FFFFFFFFFFFFFFFFFFFFFFFFFFFFFFFF48
:1018B000FFFFFFFFFFFFFFFFFFFFFFFFFFFFFFFF38
:1018C000DFF7FFFFFFFFDFFFDFFFFFFFDEFFFFFFB1
:1018D000FFFF1BE717C6B6B5D7BD75AD55ADB6BD95
:1018E00054ADD3A475B599DE9DFFFFFFDFFFFFFF69
:1018F000DFFFFFFFFFFFFFFFBFF7DFFFFFFFFFFF80
:10190000FFFFFFFFFFFFFFFFFFFFFFFFFFFFFFFFE7
:10191000FFFFFFFFFFFFFFFFFFFFFFFFFFFFFFFFD7
:10192000FFFFDFF7DFF7FFFFFFFFFFFFFFFFFFFF17
:10193000FFFF7CEF78CEB6B538C6FBDE3CE7DFFFB5
:10194000DFFFDFFF7DEF7DF7BADEB29CD2A49EFF02
:101950009DF7FFFFFFFFDFFFDFFF9EF7BFFFFFFFEA
:10196000FFFFFFFFFFFFFFFFFFFFFFFFFFFFFFFF87
:10197000FFFFFFFFFFFFFFFFFFFFFFFFFFFFFFFF77
:10198000FFFFFFFFFFFFDFF7FFFFFFFFFFFFFFFF8F
:10199000FFFFDEFFFEFFF7BD38C63CE7FFFFFFFF9E
:1019A000FFFFFFFFDFF7FFFFFFFFDFFFFFFF1BE78B
:1019B00075B5919CFFFFFFFF9DF73CEFFFFFFFFF19
:1019C000FFFFBFF7FFFFFFFFFFFFFFFFFFFFFFFF6F
:1019D000FFFFFFFFFFFFFFFFFFFFFFFFFFFFFFFF17
:1019E000FFFFFFFFFFFFFFFFFFFFFFFFFFFFFFFF07
:1019F000DFFFFFFFFFFFBEFFDADE95B57DEFFFFFE4
:101A0000FFFFBFF79EEFFFFFFFFFFFFFDFFFBEF708
:101A1000FFFFFFFF9EF713A599D6FEFFFEFFFFFF16
:101A2000FFFFFFFFFFFFBFFFFFFFFFFFFFFFFFFF06
:101A3000FFFFFFFFFFFFFFFFFFFFFFFFFFFFFFFFB6
:101A4000FFFFFFFFFFFFFFFFFFFFFFFFFFFFFFFFA6
:101A5000FFFFDFFFFFFFDFFFDEFFFFFF38CE99D67E
:101A6000FFFFFFFF5CE7BEF7FFFFFFFFFFFF9EEFFB
:101A7000FFFFFFFF5DEF7DF7BEFFDADE74B57BEFA2
:101A80005BEFFEFF9DF7BDF7FFFFFFFFFFFFFFFFCF
:101A9000FFFFFFFFFFFFFFFFFFFFFFFFFFFFFFFF56
:101AA000FFFFFFFFFFFFFFFFFFFFFFFFFFFFFFFF46
:101AB000DFFFFFFFDFFFDFFFFFFFFBE679D6DEFF83
:101AC00095BD7CF7DEFFDEFFFFFFFFFFFFFF7DEF31
:101AD000BEF7FFFFFFFFDEFFFFFFFFFFDEFF78D651
:101AE00094BDB4BD2E843AE7FEFFFEFFFEFF9DF7D6
:101AF000FFFFFFFFFFFFFFFFFFFFFFFFFFFFFFFFF6
:101B0000FFFFFFFFFFFFFFFFFFFFFFFFFFFFFFFFE5
:101B1000FFFFFFFFFFFFFFFFBEFFFFFFFFFF95BDC2
:101B2000308C17CE909CD9E6F5C516C6DEFFBDFFFA
:101B30009DF7FFFFFFFFFFFFDEFFFFFF3BEF4F942F
:101B4000895A6C7BED83AF9CCC83FDFFFEFFDEFFEB
:101B50005CEFFFFFFFFFFFFFFFFFFFFFFFFFFFFF48
:101B6000FFFFFFFFFFFFFFFFFFFFFFFFFFFFFFFF85
:101B7000FFFFFFFFFFFFFFFFDFFFFFFFBEF7FFFFDE
:101B8000FFFF9DFF0B6B13AD12B54A7B6B7B2A7376
:101B90008C7BD9E6FEFFFAE678DE57D6DEFF9DFFA6
:101BA000EE8BC541C96A8C83CC83B3BD97DEF1A4AB
:101BB000B8DEFEFFBDFFFFFFFFFFFFFFFFFFFFFFE0
:101BC000FFFFFFFFFFFFFFFFFFFFFFFFFFFFFFFF25
:101BD000FFFFFFFFFFFFFFFFFFFFFFFFFFFFFFFF15
:101BE000BEFFDEFF9DFFFAE6AD836C7B93C5D4CDCF
:101BF0002D948FA42A730A6B1AEF3BF733B5B4C543
:101C000057D64F9CA441E551EA72C96A6E94D3C578
:101C1000FDFFCD830A6B78D6BDFFFFFFFFFFFFFFFF
:101C2000FFFFFFFFFFFFFFFFFFFFFFFFFFFFFFFFC4
:101C3000FFFFFFFFFFFFFFFFFFFFFFFFFFFFFFFFB4
:101C4000FFFF7DEFDEFFFFFF95BDC96248524B7B72
:101C500015D6FCFF52BD6EA4E96A665A77DEF9EE2E
:101C60005BFF7BFFDDFF73BD26520231E230E549A9
:101C70002D94FCFF7BFF4B73A95A8D7B9DF7BDF71D
:101C8000FFFFFFFFFFFFFFFFFFFFFFFFFFFFFFFF64
:101C9000FFFFFFFFFFFFFFFFFFFFFFFFFFFFFFFF54
:101CA000FFFFFFFFFFFFBEFFDEFF34ADEB6A4752D1
:101CB000A962475A2D9C7AFFD8EEAC8B2A736F9C91
:101CC00032B5F1AC909CCD8312ADB5C573BDCD8B53
:101CD0008441E54922318B7BF1ACE96A8C7B4B7303
:101CE000F6C5FFFFFFFFFFFFFFFFFFFFFFFFFFFF47
:101CF000FFFFFFFFFFFFFFFFFFFFFFFFFFFFFFFFF4
:101D0000FFFFFFFFFFFFFFFFFFFFFFFFBEFFEA62D6
:101D1000064A2B730A6BA862A86A76DEFDFF93BDA4
:101D200032B536CED1A4D1A4D1A40F8C8D7BEA627A
:101D30004C738C7B685A685AA441000840182331C0
:101D40002752895A38CEBEFFFFFFFFFFFFFFFFFF7C
:101D5000FFFFFFFFFFFFFFFFFFFFFFFFFFFFFFFF93
:101D6000FFFFFFFFFFFFFFFFFFFFFFFFFFFF9DF7ED
:101D70003CEF895AC641A962E649A962C549AC83CC
:101D8000D0A412AD33AD909C2F8C13A5B19495B512
:101D9000B5B533ADD29C71942F8CEE830A73A962D2
:101DA00003310752485248521CEFFFFFDFFFFFFF8D
:101DB000FFFFFFFFFFFFFFFFFFFFFFFFFFFFFFFF33
:101DC000FFFFFFFFFFFFFFFFFFFFFFFFFFFFFFFF23
:101DD000DFFFFFFF1BEFEA62C541EA6A475A844111
:101DE0002A732A6B2A6BB19C74B533A5D6BD58CE25
:101DF000BAD658C655A558C6DBDE38C659CE95BDED
:101E000074BD2F942C73CA6A14B5FFFF3DF77DF79C
:101E1000DFFFFFFFFFFFFFFFFFFFFFFFFFFFFFFFF2
:101E2000FFFFFFFFFFFFFFFFFFFFFFFFFFFFFFFFC2
:101E3000FFFFFFFFDEFFFFFFFEFFF6C5A96264396B
:101E4000C96A4F940E8CEE83D19C74ADD6BDFADE78
:101E50003CE7FBDEBAD6DBD676AD7ACEBACE18BE7C
:101E60003CE738C617CE38D614AD0F8C8A5A96BDCB
:101E7000FFFFDFFFFFFFFFFFFFFFFFFFFFFFFFFF92
:101E8000FFFFFFFFFFFFFFFFFFFFFFFFFFFFFFFF62
:101E9000FFFFDFFFDFFFFFFFDEFFDDFFFDFF93BD85
:101EA000A862CD83B4C5F2AC4C6BB6B575B579D626
:101EB000FBDE38C63CE71CDFFCDE18BEB7AD528443
:101EC000FCD61DDFDCD61DDFD49CF59CDCDE76ADB8
:101ED000B3940C63139DFFFFDFFFBEF7FFFFFFFF0F
:101EE000BEF7FFFFDFF7FFFFFFFFFFFFFFFFFFFF73
:101EF000FFFFFFFFFFFFFFFFFFFFFFFFFEFFFDFFF5
:101F000015CECC834E9497DE16D68D7B7194B6B5E4
:101F1000DBDE96B5D7BDFFFFDBDE5DE77EEF117C34
:101F2000F59C359D19BEBCCE5EE7B8AD9CCE3AC6D9
:101F3000D8B51DDF35A551848E6B38BEFFFFFFFF7E
:101F4000FFFFFFFFDFFFFFFFBFF7FFFFFFFFFFFF09
:101F5000FEFFFFFFFFFFFFFFFFFFFFFFFFFFFEFF93
:101F6000DDFF7BEFD09C8B73F5C57BF7B4C5CE83CB
:101F7000B6BDDADE3CE7BAD6F8BDDBD618C6DBD68E
:101F8000DFF7159DB494117CB8AD3EDFDDD6906BC4
:101F90003AC6FDD6DDD67AC69ACE76AD928C4D6322
:101FA0001BDFFFFFFFFFFFFFFFFFFFFFBFF7FFFF8D
:101FB000FFFFFFFFFFFFFFFFFFFFDFFFDFFFDFFF91
:101FC000DFFFDEFF7CF794BDED8331ADF9E6F5CDA3
:101FD000909C54B538CEBAD69AD6FFFF18BE31843D
:101FE000928C9BD63DE75AC6B7ADB38C9BCEFFF71C
:101FF0001DDF5284F594BFEF3EDFFDDE39C6DBD630
:1020000075AD0C5BF39CDEF7FFFFDFF7FFFFDFFF33
:10201000DFFFFFFFFFFFFFFFFEFFFFFFFFFFDFFF11
:10202000BFF7DFFFFFFFFFFFFAE66B736B7397DE0F
:10203000D9E6909C709458CE3CE79AD65DEFFFFFAE
:1020400018C6D394928CFCDE5EE7DCD61DDF1DDF64
:102050005EE7FDDEFDDE19BE3ABE5FE7FDDE1DDF99
:10206000BBD6D7B596ADD3940C5B79CEFFFFFFFFFF
:10207000FFFFFFFFFFFFFFFFFFFFFFFFFEFFFFFF71
:10208000FFFFFFFFDFFFFFFFFFFFFFFFF2A467522D
:102090004E9419EF52B5AD7B33AD99DEBAD67DEFD4
:1020A0003DE7FCDE39C676AD55A5F073F8BD5EE7B9
:1020B0003AC697ADDCD6DCD69BCEFDD67FE7DCD624
:1020C000DCD6359D9BCEF49C39C6F7B50C5BF39CF2
:1020D000FFFFFFFFDFFFFFFFFFFFDFFFFFFFFFFF50
:1020E000FFFFFFFFFFFFFFFFFFFFFFFFBEFF3CEF14
:1020F000C962A85AB4BDB8DE8C738C7317CE58CEA3
:102100001CE7DFF71CDFDBD67EEFFCDE7EEFF07333
:102110008B4A9BCE369D117C9BCE9FEF1DDF9FEFA0
:10212000DCD67FEF19BEB3945284DBD67ACE59C683
:10213000928C4D633CE7FFFFDEF7FFFFFFFFDFFF01
:10214000FFFFFFFFFFFFFFFFFFFFDFFFFFFFFFFFBF
:102150005DF778D6274A2A6B15C6F5C5E962EE8386
:1021600058D696B579CE317C76AD728459C67EEF5D
:102170001DDF59C6872976A5DCD6FCD6DCD6DCD691
:102180001DDFBCD69BCE7EE7DCD65284728C1DDF71
:102190001CDF7ACEF8BD494239C6FFFFBEF7FFFF0C
:1021A000FFFFFFFFFFFFFFFFFFFFDEF7FFFFFFFF68
:1021B000FFFFFFFFFFFF919C84396F94D8DE2E8CC8
:1021C000474AD19C99D61CE79ACE1074AF73928C73
:1021D000B7ADFCDE3DDF7EE73284E9395EE73DDF07
:1021E000FCD6DCD67EE7DCD63EDF1DDF9BCE97AD8E
:1021F00056A539C69ACEBBD618BE8E6B5184FFFF4A
:10220000FFFFDEF7FFFFFFFFFFFFFFFFFFFFDFFF27
:10221000FFFFFFFFBFFFBFFFBEFFCE83064AD1A473
:1022200097DECD7BA95254AD9AD61CE71CDF728491
:10223000CF6B7284D8B53DDF1DDFDCD6F9BD8729B1
:1022400076A5BFEFDCD61DDFFCD69BCE3DDFFCDEE6
:10225000BBD65AC69BCE7BCEBBD65AC618BEF07B29
:10226000EF7BDFF7FFFFDEFFFFFFFFFFFFFFFFFF5B
:10227000FFFFFFFFFFFFFFFFDFFFBFFF5DF70B6B00
:10228000685A12ADF5C5E962A95A95B59ACEFCDE39
:102290007EE739BE39BE7BC6FCD67EE73DDF1DDF5B
:1022A0009FEFB073EC521DDFBCD63DE75EE77FEFDA
:1022B000F8BD18BE19BE39BE9BCE76ADBBD6BBD617
:1022C00039C693946D6BBEF7FFFFDFFFFFFFFFFF83
:1022D000FFFFFFFFFFFFFFFFFFFFFFFFFFFFDFFF2E
:1022E0003CF7895A675A12AD52B5474A0B6358C634
:1022F000BBD61DDFFCD63DDF9FEF7FE71DD7FCD6A9
:10230000FCD6FCD67FE75AC6C410159D9FEF5EE74A
:102310007BCE97AD7AC61CDF7EEF5EE79BCE4E6329
:10232000B394F49C5AC635A50C5B9EEFFFFFFFFFEC
:10233000FFFFFFFFFFFFFFFFFFFFFFFFFFFFDFFFCD
:10234000DFFFDFFF1CF70752C549D1A432AD474A72
:102350008D73BAD6BBD6BCCE97ADBBCE1DD7FCCE47
:10236000DCCE1DD71DDFFCD6FDD6FFF78F6B317C91
:10237000D4948F6BAF73B394317C5184107C8F6B8A
:102380000D5B2621728CF9BD7ACE56A52D63BEF762
:10239000FFFFFFFFFFFFFFFFFFFFFFFFFFFFFFFF4D
:1023A000FFFFBFFFBFFFDFFF1BEFC64923316F9C5D
:1023B00011A506420B63F7BD97AD159D6E5BD8ADB9
:1023C000FDD61DD73DD73DDF5EE71DD75EDF97AD5C
:1023D000D4943284159D56A5B39456A5B7B5F8B5D7
:1023E00039C65AC65AC6D4943AC6DCD67ACE15A592
:1023F000CF73DFF7FFFFFEFFFFFFFFFFFFFFFFFFD2
:10240000FFFFFFFFFFFFBFFFBFFFDFFF3CF7E64916
:10241000A120ED8BD19CA539284255A556A5F59450
:10242000AC4AF9B53EDF3EDF1DD7DCCEFCD67AC61E
:10243000738452845AC65AC65EE7BFF73EE77FEF01
:102440005DE73DDF3DDF3DDF3EE7BCD6FDDEFDDE87
:102450009BCEB3949394FFFFFFFFDEFFFFFFFFFFD0
:10246000FFFFFFFFFFFFFFFFFFFFBFFFDFFFDFFFFC
:102470009DFF485A8018AD83B09C84310742D7BD78
:10248000BBD6BBCEF4945EDF3EDFBBCEFDD63DDFD8
:102490001DDF19BE19BEDFF7DCD6D8B51DDF9BCE18
:1024A0001DDFDCD61CDF1CDF5DE73DDF1DDF3DDF10
:1024B000BCD6BBD69BCE728C35A5FFFFFFFFDEFFDF
:1024C000FFFFFFFFFFFFFFFFFFFFFFFF9EFFFFFF7D
:1024D000BFFFFFFFDEFFEE836010A95AB19C85317C
:1024E0008531B6BD7ACE1DE7FDDEFDDEBCD61DDF33
:1024F000BCD6FDDEDCD61DDFFDDEFCDE1DDF77ADEC
:102500003DDFFCDEFCD61DDF1DD77EE7FCD6B7AD78
:10251000159D3DDFDCD6DBD618BE718C9ACEFFFF51
:10252000FFFFFFFFFFFFFFFFFFFFFFFFDFFFFFFFDB
:10253000BFFFFFFFDEFFDEFFFFFF54AD2329C95AB7
:1025400013A507428110B29CFBE6BBDEFCDE5FEF09
:102550003EE77FEF1DE7FDDEFDDEFDDE1DDF1DDF5B
:10256000FCDED8B51DDF3DE75EE71DDF1DD75EDF72
:102570009FE7D06B0C531CDF7AC6FBD696AD149D3B
:102580001CE7FFFFBEF7FFFFFFFFFFFFFFFFFFFF9F
:10259000DFFFFFFFBFFFFFFFFFFFDEFFFFFFFAE6EA
:1025A000A95A0B6354AD6D7381108D73FBE67ACE1F
:1025B000DCDEF9BD938CB8B51DE7FDDE1DE7BCD6AA
:1025C000FDDEFDDE7AC6F8B59BCE1CD77EE7FCD6D5
:1025D0005EDF9BC61CD79384AF6B18B6149D38BEC4
:1025E000149D18BEDFFFFFFF9DF7FFFFFFFFDEFF1B
:1025F000FFFFFFFFDFFFFFFFDFFFFFFFFFFFDEFF4C
:10260000FFFFFEFFD19C8C73D19C13A5484AEA6260
:1026100017CE79D69FF716A58C52738C3EE71DDF37
:102620003EE71DDF1DDFDCD639BE7AC65AC6BBCEFB
:102630005EE7FCD6BFEF3DDF5DDFBFEF7EE7DBD6B9
:1026400059C67ACE76AD1CDFFFFFDFFFBEF7FFFF76
:10265000FFFFFFFFFFFFFFFFFFFFFFFFDFFFDFFFCA
:10266000FFFFDEFFDEFFFEFFB9DE0E84CD7B94B5FB
:102670007094A95A919CBADEB7BDF59C8F6B159DDD
:10268000FDDEDCD6DCD63DDF3EDFFDD6DCD63EDF30
:102690001DD7FCD63DDF3DDF9384D7ADBBCEDCD666
:1026A000FCD6DBD67ACEB7B59ACEDEF7FFFFDFFFDA
:1026B000FFFFFFFFFFFFFFFFFFFFFFFFFFFFFFFF2A
:1026C000DFFFDFFFFFFFFEFFBDF7DEFFDDFF12A52F
:1026D0006B73D19C32AD4B6BAC7B58CE9294D8BD12
:1026E000B8B53AC6DCD6DCD6159DD4943DDF1DD7EF
:1026F0009FE7FDD63EDF5EE71DD71DD78E63B38C07
:102700007EE7BBCE9ACEFBD6F8BD38C69EEFFFFF64
:10271000DEFFFFFFFFFFDEFFFFFFFFFFFFFFFFFF0B
:10272000FFFFFFFFFFFFFFFFFFFFFFFFFEFFDEFFDB
:10273000FEFFB9DEB09C0E8CF1A44F948B7BB19C54
:102740007ACE7EEF1DDF5EE7FCDEFCDE6F638F6B13
:102750003DDFFDD67EE7159D3ABE7FE7FDD6FDD66F
:10276000B38C928CFCD61CDF1CDF39C6B7B51CDFDE
:10277000FFFFFFFFBEF7FFFFFFFFBEF7FFFFFFFFFB
:10278000FFFFFFFFFFFFFFF7FFFFFFFFDEF7FFFF8A
:10279000FFFFFEFFFEFFFEFF57D6ED836F9452B59D
:1027A000CC830A6359CE7ACE39C63DE7BBD63DE726
:1027B000F07B19BE7EE71DDF3DDF0D5BF5947FE703
:1027C0001DDF3DDFF8B575A576AD7ACE1CDFB6AD61
:1027D000DBD69EEFFFFFFFFFBEF7FFFFFFFFBEF759
:1027E000FFFFFFFFFFFFFFFFFFFFFFFFFFFFFFFFF9
:1027F000FFFFFFFFFFFFFFFFDEFFFEFFFDFFB4BD9A
:102800000E8C4E94B09C2F8C4D6B9ACE5DEF18BE03
:102810007ACE5DE776AD3DDF7EEFDCD639BED07394
:1028200072845EE75EE71CD7DBD69ACE18BE59C627
:10283000B6B5FBDEBEF7DFF7FFFFFFFFFFFFFFFFD1
:10284000FFFFFFFFFFFFFFFFFFFFFFFFFFFFFFFF98
:10285000FFFFFFFFFFFFFFFFFFFFFFFFFEFFBDF7D3
:10286000FEFFDDFF36CE6F94ED832F8C9194EB5AF3
:10287000D7BDFBDE9AD6AE7318BE3CE7DBD63DDF94
:102880009FEFD8B597AD3DDFBBCE7ACEFCDEBAD692
:10289000BAD6BAD6FBDEFBDE7DEFFFFFFFFFFFFF00
:1028A000FFFFFFFFFFFFFFFFFFFFFFFFFFFFFFFF38
:1028B000FFFFFFFFFFFFFFFFFFFFFFFFFFFFFFFF28
:1028C000FFFFBEFFFFFFFEFFBDFFD9DE53B5ED8367
:1028D000CE7BAE73919454AD1CE7BAD61CE738C6D4
:1028E0007ACE59C65ACE15A555A5DBD6BBD6DBD6B2
:1028F0009AD658CE38C6B6B55DEFBEF7FFFFFFFFDC
:10290000FFFFFFFFFFFFFFFFFFFFFFFFFFFFFFFFD7
:10291000FFFFFFFFFFFFFFFFFFFFFFFFFFFFFFFFC7
:10292000FFFFFFFFFFFFFFFFFFFF9DF7DEFFFEFF43
:102930009CF774B570946C736D73CE7BCE7BB6B51B
:10294000DADE3CE75DEF1CE77DEFDBDEDBDE3DE75B
:102950009BD67ACED7BD38C638C6F39CB6B59DF7A0
:10296000FFFFBEF7FFFFFFFFFFFFFFFFFFFFFFFFC0
:10297000FFFFFFFFFFFFFFFFFFFFFFFFFFFFFFFF67
:10298000FFFFFFFFFFFFFFFFFFFFDFFFFFFFFFFF77
:10299000DEFFFEFFFEFFFEFFFEFFD9DEEE834C6B87
:1029A000EE8368520B63EF83D29C34A5F7BDD7BD8D
:1029B00055AD14A5F49C75AD38C61BE79DF758CEF0
:1029C0000F8417C6FFFFDEFFFFFFFFFFFFFFFFFFC4
:1029D000FFFFFFFFFFFFFFFFFFFFFFFFFFFFFFFF07
:1029E000FFFFFFFFFFFFFFFFFFFFFFFFFFFFBFF73F
:1029F000FFFFFFFFFFFFBEF7FEFFFEFF9CF7FEFF9E
:102A0000274A7094FEFFB9DE54AD308CCE7B8D73B7
:102A10006D738E73EF83929496B579D69DF7BEF75A
:102A2000FFFFFFFF54AD38C6BDF7FFFFFFFFFFFFFD
:102A3000FFFFFFFFFFFFFFFFFFFFFFFFFFFFFFFFA6
:102A4000FFFFFFFFFFFFFFFFFFFFFFFFFFFFFFFF96
:102A5000FFFFDFFFFFFFFFFFFFFFFFFFFFFF7CEF39
:102A6000FEFF73B5A962DDFF9CFFDDFFFEFF3BEFBC
:102A70007CF7FBE679D6DBE69EF7FFFFFFFFFFFF63
:102A8000FFFFFFFFFFFFFFFF9DF79DF7BEFFFFFF6B
:102A9000FFFFFFFFFFFFFFFFFFFFFFFFFFFFFFFF46
:102AA000FFFFFFFFFFFFFFFFFFFFFFFFFFFFFFFF36
:102AB000FFFFFFFFFFFFDFFFFFFFFFFFDFFFDFF78E
:102AC000FFFFFFFF9CF76B73D5C5DDFFFEFFDDFF4A
:102AD000FEFFFFFFFFFFFFFFFFFFFFFFFFFFDFFF27
:102AE000FFFFDFFFBEFFFFFFFFFF5CEFFFFFFFFF0A
:102AF000DFFFFFFFFFFFFFFFFFFFFFFFFFFFFFFF06
:102B0000FFFFFFFFFFFFFFFFFFFFFFFFFFFFFFFFD5
:102B1000FFFFFFFFFFFFFFFFFFFFFFFFFFFFFFFFC5
:102B2000FFFFFFFFFFFFFFFFD9DEEE7B7CF7FEFF1D
:102B30009DF7FFFFFFFFFFFFFFFFFFFFFFFFFFFF0F
:102B4000FFFFFFFFFFFFFFFFFFFFFFFFFFFFFFFF95
:102B5000FFFFFFFFFFFFFFFFFFFFFFFFFFFFFFFF85
:102B6000FFFFFFFFFFFFFFFFFFFFFFFFFFFFFFFF75
:102B7000FFFFFFFFFFFFFFFFFFFFFFFFFFFFFFFF65
:102B8000FFFFFFFFFFFFFFFFFFFFFFFFFFFF78CE0D
:102B9000FFFFFEFFDEFFFFFFDFFFFFFFFFFFFFFF87
:102BA000FFFFFFFFFFFFFFFFFFFFFFFFFFFFFFFF35
:102BB000FFFFFFFFFFFFFFFFFFFFFFFFFFFFFFFF25
:102BC000FFFFFFFFFFFFFFFFFFFFFFFFFFFFFFFF15
:102BD00000000A0B02090C0D0E0807030401000097
:102BE00000000000000000000000000000000000E5
:102BF00000000000000000000000000012111000A2
:102C000000000000000000000000000000000000C4
:102C100000000000000000002200250028002B001A
:102C20002E003100340002010000050108010B01F3
:102C3000000020002300260029002C002F00320075
:102C4000000100000301060109010505050507054E
:102C500008080808020202020A0A08080404040418
:102C60000101010101010101030303030303030344
:102C7000040707070C0C0C0C0C0C0C0C02020202D3
:102C800006060606060606060B0B0B0B0B0B0B0BBC
:102C9000010210202008081020401020408002016E
:102CA0000201080402010102040810204080804053
:102CB0002010080402018004020180402010080452
:102CC00002010804020101020408102040800102F0
:102CD0000408102040807C3C3E5E2B3D3F2F5B5D16
:102CE0003B2C2A225C002032201A00000000000049
:102CF00000000000000000000000000000000000D4
:102D000000000000000000000000000000000000C3
:102D100000000000000000000000000000000000B3
:102D200000000000000000000000000000000000A3
:102D30000000000000000000000000000000000093
:102D40000000000000000000000000000000000083
:102D50000000000000000000000000000000000073
:102D60000000000000000000000000000000000063
:102D70000000000000000000000000000000000053
:102D80000000000000000000000000000000000043
:102D90000000000000000000000000000000000033
:102DA0000000000000000000000000000000000023
:102DB0000000000000000000000000000000000013
:102DC00000000C0000001E0000003F0000003F005B
:102DD00000003F0000003F0000003F0000003F00F7
:102DE00000003F0000003F0000003F0000003F00E7
:102DF00000003F0000003F0000003F0000003C00DA
:102E0000000038000000200000000000000020004A
:102E10000000300000003C0000003F0000003F00C8
:102E200000003F0000003F0000003F0000003F00A6
:102E300000003F0000003F0000003F0000003F0096
:102E400000003F0000003F0000003F0000003F0086
:102E500000001E0000000C00000000000000000048
:102E60000000000000000000000000000000000062
:102E70000000000000000000000000000000000052
:102E80000000007FFF0000FFFF8001FFFF8000FFC8
:102E9000FF00007FFE0000000000000000000000B6
:102EA0000000000000000000000000000000000022
:102EB0000000000000000000000000000000000012
:102EC0000000000000000000000000000000000002
:102ED00000000000000000000000000000000000F2
:102EE00000000000000000000000000000000000E2
:102EF00000000000000000000000000000000000D2
:102F000000000000000000000000000000000000C1
:102F100000000000000000000000000000000000B1
:102F200000000000000000000000000000000000A1
:102F30000000000000000000000000000000000091
:102F4000000000000000007FFF0000FFFF8001FF85
:102F5000FF8000FFFF00007FFE0000000000000077
:102F60000000000000000000000000000000000061
:102F70000000000000000000000000000000000051
:102F80000000000000000000000000000000000041
:102F9000000000000000007FFF0001FFFFC007FFEE
:102FA000FFF001FFFFE0007FFF8000000000000055
:102FB0000000000000000000000000000000000011
:102FC0000000000000000000000000000000000001
:102FD00000000000000000000000000000000000F1
:102FE00000000000000000000000007FFF0000FF64
:102FF000FF8001FFFFC000FFFF80007FFF00000097
:1030000000000000000000000000000000000000C0
:103010000000003FFF80007FFFC000FFFFE0007F57
:10302000FFC0033FFF80078000000FC000000FC0FB
:1030300000000FC000000FC000000FC000000FC054
:1030400000000FC000000FC000000FC000000FC044
:1030500000000FC000000FC000000FC000000F8074
:1030600000000E7FFF8008FFFFE003FFFFF801FF75
:10307000FFF0007FFFC60000001E0000007E000081
:10308000007E0000007E0000007E0000007E000048
:10309000007E0000007E0000007E0000007E000038
:1030A000007E0000007E0000007E0000007E000028
:1030B000007E0000003C003FFF98007FFFC000FF43
:1030C000FFE0007FFFC0003FFF8000000000000025
:1030D00000000000000000000000000000000000F0
:1030E000000000000000060000000F0000001F802C
:1030F00000001F8000001F8000001F8000001F8054
:1031000000001F8000001F8000001F8000001F8043
:1031100000001F8000001F8000001F8000001F8033
:1031200000001E0000001C00000010000000000055
:103130000000000000000000000C0000003C000047
:1031400000FC000000FC000000FC000000FC00008F
:1031500000FC000000FC000000FC000000FC00007F
:1031600000FC000000FC000000FC000000FC00006F
:1031700000FC000000FC00000078000000300000AF
:10318000000000000000000000000000000000003F
:103190000000000000000000000000000000007FB0
:1031A000FF0000FFFF8001FFFF8000FFFF00067FA0
:1031B000FE000F0000001F8000001F8000001F8025
:1031C00000001F8000001F8000001F8000001F8083
:1031D00000001F8000001F8000001F8000001F8073
:1031E00000001F8000001F8000001F0000001CFF67
:1031F000FF0011FFFFC007FFFFF013FFFFE01CFF00
:10320000FF8C1F00003C1F8000FC1F8000FC1F8003
:1032100000FC1F8000FC1F8000FC1F8000FC1F8042
:1032200000FC1F8000FC1F8000FC1F8000FC1F8032
:1032300000FC1F8000FC1F8000FC1F8000FC0F00B2
:103240000078067FFF3000FFFF8001FFFFC000FF16
:10325000FF80007FFF000000000000000000000071
:103260000000000000000000000000FFFE0001FF61
:10327000FF0003FFFF0001FFFE0000FFFC00000055
:10328000000000000000000000000000000000003E
:10329000000000000000000000000000000000002E
:1032A000000000000000000000000000000000001E
:1032B000000000000000000000000000000000000E
:1032C00000000000000000000000000000000000FE
:1032D00000000000000000000000000000000000EE
:1032E00000000000000000000000000000000000DE
:1032F00000000000000000000000000000000000CE
:1033000000000000000000000000000000000000BD
:1033100000000000000000000000000000000000AD
:10332000000000000000000000000000000000009D
:103330000000007FFF0000FFFF8001FFFF8000FF13
:10334000FF00067FFE000F0000001F8000001F80AE
:1033500000001F8000001F8000001F8000001F80F1
:1033600000001F8000001F8000001F8000001F80E1
:1033700000001F8000001F8000001F8000001E0052
:1033800000001C0000001000000000000000100001
:103390000000180000001E0000001F8000001F80B9
:1033A00000001F8000001F8000001F8000001F80A1
:1033B00000001F8000001F8000001F8000001F8091
:1033C00000001F8000001F8000001F8000001F8081
:1033D00000000F000000067FFF0000FFFF8001FFDC
:1033E000FFC000FFFF80007FFF0000000000000022
:1033F00000000000000000000000007FFF0000FF50
:10340000FF8001FFFFC000FFFFB0007FFF780000DA
:1034100000FC000000FC000000FC000000FC0000BC
:1034200000FC000000FC000000FC000000FC0000AC
:1034300000FC000000FC000000FC000000FC00009C
:1034400000FC000000FC0000003C0000000C00003C
:10345000000400000000000000000000000C00005C
:10346000003C000000FC000000FC000000FC00002C
:1034700000FC000000FC000000FC000000FC00005C
:1034800000FC000000FC000000FC000000FC00004C
:1034900000FC000000FC000000FC00000078007F41
:1034A000FF3000FFFF8001FFFFC000FFFF80007FB3
:1034B000FF0000000000000000000000000000000D
:1034C0000000007FFF0000FFFF8001FFFFC000FF42
:1034D000FFB0067FFF780F0000FC1F8000FC1F80FC
:1034E00000FC1F8000FC1F8000FC1F8000FC1F8070
:1034F00000FC1F8000FC1F8000FC1F8000FC1F8060
:1035000000FC1F8000FC1F8000FC1F8000FC1F00CF
:10351000003C1CFFFF0C11FFFFC407FFFFF013FF6F
:10352000FFE01CFFFF8C1F00003C1F8000FC1F8081
:1035300000FC1F8000FC1F8000FC1F8000FC1F801F
:1035400000FC1F8000FC1F8000FC1F8000FC1F800F
:1035500000FC1F8000FC1F8000FC1F8000FC1F80FF
:1035600000FC0F000078067FFF3000FFFF8001FFA6
:10357000FFC000FFFF80007FFF0000000000000090
:10358000000000000000000000000000000000003B
:10359000000000000000000000000000000000002B
:1035A000000000000000000000000000000000001B
:1035B000000000008000000180000001C000000346
:1035C000E0000003E0000003E0000003E00000036F
:1035D000E0000003E00000FFFF0001FFFFC007FF65
:1035E000FFF003FFFFE000FFFF800003E0000003A7
:1035F000E0000003E0000003E0000003E00000033F
:10360000C0000001C0000001800000008000000038
:1036100000000000000000000000000000000000AA
:10362000000000000000000000000000000000009A
:10363000000000000000000000000000000000008A
:10364000000000000000000000000000000000007A
:10365000000000000000000000000000000000006A
:10366000000000000000000000000000000000005A
:10367000000000000000000000000000000000004A
:10368000000000000000000000000000000000003A
:10369000000000000000000000000000000000002A
:1036A000000000000000000000000000000000001A
:1036B000000000000000000000000000000000000A
:1036C00000000000000000000000000000000000FA
:1036D00000000000000000000000000000000000EA
:1036E00000000000000000000000000000000000DA
:1036F00070000000F8000001FC000001FC00000167
:10370000FC000000F8000000700000000000000055
:1037100000000000000000000000000000000000A9
:103720000000000000000000000000000000000099
:103730000000000000000000000000000000000089
:103740000000000000000000000000000000000079
:103750000000000000000000000000000000000069
:1037600000000000000000FFFF0001FFFFC007FF96
:10377000FFF003FFFFE000FFFF80000000000000FB
:103780000000000000000000000000000000000039
:103790000000000000000000000000000000000029
:1037A0000000000000000000000000000000000019
:1037B0000000000000000000000000000000000009
:1037C00000000000000000000000000000000000F9
:1037D00000000000000000000000000000000000E9
:1037E00000000000000000000000000000000000D9
:1037F00000000000000000000000000000000000C9
:1038000000000000000000000000000000000000B8
:1038100000000000000000000000000000000000A8
:103820000000000000000000000000000000000098
:103830000000000000000000000000000000000088
:103840000000000000000000000000000000000078
:103850000000000000000000000000000000000068
:103860000000000000000000000000000000000058
:103870000000000000000000000000000000000048
:1038800070000000F8000001FC000001FC000001D5
:10389000FC000000F80000007000000000000000C4
:1038A0000000000000000000000000000000000018
:1038B000000000000010000000380000007C000044
:1038C00000FC000000FC000000FC000000FC000008
:1038D00000FC000000FC000000FC000000FC0000F8
:1038E00000FC000000FC000000FC000000FC0000E8
:1038F00000FC0000003C007FFF0C01FFFFC407FF3D
:10390000FFF013FFFFE01CFFFF801F0000001F807F
:1039100000001F8000001F8000001F8000001F802B
:1039200000001F8000001F8000001F8000001F801B
:1039300000001F8000001F8000001F8000001F800B
:1039400000001F8000000F000000060000000000C3
:103950000000000000000000000000000000000067
:103960000000000000000000000000000000000057
:103970000000007FFF0000FFFF8001FFFFC000FF8D
:10398000FFB0067FFF780F0000FC1F8000FC1F8047
:1039900000FC1F8000FC1F8000FC1F8000FC1F80BB
:1039A00000FC1F8000FC1F8000FC1F8000FC1F80AB
:1039B00000FC1F8000FC1F8000FC1F8000FC1F001B
:1039C000003C1C00000C100000040000000010006F
:1039D00000001C00000C1F00003C1F8000FC1F802A
:1039E00000FC1F8000FC1F8000FC1F8000FC1F806B
:1039F00000FC1F8000FC1F8000FC1F8000FC1F805B
:103A000000FC1F8000FC1F8000FC1F8000FC1F804A
:103A100000FC0F000078067FFF3000FFFF8001FFF1
:103A2000FFC000FFFF80007FFF00000000000000DB
:103A30000000000000000000000000000000000086
:103A400000000000000000000030000000780000CE
:103A500000FC000000FC000000FC000000FC000076
:103A600000FC000000FC000000FC000000FC000066
:103A700000FC000000FC000000FC000000FC000056
:103A800000FC000000FC0000003C0000000C0000F6
:103A9000000400000000000000000000000C000016
:103AA000003C000000FC000000FC000000FC0000E6
:103AB00000FC000000FC000000FC000000FC000016
:103AC00000FC000000FC000000FC000000FC000006
:103AD00000FC000000FC000000FC0000007800007A
:103AE00000300000000000000000000000000000A6
:103AF00000000000000000000000000000000000C6
:103B00000000007FFF0000FFFF8001FFFFC000FFFB
:103B1000FFB0007FFF78000000FC000000FC000008
:103B200000FC000000FC000000FC000000FC0000A5
:103B300000FC000000FC000000FC000000FC000095
:103B400000FC000000FC000000FC000000FC000085
:103B5000003C00FFFF0C01FFFFC407FFFFF013FF55
:103B6000FFE01CFFFF801F0000001F8000001F807F
:103B700000001F8000001F8000001F8000001F80C9
:103B800000001F8000001F8000001F8000001F80B9
:103B900000001F8000001F8000001F8000001F80A9
:103BA00000000F000000067FFF0000FFFF8001FF04
:103BB000FFC000FFFF80007FFF000000000000004A
:103BC00000000000000000000000007FFF0000FF78
:103BD000FF8001FFFFC000FFFFB0007FFF78000003
:103BE00000FC000000FC000000FC000000FC0000E5
:103BF00000FC000000FC000000FC000000FC0000D5
:103C000000FC000000FC000000FC000000FC0000C4
:103C100000FC000000FC0000003C00FFFF0C01FF66
:103C2000FFC407FFFFF003FFFFE000FFFF8C000071
:103C3000003C000000FC000000FC000000FC000054
:103C400000FC000000FC000000FC000000FC000084
:103C500000FC000000FC000000FC000000FC000074
:103C600000FC000000FC000000FC00000078007F69
:103C7000FF3000FFFF8001FFFFC000FFFF80007FDB
:103C8000FF00000000000000000000000000000035
:103C90000000000000000000000000000000000024
:103CA0000030060000780F0000FC1F8000FC1F8021
:103CB00000FC1F8000FC1F8000FC1F8000FC1F8098
:103CC00000FC1F8000FC1F8000FC1F8000FC1F8088
:103CD00000FC1F8000FC1F8000FC1F8000FC1F00F8
:103CE000003C1CFFFF0C11FFFFC407FFFFF003FFA8
:103CF000FFE000FFFF8C0000003C000000FC000023
:103D000000FC000000FC000000FC000000FC0000C3
:103D100000FC000000FC000000FC000000FC0000B3
:103D200000FC000000FC000000FC000000FC0000A3
:103D300000FC0000007800000030000000000000DF
:103D40000000000000000000000000000000000073
:103D500000000000000000000000007FFF0000FFE6
:103D6000FF8001FFFFC000FFFF80067FFF000F0004
:103D700000001F8000001F8000001F8000001F80C7
:103D800000001F8000001F8000001F8000001F80B7
:103D900000001F8000001F8000001F8000001F80A7
:103DA00000001F8000001F0000001CFFFF0011FF2B
:103DB000FFC007FFFFF003FFFFE000FFFF8C0000E4
:103DC000003C000000FC000000FC000000FC0000C3
:103DD00000FC000000FC000000FC000000FC0000F3
:103DE00000FC000000FC000000FC000000FC0000E3
:103DF00000FC000000FC000000FC00000078007FD8
:103E0000FF3000FFFF8001FFFFC000FFFF80007F49
:103E1000FF000000000000000000000000000000A3
:103E20000000007FFF0000FFFF8001FFFFC000FFD8
:103E3000FF80067FFF000F0000001F8000001F8032
:103E400000001F8000001F8000001F8000001F80F6
:103E500000001F8000001F8000001F8000001F80E6
:103E600000001F8000001F8000001F8000001F0056
:103E700000001CFFFF0011FFFFC007FFFFF013FF52
:103E8000FFE01CFFFF8C1F00003C1F8000FC1F8018
:103E900000FC1F8000FC1F8000FC1F8000FC1F80B6
:103EA00000FC1F8000FC1F8000FC1F8000FC1F80A6
:103EB00000FC1F8000FC1F8000FC1F8000FC1F8096
:103EC00000FC0F000078067FFF3000FFFF8001FF3D
:103ED000FFC000FFFF80007FFF0000000000000027
:103EE00000000000000000000000007FFF0000FF55
:103EF000FF8001FFFFC000FFFFB0007FFF780000E0
:103F000000FC000000FC000000FC000000FC0000C1
:103F100000FC000000FC000000FC000000FC0000B1
:103F200000FC000000FC000000FC000000FC0000A1
:103F300000FC000000FC0000003C0000000C000041
:103F4000000400000000000000000000000C000061
:103F5000003C000000FC000000FC000000FC000031
:103F600000FC000000FC000000FC000000FC000061
:103F700000FC000000FC000000FC000000FC000051
:103F800000FC000000FC000000FC000000780000C5
:103F900000300000000000000000000000000000F1
:103FA0000000000000000000000000000000000011
:103FB0000000007FFF0000FFFF8001FFFFC000FF47
:103FC000FFB0067FFF780F0000FC1F8000FC1F8001
:103FD00000FC1F8000FC1F8000FC1F8000FC1F8075
:103FE00000FC1F8000FC1F8000FC1F8000FC1F8065
:103FF00000FC1F8000FC1F8000FC1F8000FC1F00D5
:10400000003C1CFFFF0C11FFFFC407FFFFF013FF74
:10401000FFE01CFFFF8C1F00003C1F8000FC1F8086
:1040200000FC1F8000FC1F8000FC1F8000FC1F8024
:1040300000FC1F8000FC1F8000FC1F8000FC1F8014
:1040400000FC1F8000FC1F8000FC1F8000FC1F8004
:1040500000FC0F000078067FFF3000FFFF8001FFAB
:10406000FFC000FFFF80007FFF0000000000000095
:1040700000000000000000000000007FFF0000FFC3
:10408000FF8001FFFFC000FFFFB0067FFF780F0039
:1040900000FC1F8000FC1F8000FC1F8000FC1F80B4
:1040A00000FC1F8000FC1F8000FC1F8000FC1F80A4
:1040B00000FC1F8000FC1F8000FC1F8000FC1F8094
:1040C00000FC1F8000FC1F00003C1CFFFF0C11FFC8
:1040D000FFC407FFFFF003FFFFE000FFFF8C0000BD
:1040E000003C000000FC000000FC000000FC0000A0
:1040F00000FC000000FC000000FC000000FC0000D0
:1041000000FC000000FC000000FC000000FC0000BF
:1041100000FC000000FC000000FC00000078007FB4
:10412000FF3000FFFF8001FFFFC000FFFF80007F26
:10413000FF000000000000000000FFFFFFFFFFFF86
:10414000FFFFFFFF7DEFFFFF7DEF7DEFFFFFDFFF55
:104150007DEFFFFFFFFFFFFFFFFFFFFFDFFFFFFF21
:10416000FFFFDFFFDFFFFFFFFFFFFFFFDFFFFFFFBF
:10417000FFFF7DEF59CEDBDE5DEFBEF7FFFFFFFFF8
:104180007DEF9EF7FFFFFFFFBEF7BEF7DFFFFFFFEC
:10419000FFFFFFFFFFFFFFFFFFFFFFFFFFFFDFFF4F
:1041A000FFFFFFFFDFFFBEF7FFFF9EF7BEF73CE715
:1041B000FBDEFBDEFBDEDBDEFBDE3CE73CE7DFFFBE
:1041C000DFFFFFFFFFFFDFFFFFFFFFFFDFFFDFFF7F
:1041D000FFFFDFFF9EF718C69294EF7B2C631084DD
:1041E00014A5DBDEFFFFFFFF7DEF5DEFFFFFFFFFAD
:1041F000FFFFFFFFFFFFDFFF7DEFBEF7FFFFFFFFCA
:10420000FFFFFFFFFFFFBEF7FFFFFFFFDFFF55AD23
:1042100018C6FFFF5DEFBEF7FFFF9EF77DEF9EF72D
:104220003CE75DEFDFFFFFFFFFFFDFFFFFFFFFFF6B
:10423000DFFFFFFFFFFFFFFFBEF7718CA631494A8A
:10424000AE734D6BAA52CB5A9294DBDEFFFFFFFF99
:104250009EF7FFFFFFFFFFFFDFFFFFFFFFFFFFFFF7
:104260009EF7FFFFFFFFFFFFFFFFBEF7FFFFFFFF10
:10427000BEF7718CCB5A7DEFFFFFFFFFFFFFDFFF23
:10428000DFFFBEF73CE71CE75DEF9EF7BEF7FFFFE1
:10429000FFFFFFFFFFFFFFFFFFFFFFFFFFFF38C62E
:1042A0002C632842E739CB5ACB5A694A08422C631F
:1042B000D7BDDFFFFFFF9EF7FFFFFFFFFFFFFFFF01
:1042C000FFFFFFFFFFFFFFFFFFFF9EF7FFFFFFFF67
:1042D0009EF7FFFFFFFF59CE2842B2943CE7FFFF55
:1042E0007DEF5DEF9EF79EF79EF73CE71CE7DBDE78
:1042F0005DEFFFFFFFFFDFFFFFFFFFFFFFFFDFFFC0
:10430000FFFFFFFF3CE775ADAA528631E739EB5A54
:10431000EB5AE739494AD39C1CE7FFFFDFFF9EF7C2
:10432000DFFFFFFFDFFFDFFFFFFFFFFFFFFFFFFFFD
:10433000FFFFFFFFDFFFFFFF9EF7FFFF96B58A52EB
:1043400075AD9EF7DFFFDFFFBEF79EF7DFFF7DEF66
:104350003CE779CEDBDEDFFFFFFF9EF7FFFFDFFFED
:10436000FFFFFFFFFFFFDFFFFFFFFFFF7DEFAE73EC
:10437000C7398631694A28428631494A2C63BAD600
:104380009EF7FFFFBEF7DFFFFFFFFFFF7DEFFFFFA1
:10439000FFFFFFFFBEF79EF7FFFFFFFFBEF7FFFF28
:1043A000FFFF1084CF7B96B5DFFFFFFF9EF79EF7E0
:1043B0003CE75DEF7DEF79CE18C63CE7FFFFBEF727
:1043C000FFFFFFFFDFFF9EF7FFFFFFFF9EF7DFFF0F
:1043D0009EF7FBDE8E738631C739C739C739E73997
:1043E000A631494A55ADDFFFFFFF7DEF9EF7FFFF86
:1043F000FFFFFFFFFFFF9EF7FFFFDFFF1CE75DEF03
:10440000FFFF5DEFDFFFFFFF8E73AE731CE77DEFF5
:104410007DEFFFFF3CE7FBDEBEF79AD696B5BAD636
:10442000FFFFFFFFFFFFDFFFFFFFFFFFFFFFDFFFDC
:10443000BEF7FFFFBEF7FFFFAE7324218631A63122
:10444000652965294529452986318E73DBDEFFFF05
:10445000DFFF9EF7FFFFFFFFFFFFFFFF9EF7FFFF5E
:1044600075AD38C61CE7FFFFFFFFFFFF3CE78E730B
:1044700034A5DFFF3CE79EF71CE7FBDE1CE7FBDE15
:10448000D7BD18C69EF7FFFFDFFFFFFFDFFFFFFF6F
:10449000FFFFFFFFFFFFFFFFBEF73CE7E3186529C3
:1044A0004529A21045292421C3182421C318A2108C
:1044B0002842B6B5FFFFFFFFDFFFFFFFFFFFDFFF73
:1044C000FFFFFFFF14A53CE759CED7BDFFFFFFFF5D
:1044D0007DEFF7BD34A51CE79EF75DEF9EF7FBDE91
:1044E0001CE7FBDED7BD38C6DFFFFFFFDFFFFFFFA6
:1044F000DFFFDFFFDFFFBEF7DFFFFFFF9EF72C636D
:104500004529E318C3182421E31820002421610859
:104510004529C31820008210EF7B7DEFFFFFFFFFCE
:10452000FFFFDFFFBEF7FFFFF39C79CE1CE718C645
:1045300059CE7DEFFFFFFFFF38C61CE79EF7FBDE7D
:104540003CE7FBDEDBDEBAD6D7BD59CEDFFFFFFF8F
:10455000FFFFFFFFDFFFFFFFFFFFDFFFFFFFFFFFAB
:10456000BEF7652982108210C3184108A2102421C9
:104570006108E318E318A2100421E318821075AD56
:10458000DFFFFFFFFFFFFFFFBEF7FFFF55AD14A5E5
:10459000FFFF5DEFF7BD79CEFFFF7DEF1CE75DEF1D
:1045A0005DEF3CE7DBDEFBDE79CE38C6D7BD9AD6C1
:1045B000DFFFFFFFFFFFDFFFDFFFFFFFFFFFFFFF6B
:1045C000FFFFFFFF9EF79294EB5A2421A210863141
:1045D000E31882100421C3184529E3186108084232
:1045E0004108F7BDFFFFFFFFFFFFBEF7FFFFFFFF23
:1045F00079CE718C3CE73CE77DEFF7BD9AD6D7BD0D
:104600005DEF3CE75DEF9AD6FBDE1CE738C618C6C7
:1046100038C6FBDEDFFFBEF7FFFFFFFFFFFFFFFF38
:10462000FFFFBEF7DFFFDFFF3CE79EF7CF7BAA521D
:104630002421242141088210863104218631C73982
:1046400086312421C318BAD6FFFFFFFFFFFFFFFF0B
:10465000FFFFDFFF5DEF6D6B59CEBEF7DBDED7BD31
:1046600075ADD7BD7DEF3CE71CE714A5D7BD59CE8E
:1046700038C69AD6DBDE3CE7DFFFDFFFFFFFFFFF38
:10468000FFFFFFFFDFFFBEF7FFFFDFFF1CE714A503
:10469000CB5AEF7BC7390000C739CF7BAA524529D7
:1046A00041084529CB5A8210CB5A3CE7BEF7FFFFA1
:1046B000FFFFFFFFDFFFDFFFFFFFAE7334A59EF7B5
:1046C00034A575ADB6B59AD63CE7FBDEB6B5D39C3E
:1046D00014A5308496B51CE7FBDE1CE7FFFFFFFF47
:1046E000FFFFFFFFDFFFDFFFDFFFFFFFFFFF1CE735
:1046F00096B528423084518C4D6B2C63F7BDBAD6E9
:1047000038C6694A8210610841084529BAD6FFFFB8
:10471000BEF7FFFFFFFF9EF7FFFFBEF7FFFF96B557
:104720004D6B75ADB6B534A5BAD679CE59CE38C66F
:10473000108479CEB6B52842F39C3CE7BAD69AD617
:10474000FFFFFFFFDFFFFFFFDFFFFFFFFFFFFFFFB9
:104750005DEF75AD2C63EF7B10848E73FBDE38C686
:10476000DFFFFFFFBEF7FBDECB5A6529A210D7BDE6
:10477000FFFF7DEFFFFFFFFFFFFFFFFFFFFFFFFFDB
:104780005DEFBEF7EB5AB29434A5D7BDB6B59AD655
:10479000F7BD518C59CE34A5CB5A108455AD3CE7AA
:1047A000DBDEDBDEFFFFDFFFDFFFFFFFDFFF9EF76C
:1047B00018C6F7BDDBDE8E736D6B10846D6B79CE22
:1047C000FFFFBEF7FFFFFFFFDFFFFFFF1CE7B29415
:1047D00092947DEFFFFFBEF7FFFFFFFFFFFFFFFF9C
:1047E000BEF7FFFFFFFFFFFF96B5308496B5B6B565
:1047F000D7BDD7BD718C18C614A5EF7B4D6B38C6DD
:10480000DBDEFBDEBAD65DEFFFFFDFFFBEF77DEF3D
:10481000FFFF55AD652965294D6B8E73CF7B8A529D
:1048200079CEFFFFDFFFFFFFFFFFFFFFFFFF9EF7D8
:10483000FFFF7DEF5DEFFFFFFFFF7DEFFFFFFFFF5E
:10484000FFFFFFFFFFFFBEF7FFFFFFFF3CE7F39C0B
:1048500096B514A5F7BDD39CF39C55ADAE730C6310
:10486000F39C38C61CE7BAD659CEDBDE7DEFFFFFDE
:10487000FFFFFFFF518C24212842042141080C63D3
:10488000284234A5FFFFFFFF7DEFFFFFDFFFBEF7EC
:10489000FFFFBEF7FFFFFFFFFFFFFFFFFFFFDFFF91
:1048A000FFFFFFFFFFFFFFFFFFFF7DEF9EF7FFFF13
:1048B000D39CF39C96B596B596B5D39CF7BDCF7BAC
:1048C000EB5AEF7B75AD18C6FBDEFBDE1CE7DBDECB
:1048D0007DEFFFFF9EF78E730421E739A631E7399C
:1048E000E73900006D6BFFFFDFFF3CE7FFFFFFFFD5
:1048F000BEF7FFFFFFFFFFFFBEF77DEF9EF7DFFF75
:10490000FFFFFFFFDFFFFFFFFFFFFFFFFFFFDFFFF7
:10491000FFFFFFFFAA522C63B294B6B5D39C55ADEE
:1049200014A530844D6B75ADF39C18C6B6B5D7BDD4
:1049300079CE38C61CE75DEFAE73E318494AC73934
:104940006529A6312421000034A5FFFF1CE7FFFFE5
:10495000FFFF9EF7FFFFFFFFDFFFFFFFDFFFFFFF10
:10496000FFFFFFFFFFFFFFFFDFFFFFFFFFFFFFFF77
:10497000BEF7FFFFFFFFBEF755ADCB5A694AEF7B8D
:104980009294F39CF39CF39C14A518C638C655ADBD
:10499000718C34A5F7BD75AD59CEB6B586318A5246
:1049A0006529A631E739E318610845293CE7BEF7D8
:1049B0007DEFFFFFFFFFDFFFFFFFBEF7FFFFFFFF02
:1049C000FFFFFFFFFFFFFFFFFFFFFFFFFFFFFFFFF7
:1049D000FFFFFFFFFFFFFFFFBEF79EF7FFFF96B54C
:1049E0004D6B0842EB5ACB5A4D6BCB5A8E73EB5A38
:1049F000518CD39CB29438C6DBDE79CEBAD638C699
:104A00009294C31828422421042104210000B29466
:104A1000FFFFFFFFFFFFBEF7BEF7FFFFFFFF7DEFCA
:104A2000FFFFFFFFDFFF9EF79EF7FFFFFFFFFFFF88
:104A3000FFFFFFFFFFFFFFFFFFFF7DEFFFFFDFFF38
:104A40007DEFFFFF1CE775ADCF7BCF7B0C634D6B1C
:104A50008A52E7392842AE733084D7BD59CE9AD6F0
:104A60009AD6F7BDBAD6B294E318863104218210E3
:104A70008631DFFF7DEF7DEFFFFFFFFFFFFFFFFFD1
:104A8000DFFFFFFFFFFFFFFFFFFFFFFFFFFFFFFF56
:104A9000FFFFDFFFFFFFFFFFFFFFFFFFFFFFFFFF46
:104AA000FFFFFFFFFFFFFFFFFFFFFFFFBEF71CE75A
:104AB000FBDE79CE96B5B2946D6B2842AE73718CE5
:104AC00038C618C6BAD6FBDE96B59AD6718C821057
:104AD0000000C31875ADBEF7DFFFDFFFFFFFFFFF6C
:104AE000FFFFFFFFFFFFFFFFFFFFFFFFFFFFFFFFD6
:104AF000FFFFFFFFFFFFFFFFFFFFFFFFFFFFFFFFC6
:104B0000FFFFFFFFFFFFFFFFFFFFFFFFFFFF9EF71E
:104B1000FFFFBEF7FFFFFFFFDFFFDFFF5DEFF39C4F
:104B2000494A718C718C59CEFBDE18C659CE55ADF1
:104B300059CE3084A210AE7379CEFFFF9EF7FFFFEF
:104B4000FFFFFFFFFFFFFFFFFFFFFFFFFFFFFFFF75
:104B5000FFFFFFFFFFFFFFFFFFFFFFFFFFFFFFFF65
:104B6000FFFFFFFFFFFFFFFFFFFFFFFFFFFFFFFF55
:104B7000FFFFBEF7FFFFFFFFFFFFFFFFFFFFFFFF8E
:104B8000DFFF1CE7718CCB5A518C34A5D7BD9AD668
:104B9000BAD659CE55AD9AD6929496B5FFFFDFFF9F
:104BA000FFFFFFFFFFFFFFFFFFFFFFFFFFFFFFFF15
:104BB000FFFFFFFFFFFFFFFFFFFFFFFFFFFFFFFF05
:104BC000FFFFFFFFFFFFFFFFFFFFFFFFFFFFFFFFF5
:104BD000FFFFFFFFFFFFFFFFFFFFBEF7DFFFFFFF4E
:104BE000BEF7DFFFDFFFFFFF75AD04211084929455
:104BF000718C9AD679CEFBDEF7BDF39C9EF77DEFE4
:104C00003CE7FFFFDFFFFFFFFFFFFFFFFFFFFFFFAF
:104C1000FFFFFFFFFFFFFFFFFFFFFFFFFFFFFFFFA4
:104C2000FFFFFFFFFFFFFFFFFFFFFFFFFFFFFFFF94
:104C3000FFFFFFFFFFFFFFFFFFFFFFFFFFFFBEF7CD
:104C4000FFFFFFFFBEF7FFFFFFFFBEF70842A21006
:104C5000C7399294B29414A518C638C6FBDE96B52F
:104C6000D7BD9EF71CE7FFFFBEF7FFFFFFFFFFFF6B
:104C7000FFFFFFFFFFFFFFFFFFFFFFFFFFFFFFFF44
:104C8000FFFFFFFFFFFFFFFFFFFFFFFFFFFFFFFF34
:104C9000FFFFFFFFFFFFFFFFFFFFFFFFFFFFFFFF24
:104CA000FFFFFFFFFFFF9EF77DEFFFFF9EF74D6BBE
:104CB0002000E318A210694A14A5B29475AD18C675
:104CC00038C63CE755AD34A5FFFFFBDEFFFFDFFF35
:104CD000DFFFFFFFFFFFFFFFFFFFFFFFFFFFFFFF04
:104CE000FFFFFFFFFFFFFFFFFFFFFFFFFFFFFFFFD4
:104CF000FFFFFFFFFFFFFFFFFFFFFFFFFFFFFFFFC4
:104D0000FFFFBEF7DFFFFFFFFFFFDFFFFFFFBEF785
:104D1000D39C00000421A210042161084D6BF39C78
:104D200014A5D7BD38C618C61CE734A559CE5DEF0B
:104D30005DEFBEF7DFFFDFFFFFFFFFFFFFFFFFFFBE
:104D4000FFFFFFFFFFFFFFFFFFFFFFFFFFFFFFFF73
:104D5000FFFFFFFFFFFFFFFFFFFFFFFFFFFFFFFF63
:104D6000FFFFFFFFFFFFFFFFFFFFFFFFDFFF9EF7DC
:104D7000FFFF18C68210C31882108210A210C31839
:104D8000E3181084F39CB6B5D7BD59CE38C63CE7BE
:104D900075AD59CE3CE79EF7BEF7DFFFFFFFFFFF83
:104DA000FFFFFFFFFFFFFFFFFFFFFFFFFFFFFFFF13
:104DB000FFFFFFFFFFFFFFFFFFFFFFFFFFFFFFFF03
:104DC000FFFFFFFFFFFFFFFFFFFFFFFFFFFF9EF75C
:104DD000FFFFDFFFFBDE2842C318C3186108042170
:104DE000A210410841086529B29414A5D7BD18C680
:104DF00018C6BAD679CE18C659CE9AD65DEFDFFF5F
:104E0000DFFFDFFFFFFFFFFFDFFFFFFFFFFFFFFF12
:104E1000FFFFFFFFFFFFFFFFFFFFFFFFFFFFFFFFA2
:104E2000FFFFFFFFFFFFFFFFFFFFFFFFFFFFFFFF92
:104E3000FFFFFFFF3CE7FFFFCB5AE739A631A21087
:104E4000C318200061082000C318AA528A52B294E5
:104E5000F7BD18C696B538C659CEDBDE18C618C6DB
:104E600059CE1CE7FFFFFFFFDFFFDFFFFFFFFFFF64
:104E7000FFFFFFFFFFFFFFFFFFFFFFFFFFFFFFFF42
:104E8000FFFFFFFFFFFFFFFFFFFFFFFFFFFFFFFF32
:104E9000FFFFDFFFFFFF7DEFFFFF3084E739A63123
:104EA0002842E31861084108200000006D6B18C615
:104EB0008A52EB5A14A596B559CE55AD79CEFBDE84
:104EC00079CEF7BDD7BD38C63CE7FFFFFFFFDFFF58
:104ED000FFFFFFFFFFFFFFFFFFFFFFFFFFFFFFFFE2
:104EE000FFFFFFFFFFFFFFFFFFFFFFFFFFFFFFFFD2
:104EF000FFFFFFFFFFFFDFFFDFFFFFFF96B5A631DC
:104F000028420842863145298210C3180000C7395B
:104F1000FBDEFFFFF7BD08422C6355AD79CED7BD50
:104F2000F7BD38C6BAD69AD679CE18C618C6FBDEF3
:104F3000FFFFFFFFBEF7FFFFFFFFFFFFFFFFFFFFCA
:104F4000FFFFFFFFFFFFFFFFFFFFFFFFFFFFFFFF71
:104F5000FFFFFFFFFFFFFFFFFFFFFFFFFFFF9AD6EF
:104F6000A63128420842863165294529E3182000E8
:104F7000E31875ADFFFF7DEFFFFF9294E739718C69
:104F8000F39CBAD696B596B538C6DBDEDBDE79CEB5
:104F9000F7BD38C61CE7DFFFFFFFFFFFFFFFFFFF86
:104FA000FFFFFFFFFFFFFFFFFFFFFFFFFFFFFFFF11
:104FB000FFFFFFFFFFFFFFFFFFFFFFFFFFFFFFFF01
:104FC0001CE7CB5A2842C739C7396529A63165295C
:104FD00000004108D39CBEF7BEF7FFFFBEF79EF767
:104FE0006D6B494ACF7B75AD9AD655AD38C659CE53
:104FF00079CEBAD6BAD638C6F7BDDBDEFFFFDFFF03
:10500000DFFFFFFFFFFFFFFFFFFFFFFFFFFFFFFFD0
:10501000FFFFFFFFFFFFFFFFFFFFFFFFFFFFFFFFA0
:10502000FFFF7DEFEF7BC7398A52C7390421084261
:105030002421042141084D6BFFFFFFFF7DEFFFFF9F
:105040007DEFFFFF59CE8A522C638E7338C6D7BDD1
:1050500018C6D7BD18C69AD6FBDE9AD618C679CE22
:105060001CE7BEF7DFFFDFFFFFFFFFFFFFFFFFFFD4
:10507000FFFFFFFFFFFFFFFFFFFFFFFFFFFFFFFF40
:10508000FFFFFFFFFFFFF39C494A0842C739863103
:105090008631E318E3180000CB5ADBDEDFFFDFFFC9
:1050A000FFFF9EF7FFFF9EF7FFFF75AD28422C63C1
:1050B000AE739AD696B5D7BD18C659CE79CEDBDE7B
:1050C0001CE79AD6D7BD9EF7BEF7DFFFFFFFFFFFB5
:1050D000FFFFFFFFFFFFFFFFFFFFFFFFFFFFFFFFE0
:1050E000DFFFFFFF7DEFFFFFF7BD494A494AA631C9
:1050F000C73945292421863100008631F7BDFFFFDD
:105100009EF7FFFFFFFFDFFFFFFFFFFFDFFFFFFF58
:105110004D6B8A524D6BAE7359CE96B579CED39CFA
:10512000EB5AEB5A75ADBEF738C659CE9EF7FFFF66
:10513000BEF7FFFFFFFFFFFFDFFFFFFFFFFFFFFFE8
:105140009EF7FFFFFFFFBEF7FFFF18C68A522842F7
:10515000694AA63186314529084200004108F39C7E
:105160007DEFFFFFDFFFFFFFFFFFBEF7FFFFDFFF6A
:10517000DFFF9EF7FFFF8A528A526D6B108459CE73
:10518000D7BD308496B596B59294BAD6FBDE18C6D4
:105190005DEFFFFFFFFFFFFFFFFFFFFFFFFFFFFFD1
:1051A000FFFFFFFFFFFFFFFFDFFFBEF71CE7C73971
:1051B0004529E73928426529C739242161080000BB
:1051C00030849EF7FFFFFFFFDFFFFFFFFFFFDFFFE2
:1051D000FFFFDFFFBEF7FFFFFFFF9AD6E7392C6323
:1051E0004D6BF7BD96B559CEBEF7DFFFBAD659CE97
:1051F000BEF738C63CE7FFFFFFFFFFFFBEF7BEF775
:10520000FFFFFFFFFFFFDFFFFFFFFFFFDFFFFFFFEE
:10521000BAD6E31804210842A631E31845294529E6
:105220000000CB5ADBDEFFFFDFFFDFFFFFFFFFFFEA
:10523000FFFFFFFFFFFFDFFFFFFFDFFF5DEFFFFF70
:1052400055AD494A6D6BCF7B38C6D7BDFBDE3CE719
:1052500038C65DEF1CE79AD65DEFBEF7DFFFFFFFB4
:10526000FFFFDFFFFFFFFFFFFFFFFFFF9EF7FFFFD7
:10527000FFFFBEF7FFFFF39C652904210421652988
:10528000C3180000452959CEBEF7FFFFDFFFFFFF1F
:10529000FFFFDFFFFFFFFFFFDFFFFFFFFFFFDFFF7E
:1052A000FFFFBEF7FFFFAE73694A1084F39C59CE2F
:1052B000D7BDD7BD59CE18C67DEFB6B53CE7FFFFC9
:1052C000BEF7DFFFFFFFFFFFFFFFFFFFFFFFFFFF57
:1052D000DFFFFFFFDFFFFFFFFFFFBEF734A5694AD7
:1052E0008210821000002000B294BEF7FFFFFFFF83
:1052F000FFFFFFFFFFFFDFFFFFFFFFFFFFFFDFFFFE
:10530000FFFFFFFFDFFFFFFFDFFF1CE76D6BAA5210
:10531000B29475AD79CE59CE14A534A59294F39C70
:10532000FBDEFFFFFFFFDFFFFFFFFFFFFFFFFFFFD2
:10533000FFFFFFFFFFFFFFFF9EF7FFFF7DEFBEF7C1
:10534000FFFF9AD60C6341082000CF7BFFFFFFFFD1
:10535000BEF7FFFFFFFFFFFFFFFFFFFFFFFFFFFFA6
:10536000FFFFBEF7FFFFBEF7FFFFFFFFDFFFFFFFFF
:105370009AD6AA528A521084718C3084CF7B8A527A
:105380008A52F7BD7DEFFFFFFFFFFFFFFFFFFFFF2B
:10539000FFFFFFFFFFFFFFFFBEF7FFFFFFFFBEF7AF
:1053A000FFFFFFFFBEF7DFFFDFFF718C694AFBDE07
:1053B000BEF7FFFFDFFFFFFFFFFFDFFFFFFFFFFF86
:1053C000FFFFBEF7FFFFFFFFFFFF9EF7FFFFFFFF9F
:1053D000BEF7FFFFFFFF38C62C63E739AA528A5297
:1053E00028426D6B34A5FFFFFFFFFFFFDFFFFFFFCC
:1053F000FFFFDFFFFFFFFFFFFFFFFFFFFFFFFFFFDD
:10540000FFFFFFFFFFFFFFFFFFFFFFFFDFFF7DEF5E
:105410003CE79EF7FFFFFFFFDFFFFFFFFFFFFFFF00
:10542000FFFFFFFFFFFFFFFFFFFFFFFFFFFFFFFF8C
:10543000FFFFFFFFFFFFFFFFDFFFDFFFDBDE75ADDD
:105440009294B29496B5DBDEBEF7FFFFFFFFFFFF3D
:10545000FFFFFFFFFFFFFFFFFFFFFFFFFFFFFFFF5C
:10546000FFFFFFFFFFFFFFFFFFFFFFFFFFFFFFFF4C
:10547000FFFFBEF79EF7DFFFFFFFFFFFDFFFFFFF2E
:10548000FFFFFFFFFFFFFFFFFFFFFFFFFFFFFFFF2C
:10549000FFFFFFFFFFFFFFFFFFFFFFFFDFFFFFFF3C
:1054A000FFFFBEF79EF7BEF7DFFFFFFFFFFFFFFF27
:1054B000FFFFFFFFFFFFFFFFFFFFFFFFFFFFFFFFFC
:1054C000FFFF00002100240027002A002D003000EB
:1054D000330001010000040107010A01021F1C1F23
:1054E0001E1F1E1F1F1E1F1E1F005EBCE2613FDD30
:1054F00083C29C7E20A3FD1F419DC3217FFCA2404F
:105500001E5F01E3BD3E6082DC237D9FC1421CFE25
:10551000A0E1BF5D0380DE3C62BEE0025CDF816330
:105520003D7C22C09E1D43A1FF4618FAA427799B0B
:10553000C584DA3866E5BB5907DB856739BAE40606
:10554000581947A5FB7826C49A653BD987045AB8F1
:10555000E6A7F91B45C6987A24F8A6441A99C725E8
:105560007B3A6486D85B05E7B98CD2306EEDB351D7
:105570000F4E10F2AC2F7193CD114FADF3702ECCB6
:1055800092D38D6F31B2EC0E50AFF1134DCE9072BD
:105590002C6D33D18F0C52B0EE326C8ED0530DEF98
:1055A000B1F0AE4C1291CF2D73CA947628ABF5179B
:1055B000490856B4EA6937D58B5709EBB536688A7E
:1055C000D495CB2977F4AA4816E9B7550B88D63479
:1055D0006A2B7597C94A14F6A8742AC896154BA960
:1055E000F7B6E80A54D7896B351010208F000000F9
:1055F00000000000000000000000000000000000AB
:10560000000000000000000000000000000000009A
:105610000007000F800F800F800F800F80070007AA
:105620000000000000070007000700000000000E57
:10563000380E380E380E380630000000000000002A
:105640000000000000000000000000000000000C4E
:10565000300C300C307FFE7FFE0C300C300C300CE8
:10566000307FFE7FFE0C300C300C3000000000025A
:105670004002400FF81FF81A401A401FF00FF802BE
:105680005802581FF81FF0024002400000000000BE
:105690000000000E100E300E7000E001C003800705
:1056A000000E700C70087000000000000000000088
:1056B000000F001980198019800F000F080F98192A
:1056C000F818F018E019F00F980000000000000032
:1056D000000700070007000E0000000000000000A7
:1056E00000000000000000000000000000000000BA
:1056F0000000F001C0038007000E000E000E000E37
:10570000000700038001C000F0000000000000005E
:10571000000F00038001C000E00070007000700006
:105720007000E001C003800F0000000000000000D6
:105730000001801188099007E007E03FFC3FFC076B
:10574000E007E009901188018000000000000000DF
:1057500000000000000180018001800FF00FF001C7
:1057600080018001800000000000000000000000B7
:105770000000000000000000000000000000000029
:105780000000000700070007000E000000000000F6
:1057900000000000000000000000001FF81FF800DB
:1057A00000000000000000000000000000000000F9
:1057B00000000000000000000000000000000000E9
:1057C00000000007000700070000000000000000C4
:1057D0000000020006000E001C0038007000E0010E
:1057E000C0038007000E001C000000000000000045
:1057F000000FF01C381C781CF81CF81DB81DB81FD1
:10580000381F381E381C380FF00000000000000060
:10581000000180018003801F801F800380038003BC
:10582000800380038003801FF00000000000000060
:10583000000FE01C701C380038007000E001C0034D
:105840008007000E381C381FF80000000000000020
:10585000000FE01C701C380038007003C003C0004B
:105860007000381C381C700FE000000000000000C1
:105870000000E001E003E006E00CE018E01FF81F84
:10588000F800E000E000E003F80000000000000085
:10589000001FF81C001C001C001C001FE01FF00073
:1058A0007800381C381C700FE00000000000000079
:1058B0000003E007000E001C001C001FF01FF81C76
:1058C000381C381C381C380FF000000000000000A5
:1058D000001FFC1C1C1C1C1C1C001C003800700041
:1058E000E001C0038003800380000000000000008E
:1058F000000FF01C381C381C381F3807E007E01C6C
:10590000F81C381C381C380FF000000000000000A4
:10591000000FF01C381C381C381C381FF80FF8001A
:10592000380038007000E007C000000000000000F0
:1059300000000000000380038003800000000003DB
:1059400080038003800000000000000000000000D1
:1059500000000000000380038003800000000003BB
:1059600080038003800700000000000000000000AA
:105970007000E001C0038007000E001C001C000E38
:10598000000700038001C000E0007000000000007C
:10599000000000000000003FFC3FFC000000003F52
:1059A000FC3FFC0000000000000000000000001CA4
:1059B000000E000700038001C000E00070007000CE
:1059C000E001C0038007000E001C0000000000037F
:1059D000C00FF01E7818380038007000E001C001D8
:1059E000C00000000001C001C001C0000000000FA5
:1059F000F81C1C1C1C1C1C1C1C1CFC1CFC1CFC1C6B
:105A0000FC1C001C001C001FF007F8000000000038
:105A10000003C007E00E701C381C381C381C381FEF
:105A2000F81C381C381C381C38000000000000002E
:105A3000001FF00E380E380E380E380FF00FF00E33
:105A4000380E380E380E381FF0000000000000003D
:105A50000007F00E381C381C001C001C001C001C29
:105A6000001C001C380E3807F00000000000000089
:105A7000001FE00E700E380E380E380E380E380E3D
:105A8000380E380E380E701FE000000000000000D5
:105A9000001FF80E180E080E000E300FF00FF00E5B
:105AA000300E000E080E181FF80000000000000065
:105AB000001FF80E180E080E000E300FF00FF00E3B
:105AC000300E000E000E001F00000000000000005D
:105AD0000007F00E381C381C381C001C001C001C71
